:020000040800F2
:10000000C80B002069020008096D0008572300088A
:10001000056D000819030008B77F00080000000004
:10002000000000000000000000000000DD78000873
:100030007F14000800000000BD710008F97B000873
:10004000830200088302000883020008830200087C
:10005000830200088302000883020008830200086C
:10006000830200088302000883020008830200085C
:10007000830200088302000883020008830200084C
:10008000830200088302000883020008830200083C
:10009000830200088302000883020008211C000874
:1000A000830200088302000883020008830200081C
:1000B00083020008657C00088302000883020008B0
:1000C00083020008830200088302000883020008FC
:1000D00083020008557D0008DD7D000883020008CA
:1000E00083020008830200088302000883020008DC
:1000F00083020008830200088302000883020008CC
:100100008302000855770008830200088302000874
:1001100083020008830200088302000883020008AB
:10012000830200088302000883020008830200089B
:10013000830200088302000883020008830200088B
:10014000830200088302000883020008830200087B
:10015000830200088302000883020008830200086B
:10016000830200088302000883020008830200085B
:10017000830200088302000883020008830200084B
:10018000830200088302000800F002F800F05CF827
:100190000AA090E8000C82448344AAF10107DA45E2
:1001A00001D100F051F8AFF2090EBAE80F0013F0D8
:1001B000010F18BFFB1A43F0010318479C9B000076
:1001C000BC9B00000A444FF0000C10F8013B13F0F8
:1001D000070408BF10F8014B1D1108BF10F8015BA0
:1001E000641E05D010F8016B641E01F8016BF9D193
:1001F00013F0080F1EBF10F8014BAD1C0C1B09D1EA
:100200006D1E58BF01F801CBFAD505E014F8016B5B
:1002100001F8016B6D1EF9D59142D6D370470000ED
:100220000023002400250026103A28BF78C1FBD8FF
:10023000520728BF30C148BF0B6070471FB508F098
:1002400065F91FBD10B510BD00F033F81146FFF77A
:10025000F5FF07F04FFF00F051F803B4FFF7F2FF8E
:1002600003BC07F0AAFE0000094880470948004780
:10027000FEE7FEE7FEE7FEE7FEE7FEE7FEE7FEE756
:10028000FEE7FEE704480549054A064B70470000B3
:10029000FD7B000889010008C8050020C80B00206C
:1002A000C8070020C8070020704770477047704794
:1002B0007047754600F02CF8AE4605006946534677
:1002C00020F00700854618B020B5FFF7DBFFBDE83A
:1002D00020404FF000064FF000074FF000084FF0AD
:1002E000000B21F00701AC46ACE8C009ACE8C0093E
:1002F000ACE8C009ACE8C0098D46704710B50446AB
:10030000AFF300802046BDE81040FFF7A6BF000015
:10031000004870476805002000BFFEE770B504463E
:1003200005E01648056805F0450000B100E0F8E773
:1003300000BF042007F002FA20B1042007F0F8F90A
:10034000032070BD012007F0F9F920B1012007F06A
:10035000EFF90120F5E7094824380068A04201D0F0
:100360001020EEE740F2FF5007F0E2F90348203892
:10037000006808210840C0B2E3E70000342C0140C7
:1003800010B50246002300BF5078034310780C8854
:10039000A04215DB10784C88A04211DC50788C7993
:1003A000A0420DDB5078CC79A04209DC90780C7922
:1003B000A04205DB90784C79A04201DC012010BD01
:1003C0000020FCE72DE9FC5F83468A46914698466B
:1003D0000025002600240027FE48A0F800A0FE48C3
:1003E000A0F800A0FD48A0F800B0FD48A0F800B0BB
:1003F0000120FC4908800020FB4908800120FB49BE
:1004000008805D465646CAE30027F8480088012860
:100410007ED1F448008801287BD1002461E0F448B3
:10042000006884420ADA291B88B201AA314607F023
:100430000DF8694601A806F077FF49E0EC4800682E
:10044000844215DDEA480068B4EB400F10DAE94A4F
:100450001288324491B22A1BE54B1B88D21A90B203
:1004600001AA06F0F3FF694601A806F05DFF2FE040
:10047000DF480068B4EB400F16DDDD480068DD4959
:10048000096801EB4000A0420EDD3219D84800880F
:10049000A2EB400081B201AA284606F0D7FF6946C8
:1004A00001A806F041FF13E03319D14A1288A3EBEB
:1004B0004202D04B1B88D21A91B2CD4A1288AA1A96
:1004C00090B201AA06F0C2FF694601A806F02CFF0F
:1004D00049466846FFF754FF08B1781C87B2601C94
:1004E00084B2C4480068C24909680844B4EB400FAC
:1004F00095DBC148008801280ED1BE4909883144E6
:100500008BB2BB490988691A88B22A46314601E094
:10051000EEE030E002F0AEF8B848006887420CDD4B
:10052000B34800684000A84207DAB1480088281A9A
:1005300085B20020AC49088016E0AB48008810B9AD
:100540000120AA49088000270220A6490880A64861
:100550000088401CA4490880A5480088284485B22A
:10056000A4480088304486B29C480088A84201DD37
:100570009A48058009E39B4800880228FAD10024A4
:1005800061E09B48006884420ADA291B88B201AA0C
:10059000314606F05BFF694601A806F0C5FE49E05A
:1005A00093480068844215DD91480068B4EB400F21
:1005B00010DA904A1288324491B22A1B8C4B1B8865
:1005C000D21A90B201AA06F041FF694601A806F0CE
:1005D000ABFE2FE086480068B4EB400F16DD844880
:1005E00000688449096801EB4000A0420EDD321921
:1005F0007F480088A2EB400081B201AA284606F09D
:1006000025FF694601A806F08FFE13E03319784AEA
:100610001288A3EB4202774B1B88D21A91B2744A1C
:100620001288AA1A90B201AA06F010FF694601A822
:1006300006F07AFE49466846FFF7A2FE08B1781C2C
:1006400087B2601C84B26B48006869490968084435
:10065000B4EB400F95DB6848008801280BD1654951
:10066000098831448BB262490988691A88B22A46DE
:10067000314601F0FFFF6148006887420CDDB9F8A0
:100680000E005044B04207DD002057490880594809
:100690000088304486B224E05348008800BB022022
:1006A00052490880002701204E4908804E480088A2
:1006B000401C4D4908804F480088301A86B24C488B
:1006C0000068B5EB400F06DC494800684FF6FF7143
:1006D00001EA400505E046480088281A85B200E096
:1006E0005EE23D480088B04201DA3B4806804CE2B9
:1006F0003E48008802286BD13A480088012868D11A
:10070000002461E03A48006884420ADA291B88B272
:1007100001AA314606F09AFE694601A806F004FED9
:1007200049E033480068844215DD31480068B4EB85
:10073000400F10DA2F4A1288324491B22A1B2C4BF8
:100740001B881A4490B201AA06F080FE694601A8EF
:1007500006F0EAFD2FE026480068B4EB400F16DDF6
:10076000234800682349096801EB4000A0420EDDE0
:1007700032191F480088A2EB400081B201AA284626
:1007800006F064FE694601A806F0CEFD13E03319B9
:10079000174A1288A3EB4202164B1B88D21A91B259
:1007A000134A1288AA1A90B201AA06F04FFE6946AF
:1007B00001A806F0B9FD49466846FFF7E1FD08B11A
:1007C000781C87B2601C84B20A480068084917E0A8
:1007D00026E167E070010020720100206C0100201A
:1007E0006E010020640100206601002068010020E5
:1007F00054010020500100206A010020580100200F
:1008000009680844B4EB400FFFF67CAFF848008855
:1008100001280BD1F749098831448BB2F649098880
:10082000691A88B22A46314601F024FFF34800686D
:1008300087420CDDF04800684000A84207DA00203B
:10084000EF490880EC480088281A85B223E0002789
:10085000EB48008810B90120EA490880E848008880
:10086000401CE7490880E7480088022808D1E24890
:10087000008805EB400085B20320E34908800AE0C8
:10088000DC480088304486B20220DF490880DA481C
:100890000088284485B2DD480088A84201DDDB4895
:1008A000058072E1D84800880328FAD1D54800882D
:1008B0000228F6D1002461E0CF48006884420ADAB9
:1008C000291B88B201AA314606F0C0FD694601A87D
:1008D00006F02AFD49E0C8480068844215DDC64894
:1008E0000068B4EB400F10DAC24A1288324491B269
:1008F0002A1BC14B1B881A4490B201AA06F0A6FD20
:10090000694601A806F010FD2FE0BB480068B4EB73
:10091000400F16DDB8480068B649096801EB400091
:10092000A0420EDD3219B4480088A2EB400081B22B
:1009300001AA284606F08AFD694601A806F0F4FCE3
:1009400013E03319AC4A1288A3EB4202A94B1B886F
:10095000D21A91B2A84A1288AA1A90B201AA06F035
:1009600075FD694601A806F0DFFC49466846FFF7B9
:1009700007FD08B1781C87B2601C84B29D480068EE
:100980009D4909680844B4EB400F95DB98480088FE
:1009900001280BD19749098831448BB296490988BF
:1009A000691A88B22A46314601F064FE934800680D
:1009B000874209DDF02D07DA8F480088284485B288
:1009C00000208F49088024E08D48008800BB032068
:1009D0008C490880002702208B49088088480088BD
:1009E000401C8749088083480088304486B282488A
:1009F0000068B5EB400F06DC7F4800684FF6FF71DA
:100A000001EA400505E07C480088281A85B200E02C
:100A1000C6E07E480088A84201DD7C480580B4E03D
:100A20007848008803287DD177480088022879D14A
:100A3000002461E07048006884420ADA291B88B209
:100A400001AA314606F002FD694601A806F06CFCD9
:100A500049E069480068844215DD67480068B4EBE6
:100A6000400F10DA634A1288324491B22A1B624B5B
:100A70001B881A4490B201AA06F0E8FC694601A856
:100A800006F052FC2FE05C480068B4EB400F16DD26
:100A9000594800685749096801EB4000A0420EDD43
:100AA000321955480088A2EB400081B201AA2846BD
:100AB00006F0CCFC694601A806F036FC13E03319B9
:100AC0004D4A1288A3EB42024A4B1B88D21A91B2BC
:100AD000494A1288AA1A90B201AA06F0B7FC6946E0
:100AE00001A806F021FC49466846FFF749FC08B119
:100AF000781C87B2601C84B23E4800683E49096891
:100B00000844B4EB400F95DB3948008801280DD12B
:100B10003849098831448BB237490988691A88B243
:100B20002A4600E031E0314601F0A4FD3348006878
:100B300087420CDDB9F80E005044B04207DD2D4865
:100B40000088304486B200202D49088017E02C48E8
:100B5000008898B902202B49088003202A49088080
:100B600024480088301A86B223480088284485B279
:100B700023480088401C2249088000E010E02348F8
:100B80000088A84201DD214805801D48008803280F
:100B900004DAB9F80E005044B04200DA00E033E461
:100BA00000BF032018490880002015490880032051
:100BB000144908805D465646C8E30027114800885E
:100BC00003287DD11048008803287AD1002472E0E0
:100BD0000948006884421BDA291988B201AA314603
:100BE00006F034FC694601A806F09EFB5AE00000BE
:100BF0006A0100205001002054010020580100200B
:100C00006601002068010020640100206C010020C2
:100C1000FE480068844215DDFC480068B4EB400FD4
:100C200010DAFB4A1288324491B22A19F74B1B881A
:100C3000D21A90B201AA06F009FC694601A806F092
:100C400073FB2FE0F1480068B4EB400F16DDEF486E
:100C50000068EF49096801EB4000A0420EDD32193F
:100C6000EA480088A2EB400081B201AA284606F0BB
:100C7000EDFB694601A806F057FB13E03319E34A80
:100C80001288A3EB4202E24B1B88D21A91B2DF4AD0
:100C900012882A4490B201AA06F0D8FB694601A83E
:100CA00006F042FB49466846FFF76AFB08B1781C2C
:100CB00087B2601C84B2D6480068D449096801E054
:100CC000FDE04BE00844B4EB400F81DBD1480088E5
:100CD00001280BD1CE480088304483B2CC4800882C
:100CE000284482B23146284601F0C4FCCA48006854
:100CF000874209DDF02D07DAC4480088284485B210
:100D00000020C649088022E0C448008810B90320AA
:100D1000C349088000270220C2490880BF480088D4
:100D2000401CBE490880B9480068B5EB400F06DC9E
:100D3000B64800684FF6FF7101EA400503E0B3488A
:100D40000088281A85B2B2480088304486B2B64876
:100D50000088A84201DAB4480580EDE2B148008875
:100D60000228FAD1002461E0A848006884420ADA27
:100D7000291988B201AA314606F068FB694601A824
:100D800006F0D2FA49E0A1480068844215DD9F4888
:100D90000068B4EB400F10DA9D4A1288324491B2D9
:100DA0002A199A4B1B88D21A90B201AA06F04EFB60
:100DB000694601A806F0B8FA2FE094480068B4EB41
:100DC000400F16DD914800689149096801EB400029
:100DD000A0420EDD32198D480088A2EB400081B29E
:100DE00001AA284606F032FB694601A806F09CFAE3
:100DF00013E03319854A1288A3EB4202844B1B8807
:100E0000D21A91B2814A12882A4490B201AA06F0FD
:100E10001DFB694601A806F087FA49466846FFF7B8
:100E2000AFFA08B1781C87B2601C84B278480068B9
:100E3000764909680844B4EB400F95DB7548008893
:100E400001280BD172480088304483B27048008872
:100E5000284482B23146284601F00CFC6E480068F6
:100E600087420CDDB9F80E005044B04207DD002087
:100E70006A49088066480088304486B218E0002736
:100E80006648008898B902206549088003206549B2
:100E9000088062480088401C604908805C480088DF
:100EA000301A86B259480088284485B200E04EE2E4
:100EB0005E480088B04201DA5C4806803CE258484F
:100EC000008802287ED15748008803287BD100245F
:100ED00061E04E48006884420ADA291988B201AA02
:100EE000314606F0B3FA694601A806F01DFA49E05A
:100EF00046480068844215DD44480068B4EB400F62
:100F000010DA434A1288324491B22A193F4B1B88A7
:100F1000D21A90B201AA06F099FA694601A806F021
:100F200003FA2FE039480068B4EB400F19DD374869
:100F300000683749096801EB4000A04211DD331910
:100F4000324A1288A3EB420291B2304A12882A44F4
:100F500090B201AA06F07AFA694601A806F0E4F90F
:100F600010E0321929480088A2EB4000284A128874
:100F7000801A81B201AA284606F068FA694601A8DB
:100F800006F0D2F949466846FFF7FAF908B1781C2D
:100F900087B2601C84B21E4800681C490968084476
:100FA000B4EB400F95DB1B48008801280ED1184890
:100FB0000088304483B216480088284482B2314603
:100FC000284601E003E14DE001F054FB12480068BF
:100FD000874209DDF02D07DA0020104908800B4810
:100FE0000088284485B236E000270C48008810B9F4
:100FF00003200B49088009480088401C07490880E5
:101000000748008802281BD1004811E05401002045
:10101000500100206A0100205801002066010020D4
:1010200068010020640100206E0100207201002090
:101030000088A5EB400085B20120FE4908800AE047
:10104000FD480088304486B2FC480088281A85B2E2
:101050000220F8490880FA480088A84201DAF848D6
:10106000058069E1F34800880128FAD1F548008835
:101070000228F6D1002461E0F048006884420ADAD0
:10108000291988B201AA314606F0E0F9694601A89B
:1010900006F04AF949E0E9480068844215DDE7486E
:1010A0000068B4EB400F10DAE34A1288324491B280
:1010B0002A19E24B1B88D21A90B201AA06F0C6F98F
:1010C000694601A806F030F92FE0DC480068B4EB6F
:1010D000400F19DDD9480068D749096801EB400085
:1010E000A04211DD3319D54A1288A3EB420291B216
:1010F000D24A12882A4490B201AA06F0A7F969469A
:1011000001A806F011F910E03219CC480088A2EBD2
:101110004000C94A1288801A81B201AA284606F006
:1011200095F9694601A806F0FFF849466846FFF7B9
:1011300027F908B1781C87B2601C84B2BE480068E9
:10114000BE4909680844B4EB400F95DBBE480088EF
:1011500001280BD1B8480088304483B2B6480088D3
:10116000284482B23146284601F084FAB748006824
:1011700087420CDDB14800684000A84207DAAF485A
:101180000088281A85B20020B149088018E000279D
:10119000AF48008898B90120AA4908800220A549D3
:1011A0000880AB480088401CA9490880A2480088F4
:1011B000304486B2A1480088284485B200E0C6E0E9
:1011C0009F480088A84201DA9D480580B4E09D4808
:1011D000008801287ED19748008802287AD100240F
:1011E00061E09648006884420ADA291988B201AAA7
:1011F000314606F02BF9694601A806F095F849E05A
:101200008E480068844215DD8C480068B4EB400FBE
:1012100010DA894A1288324491B22A19874B1B8806
:10122000D21A90B201AA06F011F9694601A806F097
:101230007BF82FE081480068B4EB400F19DD7F4850
:1012400000687D49096801EB4000A04211DD3319B7
:101250007A4A1288A3EB420291B2784A12882A4451
:1012600090B201AA06F0F2F8694601A806F05CF80F
:1012700010E0321971480088A2EB40006E4A1288D3
:10128000801A81B201AA284606F0E0F8694601A852
:1012900006F04AF849466846FFF772F808B1781C2C
:1012A00087B2601C84B264480068644909680844D5
:1012B000B4EB400F95DB6448008801280DD15E48EF
:1012C0000088304483B25C480088284482B23146AA
:1012D000284600E030E001F0CDF95C480068874224
:1012E0000CDDB9F80E005044B04207DD52480088CA
:1012F000304486B200205649088017E054480088E0
:1013000098B902204F49088001204A4908804A487C
:101310000088301A86B249480088281A85B24C489D
:101320000088401C4A49088000E010E049480088D5
:10133000B04201DA4748068045480088032804DAAD
:10134000B9F80E005044B04200DA00E035E400BFC6
:101350003B480088401D3A4908803F4800880A38C9
:101360003D4908803B4800880A303A4908803B489C
:1013700000880A3839490880314800883649098888
:10138000401A374908603348008834490988401AB0
:10139000344908603249086800EBD0712E4A12883F
:1013A00002EB6101A8F800102E49086800EBD0712B
:1013B0002A4A128802EB6101A8F802102848008826
:1013C000A8F8040027480088A8F8060022480088EA
:1013D000A8F8080021480088A8F80A0018480088E2
:1013E000A8F80C001B480088A8F80E001D4890EDD6
:1013F000000AF8EEC00A1A4890ED000AB8EEC00ADA
:1014000080EE801A184880ED001AB8F80400B9F888
:101410000C10884231DAB8F80600B9F80E1088428C
:101420002BDAB8F80400B9F80810884225DDB8F8BE
:1014300006001BE064010020500100205401002040
:101440006E010020680100206A0100205801002080
:1014500066010020720100206C0100207001002054
:10146000600100205C0100203C010020B9F80A1056
:10147000884202DD0120BDE8FC9F0020FBE77047A9
:101480002DE9FC5F06460C4615461F46DDF830B0D8
:101490004FF00008C146C2460020FE490870FE49D0
:1014A0000870FE490870FE490870FE490870FE4940
:1014B0000860A01BFD490860781BFD490860FB49D6
:1014C000086800EBD07106EB6101A1F10108F84852
:1014D00000684000032190FBF1F02844A0F10109CD
:1014E000F34800684000052190FBF1F02844A0F18A
:1014F000010A0020EF4908600120EF490860002040
:10150000EE490870EE48C0F8008058E0E6480560F3
:101510004CE0E54A128891B2E94A128890B201AAD9
:1015200005F094FF694601A805F0FEFE594668469D
:10153000FEF726FF70B1E048006858B1DD4800684A
:10154000401CDC49086008460068032802D10020DE
:10155000D949086059466846FEF712FF98B9D54840
:10156000006880B1D4480068401CD3490860084630
:101570000068032807D1C7480078401CC549087097
:101580000020CC49086059466846FEF7F9FE40B194
:10159000C5480068B84204D1BE480078401CBD4927
:1015A0000870C1480068401CBF490860BE48006818
:1015B000B842AEDBC2480068401CC1490860C04860
:1015C000016808F103008142A0DBBE4800880128C1
:1015D00009D1BBB208F1030C1FFA8CF2A9B21FFAB1
:1015E00088F001F047F80020B24908600120B249B4
:1015F0000860AD48C0F800906AE0B14806605EE05F
:10160000A94A128891B2AE4A128890B201AA05F096
:101610001DFF694601A805F087FE59466846FEF79A
:10162000AFFE70B1A448006858B1A2480068401CE1
:10163000A049086008460068032802D100209E499E
:10164000086059466846FEF79BFE28BB994800682B
:1016500010B399480068401C974908600846006824
:10166000042819D19149086800EBD071964A128874
:1016700002EB6101924A1268914205DD86480078CA
:10168000401C8549087004E084480078401C834968
:10169000087000208749086059466846FEF770FECA
:1016A00040B187480068A04204D17C480078401CC3
:1016B0007A49087082480068401C81490860804867
:1016C0000068A0429CDD78480068401C76490860AC
:1016D0007548016809F1030081428EDB00207549DD
:1016E00008600120744908606F48C0F800A06AE0F3
:1016F000734806605EE06C4A128891B2704A1288A4
:1017000090B201AA05F0A2FE694601A805F00CFE00
:1017100059466846FEF734FE70B16748006858B114
:1017200064480068401C6349086008460068032854
:1017300002D100206049086059466846FEF720FE45
:1017400028BB5C48006810B35B480068401C5A49DD
:10175000086008460068042819D15449086800EB5D
:10176000D071594A128802EB6101554A12689142C0
:1017700005DD4B480078401C4949087004E04948A1
:101780000078401C4749087000204A4908605946C3
:101790006846FEF7F5FD40B149480068A04204D113
:1017A00040480078401C3F49087045480068401C8C
:1017B0004349086042480068A0429CDD3A480068FE
:1017C000401C39490860384801680AF10300814229
:1017D0008EDB3148007810B101202F4908702F4866
:1017E000007810B101202D4908702D48007810B103
:1017F00001202B4908702B48007810B1012029499D
:1018000008703248007801287ED1314800780128DC
:10181000FAD120480078092811D11F48007870B902
:101820001E48007801280AD11D48007838B91D48A3
:101830000078012803D1032020490870B7E115483A
:101840000078062813D11448007801280FD11348D6
:10185000007801280BD112480078012807D11148DF
:101860000078012803D10420144908709FE1094839
:101870000078062834D10848007858BB074800781B
:1018800001282DD106480078012829D10548007883
:10189000012820E0940100209501002096010020FD
:1018A000970100209801002080010020780100208D
:1018B00084010020880100208C0100209901002073
:1018C0007C0100206A0100206C0100200C00002037
:1018D0000D00002004E003D10420B749087066E140
:1018E000B6480078062814D1B5480078012810D1F0
:1018F000B448007801280CD1B3480078012808D1F9
:10190000B248007828B900E0A5E00520AA4908708F
:101910004DE1AA480078092812D1A9480078012889
:101920000ED1A848007858B9A7480078012807D1F7
:10193000A6480078012803D106209F49087036E1A7
:101940009E480078082812D19D48007801280ED1C1
:101950009C48007858B99C480078012807D19B48DA
:101960000078012803D10620934908701FE19348AD
:101970000078062811D19248007870B99148007813
:1019800001280AD19048007838B990480078012899
:1019900003D107208849087009E1884800780328A6
:1019A00011D18748007870B98648007801280AD19B
:1019B0008548007838B985480078012803D1072088
:1019C0007D490870F3E07D480078072813D17C48F2
:1019D000007801280FD17B48007801280BD17A4884
:1019E0000078012807D179480078012803D1082020
:1019F00071490870DBE071480078082813D17048FD
:101A0000007801280FD16F48007801280BD16E486B
:101A10000078012807D16D480078012803D10820FB
:101A200065490870C3E065480078092812D1644808
:101A3000007801280ED16348007801280AD1624855
:101A40000078012806D161480078012802D10820D9
:101A500059490870ABE059480078032811D158481B
:101A6000007801280DD15748007850B956480078C1
:101A7000012806D15548007818B901204E49087050
:101A800028E04E480078032810D14D48007868B906
:101A90004C480078012809D14B48007830B94B48B0
:101AA0000078012802D14449087013E043480078C7
:101AB00004280FD14248007860B9424800780128D4
:101AC00008D14148007828B940480078012801D160
:101AD0003949087039480078062811D1384800780B
:101AE00070B93848007801280AD1374800780128B1
:101AF00006D13648007818B902202F49087056E000
:101B00002E480078072811D12D48007870B92D484B
:101B1000007801280AD12C48007838B92B48007881
:101B2000012803D102202449087040E023480078AE
:101B3000092811D12248007870B92248007801287C
:101B40000AD12148007838B920480078012803D10B
:101B50000220194908702AE018480078092811D194
:101B60001748007801280DD11648007850B916485A
:101B7000007838B915480078012803D102200E49B1
:101B8000087014E00D480078062810D10C48007841
:101B900001280CD10B48007848B90B48007830B9BF
:101BA0000A480078012802D102200349087002483F
:101BB0000078BDE8FC9F00009901002094010020FE
:101BC0009501002096010020970100209801002037
:101BD0000EB50121880305F023FB0821002005F044
:101BE0007FFE4FF48070019000208DF808000820DF
:101BF0008DF8090001208DF80A0001A800F046F8D0
:101C000017208DF8000000208DF801008DF80200EB
:101C100001208DF80300684605F078F80EBD00003D
:101C200010B54FF4807000F025F801280ED1002087
:101C30000949086001200949C1F89C020849C1F816
:101C4000A40208480078401C064908704FF48070D0
:101C500000F00AF810BD00009C8240420080404223
:101C60000000434200000020014908607047000066
:101C7000143C014001460020034A12680A400AB1A0
:101C8000012000E000207047143C0140002123495E
:101C90008279002A3AD00A46126803689A430B46B2
:101CA0001A600A1D126803689A430B1D1A600279B4
:101CB00011440A6803681A430A60184A0832126815
:101CC00003689A43154B08331A601A1D126803689B
:101CD0009A43124B0C331A604279102A0ED11A1F04
:101CE000126803681A430D4B08331A601A1D1268F4
:101CF00003681A43094B0C331A600DE00749427917
:101D000011440A6803681A430A6005E00279114425
:101D10000A6803689A430A6070470000003C01406B
:101D200051B18200A2F1C042126842F00103820068
:101D3000A2F1C042136009E08200A2F1C042126821
:101D4000034B1A408300A3F1C0431A6070470000A0
:101D5000FEFF0F00D0E901121143C268114302696E
:101D600011434269114382691143C2691143026AF6
:101D70001143426A1143826A1143C26A1143026BE2
:101D8000114302689200A2F1C042116081680829E3
:101D90000BD101688900A1F1C041096841F04002FE
:101DA00001688900A1F1C0410A60416B0968426B7A
:101DB000526841EA0211426B926841EA0221426B89
:101DC000928941EA0241426B128A41EA0251426B16
:101DD000127D41EA0261426B926911430268521C12
:101DE0009200A2F1C0421160C16AB1F5804F1BD1CF
:101DF000816B0968826B526841EA0211826B9268BA
:101E000041EA0221826B128A41EA0251826B127D01
:101E100041EA0261826B9269114302689200A2F169
:101E2000C042C2F8041107E06FF0704201688900F7
:101E3000A1F1C041C1F804217047000000B599B07C
:101E400001217A2005F0BCF90121084605F0C8F906
:101E50004FF40040179001208DF8600000208DF8AD
:101E6000620002208DF8610001208DF8630017A93F
:101E7000A04800F003FA4FF63370179002208DF857
:101E8000600000208DF8620003208DF861000120C1
:101E90008DF8630017A9984800F0F0F94FF68370A9
:101EA000179002208DF8600000208DF8620003205A
:101EB0008DF8610001208DF8630017A98F4800F0AC
:101EC000DDF94FF23F00179002208DF860000020EE
:101ED0008DF8620003208DF8610001208DF8630009
:101EE00017A9874800F0CAF940F23F401790022036
:101EF0008DF8600000208DF8620003208DF86100ED
:101F000001208DF8630017A97E4800F0B7F90C2274
:101F10000021794800F0FAF90C220121764800F0FE
:101F2000F5F90C220421744800F0F0F90C22052187
:101F3000714800F0EBF90C2208216F4800F0E6F937
:101F40000C2209216C4800F0E1F90C220A216A48B0
:101F500000F0DCF90C220B21674800F0D7F90C22C5
:101F60001146654800F0D2F90C220D21624800F0BC
:101F7000CDF90C220E21604800F0C8F90C220F2187
:101F80005D4800F0C3F90C2200215C4800F0BEF966
:101F90000C220121594800F0B9F90C2207215748B9
:101FA00000F0B4F90C220821544800F0AFF90C22DB
:101FB0000921524800F0AAF90C220A214F4800F0EA
:101FC000A5F90C220B214D4800F0A0F90C22114676
:101FD0004A4800F09BF90C220D21484800F096F980
:101FE0000C220E21454800F091F90C220F214348A4
:101FF00000F08CF90C220021414800F087F90C22F6
:1020000001213F4800F082F90C2202213C4800F0F7
:102010007DF90C2203213A4800F078F90C220421C2
:10202000374800F073F90C220521354800F06EF9AD
:102030000C221146324800F069F90C220D2130487B
:1020400000F064F90C220E212D4800F05FF90C22FB
:102050000F212B4800F05AF90C220021294800F0EA
:1020600055F90C220121274800F050F90C220221D9
:10207000244800F04BF90C220321224800F046F9D5
:102080000C2204211F4800F041F90C2205211D48B3
:1020900000F03CF90C220A211A4800F037F9002020
:1020A0000190029008200390002004900590069073
:1020B000079004200890002009900A9010200B90AF
:1020C00000200C900E900D900F9010904FF48050C7
:1020D0001190002012901390149001A81590169062
:1020E00008A8FFF737FE01210420FFF719FE19B0F9
:1020F00000BD000000040240000C0240001002403D
:1021000000140240001802402DE9FE43002400257F
:102110000026002700205149087097E04F480078BA
:1021200000287DD1002489E04D4800EBC40204EB77
:10213000C4004C4B03EB400123464B4805F0B2FD75
:10214000002879D045480078002875D104EBC400F8
:10215000444901EB4000C08804EBC401414A02EB52
:1021600041018988404A04EBC40CDFF8F88008EB91
:102170004C0CCDE900210290BCF80E3004EBC40CED
:1021800008EB4C0CBCF80A2004EBC40C08EB4C0C1C
:10219000BCF80C1004EBC40C08EB4C0CBCF80800A9
:1021A000FFF76EF93149087004EBC40C08EB4C0CD6
:1021B000BCF80E3004EBC40C08EB4C0CBCF80C2043
:1021C00004EBC40C08EB4C0CBCF80A1004EBC40C78
:1021D00008EB4C0CBCF8080000F04CFA04EBC4020D
:1021E000434603EB4202518804EBC40233F8120069
:1021F00005F06CFF1D4801781D4805F0D8FE1B480E
:10220000007830301B490870084610210B46C82260
:10221000CDE900104FF48C71104604F0F3FC01E09E
:102220000FE009E001250A2005F0E8FE062005F090
:10223000E5FE002010490870601CC4B2012CFFF6B6
:1022400073AF06480078401C0449087003480078C2
:102250000228FFF663AFBDE8FE83000012000020F5
:102260002C01002038050020BC00002010000020B8
:10227000004400401100002013000020F0B50A4681
:1022800000210023002400BF3DE0012505FA01F3F1
:10229000156805EA03049C4234D105684F00032603
:1022A000BE40B543056015794E00B540066835431C
:1022B00005601579012D02D01579022D16D185689A
:1022C0004F000326BE40B543856055794E00B540AA
:1022D000866835438560456801268E40B543456074
:1022E000456896798E40B6B235434560C5684F0063
:1022F0000326BE40B543C560D5794E00B540C668DB
:102300003543C560491C1029BFD3F0BDF0B500238B
:1023100000244D07ED0E02FA05F3CE1000F1200562
:1023200055F826504E07F70E0F26BE40B543CF1086
:1023300000F1200646F82750CE1000F1200555F890
:10234000265045EA0304CE1000F1200545F826404A
:10235000F0BD0183704700BFFEE730B5014601F0D4
:102360001F04C1F34513CA0AE50205EB43151544E2
:10237000A8B230BD70B504460026174805884088CD
:1023800045431548808846F60401884216D1124814
:102390008079012812D100200F4988712A204881B4
:1023A0002B2088810021084604F0BAF901200A494F
:1023B00088712B2048812A20888103E0002108466B
:1023C00004F0AEF904F06AFC002602E00348048041
:1023D000761CAE42FAD370BDA00100208000006CD4
:1023E00010B50446002C66D16C498871F020088035
:1023F0004FF4A07048800846808849F241318842F5
:102400000BD06648808846F60401884205D06348B0
:10241000808845F2103188421AD12C205F4908810A
:102420002A2048812B2088810846808846F60401AE
:10243000884205D05948808845F21031884206D13B
:102440004FF4A070554908804FF4F0704880A1E027
:102450005248808845F21051884210D14FF43050D4
:102460004E4908814FF4285048814FF42C50888100
:102470004FF4F07008804FF4487048808AE0474875
:10248000808841F6631188420DD12C204349088190
:102490002B2048812A2088814FF4F07008804FF467
:1024A0004870488076E022203C49088120204881FD
:1024B000212088816EE00120384988714FF4A07096
:1024C0000880F02048800846808849F241318842DF
:1024D00005D03248808845F21031884207D12C203F
:1024E0002E4908812A2048812B2088813FE02B48F3
:1024F000808846F60401884207D12C2027490881AC
:102500002B2048812A20888131E02448808845F2A8
:102510001051884210D14FF43050204908814FF4B7
:10252000285048814FF42C5088814FF4487008801F
:102530004FF4F07048801AE01848808841F6631123
:1025400088420DD12C20154908812A2048812B2052
:1025500088814FF4487008804FF4F070488006E09E
:1025600022200E49088121204881202088810B48A3
:10257000808846F60401884205D00848808845F2E4
:102580001031884206D14FF4F070044908804FF4AE
:10259000A0704880002003F04DFF10BDA001002076
:1025A0002DE9FF4F84B081468A46002003900290B7
:1025B0000698A0EB09050798A0EB0A06CDF8049051
:1025C000CDF800A0002D01DD012705E00DB90027A1
:1025D00002E04FF0FF376D42002E02DD4FF00108A0
:1025E00006E016B94FF0000802E04FF0FF387642DF
:1025F000B54201DD2C4600E034464FF0000B21E0EF
:10260000009A91B2019A90B200F022F803982844FF
:1026100003900298304402900398A04205DD03988D
:10262000001B03900198384401900298A04205DDF8
:102630000298001B02900098404400900BF10100AA
:102640001FFA80FB601C8345DADD08B0BDE8F08F1F
:1026500030B504460D462946204604F061F804F0E2
:102660001DFB024800880249088030BD020000209E
:102670008000006CF0B504460D4616461F462B46FA
:10268000324629462046FFF78BFF3B462246294625
:102690002046FFF785FF3B46324639462046FFF786
:1026A0007FFF3B46324629463046FFF779FFF0BDB3
:1026B00070B504460D4616465B48808849F24131A4
:1026C000884205D05848808845F21031884214D19C
:1026D0005549488904F0D6FA201204F0C7FAE0B24E
:1026E00004F0C4FA5049888904F0CCFA281204F0A6
:1026F000BDFAE8B204F0BAFA8CE04B48808845F2A3
:102700001051884220D14849488904F0BBFA201270
:1027100004F0ACFA44494989491C88B204F0B2FA81
:10272000E0B204F0A3FA4049888904F0ABFA281219
:1027300004F09CFA3C498989491C88B204F0A2FA49
:10274000E8B204F093FA65E03748808841F66311F7
:10275000884228D13448807920B933480088401E07
:10276000001B84B23049488904F08CFA201204F02E
:102770007DFAE0B204F07AFA201204F077FAE0B2BF
:1027800004F074FA2849888904F07CFA281204F0CD
:102790006DFAE8B204F06AFA281204F067FAE8B2B7
:1027A00004F064FA36E02048808846F60401884246
:1027B0001DD11D488079012804D11B480088401E86
:1027C000001B84B21849488904F05CFA201204F016
:1027D0004DFAE0B204F04AFA1349888904F052FA3B
:1027E000281204F043FAE8B204F040FA12E00E486E
:1027F0008079012804D10C480088401E001B84B257
:1028000009494889214604F053FA0749888929462D
:1028100004F04EFA04480089044908804FF0D8407B
:10282000A0F8806070BD0000A00100207E00006C58
:102830002DE9FC4F05460E4617469846DDF82C90CC
:10284000002001902748808846F60401884229D15B
:1028500024488079012825D1AB4635462148008897
:10286000C01B401E86B247461E480088A0EB0B00E6
:10287000401E1FFA80F800201A4988712A204881DA
:102880002B20888143463A4631462846CDF80090B1
:10289000FFF7CEFF0120134988712B2048812A20A1
:1028A00088811DE0781B401C80B20190344615E001
:1028B0002146284603F034FF04F0F0F94FF0000AF7
:1028C00007E04FF0D840A0F880900AF101001FFA0D
:1028D00080FA01988245F4DB601C84B24445E7DD50
:1028E000BDE8FC8FA001002000B5A1B00020209021
:1028F00001217A2004F064FC0121084604F070FCF8
:102900004FF400401E9001208DF87C0000208DF8CF
:102910007E0002208DF87D0001208DF87F001EA929
:10292000FE48FFF7ABFC4CF233701E9002208DF88E
:102930007C0000208DF87E0003208DF87D000120B2
:102940008DF87F001EA9F648FFF798FC4FF68070BF
:102950001E9002208DF87C0000208DF87E00032060
:102960008DF87D0001208DF87F001EA9ED48FFF74E
:1029700085FC4FF480501E9002208DF87C000020D2
:102980008DF87E0003208DF87D0001208DF87F00FA
:102990001EA9E548FFF772FC4FF480501E900220FC
:1029A0008DF87C0000208DF87E0003208DF87D00DE
:1029B00001208DF87F001EA9DC48FFF75FFC0C2288
:1029C0000021D748FFF7A2FC0C220121D448FFF7D1
:1029D0009DFC0C220421D248FFF798FC0C22052113
:1029E000CF48FFF793FC0C220821CD48FFF78EFC5F
:1029F0000C220921CA48FFF789FC0C220A21C84889
:102A0000FFF784FC0C220E21C548FFF77FFC0C2247
:102A10000F21C348FFF77AFC0C220721C148FFF7BA
:102A200075FC0C220821BF48FFF770FC0C2209211D
:102A3000BC48FFF76BFC0C220A21BA48FFF766FC82
:102A40000C220B21B748FFF761FC0C221146B54858
:102A5000FFF75CFC0C220D21B248FFF757FC0C225B
:102A60000E21B048FFF752FC0C220F21AD48FFF7B2
:102A70004DFC0C221146AC48FFF748FC0C221146D5
:102A8000AA48FFF743FC0F200890002009903C2043
:102A90000A9000200B900C900D900E900920019050
:102AA00000200290082003900020049005900690DA
:102AB000079006200F900020109011901020129087
:102AC0000020139015901490169017904FF480509A
:102AD0001890002019904FF480401A9000201B900D
:102AE00008A81C9001A81D900FA8FFF733F9012139
:102AF0000620FFF715F9322005F080FA01210020A9
:102B000004F0D6F8322005F079FA002003F056FCE4
:102B10008749888008468088FF280ADB0846808825
:102B20004FF6FF71884204D081488088B0F5134F7A
:102B30007ED1D32004F0A6F803F080FB7C49888086
:102B400003F07CFB7A49888003F078FB7849888021
:102B5000084680884FF6FF7101EA0020744988809A
:102B600003F06CFB724989880843714988800846E4
:102B7000808849F2413188425AD0BF2004F082F85F
:102B800003F05CFB6A49888003F058FB6849888041
:102B900003F054FB6649888003F050FB6449888049
:102BA000084680884FF6FF7101EA0020604988805E
:102BB00003F044FB5E49898808435D4988800846E4
:102BC000808846F6040188427AD0D42004F05AF86E
:102BD00003F034FB5649888003F030FB5449888069
:102BE00003F02CFB52498880084680884FF6FF711D
:102BF00001EA00204E49888003F020FB4C49898877
:102C000008434B4988800846808845F21031884245
:102C100056D04FF45A4004F035F803F00FFB444906
:102C200088804FF45B4004F02DF803F007FB00E0D0
:102C300046E03F498880084680884FF6FF7101EAE8
:102C400000203B4988804FF45C4004F01BF803F0FF
:102C5000F5FA3749898808433549888008468088CD
:102C6000B0F5004F02D145F210508880304880887E
:102C700045F21051884223D0A12004F003F803F05C
:102C8000DDFA2B49888003F0D9FA29498880084663
:102C900080884FF6FF7101EA00202549888003F003
:102CA000CDFA2349898808432149888008468088CD
:102CB00045F26171884203D141F663101C49888056
:102CC0001B48808849F24131884211D018488088D9
:102CD00045F2103188420BD01548808845F21051DA
:102CE000884205D01248808841F6631188422DD170
:102CF0001048006820F00F004FF02041C1F81C017F
:102D00000846D0F81C0120F47060C1F81C01084688
:102D1000D0F81C0140F003000EE000000004024067
:102D2000000C024000100240001402400018024053
:102D3000A00100201C0100A0C1F81C010846D0F829
:102D40001C0140F40070C1F81C0128E0FB48808899
:102D500046F60401884205D0F84880884CF20551B7
:102D600088421CD1F648006820F00F004FF0204147
:102D7000C1F81C010846D0F81C0120F47060C1F8AD
:102D80001C010846D0F81C0140F00A00C1F81C01E3
:102D90000846D0F81C0140F44060C1F81C01E74827
:102DA000808849F2413188427ED1CF2003F06AFF0A
:102DB000002003F05BFFC12003F058FF302003F038
:102DC00055FFED2003F05EFF642003F04FFF03206A
:102DD00003F04CFF122003F049FF812003F046FF6F
:102DE000E82003F04FFF852003F040FF102003F0A0
:102DF0003DFF7A2003F03AFFCB2003F043FF392058
:102E000003F034FF2C2003F031FF002003F02EFFED
:102E1000342003F02BFF022003F028FFF72003F0FB
:102E200031FF202003F022FFEA2003F02BFF0020D7
:102E300003F01CFF002003F019FFC02003F022FF65
:102E40001B2003F013FFC12003F01CFF012003F03F
:102E50000DFFC52003F016FF302003F007FF3020E0
:102E600003F004FFC72003F00DFFB72003F0FEFEC0
:102E7000362003F007FF482003F0F8FE3A2003F065
:102E800001FF552003F0F2FEB12003F0FBFE00200D
:102E900003F0ECFE1A2003F0E9FEB62003F0F2FE88
:102EA0000A2003F0E3FE00E097E0A22003F0DEFE3C
:102EB000F22003F0E7FE002003F0D8FE262003F006
:102EC000E1FE012003F0D2FEE02003F0DBFE0F2044
:102ED00003F0CCFE2A2003F0C9FE282003F0C6FE32
:102EE000082003F0C3FE0E2003F0C0FE082003F00C
:102EF000BDFE542003F0BAFEA92003F0B7FE432024
:102F000003F0B4FE0A2003F0B1FE0F2003F0AEFE82
:102F1000002003F0ABFE002003F0A8FE002003F029
:102F2000A5FE002003F0A2FEE12003F0ABFE00208E
:102F300003F09CFE152003F099FE172003F096FE87
:102F4000072003F093FE112003F090FE062003F00B
:102F50008DFE2B2003F08AFE562003F087FE3C20D6
:102F600003F084FE052003F081FE102003F07EFEB6
:102F70000F2003F07BFE3F2003F078FE3F2003F09C
:102F800075FE0F2003F072FE2B2003F07BFE002065
:102F900003F06CFE002003F069FE012003F066FEE2
:102FA0003F2003F063FE2A2003F06CFE002003F0B4
:102FB0005DFE002003F05AFE002003F057FEEF20D4
:102FC00003F054FE112003F05DFE782005F016F8A2
:102FD000292003F057FE03F021B95848808846F6AF
:102FE000040188427ED1112003F04CFE142005F02C
:102FF00005F8D02003F046FE072003F037FE4220FC
:1030000003F034FE1D2003F031FED12003F03AFE20
:10301000002003F02BFE1A2003F028FE092003F005
:1030200025FED22003F02EFE012003F01FFE2220F9
:1030300003F01CFEC02003F025FE102003F016FE56
:103040003B2003F013FE002003F010FE022003F0EB
:103050000DFE112003F00AFEC52003F013FE03202D
:1030600003F004FEC82003F00DFE002003F0FEFD77
:10307000252003F0FBFD212003F0F8FD052003F0DF
:10308000F5FD002003F0F2FD0A2003F0EFFD6520BE
:1030900003F0ECFD252003F0E9FD772003F0E6FDC9
:1030A000502003F0E3FD0F2003F0E0FD002003F0CB
:1030B000DDFDF82003F0E6FD012003F0D7FDFE2042
:1030C00003F0E0FD002003F0D1FD022003F0CEFD6F
:1030D000202003F0D7FD362003F0D4FD082003F0B4
:1030E000C5FD00E02EE03A2003F0CCFD552003F0B2
:1030F000BDFD2B2003F0C6FD002003F0B7FD00202E
:1031000003F0B4FD012003F0B1FD3F2003F0AEFD5C
:103110002A2003F0B7FD002003F0A8FD002003F0F3
:10312000A5FD012003F0A2FDDF2003F09FFD782024
:1031300004F064FF292003F0A5FD4CE7A001002066
:103140001C0100A0FE48808845F21031884240F002
:103150007C87ED2003F096FD012003F087FDFE2023
:1031600003F084FDEE2003F08DFDDE2003F07EFDF4
:10317000212003F07BFDF12003F084FD012003F00A
:1031800075FDDF2003F07EFD102003F06FFDC420ED
:1031900003F078FD8F2003F069FDC62003F072FD77
:1031A000002003F063FDE22003F060FDE22003F065
:1031B0005DFDE22003F05AFDBF2003F063FDAA206D
:1031C00003F054FDB02003F05DFD0D2003F04EFD33
:1031D000002003F04BFD0D2003F048FD002003F01C
:1031E00045FD112003F042FD002003F03FFD1920B2
:1031F00003F03CFD002003F039FD212003F036FDF3
:10320000002003F033FD2D2003F030FD002003F0FB
:103210002DFD3D2003F02AFD002003F027FD5D2059
:1032200003F024FD002003F021FD5D2003F01EFDCE
:10323000002003F01BFDB12003F024FD802003F0EB
:1032400015FD002003F012FD8B2003F00FFD002080
:1032500003F00CFD962003F009FD002003F006FDAD
:10326000B22003F00FFD002003F000FD002003F06A
:10327000FDFC022003F0FAFC002003F0F7FC032021
:1032800003F0F4FC002003F0F1FCB32003F0FAFC9F
:10329000002003F0EBFC002003F0E8FC002003F02A
:1032A000E5FC002003F0E2FC002003F0DFFC00203E
:1032B00003F0DCFC002003F0D9FC002003F0D6FC76
:1032C000002003F0D3FC002003F0D0FC002003F02A
:1032D000CDFC002003F0CAFC002003F0C7FC002056
:1032E00003F0C4FC002003F0C1FC002003F0BEFC8E
:1032F000002003F0BBFC002003F0B8FC002003F02A
:10330000B5FC002003F0B2FC002003F0AFFC00206D
:1033100003F0ACFC002003F0A9FC002003F0A6FCA5
:10332000B42003F0AFFC8B2003F0A0FC002003F0DE
:103330009DFC962003F09AFC002003F097FCA1204E
:1033400003F094FC002003F091FCB52003F09AFCFC
:10335000022003F08BFC002003F088FC032003F024
:1033600085FC002003F082FC042003F07FFC002099
:1033700003F07CFCB62003F085FC002003F076FC13
:10338000002003F073FCB72003F07CFC002003F066
:103390006DFC002003F06AFC3F2003F067FC002076
:1033A00003F064FC5E2003F061FC002003F05EFC8F
:1033B000642003F05BFC002003F058FC8C2003F039
:1033C00055FC002003F052FCAC2003F04FFC002021
:1033D00003F04CFCDC2003F049FC002003F046FC29
:1033E000702003F043FC002003F040FC902003F029
:1033F0003DFC002003F03AFCEB2003F037FC0020FA
:1034000003F034FCDC2003F031FC002003F02EFC40
:10341000B82003F037FC002003F028FC002003F064
:1034200025FC002003F022FC002003F01FFC0020FC
:1034300003F01CFC002003F019FC002003F016FC34
:10344000002003F013FCBA2003F01CFC242003F03E
:103450000DFC002003F00AFC002003F007FC002014
:1034600003F004FCC12003F00DFC202003F0FEFB60
:10347000002003F0FBFB542003F0F8FB002003F0D6
:10348000F5FBFF2003F0F2FB002003F0EFFBC2206E
:1034900003F0F8FB0A2003F0E9FB002003F0E6FB51
:1034A000042003F0E3FB002003F0E0FBC32003F063
:1034B000E9FB3C2003F0DAFB002003F0D7FB3A20C5
:1034C00003F0D4FB002003F0D1FB392003F0CEFB46
:1034D000002003F0CBFB372003F0C8FB002003F0F3
:1034E000C5FB3C2003F0C2FB002003F0BFFB3620ED
:1034F00003F0BCFB002003F0B9FB322003F0B6FB65
:10350000002003F0B3FB2F2003F0B0FB002003F0FA
:10351000ADFB2C2003F0AAFB002003F0A7FB292021
:1035200003F0A4FB002003F0A1FB262003F09EFB88
:10353000002003F09BFB242003F098FB002001E017
:10354000A001002003F092FB242003F08FFB002059
:1035500003F08CFB232003F089FB002003F086FBA3
:103560003C2003F083FB002003F080FB362003F0B7
:103570007DFB002003F07AFB322003F077FB002074
:1035800003F074FB2F2003F071FB002003F06EFBAF
:103590002C2003F06BFB002003F068FB292003F0D4
:1035A00065FB002003F062FB262003F05FFB002098
:1035B00003F05CFB242003F059FB002003F056FBD2
:1035C000242003F053FB002003F050FB232003F0E2
:1035D0004DFB002003F04AFBC42003F053FB6220A4
:1035E00003F044FB002003F041FB052003F03EFB09
:1035F000002003F03BFB842003F038FB002003F0A5
:1036000035FBF02003F032FB002003F02FFB1820E5
:1036100003F02CFB002003F029FBA42003F026FB81
:10362000002003F023FB182003F020FB002003F010
:103630001DFB502003F01AFB002003F017FB0C20A9
:1036400003F014FB002003F011FB172003F00EFB26
:10365000002003F00BFB952003F008FB002003F093
:1036600005FBF32003F002FB002003F0FFFAE62045
:1036700003F0FCFA002003F0F9FAC52003F002FB86
:10368000322003F0F3FA002003F0F0FA442003F0B4
:10369000EDFA002003F0EAFA652003F0E7FA0020D3
:1036A00003F0E4FA762003F0E1FA002003F0DEFAFA
:1036B000882003F0DBFA002003F0D8FAC62003F0DC
:1036C000E1FA202003F0D2FA002003F0CFFA17200D
:1036D00003F0CCFA002003F0C9FA012003F0C6FA87
:1036E000002003F0C3FAC72003F0CCFA002003F057
:1036F000BDFA002003F0BAFA002003F0B7FA002068
:1037000003F0B4FAC82003F0BDFA002003F0AEFACB
:10371000002003F0ABFA002003F0A8FA002003F029
:10372000A5FAC92003F0AEFA002003F09FFA0020AA
:1037300003F09CFA002003F099FA002003F096FAB7
:10374000002003F093FA002003F090FA002003F029
:103750008DFA002003F08AFA002003F087FA002097
:1037600003F084FA002003F081FA002003F07EFACF
:10377000002003F07BFA002003F078FA002003F029
:1037800075FA002003F072FAE02003F07BFA1620AD
:1037900003F06CFA002003F069FA1C2003F066FACB
:1037A000002003F063FA212003F060FA002003F008
:1037B0005DFA362003F05AFA002003F057FA46204B
:1037C00003F054FA002003F051FA522003F04EFAAD
:1037D000002003F04BFA642003F048FA002003F0C5
:1037E00045FA7A2003F042FA002003F03FFA8B20DA
:1037F00003F03CFA002003F039FA992003F036FA7E
:10380000002003F033FAA82003F030FA002003F080
:103810002DFAB92003F02AFA002003F027FAC42079
:1038200003F024FA002003F021FACA2003F01EFA64
:10383000002003F01BFAD22003F018FA002003F056
:1038400015FAD92003F012FA002003F00FFAE02055
:1038500003F00CFA002003F009FAF32003F006FA53
:10386000002003F003FAE12003F00CFA162003F025
:10387000FDF9002003F0FAF91C2003F0F7F900200D
:1038800003F0F4F9222003F0F1F9002003F0EEF93F
:10389000362003F0EBF9002003F0E8F9452003F0AF
:1038A000E5F9002003F0E2F9522003F0DFF90020EF
:1038B00003F0DCF9642003F0D9F9002003F0D6F915
:1038C0007A2003F0D3F9002003F0D0F98B2003F025
:1038D000CDF9002003F0CAF9992003F0C7F90020C0
:1038E00003F0C4F9A82003F0C1F9002003F0BEF9E9
:1038F000B92003F0BBF9002003F0B8F9C42003F0AD
:10390000B5F9002003F0B2F9CA2003F0AFF90020A6
:1039100003F0ACF9D22003F0A9F9002003F0A6F9D6
:10392000D82003F0A3F9002003F0A0F9E02003F071
:103930009DF9002003F09AF9F32003F097F9002095
:1039400003F094F9E22003F09DF9052003F08EF9CD
:10395000002003F08BF90B2003F088F9002003F01E
:1039600085F91B2003F082F9002003F07FF9342051
:1039700003F07CF9002003F079F9442003F076F994
:10398000002003F073F94F2003F070F9002003F0DA
:103990006DF9612003F06AF9002003F067F97920DE
:1039A00003F064F9002003F061F9882003F05EF968
:1039B000002003F05BF9972003F058F9002003F092
:1039C00055F9A62003F052F9002003F04FF9B72073
:1039D00003F04CF9002003F049F9C22003F046F946
:1039E000002003F043F9C72003F040F9002003F062
:1039F0003DF9D12003F03AF9002003F037F9D62041
:103A000003F034F9002003F031F9DD2003F02EF942
:103A1000002003F02BF9F32003F028F9002003F035
:103A200025F9E32003F02EF9052003F01FF900200B
:103A300003F01CF90A2003F019F9002003F016F92D
:103A40001C2003F013F9002003F010F9332003F0D9
:103A50000DF9002003F00AF9442003F007F90020D3
:103A600003F004F9502003F001F9002003F0FEF800
:103A7000622003F0FBF8002003F0F8F8782003F050
:103A8000F5F8002003F0F2F8882003F0EFF80020AA
:103A900003F0ECF8972003F0E9F8002003F0E6F8D3
:103AA000A62003F0E3F8002003F0E0F8B72003F0CD
:103AB000DDF8002003F0DAF8C22003F0D7F8002088
:103AC00003F0D4F8C72003F0D1F8002003F0CEF8BB
:103AD000D12003F0CBF8002003F0C8F8D52003F084
:103AE000C5F8002003F0C2F8DD2003F0BFF8002085
:103AF00003F0BCF8F32003F0B9F8002003F0B6F8A7
:103B0000E42003F0BFF8012003F0B0F8002003F038
:103B1000ADF8012003F0AAF8002003F0A7F8022076
:103B200003F0A4F8002003F0A1F82A2003F09EF887
:103B3000002003F09BF83C2003F098F8002003F0ED
:103B400095F84B2003F092F8002003F08FF85D20E9
:103B500003F08CF8002003F089F8742003F086F855
:103B6000002003F083F8842003F080F8002003F0A5
:103B70007DF8932003F07AF8002003F077F8A22074
:103B800003F074F8002003F071F8B32003F06EF82E
:103B9000002003F06BF8BE2003F068F8002003F06B
:103BA00065F8C42003F062F8002003F05FF8CD2030
:103BB00003F05CF8002003F059F8D32003F056F826
:103BC000002003F053F8DD2003F050F8002003F04C
:103BD0004DF8F32003F04AF8002003F047F8E52001
:103BE00003F050F8002003F041F8002003F03EF805
:103BF000002003F03BF8002003F038F8022003F027
:103C000035F8002003F032F8292003F02FF80020C7
:103C100003F02CF83C2003F029F8002003F026F8EC
:103C20004B2003F023F8002003F020F85D2003F080
:103C30001DF8002003F01AF8742003F017F8002094
:103C400003F014F8842003F011F8002003F00EF8BC
:103C5000932003F00BF8002003F008F8A22003F0F3
:103C600005F8002003F002F8B32002F0FFFF002067
:103C700002F0FCFFBE2002F0F9FF002002F0F6FF88
:103C8000C42002F0F3FF002002F0F0FFCD2002F08C
:103C9000EDFF002002F0EAFFD32002F0E7FF002052
:103CA00002F0E4FFDC2002F0E1FF002002F0DEFF82
:103CB000F32002F0DBFF002002F0D8FFE62002F044
:103CC000E1FF112002F0D2FF002002F0CFFF3420EC
:103CD00002F0CCFF002002F0C9FF562002F0C6FF20
:103CE000002002F0C3FF762002F0C0FF002002F0A7
:103CF000BDFF772002F0BAFF002002F0B7FF662078
:103D000002F0B4FF002002F0B1FF882002F0AEFF05
:103D1000002002F0ABFF992002F0A8FF002002F083
:103D2000A5FFBB2002F0A2FF002002F09FFF992018
:103D300002F09CFF002002F099FF662002F096FF3F
:103D4000002002F093FF552002F090FF002002F0C7
:103D50008DFF552002F08AFF002002F087FF4520EA
:103D600002F084FF002002F081FF432002F07EFF7A
:103D7000002002F07BFF442002F078FF002002F0D8
:103D800075FFE72002F07EFF322002F06FFF002077
:103D900002F06CFF552002F069FF002002F066FF80
:103DA000762002F063FF002002F060FF662002F040
:103DB0005DFF002002F05AFF672002F057FF00204D
:103DC00002F054FF672002F051FF002002F04EFF86
:103DD000872002F04BFF002002F048FF992002F0FC
:103DE00045FF002002F042FFBB2002F03FFF002011
:103DF00002F03CFF992002F039FF002002F036FF6C
:103E0000772002F033FF002002F030FF442002F060
:103E10002DFF002002F02AFF562002F027FF00208D
:103E200002F024FF232002F021FF002002F01EFFF9
:103E3000332002F01BFF002002F018FF452002F0A3
:103E400015FF002002F012FFE82002F01BFF002007
:103E500002F00CFF002002F009FF992002F006FF9B
:103E6000002002F003FF872002F000FF002002F094
:103E7000FDFE882002F0FAFE002002F0F7FE772017
:103E800002F0F4FE002002F0F1FE662002F0EEFEE9
:103E9000002002F0EBFE882002F0E8FE002002F095
:103EA000E5FEAA2002F0E2FE002002F0DFFEBB20C9
:103EB00002F0DCFE002002F0D9FE992002F0D6FECE
:103EC000002002F0D3FE662002F0D0FE002002F0B7
:103ED000CDFE552002F0CAFE002002F0C7FE55209C
:103EE00002F0C4FE002002F0C1FE442002F0BEFE3B
:103EF000002002F0BBFE442002F0B8FE002002F0D9
:103F0000B5FE552002F0B2FE002002F0AFFEE9201F
:103F100002F0B8FEAA2002F0A9FE002002F0A6FEE0
:103F2000002002F0A3FE002002F0A0FE002002F01C
:103F3000A9FEAA2002F09AFECF2002F0A3FE0020E4
:103F400002F094FE002002F091FE002002F08EFEAE
:103F5000002002F08BFE002002F088FE002002F01C
:103F600085FE002002F082FE002002F07FFE00208D
:103F700002F07CFE002002F079FE002002F076FEC6
:103F8000002002F073FE002002F070FE002002F01C
:103F90006DFE002002F06AFE002002F067FE0020A5
:103FA00002F064FEF02002F06DFE002002F05EFEE2
:103FB000502002F05BFE002002F058FE002002F0CC
:103FC00055FE002002F052FEF32002F05BFE0020BE
:103FD00002F04CFEF92002F055FE062002F046FEEB
:103FE000102002F043FE292002F040FE002002F0E3
:103FF0003DFE3A2002F046FE552002F037FE112029
:1040000002F040FE642003F0F9FF292002F03AFE9E
:10401000352002F037FE002002F028FE512002F089
:1040200031FEFF2002F022FE532002F02BFE2C2056
:1040300002F01CFE552002F025FE822002F016FE42
:104040002C2002F01FFE02F0E9B8FE48808845F2FD
:10405000105188427ED155214FF4704002F028FE65
:10406000AA214FF2010002F023FE52214FF202007A
:1040700002F01EFE08214FF2030002F019FE01219A
:104080004FF2040002F014FE0D214FF4304002F014
:104090000FFE0D214BF2010002F00AFE0D214BF242
:1040A000020002F005FE34214FF4364002F000FE1B
:1040B00034214BF2016002F0FBFD34214BF202602F
:1040C00002F0F6FD0D214FF4314002F0F1FD0D211B
:1040D0004BF2011002F0ECFD0D214BF2021002F048
:1040E000E7FD34214FF4374002F0E2FD34214BF27A
:1040F000017002F0DDFD34214BF2027002F0D8FDB8
:1041000000214FF4324002F0D3FD00214BF2012098
:1041100002F0CEFD00214BF2022002F0C9FD242165
:104120004FF4384002F0C4FD24214BF6010002F0A8
:10413000BFFD24214BF6020002F0BAFD01214FF42D
:104140003F4002F0B5FD0F214FF4334002F0B0FDC7
:104150000F2100E0FEE34BF2013002F0A9FD0F2138
:104160004BF2023002F0A4FD34214FF4394002F04A
:104170009FFD34214BF6011002F09AFD34214BF6DD
:10418000021002F095FD08214FF4354002F090FD39
:1041900008214BF2015002F08BFD08214BF2025036
:1041A00002F086FD03214FF4424002F081FD2421FC
:1041B0004FF43A4002F07CFD24214BF6012002F03E
:1041C00077FD24214BF6022002F072FD00214FF40E
:1041D0003C4002F06DFD78214BF6014002F068FD95
:1041E00000214BF6024002F063FD00214FF43D40F8
:1041F00002F05EFD78214BF6015002F059FD0021DE
:104200004BF6025002F054FD00214FF43E4002F004
:104210004FFD64214BF6016002F04AFD00214FF48E
:10422000514002F045FD33214DF2011002F040FDF6
:1042300000214DF2021002F03BFD34214DF203103B
:1042400002F036FD00214DF2041002F031FD3A215A
:104250004DF2051002F02CFD00214DF2061002F087
:1042600027FD4A214DF2071002F022FD00214DF2F8
:10427000081002F01DFD5C214DF2091002F018FD3E
:1042800000214DF20A1002F013FD81214DF20B10B6
:1042900002F00EFD00214DF20C1002F009FDA621E6
:1042A0004DF20D1002F004FD00214DF20E1002F04F
:1042B000FFFCE5214DF20F1002F0FAFC01214DF256
:1042C000101002F0F5FC13214DF2111002F0F0FC79
:1042D00001214DF2121002F0EBFC54214DF21310AB
:1042E00002F0E6FC01214DF2141002F0E1FC822103
:1042F0004DF2151002F0DCFC01214DF2161002F017
:10430000D7FCCA214DF2171002F0D2FC02214DF267
:10431000181002F0CDFC00214DF2191002F0C8FC7B
:1043200002214DF21A1002F0C3FC01214DF21B10C4
:1043300002F0BEFC02214DF21C1002F0B9FC342147
:104340004DF21D1002F0B4FC02214DF21E1002F0DD
:10435000AFFC67214DF21F1002F0AAFC02214DF2C2
:10436000201002F0A5FC84214DF2211002F0A0FCE7
:1043700002214DF2221002F09BFCA4214DF22310E9
:1043800002F096FC02214DF2241002F091FCB721BC
:104390004DF2251002F08CFC02214DF2261002F0A5
:1043A00087FCCF214DF2271002F082FC02214DF252
:1043B000281002F07DFCDE214DF2291002F078FC7D
:1043C00002214DF22A1002F073FCF2214DF22B1063
:1043D00002F06EFC02214DF22C1002F069FCFE216D
:1043E0004DF22D1002F064FC03214DF22E1002F06C
:1043F0005FFC10214DF22F1002F05AFC03214DF208
:10440000301002F055FC33214DF2311002F050FC17
:1044100003214DF2321002F04BFC6D214DF23310AE
:1044200002F046FC00214FF4524002F041FC3321DF
:104430004DF2012002F03CFC00214DF2022002F07E
:1044400037FC01E0A001002034214DF2032002F0EE
:104450002FFC00214DF2042002F02AFC3A214DF2FB
:10446000052002F025FC00214DF2062002F020FC80
:104470004A214DF2072002F01BFC00214DF20820DA
:1044800002F016FC5C214DF2092002F011FC002123
:104490004DF20A2002F00CFC81214DF20B2002F0BB
:1044A00007FC00214DF20C2002F002FCA6214DF287
:1044B0000D2002F0FDFB00214DF20E2002F0F8FB72
:1044C000E5214DF20F2002F0F3FB01214DF2102007
:1044D00002F0EEFB13214DF2112002F0E9FB012165
:1044E0004DF2122002F0E4FB54214DF2132002F0B1
:1044F000DFFB01214DF2142002F0DAFB82214DF2A4
:10450000152002F0D5FB01214DF2162002F0D0FB60
:10451000CA214DF2172002F0CBFB02214DF21820E8
:1045200002F0C6FB00214DF2192002F0C1FB02216E
:104530004DF21A2002F0BCFB01214DF21B2002F0CB
:10454000B7FB02214DF21C2002F0B2FB34214DF2E8
:104550001D2002F0ADFB02214DF21E2002F0A8FB4F
:1045600067214DF21F2002F0A3FB02214DF2202013
:1045700002F09EFB84214DF2212002F099FB0221E2
:104580004DF2222002F094FBA4214DF2232002F0F0
:104590008FFB02214DF2242002F08AFBB7214DF25D
:1045A000252002F085FB02214DF2262002F080FB3F
:1045B000CF214DF2272002F07BFB02214DF2282073
:1045C00002F076FBDE214DF2292002F071FB022180
:1045D0004DF22A2002F06CFBF2214DF22B2002F06A
:1045E00067FB02214DF22C2002F062FBFE214DF20E
:1045F0002D2002F05DFB03214DF22E2002F058FB2E
:1046000010214DF22F2002F053FB03214DF23020F8
:1046100002F04EFB33214DF2312002F049FB032121
:104620004DF2322002F044FB6D214DF2332002F0B6
:104630003FFB00214FF4534002F03AFB33214DF28F
:10464000013002F035FB00214DF2023002F030FB68
:1046500034214DF2033002F02BFB00214DF20430E7
:1046600002F026FB3A214DF2053002F021FB002139
:104670004DF2063002F01CFB4A214DF2073002F0E9
:1046800017FB00214DF2083002F012FB5C214DF2C5
:10469000093002F00DFB00214DF20A3002F008FB58
:1046A00081214DF20B3002F003FB00214DF20C3062
:1046B00002F0FEFAA6214DF20D3002F0F9FA0021C7
:1046C0004DF20E3002F0F4FAE5214DF20F3002F017
:1046D000EFFA01214DF2103002F0EAFA13214DF207
:1046E000113002F0E5FA01214DF2123002F0E0FA49
:1046F00054214DF2133002F0DBFA01214DF2143057
:1047000002F0D6FA82214DF2153002F0D1FA0121E1
:104710004DF2163002F0CCFACA214DF2173002F0F9
:10472000C7FA02214DF2183002F0C2FA00214DF210
:10473000193002F0BDFA02214DF21A3002F0B8FA37
:1047400001214DF21B3002F0B3FA02214DF21C3070
:1047500002F0AEFA34214DF21D3002F0A9FA022126
:104760004DF21E3002F0A4FA67214DF21F3002F024
:104770009FFA02214DF2203002F09AFA84214DF284
:10478000213002F095FA02214DF2223002F090FA27
:10479000A4214DF2233002F08BFA02214DF2243095
:1047A00002F086FAB7214DF2253002F081FA02219B
:1047B0004DF2263002F07CFACF214DF2273002F084
:1047C00077FA02214DF2283002F072FADE214DF222
:1047D000293002F06DFA02214DF22A3002F068FA17
:1047E000F2214DF22B3002F063FA02214DF22C300F
:1047F00002F05EFAFE214DF22D3002F059FA03214B
:104800004DF22E3002F054FA10214DF22F3002F00A
:104810004FFA03214DF2303002F04AFA33214DF2C3
:10482000313002F045FA03214DF2323002F040FA05
:104830006D214DF2333002F03BFA00214FF4544029
:1048400002F036FA33214DF2014002F031FA002134
:104850004DF2024002F02CFA34214DF2034002F0F6
:1048600027FA00214DF2044002F022FA3A214DF2DB
:10487000054002F01DFA00214DF2064002F018FA40
:104880004A214DF2074002F013FA00214DF2084090
:1048900002F00EFA5C214DF2094002F009FA002103
:1048A0004DF20A4002F004FA81214DF20B4002F071
:1048B000FFF900214DF20C4002F0FAF9A6214DF269
:1048C0000D4002F0F5F900214DF20E4002F0F0F932
:1048D000E5214DF20F4002F0EBF901214DF21040BD
:1048E00002F0E6F913214DF2114002F0E1F9012145
:1048F0004DF2124002F0DCF954214DF2134002F067
:10490000D7F901214DF2144002F0D2F982214DF283
:10491000154002F0CDF901214DF2164002F0C8F920
:10492000CA214DF2174002F0C3F902214DF218409E
:1049300002F0BEF900214DF2194002F0B9F902214E
:104940004DF21A4002F0B4F901214DF21B4002F081
:10495000AFF900E004E302214DF21C4002F0A8F997
:1049600034214DF21D4002F0A3F902214DF21E4008
:1049700002F09EF967214DF21F4002F099F90221E1
:104980004DF2204002F094F984214DF2214002F0D2
:104990008FF902214DF2224002F08AF9A4214DF252
:1049A000234002F085F902214DF2244002F080F903
:1049B000B7214DF2254002F07BF902214DF226404D
:1049C00002F076F9CF214DF2274002F071F9022171
:1049D0004DF2284002F06CF9DE214DF2294002F040
:1049E00067F902214DF22A4002F062F9F2214DF2FC
:1049F0002B4002F05DF902214DF22C4002F058F9F3
:104A0000FE214DF22D4002F053F903214DF22E40CC
:104A100002F04EF910214DF22F4002F049F9032126
:104A20004DF2304002F044F933214DF2314002F0B2
:104A30003FF903214DF2324002F03AF96D214DF277
:104A4000334002F035F900214FF4554002F030F9BF
:104A500033214DF2015002F02BF900214DF20250AA
:104A600002F026F934214DF2035002F021F9002121
:104A70004DF2045002F01CF93A214DF2055002F0BB
:104A800017F900214DF2065002F012F94A214DF2B9
:104A9000075002F00DF900214DF2085002F008F91C
:104AA0005C214DF2095002F003F900214DF20A5049
:104AB00002F0FEF881214DF20B5002F0F9F80021CE
:104AC0004DF20C5002F0F4F8A6214DF20D5002F018
:104AD000EFF800214DF20E5002F0EAF8E5214DF218
:104AE0000F5002F0E5F801214DF2105002F0E0F80D
:104AF00013214DF2115002F0DBF801214DF212505A
:104B000002F0D6F854214DF2135002F0D1F80121F1
:104B10004DF2145002F0CCF882214DF2155002F003
:104B2000C7F801214DF2165002F0C2F8CA214DF229
:104B3000175002F0BDF802214DF2185002F0B8F8FB
:104B400000214DF2195002F0B3F802214DF21A5033
:104B500002F0AEF801214DF21B5002F0A9F802213B
:104B60004DF21C5002F0A4F834214DF21D5002F019
:104B70009FF802214DF21E5002F09AF867214DF283
:104B80001F5002F095F802214DF2205002F090F8EB
:104B900084214DF2215002F08BF802214DF2225077
:104BA00002F086F8A4214DF2235002F081F8022190
:104BB0004DF2245002F07CF8B7214DF2255002F05E
:104BC00077F802214DF2265002F072F8CF214DF213
:104BD000275002F06DF802214DF2285002F068F8DB
:104BE000DE214DF2295002F063F802214DF22A50E5
:104BF00002F05EF8F2214DF22B5002F059F802213A
:104C00004DF22C5002F054F8FE214DF22D5002F0DE
:104C10004FF803214DF22E5002F04AF810214DF2C8
:104C20002F5002F045F803214DF2305002F040F8C9
:104C300033214DF2315002F03BF803214DF2325056
:104C400002F036F86D214DF2335002F031F80021B8
:104C50004FF4564002F02CF833214DF2016002F07F
:104C600027F800214DF2026002F022F834214DF2C3
:104C7000036002F01DF800214DF2046002F018F804
:104C80003A214DF2056002F013F800214DF2066062
:104C900002F00EF84A214DF2076002F009F80021F7
:104CA0004DF2086002F004F85C214DF2096001F059
:104CB000FFFF00214DF20A6001F0FAFF81214DF261
:104CC0000B6001F0F5FF00214DF20C6001F0F0FFE8
:104CD000A6214DF20D6001F0EBFF00214DF20E60B8
:104CE00001F0E6FFE5214DF20F6001F0E1FF012147
:104CF0004DF2106001F0DCFF13214DF2116001F064
:104D0000D7FF01214DF2126001F0D2FF54214DF284
:104D1000136001F0CDFF01214DF2146001F0C8FFD6
:104D200082214DF2156001F0C3FF01214DF21660A2
:104D300001F0BEFFCA214DF2176001F0B9FF022158
:104D40004DF2186001F0B4FF00214DF2196001F03E
:104D5000AFFF02214DF21A6001F0AAFF01214DF2CE
:104D60001B6001F0A5FF02214DF21C6001F0A0FFC5
:104D700034214DF21D6001F09BFF02214DF21E60B7
:104D800001F096FF67214DF21F6001F091FF0221B3
:104D90004DF2206001F08CFF84214DF2216001F082
:104DA00087FF02214DF2226001F082FFA4214DF223
:104DB000236001F07DFF02214DF2246001F078FFB5
:104DC000B7214DF2256001F073FF02214DF22660FC
:104DD00001F06EFFCF214DF2276001F069FF022143
:104DE0004DF2286001F064FFDE214DF2296001F0F0
:104DF0005FFF02214DF22A6001F05AFFF2214DF2CD
:104E00002B6001F055FF02214DF22C6001F050FFA4
:104E1000FE214DF22D6001F04BFF03214DF22E607B
:104E200001F046FF10214DF22F6001F041FF0321F8
:104E30004DF2306001F03CFF33214DF2316001F062
:104E400037FF03214DF2326001F032FF6D214DF248
:104E5000336001F02DFF55214FF4704001F028FF21
:104E6000AA214FF2010001F023FF52214FF202006C
:104E700001F01EFF08214FF2030001F019FF00218D
:104E80004FF2040001F014FFCC214FF4314001F047
:104E90000FFF00214BF2011001F00AFF05214FF432
:104EA000364001F005FF70214FF4374001F000FF5C
:104EB00070214BF2017001F0FBFE01214FF43840EC
:104EC00001F0F6FE03214BF6010001F0F1FE032193
:104ED0004BF6020001F0ECFE03214BF6030001F05B
:104EE000E7FE02214FF43C4001F0E2FE00214BF6C8
:104EF000014001F0DDFE00214BF6024001F0D8FE3A
:104F0000D0214FF4494001F0D3FE02214CF60110AC
:104F100001F0CEFE50214CF6021001F0C9FE5021E6
:104F20004CF6031001F0C4FE50214CF6041001F0C1
:104F3000BFFE00214FF4545001F0BAFE55214FF44A
:104F4000685001F0B5FE4FF4885001F09BFE7820C8
:104F500003F070F84FF4245001F094FE01F05EB9B4
:104F6000FE48808849F2253188427DD147F6F0011C
:104F7000E52001F09DFE4FF48071012001F098FEC4
:104F80004FF4E061022001F093FE41F23001032072
:104F900001F08EFE0021042001F08AFE40F2022181
:104FA000082001F085FE0021092001F081FE00218A
:104FB0000A2001F07DFE00210C2001F079FE002185
:104FC0000D2001F075FE00210F2001F071FE00217F
:104FD000102001F06DFE0721112001F069FE002173
:104FE000122001F065FE0021132001F061FE002176
:104FF000072001F05DFE41F29061102001F058FEA3
:1050000040F22721112001F053FE9D21122001F0D2
:105010004FFE4FF4C851132001F04AFE25212920EC
:1050200001F046FE0D212B2001F042FE0721302029
:1050300001F03EFE40F20331312001F039FE032140
:10504000322001F035FE40F20621352001F030FE1D
:105050000821362001F02CFE40F20641372001F0F5
:1050600027FE4FF4417100E058E0382001F020FEA7
:105070000721392001F01CFE40F202613C2001F0C2
:1050800017FE08213D2001F013FE0021502001F001
:105090000FFEEF21512001F00BFE0021522001F004
:1050A00007FE40F23F11532001F002FE4FF427416A
:1050B000602001F0FDFD0121612001F0F9FD0021DA
:1050C0006A2001F0F5FD0021802001F0F1FD0021B2
:1050D000812001F0EDFD0021822001F0E9FD002199
:1050E000832001F0E5FD0021842001F0E1FD002195
:1050F000852001F0DDFD1021902001F0D9FD4FF455
:10510000C061922001F0D4FD40F23311072001F07C
:10511000CFFD2221002001F0CBFD1FE78F488088C2
:1051200049F2283188427DD141F28F01EC2001F013
:10513000BFFD41F23421EF2001F0BAFD4FF4807140
:10514000012001F0B5FD4FF4E061022001F0B0FD57
:1051500041F23001032001F0ABFD0021042001F0F9
:10516000A7FD40F20221082001F0A2FD0021092044
:1051700001F09EFD00210A2001F09AFD01210C2082
:1051800001F096FD00210D2001F092FD00210F207D
:1051900001F08EFD0021102001F08AFD0721112071
:1051A00001F086FD0021122001F082FD0021132074
:1051B00001F07EFD0121072001F07AFD322002F08E
:1051C0001DFF41F29041102001F072FD40F22721B5
:1051D000112001F06DFD322002F010FF8A21122013
:1051E00001F066FD322002F009FF4FF4D051132088
:1051F00001F05EFD0621292001F05AFD0D212B2032
:1052000001F056FD322002F0F9FE0021202001F0CD
:105210004FFD0021212001F04BFD322002F0EEFE77
:10522000002100E075E0302001F042FD40F2046111
:10523000312001F03DFD40F20531322001F038FD12
:105240000021352001F034FD40F60941362001F0FF
:105250002FFD4FF40171372001F02AFD40F201319A
:10526000382001F025FD40F20771392001F020FDC2
:1052700000213C2001F01CFD40F60A213D2001F0F8
:1052800017FD322002F0BAFE0021502001F010FD7F
:10529000EF21512001F00CFD0021522001F008FD0A
:1052A00040F23F11532001F003FD4FF427416020ED
:1052B00001F0FEFC0121612001F0FAFC00216A20CE
:1052C00001F0F6FC0021802001F0F2FC0021812099
:1052D00001F0EEFC0021822001F0EAFC0021832095
:1052E00001F0E6FC0021842001F0E2FC0021852091
:1052F00001F0DEFC1021902001F0DAFC4FF4C061D7
:10530000922001F0D5FC40F23311072001F0D0FCCF
:1053100024E61248808849F2203188427ED100215B
:10532000084601F0C5FC4FF48071012001F0C0FC7B
:105330004FF4E061022001F0BBFC41F23001032098
:1053400001F0B6FC0021042001F0B2FC40F2022181
:10535000082001F0ADFC0021092001E0A00100209F
:1053600001F0A6FC00210A2001F0A2FC01210C2082
:1053700001F09EFC00210D2001F09AFC00210F207D
:1053800001F096FC322002F039FE40F201110720B4
:1053900001F08EFC322002F031FE4FF486511020D5
:1053A00001F086FC0721112001F082FC4FF4887186
:1053B000122001F07DFC4FF43061132001F078FCE5
:1053C0000021292001F074FC44F210012B2001F08F
:1053D0006FFC0021502001F06BFCEF21512001F007
:1053E00067FC0021522001F063FC40F23F11532082
:1053F00001F05EFC4FF41C51602001F059FC0121CA
:10540000612001F055FC00216A2001F051FC0021CF
:10541000802001F04DFC0021812000E030E001F00F
:1054200047FC0021822001F043FC0021832001F091
:105430003FFC0021842001F03BFC0021852001F08D
:1054400037FC1021902001F033FC0021922001F064
:105450002FFC0121932001F02BFC4FF48871952043
:1054600001F026FC0021972001F022FC0021982069
:1054700001F01EFC40F27311072001F019FC6DE5EC
:10548000FE48808849F2313188427DD141F21401D1
:10549000E72001F00DFC4FF48071012001F008FCC1
:1054A0004FF40071022001F003FC41F238010320A7
:1054B00001F0FEFB40F20221082001F0F9FB00217F
:1054C000092001F0F5FB00210A2001F0F1FB002189
:1054D0000C2001F0EDFB00210D2001F0E9FB002183
:1054E0000F2001F0E5FB0021102001F0E1FB072176
:1054F000112001F0DDFB0021122001F0D9FB002179
:10550000132001F0D5FBC82002F078FD41F2906134
:10551000102001F0CDFB40F22721112001F0C8FB43
:10552000322002F06BFD0C21122001F0C1FB322071
:1055300002F064FD4FF40061132001F0B9FB11216A
:10554000292001F0B5FB0B212B2001F0B1FB32200B
:1055500002F054FD0021202001F0AAFB40F23F118F
:10556000212001F0A5FB0021302001F0A1FB4FF428
:105570008371312001F09CFB0021322001F098FB67
:105580004FF40171352000E064E001F091FB41F23D
:105590000A61362001F08CFB40F20771372001F0E0
:1055A00087FB4FF48371382001F082FB40F20771D2
:1055B000392001F07DFB40F202413C2001F078FBF4
:1055C00040F60F413D2001F073FB0021502001F017
:1055D0006FFBEF21512001F06BFB0021522001F005
:1055E00067FB40F23F11532001F062FB4FF41C5166
:1055F000602001F05DFB0121612001F059FB0021D9
:105600006A2001F055FB0021802001F051FB0021B0
:10561000812001F04DFB0021822001F049FB002197
:10562000832001F045FB0021842001F041FB002193
:10563000852001F03DFB1021902001F039FB4FF453
:10564000C061922001F034FB40F23311072001F0D9
:105650002FFB83E48948808845F2084188427DD148
:105660004FF48071012001F023FB4FF4E061022030
:1056700001F01EFB41F23001032001F019FB002173
:10568000042001F015FB40F20721082001F010FB77
:105690000021092001F00CFB00210A2001F008FB89
:1056A00000210C2001F004FB00210D2001F000FB83
:1056B00000210F2001F0FCFA142002F09FFC41F2BF
:1056C000B061102001F0F4FA0121112001F0F0FA8C
:1056D0000121172001F0ECFA4FF49C71122001F027
:1056E000E7FA4FF40061132001F0E2FA09212920C2
:1056F00001F0DEFA09212A2001F0DAFA0021A420C3
:1057000001F0D6FA0021502001F0D2FAEF21512009
:1057100001F0CEFA0021522001F0CAFA40F23F1106
:10572000532001F0C5FA4FF41C51602001F0C0FA7B
:105730000121612001F0BCFA00216A2001F0B8FAD1
:105740000021802001F0B4FA0021812001F0B0FA9C
:105750000021822001F0ACFA002100E024E0832047
:1057600001F0A6FA0021842001F0A2FA0021852090
:1057700001F09EFA1321902001F09AFA0021922064
:1057800001F096FA0321932001F092FA4FF4887108
:10579000952001F08DFA40F27311072001F088FA8C
:1057A000322002F02BFCB8E43448808841F20551E5
:1057B00088427DD10021072001F07AFA322002F0E0
:1057C0001DFC4FF48E71122001F072FA0121A42009
:1057D00001F06EFA0F21082001F06AFA08210A2070
:1057E00001F066FA08210D2001F062FA40F207711B
:1057F000302001F05DFA0721312001F059FA40F222
:105800000361322001F054FA4FF4E061332001F0DB
:105810004FFA40F20221342001F04AFA02213520E9
:1058200001F046FA41F60F71362001F041FA40F2DC
:105830000771372001F03CFA0021382001F038FAD6
:105840000021392001F034FA40F207713A2001F0CA
:105850002FFA00213B2001F02BFA07213C2001F018
:1058600027FA00213D2001F023FA322002F0C6FB86
:105870000121072001F01CFA012101E0A001002014
:10588000172001F015FA322002F0B8FB4FF4BD5199
:10589000102001F00DFA40F21721112001F008FA52
:1058A0004FF48F71122001F003FA4FF4706100E0A1
:1058B00098E0132001F0FCF900212A2001F0F8F90A
:1058C0000A21292001F0F4F94FF49F71122001F010
:1058D000EFF90021502001F0EBF9EF21512001F008
:1058E000E7F90021522001F0E3F940F23F11532083
:1058F00001F0DEF94FF41C51602001F0D9F90121CB
:10590000612001F0D5F900216A2001F0D1F90021D0
:10591000802001F0CDF90021812001F0C9F900219A
:10592000822001F0C5F90021832001F0C1F9002196
:10593000842001F0BDF90021852001F0B9F913217F
:10594000902001F0B5F94FF44071922001F0B0F9C8
:105950000521932001F0ACF90021952001F0A8F970
:105960000021972001F0A4F90021982001F0A0F96E
:105970004FF48071012001F09BF94FF4E0610220A7
:1059800001F096F941F23801032001F091F900216C
:10599000042001F08DF900210C2001F089F900218B
:1059A0000F2001F085F90021202001F081F900216C
:1059B000212001F07DF92121072001F079F914203F
:1059C00002F01CFB6121072001F072F9142002F0A3
:1059D00015FB40F27311072001F06AF9142002F060
:1059E0000DFB95E4FE4880884BF2055188427CD13E
:1059F0000021084601F05CF90021084601F058F941
:105A00000021084601F054F90021084601F050F940
:105A10000121A42001F04CF9142002F0EFFA4FF418
:105A20001C51602001F044F940F20221082001F0ED
:105A30003FF94FF40571302001F03AF943F2157146
:105A4000312001F035F940F20461322001F030F9E3
:105A500040F61661332001F02BF942F21121342077
:105A600001F026F94FF4A851352001F021F948F250
:105A70000751362001F01CF941F20741372001F0AF
:105A800017F941F20341382001F012F920213920A1
:105A900001F00EF91A21902001F00AF900211020DE
:105AA00001F006F90721112001F002F9002112206E
:105AB00001F0FEF80021132001F0FAF8142002F0A2
:105AC0009DFA4FF4E661102001F0F2F840F2371130
:105AD000112001F0EDF8142002F090FA4FF4DC717F
