:020000040800F2
:10000000C8640020F9020008DF5A0008691C0008D3
:10001000DD5A0008131200084163000800000000C8
:100020000000000000000000000000004102000885
:10003000991900080000000095020008A95D000859
:100040001303000813030008130300081303000838
:100050001303000813030008130300081303000828
:100060001303000813030008130300081303000818
:100070001303000813030008130300081303000808
:1000800013030008130300081303000813030008F8
:1000900025130008130300081303000813030008C6
:1000A00013030008130300081303000813030008D8
:1000B00013030008195E0008130300081303000867
:1000C00013030008130300081303000813030008B8
:1000D00013030008E55F00084960000813030008E7
:1000E0001303000813030008130300081303000898
:1000F0001303000813030008130300081303000888
:100100001303000813030008555E000813030008DA
:100110001303000813030008130300081303000867
:100120001303000813030008130300081303000857
:100130001303000813030008130300081303000847
:1001400013030008651400081303000813030008D4
:100150001303000813030008130300081303000827
:100160001303000813030008130300081303000817
:100170001303000813030008130300081303000807
:10018000130300081303000800F002F800F049F818
:100190000AA090E8000C82448344AAF10107DA45E2
:1001A00001D100F03EF8AFF2090EBAE80F0013F0EB
:1001B000010F18BFFB1A43F001031847C4C5000024
:1001C000E4C50000103A24BF78C878C1FAD85207B5
:1001D00024BF30C830C144BF04680C6070470000C1
:1001E0000023002400250026103A28BF78C1FBD840
:1001F000520728BF30C148BF0B607047642900F028
:100200004F85782900F08885732900F0D586002075
:1002100070471FB50CF034F800F02CFE1FBD10B570
:1002200010BD00F04DFF1146FFF7F3FF08F0B8FDD9
:1002300000F06BFF03B4FFF7F2FF03BC08F03EFDD4
:100240002A4B19680868B0E8F04F80F30988BFF3BB
:100250006F8F4FF0000080F311887047000000009E
:1002600006480068006880F3088862B661B6BFF38C
:100270004F8FBFF36F8F00DF00BF00BF08ED00E0BE
:10028000DFF80C00016841F470010160704700BFA5
:1002900088ED00E0EFF30980BFF36F8F134B1A680E
:1002A0001EF0100F08BF20ED108A20E9F04F1060FB
:1002B00008B44FF0500080F31188BFF34F8FBFF3A5
:1002C0006F8F09F01FFE4FF0000080F3118808BC0B
:1002D00019680868B0E8F04F1EF0100F08BFB0ECC6
:1002E000108A80F30988BFF36F8F704730000020B9
:1002F000EFF3058070470000094880470948004730
:10030000FEE7FEE7FEE7FEE7FEE7FEE7FEE7FEE7C5
:10031000FEE7FEE704480549054A064B7047000022
:10032000BD5D000889010008C85E0020C864002087
:10033000C8600020C860002070B405880E8844683A
:10034000D1F804C05368B54208D140884988884232
:1003500001BF11888D425188884203D070BC6FF074
:100360000200704705FB00F1880827D094ED001AC1
:10037000DCED000A94ED010ADCED011A31EE201AE1
:10038000D4ED020A70EE211A9CED020A83ED001AE8
:10039000C3ED011A94ED031ADCED031A30EE800A66
:1003A000401E71EE210A83ED020A04F11004C3ED30
:1003B000030A03F110030CF1100CD7D111F0030064
:1003C00030D0B0F1004F30D200282BDD211F1B1F91
:1003D000ACF1040210F0010F0AD091ED010AD2ED48
:1003E000010A091D121D30EE200A83ED010A1B1DB2
:1003F000400817D091ED010AD2ED010A401E30EEFF
:10040000200A83ED010A91ED020AD2ED020A01F100
:10041000080102F1080230EE200A83ED020A03F11E
:100420000803E7D170BC00207047B4EC010A401EFD
:10043000FCEC010A30EE200AA3EC010AF5D1F1E749
:1004400001804280436070472DE9F34F84B00498E7
:1004500040680090486801900498B0F800E0458832
:10046000DFEDFE0A00200290B0EE600AAE4506D134
:1004700008884988884204BF7146864504D06FF0D9
:10048000020006B0BDE8F08F01985FEA010C18BFCA
:10049000B7EE001A3DD000BFBEEB0C0117D0B1F192
:1004A000004F80F01F82002911DD021F11F0010FA3
:1004B0001CBFC2ED010A121D4B1006D0C2ED010A8D
:1004C000C2ED020A08325B1EF8D100EB8100BCF1DC
:1004D0000102A0EC011A19D0B2F1004F80F008829D
:1004E000002A13DD031F12F0010F1CBFC3ED010A28
:1004F0001B1D511008D000BFC3ED010AC3ED020A55
:10050000491E03F10803F7D100EB8200BCF1010C96
:10051000C2D14FF000080395002D14BFB0EE602A41
:10052000002000F0BF8100BF009908FB05F001EB3F
:10053000800B0199DBED002A01EB80000346F0EE11
:10054000421AC64552D9AEEB0802ABEB850112F058
:10055000010F17D001EB850191ED000AB5EEC00A3D
:10056000F1EE10FA07DDB4EEE10AF1EE10FA09DD62
:10057000F0EE401A06E0B1EE400AF4EEC01AF1EED9
:1005800010FAF5D3521031D001EB850C9CED000A26
:10059000B5EEC00AF1EE10FA05DDB4EEE10AF1EEB7
:1005A00010FA09DD06E0B1EE400AF4EEC01AF1EEF1
:1005B00010FA01D2F0EE401A01EBC50191ED000AEC
:1005C000B5EEC00AF1EE10FA05DDB4EEE10AF1EE87
:1005D00010FA09DD06E0B1EE400AF4EEC01AF1EEC1
:1005E00010FA01D2F0EE401A521ECDD1F5EEC01A2B
:1005F000F1EE10FA00F07381F5EEC02A0126F1EE5B
:1006000010FA0099D4BFB1EE620AB0EE620AB4EEFD
:10061000610AF1EE10FA1CBFAEEB0802B2F1010C58
:1006200047D005FB08F201EB820292ED001A00BFF1
:10063000B0EE410A05FB06F4B5EEC00A00EB8404F7
:10064000F1EE10FACCBFF0EE400AF1EE400AF4EE03
:10065000610AF1EE10FA28D1B5EB080C11D0BCF10B
:10066000004F7DD2BCF1000F0BDD00BF92ED000A00
:10067000D1ED000ABCF1010CE2EC010AA1EC010A87
:10068000F4D129000ED0B1F1004F6AD2002909DD62
:1006900094ED000AD0ED000A491EE4EC010AA0EC3A
:1006A000010AF5D1012002900BE0761CBCF1010C8F
:1006B000BED10298012804D0F5EEC02AF1EE10FA5E
:1006C0007ED09BED000AB5EB08009A4659460646D7
:1006D00022D0B0F1004F74D200281DDD091F10F0A8
:1006E000010F06D0F0EE400A80EEA01A81ED011A4B
:1006F000091D401010D000BFD1ED010A401E80EE50
:10070000801A81ED011A91ED021AC1EE000AC1EDC5
:10071000020A01F10801EFD1280026D0B0F1004F04
:100720007ED2002821DDAAF1040110F0010F06D0CD
:10073000D1ED010A80EE801A81ED011A091D4010E9
:1007400013D000BFD1ED010A401E80EE801A81ED6A
:10075000011AD1ED020A80EE801A81ED021A01E041
:10076000CBE0D6E001F10801ECD1DDE900124FF059
:1007700000095FEA0E0773D0C14504BF01EB860193
:1007800002EB850274D091ED000ADC46504633003E
:1007900035D01C46B6F1004F7ED2002C2FDD0B1F4A
:1007A000ABF1040C16F0010F0FD0F0EE400ADCEDB7
:1007B000011AB0EE601A00EEE11A83ED011A01E0B1
:1007C0008DE0B1E01B1D0CF1040C741015D000BFBE
:1007D000D3ED010A9CED011A40EE410AC3ED010A76
:1007E000D3ED020A9CED021A0CF1080C40EE410A0E
:1007F000C3ED020A0833641EEAD101EB86012B0027
:1008000036D0B3F1004F72D2002B31DDA2F1040CCF
:10081000AAF1040013F0010F0CD0DCED010A00E096
:100820008BE090ED011A001D40EE410ACCED010A6B
:100830000CF1040C5C1019D0DCED010A90ED011AEA
:1008400040EE410ACCED010ADCED020A90ED021AFD
:10085000083040EE410ACCED020A03E0000000003F
:100860000DE005E0641E0CF1080CE5D102EB8302FB
:1008700001EB88017F1E09F101097FF47DAF00982B
:1008800008F10108001D00900398401E03907FF4BA
:100890004BAE0299012900E058E004BF06B0BDE864
:1008A000F08F00BFB5EEC00AF1EE10FA7FF4E9ADAB
:1008B00004990EFB05F3002B4A684FF000010BD999
:1008C00002EB810C9CED000AB5EEC00AF1EE10FAC5
:1008D00002D1491C8B42F3D88B427FF4D2AD6FF02A
:1008E0000400CEE5E0EC010A491EFBD1EFE538E05B
:1008F000E0EC010A521EFBD108E692ED000AD1EDB0
:10090000000ABCF1010CE2EC010AA1EC010AF4D1ED
:10091000B7E694ED000AD0ED000A491EE4EC010AA6
:10092000A0EC010AF5D1BDE6D1ED000A401E80EE33
:10093000801AA1EC011AF7D1EEE6D3ED000A401EB1
:1009400080EE801AA3EC011AF7D10EE7BCEC011A75
:10095000D1ED000A5B1E40EE410AE1EC010AF5D13F
:100960004DE7B0EC011AD2ED000A5B1E40EE410AE1
:10097000E2EC010AF5D17BE72DE9F04F82B0466841
:1009800053680193058847884B88002000900888A9
:10099000874201BFB2F800C06545528893421EBF2E
:1009A0006FF0020002B0BDE8F08F9FED412A4FEAE0
:1009B000970EC7F3400B00BFDDE9000202EB800A8F
:1009C0004A6898464FF00009B0EE420AB4465FEA22
:1009D0000E0025D092ED001ADCED001A02EB830226
:1009E000DCED010A01EE810A92ED001A02EB8302AE
:1009F000401ED2ED001A02EB830200EE810A9CED4C
:100A0000021ADCED030A00040CF1100C000C01EEDC
:100A1000210A92ED001A02EB830200EE810AD9D17D
:100A200017F0030026D0ACF10404A2EB830210F00F
:100A3000010F08D002EB8302D4ED010A92ED001AF7
:100A4000241D00EE810A5FEA0B0013D002EB830C39
:100A5000D4ED010A9CED001A02EBC302401E00EE29
:100A6000810AD4ED020A92ED001A04F1080400EEA6
:100A7000810AEBD109F10100AAEC010A1FFA80F901
:100A8000486800EB8902A8F101001FFA80F8B8F16C
:100A9000000F99D1009806EB8706184480B20090A9
:100AA000681E05042D0C87D102B00020BDE8F08F30
:100AB000000000002DE9F04F02884768B0F802807E
:100AC0004888D1F8049082B04FF0000A164682425E
:100AD00007BF098888456FF0020002B018BFBDE863
:100AE000F08F4FEA980B02EB42000190C8F34000F0
:100AF000CDF8000009EB8A01BBF1000F33D001985B
:100B000001EB820C01EB80043B46E64601EBC2059B
:100B10004FEA0B0093ED000A401E81ED000A93EDB1
:100B2000010A01EB02118CED000A93ED020A0CEBB5
:100B3000021C85ED000A93ED030A05EB021584ED16
:100B4000000A04EB021403F11003E3D10EEB820060
:100B500000EB820000EB8201ABF10100504307EB98
:100B60000B1701EB001118F0030C21D03B1FA1EB78
:100B700082011CF0010F06D093ED010A01EB820106
:100B80001B1D81ED000A009880B100BF93ED010AA2
:100B900001EB820401EBC20184ED000A93ED020A2D
:100BA000401E81ED000A03F10803EFD107EB8C072B
:100BB0000AF101001FFA80FA701E0604360C99D162
:100BC00002B00020BDE8F08F704700000FB4044968
:100BD00010B503AA029800F0F3F910BC5DF814FBFD
:100BE0001C0000202DE9F0410E4604460020206242
:100BF0002046E168884730B3252805D0D4E9012193
:100C00009047206A401CF2E7E168204600278847A9
:100C1000050018D0A5F14100192802D820354FF45D
:100C200000673246294620462760FFF7E7FA40B1C1
:100C3000012804D0F61D26F007060836D8E7361D31
:100C4000D6E72846DAE7206ABDE8F08170B50C46A1
:100C50000546012A05D02878800600D5EA690023D8
:100C600002E0012305E05B1C934202D2E05C002815
:100C7000F9D1A869E618C01AA861286A1844286240
:100C80002846AFF3008004E0D5E9012114F8010BF8
:100C90009047B442F8D32846AFF3008070BD0000FF
:100CA0002DE9F0410646002410687529314616A545
:100CB00010D0AFF30080002802DA404213A507E00D
:100CC00031688A0701D512A502E0490704D511A5AC
:100CD000012401E0AFF3008000210A2206F124077D
:100CE00009E0B0FBF2FCB0FBF2F302FB1C00303079
:100CF00078541846491C0028F3D123462A4630462A
:100D0000BDE8F04100F0D4B8000000002D00000064
:100D10002B0000002000000070B504460D4621465F
:100D20001068AFF300802188090502D50F4A7A4484
:100D300002E00E4A7A440E32002104F1240305E059
:100D400000F00F060009965D5E54491C0028F7D19B
:100D500020780023000704D5702D02D009B10223AA
:100D600011322046BDE8704000F0A2B836B900004C
:100D7000032A40F2308010F0030C00F0158011F8C7
:100D8000013BBCF1020F624498BF11F801CB00F89F
:100D9000013B38BF11F8013BA2F1040298BF00F8F3
:100DA00001CB38BF00F8013B11F0030300F02580B0
:100DB000083AC0F0088051F8043B083A51F804CBD7
:100DC000A0E80810F5E7121D5CBF51F8043B40F89D
:100DD000043BAFF30080D20724BF11F8013B11F8A8
:100DE00001CB48BF11F8012B24BF00F8013B00F8EC
:100DF00001CB48BF00F8012B704710B5203AC0F076
:100E00000B80B1E81850203AA0E81850B1E818500B
:100E1000A0E81850BFF4F5AF5FEA027C24BFB1E848
:100E20001850A0E8185044BF18C918C0BDE81040B9
:100E30005FEA827C24BF51F8043B40F8043B08BFC2
:100E40007047D20728BF31F8023B48BF11F8012B89
:100E500028BF20F8023B48BF00F8012B704702F082
:100E6000FF0343EA032242EA024200F0BDB87047A2
:100E70007047704770B5064C7C44064D7D4403E0D6
:100E8000206820448047241DAC42F9D170BD000089
:100E900024B9000024B90000704710B500F0C4F870
:100EA000006810BD10B5044600F0BEF8046010BD27
:100EB0002DE9F0470D4699469246044600F1240874
:100EC0000168880604D5E06921F01001216000E086
:100ED0000120A84201DD471B00E00027A1697A1923
:100EE00002EB0900081AA0612078C00602D420464F
:100EF000AFF30080002608E0D4E901211AF80600CB
:100F00009047206A401C761C20624E45F4DB207816
:100F1000C0060AD52046AFF3008006E0D4E90121DF
:100F200030209047206A401C2062381EA7F101073C
:100F3000F4DC07E0D4E9012118F805009047206AA5
:100F4000401C2062281EA5F10105F3DC2046AFF30A
:100F500000802078000602D50220BDE8F08701203D
:100F6000FBE7000001694A1C02610878704700B580
:100F70008FB0CDE901310021059105497944CDE9D2
:100F8000031011466846FFF72DFE0FB000BD0000AC
:100F9000E5FFFFFF10B5436913B1AFF3008001E037
:100FA000FFF754FE012010BD127800F124010A70F1
:100FB00000224A700122EDE711684FF0FF32E9E7A5
:100FC000074B70B50D467B44FFF7D1FF044628461A
:100FD00000F046F810B14FF0FF3070BD204670BDF4
:100FE000C37D00004FF000020429C0F0128010F011
:100FF000030C00F03B80CCF1040CBCF1020F18BFD5
:1010000000F8012BA8BF20F8022BA1EB0C0100F087
:101010002DB85FEAC17C24BF00F8012B00F8012B3A
:1010200048BF00F8012B704700487047645E0020FD
:101030001FB584B000200A9C06AB04AA02A9009444
:10104000AFF3008018B1DDE9020108B010BD03481C
:10105000204000F063F800200146F6E70000207C05
:10106000007B00F0800070474FF0000200B513468F
:1010700094469646203922BFA0E80C50A0E80C50B8
:10108000B1F12001BFF4F7AF090728BFA0E80C5069
:1010900048BF0CC05DF804EB890028BF40F8042B62
:1010A00008BF704748BF20F8022B11F0804F18BFCF
:1010B00000F8012B7047000000487047645E002074
:1010C0007546FFF7F9FFAE4605006946534620F026
:1010D0000700854618B020B5FFF71CF9BDE8204091
:1010E0004FF000064FF000074FF000084FF0000BE4
:1010F00021F00701AC46ACE8C009ACE8C009ACE897
:10110000C009ACE8C0098D46704710B50446AFF37E
:1011100000802046BDE81040FFF78CB810B500F005
:1011200009F8BDE81040AFF30080002801D007F0B7
:10113000C5BD704710B5022803D0410103D50DA1EC
:1011400012E0002010BD010101D50FA10CE0C1008B
:1011500001D511A108E0810001D512A104E04000F1
:1011600001D513A100E0002115A000F039F80120FD
:1011700010BD0000496E76616C6964204F70657225
:101180006174696F6E00000044697669646520428D
:1011900079205A65726F00004F766572666C6F77C2
:1011A00000000000556E646572666C6F7700000089
:1011B000496E657861637420526573756C740000C4
:1011C0005349474650453A2041726974686D6574C9
:1011D000696320657863657074696F6E3A200000FA
:1011E00070B505460C460A2000E06D1C07F067FD4F
:1011F00035B128780028F8D102E0641C07F05FFDC3
:1012000014B120780028F8D1BDE870400A2007F01A
:1012100056BDFEE72DE9F04F8BB08A46814601218D
:101220001E4690460846DDF850B004F095FC0121BA
:101230004C06204604F0A8FC0121204604F0B0FC36
:101240000021204604F0ACFC4FF4C050079002206F
:101250008DF8200000248DF8224003208DF8210015
:101260002E4F01258DF8235007A9384600F0ACFC1D
:1012700009220B21384600F0E3FC09220C213846F4
:1012800000F0DEFC8DF802B08DF803908DF806407A
:101290008DF80840ADF800608DF807508DF80950C2
:1012A0001F4E8DF80A408DF804808DF80B408DF8A4
:1012B00005A06946304600F0AFF98DF816408DF86C
:1012C00017408DF81850ADF80C40ADF81040ADF84F
:1012D0000E40ADF81240ADF814408DF8195003A837
:1012E00000F0D8F801220221304600F08DF90022EA
:1012F000E903304600F088F914208DF8240004201A
:101300008DF825008DF826408DF8275009A804F0A7
:10131000E7FB0BB00020BDE8F08F000000000240AA
:101320000064004010B5094C0221204600F018F975
:10133000002809D0064A0021204600F0E1F9BDE866
:101340001040034805F03AB910BD000000640040A9
:101350007C5500202DE9F04F894683468BB09A4694
:1013600090460121022004F0F7FB01218C06204663
:1013700004F00AFC0121204604F012FC0021204662
:1013800004F00EFC6020079002208DF8200000245D
:101390008DF822400326304F8DF8216001258DF80D
:1013A000235007A9384600F00FFC092205213846D2
:1013B00000F046FC09220621384600F041FC149852
:1013C0008DF806408DF808408DF802008DF8075022
:1013D0008DF80950214F8DF80A408DF803B08DF833
:1013E00004808DF80B408DF80590ADF800A069469B
:1013F000384600F011F90E208DF816008DF81740D0
:101400008DF81850ADF80C40ADF81040ADF80E4016
:10141000ADF81240ADF814508DF8195003A800F043
:1014200039F801221021384600F0EEF80022E903D5
:101430000B4800F0E9F841208DF824008DF8256074
:101440008DF826408DF8275009A804F049FB0BB011
:101450000020BDE8F08F000000040240006800405A
:101460000064004010B5094C1021204600F078F8C7
:10147000002809D0064A0121204600F041F9BDE8C4
:101480001040034805F002B910BD0000006800409C
:1014900090550020F0B5827A2F4D012191402A68A5
:1014A00042F001022A602C4E1C3632688A433260B8
:1014B000294A047B294B0C32A4B914688C4314606C
:1014C0004488C78844EA0744877A03EBC707C7F80C
:1014D00040460488878844EA0744877A03EBC707B5
:1014E000C7F84446047B012C12D114680C431460E5
:1014F000847A026803EBC4044FEA3242C4F84026FF
:10150000847A426803EBC4034FEA3242C3F84426AC
:10151000114AC37A121D002B136806D00B431360C7
:101520000D4A0389143213B104E08B43F7E71368C3
:101530008B4313600389012B02D113680B431360A3
:10154000407B012802D1306808433060286820F0D1
:1015500001002860F0BD000000660040006000400F
:101560000246002053690B424AD0B1F5807F3BD040
:1015700013DC08292ED007DC012926D0022927D028
:1015800004293DD1D0682BE0102925D0202926D070
:10159000402935D11069102130E0B1F5004F2BD032
:1015A0000BDCB1F5007F22D0B1F5806F22D0B1F510
:1015B000006F25D19069702120E0B1F5803F11D0F6
:1015C000B1F5003F1CD15068E5E790680D4915E082
:1015D000D06802E0D068DEE7106903210EE01069F0
:1015E00008210BE05068FBE79069012106E0906953
:1015F000022103E0906900E05068042100F0C7B8C0
:101600007047000001010100002A426901D00A432D
:1016100000E08A434261704710B50368002223F05E
:1016200002030360036843F0010303604FF6FF7396
:1016300000E0521C4468E40701D19A42F9D14268A3
:10164000D2073ED08A79012A02683CD022F080027B
:101650000260CA79012A026838D022F04002026092
:101660000A7A012A026834D022F0200202604A7A03
:10167000012A026830D022F0100202608A7A012A20
:1016800002682CD022F008020260CA7A012A02689D
:1016900028D022F0040202608A78CC78920742EACD
:1016A00004620C7942EA04424C79098842EA045205
:1016B000491E0A43C261016821F001010160002155
:1016C00014E0002010BD42F08002C1E742F0400269
:1016D000C5E742F02002C9E742F01002CDE742F030
:1016E0000802D1E742F00402D5E7491C4268D2075C
:1016F00001D09942F9D14068C007E2D1012010BD64
:1017000010B500EB0113D3F8B04114F004041472C7
:10171000D3F8B04133D0E4085460D3F8B04104F0BA
:1017200002045472D3F8B44104F00F049472D3F855
:10173000B441240AD474D3F8B841D472D3F8B84170
:10174000240A1473D3F8B841240C5473D3F8B84165
:10175000240E9473D3F8BC41D473D3F8BC41240A4B
:101760001474D3F8BC41240C5474D3F8BC311B0E50
:10177000937439B1016941F02001016110BD640D1C
:101780001460CAE7C16841F02001C16010BD024683
:1017900000200A4200D0012070470000074A904212
:1017A00001D2074801E005481038064A8B0001EADB
:1017B000020101D5C160704781607047106402402A
:1017C000006002407D0F7D0F0029016802D041F0CA
:1017D000010101E021F00101016070472DE9F043B2
:1017E000016821F001010160002101604160816018
:1017F000C1600161212141613C493C4A3D251039CC
:10180000904202D18D60BDE8F083384A4FF474668F
:101810001832904201D18E60F5E7344A4FF47417C4
:101820003032904201D18F60EDE7304A4FF0746C56
:101830004832904202D1C1F808C0E4E72B4B2C4A51
:101840006033984201D1CA60DDE7284C294B7834D7
:10185000A04201D1CB60D6E7DFF89080264C08F19A
:101860009008404501D1CC60CDE7DFF880804FF093
:101870003D5908F1A808404502D1C1F80C90C2E7D3
:101880001E49DFF878800839404501D10D60BAE77C
:101890001A4D1835A84201D10E60B4E7174D303506
:1018A000A84201D10F60AEE7144D4835A84202D1DD
:1018B000C1F800C0A7E7114D10496035091FA842C3
:1018C00001D10A609FE70D4A7832904201D10B6046
:1018D00099E70A4A9032904201D10C6093E7074A97
:1018E000A83290428FD1C1F800908CE7106002407E
:1018F0003D000020400F002000003D201064024009
:101900000029016802D041F4802101E021F4802106
:1019100001607047002A026802D042F4002201E010
:1019200022F40022026001617047406880B2704773
:10193000014600200968090300D501207047000016
:1019400030B50368124ACC6813400A682243D1E9D3
:1019500005452C432243CC6922430C6A22434C6A3E
:1019600022438C6A22434C6B22438C6B22431A43E2
:101970000260426922F00703D1E90B2422431A4393
:1019800042610A6942604A6882608968C16030BD0C
:101990003F801CF0416070477047000001490860BB
:1019A000704700000C3C024070B50646002529B186
:1019B000012927D0022928D04FF4407500F080F883
:1019C00009281ED1124C206820F440702060206845
:1019D00028432060206820F0F8002060206846F04E
:1019E000020108432060206840F48030206000F04D
:1019F00067F8216821F002012160216821F0F801D7
:101A0000216070BD4FF48075D8E74FF40075D5E7BD
:101A1000103C02400D4909200A68D20301D501207B
:101A200070470A68D20601D5062070470A68D205B9
:101A300001D5022070470A6812F0EF0F01D007208D
:101A4000704709688907FBD5082070470C3C0240A5
:101A50000248016841F0004101607047103C0240BB
:101A600070B50D46064600F02BF8092813D10A4C34
:101A7000206820F440702060206840F400702060EE
:101A8000206840F001002060356000F019F82168FE
:101A900021F00101216070BD103C02400548006842
:101AA000002805DA034804490C3801600349016045
:101AB00070470000103C024023016745AB89EFCD21
:101AC00008B509208DF80000FFF7A4FF8DF800008D
:101AD0009DF800000128F7D09DF8000008BD000027
:101AE0008000A0F1C0400029016802D041F001014E
:101AF00001E0024A1140016070470000FEFF0F0044
:101B000010B5D0E901121143D0E903231A43114360
:101B10004269114382691143C2691143026A114348
:101B2000426A1143826A1143C26A1143026B114334
:101B300002689200A2F1C04211608168082907D1B1
:101B400001688900A1F1C0410A6842F040020A60C0
:101B5000416BD1E9002342EA03128B688C891B0296
:101B600043EA04431A430B8A42EA03520B7D896914
:101B700042EA03620A4301688900A1F1C0414A6058
:101B8000C16AB1F5804F08D000686FF070418000E5
:101B9000A0F1C040C0F8041110BD816BD1E9002351
:101BA00042EA03128B680C8A1B0243EA04531A436D
:101BB0000B7D896942EA036200680A438000A0F154
:101BC000C040C0F8042110BDF0B5002201274FF03D
:101BD000030C0B6807FA02F52B40AB422CD10668C8
:101BE00053000CFA03F4A64306600E79D0F800E027
:101BF0009E4046EA0E0606600E79012E01D0022EA6
:101C000012D18668A64386604E79D0F808E09E40DF
:101C100046EA0E0686604668AE43466045688E79A1
:101C20009640B6B235434560C568A543C560CC79DA
:101C30009C40C3681C43C460521C102AC9D3F0BD29
:101C40004B07DB0E9A40C90810B500EB8100016A12
:101C50000F249C40A1430162016A1143016210BD3F
:101C60004183704701837047FEE700002DE9F05F74
:101C700006462DED088B80ED420B022000EB400262
:101C8000022106EBC20303EBC102491E12ED021B47
:101C9000002982ED001BF6DC401EEFD5DFF8E0A046
:101CA000002586ED000BA846AAF1780B05EB450050
:101CB00008EB480906EBC0040AEBC90794ED0A1BC0
:101CC00097ED0A0B53EC112B51EC100B09F054FC5F
:101CD00094ED081B97ED080B41EC1B0B53EC112BFB
:101CE00051EC100B09F048FC0BEBC90794ED041BF9
:101CF00097ED0A0B41EC1A0B53EC112B51EC100B26
:101D000009F03AFC94ED021B97ED080B41EC180B1F
:101D100053EC112B51EC100B09F02EFC94ED001B31
:101D200097ED060B41EC190B53EC112B51EC100BFA
:101D300009F022FC53EC192B09F094F853EC182B02
:101D400009F090F897ED001B53EC112B09F014FCEF
:101D500053EC1A2B09F0DCFE53EC1B2B09F0D8FED8
:101D60006D1CC4E9060108F10208022D9EDB96ED08
:101D70000C0B86ED440BBDEC088BBDE8F09F00001A
:101D800078C5000810B59FED0B1B002202EB420343
:101D90000021B0EE410AF0EE610A00EBC30303EB51
:101DA000C104491C84ED000B0329F8DB521C022AF4
:101DB000ECDB10BD00000000000000002DE9F04346
:101DC000184F0646002438887D884543B888A0F51A
:101DD000D041043902D1B879012808D00021084641
:101DE00003F08CFD03F04AFE4FF0D84016E00020CF
:101DF000B8714FF02A09A7F80A904FF02B08A7F8FE
:101E00000C80014603F07AFD0120B871A7F80A8022
:101E1000A7F80C90E6E7A0F88060641CAC42FAD307
:101E2000BDE8F083CC0000202DE9F04F4A492A2379
:101E30002B24898845F2105A4FF4305B4FF4285E0A
:101E40004FF448754FF0F00C49F241394FF4A07748
:101E500045F210364FF4F07280B13F484FF0010860
:101E6000494580F806800780A0F802C001D0B14241
:101E70003ED12C2505814381848157E036484FF0BF
:101E80000008494580F80680A0F800C0478006D0C9
:101E9000A1F5D04CBCF1040C01D0B1420CD12C25E1
:101EA00005814381A1F5D0438481043B01D0B14237
:101EB00044D10780428041E0514507D1A0F808B0E5
:101EC000A0F80AE04FF42C5181810EE0A1F5C8562C
:101ED000633E06D02221018120214181212181817F
:101EE0002CE02C210181448183810280458025E002
:101EF000A1F5D04CBCF1040C09D051450BD1A0F890
:101F000008B0A0F80AE04FF42C53838121E02C257F
:101F10000581448109E0A1F5C85CBCF1630C12D0D5
:101F2000222303812123438120238381A1F5D043F0
:101F3000043B01D0B14201D102804780BDE8F04F9F
:101F4000002003F0D9BB4FF02C0CA0F808C043814F
:101F5000848105804280E9E7CC0000202DE9F04F24
:101F6000A1B0002401217A201F9403F0F5FD012186
:101F7000084603F0FDFD4FF40040009001208DF86D
:101F800004008DF8064002208DF8050001208DF830
:101F900007006946FE48FFF717FE4CF233700090C9
:101FA00002208DF804008DF8064003208DF805000E
:101FB00001208DF807006946F648FFF705FE4FF649
:101FC0008070009002208DF804008DF806400320F8
:101FD0008DF805000120F04D8DF807006946284670
:101FE000FFF7F2FDA814009002208DF804008DF890
:101FF000064003208DF805000120E84E8DF807000B
:1020000069463046FFF7E0FDA814009002208DF8E5
:1020100004008DF8064003208DF805000120E04FF4
:102020008DF8070069463846FFF7CEFD0C220021E7
:10203000D848FFF705FE0C220121D648FFF700FE25
:102040000C220421D348FFF7FBFD0C220521D148C7
:10205000FFF7F6FD0C220821CE48FFF7F1FD0C2218
:102060000921CC48FFF7ECFD0C220A21C948FFF7F3
:10207000E7FD0C220E21C748FFF7E2FD0C220F21DD
:10208000C448FFF7DDFD0C2207212846FFF7D8FDE5
:102090000C2208212846FFF7D3FD0C2209212846EF
:1020A000FFF7CEFD0C220A212846FFF7C9FD0C22BE
:1020B0000B212846FFF7C4FD0C2211462846FFF7E6
:1020C000BFFD0C220D212846FFF7BAFD0C220E2180
:1020D0002846FFF7B5FD0C220F212846FFF7B0FD7B
:1020E0000C2211463046FFF7ABFD0C221146384654
:1020F000FFF7A6FD0F20CDE911043C20CDE9130424
:10210000159409201694CDE917400820CDE919400F
:102110001B941C940620CDE902041D941E941020EB
:10212000CDE9044006940002CDE90A4008940794E2
:102130008000CDE90C40099411A8CDE90E4018A803
:10214000109002A8FFF7DCFC01210620FFF7C8FC75
:10215000322006F0D9FD0121002003F099FC322045
:1021600006F0D2FD002003F095FA8E4A4FF0204A87
:102170004FF6FF7B908049F2413545F2103645F22B
:10218000105441F6631846F60407FF2804D3584557
:1021900002D0B0F5134F74D1D32003F063FC03F0E9
:1021A0006FFA908003F06CFA908003F069FA0BEA02
:1021B0000020D946908003F063FA9188084390800C
:1021C000A8425ED0BF2003F04DFC03F059FA908086
:1021D00003F056FA908003F053FA908003F050FA1F
:1021E00009EA0020908003F04BFA91880843908020
:1021F000B84246D0D42003F035FC03F041FA908079
:1022000003F03EFA908003F03BFA09EA0020908048
:1022100003F036FA918808439080B04231D04FF4F1
:102220005A4003F01FFC03F02BFA90804FF45B4000
:1022300003F018FC03F024FA09EA002090804FF420
:102240005C4003F00FFC03F01BFA91880843908078
:10225000B0F5004F39D0A04213D0A12003F002FC0A
:1022600003F00EFA908003F00BFA09EA0020908048
:1022700003F006FA91880843A0F5AE4190806139D9
:1022800020D080B2A84205D0B04203D0A04201D0F5
:1022900040451CD1DAF81C11504621F00F01CAF854
:1022A0001C11DAF81C1121F47061CAF81C11DAF85B
:1022B0001C1141F00301CAF81C11DAF81C1141F499
:1022C000007121E0A2F80480E4E79480E2E7B842DC
:1022D00003D0A0F54541053918D1DAF81C11504654
:1022E00021F00F01CAF81C11DAF81C1121F47061F9
:1022F000CAF81C11DAF81C1141F00A01CAF81C11C5
:10230000DAF81C1141F44061C0F81C119146918823
:1023100025A0FEF75BFCB9F80400A8427DD1CF20D0
:1023200003F0A0FB002003F091FBC12003F08EFB23
:10233000302003F08BFBED2003F094FB642003F0CE
:1023400085FB032003F082FB122003F07FFB81203A
:1023500003F07CFBE82003F085FB852003F076FB8F
:10236000102003F073FB7A2003F070FBCB2003F006
:1023700079FB392003F06AFB2C2003F067FB002077
:1023800003F064FB342003F061FB022014E0000042
:1023900000040240000C0240001002400014024001
:1023A00000180240CC000020204C43442049443A0D
:1023B00025780D0A0000000003F048FBF72003F029
:1023C00051FB202003F042FBEA2003F04BFB0020EE
:1023D00003F03CFB002003F039FBC02003F042FB7C
:1023E0001B2003F033FBC12003F03CFB012003F072
:1023F0002DFBC52003F036FB302003F027FB3020F7
:1024000003F024FBC72003F02DFBB72003F01EFBD5
:10241000362003F027FB482000E0A7E003F016FB7E
:102420003A2003F01FFB552003F010FBB12003F00E
:1024300019FB002003F00AFB1A2003F007FBB6206B
:1024400003F010FB0A2003F001FBA22003F0FEFAC8
:10245000F22003F007FB002003F0F8FA262003F037
:1024600001FB012003F0F2FAE02003F0FBFA0F2059
:1024700003F0ECFA2A2003F0E9FA282003F0E6FA48
:10248000082003F0E3FA0E2003F0E0FA082003F03E
:10249000DDFA542003F0DAFAA92003F0D7FA43203A
:1024A00003F0D4FA0A2003F0D1FA0F2003F0CEFA99
:1024B000002003F0CBFA002003F0C8FA002003F05C
:1024C000C5FA002003F0C2FAE12003F0CBFA0020A5
:1024D00003F0BCFA152003F0B9FA172003F0B6FA9E
:1024E000072003F0B3FA112003F0B0FA062003F03E
:1024F000ADFA2B2003F0AAFA562003F0A7FA3C20ED
:1025000003F0A4FA052003F0A1FA102003F09EFACC
:102510000F2003F09BFA3F2003F098FA3F2003F0CE
:1025200095FA0F2003F092FA2B2003F09BFA00207B
:1025300003F08CFA002003F089FA012003F086FAF8
:102540003F2003F083FA2A2003F08CFA002003F0E6
:102550007DFA002003F07AFA002003F077FAEF20EA
:1025600003F074FA112003F07DFAA5E0B8427CD1A3
:10257000112003F077FA142006F0C6FBD02003F0F8
:1025800071FA072003F062FA422003F05FFA1D207F
:1025900003F05CFAD12003F065FA002003F056FA4C
:1025A0001A2003F053FA092003F050FAD22003F066
:1025B00059FA012003F04AFA222003F047FAC0201A
:1025C00003F050FA102003F041FA3B2003F03EFAEA
:1025D000002003F03BFA022003F038FA112003F048
:1025E00035FAC52003F03EFA032003F02FFAC82085
:1025F00003F038FA002003F029FA252003F026FA28
:10260000212003F023FA052003F020FA002003F034
:102610001DFA0A2003F01AFA652003F017FA2520A4
:1026200003F014FA772003F011FA502003F00EFAA9
:102630000F2003F00BFA002003F008FAF82003F053
:1026400011FA012003F002FAFE2003F00BFA002039
:1026500003F0FCF9022003F0F9F9202003F002FA5C
:10266000362003F0FFF9082000E02BE003F0EEF93C
:102670003A2003F0F7F9552003F0E8F92B2003F096
:10268000F1F9002003F0E2F9002003F0DFF9012066
:1026900003F0DCF93F2003F0D9F92A2003F0E2F936
:1026A000002003F0D3F9002003F0D0F9012003F05B
:1026B000CDF9DF2003F0CAF9782006F025FB2920A8
:1026C00001F0FBBEB0427CD1ED2003F0CBF901203C
:1026D00003F0BCF9FE2003F0B9F9EE2003F0C2F9D3
:1026E000DE2003F0B3F9212003F0B0F9F12003F06C
:1026F000B9F9012003F0AAF9DF2003F0B3F91020A3
:1027000003F0A4F9C42003F0ADF98F2003F09EF983
:10271000C62003F0A7F9002003F098F9E22003F0A7
:1027200095F9E22003F092F9E22003F08FF9BF203F
:1027300003F098F9AA2003F089F9B02003F092F988
:102740000D2003F083F9002003F080F90D2003F041
:102750007DF9002003F07AF9112003F077F90020C9
:1027600003F074F9192003F071F9002003F06EF9F9
:10277000212003F06BF9002003F068F92D2003F00D
:1027800065F9002003F062F93D2003F05FF90020B5
:1027900003F05CF95D2003F059F9002003F056F9CD
:1027A0005D2003F053F9002003F050F9B12003F04D
:1027B00059F9802003F04AF9002003F047F98B20F3
:1027C00000E0FCE303F042F9002003F03FF996201B
:1027D00003F03CF9002003F039F9B22003F042F98C
:1027E000002003F033F9002003F030F9022003F059
:1027F0002DF9002003F02AF9032003F027F9002027
:1028000003F024F9B32003F02DF9002003F01EF9A2
:10281000002003F01BF9002003F018F9002003F05A
:1028200015F9002003F012F9002003F00FF9002041
:1028300003F00CF9002003F009F9002003F006F979
:10284000002003F003F9002003F000F9002003F05A
:10285000FDF8002003F0FAF8002003F0F7F800205C
:1028600003F0F4F8002003F0F1F8002003F0EEF894
:10287000002003F0EBF8002003F0E8F8002003F05C
:10288000E5F8002003F0E2F8002003F0DFF8002074
:1028900003F0DCF8002003F0D9F8B42003F0E2F8EC
:1028A0008B2003F0D3F8002003F0D0F8962003F03B
:1028B000CDF8002003F0CAF8A12003F0C7F80020EB
:1028C00003F0C4F8B52003F0CDF8022003F0BEF801
:1028D000002003F0BBF8032003F0B8F8002003F059
:1028E000B5F8042003F0B2F8002003F0AFF8B620EA
:1028F00003F0B8F8002003F0A9F8002003F0A6F8D0
:10290000B72003F0AFF8002003F0A0F8002003F098
:102910009DF83F2003F09AF8002003F097F85E201E
:1029200003F094F8002003F091F8642003F08EF88F
:10293000002003F08BF88C2003F088F8002003F0CF
:1029400085F8AC2003F082F8002003F07FF8DC204B
:1029500003F07CF8002003F079F8702003F076F89B
:10296000002003F073F8902003F070F8002003F0CB
:102970006DF8EB2003F06AF8002003F067F8DC2024
:1029800003F064F8002003F061F8B82003F06AF85F
:10299000002003F05BF8002003F058F8002003F05B
:1029A00055F8002003F052F8002003F04FF8002003
:1029B00003F04CF8002003F049F8002003F046F83B
:1029C000BA2003F04FF8242003F040F8002003F071
:1029D0003DF8002003F03AF8002003F037F8C1205A
:1029E00003F040F8202003F031F8002003F02EF827
:1029F000542003F02BF8002003F028F8FF2003F008
:102A000025F8002003F022F8C22003F02BF80A205A
:102A100003F01CF8002003F019F8042003F016F866
:102A2000002003F013F8C32003F01CF83C2003F04F
:102A30000DF8002003F00AF83A2003F007F8002010
:102A400003F004F8392003F001F8002002F0FEFF43
:102A5000372002F0FBFF002002F0F8FF3C2002F0DC
:102A6000F5FF002002F0F2FF362002F0EFFF002019
:102A700002F0ECFF322002F0E9FF002002F0E6FF56
:102A80002F2002F0E3FF002002F0E0FF2C2002F0F4
:102A9000DDFF002002F0DAFF292002F0D7FF00203E
:102AA00002F0D4FF262002F0D1FF002002F0CEFF7A
:102AB000242002F0CBFF002002F0C8FF242002F007
:102AC000C5FF002002F0C2FF232002F0BFFF00205C
:102AD00002F0BCFF3C2002F0B9FF002002F0B6FF7C
:102AE000362002F0B3FF002002F0B0FF322002F0E7
:102AF000ADFF002002F0AAFF2F2002F0A7FF002068
:102B000002F0A4FF2C2002F0A1FF002002F09EFFA3
:102B1000292002F09BFF002002F098FF262002F0FF
:102B200095FF002002F092FF242002F08FFF00208A
:102B300002F08CFF242002F089FF002002F086FFC3
:102B4000232002F083FF002002F080FFC42002F067
:102B500089FF622002F07AFF002002F077FF052053
:102B600002F074FF002002F071FF842002F06EFF7B
:102B7000002002F06BFFF02002F068FF002002F05E
:102B800065FF182002F062FF002002F05FFFA42022
:102B900002F05CFF002002F059FF182002F056FFFF
:102BA000002002F053FF502002F050FF002002F0FE
:102BB0004DFF0C2002F04AFF002002F047FF1720D3
:102BC00002F044FF002002F041FF952002F03EFF9A
:102BD000002002F03BFFF32002F038FF002002F05B
:102BE00035FFE62002F032FF002002F02FFFC52063
:102BF00002F038FF322002F029FF002002F026FF09
:102C0000442002F023FF002002F020FF652002F0A4
:102C10001DFF002002F01AFF762002F017FF0020AF
:102C200002F014FF882002F011FF002002F00EFFD6
:102C3000C62002F017FF202002F008FF002002F05B
:102C400005FF172002F002FF002002F0FFFE012026
:102C500002F0FCFE002002F0F9FEC72002F002FFA5
:102C6000002002F0F3FE002002F0F0FE002002F04F
:102C7000EDFE002002F0EAFEC82002F0F3FE002084
:102C800002F0E4FE002002F0E1FE002002F0DEFE91
:102C9000002002F0DBFEC92002F0E4FE002002F07A
:102CA000D5FE002002F0D2FE002002F0CFFE002070
:102CB00002F0CCFE002002F0C9FE002002F0C6FEA9
:102CC000002002F0C3FE002002F0C0FE002002F04F
:102CD000BDFE002002F0BAFE002002F0B7FE002088
:102CE00002F0B4FE002002F0B1FE002002F0AEFEC1
:102CF000002002F0ABFE002002F0A8FEE02002F06F
:102D0000B1FE162002F0A2FE002002F09FFE1C2061
:102D100002F09CFE002002F099FE212002F096FEB7
:102D2000002002F093FE362002F090FE002002F018
:102D30008DFE462002F08AFE002002F087FE52201F
:102D400002F084FE002002F081FE642002F07EFE8C
:102D5000002002F07BFE7A2002F078FE002002F0D4
:102D600075FE8B2002F072FE002002F06FFE9920AB
:102D700002F06CFE002002F069FEA82002F066FE60
:102D8000002002F063FEB92002F060FE002002F095
:102D90005DFEC42002F05AFE002002F057FECA2059
:102DA00002F054FE002002F051FED22002F04EFE4E
:102DB000002002F04BFED92002F048FE002002F075
:102DC00045FEE02002F042FE002002F03FFEF3202C
:102DD00002F03CFE002002F039FEE12002F042FE4B
:102DE000162002F033FE002002F030FE1C2002F01C
:102DF0002DFE002002F02AFE222002F027FE0020F5
:102E000002F024FE362002F021FE002002F01EFE19
:102E1000452002F01BFE002002F018FE522002F0B6
:102E200015FE002002F012FE642002F00FFE0020CA
:102E300002F00CFE7A2002F009FE002002F006FEED
:102E40008B2002F003FE002002F000FE992002F029
:102E5000FDFD002002F0FAFDA82002F0F7FD0020A1
:102E600002F0F4FDB92002F0F1FD002002F0EEFDC9
:102E7000C42002F0EBFD002002F0E8FDCA2002F0C1
:102E8000E5FD002002F0E2FDD22002F0DFFD00208F
:102E900002F0DCFDD82002F0D9FD002002F0D6FDC2
:102EA000E02002F0D3FD002002F0D0FDF32002F07C
:102EB000CDFD002002F0CAFDE22002F0D3FD052086
:102EC00002F0C4FD002002F0C1FD0B2002F0BEFDA7
:102ED000002002F0BBFD1B2002F0B8FD002002F034
:102EE000B5FD342002F0B2FD002002F0AFFD442019
:102EF00002F0ACFD002002F0A9FD4F2002F0A6FD7B
:102F0000002002F0A3FD612002F0A0FD002002F0ED
:102F10009DFD792002F09AFD002002F097FD8820A7
:102F200002F094FD002002F091FD972002F08EFD4A
:102F3000002002F08BFDA62002F088FD002002F0A8
:102F400085FDB72002F082FD002002F07FFDC22047
:102F500002F07CFD002002F079FDC72002F076FD32
:102F6000002002F073FDD12002F070FD002002F07D
:102F70006DFDD62002F06AFD002002F067FDDD2025
:102F800002F064FD002002F061FDF32002F05EFD1E
:102F9000002002F05BFDE32002F064FD052002F05A
:102FA00055FD002002F052FD0A2002F04FFD0020E6
:102FB00002F04CFD1C2002F049FD002000E0FDE283
:102FC00002F044FD332002F041FD002002F03EFDFE
:102FD000442002F03BFD002002F038FD502002F0BA
:102FE00035FD002002F032FD622002F02FFD0020AE
:102FF00002F02CFD782002F029FD002002F026FDD1
:10300000882002F023FD002002F020FD972002F02E
:103010001DFD002002F01AFDA62002F017FD002081
:1030200002F014FDB72002F011FD002002F00EFDA9
:10303000C22002F00BFD002002F008FDC72002F0C4
:1030400005FD002002F002FDD12002F0FFFC00206F
:1030500002F0FCFCD52002F0F9FC002002F0F6FCA6
:10306000DD2002F0F3FC002002F0F0FCF32002F07F
:10307000EDFC002002F0EAFCE42002F0F3FC012069
:1030800002F0E4FC002002F0E1FC012002F0DEFC92
:10309000002002F0DBFC022002F0D8FC002002F04D
:1030A000D5FC2A2002F0D2FC002002F0CFFC3C200C
:1030B00002F0CCFC002002F0C9FC4B2002F0C6FC60
:1030C000002002F0C3FC5D2002F0C0FC002002F0F2
:1030D000BDFC742002F0BAFC002002F0B7FC842092
:1030E00002F0B4FC002002F0B1FC932002F0AEFC30
:1030F000002002F0ABFCA22002F0A8FC002002F0AD
:10310000A5FCB32002F0A2FC002002F09FFCBE2030
:1031100002F09CFC002002F099FCC42002F096FC16
:10312000002002F093FCCD2002F090FC002002F081
:103130008DFCD32002F08AFC002002F087FCDD2009
:1031400002F084FC002002F081FCF32002F07EFCFF
:10315000002002F07BFCE52002F084FC002002F05D
:1031600075FC002002F072FC002002F06FFC0020D1
:1031700002F06CFC022002F069FC002002F066FC08
:10318000292002F063FC002002F060FC3C2002F0E9
:103190005DFC002002F05AFC4B2002F057FC00209E
:1031A00002F054FC5D2002F051FC002002F04EFCC5
:1031B000742002F04BFC002002F048FC842002F056
:1031C00045FC002002F042FC932002F03FFC00206E
:1031D00002F03CFCA22002F039FC002002F036FC98
:1031E000B32002F033FC002002F030FCBE2002F0DD
:1031F0002DFC002002F02AFCC42002F027FC002055
:1032000002F024FCCD2002F021FC002002F01EFC84
:10321000D32002F01BFC002002F018FCDC2002F09E
:1032200015FC002002F012FCF32002F00FFC00203D
:1032300002F00CFCE62002F015FC112002F006FC66
:10324000002002F003FC342002F000FC002002F019
:10325000FDFB562002F0FAFB002002F0F7FB76207F
:1032600002F0F4FB002002F0F1FB772002F0EEFB0D
:10327000002002F0EBFB662002F0E8FB002002F0E9
:10328000E5FB882002F0E2FB002002F0DFFB992042
:1032900002F0DCFB002002F0D9FBBB2002F0D6FBE1
:1032A000002002F0D3FB992002F0D0FB002002F0B6
:1032B000CDFB662002F0CAFB002002F0C7FB5520C0
:1032C00002F0C4FB002002F0C1FB552002F0BEFB5F
:1032D000002002F0BBFB452002F0B8FB002002F00A
:1032E000B5FB432002F0B2FB002002F0AFFB44200C
:1032F00002F0ACFB002002F0A9FBE72002F0B2FBD9
:10330000322002F0A3FB002002F0A0FB552002F0C7
:103310009DFB002002F09AFB762002F097FB002034
:1033200002F094FB662002F091FB002002F08EFB7D
:10333000672002F08BFB002002F088FB672002F080
:1033400085FB002002F082FB872002F07FFB00203B
:1033500002F07CFB992002F079FB002002F076FB62
:10336000BB2002F073FB002002F070FB992002F0FA
:103370006DFB002002F06AFB772002F067FB002063
:1033800002F064FB442002F061FB002002F05EFBCF
:10339000562002F05BFB002002F058FB232002F0D5
:1033A00055FB002002F052FB332002F04FFB0020BF
:1033B00002F04CFB452002F049FB002002F046FBE6
:1033C000E82002F04FFB002002F040FB002002F05A
:1033D0003DFB992002F03AFB002002F037FB8720EA
:1033E00002F034FB002002F031FB882002F02EFBBB
:1033F000002002F02BFB772002F028FB002002F0D7
:1034000025FB662002F022FB002002F01FFB882033
:1034100002F01CFB002002F019FBAA2002F016FBB0
:10342000002002F013FBBB2002F010FB002002F092
:103430000DFB992002F00AFB002002F007FB66203A
:1034400002F004FB002002F001FB552002F0FEFA1E
:10345000002002F0FBFA552002F0F8FA002002F0FA
:10346000F5FA442002F0F2FA002002F0EFFA4420CC
:1034700002F0ECFA002002F0E9FA552002F0E6FA38
:10348000002002F0E3FAE92002F0ECFAAA2002F0B0
:10349000DDFA002002F0DAFA002002F0D7FA00206C
:1034A00002F0D4FA002002F0DDFAAA2002F0CEFAEF
:1034B000CF2002F0D7FA002002F0C8FA002002F074
:1034C000C5FA002002F0C2FA002002F0BFFA002084
:1034D00002F0BCFA002002F0B9FA002002F0B6FABD
:1034E000002002F0B3FA002002F0B0FA002002F04F
:1034F000ADFA002002F0AAFA002002F0A7FA00209C
:1035000002F0A4FA002002F0A1FA002002F09EFAD4
:10351000002002F09BFA002002F098FAF02002F05E
:10352000A1FA002002F092FA502002F08FFA002057
:1035300002F08CFA002002F089FA002002F086FAEC
:10354000F32002F08FFA002002F080FAF92002F056
:1035500089FA062002F07AFA102002F077FA292080
:1035600002F074FA002002F071FA3A2002F07AFABE
:10357000552002F06BFA112002F074FA642005F075
:10358000C3FB292002F06EFA352002F06BFA00200E
:1035900002F05CFA512002F065FAFF2002F056FAC0
:1035A000532002F05FFA2C2002F050FA552002F06E
:1035B00059FA822002F04AFA2C20FCE3A0427DD185
:1035C0004FF470435521184602F062FA4FF201049D
:1035D000AA21204602F05CFA651C5221284602F01E
:1035E00057FAA61C0821304602F052FAE71C0121C6
:1035F000384602F04DFA0D214FF4304002F048FAFF
:103600000D214BF2010002F043FA0D214BF20200B2
:1036100002F03EFA4FF436483421404602F038FAC0
:1036200034214BF2016002F033FA34214BF2026094
:1036300002F02EFA4FF431490D21484602F028FAE3
:103640004BF2011A0D21504602F022FA0D214BF2E5
:10365000021002F01DFA34214FF4374002F018FA3C
:1036600034214BF2017002F013FA34214BF2027054
:1036700002F00EFA00214FF4324002F009FA002164
:103680004BF2012002F004FA00214BF2022002F07A
:10369000FFF924214FF4384002F0FAF924214BF6C7
:1036A000010002F0F5F924214BF6020002F0F0F9D6
:1036B00001214FF43F4002F0EBF900E0FEE30F215F
:1036C0004FF4334002F0E4F90F214BF2013002F0E5
:1036D000DFF90F214BF2023002F0DAF934214FF416
:1036E000394002F0D5F934214BF6011002F0D0F93F
:1036F00034214BF6021002F0CBF908214FF435408B
:1037000002F0C6F908214BF2015002F0C1F908217C
:103710004BF2025002F0BCF903214FF4424002F098
:10372000B7F924214FF43A4002F0B2F924214BF6C4
:10373000012002F0ADF924214BF6022002F0A8F995
:1037400000214FF43C4002F0A3F978214BF60140F0
:1037500002F09EF900214BF6024002F099F9002197
:103760004FF43D4002F094F978214BF6015002F0FD
:103770008FF900214BF6025002F08AF900214FF434
:103780003E4002F085F964214BF6016002F080F9B9
:1037900000214FF4514002F07BF933214DF201102A
:1037A00002F076F900214DF2021002F071F9342195
:1037B0004DF2031002F06CF900214DF2041002F0FA
:1037C00067F93A214DF2051002F062F900214DF23D
:1037D000061002F05DF94A214DF2071002F058F987
:1037E00000214DF2081002F053F95C214DF209104E
:1037F00002F04EF900214DF20A1002F049F9812140
:103800004DF20B1002F044F900214DF20C1002F0C1
:103810003FF9A6214DF20D1002F03AF900214DF2C8
:103820000E1002F035F9E5214DF20F1002F030F9DB
:1038300001214DF2101002F02BF913214DF211105D
:1038400002F026F901214DF2121002F021F9542163
:103850004DF2131002F01CF901214DF2141002F088
:1038600017F982214DF2151002F012F901214DF2E3
:10387000161002F00DF9CA214DF2171002F008F9E6
:1038800002214DF2181002F003F900214DF2191037
:1038900002F0FEF802214DF21A1002F0F9F80121AF
:1038A0004DF21B1002F0F4F802214DF21C1002F050
:1038B000EFF834214DF21D1002F0EAF802214DF22A
:1038C0001E1002F0E5F867214DF21F1002F0E0F83B
:1038D00002214DF2201002F0DBF884214DF221107C
:1038E00002F0D6F802214DF2221002F0D1F8A42104
:1038F0004DF2231002F0CCF802214DF2241002F018
:10390000C7F8B7214DF2251002F0C2F802214DF29E
:10391000261002F0BDF8CF214DF2271002F0B8F8C2
:1039200002214DF2281002F0B3F8DE214DF22910E9
:1039300002F0AEF802214DF22A1002F0A9F8F221AD
:103940004DF22B1002F0A4F802214DF22C1002F0DF
:103950009FF8FE214DF22D1002F09AF803214DF24E
:103960002E1002F095F810214DF22F1002F090F871
:1039700003214DF2301002F08BF833214DF231105B
:1039800002F086F803214DF2321002F081F86D2129
:103990004DF2331002F07CF800214FF4524002F057
:1039A00077F833214DF2012002F072F800214DF238
:1039B000022002F06DF834214DF2032002F068F885
:1039C00000214DF2042002F063F83A214DF2052067
:1039D00002F05EF800214DF2062002F059F84A216B
:1039E0004DF2072002F054F800214DF2082002F0B9
:1039F0004FF85C214DF2092002F04AF800214DF207
:103A00000A2002F045F881214DF20B2002F040F827
:103A100000214DF20C2002F03BF8A6214DF20D20C2
:103A200002F036F800214DF20E2002F031F8E521C7
:103A30004DF20F2002F02CF801214DF2102002F07F
:103A400027F813214DF2112002F022F801214DF246
:103A5000122002F01DF854214DF2132002F018F844
:103A600001214DF2142002F013F882214DF21520AD
:103A700002F00EF801214DF2162002F009F8CA21D9
:103A80004DF2172002F004F802214DF2182001F047
:103A9000FFFF00214DF2192001F0FAFF02214DF243
:103AA0001A2001F0F5FF01214DF21B2001F0F0FF7B
:103AB00002214DF21C2001F0EBFF34214DF21D20BC
:103AC00001F0E6FF02214DF21E2001F0E1FF672127
:103AD0004DF21F2001F0DCFF02214DF2202001F009
:103AE000D7FF84214DF2212001F0D2FF02214DF2B7
:103AF000222001F0CDFFA4214DF2232001F0C8FFC8
:103B000002214DF2242001F0C3FFB7214DF2252000
:103B100001F0BEFF02214DF2262001F0B9FFCF21B6
:103B20004DF2272001F0B4FF02214DF2282001F0D0
:103B3000AFFFDE214DF2292001F0AAFF02214DF254
:103B40002A2001F0A5FFF2214DF22B2001F0A0FF69
:103B500002214DF22C2001F09BFFFE214DF22D2081
:103B600001F096FF03214DF22E2001F091FF10216C
:103B70004DF22F2001F08CFF03214DF2302001F097
:103B800087FF33214DF2312001F082FF03214DF2F6
:103B9000322001F07DFF6D214DF2332001F078FFDE
:103BA00000214FF4534001F073FF33214DF20130F7
:103BB00001F06EFF00214DF2023001F069FF342167
:103BC0004DF2033001F064FF00214DF2043001F0AA
:103BD0005FFF3A214DF2053001F05AFF00214DF20E
:103BE000063001F055FF4A214DF2073001F050FF39
:103BF00000214DF2083001F04BFF5C214DF20930FD
:103C000001F046FF00214DF20A3001F041FF812111
:103C10004DF20B3001F03CFF00214DF20C3001F071
:103C200037FFA6214DF20D3001F032FF00214DF299
:103C30000E3001F02DFFE5214DF20F3001F028FF8D
:103C400001214DF2103001F023FF13214DF211300C
:103C500001F01EFF01214DF2123001F019FF542135
:103C60004DF2133001F014FF01214DF2143001F038
:103C70000FFF82214DF2153001F00AFF01214DF2B4
:103C8000163001F005FFCA214DF2173001F000FF98
:103C900002214DF2183001F0FBFE00214DF21930E7
:103CA00001F0F6FE02214DF21A3001F0F1FE012181
:103CB0004DF21B3001F0ECFE02214DF21C3001F000
:103CC000E7FE34214DF21D3001F0E2FE02214DF2FB
:103CD0001E3001F0DDFE67214DF21F3001F0D8FEED
:103CE00002214DF2203001F0D3FE84214DF221302B
:103CF00001F0CEFE02214DF2223001F0C9FEA421D6
:103D00004DF2233001F0C4FE02214DF2243001F0C7
:103D1000BFFEB7214DF2253001F0BAFE02214DF26F
:103D2000263001F0B5FECF214DF2273001F0B0FE74
:103D300002214DF2283001F0ABFEDE214DF2293098
:103D400001F0A6FE02214DF22A3001F0A1FEF2217F
:103D50004DF22B3001F09CFE02214DF22C3001F08F
:103D600097FEFE214DF22D3001F092FE03214DF21F
:103D70002E3001F08DFE10214DF22F3001F088FE23
:103D800003214DF2303001F083FE33214DF231300A
:103D900001F07EFE03214DF2323001F079FE6D21FB
:103DA0004DF2333001F074FE00214FF4544001F025
:103DB0006FFE332100E080E34DF2014001F068FE28
:103DC00000214DF2024001F063FE34214DF2034028
:103DD00001F05EFE00214DF2044001F059FE3A214F
:103DE0004DF2054001F054FE00214DF2064001F075
:103DF0004FFE4A214DF2074001F04AFE00214DF2EC
:103E0000084001F045FE5C214DF2094001F040FE02
:103E100000214DF20A4001F03BFE81214DF20B40A2
:103E200001F036FE00214DF20C4001F031FEA621DA
:103E30004DF20D4001F02CFE00214DF20E4001F03C
:103E400027FEE5214DF20F4001F022FE01214DF247
:103E5000104001F01DFE13214DF2114001F018FE3B
:103E600001214DF2124001F013FE54214DF2134096
:103E700001F00EFE01214DF2144001F009FE8221F5
:103E80004DF2154001F004FE01214DF2164001F003
:103E9000FFFDCA214DF2174001F0FAFD02214DF25B
:103EA000184001F0F5FD00214DF2194001F0F0FD40
:103EB00002214DF21A4001F0EBFD00E000E3012188
:103EC0004DF21B4001F0E4FD02214DF21C4001F0D7
:103ED000DFFD34214DF21D4001F0DAFD02214DF2EB
:103EE0001E4001F0D5FD67214DF21F4001F0D0FDCD
:103EF00002214DF2204001F0CBFD84214DF2214002
:103F000001F0C6FD02214DF2224001F0C1FDA421C5
:103F10004DF2234001F0BCFD02214DF2244001F09E
:103F2000B7FDB7214DF2254001F0B2FD02214DF25F
:103F3000264001F0ADFDCF214DF2274001F0A8FD54
:103F400002214DF2284001F0A3FDDE214DF229406F
:103F500001F09EFD02214DF22A4001F099FDF2216F
:103F60004DF22B4001F094FD02214DF22C4001F066
:103F70008FFDFE214DF22D4001F08AFD03214DF20F
:103F80002E4001F085FD10214DF22F4001F080FD03
:103F900003214DF2304001F07BFD33214DF23140E1
:103FA00001F076FD03214DF2324001F071FD6D21EB
:103FB0004DF2334001F06CFD00214FF4554001F00B
:103FC00067FD33214DF2015001F062FD00214DF2F9
:103FD000025001F05DFD34214DF2035001F058FD17
:103FE00000214DF2045001F053FD3A214DF20550ED
:103FF00001F04EFD00214DF2065001F049FD4A212D
:104000004DF2075001F044FD00214DF2085001F03F
:104010003FFD5C214DF2095001F03AFD00214DF2C7
:104020000A5001F035FD81214DF20B5001F030FDB9
:1040300000214DF20C5001F02BFDA6214DF20D5048
:1040400001F026FD00214DF20E5001F021FDE52189
:104050004DF20F5001F01CFD01214DF2105001F006
:1040600017FD13214DF2115001F012FD01214DF207
:10407000125001F00DFD54214DF2135001F008FDD6
:1040800001214DF2145001F003FD82214DF2155033
:1040900001F0FEFC01214DF2165001F0F9FCCA219D
:1040A0004DF2175001F0F4FC02214DF2185001F0CE
:1040B000EFFC00214DF2195001F0EAFC02214DF213
:1040C0001A5001F0E5FC01214DF21B5001F0E0FC1B
:1040D00002214DF21C5001F0DBFC34214DF21D5049
:1040E00001F0D6FC02214DF21E5001F0D1FC6721F7
:1040F0004DF21F5001F0CCFC02214DF2205001F096
:10410000C7FC84214DF2215001F0C2FC02214DF286
:10411000225001F0BDFCA4214DF2235001F0B8FC67
:1041200002214DF2245001F0B3FCB7214DF225508D
:1041300001F0AEFC02214DF2265001F0A9FCCF2186
:104140004DF2275001F0A4FC02214DF2285001F05D
:104150009FFCDE214DF2295001F09AFC02214DF224
:104160002A5001F095FCF2214DF22B5001F090FC09
:1041700002214DF22C5001F08BFCFE214DF22D500E
:1041800001F086FC03214DF22E5001F081FC10213C
:104190004DF22F5001F07CFC03214DF2305001F024
:1041A00077FC33214DF2315001F072FC03214DF2C6
:1041B000325001F06DFC6D214DF2335001F068FC7E
:1041C00000214FF4564001F063FC33214DF20160B1
:1041D00001F05EFC00214DF2026001F059FC342137
:1041E0004DF2036001F054FC00214DF2046001F037
:1041F0004FFC3A214DF2056001F04AFC00214DF2DE
:10420000066001F045FC4A214DF2076001F040FCD8
:1042100000214DF2086001F03BFC5C214DF2096089
:1042200001F036FC00214DF20A6001F031FC8121E1
:104230004DF20B6001F02CFC00214DF20C6001F0FE
:1042400027FCA6214DF20D6001F022FC00214DF269
:104250000E6001F01DFCE5214DF20F6001F018FC2D
:1042600001214DF2106001F013FC13214DF2116099
:1042700001F00EFC01214DF2126001F009FC542105
:104280004DF2136001F004FC01214DF2146001F0C5
:10429000FFFB82214DF2156001F0FAFB01214DF286
:1042A000166001F0F5FBCA214DF2176001F0F0FB3A
:1042B00002214DF2186001F0EBFB00214DF2196074
:1042C00001F0E6FB02214DF21A6001F0E1FB012151
:1042D0004DF21B6001F0DCFB02214DF21C6001F08D
:1042E000D7FB34214DF21D6001F0D2FB02214DF2CB
:1042F0001E6001F0CDFB67214DF21F6001F0C8FB8D
:1043000002214DF2206001F0C3FB84214DF22160B7
:1043100001F0BEFB02214DF2226001F0B9FBA421A5
:104320004DF2236001F0B4FB02214DF2246001F054
:10433000AFFBB7214DF2256001F0AAFB02214DF23F
:10434000266001F0A5FBCF214DF2276001F0A0FB14
:1043500002214DF2286001F09BFBDE214DF2296025
:1043600001F096FB02214DF22A6001F091FBF2214F
:104370004DF22B6001F08CFB02214DF22C6001F01C
:1043800087FBFE214DF22D6001F082FB03214DF2EF
:104390002E6001F07DFB10214DF22F6001F078FBC3
:1043A00003214DF2306001F073FB33214DF2316097
:1043B00001F06EFB03214DF2326001F069FB6D21CB
:1043C0004DF2336001F064FB5521184601F060FBAB
:1043D000AA21204601F05CFB5221284601F058FB3F
:1043E0000821304601F054FB0021384601F050FB13
:1043F000CC21484601F04CFB0021504601F048FB1F
:104400000521404601F044FB70214FF4374001F094
:104410003FFB70214BF2017001F03AFB01214FF498
:10442000384001F035FB03214BF6010001F030FB71
:1044300003214BF6020001F02BFB03214BF6030096
:1044400001F026FB02214FF43C4001F021FB00214A
:104450004BF6014001F01CFB00214BF6024001F03D
:1044600017FBD0214FF4494001F012FB02214CF61A
:10447000011001F00DFB50214CF6021001F008FB79
:1044800050214CF6031001F003FB50214CF60410B0
:1044900001F0FEFA00214FF4545001F0F9FA5521D1
:1044A0004FF4685001F0F4FA4FF4885001F0DAFA52
:1044B000782004F045FC4FF4245001F0D3FAFDE0DD
:1044C000A0F513414FF480744FF4E06940F2022AE2
:1044D0004FF4274625397CD0A0F5134140F20775EB
:1044E000283977D0A0F513414FF488774FF41C5644
:1044F000203970D0A0F5134131396DD0A0F5A84115
:1045000008396AD0A0F5A8514FF44077053965D035
:10451000A0F5354105397CD0A0F54541053979D064
:10452000A0F58A41313976D0A0F58A41353973D06A
:104530004045C4D1E22001F095FA1D2001F086FA31
:10454000022001F083FA042001F080FA642004F0D4
:10455000F7FBE02001F086FA012001F077FA0A204B
:1045600004F0D2FBE02001F07DFA032001F06EFAA6
:104570000C2004F0C9FB012001F074FA0A2004F0B9
:10458000C3FBE62001F06EFA2F2001F05FFAFF2056
:1045900001F05CFAFF2001F059FAB02001F062FA54
:1045A000202001F053FA002001F050FA032001F01E
:1045B0004DFA40F21F3001F049FA012001F046FAAD
:1045C00040F2DF1001F042FA002001F03FFAB4207F
:1045D00005E080E04BE103E2AAE27FE3FEE301F0C5
:1045E00041FA042001F032FA40F21F4001F02EFAA5
:1045F000002001F02BFA2E2001F028FA002001F013
:1046000025FA002001F022FA002001F01FFA002014
:1046100003E0FDE3FDE3FDE3FDE301F017FAB6205F
:1046200001F020FA022001F011FA4FF4037001F0BA
:104630000DFA002001F00AFA172001F007FA152000
:1046400001F004FA002001F001FA002001F0FEF967
:10465000F02001F007FA032001F0F8F9292001F019
:1046600001FAD02001F0FEF9002001F0EFF9BE20A0
:1046700001F0F8F9052001F0E9F9FE2001F0E6F972
:10468000012001F0E3F9002001F0E0F9002001F041
:10469000DDF9002001F0DAF9B82001F0E3F9032098
:1046A00001F0D4F9012001F0D1F9BA2001F0DAF9D2
:1046B000012001F0CBF9642000F0F6FF0020FDF7A7
:1046C000B3FBFF490120C1F8BC025846FDF776FB59
:1046D00021B0BDE8F08F47F6F001E52001F0D8F9F0
:1046E0002146012001F0D4F94946022001F0D0F919
:1046F00041F23001032001F0CBF90021042001F048
:10470000C7F95146082001F0C3F90021092001F042
:10471000BFF900210A2001F0BBF900210C2001F0B3
:10472000B7F900210D2001F0B3F900210F2001F0AD
:10473000AFF90021102001F0ABF90721112001F0A1
:10474000A7F90021122001F0A3F90021132001F0A4
:104750009FF90021072001F09BF941F290611020A0
:1047600001F096F940F22721112001F091F99D21E5
:10477000122001F08DF94FF4C851132001F088F98F
:104780002521292001F084F90D212B2001F080F949
:104790000721302001F07CF940F20331312001F093
:1047A00077F90321322001F073F940F20621352018
:1047B00001F06EF90821362001F06AF940F2064155
:1047C000372001F065F94FF44171382001F060F9AC
:1047D0000721392001F05CF940F202613C2001F030
:1047E00057F908213D2001F053F90021502001F034
:1047F0004FF9EF21512001F04BF90021522001F037
:1048000047F940F23F11532001F042F93146602050
:1048100001F03EF90121612001F03AF900216A20FE
:1048200001F036F90021802001F032F900218120C9
:1048300001F02EF90021822001F02AF900218320C5
:1048400001F026F90021842001F022F900218520C1
:1048500001F01EF91021902001F01AF94FF4C06107
:10486000922001F015F940F233110720FEE341F2E6
:104870008F01EC2001F00CF941F23421EF2001F01E
:1048800007F92146012001F003F94946022001F011
:10489000FFF841F23001032001F0FAF80021042072
:1048A00001F0F6F85146082001F0F2F80021092045
:1048B00001F0EEF800210A2001F0EAF801210C20B5
:1048C00001F0E6F800210D2001F0E2F800210F20B0
:1048D00001F0DEF80021102001F0DAF807211120A4
:1048E00001F0D6F80021122001F0D2F800211320A7
:1048F00001F0CEF80121072001F0CAF8322004F0BF
:1049000003FA41F29041102001F0C2F840F2272151
:10491000112001F0BDF8322004F0F6F98A211220AE
:1049200001F0B6F8322004F0EFF94FF4D051132023
:1049300001F0AEF80621292001F0AAF80D212B2064
:1049400001F0A6F8322004F0DFF90021202001F068
:104950009FF80021212001F09BF8322004F0D4F9C7
:104960000021302001F094F840F20461312001F080
:104970008FF840F20531322001F08AF8002135200D
:1049800001F086F840F60941362001F081F84FF435
:104990000171372001F07CF840F20131382001F03C
:1049A00077F82946392001F073F800213C2001F006
:1049B0006FF840F60A213D2001F06AF8322004F039
:1049C000A3F90021502001F063F8EF21512001F0FC
:1049D0005FF80021522001F05BF840F23F114EE1F8
:1049E0000021084601F054F82146012001F050F85A
:1049F0004946022001F04CF841F23001032001F059
:104A000047F80021042001F043F85146082001F046
:104A10003FF80021092001F03BF800210A2001F0B5
:104A200037F801210C2001F033F800210D2001F0AE
:104A30002FF800210F2001F02BF8322004F064F948
:104A400040F20111072001F023F8322004F05CF954
:104A50004FF48651102001F01BF80721112001F0BE
:104A600017F83946122001F013F84FF43061132083
:104A700001F00EF80021292001F00AF844F210019B
:104A80002B2001F005F80021502001F001F8EF2162
:104A9000512000F0FDFF0021522000F0F9FF40F20C
:104AA0003F11532000F0F4FF3146602000F0F0FF8A
:104AB0000121612000F0ECFF00216A2002E00000EB
:104AC0000080404200F0E4FF0021802000F0E0FF81
:104AD0000021812000F0DCFF0021822000F0D8FFBF
:104AE0000021832000F0D4FF0021842000F0D0FFBB
:104AF0000021852000F0CCFF1021902000F0C8FF9D
:104B00000021922000F0C4FF0121932000F0C0FF9B
:104B10003946952000F0BCFF0021972000F0B8FF37
:104B20000021982000F0B4FF40F27311072081E3C8
:104B300041F21401E72000F0ABFF2146012000F014
:104B4000A7FF4FF40071022000F0A2FF41F23801EC
:104B5000032000F09DFF5146082000F099FF00213E
:104B6000092000F095FF00210A2000F091FF0021AC
:104B70000C2000F08DFF00210D2000F089FF0021A6
:104B80000F2000F085FF0021102000F081FF072199
:104B9000112000F07DFF0021122000F079FF00219C
:104BA000132000F075FFC82004F0AEF841F29061C8
:104BB000102000F06DFF40F22721112000F068FF67
:104BC000322004F0A1F80C21122000F061FF322005
:104BD00004F09AF84FF40061132000F059FF1121FE
:104BE000292000F055FF0B212B2000F051FF32202F
:104BF00004F08AF80021202000F04AFF40F23F1321
:104C00001946212000F044FF0021302000F040FF31
:104C10004FF483742146312000F03AFF0021322006
:104C200000F036FF4FF40171352000F031FF41F202
:104C30000A61362000F02CFF2946372000F028FFBB
:104C40002146382000F024FF2946392000F020FFBB
:104C500040F202413C2000F01BFF40F60F413D2096
:104C600000F016FF0021502000F012FFEF2151202C
:104C700000F00EFF0021522000F00AFF19465320D9
:104C800000F006FF3146602000F002FF01216120A4
:104C900000F0FEFE00216A2000F0FAFE00218020D4
:104CA00000F0F6FE0021812000F0F2FE00218220BB
:104CB00000F0EEFE0021832000F0EAFE00218420B7
:104CC00000F0E6FE0021852000F0E2FE1021902099
:104CD00000F0DEFE4FF4C0619220FDE3214601208A
:104CE00000F0D6FE4946022000F0D2FE41F230012B
:104CF000032000F0CDFE0021042000F0C9FE40F2A8
:104D00000721082000F0C4FE0021092000F0C0FEA9
:104D100000210A2000F0BCFE00210C2000F0B8FEAB
:104D200000210D2000F0B4FE00210F2000F0B0FEA5
:104D3000142003F0E9FF41F2B061102000F0A8FE5A
:104D40000121112000F0A4FE0121172000F0A0FE97
:104D50004FF49C71122000F09BFE4FF40061132071
:104D600000F096FE0921292000F092FE09212A2058
:104D700000F08EFE0021A42000F08AFE00215020C9
:104D800000F086FEEF21512000F082FE002152202B
:104D900000F07EFE40F23F11532000F079FE3146D4
:104DA000602000F075FE0121612000F071FE0021FD
:104DB0006A2000F06DFE0021802000F069FE0021D5
:104DC000812000F065FE0021822000F061FE0021BC
:104DD000832000F05DFE0021842000E021E000F04F
:104DE00057FE0021852000F053FE1321902000F093
:104DF0004FFE0021922000F04BFE0321932000F093
:104E000047FE3946952000F043FE40F2731103E05F
:104E100014E110E2D7E28CE3072000F039FE3220E3
:104E200008E10021072000F033FE322003F06CFF80
:104E30004FF48E71122000F02BFE0121A42000F00F
:104E400027FE0F21082000F023FE08210A2000F091
:104E50001FFE08210D2000F01BFE2B4629463020A6
:104E600000F016FE0721312000F012FE40F203612F
:104E7000322000F00DFE4D464946332000F008FE7A
:104E80005146342000F004FE0221352000F000FEDF
:104E900041F60F71362000F0FBFD1946372000F077
:104EA000F7FD0021382000F0F3FD0021392000F04B
:104EB000EFFD19463A2000F0EBFD00213B2000F009
:104EC000E7FD07213C2000F0E3FD00213D2000F03C
:104ED000DFFD322003F018FF0121072000F0D8FD8C
:104EE0000121172000F0D4FD322003F00DFF4FF414
:104EF000BD51102000F0CCFD40F21721112000F030
:104F0000C7FD4FF48F71122000F0C2FD4FF47061A5
:104F1000132000F0BDFD00212A2000F0B9FD0A2178
:104F2000292000F0B5FD4FF49F71122000F0B0FD74
:104F30000021502000F0ACFDEF21512000F0A8FD31
:104F40000021522000F0A4FD40F23F11532000F058
:104F50009FFD3146602000F09BFD0121612000F0A3
:104F600097FD00216A2000F093FD0021802000F0D1
:104F70008FFD0021812000F08BFD0021822000F0B8
:104F800087FD0021832000F083FD0021842000F0B4
:104F90007FFD0021852000F07BFD1321902000F093
:104FA00077FD3946922000F073FD0521932000F033
:104FB0006FFD0021952000F06BFD0021972000F08F
:104FC00067FD0021982000F063FD2146012000F0DC
:104FD0005FFD2946022000F05BFD41F2380103200D
:104FE00000F056FD0021042000F052FD00210C20AD
:104FF00000F04EFD00210F2000F04AFD002120208E
:1050000000F046FD0021212000F042FD2121072073
:1050100000F03EFD142003F077FE6121072000F030
:1050200037FD142003F070FE40F27311072000F0EA
:105030002FFD142003F068FEFFF740BB0021084657
:1050400000F026FD0021084600F022FD0021084660
:1050500000F01EFD0021084600F01AFD0121A420E9
:1050600000F016FD142003F04FFE00E0DEE03146B4
:10507000602000F00DFD55465146082000F008FD67
:105080004FF40571302000F003FD43F2157131201B
:1050900000F0FEFC40F20461322000F0F9FC40F622
:1050A0001661332000F0F4FC42F21121342000F0AC
:1050B000EFFC4FF4A851352000F0EAFC48F207510C
:1050C000362000F0E5FC41F20741372000F0E0FC1B
:1050D00041F20341382000F0DBFC2021392000F0B0
:1050E000D7FC1A21902000F0D3FC0021102000F002
:1050F000CFFC0721112000F0CBFC0021122000F092
:10510000C7FC0021132000F0C3FC142003F0FCFDB9
:105110004FF4E661102000F0BBFC40F23711112083
:1051200000F0B6FC142003F0EFFD4FF4DC71122008
:1051300000F0AEFC142003F0E7FD4FF47061132083
:1051400000F0A6FC80212A2000F0A2FC48212920A2
:1051500000F09EFC142003F0D7FD2146012000F052
:1051600097FC4946022000F093FC41F238010320ED
:1051700000F08EFC2946082000F08AFC00210A205D
:1051800000F086FC00210C2000F082FC00210D20A4
:1051900000F07EFC30210E2000F07AFC002150202F
:1051A00000F076FCEF21512000F072FC002152202B
:1051B00000F06EFC40F23F11532000F069FC3146D4
:1051C000602000F065FC0121612000F061FC0021FD
:1051D0006A2000F05DFC1121902000F059FC4FF492
:1051E000C061922000F054FC40F20241932000F094
:1051F0004FFC0221942000F04BFC142003F084FDAE
:105200000121072000F044FC142003F07DFD612102
:10521000072000F03DFC40F27311072000F038FC3D
:105220000021202000F034FC0021212000F030FC7F
:10523000222100207AE10021084600F029FC00210B
:10524000084600F025FC142003F05EFD002108460E
:1052500000F01EFC0021084600F01AFC0021084660
:1052600000F016FC0021084600F012FC0121A420E9
:1052700000F00EFC142003F047FD3146602000F0E2
:1052800007FC40F60601082000F002FC40F2037320
:105290001946302000F0FCFB0121312000F0F8FB22
:1052A0000421322000F0F4FB4FF48171332000F030
:1052B000EFFB3946342000F0EBFB40F203113520C0
:1052C00000F0E6FB1F21362000F0E2FB19463720F4
:1052D00000F0DEFB0121382000F0DAFB0421392048
:1052E00000F0D6FB1521902000F0D2FB4FF4826134
:1052F000102000F0CDFB40F24721112000F0C8FB48
:105300004FF4DE71122000F0C3FB4FF460611320F4
:1053100000F0BEFB782003F0F7FC2146012000F0EE
:10532000B7FB4FF40071022000F0B2FB41F23001F4
:10533000032000F0ADFB08210A2000F0A9FB0021AA
:105340000C2000F0A5FB20210E2000F0A1FB002185
:105350000F2000F09DFB0021202000F099FB002190
:10536000212000F095FB3D212A2000F091FB142024
:1053700003F0CAFC2D21292000F08AFB00215020D7
:1053800000F086FB4DF2EF01512000F081FB00217F
:10539000522000F07DFB40F23F11532000F078FBDB
:1053A0000021612000F074FB00216A2000F070FBF6
:1053B0003946922000F06CFB0521932000F068FB39
:1053C0002146FFF7B3BB0121002000F061FB0A205A
:1053D00003F09AFC41F22861102000F059FB0E21E5
:1053E000122000F055FB40F63921132000F050FB4D
:1053F0000A2003F089FC4021112000F049FB5021D4
:10540000152000F045FB0A2003F07EFC1E2112202F
:1054100000F03EFB0A2003F077FC4FF4B15110205E
:1054200000F036FB42F63921132000F031FB0A2050
:1054300003F06AFC2146012000F02AFB39460220D5
:1054400000F026FB41F23801032000F021FB514619
:10545000082000F01DFB08210A2000F019FB0021A4
:10546000302000F015FB40F20241312000F010FB2B
:105470004FF48371322000F00BFB40F203513320D4
:1054800000F006FB4FF48271342000F001FB40F283
:105490000131352000F0FCFA2946362000F0F8FAF8
:1054A00040F20531372000F0F3FA4FF40271382052
:1054B00000F0EEFA40F60B71392000F0E9FA022113
:1054C000412000F0E5FA3146602000F0E1FA0121C8
:1054D000612000F0DDFA00E0CDE04FF4047190208F
:1054E00000F0D6FA4FF48571922000F0D1FA042131
:1054F000932000F0CDFA2146A02000F0C9FA012146
:10550000072000F0C5FA2121072000F0C1FA23216D
:10551000072000F0BDFA3321072000F0B9FA40F26D
:105520003311072000F0B4FA0021A02000F0B0FAF7
:1055300082E53021152000F0ABFA10219A2000F00E
:10554000A7FA2021112000F0A3FA43F228411020ED
:1055500000F09EFA0221122000F09AFA41F238017E
:10556000132000F095FA282003F0CEFB1221084604
:1055700000F08EFA282003F0C7FB43F220411020F0
:1055800000F086FA43F23801132000F081FA462039
:1055900003F0BAFB0021302000F07AFA40F2024119
:1055A000312000F075FA40F20731322000F070FA35
:1055B0004FF44171332000F06BFA0421342000F0E5
:1055C00067FA40F20141352000F062FA29463620A0
:1055D00000F05EFA40F20531372000F059FA4FF43E
:1055E000C2631946382000F053FA1946392000F0FA
:1055F0004FFA2146012000F04BFA3946022000F014
:1056000047FA41F23001032000F042FA40F6080167
:10561000082000F03DFA08210A2000F039FA31464E
:10562000602000F035FA0121612000F031FA4FF4DA
:105630009F71902000F02CFA2146922000F028FA69
:105640002146932000F024FA4FF44051A02000F0AE
:105650001FFA1021A32000F01BFA0121072000F0FF
:1056600017FA2121072000F013FA2321072000F068
:105670000FFA3321072000F00BFA40F23311A0E6B5
:1056800008B54FF0D840B0F88000ADF80000BDF884
:10569000000008BD10B500F0E5F9052003F050FB4F
:1056A000BDE81040FFF7ECBF10B50246BE2000F089
:1056B000D9F9052000F0CAF9104605F049FF9FED21
:1056C0000C1B53EC112B05F057FF05F0AFFE80B219
:1056D00000F0BCF9012000F0B9F9FF2000F0B6F9A4
:1056E000002000F0B3F9BDE81040002000F0AEB992
:1056F0006666666666660440F0B57F4D00232946FF
:10570000AA79898846F6040741F66314012A01D074
:105710002AB11DE0B9421BD0A14202D118E0A1423A
:1057200016D1082814D2DFE800F00406080A0C0E8F
:10573000101206200CE007200AE0042008E00520F3
:1057400006E0012004E0002002E0032000E0022047
:10575000A1F5134C45F2103245F21056BCF1410C44
:1057600007D0B94205D0914203D0B14201D0A14245
:105770007BD1082812D2DFE800F0110406080A0CD9
:105780000E1080230AE0402308E0C02306E0202317
:1057900004E0602302E0A02300E0E023B14202D154
:1057A0004FF4585000E03620914205D0B14203D06A
:1057B000A14201D043F00803B94201D143F00203F2
:1057C000194600F065F9AA88A2420AD098062888EE
:1057D000698802D5884202D303E0884201D9298032
:1057E00068806889B24241D100F03CF9002000F0A5
:1057F0002DF96889401C80B200F034F9002000F0D7
:1058000025F96889801C80B200F02CF92888401E98
:10581000C0F30F2000F01AF96889C01C80B200F0B4
:1058200021F92878401EC0B200F010F9A88900F0D4
:1058300019F9002000F00AF9A889401C80B200F094
:1058400011F9002000F002F9A889801C80B200F054
:1058500009F96888401EC0F30F2000F0F7F8A88906
:10586000C01C80B200F0FEF822E028E000F0FAF858
:10587000002000F0EBF8002000F0E8F82888401E37
:10588000C0F30F2000F0E2F82878401EC0B200F00C
:10589000DDF8A88900F0E6F8002000F0D7F8002035
:1058A00000F0D4F86888401EC0F30F2000F0CEF856
:1058B000A878BDE8F040401EC0B200F0C7B8082884
:1058C00012D2DFE800F0040608110A0C0E10302393
:1058D0000AE0102308E0202306E0382304E0282310
:1058E00002E0182300E00823BDE8F040032043F461
:1058F000805100F0CDB80000CC0000202DE9F0432D
:10590000DFF844810C460246050AB8F80410404608
:10591000A1F5134340894FEA1429413B17D0A1F563
:10592000A643103B13D04646A1F5D047B37936883D
:10593000B61A761E043F0ED0A1F5C857633F1ED09D
:10594000A1F5AA47103F57D0012B72D072E000F0AA
:1059500089F8284605E0012B00D1B2B200F082F8A8
:10596000100A00F073F8D0B200F070F8B8F80C002C
:1059700000F078F8484600F069F8E0B22AE06BB32E
:1059800000F070F8284600F061F8D0B200F05EF840
:10599000B8F80000401EC0F30F2000F057F898F848
:1059A0000000401EC0B200F051F8B8F80C0000F042
:1059B00059F8484600F04AF8E0B200F047F8B8F865
:1059C0000200401EC0F30F2000F040F898F80200DB
:1059D000401EC0B2BDE8F04300F038B8B2B200F0EB
:1059E00041F8002000F032F8002000F02FF8100AF3
:1059F00000F02CF8D0B2D6E700F034F8284600F0DA
:105A000025F8B8F80A00401C80B200F02BF8D0B29C
:105A100000F01CF8B8F80C0000F024F8484600F03C
:105A200015F8B8F80C00401C80B200F01BF8A4E791
:105A3000FFE7B2B2114600F02BF8B8F80C0021468F
:105A4000BDE8F04300F024B8CC00002001B5BDF85B
:105A50000000ADF80000BDF800004FF0D841A1F8FB
:105A6000800008BD01B5BDF80000ADF80000BDF82C
:105A700000004FF0D841A1F87E0008BD03484FF068
:105A8000D8410089A1F87E0070470000CC000020BA
:105A90004FF0D84222F87E0F518070477CB501212B
:105AA000202000F059F801208DF8040000228DF824
:105AB000062003218DF80510074D4FF4C0648DF8C2
:105AC0000700009469462846FCF77EF821462846E0
:105AD000FCF7C8F87CBD000000140240FEE77047E8
