:020000040800F2
:10000000A04F002099010008691E0008B7150008DC
:10001000AD1D0008570A0008C139000800000000A3
:1000200000000000000000000000000001010008C6
:10003000191300080000000045010008D131000834
:10004000B3010008B3010008B3010008B3010008C0
:10005000B3010008B3010008B3010008B3010008B0
:10006000B3010008B3010008B3010008B3010008A0
:10007000B3010008B3010008B3010008B301000890
:10008000B3010008B3010008B3010008B301000880
:10009000C5380008B3010008B3010008B301000827
:1000A000B3010008B3010008B3010008B301000860
:1000B000B3010008B301000841320008B301000891
:1000C000B3010008B3010008B3010008B301000840
:1000D000B301000819360008B1360008B301000862
:1000E000B3010008B3010008B3010008DFF80CD029
:1000F00000F074FC00480047B9460008A04F0020FB
:10010000224B19680868B0E8F00F80F30988BFF344
:100110006F8F4FF0000080F311884EF00D0E704786
:100120000000000006480068006880F3088862B696
:1001300061B6BFF34F8FBFF36F8F00DF00BF00BF0B
:1001400008ED00E0EFF30980BFF36F8F0F4B1A68E3
:1001500020E9F00F106008B54FF0500080F31188CF
:10016000BFF34F8FBFF36F8F06F0D6F84FF000004C
:1001700080F31188BDE8084019680868B0E8F00FFE
:1001800080F30988BFF36F8F704700BF180E0020FF
:10019000EFF3058070470000064880470648004797
:1001A000FEE7FEE7FEE7FEE7FEE7FEE7FEE7FEE727
:1001B000FEE7FEE7E1310008ED00000840EA010338
:1001C0009B0703D009E008C9121F08C0042AFAD20D
:1001D00003E011F8013B00F8013B521EF9D27047D1
:1001E000D2B201E000F8012B491EFBD27047002279
:1001F000F6E710B513460A4604461946FFF7F0FF26
:10020000204610BDF0B480EA0102D40F4200B2EBE8
:10021000410F02D20246084611464A0042D0C30DA1
:10022000DDB2C1F3C752AD1A202D35DAC1F3160184
:1002300041F4000204B15242C5F1200602FA06F16F
:100240002A411044B3EBD05F23D0C4B1012DA0EB01
:10025000C35009DCF0BC4FF0004202EAC352DBB2EB
:1002600000F5000000F02FBB400000F1807000EBB3
:10027000C350A0F1807040EAD170490009E04908FC
:1002800041EAC071A0EBC35000F50000400800EB4C
:10029000C350F0BC00F00EBB6142012202EB4101F1
:1002A000001BF6E7F0BC704781F00041AAE780F040
:1002B0000040A7E780EA010210B502F000434000C9
:1002C00022D04A001FD0010E01EB1261C0F356008C
:1002D000C2F3560240F4000042F40002A0FB0220E8
:1002E00000047F39140400D0401C50EA124001D4AD
:1002F0004000491EC2B20C0604EBD010401C40085E
:10030000802A02D003E0002010BD20F00100002967
:1003100000DA0020184310BD30B480EA010202F078
:10032000004530F0004221F0004013D090B1C30DE1
:10033000D40DC2F31601C0F31600E41A41F4000113
:1003400040F400027D34914201D3641C00E0490076
:10035000002C02DA30BC002070474FF4000000236C
:10036000914201D3891A034340084FEA4101F7D172
:1003700051B1914202D14FF0004105E002D24FF05D
:10038000010101E06FF0010103EBC450284430BCCF
:1003900000F090BA2DE9FE4F804681EA0300C00FBD
:1003A0000C46009021F0004123F00045B8EB02001C
:1003B000A94105D24046214690461C460B460246BE
:1003C00023F00040104347D0270DC7F30A00C3F3C2
:1003D0000A510290401A019040286BDAC3F31300CF
:1003E00040F4801B0098924620B10023D2EB030A10
:1003F00063EB0B0B01985946C0F14002504600F0E8
:1004000028FA06460D4650465946019A00F040FA31
:1004100010EB08006141002487EA115284EAE77377
:100420001A4340D0009A62B3019A012A4FEA075258
:1004300015DC001B61EB02014FF0004202EA07529B
:10044000CDE90042001C41F5801132462B4600F0F8
:1004500077FA03B0BDE8F08F40462146F9E7001B6C
:1004600061EB0201001C41F5801300185B4120186C
:10047000A2F5001747EB030140EAD570B6196D41AC
:1004800011E06D084FEA360645EAC0754FEA07529B
:10049000001B61EB0201001C41F5801149084FEA85
:1004A00030000019514132462B4603B0BDE8F04FF1
:1004B00000F037BA0098012240000023D0EB02027E
:1004C00063EBE073009821464FEAE074B8EB00005C
:1004D00061EB0401E9E783F000435BE781F0004151
:1004E00058E72DE9FE4F81EA030404F0004421F0AF
:1004F000004100944FF0000B23F0004350EA010448
:100500005ED052EA03045BD0C3F30A54C1F30A5528
:100510002C44A4F2F3340194A0FB0254C1F3130160
:1005200041F48011C3F3130343F4801301FB02442D
:1005300000FB034E840A970A44EA815447EA835732
:10054000A4FB076802958D0A05FB07854FEA932CEB
:1005500004FB0C542705029D4FEA065847EA16375C
:10056000B5EB08056EEB070C870E920E47EA811774
:1005700042EA8312A7FB0201B6EB0B0164EB000415
:100580002B0D43EA0C335E1844EB1C50DA465146FF
:10059000E7FB0201C5F313044FEA0B3343EA14539C
:1005A0004FEA0432019C43EA0603A4F10C040294CE
:1005B000009CCDE900B400F0C3F903B0BDE8F08FB2
:1005C00000200146F9E72DE9F04D81EA030404F02B
:1005D000004B21F0004514464FF0000A23F0004183
:1005E00050EA050220D054EA01021DD0C5F30A5793
:1005F0000246C5F31303C1F31300C1F30A5640F4D6
:10060000801543F48013A7EB0608101BD64608F2AA
:10061000FD3873EB050002D308F1010801E09218E0
:100620005B41B8F1000F03DA00200146BDE8F08D10
:1006300000204FF48011064684460EE0171B73EB32
:10064000050705D3121B63EB050306434CEA010CB7
:1006500049084FEA300092185B4150EA0107EDD19A
:1006600052EA030012D082EA040083EA050108433B
:1006700005D0101BAB4106D20122002306E0002268
:100680004FF0004302E06FF0010253101AEB060036
:100690004CEB085110EB0A0041EB0B01BDE8F04DAB
:1006A00000F03FB9C10F80EAE0700844CA07962302
:1006B000002100F008B996230022114600F003B98A
:1006C0000EB5C10F80EAE0700844CA07002140F26D
:1006D00033438DE80E000A460B4600F031F903B0B3
:1006E00000BD0EB540F2334102910021CDE9001169
:1006F0000A460B4600F024F903B000BD00F00042AA
:1007000020F00040C10DC0F3160040F400007F2926
:1007100001DA00207047962903DCC1F19601C84038
:1007200001E096398840002AF4D04042704720F01A
:100730000040C10DC0F3160040F400007F2901DA2B
:1007400000207047962903DCC1F19601C84070472C
:1007500096398840704770B5C1F30A5201F00045E0
:100760000024C1F3130140F2FF3341F480119A4297
:1007700001DA002070BD40F233439A42A2F23342C4
:1007800003DC524200F074F800E090402C43F1D0BA
:10079000404270BDC1F30A5210B5C1F3130140F2DB
:1007A000FF3341F480119A4201DA002010BD40F27B
:1007B00033439A42A2F2334203DC524200F058F82B
:1007C00010BD904010BD0000002801DBC0F10040CA
:1007D000002901DBC1F1004181427047002801DBA3
:1007E000C0F10040002901DBC1F10041884270479F
:1007F0002DE9F05F0546002092469B468846064656
:10080000814640241BE0284641464746224600F0E8
:100810002FF853465A46C01A914110D31146184634
:10082000224600F016F82D1A67EB01084F462246C3
:100830000120002100F00DF817EB00094E41201EA9
:10084000A4F10104DFDC484631462A464346BDE8B0
:10085000F09F202A04DB203A00FA02F100207047C2
:100860009140C2F1200320FA03F3194390407047EE
:10087000202A04DB203A21FA02F00021704721FAF5
:1008800002F3D040C2F1200291400843194670475C
:10089000202A06DBCB17203A41FA02F043EAE07344
:1008A00006E041FA02F3D040C2F120029140084331
:1008B000194670470029A8BF7047401C490008BF6F
:1008C00020F00100704710B4B0FA80FC00FA0CF080
:1008D00050EA010404BF10BC704749B1CCF12004B8
:1008E00021FA04F411FA0CF118BF01212143084345
:1008F000A3EB0C01CB1D4FEA00614FEA102042BF71
:10090000002010BC704700EBC35010440029A4BF66
:1009100010BC7047401C490008BF20F0010010BC0B
:10092000704710B5141E73F1000408DA401C41F141
:10093000000192185B411A4301D120F0010010BD63
:100940002DE9F04D92469B4611B1B1FA81F202E0D9
:10095000B0FA80F220329046FFF77BFF04460F4644
:1009600040EA0A0041EA0B0153465A46084313D0B5
:10097000114653EA010019D0C8F140025046FFF772
:1009800077FF05460E46504659464246FFF761FF3F
:10099000084305D0012004E020463946BDE8F08D2B
:1009A0000020054346EAE0762C4337430A98630566
:1009B000E40AA0EB08000022FD0A44EA47540A308A
:1009C00002D500200146E9E7010510196941DDE97A
:1009D000084500196941BDE8F04DA2E7064C074DF6
:1009E00006E0E06840F0010394E8070098471034FF
:1009F000AC42F6D3FFF77EFBB0700008D070000861
:100A000070B58C1810F8015B15F0070301D110F8D0
:100A1000013B2A1106D110F8012B03E010F8016BFD
:100A200001F8016B5B1EF9D12B0705D40023521E80
:100A30000DD401F8013BFAE710F8013BCB1A921CE8
:100A400003E013F8015B01F8015B521EF9D5A142E6
:100A5000D8D3002070BD00BFFEE70000F0B585B020
:100A600004460D4616461F464FF4007000900020C5
:100A70008DF808008DF8090008208DF80A00200A7A
:100A80008DF80B00E1B28DF80C10290A8DF80D10CD
:100A9000E9B28DF80E10310A8DF80F10F1B28DF811
:100AA0001010390A8DF81110F9B28DF8121069463C
:100AB000024800F0C1FA05B0F0BD0000006400403B
:100AC00000220C4B994202D10023836111E0C1F353
:100AD000130201F000730BB1C2600AE001F0806301
:100AE0000BB1026105E001F000630BB1826000E030
:100AF000426070477000F03010B50021837A012207
:100B000002FA03F13D4A126842F001023B4B1A60BF
:100B10003A4A1C3212688A43384B1C331A60027BF3
:100B2000CAB9364A0C3212688A43344B0C331A6005
:100B30004288C38842EA0343304A4032847A42F80A
:100B400034300288838842EA03432C4A4032847A54
:100B500002EBC4025360027B012A19D1274A0C32EE
:100B600012680A43254B0C331A604288038842EA14
:100B70000343224A4032847A42F83430C288838860
:100B800042EA03431D4A4032847A02EBC4025360B6
:100B9000C27A3AB9194A121D12688A43174B1B1DB3
:100BA0001A6006E0154A121D12680A43134B1B1DFA
:100BB0001A60028932B9114A143212688A430F4B03
:100BC00014331A600289012A06D10C4A14321268C1
:100BD0000A430A4B14331A60427B012A06D1074AA2
:100BE0001C3212680A43054B1C331A60034A126810
:100BF00022F00102014B1A6010BD000000660040A7
:100C000070B504460D46002660692840002871D062
:100C1000B5F5807F5CD010DC082D35D006DC012DC9
:100C200020D0022D24D0042D72D127E0102D31D0F8
:100C3000202D35D0402D6BD138E0B5F5004F60D078
:100C400009DCB5F5007F49D0B5F5806F4CD0B5F51E
:100C5000006F5DD14FE0B5F5803F2DD0B5F5003F79
:100C600056D12FE0A0682D4900F079FA064651E0F0
:100C7000E068032100F073FA06464BE0E0680821C3
:100C800000F06DFA064645E0E068102100F067FAD2
:100C900006463FE02069032100F061FA064639E08C
:100CA0002069082100F05BFA064633E02069102134
:100CB00000F055FA06462DE06068082100F04FFA72
:100CC000064627E06068102100F049FA064621E058
:100CD000A069012100F043FA06461BE0A069022149
:100CE00000F03DFA064615E0A069042100F037FA4D
:100CF00006460FE00FE0A069702100F030FA0646CA
:100D000008E06068042100F02AFA064602E0FFE7E6
:100D1000002600BF00E00026304670BD0101010042
:100D20001AB143690B43436102E043698B4343615A
:100D3000704730B5024600200023146824F00204F6
:100D40001460146844F00104146000E05B1C5468F3
:100D500004F001041CB94FF6FF74A342F6D15468A5
:100D600004F001040CB900206CE08C79012C04D152
:100D7000146844F08004146003E0146824F08004D4
:100D80001460CC79012C04D1146844F04004146040
:100D900003E0146824F0400414600C7A012C04D1A0
:100DA000146844F02004146003E0146824F0200464
:100DB00014604C7A012C04D1146844F010041460BF
:100DC00003E0146824F0100414608C7A012C04D120
:100DD000146844F00804146003E0146824F0080464
:100DE0001460CC7A012C04D1146844F0040414601B
:100DF00003E0146824F0040414608C78A407CD7810
:100E000044EA05640D7944EA05444D7944EA055401
:100E10000D886D1E2C43D461146824F00104146005
:100E2000002300E05B1C546804F001041CB14FF681
:100E3000FF74A342F6D1546804F001040CB1002001
:100E400000E0012030BD00002DE9F0418AB00446E9
:100E50000D4616461F46DDF840800121042001F0B2
:100E6000A9FD0121480601F095FD4FF48050ADF831
:100E7000240003208DF8260018208DF8270009A9EA
:100E80002F4800F0B7FA4FF40060ADF824000320BB
:100E90008DF8260048208DF8270009A9284800F081
:100EA000A9FA00208DF81E008DF81F008DF8200093
:100EB00001208DF8210000208DF822008DF82300FC
:100EC0008DF81A808DF81B408DF81C608DF81D5030
:100ED000ADF8187006A91B48FFF72BFF00208DF80E
:100EE00012008DF8130001208DF814000020ADF8D9
:100EF0000800ADF80A00ADF80C00ADF80E00ADF832
:100F0000100001208DF8150002A8FFF7F5FD012261
:100F100002210C48FFF704FF14208DF80400022082
:100F20008DF8050000208DF8060001208DF80700DF
:100F300001A800F09BFF00200AB0BDE8F08100008E
:100F4000000801400064004010B500F5D87303EBC1
:100F500001131B6803F004031372137A53B900F5ED
:100F6000D87303EB01131B6840F2FF7404EA535378
:100F7000136009E000F5D87303EB01131B686FF0F1
:100F8000604404EAD303536000F5D87303EB011304
:100F90001B6803F00203537200F5D87303EB0113CF
:100FA0005B6803F00F03937200F5D87303EB011332
:100FB0005B681B0AD37400F5D87303EB01139B68BD
:100FC000D37200F5D87303EB01139B681C0A1473EA
:100FD00000F5D87303EB01139B681C0C547300F5E8
:100FE000D87303EB01139B681B0E937300F5D87342
:100FF00003EB0113DB68D37300F5D87303EB011324
:10100000DB681C0A147400F5D87303EB0113DB686A
:101010001C0C547400F5D87303EB0113DB681B0E32
:10102000937421B9C36843F02003C36003E00369EC
:1010300043F02003036110BD10B502460020936801
:1010400003F08063B3F1806F00D110E0936803F088
:101050000063B3F1006F01D1012008E0936803F051
:101060008053B3F1805F01D1022000E00420042806
:1010700074D002F5C07303EB00131B6803F0010486
:1010800002F5C07303EB00131C600B7A7BB94B7A3B
:101090000C8843EA445302F5C07404EB001424683E
:1010A000234302F5C07404EB0014236010E00B7AB4
:1010B0004C6843EAC4034C7A234302F5C07404EB42
:1010C00000142468234302F5C07404EB0014236069
:1010D0008B7A03F00F038B7202F5C07303EB0013DE
:1010E0005B6823F00F0402F5C07303EB00135C6030
:1010F00002F5C07303EB00135B688C7A234302F59F
:10110000C07404EB001463608B7B1C064B7B44EAC9
:1011100003440B7B44EA0323CC7A234302F5C074D7
:1011200004EB0014A3608B7C1C064B7C44EA034454
:101130000B7C44EA0323CC7B234302F5C07404EB0D
:101140000014E36002F5C07303EB00131B6843F067
:10115000010402F5C07303EB00131C6010BD0246CE
:10116000002002EA01030BB1012000E000207047DB
:1011700021B1026842F00102026004E002684FF609
:10118000FE731A400260704701684FF6FE7211400C
:1011900001600021016041608160C1604B4988426B
:1011A00008D14A490839496841F00F01474A083ACD
:1011B00051608AE045491431884208D143490839D1
:1011C000496841F0F001414A083A51607DE03F49E9
:1011D0002831884208D13D490839496841F4706195
:1011E0003A4A083A516070E038493C31884208D1A7
:1011F00036490839496841F47041344A083A516027
:1012000063E032495031884208D130490839496891
:1012100041F470212D4A083A516056E02B4964315F
:10122000884208D129490839496841F47001274AA0
:10123000083A516049E025497831884208D123496C
:101240000839496841F07061204A083A51603CE031
:101250001F49884206D1011F096841F00F01021F92
:10126000116032E01A491431884208D11849091F27
:10127000096841F0F001164A121F116025E0144977
:101280002831884208D11249091F096841F4706168
:101290000F4A121F116018E00D493C31884208D1F5
:1012A0000B49091F096841F47041094A121F116076
:1012B0000BE007495031884207D10549091F0968E9
:1012C00041F47021024A121F116070470800024069
:1012D000080402400146486880B2704710B50022F9
:1012E000026847F6F0739A430C6A8B6823430C69D3
:1012F00023434C6923438C692343CC6923434C6AC1
:1013000023438C6A23431A430260CB6843600B6813
:1013100083604B68C36010BD704700002DE9F04743
:1013200004460D4600262888B5F90810401AE060EA
:101330002E49E068884207DAA069401CA061E06895
:1013400000F5005060610EE041F66411E0688842EB
:1013500007DDA069401EA061E068A0F50050606153
:1013600001E0E06860612168A06901EB4030A060A5
:101370004FF4B472A16901FB02F0FFF793F98146C3
:1013800022692168881AFFF78DF982461849FEF70D
:1013900091FF80464FF08C41FEF7BEFF074649465D
:1013A000FEF730FFE06394F83420501C616984F844
:1013B000340004F11C0040F8221094F83400062890
:1013C00002D1002084F83400002006E004F11C0162
:1013D00051F820100E44411CC8B20628F6DB062046
:1013E00096FBF0F0A063BDE8F08700009CE6FFFFED
:1013F0000000B4432DE9F0410246002500260020FC
:1014000000230024002791F803C00CF00F0591F889
:1014100003C00CF0100CBCF1000F03D091F802C017
:101420004CEA050591F800C0BCF1000F31D01468FA
:1014300000202BE04FF0010C0CFA00F3B1F800C0D3
:101440000CEA03069E4220D183004FF00F0C0CFAE9
:1014500003F7BC4305FA03FC4CEA040491F803C00B
:10146000BCF1280F06D14FF0010C0CFA00FCC2F8B9
:1014700014C00AE091F803C0BCF1480F05D14FF049
:10148000010C0CFA00FCC2F810C0401C0828D1D393
:101490001460B1F800C0BCF1FF0F34DD54680020C7
:1014A0002EE000F1080C4FF0010808FA0CF3B1F837
:1014B00000C00CEA03069E4221D183004FF00F0CBE
:1014C0000CFA03F7BC4305FA03FC4CEA040491F858
:1014D00003C0BCF1280F05D100F1080C08FA0CF884
:1014E000C2F8148091F803C0BCF1480F07D100F195
:1014F000080C4FF0010808FA0CF8C2F81080401CE4
:101500000828CED35460BDE8F0810000F0B50A464B
:10151000002300240021002500F00046B6F1004F12
:1015200002D11D4EF16901E01B4E7168C0F3034505
:1015300083B200F44016B6F5401F08D121F0706167
:10154000154E766826F07066134F7E6012E000F448
:101550008016B6F5801F06D1032606FA05F4A143CE
:1015600041F0706106E0460D360103FA06F6B1431C
:1015700041F0706122B1460D360103FA06F631439F
:1015800000F00046B6F1004F02D1034EF16101E0D8
:10159000014E7160F0BD00000000014002460020D5
:1015A00093680B400BB1012000E0002070474161BF
:1015B00070470161704700BFFEE7000010B54FF4AF
:1015C00000410848FFF7F5FF20210748FFF7F1FF2A
:1015D00020210548FFF7EBFF4FF400410148FFF7DA
:1015E000E6FF10BD00080140000C014010B54FF4AB
:1015F00000410648FFF7DDFF20210548FFF7D7FF30
:1016000020210348FFF7D5FF10BD0000000801406E
:10161000000C014010B54FF400410448FFF7C9FF2A
:101620004FF400410148FFF7C2FF10BD0008014020
:1016300008B50121442001F0BDF9F220ADF8000009
:1016400048208DF8030069460648FFF7D3FE0120C5
:10165000ADF8000048208DF8030069460248FFF706
:10166000C9FE08BD00080140000C014010B5044649
:1016700014B101202B4908702A48007800284ED068
:1016800010212948FFF78AFFC0B120212648FFF723
:1016900085FF98B140212448FFF780FF70B1802179
:1016A0002148FFF77BFF48B102211F48FFF776FF73
:1016B00020B101211C48FFF771FF78BB322002F0F6
:1016C0008BFC00201749087080211748FFF766FF40
:1016D00008B9012010BD10211348FFF75FFF08B9BA
:1016E0000220F7E740211048FFF758FF08B9032010
:1016F000F0E701210C48FFF751FF08B90420E9E7A2
:1017000020210948FFF74AFF08B90520E2E7022136
:101710000548FFF743FF08B90620DBE7FFE7002095
:10172000D8E70000E50D00200008014010B50120B9
:10173000FFF79CFF3A4908700846007800286DD0F2
:1017400008460078012806D002281ED0052836D089
:10175000062862D14AE03348007808B900F0C8FB97
:101760003148007800EB4000304901EB80004078C0
:101770002D49087004E00120FFF778FF2849087020
:10178000274800780028F6D147E02648007808B9B5
:1017900000F0AEFB2448007800EB4000234901EB49
:1017A0008000C0782049087004E00120FFF75EFF48
:1017B0001B4908701A4800780028F6D12DE000F087
:1017C00097FB1948007800EB4000184901EB8000B6
:1017D00080781549087004E00120FFF747FF1049A1
:1017E00008700F4800780028F6D116E000F080FB62
:1017F0000D48007800EB40000C4901EB80000079B7
:101800000949087004E00120FFF730FF044908701F
:10181000034800780028F6D100BF00BF10BD0000CB
:101820009D11002094110020900E0020981000209F
:1018300010B50120FFF71AFF5E49087008460078CE
:10184000002874D008460078072828D2DFE800F086
:10185000B0042853667A8F0057480078401C40B285
:101860005549087055480078401C40B253490870EB
:1018700053480078401C40B251490870084690F91E
:101880000000092801DD0120087004E00120FFF7B5
:10189000EDFE48490870474800780028F6D187E0F7
:1018A00046480078401E40B24449087042480078DB
:1018B000401E40B240490870084690F900000028D8
:1018C00001DA002008703E480078401E40B23C49D2
:1018D0000870084690F90000012801DA012008701C
:1018E00004E00120FFF7C2FE324908703148007859
:1018F0000028F6D15CE033480078401E314908707A
:1019000001202D49087004E00120FFF7AFFE2949AE
:101910000870284800780028F6D149E02948007866
:10192000401C2849087001202349087005E040E068
:101930000120FFF79BFE1F4908701E480078002811
:10194000F6D135E02048007800EB40001F4901EB5C
:10195000800080781C49087004E00120FFF786FEB3
:1019600014490870134800780028F6D120E00020C0
:10197000174908701249087001200F4908700020AB
:101980000E49087000F0B4FA0F48007800EB4000F0
:101990000E4901EB800000790B49087004E001203A
:1019A000FFF764FE03490870024800780028F6D16A
:1019B00000BF10BD9D1100209E1100209F1100202E
:1019C000A60E002096110020900E002098100020F6
:1019D0009511002010B50120FFF748FEB2490870AC
:1019E00008460078002875D008460078072870D28D
:1019F000DFE800F06F0471D0FCF0EF00AB48007836
:101A000001282BD1AA48AB4991F90010405C401C39
:101A100041B2A748A74A92F900208154A54991F9FB
:101A200000104056092819DD0021A148A14A92F969
:101A3000002081549F4890F900009F49097888420E
:101A40000CDD9C4890F90000401E9949085C401C40
:101A500042B2984890F90000401E0A54934800781A
:101A600003282CD19548934991F90010405C401C03
:101A700041B292488F4A92F9002081548D4991F9E0
:101A80000010405609281ADD00208C49894A92F935
:101A900000208854874890F90000874909788842D7
:101AA0000DDD844890F90000401E8449085C401C0C
:101AB00041B2804890F90000401E804A115404E071
:101AC0000120FFF7D3FD7849087077480078002897
:101AD000F6D1E6E0E6E075480078012824D17448A4
:101AE000744991F90010405C401E41B27048714A3F
:101AF00092F9002081546F4991F900104056002856
:101B000012DA09216A486B4A92F900208154694827
:101B100090F90000401E6649085C401E42B26548CC
:101B200090F90000401E0A5460480078032826D12E
:101B30006248604991F90010405C401E40B25F4924
:101B40005C4A92F90020885408465A4991F90010DD
:101B50004056002813DA09215848564A92F90020C5
:101B60008154544890F90000401E5449085C401EBE
:101B700041B2504890F90000401E504A115404E010
:101B80000120FFF773FD4849087047480078002896
:101B9000F6D186E047480078401E40B245490870BB
:101BA00042480078012807D1084690F90000002833
:101BB0000EDA032008700BE03C480078032807D1B8
:101BC0003C4890F90000002802DA022039490870E8
:101BD00007E04BE033E009E00120FFF747FD324921
:101BE0000870314800780028F6D15AE03148007872
:101BF000401C40B22F4908702C480078012807D1BA
:101C0000084690F9000003280EDD002008700BE064
:101C100026480078032807D1264890F900000228BA
:101C200002DD00202349087004E00120FFF71EFDBB
:101C30001D4908701C4800780028F6D131E000F0FA
:101C400057F91F48007800EB40001E4901EB800067
:101C500080781B49087004E00120FFF707FD124956
:101C60000870114800780028F6D11AE000201649C3
:101C700008701049087000F03BF91148007800EB3B
:101C80004000104901EB800000790D49087004E024
:101C90000120FFF7EBFC0449087003480078002896
:101CA000F6D100BF10BD00009D110020941100204E
:101CB0006A4B0020A70E0020AF0E0020A80E0020C7
:101CC000900E0020981000209511002010B50120E2
:101CD000FFF7CCFC3049087008460078002859D03E
:101CE00008460078012806D0022814D0052822D002
:101CF00006284ED134E029480068401C2749086076
:101D000004E00120FFF7B2FC234908702248007864
:101D10000028F6D13DE021480068401E1F490860B8
:101D200004E00120FFF7A2FC1B4908701A48007864
:101D30000028F6D12DE01A48007800EB4000194940
:101D400001EB800080781649087004E00120FFF75D
:101D50008DFC11490870104800780028F6D118E071
:101D600000201149087000F0C3F80D48007800EB1E
:101D700040000C4901EB800000790949087004E03B
:101D80000120FFF773FC044908700348007800281D
:101D9000F6D100BF10BD00009D1100209811002059
:101DA000900E0020981000209511002000BFFEE743
:101DB00008B54FF4407000F091F8084803F052FD68
:101DC00002F0DCF8FFF734FC002002230822072190
:101DD0000090FFF739F800F0ABF808BDA0860100CD
:101DE000642004F09FF80B4802F0DEFB10E0094885
:101DF00002F0FEFB074CB4F95C31B4F90821B4F9E8
:101E0000B410B4F96000FEF729FE012004F08AF84E
:101E1000EDE70000644700204FF47A7190FBF1F188
:101E2000104A91744FF47A7190FBF1F201FB1201A8
:101E3000642291FBF2F1CAB20A49CA74642190FB90
:101E4000F1F201FB12010A2291FBF2F1CAB205493B
:101E50000A750A2190FBF1F201FB1201CAB2014995
:101E60004A757047544B00207047000070B5002140
:101E700000230F22C47804B3154C246804F4E064F2
:101E8000C4F5E064210AC1F10403CA40447804FAAD
:101E900003F184781440214309010E4C0678A155C2
:101EA000047804F01F050124AC4005786D11AD00E5
:101EB00005F1E025C5F8004109E0047804F01F05AC
:101EC0000124AC40044D0678761145F8264070BDDB
:101ED0000CED00E000E400E080E100E00249014395
:101EE000024A1160704700000000FA050CED00E0A6
:101EF00070B5002418E004F1B000002100F062FC8D
:101F00000021084600F05EFC0021102000F05AFC81
:101F1000002505E00121002000F054FC681CC5B23A
:101F2000802DF7DB601CC4B2082CE4DB70BD000020
:101F300008B50121092000F03DFD01214948FFF7C6
:101F4000E5FA4FF40040ADF8000010208DF80300D2
:101F500003208DF8020069464348FFF74BFA4FF41F
:101F600000414148FFF725FB0121082000F022FD38
:101F70002020ADF8000010208DF8030003208DF81C
:101F8000020069463948FFF735FA20213748FFF744
:101F900010FBC82002F020F80021AE2000F012FC57
:101FA0000021D52000F00EFC0021802000F00AFC6A
:101FB0000021A82000F006FC00213F2000F002FCD8
:101FC0000021D32000F0FEFB0021084600F0FAFBC0
:101FD0000021402000F0F6FB00218D2000F0F2FBF4
:101FE0000021142000F0EEFB0021202000F0EAFB8D
:101FF0000021022000F0E6FB0021A12000F0E2FB1E
:102000000021C82000F0DEFB0021DA2000F0DAFB1E
:102010000021122000F0D6FB0021812000F0D2FB2D
:102020000021EF2000F0CEFB0021D92000F0CAFBF8
:102030000021F12000F0C6FB0021DB2000F0C2FBF4
:102040000021302000F0BEFB0021A42000F0BAFBEC
:102050000021A62000F0B6FB0021AF2000F0B2FB6B
:1020600008BD00000002300000080140000C0140E3
:1020700010B50824642003F055FF204610233BA22E
:10208000002100F0E5FA2046102339A2022100F0D9
:10209000DFFA2046102337A2042100F0D9FA2046A7
:1020A000102335A2062100F0D3FA6000182333A2D2
:1020B000012100F0CDFA6000182330A2032100F0C6
:1020C000C7FA600018232DA2052100F0C1FA6000B4
:1020D00018232AA2072100F0BBFA04EB44000A22CD
:1020E000002100F0F3F904EB84000B22002100F042
:1020F000EDF904EB44000E22022100F0E7F904EBB5
:1021000084000F22022100F0E1F9C4EBC400102288
:10211000022100F0DBF904EB44001722042100F057
:10212000D5F904EB84001822042100F0CFF9C4EBA8
:10213000C4001922042100F0C9F904EB440027224D
:10214000062100F0C3F904EB84002822062100F0E8
:10215000BDF9C4EBC4002922062100F0B7F904EB55
:10216000C4002A22062100F0B1F910BD31000000A0
:102170003200000033000000340000002E00000098
:1021800038B50824642003F0CDFE204610233BA27E
:10219000002100F05DFA2046102339A2032100F04F
:1021A00057FA2046102337A2062100F051FA6000AA
:1021B000182335A2012100F04BFA6000182332A247
:1021C000042100F045FA600018232FA2072100F037
:1021D0003FFA04EB440010232CA2002100F038FA4F
:1021E00004EB440010232AA2032100F031FA04EB8F
:1021F0004400102327A2062100F02AFA04EB440130
:102200004800102324A2002100F022FA04EB44012C
:102210004800102320A2032100F01AFA04EB440125
:10222000480010231CA2062100F012FA1020009092
:10223000C4EBC4000123194991F90020002100F0EA
:10224000C9F9002517E01020154900904A57E91DEB
:102250006143C8B20123032100F0BCF910201049EA
:10226000091F00904A5DE91D6143C8B201230621A0
:1022700000F0B0F96D1C042DE5DB38BD3100000025
:1022800032000000330000002E000000494400002E
:1022900053455400465042003A000000A60E00206C
:1022A0006A4B002010B50824642003F03BFE204652
:1022B000102328A2002100F0CBF92046102326A2EB
:1022C000022100F0C5F92046102324A2042100F0C9
:1022D000BFF92046102322A2062100F0B9F96000C0
:1022E000182320A2012100F0B3F9600018231DA2D9
:1022F000032100F0ADF9600018231AA2052100F0B7
:10230000A7F96000182317A2072100F0A1F904EB38
:102310004400102314A2002100F09AF904EB4400B9
:10232000102313A2022100F093F904EB44001023C0
:1023300011A2042100F08CF904EB44000C220621C8
:1023400000F0C4F804EB84000D22062100F0BEF872
:1023500010BD00003100000032000000330000001A
:10236000340000002E0000004D33353038000000EE
:10237000474D3630323000004D32303036000000EC
:1023800038B50824642003F0CDFD204610233BA27D
:10239000002100F05DF92046102339A2032100F04E
:1023A00057F92046102337A2062100F051F96000AA
:1023B000182335A2012100F04BF96000182332A246
:1023C000042100F045F9600018232FA2072100F036
:1023D0003FF904EB440010232CA2002100F038F94F
:1023E00004EB440010232AA2032100F031F904EB8E
:1023F0004400102327A2062100F02AF904EB44012F
:102400004800102324A2002100F022F904EB44012B
:102410004800102320A2032100F01AF904EB440124
:10242000480010231CA2062100F012F91020009091
:10243000C4EBC4000123194991F90020002100F0E8
:10244000C9F8002517E01020154900904A57E91DEA
:102450006143C8B20123032100F0BCF810201049E9
:10246000091F00904A5DE91D6143C8B2012306219E
:1024700000F0B0F86D1C042DE5DB38BD3100000024
:1024800032000000330000002E000000494400002C
:1024900053455400465042003A000000A60E00206A
:1024A0006A4B002070B504460D4605F1B0000021CE
:1024B00000F088F9102141EA1410002100F082F99F
:1024C00004F00F00002100F07DF970BD2DE9F0410E
:1024D00005460F46164600240DE02919C8B23946B4
:1024E000FFF7E0FF104A02EB4611085D012100F002
:1024F00069F9601CC4B2102CEFDB002410E07A1CD8
:10250000D1B22A19D0B2FFF7CDFF7100491C064A9B
:1025100002EB0111085D012100F054F9601CC4B206
:10252000102CECDBBDE8F081840800202DE9F04799
:1025300005460F469046994600260024A8F1200043
:10254000C6B27F2D02DD0025B81CC7B2B9F1100F4D
:1025500026D100240DE02919C8B23946FFF7A2FFA1
:1025600004EB0611194A505C012100F02BF9601CA4
:10257000C4B2082CEFDB00240FE07A1CD1B22A1978
:10258000D0B2FFF78FFF04EB061108310F4A505C01
:10259000012100F017F9601CC4B2082CEDDB13E038
:1025A00000240FE02919C8B23946FFF77BFF06EB7C
:1025B0004601074A02EB4101085D012100F002F9E2
:1025C000601CC4B2062CEDDBBDE8F087940200204D
:1025D0006C0000202DE9F05F0646894690461D46B6
:1025E000DDF828A04FF0000B00242DE0281B401E32
:1025F000C1B20A2002F0E4FAB8FBF0F00A21B0FB05
:10260000F1F201FB1207BBF1000F0FD1681EA042CF
:102610000CDD4FB9082101FB0461C8B253462022EA
:102620004946FFF783FF0DE04FF0010B07F1300142
:10263000CAB2082101FB0461C8B253464946FFF7FC
:1026400075FF00BF601CC4B2AC42CFDBBDE8F09F99
:102650002DE9F04105460E4614461F460EE022784D
:102660003B4631462846FFF761FF05F10800C5B239
:10267000782D02DD0025B01CC6B2641C207800282D
:10268000EDD1BDE8F081000010B5082400202649F6
:102690000870642003F046FC04EB44000022012192
:1026A000FFF714FF04EB840001221146FFF70EFF31
:1026B000C4EBC40002220121FFF708FF04EBC400B1
:1026C00003220121FFF702FF04EB440101EBC400E8
:1026D00004220121FFF7FAFEA00005220421FFF7E2
:1026E000F5FE04EB4401480006220421FFF7EEFE4C
:1026F000E00007220421FFF7E9FE04EB8401480013
:1027000008220421FFF7E2FE04EB440188000922BD
:102710000421FFF7DBFE04EB44018800202303A221
:102720000621FFF795FF10BD941100202E2E2E00DC
:10273000FFF7DEFB0A2003F0F5FBFFF7A5FF01F032
:102740002FFF1B49C861002406E0E0B201F01CFF26
:10275000174941F82400641C042CF6DB26E01548D8
:10276000007810B9FEF7E2FF13E012480078012864
:1027700002D1FFF75DF80CE00E480078022802D184
:10278000FFF728F905E00B480078032801D1FFF78F
:102790009DFA0948007800EB4000084901EB8000F1
:1027A000806807490860084600688047D7E700004E
:1027B000544B002095110020900E0020981000200E
:1027C0008C0E002070B504460D461DB1E0B201F03C
:1027D0003FF902E0E0B201F025F970BD2DE9F041CA
:1027E00004460E46154614B90020BDE8F081216C60
:1027F0006164E16B2164A561E66131462846FDF71D
:1028000053FDE063207800284DD1E16B6068FDF74F
:1028100051FD6062E16BA068FDF74CFD0746A16ABF
:10282000FDF7F0FCA062616BA163216B6163D4E9E9
:102830000F01FDF739FD2063216BE068FDF73AFDDC
:10284000E0626169A06AFDF7C9FF02D26069A06217
:102850000BE0606980F000473846A16AFDF7BEFFD3
:1028600003D2606980F00040A062D4E90901FDF75D
:10287000C9FC0746E16AFDF7C5FC20622169206AB0
:10288000FDF7ACFF02D22069206255E0206980F09C
:1028900000473846216AFDF7A1FF4DD2206980F03C
:1028A0000040206248E02078012845D1D4E90F019A
:1028B000FDF7FAFC07466168FDF7FCFC6062E16B1E
:1028C000A068FDF7F7FCA062616BA163216B6163F7
:1028D0004FF08040216CFDF7EDFC8046E16BFDF789
:1028E000E6FC0746616CFDF78DFC2063216BE06818
:1028F000FDF7E0FCE062D4E90901FDF783FC8046C6
:10290000E16AFDF77FFC0746216AFDF77BFC206248
:102910002169206AFDF762FF02D2206920620BE084
:10292000206980F000473846216AFDF757FF03D23F
:10293000206980F000402062206A56E770B5049C50
:1029400000B102B970BD01701568456055688560B9
:102950009568C5600361446100268663466306632B
:102960000662C6628662466246640664C66300BF4B
:10297000E8E7000029B1064A52690243044B5A6154
:1029800004E0034A52698243014B5A6170470000D8
:102990000010024029B1064AD2690243044BDA61B1
:1029A00004E0034AD2698243014BDA6170470000B8
:1029B0000010024029B1064A92690243044B9A6111
:1029C00004E0034A92698243014B9A617047000018
:1029D0000010024030B500210022002400232D4DBC
:1029E0006D6805F00C0121B1042905D0082923D117
:1029F00005E0294D056022E0274D05601FE0254DCB
:102A00006D6805F47012234D6D6805F4803402255D
:102A100005EB92421CB9214D554305600BE01D4D5D
:102A20006D6805F400351DB11C4D5543056002E08D
:102A3000194D5543056002E0174D056000BF00BF0A
:102A4000144D6D6805F0F0010909154D6B5C0568C2
:102A5000DD4045600F4D6D6805F4E061090A104DD9
:102A60006B5C4568DD4085600A4D6D6805F460511A
:102A7000C90A0B4D6B5C4568DD40C560054D6D684E
:102A800005F44041890B074D6B5CC568B5FBF3F558
:102A9000056130BD0010024000127A0000093D00BF
:102AA000040E0020140E00202DE9F843642003F0EA
:102AB00039FAC3480B23002211460090142001F07C
:102AC00021FA022576E1072D7ED1BE49086800EB88
:102AD000D0714910A0EB410131B9E9B20823BAA283
:102AE0001020FFF7B5FD0EE0B649086800EBD07185
:102AF0004910A0EB4101012905D1E9B20823B3A295
:102B00001020FFF7A5FD192475E07F2C11D0272C8C
:102B10000FD02F2C0DD0372C0BD03F2C09D04C2CA4
:102B200007D0592C05D0612C03D0692C01D0712C11
:102B300003D1FF20A649087002E08120A449087053
:102B4000192C01D07F2C02D16D20A1490870A14819
:102B5000C069C07A032806D1372C04DA2F2C02DD95
:102B6000FF209B4908709B48C069C07A012806D1A4
:102B70002F2C04DA272C02DDFF2095490870954898
:102B8000C069C07A022806D13F2C04DA372C02DD56
:102B9000FF208F4908708F48C069807A032806D1CA
:102BA000692C04DA612C02DDFF208949087089480C
:102BB000C069807A012806D1612C04DA592C02DD23
:102BC000FF208349087000E018E08248C069807ADD
:102BD000022806D1712C04DA692C02DDFF207C4921
:102BE0000870E9B2E0B2FFF75DFC01217848007897
:102BF000FFF7E8FD641C802C87DBDAE07549CA69C1
:102C0000A91E02EB4101B1F90000FDF759FD804614
:102C10004FF06632704BFDF7D6FC0646FDF79BFD84
:102C20006E490860086800EBD07149106C4A116069
:102C30006A49086800EBD0714910A0EB4101694A6C
:102C400011606049086800EBD0714910A0EB4101A8
:102C5000A1B96048C169A81E01EB4000B0F900406D
:102C600006200090002C01DB204600E06042024676
:102C7000E9B203230020FFF7ADFC17E051490868D3
:102C800000EBD0714910A0EB410101290ED153484E
:102C9000046806200090002C01DB204600E0604222
:102CA0000246E9B203230020FFF794FC19247DE0DB
:102CB0004C2C03D1FF204C4908700EE0A4F1190000
:102CC000052190FBF1F201FB120018B900204649E2
:102CD000087002E00120444908707F2C01D0192CB3
:102CE00002D16D20404908703C48006848B339481B
:102CF000C169A81E01EB4000B0F90000002821DDE9
:102D0000374800684C30A04210DB4C2C0EDDA4F19B
:102D10001900052190FBF1F201FB120018B9FE2009
:102D20003149087002E0FF202F4908702D480068E3
:102D300038B12B4800684D30A0422DD1F1202A49EE
:102D4000087029E02348C169A81E01EB4000B0F9D2
:102D50000000002820DA224800684C30A04210DC35
:102D60004C2C0EDAA4F11900052190FBF1F201FBC5
:102D7000120018B9FE201C49087002E0FF201A4911
:102D800008701848006838B1154800684B30A042F8
:102D900002D1F12014490870E9B2E0B2FFF782FBDA
:102DA000012111480078FFF70DFD641C802CFFF60F
:102DB0007FAF6D1C082DFFF686AEBDE8F8830000DE
:102DC000B00E0020981100204400000025000000F3
:102DD000B6110020544B002066661A40B81100203E
:102DE000BC110020C0110020B511002000B101B9B4
:102DF00070470278437842EA0322C2F30A020A804B
:102E00004278D210837842EA4312C2F30A024A801F
:102E100082789211C37842EA8302037942EA8322DC
:102E2000C2F30A028A8002795210437942EAC3123D
:102E3000C2F30A02CA804279C2F301128A7242794D
:102E400012119308CB728279C37942EA032212B23B
:102E50008A81027A437A42EA032213B201F10C0218
:102E6000CB81827AC37A42EA032213B201F10C02C7
:102E70000B82037B8B74437BCB74827BC37B42EAE4
:102E800003228A82027C437C42EA032212B20A8134
:102E90000A88A2F5806212B20A804A88A2F580628E
:102EA00012B24A808A88A2F5806212B28A80CA88E9
:102EB000A2F5806212B2CA800A89A2F5806212B2BB
:102EC0000A8100BF94E710B500F002F810BD0000C1
:102ED0000CB50020019000903348006840F4803029
:102EE0003149086000BF3048006800F400300090AD
:102EF0000198401C0190009818B90198B0F5A06F96
:102F0000F1D12948006800F4003010B10120009090
:102F100001E0002000900098012843D12348006878
:102F200040F01000214908600846006820F00300C6
:102F300008600846006840F0020008601A484068CF
:102F4000194948600846406848600846406840F4AF
:102F5000806048600846406820F47C10486008465D
:102F6000406840F4E81048600846006840F080700F
:102F7000086000BF0C48006800F000700028F9D01D
:102F80000948406820F00300074948600846406847
:102F900040F00200486000BF0348406800F00C00A9
:102FA0000828F9D10CBD00000010024000200240AA
:102FB0001CB50648012100238022CDE9001004A1A0
:102FC000064803F097FD03F049F91CBDCC11002021
:102FD00053746172745F5461736B0000E12F0008D9
:102FE0001CB5044602F02AFE1248022100230A46BC
:102FF000CDE9001010A1134803F07CFD1248032115
:1030000000238022CDE9001010A1134803F072FDC7
:103010001248032100238022CDE9001010A113489B
:1030200003F068FD1248006802F0B6FF02F04AFEA5
:103030001CBD0000D01100204F4C45445F5461730B
:103040006B00000031270008D41100204D6F746F11
:10305000725F5461736B0000E11D0008D8110020FD
:1030600053746565725F5461736B000075300008BE
:10307000CC110020472144F61F6000F0ADF919E0A3
:103080000D480088FDF72DFB80460C4A0C4BFDF7E0
:1030900028FA064600220B4BFDF77CF90446FDF7A3
:1030A00079FB1FFA80FA5146074800F05FFA0120C9
:1030B00002F038FFE4E70000AC0E0020CDCCCCCC11
:1030C000CCCC1B400017D1400008004010B50824AC
:1030D000642002F027FF204610232FA20121FFF7D2
:1030E000B7FA204610232DA20321FFF7B1FA20469C
:1030F00010232BA20521FFF7ABFA6000062329A2BB
:103100000221FFF7A5FA6000062326A20421FFF79B
:103110009FFA6000062323A21946FFF799FA04EBF1
:1031200044001F220121FFF7D1F904EB8400202283
:103130000121FFF7CBF9C4EBC40023220121FFF7E3
:10314000C5F904EBC40024220121FFF7BFF904EB09
:10315000440021220321FFF7B9F904EB8400222265
:103160000321FFF7B3F9C4EBC40023220321FFF7C7
:10317000ADF904EBC40024220321FFF7A7F904EB07
:10318000440025220521FFF7A1F904EB8400262243
:103190000521FFF79BF910BD31000000320000004F
:1031A000330000002E000000042808D14FF0E02179
:1031B000096941F004014FF0E022116107E04FF08E
:1031C000E021096921F004014FF0E022116170470C
:1031D00010B503F0BFFC012801D003F041F910BD88
:1031E00010B51348006840F0010011490860084616
:1031F0004068104908400E494860084600680E497A
:1032000008400B4908600846006820F480200860E8
:103210000846406820F4FE0048604FF41F008860B4
:10322000FFF751FE4FF000600449086010BD000038
:10323000001002400000FFF8FFFFF6FE08ED00E07E
:1032400010B501215E4800F01EF9F8B15D48007824
:1032500000F08000D0B15B48007820F010005949A0
:1032600008700846007800F00F0020B90846007882
:1032700040F0400008705348007800F00F000E281E
:1032800005DA50480078401C4E4908700AE04D4865
:10329000007820F080004B4908700846007800F064
:1032A000F00008701021464800F0EDF8002810D01A
:1032B0004548006870B10221414800F04AF90021F8
:1032C0003F4800F055F93F48007840F010003D4974
:1032D000087070E03A4800F0D2F83C4908800021BC
:1032E000374800F036F93748007800F01000002821
:1032F0005BD03448007800F08000E8B333480088A1
:10330000B0F5967F0DDD31480088B0F5487F08DACA
:103310002F48006840002E49086008460068086091
:1033200043E02A480088B0F5AF6F0FDD27480088DA
:10333000B0F5E16F0ADA26480068400024490860C9
:103340000846006840F0010008602EE01F48008831
:1033500040F69801884228DD1C48008840F6282164
:10336000884222DA1B480078401C1A490870154828
:10337000007800F0F00000E002E01249087014E06C
:103380001248008841F2680188420EDD0F4800882B
:1033900041F25C21884208DA0A48007840F0800057
:1033A0000849087000200B4908700648007820F092
:1033B0001000044908701121014800F051F810BDB7
:1033C00000080040E80D002024812142EA0D002081
:1033D000EC0D0020F00D002030B589B005460C46FC
:1033E00001210820FFF7D6FA01210420FFF7D2FAC5
:1033F0004020ADF8200018208DF8230003208DF820
:10340000220008A91448FDF7F5FFA8B2ADF818008E
:10341000A0B2ADF814000020ADF81A00ADF8160007
:1034200005A90E4800F0A6F87020ADF804000120B0
:10343000ADF806000020ADF80C0001A9074800F027
:1034400033F80821054800F07BF80121034800F01B
:103450000AF809B030BD0000000C0140000800402F
:10346000CA430282704721B1028842F00102028001
:1034700004E002884FF6FE731A400280704701464E
:10348000B1F84000704730B5024600200023002408
:10349000158A05EA0103958905EA010413B10CB107
:1034A000012000E0002030BD70B500240022002380
:1034B000058C4FF6FE7635400584028C8388048B9C
:1034C0004FF68F752C40B51E2C400D882C43751E71
:1034D0002A400D892A434D882A43144DA8420BD017
:1034E000134DA84208D0134DA84205D0124DA84252
:1034F00002D0124DA84213D14FF6F7752A404D89DC
:103500002A434FF6FB752A408D882A434FF6FF6504
:103510002B404FF6FF552B408D892B43CD892B43F4
:1035200083800483CD888586028470BD002C014091
:103530000034014000400140004401400048014087
:103540000A460021018B4FF6F7731940114301839E
:1035500070470A460021018C4DF6FF7319404FF663
:10356000FF7303EA02331943018470478186704771
:1035700081847047002202881D4B98420ED01D4B5B
:1035800098420BD0B0F1804F08D01B4B984205D029
:103590001A4B984202D01A4B984204D14FF68F73BF
:1035A0001A404B881A43174B984207D0164B984243
:1035B00004D04FF6FF431A40CB881A4302808B8811
:1035C00083850B8803850A4B98420BD0094B9842A0
:1035D00008D00E4B984205D00D4B984202D00D4BAF
:1035E000984201D10B7A0386012383827047000041
:1035F000002C01400034014000040040000800405D
:10360000000C004000100040001400400040014049
:10361000004401400048014010B540F225511D48CA
:1036200000F08AF858B11B4800F042F91A491B4AC9
:103630001278885419480078401C184908701748B7
:103640000078112802D100201449087040F224416A
:10365000104800F071F8D8B10E4800880D48001DE0
:10366000008800210E48FDF783FD0D48FDF732FE6E
:10367000C0F112000B4908800B490C48FFF7B6FB5C
:10368000122007495839C86501210548FDF770FD2A
:1036900010BD0000003801401A130020F20D002078
:1036A00058000240F40D002004130020F413002001
:1036B00010B540F225510B4800F03EF888B140F2B9
:1036C0002551084800F014F8064800880548001DF8
:1036D0000088044800F0ECF8034908700120034911
:1036E000087010BD00440040020E0020030E0020B0
:1036F00010B50022002340F66A14A14200D100BF99
:103700000A1201249440A3B2DC43048010BD21B10D
:10371000828942F40052828104E082894DF6FF736F
:103720001A40828170471AB1838A0B43838202E078
:10373000838A8B438382704770B50246002400233E
:103740000025002040F66A16B14200D100BFC1F347
:10375000421501F01F03012606FA03F3012D02D1E1
:103760009689334006E0022D02D1168A334001E0EB
:10377000968A33400C12012606FA04F41688344067
:1037800013B10CB1012000E0002070BDF0B503467C
:10379000002400260025002040F66A17B94200D117
:1037A00000BF1846C1F3421401F01F06012707FAB3
:1037B00006F5012C01D10C3004E0022C01D11030AF
:1037C00000E014301AB107682F43076002E0076871
:1037D000AF430760F0BD00002DE9F04786B0054615
:1037E0000E460024A24600BFA1460027B08900B1C2
:1037F00000BF2F462C8A4CF6FF700440F08804432B
:103800002C82AC894EF6F3100440B088318908430D
:10381000718908430443AC81AC8A4FF6FF400440F1
:10382000B0890443AC8201A8FFF7D4F81F4887424F
:1038300002D1DDF810A001E0DDF80CA0A88900F4A9
:10384000004040B10AEBCA0000EB0A1031684900A1
:10385000B0FBF1F807E00AEBCA0000EB0A10316890
:103860008900B0FBF1F86420B8FBF0F004012009F6
:10387000642101FB1089A88900F4004040B1322086
:1038800000EBC900B0FBF1F000F00700044308E0D2
:10389000322000EB09106421B0FBF1F000F00F00C2
:1038A00004432C8106B0BDE8F087000000380140D9
:1038B00001468888C0F308007047C1F3080282807F
:1038C0007047000010B586B002213948FDF798F91D
:1038D000044601AA00213648FDF736FB0221344890
:1038E000FDF7EEF80198A0F2012030B1012805D0D3
:1038F000022804D0032857D102E000BF00BF00BF58
:103900000198401E2B4908700846007800EB8000A3
:10391000294931F8100000B22649097801EB8101EC
:10392000254A02EB410108819DF810009DF80F1017
:1039300040EA01201F49097801EB810122F81100BA
:103940009DF812109DF8110041EA002000B21949BB
:10395000097801EB810102EB410148809DF81410C8
:103960009DF8130041EA002000B21249097801EBEA
:10397000810102EB410188809DF815000D4909780D
:1039800001EB810102EB410188710A4A127802EBD6
:103990008202094B03EB4201084A064B1B7802EBFB
:1039A0008310FDF7BBFC00BF00BF06B010BD0000D8
:1039B00000640040E60D0020DC110020041200200D
:1039C00000BFFEE72DE9F04105462C464FF40041CB
:1039D0001248FDF7ECFD00261BE0274607F08007A4
:1039E000802F04D120210E48FDF7E3FD03E02021C4
:1039F0000B48FDF7DCFD6006040E4FF4004107485C
:103A0000FDF7D7FD4FF400410448FDF7D0FD701CD1
:103A1000C6B2082EE1DBBDE8F081000000080140DD
:103A2000000C014010B50446FDF7C8FD7820FFF7F3
:103A3000C9FFFDF7EFFD0020FFF7C4FFFDF7EAFD2A
:103A40002046FFF7BFFFFDF7E5FDFDF7CFFD10BDF9
:103A500010B50446FDF7B2FD7820FFF7B3FFFDF780
:103A6000D9FD4020FFF7AEFFFDF7D4FD2046FFF75C
:103A7000A9FFFDF7CFFDFDF7B9FD10BD0FB4054B54
:103A800010B503A9044A029800F02CF810BC5DF8A8
:103A900014FB000061400008FC0D00200FB4084B2F
:103AA00010B504A902AA039800F01CF8044602A964
:103AB000002000F077F9204610BC5DF814FB0000F0
:103AC000A53D000802E008C8121F08C1002AFAD16B
:103AD00070477047002001E001C1121F002AFBD18E
:103AE000704700002DE9FF4F8DB09B460F460446FE
:103AF000002606E025280BD05A460F999047641CF3
:103B0000761C20780028F5D111B03046BDE8F08F42
:103B10000025A8460122984900E0054314F8013F1A
:103B2000203B02FA03F00842F7D120782E2817D163
:103B300014F8010F45F004052A280ED06FF02F026B
:103B40002078A0F1300109290AD808EB880102EB9E
:103B5000410100EB0108641CF2E757F8048B641C78
:103B600020786C280DD004DC4C2812D06A2811D1A2
:103B700004E074280DD07A280CD10AE045F4001531
:103B800007E0617845F48015814202D1641C05F597
:103B90008015641C2278692A45D008DC002AB3D03D
:103BA000582A69D0632A10D0642A08D13BE0702AD1
:103BB00067D0732A13D0752A5CD0782A5CD010465F
:103BC0005A460F999047761CD3E017F8040B8DF8EE
:103BD000000000208DF80100E946012003E057F8BD
:103BE000049B4FF0FF3069074FF0000501D40AE055
:103BF0006D1C45450DDA8542FADB19F805100029E0
:103C0000F6D106E06D1C8542FCDB19F80510002991
:103C1000F8D12E4404E019F8010B5A460F99904749
:103C20006D1EF8D2A5E00A200021CDE90801C5F3F8
:103C3000025002280DD001CFC117031E71F10003FD
:103C40000DDA4FF0000CD0EB0C006CEB01012D23D2
:103C500008E0FF1D27F00707F7E80201EDE72B0555
:103C600004D52B238DF8283001233BE0EB0739D016
:103C70002023F7E70A2000E010200021CDE9080109
:103C800007E01020002145F00405CDE908014FF0C0
:103C90000808C5F3025002280FD001CF00214FF0D1
:103CA000000A2B071FD5702A0DD0DDE908C38CF060
:103CB000100C5CEA030C0CD015E0FF1D27F0070781
:103CC000F7E80201EBE740228DF828204FF0010AC7
:103CD0000BE050EA010306D030238DF828308DF830
:103CE000292002239A46582A04D024A20DF1200943
:103CF0000B9209E026A2F9E7DDE90823FCF778FD3D
:103D00000B9B9B5C09F8013D50EA0102F4D1ADEB3D
:103D1000090020300890680701D44FF00108089985
:103D2000884502DDA8EB010000E000208046002568
:103D300006E00AA85A46405D0F9990476D1C761C14
:103D40005545F6DB04E030205A460F999047761C23
:103D5000B8F10001A8F10108F5DC05E019F8010B44
:103D60005A460F999047761C0899481E08900029DA
:103D7000F4DC641CC5E60000092801003031323350
:103D80003435363738396162636465660000000097
:103D90003031323334353637383941424344454681
:103DA000000000000A68531C0B6010707047000090
:103DB000F8B50826642002F0B5F8304610233BA27F
:103DC0000021FEF745FC00240BE01020394900904B
:103DD0000A57E11D7143C8B201230021FEF7FAFB27
:103DE000641C032CF1DB02255DE0032D2CD10224A1
:103DF00027E031480088062190FBF1F01430A04202
:103E000012DC502C10DC2C48008890FBF1F01430B0
:103E1000A04201D0502C03D1FE202849087006E0B2
:103E200002202649087002E0002024490870E9B207
:103E3000E0B2FEF737FB012120480078FEF7C2FC14
:103E4000641C642CD5DB2DE0042D2BD1022427E04B
:103E500019480088062190FBF1F01430A04212DCD2
:103E6000502C10DC1448008890FBF1F01430A04274
:103E700001D0502C03D17F201049087006E00020AB
:103E80000E49087002E040200C490870E9B2E0B227
:103E9000FEF708FB012109480078FEF793FC641C3B
:103EA000642CD5DB6D1C052D9FDBF8BD616E676C46
:103EB000653A0000A80E0020AC0E0020A0110020E2
:103EC00038B50825642002F02DF8284610230AA2F0
:103ED0000021FEF7BDFB00240BE0102008490090F4
:103EE0000A57E11D6943C8B201230021FEF772FBA6
:103EF000641C032CF1DB38BD616E676C653A000011
:103F0000A80E00202DE9F0470746894614469A4638
:103F1000089D26462CE04FF000080EE0311B07EB11
:103F2000C1014144C8B24946FEF7BCFA28780121D4
:103F3000FEF748FC6D1C08F10108B8F1080FEDDB35
:103F40004FF0000810E009F10102D1B2321B07EB7B
:103F5000C2024244D0B2FEF7A5FA28780121FEF74A
:103F600031FC6D1C08F10108B8F1080FEBDB761C81
:103F700004EB0A00B042CEDCBDE8F08710B50420A7
:103F8000FFF712F9104800681049B0FBF1F0104932
:103F900008700D4800680D49B0FBF1F44FF47A70D9
:103FA000444301200B4908804FF0E020006940F0B5
:103FB00002004FF0E021086108464461006940F0CA
:103FC0000100086110BD00000000002040420F0009
:103FD000F60D0020F80D002070B5044602F0BAFD81
:103FE000012810D00B480088844206D30948008875
:103FF000B4FBF0F5284601F095FF06480088B4FBB5
:10400000F0F100FB11444FF47A7104FB01F000F071
:1040100003F870BDF80D002070B5034600224FF084
:10402000E02675690D4E367803FB06F44FF0E02666
:10403000B16910E04FF0E026B06988420BD08842A9
:1040400002D20E1A324402E02E1A0E4432440146C5
:10405000A24200D300E0EDE700BF70BDF60D0020E6
:1040600000BF054A128802F04002002AF9D0C2B20D
:10407000014B1B1D1A8070470038014010B5082401
:10408000012007490870FDF7F3FF642001F04AFFA3
:104090002046102303A20021FEF7DAFA10BD00002B
:1040A000941100202000000010B50824FDF7E0FF67
:1040B000642001F037FF2046102302A20221FEF700
:1040C000C7FA10BD2020000010B5082402200A49BC
:1040D0000870012009490870FEF752F9642001F0C8
:1040E00021FF07490978C91D6143C8B2102305A201
:1040F0000321FEF7ADFA10BD9511002094110020A8
:10410000A70E00202000000010B5022015490870FD
:10411000154890F916004FF47A714843124991F905
:10412000171001EBC10202EB011100EB81010E48F7
:1041300090F9180000EB800001EB40010A4890F96B
:104140001900084409490880094991F90010491EDD
:10415000054A52F82110B1F90200FDF75DFEFEF7A5
:104160000FF810BD94110020544B0020920E002037
:10417000A60E002010B5032002490870FEF794FC3B
:1041800010BD00009511002010B5032006490870ED
:10419000012006490870064CE368A268616820683F
:1041A00000F090FA10BD000095110020AE0E002026
:1041B000444B002010B50824002008490870022054
:1041C00007490870FEF782FF642001F0ABFE20462D
:1041D000102304A20121FEF73BFA10BD9511002027
:1041E000AE0E00202000000010B508240020074972
:1041F0000870FEF76BFF642001F094FE2046102348
:1042000003A20321FEF724FA10BD0000951100203F
:104210002000000010B50824002007490870FEF7B0
:1042200055FF642001F07EFE2046102303A20521E5
:10423000FEF70EFA10BD00009511002020000000CE
:1042400010B508240320154908700220144908708D
:10425000144890F90000032802DD0320114908707A
:1042600010480078032809D10E4890F9010006286B
:1042700004DB06200B49487000208870FFF720FE01
:10428000642001F04FFE08490978C91D6143C8B296
:10429000102306A20021FEF7DBF910BD94110020C7
:1042A00095110020A80E0020A70E0020200000007D
:1042B00010B50320174908700220174908701748E5
:1042C00090F90000032802DD032014490870134808
:1042D0000078032809D1114890F90100062804DB71
:1042E00006200E494870002088700C4890F90000A4
:1042F00064214843094991F9011001EB810100EB68
:104300004100064991F90210084405490880FFF769
:104310004FFD10BD9411002095110020A80E002023
:10432000AC0E002010B501203849087038490870DB
:1043300038480078032190FBF1F201FB120050BBDA
:10434000354890F9000090FBF1F201FB120020B912
:104350004FF41650314908604BE02F4890F90000A7
:10436000032190FBF1F201FB1200012804D14FF46C
:10437000E1302A4908603CE0274890F90000032119
:1043800090FBF1F201FB1200022832D14FF46120C0
:10439000224908602DE01F480078032190FBF1F2CC
:1043A00001FB120001280BD11D4991F90000C11732
:1043B00000EB91718910A0EB81011A4A117018E08D
:1043C00014480078032190FBF1F201FB120002284F
:1043D0000FD1154991F9000000EBD0714910A0EB05
:1043E000410119B908201149087002E009200F495C
:1043F000087001F0C9FA642001F094FD06230CA2B4
:1044000001216A20FEF724F910BD0000951100205B
:10441000A811002096110020A60E0020A411002053
:104420009E110020AA1100209F110020AB11002036
:104430002000000010B50824FDF71AFE642001F0EA
:1044400071FD2046102302A20421FEF701F910BDE0
:104450002020000010B501200F49087002200F49EC
:10446000087001F091FA0E480078352804D1002137
:104470000C48FFF722FA03E0AA210A48FFF71DFAC9
:10448000642001F04FFD062307A2072104480078AD
:10449000FEF7DEF810BD000095110020A8110020E5
:1044A000B4110020004800402000000010B508248E
:1044B000FDF7DEFD642001F035FD2046102302A249
:1044C0000621FEF7C5F810BD2020000010B5082415
:1044D00000200A4908800A49887500210848C175EA
:1044E00001764176FDF7DEFE642001F01BFD2046DB
:1044F000102304A20021FEF7ABF810BD920E00209D
:10450000544B00202020000010B50824012007494A
:104510000870FDF7C7FE642001F004FD204610235B
:1045200003A20221FEF794F810BD0000A60E0020A1
:104530002020000010B50824FDF7B4FE642001F02F
:10454000F1FC2046102302A20421FEF781F810BDE1
:104550002020000010B50824FDF7A4FE642001F01F
:10456000E1FC2046102302A20621FEF771F810BDDF
:104570002020000010B5012002490870FDF700FF5F
:1045800010BD000095110020014601F0030000EB72
:104590008000024A02EB400070470000DC1100205E
:1045A000004870470413002038B50546002400BFBA
:1045B00015E02046FFF7E8FF45F824000948C4EB62
:1045C000C40101EB410205F11001009001EB8200F2
:1045D000054B064A0021FEF7B1F9601CC4B2042C59
:1045E000E7DB38BD00007A4400401C46A470000898
:1045F0002DE9F0410546002400BF13E004EB8402DE
:10460000296801EB4201B1F90200FCF74BF8C4EB59
:10461000C40101EB410205F1100101EB8201C86404
:10462000601CC4B2042CE9DB00240EE021480088A1
:10463000FCF741F8C4EBC40101EB410205F11001A4
:1046400001EB82018864601CC4B2042CEEDB002400
:104650002BE0C4EBC40303EB430705F1100303EBAA
:1046600087039A6CC4EBC40303EB430705F1100303
:1046700003EB8703D96CC4EBC40303EB430705F1D9
:10468000100303EB8700FEF7A9F80646FCF736F89F
:1046900001B2C4EBC40000EB400205F1100000EBD6
:1046A0008200A0F85010601CC4B2042CD1DBBDE81D
:1046B000F0810000920E0020FDF77AFBFEF778FCF7
:1046C00000BFFEE72DE9F84307460C4615461E4697
:1046D000642001F027FCFD480323002211460090CE
:1046E0000220FFF70FFCF948303003231A4602215D
:1046F00000900846FFF706FCF448603003230622CA
:10470000042100900220FFF7FDFBF04890300423C5
:104710000922062100900220FFF7F4FBEB48D0307D
:1047200001230D22002100902320FFF7EBFBE74837
:10473000D03001230D22022100902320FFF7E2FB5D
:10474000E248D03001230D22042100902320FFF7FE
:10475000D9FBDE48D03001230D2206210090232012
:10476000FFF7D0FB00213846FCF72EF869D2D84974
:104770003846FCF729F817D81023D6A200212A20A2
:10478000FDF766FF3846FBF7D2FF80461020032373
:104790004246002100903220FDF71CFF1C22002120
:1047A0004A20FDF793FE49E0C9493846FCF716F860
:1047B00022D2C9493846FCF707F81DD81023C5A2F4
:1047C00000212A20FDF744FF3846FBF7B0FF804662
:1047D000102002234246002100903220FDF7FAFE0D
:1047E0001C2200214220FDF771FE1023BBA20021F4
:1047F0005220FDF72DFF21E0B7493846FBF7EEFFC9
:104800001CD21023B3A200213220FDF721FF38462D
:10481000FBF78DFF804610200123424600210090C7
:104820003A20FDF7D7FE1C2200214220FDF74EFE64
:104830001023AAA200215220FDF70AFF87F00047AB
:1048400016E03846FBF773FF8046102003234246EC
:10485000002100902A20FDF7BDFE1C2200214220ED
:10486000FDF734FE10239DA200215220FDF7F0FE3B
:1048700000212046FBF7A8FF69D295492046FBF7A7
:10488000A3FF17D8102393A202212A20FDF7E0FEF0
:104890002046FBF74CFF80461020032342460221AE
:1048A00000903220FDF796FE1D2202214A20FDF7DE
:1048B0000DFE49E086492046FBF790FF22D286494B
:1048C0002046FBF781FF1DD8102382A202212A2057
:1048D000FDF7BEFE2046FBF72AFF8046102002238C
:1048E0004246194600903220FDF774FE1D22022137
:1048F0004220FDF7EBFD102378A202215220FDF7A4
:10490000A7FE21E074492046FBF768FF1CD2102364
:1049100070A202213220FDF79BFE2046FBF707FF25
:104920008046102001234246022100903A20FDF7E4
:1049300051FE1D2202214220FDF7C8FD102367A26F
:1049400002215220FDF784FE84F0004416E0204648
:10495000FBF7EDFE80461020032342460221009023
:104960002A20FDF737FE1D2202214220FDF7AEFD71
:1049700010235AA202215220FDF76AFE0021284688
:10498000FBF722FF69D252492846FBF71DFF17D8D3
:10499000102350A204212A20FDF75AFE2846FBF7D7
:1049A000C6FE804610200323424604210090322098
:1049B000FDF710FE1D2204214A20FDF787FD49E086
:1049C00043492846FBF70AFF22D243492846FBF712
:1049D000FBFE1DD810233FA204212A20FDF738FE3C
:1049E0002846FBF7A4FE80461020022342460421FD
:1049F00000903220FDF7EEFD1D2204214220FDF73C
:104A000065FD102335A204215220FDF721FE21E08F
:104A100031492846FBF7E2FE1CD210232DA20421C7
:104A20003220FDF715FE2846FBF781FE8046102058
:104A300001234246042100903A20FDF7CBFD1D22C0
:104A400004214220FDF742FD102324A2042152201C
:104A5000FDF7FEFD85F0004516E01D2204214220F1
:104A6000FDF734FD2846FBF762FE80461020032345
:104A70004246042100902A20FDF7ACFD102317A226
:104A800004215220FDF7E4FD00213046FBF79CFE97
:104A900078D20F493046FBF797FE21D810230DA29C
:104AA00006212A20FDF7D4FD3046FBF740FE804664
:104AB000102003234246062100903220FDF78AFD94
:104AC0001D2206214A20FDF701FD57E0600F00205E
:104AD0000000C8C22D000000000020C1200000001E
:104AE00035493046FBF77AFE24D234493046FBF78D
:104AF0006BFE1FD81023AFF2240206212A20FDF7F7
:104B0000A7FD3046FBF713FE8046102002234246E5
:104B1000062100903220FDF75DFD1D220621422076
:104B2000FDF7D4FC1023AFF24C0206215220FDF712
:104B30008FFD23E021493046FBF750FE1ED21023A3
:104B4000AFF2700206213220FDF782FD3046FBF7FE
:104B5000EEFD8046102001234246062100903A20B7
:104B6000FDF738FD1D2206214220FDF7AFFC102382
:104B7000AFF2980206215220FDF76AFD86F000464A
:104B800018E0FFE73046FBF7D2FD804610200323F4
:104B90004246062100902A20FDF71CFD1D22062119
:104BA0004220FDF793FC1023AFF2D00206215220E1
:104BB000FDF74EFDBDE8F8830000C8C2000020C12B
:104BC00010B50246012000E050430B1EA1F1010484
:104BD000E1B2F9D110BD00002DE9F04105460E46C5
:104BE0001C4807681C480068001D00F0DDFF50B934
:104BF0001948006890F82C1001208840174909686E
:104C0000814316480160681C38B936B11248016802
:104C1000091D134801F006F81AE07C190E480068D7
:104C20004460BC4207D20C480168091D0D48006869
:104C300000F0DEFF0CE008480168091D0A48006822
:104C400000F0D6FF09480068844201D2074804609A
:104C5000BDE8F0812C0E0020180E0020300E002040
:104C600028170020200E00201C0E0020480E0020D7
:104C700010B5044600F0E2FF24480068401C2349B8
:104C800008602348006840B921480460084600686D
:104C900001280DD100F0EEF90AE01E48006838B98D
:104CA0001B480068C06AE16A884201D8184804605D
:104CB00019480068401C184908600846006860648C
:104CC00094F82C10012088401449096808431349BE
:104CD0000860E16A01EB8101114A02EB8100211DAC
:104CE00000F0A0FF00F0EEFF0A48006868B1084835
:104CF0000068C06AE16A884207D24FF080500949D3
:104D00000860BFF34F8FBFF36F8F10BD280E0020D8
:104D1000180E0020340E0020440E0020300E00201B
:104D20005814002004ED00E010B500F087FF104893
:104D30000068D0B90F4800F04BFF0F4800F048FF63
:104D40000C480E4908600C480D49086000221021EB
:104D5000052001F09FFB064908600846006820B165
:104D600008A10348006801F0A1F800F0ABFF10BDF6
:104D70005C0E00203C17002050170020540E00202D
:104D8000580E0020546D72510000000070B523E0F1
:104D900001F0BAFA1348006808B9012000E00020C9
:104DA000054602F063F8BDB900F048FF0D48C06841
:104DB000C468201D00F0F8FE0B480068401E0A4938
:104DC00008600A480068401E0849086000F07AFF41
:104DD000204600F060F800BF044800680028D7D1E2
:104DE00070BD000014170020280E0020240E0020A3
:104DF00070B504460D46206C70B1216CE068084423
:104E0000E0606168E068884201D32068E06028467D
:104E1000226CE168FBF7D2F970BD2DE9F041044640
:104E20000F4615464FF00008A66B206C40B920686D
:104E300060BB606801F054FF80460020606025E0A0
:104E40007DB93946226CA068FBF7B8F9216CA068DF
:104E50000844A060D4E90110884217D32068A060FC
:104E600014E03946226CE068FBF7A8F9216CE06891
:104E7000401AE0602168E068884203D2216C6068D3
:104E8000401AE060022D01D106B1761E701CA063AD
:104E90004046BDE8F08110B50446206B00F04AFFA3
:104EA000204600F047FF10BD0146084A126812680C
:104EB0000AB9012200E000220A600A6822B9034A06
:104EC0001268D268106800E000207047540E00207D
:104ED00030B54FF44053174800F007042CB1C01D03
:104EE00020F00700134C041B1B1B0246124C2260CF
:104EF0000024114D6C60D018083820F007000F4CCA
:104F0000206000240D4D2D686C600C4D2D682C60C8
:104F10001146441A4C60094C24680C60084D4C68DA
:104F20002C60084D4C682C604FF00044064D2C60FE
:104F300030BD000064170020680E0020700E0020B5
:104F4000780E0020740E00207C0E002000BFFFF7BA
:104F50001DFF064800680128F9D94FF08050044928
:104F60000860BFF34F8FBFF36F8FF0E75814002036
:104F700004ED00E02DE9F04106460D46174698463F
:104F8000069C0DB9246000E02760E66325640121DA
:104F9000204601F09DFB84F850800020A064BDE80D
:104FA000F08100002DE9F05F82460F4690469B4657
:104FB0000A9E0C9C4FEA8801A522206BFBF710F992
:104FC000A8F10100216B01EB800929F0070909F024
:104FD000070008B9012000E0002028B940F22B3278
:104FE0001BA120A0FEF74AFD002507E0795D04F132
:104FF00034004155785D00B902E06D1C102DF5D3E9
:1050000000BF002143200155202E00D31F26E66259
:10501000E66400202065201D00F0E7FD04F1180083
:1050200000F0E3FD2461C6F12000A061646200206D
:10503000606584F858005A465146484600F000FC26
:1050400020600B9808B10B980460BDE8F09F000049
:105050002E2E5C4672656552544F535C7461736BBF
:10506000732E63004572726F723A25732C25640D9E
:105070000A00000010B5002407E004EB84010F4A89
:1050800002EB810000F0A4FD641C202CF5D30C4839
:1050900000F09EFD0B4800F09BFD0B4800F098FDD2
:1050A0000A4800F095FD0A4800F092FD04480949BD
:1050B000086004480849086010BD0000581400202A
:1050C000D8160020EC16002000170020141700202E
:1050D000281700201C0E0020200E002010B50146CD
:1050E000164800E0006803688B42FBD30246436821
:1050F00013448B4204D143684C6823444360014607
:105100000A464B6813440468A34211D10C4C03684F
:105110002468A34208D04B680468646823444B6049
:1051200003681B680B6005E0054B1B680B6001E022
:1051300003680B60884200D0016010BD680E00203B
:10514000700E00202DE9F04104460D4616461F461C
:105150004FF0000865602461B5420CD8F01BA169CE
:10516000884202D34FF0010811E0211D0948006870
:1051700000F03EFD0BE0BE4204D2BD4202D34FF030
:10518000010804E0211D0448006800F031FD40469C
:10519000BDE8F081580E0020540E002070B5054681
:1051A00000F04CFDA86B08B9012400E0002400F0D9
:1051B00089FD204670BD70B5054600F03FFDA86B27
:1051C000E96B884201D1012400E0002400F07AFD5F
:1051D000204670BD2DE9F3410D460098846C0027F0
:1051E0002CB940F6CE121AA11EA0FEF747FCA06B08
:1051F000E16B884201D2012000E0002028B940F68E
:10520000CF1213A117A0FEF739FCA06BE16B884207
:105210001BD294F945602A4669462046FFF7FDFDFA
:105220000746701C60B9606A08B9012000E00020E0
:1052300050B904F1240001F0BFFD28B1012703E0BB
:10524000701C40B284F8450000BF3846BDE8FC81C0
:105250002E2E5C4672656552544F535C71756575B0
:10526000652E63004572726F723A25732C25640DAA
:105270000A000000F8B505460F4613480068C068EC
:10528000C468201D00F090FCE069012818D1A069D5
:1052900041192B463A462046FFF754FF80B10020C3
:1052A00003462A4601460090204601F0A9FE064624
:1052B0002EB94FF4027205A10AA0FEF7DFFB00BF72
:1052C0002046616A8847F8BD540E00202E2E5C46A9
:1052D00072656552544F535C74696D6572732E63C9
:1052E000000000004572726F723A25732C25640D20
:1052F0000A000000F0B587B070E0039800280CDACF
:1053000004AE2EB940F2E7223AA140A0FEF7B6FB68
:10531000D6E90020B168904700BF039800285DDB04
:10532000059C606908B9012000E0002010B9201D2B
:1053300000F03AFC02A800F0C7F8054603980A28D6
:105340004AD2DFE800F00905072C2E4506082D2F6C
:1053500000BF00BF00BF00BF0498A26981180346C8
:105360002A462046FFF7EEFEC0B12046616A884714
:10537000E069012812D1002000900498A169421828
:1053800000231946204601F03BFE07462FB940F2A4
:10539000213218A11DA0FEF771FB00BF1DE000BF68
:1053A0001BE000BF0498A061A06908B1012000E0E3
:1053B000002028B94FF44E720EA114A0FEF75EFB38
:1053C000A06941192B462A462046FFF7BBFE04E0A0
:1053D000204600F0AFFC00E000BF00BF00231A46EB
:1053E00003A90E48006801F08FF8002885D107B0A6
:1053F000F0BD00002E2E5C4672656552544F535C22
:1054000074696D6572732E63000000004572726FDF
:10541000723A25732C25640D0A0000005C0E0020F2
:10542000F8B505460C4600F06FFF684600F04CF8F2
:105430000646009820BB44B9B54206D801F016FDD7
:1054400031462846FFF716FF1CE03CB10E480068C5
:10545000006808B9012000E000200446A91B22468C
:105460000A48006800F038FD01F000FD50B94FF027
:10547000805007490860BFF34F8FBFF36F8F01E083
:1054800001F0F4FCF8BD0000580E00205C0E002076
:1054900004ED00E00A490968096809B9012100E042
:1054A000002121B14FF0FF31064A116006E00449A6
:1054B0000968C968C868034A4168116070470000FC
:1054C0001C0E0020480E002070B5044601F052FB6F
:1054D000054607480068854204D200F00BF8012019
:1054E000206001E00020206001480560284670BD72
:1054F000640E00202DE9F8432DE021480068C068C3
:1055000005681F480068C068C468201D00F04CFB97
:105510002046616A8847E06901281CD1A0694619C4
:10552000AE4207D966602461211D1548006800F06D
:105530005FFB10E0002003462A460146009020460B
:1055400001F05EFD07462FB940F292320DA113A083
:10555000FEF794FA00BF0A480068006808B9012005
:1055600000E000200028C8D00548D0F800800F488F
:105570000068034908600D48C0F80080BDE8F88362
:10558000540E00202E2E5C4672656552544F535CBB
:1055900074696D6572732E63000000004572726F4E
:1055A000723A25732C25640D0A000000580E002065
:1055B0000B480068401C08B9012000E0002020B919
:1055C000F42208A112A0FEF759FA00BF502080F380
:1055D0001188BFF34F8FBFF36F8F00BF00BFFEE78F
:1055E000800E00202E2E5C4672656552544F535C2F
:1055F000706F727461626C655C525644535C4152C8
:105600004D5F434D335C706F72742E630000000079
:105610004572726F723A25732C25640D0A000000E2
:1056200008B500BF6846FFF73FFC044620460099D6
:10563000FFF7F6FEFFF75EFEF4E770B5044600F0F4
:10564000FDFA94F945501AE0A06C38B100212046CB
:10565000FFF7C0FD88B100F025FD0EE0606A08B9D3
:10566000012000E0002038B904F1240001F0A4FB7F
:1056700018B100F017FD00E003E0681E45B2002DF0
:10568000E2DC00BFFF2084F8450000F01BFB00F0C7
:10569000D5FA94F9445010E0206908B9012000E0DF
:1056A000002048B904F1100001F086FB08B100F0B9
:1056B000F9FC681E45B200E001E0002DECDC00BF03
:1056C000FF2084F8440000F0FDFA70BD2DE9F041A0
:1056D00004464FF0000800F017FE3E48006808B985
:1056E000FFF7F6FB3C480068204000285FD1A4B1DA
:1056F000083404F0070080B104F00700C0F108008E
:10570000044404F0070008B9012000E0002020B99B
:10571000BF2232A13BA0FEF7B1F9002C47D03D4893
:105720000068844243D83C4E3046056801E02E466E
:105730002D686868A04202D228680028F7D1254861
:105740000068854233D0306800F10808286830606E
:105750006868001B102813D92F1907F0070008B933
:10576000012000E0002020B9EC221CA125A0FEF7BA
:1057700085F96868001B78606C603846FFF7AEFCFE
:10578000244968680968081A2249086008460068C0
:1057900022490968884203D21E4800681F490860F0
:1057A0000D4968680968084368600020286001F0B6
:1057B0005DFB08F0070008B9012000E0002028B9CF
:1057C0004FF4967205A10FA0FEF758F94046BDE8C8
:1057D000F0810000700E00207C0E00202E2E5C4612
:1057E00072656552544F535C706F727461626C6580
:1057F0005C4D656D4D616E675C686561705F342EF0
:10580000630000004572726F723A25732C25640D97
:105810000A000000740E0020680E0020780E0020A0
:105820000648006830B10549096801F15000096D6A
:10583000491C01600148006870470000180E0020F4
:10584000001F4FF080730360001F21F0010303600D
:10585000001F034B036014380260203870470000BB
:10586000B155000810B592B0044601218803FDF738
:10587000A1F801210920FDF79DF801210420FBF783
:1058800045FE8020ADF8440004208DF84700032039
:105890008DF8460011A93848FBF7ACFD25208DF89E
:1058A000300003208DF8310000208DF832000120F7
:1058B0008DF833000CA8FCF7D9FA0F208DF83000D2
:1058C00002208DF8310000208DF8320001208DF883
:1058D00033000CA8FCF7CAFA0D940020ADF838008C
:1058E000ADF83A004FF48060ADF83C000020ADF810
:1058F00040000420ADF83E000DA92048FDF76CFFE4
:10590000012240F225511D48FDF740FF012240F2DF
:1059100024411A48FDF73AFF01211848FDF7F7FE28
:1059200001210846FDF726F81548FBF72DFC134822
:10593000001D019000200390124802901220089050
:105940008020069000200590079008902020099064
:105950004FF440500A9000200B9001A90848FBF733
:10596000BDFC012240210548FDF7DDFE0121044870
:10597000FBF7FEFB12B010BD000C014000380140E7
:1059800058000240F41300207CB5642000F0CAFAED
:105990007248027872A101A8FEF780F8062003463B
:1059A00000907048012102680020FCF713FE0623D6
:1059B0006DA201213020FCF74BFE06200123009050
:1059C0006A48027819463820FCF704FE062366A2CE
:1059D00001214020FCF73CFE062001230090644892
:1059E000027819464820FCF7F5FD06235EA2012146
:1059F0005020FCF72DFE06235EA201215820FCF763
:105A000027FE062358A201214020FCF721FE062391
:105A100059A204210520FCF71BFE062357A20721EB
:105A20000520FCF715FE062355A207213C20FCF7B4
:105A30000FFE062353A207216420FCF709FE5248FB
:105A40000078012806D1062350A201216A20FCF724
:105A5000FFFD22E04C48007802281ED14C4908780E
:105A600000EBD0714910A0EB410119B9352049492B
:105A700008700BE04649087800EBD0714910A0EBA4
:105A80004101012902D15D204249087006233FA24D
:105A9000072140480078FCF7DBFD3F4800780128EB
:105AA00018D100203C4908703C48007810303B4930
:105AB00008700846007840280CDD0020087038483F
:105AC0000078401C3649087008460078032801D148
:105AD00000200870324A1278D21CD1B22F4A1278B4
