:020000040800F2
:1000000098E000206DBA000875BA000877BA0008B9
:1000100079BA00087BBA00087DBA00080000000029
:100020000000000000000000000000007FBA00088F
:1000300081BA00080000000083BA000885BA0008F1
:1000400087BA000887BA000887BA000887BA00088C
:1000500087BA000887BA0008375700088385000868
:1000600087BA000887BA000887BA0008C75700088F
:1000700087BA000887BA000887BA000887BA00085C
:1000800087BA000887BA000887BA000887BA00084C
:1000900087BA000887BA000887BA000887BA00083C
:1000A00087BA000887BA000887BA000887BA00082C
:1000B00087BA000887BA000887BA000887BA00081C
:1000C00087BA000887BA000887BA000887BA00080C
:1000D00087BA000887BA000887BA000887BA0008FC
:1000E0008591000887BA000887BA000887BA000817
:1000F00087BA000887BA000887BA000887BA0008DC
:1001000087BA00087752000887BA000887BA000843
:1001100087BA000887BA000887BA000887BA0008BB
:1001200087BA000887BA000887BA000887BA0008AB
:10013000DFF80CD00CF0F6F9004800471B3400083B
:1001400098E00020002817DB00F01F0201219140F9
:10015000FE4A430942F8231000BF00BF00BFBFF3AF
:100160004F8F00BF00BF00BF00BF00BF00BFBFF385
:100170006F8F00BF00BF00BF704700BF00BF00BF50
:10018000BFF34F8F00BF00BF00BFF148006800F40D
:10019000E060F0490843001DED49086000BF00BF62
:1001A00000BFBFF34F8F00BF00BF00BF00BF00BF45
:1001B000FDE708B54FF6DF7005F0E9FC1F205C2372
:1001C00040F2563200210090084605F0F9FC1F204D
:1001D000E14908802020E14908800420E0490870B6
:1001E0000A20E0490870E0A21E21322005F0CDFE71
:1001F0004FF478404FF4F07340F256324FF4DA7116
:10020000009040F2123005F0DBFC4FF47840D24908
:1002100008802020D14908800320D1490870D4A249
:100220004FF4DF714FF4477005F083FE4FF6DF7037
:10023000C94908802020C94908800420C84908709D
:100240000A20C8490870CCA29621142005F09DFE12
:10025000D2A2FA21142005F098FED9A24FF4AF7172
:10026000142005F092FE0120E1490870022009F0F7
:10027000ECF9072003F09EF917E0DE48007C00F05F
:10028000C000402811D1DB48007C20F04000D94953
:1002900008744FF4F07340F256324FF4DA7140F2C2
:1002A000123008F0DEF800B100E0E6E700BF002001
:1002B000CF4908700720FFF745FF08BD38B5002477
:1002C0004FF4FC6005F063FC1F205C2340F25632C3
:1002D00000210090084605F073FC1F209E4908800D
:1002E00020209E49088004209D4908700A209D49CD
:1002F0000870C1A21E21322005F047FE4FF4FC60B9
:100300009549088020209549088004209449087068
:100310000A2094490870BBA27821322005F035FEEE
:10032000C0A2B421322005F030FEC9A2F021322053
:1003300005F02BFED0A24FF49671322005F025FE79
:10034000032087490870092086490870CEA24FF41F
:10035000BE71D32005F019FE4FF478404FF4F073CE
:1003600040F256324FF4DA71009040F2123005F04C
:1003700027FC4FF47840784908802020774908808E
:100380000320774908707AA24FF4DF714FF4477069
:1003900005F0CFFD012096490870022009F055F9BB
:1003A000072003F007F961E09248007C00F0C000EC
:1003B00040285BD100208E4908700720FFF7C2FE5D
:1003C0008C48007C20F040008A4908744FF4F07398
:1003D00040F256324FF4DA7140F2123008F041F830
:1003E00000B144E0962340F2DD12322140F2791050
:1003F00008F037F808B101242FE04FF4917340F270
:100400007322BE2140F20F2008F02BF818B1012C06
:1004100023D1022421E04FF4D77340F2DD124FF4D0
:10042000A57140F2791008F01CF818B1022C14D113
:10043000032412E04FF4917340F24712BE21E320EF
:1004400008F00FF848B1032C07D11F2005F09FFBDF
:1004500041F2883003F0B2F909E0012064490870E4
:10046000022009F0F2F8072003F0A4F89CE700BF8F
:1004700000205F4908700720FFF764FE38BD10B503
:100480000446012C60D14FF6DF7005F080FB4FF67B
:10049000DF70314908800420314908700A20314951
:1004A00008701F202D49088040F265134FF4217217
:1004B0007821B42005F00BFC4FF4B27340F2832294
:1004C0007921B52005F003FC4FF4784023490880DA
:1004D00077A2C821CC2005F058FD7CA24FF496717C
:1004E000CC2005F052FD7BA24FF496714FF40B70B7
:1004F00005F04BFD1F201949088040F2511340F2CE
:10050000111240F22711C72005F0E1FB4FF4A87348
:100510004FF488724FF49471C82005F0D8FB40F274
:10052000511340F2712240F2271140F2272005F0CA
:10053000CEFB4FF4A8734FF41C724FF494714FF438
:100540000A7005F0C4FBC9E003E1000080E100E0AF
:100550000CED00E00000FA055800002056000020D5
:100560005B0000205A000020B0EF2020D6FA0000E7
:10057000B7B5BBD800000000C5E4D0C2D4BFB3D724
:100580003AD3C3BBA7CAD7B4CECAB9D3C3B1BEC9C5
:10059000E8B1B8C5E4C8A1D4BFB3D700C5E4BEC9AB
:1005A000D4BFB3D73AD3C3BBA7CAB9D3C3B1A3B4DB
:1005B000E6B5C4CAFDBEDDC5E4C8A1D4BFB3D7004B
:1005C000CFB5CDB3C9E8D6C33AC9E8D6C3CAFDBED4
:1005D000DDB2C9BCAFCAB1B5C6B9E2C7BFB6C82C97
:1005E000B4A5C6C1D0A3D7BCB5C8B2CECAFD000061
:1005F0008600002060000020B9D820D3DA20CFEE9A
:1006000020C4BF00CFEEC4BFC3FBB3C63AC8ABD74C
:10061000D4B6AFCAFDD7D6D4BFB3D7C5E4C8A1D727
:10062000B0D6C300CFEEC4BFC0E0B1F03AB9FABC57
:10063000D2BCB6B4F3D1A7C9FAB4B4D0C2B4B4D260
:10064000B5D1B5C1B7BCC6BBAECFEEC4BF000000CC
:10065000CFEEC4BFB3C9D4B13AD5C5CCCE2CDBB331
:10066000B4A8BDDC2CD5D4D1F42CD5C5C3F7B7E5DF
:100670002CC1F5BFA1000000D6B8B5BCBDCCCAA640
:100680003AC3E7D6BEC8AB002A2A2AB5E7D7D3D0EB
:10069000C5CFA2B9A4B3CCD1A7D4BA2D2DB9A4B3D8
:1006A000CCD1B5C1B7D6D0D0C42A2A2A00000000C8
:1006B000C7EBD6D8D0C2C6F4B6AFBBF2D5DFB9D837
:1006C000BBFABCECB2E95344BFA80000D6D8C6F4CC
:1006D00000000000B9D8BBFA000000000120FD496D
:1006E0000870022008F0B1FF072002F063FF2FE03E
:1006F000F948007C00F0C000402829D1F648007C71
:1007000020F04000F449087440F24F134FF4877210
:1007100040F22711C82007F0A4FE20B1202005F0E8
:1007200036FAFFF72AFD40F24F1340F2712240F2F1
:10073000271140F22B2007F094FE48B1202005F04D
:1007400026FA4FF48061E54809F09BFB00BFFEE705
:10075000CEE7052C70D14FF6DF7005F018FA4FF692
:10076000DF70DF4908800420DE4908700A20DE4976
:1007700008701F20DD49088040F265134FF429728C
:100780007821B42005F0A3FA4FF4B27340F2A3220B
:100790007921B52005F09BFA4FF47840D3490880C1
:1007A000D3A29621480005F0F0FBD6A2C821CC20A8
:1007B00005F0EBFBAFF2EC024FF49671CC2005F0A4
:1007C000E4FBAFF2F0024FF496714FF4137005F0B2
:1007D000DCFB1F20C549088040F2511340F2111282
:1007E00040F22711C72005F072FA4FF4A8734FF4B6
:1007F00088724FF49471C82005F069FA40F25113E1
:1008000040F2912240F2271140F2462005F05FFAB3
:100810004FF4A8734FF424724FF4947140F24720C0
:1008200005F055FA0120AB490870022008F00DFFD1
:10083000072002F0BFFE30E030E0A748007C00F067
:10084000C000402829D1A448007C20F04000A249E3
:10085000087440F24F134FF4877240F22711C820FA
:1008600007F0FFFD20B1202005F091F9FFF785FC8E
:1008700040F24F1340F28F2240F2271140F24920FC
:1008800007F0EFFD48B1202005F081F94FF48061B9
:10089000924809F0F6FA00BFFEE7CEE7022C71D1CC
:1008A0004FF6DF7005F073F94FF6DF708C49088062
:1008B00004208C4908700A208B4908701F208B493E
:1008C000088040F265134FF421727821B42005F0BE
:1008D000FEF94FF4B27340F283227921B52005F07E
:1008E000F6F94FF47840814908808EA296214FF4A2
:1008F0009E7005F04AFBAFF24822C821CC2005F0DB
:1009000044FB8CA24FF49671CC2005F03EFBAFF275
:100910003C224FF496714FF40B7005F036FB1F200C
:100920007249088040F2511340F2111240F227112F
:10093000C72005F0CCF94FF4A8734FF488724FF438
:100940009471C82005F0C3F940F2511340F27122AE
:1009500040F2271140F2272005F0B9F94FF4A873AF
:100960004FF41C724FF494714FF40A7005F0AFF914
:10097000012058490870022008F067FE072002F0A5
:1009800019FE30E030E05448007C00F0C000402800
:1009900029D15148007C20F040004F49087440F2B2
:1009A0004F134FF4877240F22711C82007F059FD0A
:1009B00020B1202005F0EBF8FFF7DFFB40F24F13EA
:1009C00040F2712240F2271140F22B2007F049FD3E
:1009D00048B1202005F0DBF84FF480613F4809F072
:1009E00050FA00BFFEE7CEE7032C72D14FF6DF705E
:1009F00005F0CDF84FF6DF703949088004203949F9
:100A000008700A20384908701F203849088040F2D1
:100A100065134FF421727821B42005F058F94FF492
:100A2000B27340F283227921B52005F050F94FF4DA
:100A300078402E49088040A296214FF49E7005F020
:100A4000A4FAAFF29432C821CC2005F09EFAAFF29E
:100A500084324FF49671CC2005F097FAAFF28C32C5
:100A60004FF496714FF40B7005F08FFA1F201F4959
:100A7000088040F2511340F2111240F22711C720B2
:100A800005F025F94FF4A8734FF488724FF4947170
:100A9000C82005F01CF940F2511340F2712240F2D7
:100AA000271140F2272005F012F94FF4A8734FF4F4
:100AB0001C724FF494714FF40A7005F008F901208C
:100AC00004490870022008F0C0FD072002F072FD02
:100AD0006AE06AE0860000206000002000200140FB
:100AE000580000205B0000205A0000205600002023
:100AF000C9E3CFF1CDB7B3F5CABCBBAFCAA7B0DC71
:100B0000A3A10000C7EBD6D8D0C2C6F4B6AFBBF2E3
:100B1000D5DFB9D8BBFABCECB2E9C9E3CFF1CDB7A8
:100B2000000000005344BFA8D0B4C8EBCAA7B0DC93
:100B3000A3A10000200000005344BFA8B6C1C8A173
:100B4000CAA7B0DCA3A10000FE48007C00F0C000F2
:100B5000402829D1FB48007C20F04000F949087466
:100B600040F24F134FF4877240F22711C82007F06C
:100B700078FC20B1202005F00AF8FFF7FEFA40F2D9
:100B80004F1340F2712240F2271140F22B2007F060
:100B900068FC48B1202004F0FAFF4FF48061EA4875
:100BA00009F06FF900BFFEE7CEE710BD2DE9F04177
:100BB00006464FF4D2734FF425726421142004F0DA
:100BC0009AFF04F036FF282533E014270FE04FF496
:100BD000007000FB056114230246DC4803F046FE6A
:100BE00000B908E003F011FC322002F0E7FD781EA6
:100BF00080B2071EEBD100BF17B90320FFF73FFCFF
:100C0000022002F0DBFD00240DE0D048005D9128B9
:100C100004DD4FF6DF7004F0E1FE02E0202004F076
:100C2000DDFE601C84B2B4F5205FEEDB05F114003C
:100C300085B2B5F5DC7FC8DBBDE8F08110B50446B0
:100C40000020C349088000BF04F5C821204604F0F5
:100C5000E2F90028F8D1012008F0F7FC062002F0A4
:100C6000A9FC2FE0BB48007880F00100BA49087069
:100C7000BA480978405C28BBB54A12884FF4007323
:100C800003FB0241B44A127802EB8202AF4B03EB42
:100C9000C22014234FF4007204F099F810B102201E
:100CA000FFF7EDFB0120AD49AB4A12788854A84804
:100CB00000881430A649088008460088B0F5167FE1
:100CC00000D100E0CEE700BF10BD08B54FF6DF70E1
:100CD00004F05DFF1F205C2340F25632002100909B
:100CE000084604F06DFF1F209D49088020209D4983
:100CF000088004209C4908700A209C4908709CA226
:100D00001E21322005F041F94FF6DF70944908802A
:100D100020209449088003209349087097A26421F9
:100D20004FF43E7005F005F995A24FF4C6714FF4EB
:100D30003E7005F0FEF84FF478404FF4F07340F247
:100D400056324FF4DA71009040F2123004F038FF5E
:100D50004FF478408249088020208249088003208F
:100D600081490870AFF2F8724FF4DF714FF44770A9
:100D700005F0DFF84CF218604FF4D27340F2EE2227
:100D8000642100904FF4347004F01AFF44F20820FC
:100D90004FF4CD734FF439726E21009040F2DA2097
:100DA00004F00EFF47F6EF3040F2091340F2E9225B
:100DB000FF21009040F2D52004F002FF4FF4FC60C8
:100DC0006849088040F2A51340F295226321132060
:100DD00004F07DFF6B48FFF731FF6A48FFF7E6FE3E
:100DE000012069490870022008F02FFC072002F05A
:100DF000E1FB73E05348007C00F0C00040286DD157
:100E00000020614908700720FFF79CF94D48007CDD
:100E100020F040004B4908744FF4F07340F2563212
:100E20004FF4DA7140F2123007F01BFB00B156E0CC
:100E30004FF4CD734FF43E726E2140F2C62007F09E
:100E400010FBE0B34CF218604FF4D27340F2EE2284
:100E5000642100904FF4347004F0B2FE44F2082094
:100E60004FF4CD734FF439726E21009040F2DA20C6
:100E700004F0A6FE47F6EF3000903248C0890A30F1
:100E800083B23048C18940F2E92240F2D52004F013
:100E900097FE2C48C0896E381E2190FBF1F000F2BD
:100EA000DD303A4908800846018839480AF09AFB43
:100EB00002223649102007F09EFF324800E004E08D
:100EC000FFF7BCFE2F48FFF771FE01202E49087086
:100ED000022008F0BAFB072002F06CFB8AE700BF93
:100EE0000020294908700720FFF72CF908BD38B504
:100EF0004FF6DF7004F04BFE1F205C2340F25632A9
:100F000000210090084604F05BFE1F201449088071
:100F10002020144908800420134908700A2013492E
:100F200008701CA21E21322005F02FF840F2FF703D
:100F3000C42340F209226821009040F24D1004F0D1
:100F40003FFE2FE06000002000200140888C002040
:100F50000400002054000020020000205200002065
:100F600058000020560000205B0000205A0000209E
:100F7000B5C620B9E220B5F720BDDA00C1C1000036
:100F8000B0B500000000BADB860000200800002099
:100F900000040040CFB52020CDB32020C9E8202098
:100FA000D6C3000040F2FF70F84908802020F849BD
:100FB00008800420F7490870F7A2862140F26B10E0
:100FC00004F0B7FF40F2FF704FF4947340F209222F
:100FD000CC21009040F24D1004F0F2FD40F2FF7081
:100FE000EA4908802020EA4908800420E94908707D
:100FF000ECA2EA2140F26B1004F09BFF40F2FF707C
:101000004FF4C67340F209224FF49871009040F2F9
:101010004D1004F0D5FD40F2FF70DC49088020201F
:10102000DB4908800420DB490870E1A24FF4A77176
:1010300040F26B1004F07DFF4FF478404FF4F073F2
:1010400040F256324FF4DA71009040F2123004F060
:10105000B7FD4FF47840CD4908802020CC49088066
:101060000320CC490870AFF6F8224FF4DF714FF43B
:10107000477004F05EFF0120D0490870022008F09C
:10108000E4FA072002F096FA3CE0CD48007C00F03C
:10109000C000402836D1CA48007C20F04000C84932
:1010A0000874C42340F20922682140F24D1007F071
:1010B000D8F908B1012426E04FF4947340F20922D4
:1010C000CC2140F24D1007F0CCF908B102241AE00F
:1010D0004FF4C67340F209224FF4987140F24D105C
:1010E00007F0BFF908B103240DE04FF4F07340F2AC
:1010F00056324FF4DA7140F2123007F0B2F908B10B
:10110000002400E0C1E700BF0020AC4908700720C0
:10111000FFF718F8204638BD2DE9F05F824600271A
:101120000120A84908704FF4AF7B4FF00009E62575
:101130004DE04FF014080FE04FF4007000FB05A1E4
:101140000A230246A04803F091FB00B90AE003F02D
:101150005CF9322002F032FBA8F10100C0B2B0F11C
:101160000008E9D100BFB8F1000F02D10320FFF75A
:1011700086F9052002F022FB00241EE04FF42070C7
:1011800094FBF0F100FB114040F22621884212DA74
:101190004FF4207094FBF0F04844491048438B49C9
:1011A00001EB40004FF4207194FBF1F201FB12417E
:1011B000854A125D4254601C84B2B4F5A05FDDDB49
:1011C00009F1080000F0FF0905F10A0085B2B5F544
:1011D0009B7FAEDB00207E4908803F244DE04FF42A
:1011E000CD7544E0002640F213106043774901EBCF
:1011F0004001681E085C912802DD701C46B201E0C7
:10120000701E46B240F213106043704901EB40007B
:10121000405D912802DD701C46B201E0701E46B2AE
:1012200040F213106043694901EB4001681C085CFF
:10123000912802DD701C46B201E0701E46B240F2F9
:1012400013106043614901EB4001A81C085C912820
:1012500002DD701C46B201E0701E46B22EB95C4839
:10126000008828445A49088004E0681C85B2B5F516
:10127000E67FB7DB00BF601E84B23A2CAFDC544877
:101280000088052190FBF1F051490880084600884C
:10129000B0F5CD7F04DB08460088B0F5E67F04DDBD
:1012A00002204849087040F2091B4648007802288D
:1012B0006AD14FF00009C8254DE04FF014080FE047
:1012C0004FF4007000FB05A10A2302463E4803F0DC
:1012D000CDFA00B90AE003F098F8322002F06EFA75
:1012E000A8F10100C0B2B0F10008E9D100BFB8F127
:1012F000000F02D10320FFF7C2F8052002F05EFACA
:1013000000241EE04FF4207094FBF0F100FB11402C
:1013100040F22621884212DA4FF4207094FBF0F05C
:10132000484449104843294901EB40004FF42071DB
:1013300094FBF1F201FB1241234A125D4254601CFE
:1013400084B2B4F5A05FDDDB09F1080000F0FF090D
:1013500005F10A0085B2B5F58C7FAEDB00201C4993
:1013600008803F2473E04FF4CD756AE0002640F218
:1013700013106043154901EB4001681E085C912879
:1013800028DD701C46B227E07AE0000058000020FB
:10139000560000205B000020B5C6B9E2B5F7BDDA03
:1013A00000000000B4A5C6C1D0A3D7BC0000000057
:1013B000B9D8D3DACFEEC4BF000000008600002009
:1013C000600000200C000020888C0020DC00002041
:1013D0000A000020701E46B240F213106043FE491E
:1013E00001EB4000405D912802DD701C46B201E037
:1013F000701E46B240F213106043F74901EB400102
:10140000681C085C912802DD701C46B201E0701E69
:1014100046B240F213106043EF4901EB4001A81CB3
:10142000085C912802DD701C46B201E0701E46B2D5
:101430002EB9EA4800882844E849088004E0681C7E
:1014400085B2B5F5E67F91DB00BF601E84B23A2C11
:1014500089DCE2480088052190FBF1F0DF49088033
:1014600008460088B0F5CD7F04DB08460088B0F55B
:10147000E67F05DD0020DA4908700120BDE8F09F15
:10148000D6480088401E85B258E0D4480088001A2B
:10149000401FA84204DD781ED249085CC85502E00E
:1014A0000120D049C8553C2441E00026601E40F28E
:1014B00013114843C84901EB4000405D912802DD0B
:1014C000701C46B201E0701E46B240F21310604339
:1014D000C14901EB4000405D912802DD701C46B21D
:1014E00001E0701E46B2601C40F213114843BA4935
:1014F00001EB4000405D912802DD701C46B201E026
:10150000701E46B2A01C40F213114843B24901EBD1
:101510004000405D912802DD701C46B201E0701E63
:1015200046B216B9AF49CC5503E0601E84B2012C17
:10153000BBDC00BF781C87B2681E85B2A748008854
:10154000A0EB0B00401EA8429FDB4FF4FC60A649B5
:101550000880C32340F221328121F92004F0B7FB37
:10156000C2234FF448728221FA2004F0C4FA04F036
:1015700060FA002429E0002521E09848008885428F
:1015800005D096480088A0EB0B00A84204D14FF488
:10159000784004F023FA10E040F2131060438E49C3
:1015A00001EB4000405D912804DD4FF6FE7004F031
:1015B00015FA02E0012004F011FA681C85B240F22D
:1015C00026208542D9DB601C84B2402CD3DB4FF44B
:1015D00078408549088000240CE0824A125D02F1BF
:1015E00082017E4A1288121BFA3290B204F04BFA42
:1015F000601C84B25C45F0DB00203FE72DE9F04140
:1016000004460D46174604F596244FF40072214611
:10161000764803F09EF8002605E07448805D05F8E2
:10162000010B701CC6B2BE42F7DBBDE8F0812DE9AC
:10163000F04104460D461746002605E015F8010B5B
:101640006A498855701CC6B2BE42F7DB04F5962481
:1016500000BF04F50071204603F0DDFC0028F8D13E
:10166000052002F0ABF84FF4007221465F4803F00A
:10167000A2FABDE8F08170B505460C4603234FF48D
:1016800000720021594803F0F1F800B170BD02204A
:1016900002F094F84FF4C061002003F0BCFC02207B
:1016A00002F08CF81DB101205049085502E00020DD
:1016B0004E49085503234FF4007200214B4803F0B4
:1016C00086FB00BFE2E72DE9F04107F0F8FC07F0E8
:1016D00026FD43480078012802D14FF4AF7705E09A
:1016E0003F480078022801D140F209173D480078B0
:1016F000C0F136004A21484306B2002487E0002E9C
:101700000BDD002506E04FF4FA71032007F090FC92
:10171000681C85B2B542F6DB0EE0002E0CDA704292
:1017200006B2002506E04FF4FA71042007F080FCB1
:10173000681C85B2B542F6DB5A2C02DBB4F5827F19
:101740000BDD002506E04FF49671022007F070FCD7
:10175000681C85B2482DF6DB0AE0002506E04FF450
:101760009671022007F064FC681C85B2492DF6DBF7
:101770001C48015D0246601C105C081AC0EB00109A
:1017800000EB800006B2781EA04200D100264FF682
:101790001F0015490880134A125D02F181010F4AAA
:1017A0001288121BFA3290B204F06DF90D4A125DE4
:1017B00002F18201094A1288121BFA3290B204F037
:1017C00062F9084A125D02F18301044A1288121B71
:1017D000FA3290B20CE00000DC0000200A00002089
:1017E0000C0000205C8A002056000020888C00201D
:1017F00004F049F9FE4A125D02F18401FD4A1288A3
:10180000121BFA3290B204F03EF9601C84B2BC4262
:10181000FFF675AF002506E04FF49671042007F03F
:1018200007FC681C85B2B5F57A7FF5DB4FF40061E3
:10183000F14808F026FB07F042FCBDE8F08100B556
:10184000ABB001202A9029904FF6DF7004F09FF989
:101850001F205C2340F2563200210090084604F01D
:10186000AFF91F20E54908802020E54908800420C1
:10187000E44908700A20E4490870E4A21E213220DD
:1018800004F083FB4FF478404FF4F07340F256328B
:101890004FF4DA71009040F2123004F091F94FF4F5
:1018A0007840D64908802020D54908800320D549B2
:1018B0000870D94A4FF4DF714FF4477004F039FBD8
:1018C0000A22D649142007F082FAD4480089002859
:1018D00046D14FF6DF70C94908804FF47840C849B7
:1018E00008800A20C84908700420C6490870CCA2A4
:1018F000E62140F24B1004F01CFB4FF49C734FF4B4
:101900001772B421FA2004F0E2F90120C8490870E6
:10191000022007F09AFE072001F04CFE1FE0C548A8
:10192000007C00F0C000402819D1C248007C20F0A3
:101930004000C04908744FF4F07340F256324FF43F
:10194000DA7140F2123006F08CFD40B10020B84947
:1019500008700720FEF7F6FB00202BB000BDDEE785
:101960004FF6DF70A54908804FF47840A4490880FD
:101970000320A4490870B0A27221402004F0D9FAD3
:10198000AFA24FF4D971402004F0D3FA9123B422CE
:101990006B21142004F09BF940F2D113B42240F2E1
:1019A000AB11142004F093F94FF6DF7093490880CF
:1019B0004FF47870924908800420924908700A20F8
:1019C00091490870A0A2FA2140F2AD1004F0B1FADA
:1019D000A1A24FF4B47140F2AD1004F0AAFA4FF492
:1019E00092734FF42F72F021501004F070F94FF4FD
:1019F000C9734FF42F725110084604F068F940F291
:101A0000FF707E49088020207D49088004207D49A0
:101A100008700A207C49087093A29621142004F0D3
:101A2000B4FA7E480068102205A90390FFF7E6FD8E
:101A3000BDF8200000909DF8220003468CA296215C
:101A40000390642004F059FA05980390FFF764FBB3
:101A50004FF6DF706949088020206949088004201A
:101A6000684908700A20684908700120049038E02D
:101A700005A9049801EB001003900498401E01EBA7
:101A800000108068102202900399FFF7B7FD0498B8
:101A900000EB8000C000963073A201460390142032
:101AA00004F073FA05A9049801EB001080890090F6
:101AB000049801EB0010807B0390049800EB8000F9
:101AC000C000963002906AA201466420039B04F095
:101AD00014FA0498062800D108E00498401CC0B20B
:101AE00004904E48018904988142C1DC00BF00BFC8
:101AF0004FF47A7001F062FE01204D490870022017
:101B000007F0A3FD072001F055FDFDE34948007CE7
:101B100000F0C0004028F8D1002045490870072097
:101B2000FEF710FB4348007C20F040004149087458
:101B30004FF4F07340F256324FF4DA7140F2123043
:101B400006F08FFC08B1002007E74FF492734FF4C2
:101B50002F72F021501006F084FC60B34FF6DF7056
:101B600040F2D1134FF43E72E12100904FF4917096
:101B700004F026F80420234908700A20224908703E
:101B80004FF478401E4908804FF6DF701B490880EB
:101B90004FF4E67340F2F322E62140F2271004F0FE
:101BA00096F835A240F24911081D04F0EEF9FFF74E
:101BB0008AFD0120D1E64FF4C9734FF42F72511002
:101BC000084606F04EFC00287ED02A98401EC0EB46
:101BD000C00129980844012877D1104800890128BC
:101BE00061D14FF4A051002003F015FA002051E01C
:101BF0005C8A00200A0000200020014058000020DC
:101C0000560000205B0000205A000020C5E420BEE2
:101C1000C920D4BF20B3D70070050008C000002041
:101C2000C3BBD3D0D3C3BBA7CAFDBEDD0000000039
:101C30008600002060000020C9CFD2BBD2B30000D4
:101C4000CFC2D2BBD2B30000CAB9D3C3C4A3B0E5DC
:101C5000C5E4C8A100000000C9BEB3FDD3C3BBA743
:101C6000CAFDBEDD00000000B1E0BAC53A000000C8
:101C70002563256400000000D5FDD4DAC7D0B8EE96
:101C8000D4BFB3D72CC7EBD7A2D2E2B0B2C8AB2136
:101C900000000000FE490881086048600A22142004
:101CA00007F0A9F890E0FA480089401EF849088139
:101CB0000998086000210A91BDF8200001460490AF
:101CC0000120FFF7D8FC01E080E00BE0099810222A
:101CD00009A90490FFF7ABFC0A22ED49142007F094
:101CE0008AF871E02A98401EC0EBC0012998084488
:101CF000E749098988422BD12998401E05A901EBA3
:101D000000104068102221A90490FFF777FCE048FA
:101D10000089401EDE49088121984860002105A8FD
:101D200081672998401E05A901EB001080890146B2
:101D300004900120FFF79FFC2198102221A9049014
:101D4000FFF775FC0A22D249142007F054F83BE053
:101D50002998401E05A901EB00104068102221A916
:101D60000490FFF74BFC2998401E05A901EB0010D9
:101D70008068102225A90490FFF740FCC448008920
:101D8000401EC349088105A825998167219926919C
:101D90002998401E05A901EB001080890146049096
:101DA0000120FFF768FC2198102221A90490FFF779
:101DB0003EFC2598102225A90490FFF738FC0A2242
:101DC000B349142007F017F80120C6E59123B42287
:101DD0006B21142006F045FB00287DD02A980128AD
:101DE0007BDD2A98401E80B22A9001202990069817
:101DF00010221DA90390FFF701FC0620049012E0B9
:101E00000498401E05A901EB00100390049801EB13
:101E100000104068102202900399FFF7EFFB04982E
:101E2000401EC0B2049004980028E9DC40F2FF7123
:101E3000984801802020984908800420974908701C
:101E40000A2097490870AFF2E0129621142004F09E
:101E50009CF8BDF8200000909DF822000346AFF2E8
:101E6000F01296210390642004F047F8059803903F
:101E7000FFF752F94FF6DF70864908802020864927
:101E800008800420854908700A21854801700120D6
:101E900004902AE0049800EB8000C0009630AFF276
:101EA000382201460390142004F06FF805A9049825
:101EB00001EB001080890090049801EB0010807BFA
:101EC0000390049800EB8000C00096300290AFF2BF
:101ED00060220146642001E00BE04CE2039B04F029
:101EE0000CF80498401CC0B2049004980728D1DB79
:101EF00041E240F2D113B42240F2AB11142006F0BB
:101F0000B0FA00287ED062480089401E072190FB6D
:101F1000F1F0401C2A998842EADD2A98401C80B2E0
:101F20002A90012029904FF6DF7040F2A713B522C6
:101F300095210090132003F043FE40F2FF705549B5
:101F400008802020544908800420544908700A2041
:101F500053490870AFF2F0229621142004F015F8CE
:101F60001F98102205A90290FFF748FBBDF820003A
:101F700000909DF822000346AFF20C3296210290A9
:101F8000642003F0BAFF05980290FFF7C5F84FF6FA
:101F9000DF704049088020203F49088004203F49E5
:101FA00008700A203E4908702A98C0EBC000401C07
:101FB00080B204900120039040E005A9039801EB52
:101FC000001002900398401E01EB00108068102260
:101FD00001900299FFF712FB039800EB8000C0000C
:101FE0009630AFF27C3201460290142003F0CDFF10
:101FF00005A9039801EB001080890090039801EB7C
:10200000001000E021E0807B0290039800EB80004C
:10201000C00096300190AFF2A83201466420029BC6
:1020200003F06BFF0398062800D10CE00498401CD5
:1020300080B204900398401CC0B2039014480189F8
:1020400004988142B9DC00BFB5E3BA23B4229221DF
:10205000142006F006FA00287ED02A98401EC0EB15
:10206000C000401C0A4909898842EDDC29980128F2
:10207000EAD04FF6DF700749088020200649088023
:102080000420064908700A2005490870299809E0CB
:10209000C000002058000020560000205B000020F7
:1020A0005A00002000EB8000C0006E3080B2AFF21A
:1020B000484201460490142003F067FF2998401E0F
:1020C00005A901EB0010808900902998401E01EBC2
:1020D0000010807B0490299800EB8000C0006E30D7
:1020E00080B20390AFF2784201466420049B03F073
:1020F00004FF0120299040F2FF70FE490880202053
:10210000FD490880299800EB8000C0006E30AFF2D6
:10211000A84201460490142003F037FF2998401E7E
:1021200005A901EB0010808900902998401E01EB61
:102130000010807B0490299800EB8000C0006E3076
:102140000390AFF2D44201466420049B03F0D5FE15
:102150002998401E05A900E006E001EB0010006888
:102160000490FEF7D9FF26E3E223B422BA2114201B
:1021700006F077F900287AD02A98401EC0EBC000FC
:10218000801CDE4909898842EDDC29980228EAD0C2
:102190004FF6DF70D74908802020D74908800420F7
:1021A000D74908700A20D7490870299800EB8000A9
:1021B000C0006E3080B2AFF250520146049014203D
:1021C00003F0E3FE2998401E05A901EB0010808969
:1021D00000902998401E01EB0010807B0490299804
:1021E00000EB8000C0006E3080B20390AFF28052EE
:1021F00001466420049B03F080FE0220299040F2F7
:10220000FF70BC4908802020BB490880299800EB5A
:102210008000C0006E30AFF2B0520146049014202E
:1022200003F0B3FE2998401E05A901EB0010808938
:1022300000902998401E01EB0010807B04902998A3
:1022400000EB8000C0006E300390AFF2DC5201461C
:102250006420049B03F051FE2998401E05A901EB60
:10226000001000680490FEF757FFA4E2FFE74FF468
:102270008573B422E221142006F0F3F800287CD004
:102280002A98401EC0EBC000C01C9C4909898842A6
:10229000EBDC29980328E8D04FF6DF7095490880D9
:1022A0002020954908800420954908700A20954906
:1022B0000870299800EB8000C0006E3080B2AFF249
:1022C000586201460490142003F05FFE2998401ED6
:1022D00005A901EB0010808900902998401E01EBB0
:1022E0000010807B0490299800EB8000C0006E30C5
:1022F00080B20390AFF2886201466420049B03F031
:10230000FCFD0320299000E05EE240F2FF70794975
:102310000880202078490880299800EB8000C000C0
:102320006E30AFF2BC6201460490142003F02DFE23
:102330002998401E05A901EB00108089009029987A
:10234000401E01EB0010807B0490299800EB800078
:10235000C0006E300390AFF2E86201466420049B37
:1023600003F0CBFD2998401E05A901EB0010006881
:102370000490FEF7D1FE1EE2FFE74FF49973B422FA
:102380004FF48571142006F06CF800287AD02A9852
:10239000401EC0EBC000001D584909898842EADC94
:1023A00029980428E7D04FF6DF7052490880202092
:1023B000514908800420524908700A205149087088
:1023C000299800EB8000C0006E3080B2AFF26872D6
:1023D00001460490142003F0D8FD2998401E05A959
:1023E00001EB0010808900902998401E01EB00103D
:1023F000807B0490299800EB8000C0006E3080B292
:102400000390AFF2947201466420049B03F075FDC3
:102410000420299040F2FF70364908802020364978
:102420000880299800EB8000C0006E30AFF2C872BF
:1024300001460490142003F0A8FD2998401E05A928
:1024400001EB0010808900902998401E01EB0010DC
:10245000807B0490299800EB8000C0006E300390D0
:10246000AFF2F47201466420049B03F046FD299804
:10247000401E05A901EB001000680490FEF74CFE19
:1024800099E1FFE74FF4AD73B4224FF49971142032
:1024900005F0E7FF00287DD02A98401EC0EBC00061
:1024A000401D164909898842EADC29980528E7D0A9
:1024B0004FF6DF700F49088020200F490880042064
:1024C0000F4908700A200F490870299800EB800016
:1024D000C0006E3080B2AFF6700201460490142046
:1024E00003F053FD2998401E05A901EB00108089D7
:1024F000009009E05800002056000020C000002095
:102500005B0000205A0000202998401E01EB0010BB
:10251000807B0490299800EB8000C0006E3080B270
:102520000390AFF6B40201466420049B03F0E5FC7F
:102530000520299040F2FF70FE4908802020FE49C6
:102540000880299800EB8000C0006E30AFF6E802EA
:1025500001460490142003F018FD2998401E05A997
:1025600001EB0010808900902998401E01EB0010BB
:10257000807B0490299800EB8000C0006E300390AF
:10258000AFF6141201466420049B03F0B6FC2998B0
:10259000401E00E007E005A901EB00100068049070
:1025A000FEF7BAFD07E14FF4C173B4224FF4AD71E9
:1025B000142005F056FF00287AD02A98401EC0EB60
:1025C000C000801DDD4909898842EBDC2998062876
:1025D000E8D04FF6DF70D74908802020D649088020
:1025E0000420D74908700A20D6490870299800EBC2
:1025F0008000C0006E3080B2AFF6941201460490A5
:10260000142003F0C2FC2998401E05A901EB00101C
:10261000808900902998401E01EB0010807B049077
:10262000299800EB8000C0006E3080B20390AFF6B6
:10263000C01201466420049B03F05FFC0620299031
:1026400040F2FF70BB4908802020BB4908802998D0
:1026500000EB8000C0006E30AFF6F412014604902B
:10266000142003F092FC2998401E05A901EB0010EC
:10267000808900902998401E01EB0010807B049017
:10268000299800EB8000C0006E300390AFF6202246
:1026900001466420049B03F030FC2998401E05A9E4
:1026A00001EB001000680490FEF736FD83E0FFE7C1
:1026B0004FF4D573B4224FF4C171142005F0D1FE4C
:1026C000002878D02A98401EC0EBC000C01D9B494E
:1026D000098988426FDC299807286CD04FF6DF7093
:1026E0009449088020209449088004209449087067
:1026F0000A2094490870299800EB8000C0006E30D1
:1027000080B2AFF69C2201460490142003F03DFCF9
:102710002998401E05A901EB001080890090299896
:10272000401E01EB0010807B0490299800EB800094
:10273000C0006E3080B20390AFF6CC220146642018
:10274000049B03F0DAFB0720299040F2FF707949DF
:102750000880202078490880299800EB8000C0007C
:102760006E30AFF6FC2201460490142003F00DFCFD
:102770002998401E05A901EB001080890090299836
:10278000401E01EB0010807B0490299800EB800034
:10279000C0006E300390AFF6283201466420049BDF
:1027A00003F0ABFB2998401E05A901EB001000685F
:1027B0000490FEF7B1FC012063490870022006F086
:1027C00044FF072000F0F6FEFFF7A0B910B5032381
:1027D0004FF4007200215D4802F048F808B1002073
:1027E00010BD012406E05948005D08B12046F7E716
:1027F000601C84B242F20F708442F4DB0020EFE7E9
:1028000070B505460026002404E0AA204F4908556B
:10281000601C84B2B4F5205FF7DB24E000BF05F54F
:10282000C821284602F0F7FB0028F8D10126002431
:1028300015E0052000F0C2FF4FF4007000FB0451CA
:1028400014230246414802F0C2FA28B101F0DDFD2E
:10285000002605F5C82505E004F1140084B2B4F59E
:102860001B7FE6DB00BF002ED8D0284670BD2DE9C7
:10287000F8434FF6DF7003F08AF91F205C2340F223
:10288000563200210090084603F09AF91F2029498A
:1028900008802020284908800420294908700A203F
:1028A000284908702AA21E21322003F06EFB4FF641
:1028B000DF70204908804FF61F001F490880042060
:1028C0001F4908700A201F49087024A2782114208B
:1028D00003F05BFB24A2A0211E2003F02AFB26A20A
:1028E0008C214FF4C87003F050FB4FF6DF70114994
:1028F00008802020104908800420114908700A200F
:102900001049087020A2FF21142003F03EFB21A2F1
:1029100040F227111E2003F00CFB4FF6DF70054933
:1029200008802020044908800420054908700A20F6
:10293000044937E05800002056000020C000002065
:102940005B0000205A00002086000020888C0020B8
:10295000C5E420D0C220D4BF20B3D700B2BDD6E892
:102960002031203A00000000CDBCCFF1B2C9BCAF8D
:10297000B4A6C0ED00000000D5FDD4DAB2C9BCAFEA
:10298000CDBCCFF12E2E2E00B2BDD6E82032203A9B
:1029900000000000BFAACABCC5E4C8A1D4BFB3D719
:1029A000000000000870FEA24FF4C371142003F071
:1029B000ECFAFEA24FF4D7711E2003F0BAFA0A22F5
:1029C000FE49142006F003FAFC49496801F5C820C5
:1029D000FFF716FF0546002764E12846FEF72EF9AB
:1029E0002846FEF799FB002877D0C8244FF6DF7001
:1029F000F34908804FF47840F24908800420F249F6
:102A000008700A20F1490870F1A2FA2140F28D10F5
:102A100003F08FFAF3A24FF4917140F23D1003F0EE
:102A200088FAF74A4FF4CD7140F2A62003F081FAFC
:102A3000F4A24FF4CD714FF49A7003F0A6FA4FF45C
:102A4000E67340F2F322E62140F2271003F03FF94B
:102A50004FF4E27340F2B912610040F22F1003F01C
:102A600036F94FF4E27340F2EB22610040F2A1200C
:102A700003F02DF90120E6490870022006F0E5FD7B
:102A8000072000F097FD61E0E248007C00F0C00004
:102A9000402837D1DF48007C20F04000DD49087431
:102AA0004FF4E27340F2B9124FF4C87140F22F10A4
:102AB00005F0D7FC90B10020D54908700720FDF73C
:102AC00041FB4FF6DF704FF4EB7340F22A3278216E
:102AD0000090F02003F074F839E039E04FF4E2732D
:102AE00040F2EB224FF4C87140F2A12005F0B9FC8E
:102AF00040B10020C64908700720FDF723FB0020E5
:102B0000BDE8F883601E84B2142094FBF0F84346BD
:102B1000C1A24FF4CD714FF4C27003F0EEF9322030
:102B200000F04CFE052C11DA0020B949087007208E
:102B3000FDF708FB4FF6DF704FF4EB7340F22A32DB
:102B400078210090F02003F03BF800E09CE7A9E03A
:102B500078244FF4FC609B490880C32340F2213263
:102B60008121F92003F0B3F84FF6DF709449088013
:102B70004FF47840934908800420934908700A2054
:102B800092490870A5A2FA2140F28D1003F0D1F904
:102B9000A7A24FF4917140F2431003F0CAF9A9A221
:102BA0004FF4CD7140F2A62003F0C3F9A7A24FF471
:102BB000CD714FF49A7003F0E8F94FF4E67340F2E8
:102BC000F322E62140F2271003F081F84FF4E2737C
:102BD00040F2B9124FF4C87140F22F1003F077F8A9
:102BE0004FF4E27340F2EB224FF4C87140F2A1209F
:102BF00003F06DF8012086490870022006F025FDDB
:102C0000072000F0D7FC4BE08248007C00F0C000B9
:102C100040282BD17F48007C20F040007D4908747B
:102C20004FF4E27340F2B9124FF4C87140F22F1022
:102C300005F017FC38B10020754908700720FDF732
:102C400081FA01272DE04FF4E27340F2EB224FF4BA
:102C5000C87140F2A12005F004FC38B100206C4995
:102C600008700720FDF76EFA002049E7601E84B265
:102C7000142094FBF0F8434667A24FF4CD714FF453
:102C8000C27003F03AF9322000F098FD052C07DA03
:102C900000205F4908700720FDF754FA012700E083
:102CA000B2E700BF002F3FF498AE4FF6DF70444903
:102CB00008804CF21860434908800420424908709B
:102CC0000A2042490870AFF26C327821142003F0D8
:102CD0005CF9AFF26C32A0211E2003F02AF94FF606
:102CE000DF70374908804FF61F00364908800420FE
:102CF000354908700A2035490870AFF27432FF2157
:102D0000142003F042F9AFF2743240F227111E2072
:102D100003F00FF94FF6DF70294908802020294978
:102D200008800420284908700A20284908701CA23D
:102D30004FF4C371142003F028F91CA24FF4D7718B
:102D40001E2003F0F6F84FF6DF7040F2D1134FF477
:102D50003E72E12100904FF4917002F031FF4FF488
:102D60007840184908804FF6DF70154908804FF405
:102D7000E67340F2F322E62140F2271002F0A7FFAB
:102D8000354A40F24911081D03F0FFF8FEF79BFC9D
:102D90004FF6DF700A4908804CF2186009495DE07F
:102DA000B2BDD6E82033203A00000000B1A3B4E65B
:102DB000D4BFB3D7CAFDBEDD00000000C0000020B4
:102DC00058000020560000205B0000205A00002020
:102DD000CDBCCFF1B2C9BCAFB4A6C0EDCAA7B0DCC0
:102DE00000000000C7EBBCECB2E9D4BFB3D7BAF324
:102DF000D6D8D0C2B2C9BCAFBBF2B7B5BBD8000001
:102E000070050008D6D8CAD42839732900000000FC
:102E1000860000206000002025316400CDBCCFF189
:102E2000B2C9BCAFB4A6C0EDB3C9B9A600000000DA
:102E3000C7EBC8B7C8CFCAC7B7F1CAB9D3C3CDBCEF
:102E4000CFF1BBF2B7B5BBD800000000C8B7B6A839
:102E50002835732900000000781C00080880042031
:102E6000FE4908700A20FE490870AFF2105278211E
:102E7000142003F08AF8AFF21052A0211E2003F0B4
:102E800058F84FF6DF70F74908804CF21860F649A1
:102E900008800420F14908700A20F1490870AFF257
:102EA0001852FF21142003F070F8AFF2185240F2CC
:102EB00027111E2003F03DF84FF6DF70E949088026
:102EC0004FF61F00E84908800420E44908700A20F2
:102ED000E3490870AFF238124FF4C371142003F0C5
:102EE00054F8AFF238124FF4D7711E2003F021F8D6
:102EF0004FF6DF704FF4EB734FF452726421009081
:102F0000F02002F05DFE4FF6DF70D64908804FF4E6
:102F10007840D54908800420D04908700A20D0495B
:102F20000870D2A2962140F22D1003F02EF8D7A2FD
:102F3000C82140F29D1003F028F8FFF747FC064631
:102F40003346D5A2C82140F24B2002F0D6FFD3A2CF
:102F500040F2891140F21D1003F017F8D1A240F29F
:102F6000891140F27D2003F010F84FF4DC734FF428
:102F7000437282214FF4877002F0A9FE4FF4D77399
:102F80004FF4B1724FF4C2714FF48C7002F09FFE97
:102F90004FF4D77340F202324FF4C2714FF41E70F7
:102FA00002F095FE0120C2490870022006F04DFB98
:102FB000072000F0FFFAC824A4E0BE48007C00F01F
:102FC000C00040287CD1BB48007C20F04000B949BB
:102FD00008744FF4D7734FF4B1724FF4C2714FF4C9
:102FE0008C7005F03EFA00286CD0B348008958BBBD
:102FF000B2480078012803D14220B149887306E025
:10300000AE480078022802D15320AD4988730120D0
:10301000AB49888100204860886008460560A64862
:10302000056045600120A44908811022A449284672
:10303000FEF7FDFA0A22A049142005F0DCFE01216A
:103040000020FEF718FB3AE09B49102248689C4993
:10305000FEF7D4FA9A488560974910224868984943
:10306000FEF7E5FA94480089401C9349088193488B
:103070000078012803D142209149887306E08F48E7
:103080000078022802D153208D4988738C488681AC
:10309000894840688A494860002088600846056081
:1030A0008548456010222846FEF7C1FA0A22824967
:1030B000142005F0A0FE31460020FEF7DCFA22E0E5
:1030C0000CE0FFE74FF4D77340F202324FF4C271C5
:1030D0004FF41E7005F0C5F900B114E0601E84B213
:1030E000142094FBF0F84346AFF2D42240F2891149
:1030F00040F2CD2002F001FF322000F05FFB052CF2
:1031000000DA00E059E700BF002069490870072095
:10311000FDF718F80020F3E438B54FF6DF7002F041
:1031200036FD1F205C2340F25632002100900846F5
:1031300002F046FD1F204B49088020204A490880A4
:103140000420464908700A20454908705DA21E21E6
:10315000AB2002F01AFF40F2FF70C42340F20922B4
:103160006821009040F24D1002F02AFD40F2FF70FD
:103170003C49088020203C490880042037490870D9
:1031800059A2862140F26B1002F0D3FE40F2FF708C
:103190004FF4947340F20922CC21009040F24D107C
:1031A00002F00EFD40F2FF702E49088020202E49CB
:1031B00008800420294908704EA2EA2140F26B10D1
:1031C00002F0B7FE40F2FF704FF4C67340F20922DE
:1031D0004FF49871009040F24D1002F0F1FC40F273
:1031E000FF702049088020201F49088004201B49C7
:1031F000087043A24FF4A77140F26B1002F099FEE1
:103200004FF478404FF4F07354224FF4D67100908D
:10321000002002F0D5FC4FF47840124908802020AD
:103220001149088004200D49087038A24FF4DB7161
:103230000A2002F07EFE4FF478404FF4F07340F223
:1032400056324FF4D671009040F2023002F0B8FCD2
:103250004FF478400349088020205BE05B000020A9
:103260005A0000205800002056000020C7EBC8A1DB
:10327000B3F6D4BFB3D72C20CAC7B7F1B1A3B4E615
:10328000D3C3BBA7CAFDBEDD00000000D3C3BBA7EC
:10329000B1E0BAC53A20000025346400B1A3B4E619
:1032A00000000000C8A1CFFB2839732900000000EE
:1032B0008600002060000020C00000200C000020DC
:1032C000CC000020C8AB20D7D420B6AF20CAFD2048
:1032D000D7D620D4BF20B3D720C5E420C8A120D79B
:1032E000B020D6C300000000C5E4D0C2D4BFB3D71D
:1032F00000000000C5E4BEC9D4BFB3D70000000081
:10330000CFB5CDB3C9E8D6C300000000B0EFD6FA00
:1033100000000000AE4908800420AE490870AE4AA3
:103320004FF4DB714FF4437002F003FE4FF6DF7091
:10333000AA4908802020A64908800320A5490870D2
:103340000920A7490870A7A24FF4DF71C12002F03D
:103350001CFE0120AD490870022006F076F9072016
:1033600000F028F94FE0AA48007C00F0C000402897
:1033700049D1A748007C20F04000A5490874C42327
:1033800040F20922682140F24D1005F06AF808B1B8
:10339000012439E04FF4947340F20922CC2140F229
:1033A0004D1005F05EF808B102242DE04FF4C6730D
:1033B00040F209224FF4987140F24D1005F051F897
:1033C00008B1032420E04FF4F07344224FF4DA7183
:1033D000002005F046F808B1042415E04FF4F0731E
:1033E00040F256324FF4DA7140F2123005F039F8FB
:1033F00048B1202002F0CBFB4FF48061854806F0F5
:1034000040FD00BFFEE7AEE700BF00207F49087027
:103410000720FCF797FE204638BD05F003FD4FF46A
:10342000A06005F0F5FE00F005F905F0AEFC02F035
:10343000D9FE77490868804705E000F0E6FF764945
:10344000087000B907E0754801780078401E734A9B
:1034500010700029F1D100BF6F48007810B1012031
:10346000FDF70DF802F02CF910B10520FDF707F873
:1034700005F025FE02226A49102005F0A8FC40F262
:10348000E231684808F0AEF84FF4A051002001F096
:10349000C2FD002064490881086048600A221420A7
:1034A00005F0A9FC4CE0FFF737FE604908700846BC
:1034B000007801280AD107E0FFF7D9F95B490870C5
:1034C0000846007800B900E0F6E739E05748007890
:1034D00002280AD107E0FEF7B2F9544908700846FD
:1034E000007800B900E0F6E72AE0504800780328A9
:1034F00020D11DE0FDF7FBFC4C4908700846007820
:10350000012802D1FDF7E1FB12E0484800780228CB
:1035100003D13F49886880470AE04448007803287F
:1035200002D1FCF7CBFE03E04048007800B900E090
:10353000E0E705E03D480078042801D1FCF739FEBA
:10354000B1E770B5FF2000F0AFF800252EE00526AA
:1035500008E069020A234FF40072354801F086F949
:1035600000B903E0701E80B2061EF2D100BF0EB992
:1035700000BFFEE7002413E02D48005D18B90120CC
:103580002B49085506E02A48005DFF2802D1FE209D
:10359000274908552649085D00F086F8601C84B26A
:1035A000B4F5A05FE8DB05F10A0085B2B5F5167F3A
:1035B000CDDB70BD002809DB00F01F020121914026
:1035C0004209920002F1E022C2F8001170470000A7
:1035D000560000205B000020D406000858000020A0
:1035E0005A000020B5E7D7D3D0C5CFA2B9A4B3CC39
:1035F000D1A7D4BA2D2D2DB9A4B3CCD1B5C1B7D68E
:10360000D0D0C420323031352E3132008600002037
:103610006000002000200140000000200100002088
:103620000800002000040040C00000200600002028
:10363000888C002000B585B0012144F2040006F01A
:103640002FFE4FF40070ADF8100018208DF8130015
:1036500003208DF8120004A9334806F065FB4FF4EF
:103660008060ADF8100004208DF8130004A92E48E6
:1036700006F05AFB4FF4E13000900020ADF8040052
:10368000ADF80600ADF808000C20ADF80A000020E7
:10369000ADF80C006946254808F027F801212348B9
:1036A00008F0AFF805B000BD10B5044600BF4021DA
:1036B0001E4808F081F90028F9D021461B4808F07F
:1036C0000DF910BD10B50D20FFF7EEFF0A20FFF732
:1036D000EBFF10BD10B504460BE014F8011B1348B6
:1036E00008F0FCF800BF8021104808F065F90028B8
:1036F000F9D020780028F0D110BD0FB400B591B0FA
:103700004021684608F0BBFA13A810904021684693
:10371000109B129A08F03AFF002010906846FFF7BD
:10372000D9FF11B05DF814FB0008014000380140DA
:103730003FE000BF00BF00BF00BF00BF00BF00BF31
:1037400000BF00BF00BF00BF00BF00BF00BF00BF81
:1037500000BF00BF00BF00BF00BF00BF00BF00BF71
:1037600000BF00BF00BF00BF00BF00BF00BF00BF61
:1037700000BF00BF00BF00BF00BF00BF00BF00BF51
:1037800000BF00BF00BF00BF00BF00BF00BF00BF41
:1037900000BF00BF00BF00BF00BF00BF00BF00BF31
:1037A00000BF00BF00BF00BF00BF00BF00BF00BF21
:1037B00000BF011EA0F10100BBD1704700B5034658
:1037C00003E04FF47A70FFF7B3FF181EA3F1010373
:1037D000F7D100BD10B5F64805F070FE10BD30B54C
:1037E0008BB005460C46F34805F07CFE0021F248FC
:1037F00005F049FEF1480090019500200290A008D4
:1038000003900020049080200590800006908000A6
:103810000790002008904FF40050099000200A9073
:103820006946E54805F004FE0121E34805F02BFE5A
:103830000BB030BD30B58BB005460C46DD4805F009
:1038400051FE0021DC4805F01EFEDC480090019589
:1038500010200290A0080390002004908020059082
:103860008000069080000790002008904FF40050E0
:10387000099000200A906946CF4805F0D9FD012142
:10388000CD4805F000FE0BB030BD10B50121302051
:1038900006F006FD012140F2024006F0F4FC4FF470
:1038A000F850C74908801820C87003208870C548A0
:1038B00006F03AFA0420C2490880C34806F034FAF8
:1038C00010BD08B531208DF8000000208DF80100F2
:1038D0008DF8020001208DF80300684605F09DFC7C
:1038E00008BD014600BFB5488038406B00F0450078
:1038F0000028F8D040F2FF50B04A803A906310465A
:10390000406908221040C0B270472DE9FC410746CB
:103910000E46002500240020009001900820AB49AD
:10392000086010204860402088600020C8604FF484
:1039300080600861084606F065FD1020FFF7D1FFA2
:10394000054615B12846BDE8FC81A1480088000461
:103950009E49086037204860402088600020C86089
:103960004FF480600861084606F04CFD3720FFF7F1
:10397000B8FF05460DB12846E5E74FF0FF30954901
:10398000086008204860302088600220C86000205D
:10399000086101204861084606F05DFD002400E052
:1039A000641C142CFCD300240020884908603320B8
:1039B0004860402088600020C8604FF48060086143
:1039C000084606F01FFD3320FFF78BFF05460DB1BB
:1039D0002846B8E70CE04FF4001006F08AFD38B135
:1039E00006F05BFD4DF82400641C022C00D107E0BA
:1039F00072488038406B40F22A6108400028EAD0C3
:103A000000BF082006F075FD28B1082006F07BFDF8
:103A10000425284697E7022006F06BFD28B1022016
:103A200006F071FD022528468DE7202006F061FD95
:103A300028B1202006F067FD0625284683E74FF4CD
:103A4000007006F056FD30B14FF4007006F05BFDDB
:103A50000725284677E740F2FF5006F054FD00980E
:103A60000006009901F47F4140EA0120009901F429
:103A70007F0140EA1120009940EA116070600198CE
:103A80000006019901F47F4140EA0120019901F407
:103A90007F0140EA1120019940EA11603060284618
:103AA00051E77CB50546002400200090019006F007
:103AB000C7FC00F0007010B10E2420467CBD4449C4
:103AC000098888B26946FFF720FF04460CB12046FA
:103AD000F4E7012D36D1019800F4802000282ED083
:103AE0003B4800880004394908603720486040207E
:103AF00088600020C860A8020861084606F082FCC1
:103B00003720FFF7EEFE04460CB12046D6E7022030
:103B10002E49086006204860402088600020C86068
:103B20004FF480600861084606F06CFC0620FFF741
:103B3000D8FE04460CB12046C0E72046BEE7252447
:103B40002046BBE7019800F4803078B32048008815
:103B500000041E490860372048604020886000202B
:103B6000C8604FF480600861084606F04BFC3720BF
:103B7000FFF7B7FE04460CB120469FE7002013492B
:103B8000086006204860402088600020C8604FF42C
:103B900080600861084606F035FC0620FFF7A1FEAC
:103BA00004460CB1204689E7204687E714E0000070
:103BB0000020001000F0001044040240808001400A
:103BC0002400002000100140001401405C8C002003
:103BD00014000020708C0020252420466EE770B56C
:103BE00004460025FC480068032802D12725284602
:103BF00070BDF948006838B1F7480068012803D063
:103C0000F548006802282ED1B4F5805F02D127253F
:103C10002846EDE7B4F5006F14D10120FFF741FF0E
:103C2000054605BB0120ED49087500200860486085
:103C300088604FF40060C86000200861084606F004
:103C4000A1FB10E00020FFF72CFF05465DB9012025
:103C5000E24908750020086048608860C860086113
:103C6000084606F08FFB2846C2E770B504460025DB
:103C7000DB4804600720DA49486040208860002063
:103C8000C8604FF480600861084606F0BBFB07205F
:103C9000FFF727FE0546284670BD30B501460020D7
:103CA0000022CD4B1B7881F84E30CE4B1B88A1F8FB
:103CB0004C30CD4B1B681A0E93090B70C2F3830373
:103CC0004B7002F003038B70C74B1B68C3F30742B2
:103CD000CA70C54B1B88C3F307220A71C24B1A78FE
:103CE0004A715B681A0E1301CB80BF4B5B68C3F34C
:103CF0000742CB8843EA1213CB8002F00F030B720A
:103D0000B94B9B88C3F30722D3094B72C2F38013CC
:103D10008B72C2F34013CB72C2F300130B730023F8
:103D20004B73AD4B1B683BB1AB4B1B68012B03D0F6
:103D3000A94B1B68032B3FD193071B0D0B61AA4BAB
:103D40001A790B6943EA82030B61A74B9B681A0E31
:103D50000B6943EA92130B61C2F3C2030B7502F0C5
:103D600007034B75A04B9B68C3F3074253098B7540
:103D7000C2F38203CB7593075B0F0B769A4B1B89BB
:103D8000C3F307220B7E43EAD2130B760B695B1C4D
:103D90004B640C7E4B6CA41C0125A5406B434B640B
:103DA0000C7A0123A3408B64D1E9113463434B6443
:103DB0004B6C1B0D4B6421E0874B1B68022B1DD104
:103DC000894B1A7993069B0A0B61874B9B681A0EE5
:103DD0000B6943EA02230B61834B9B68C3F30742E1
:103DE0000B6913430B61804B1B89C3F307220B69DB
:103DF0005B1C5B084B644FF400738B64C2F380134D
:103E000001F8193F93065B0E4B70774B1A7A4B788B
:103E100043EAD2134B7002F07F038B70724BDB6866
:103E20001A0ED309CB70C2F341130B71C2F3820394
:103E30004B7102F003038B716B4BDB68C3F30742DA
:103E40008B7943EA92138B71C2F34013CB71002339
:103E50000B7202F001034B72634B9B89C3F3072281
:103E6000D3098B72C2F38013CB72C2F340130B736E
:103E7000C2F300134B73C2F381038B7302F003038D
:103E8000CB73594B1A7B53080B7401234B74574B5C
:103E90001B681A0ECA741939544B1B68C3F30742C6
:103EA0001402CC85514B1B88C3F30722CB8D1343DF
:103EB000CB854E4B1A7814060C635B681A0E0B6B9D
:103EC00043EA02440C63494B5B68C3F307420B6B44
:103ED00043EA02240C63454B9B88C3F307220B6B18
:103EE00013430B63414B1A7934235A543F4B9B685D
:103EF0001A0E35235A543D4B9B68C3F307421406F0
:103F00008C633A4B1B89C3F307228B6B43EA024451
:103F10008C63364B1A7A8B6B43EA02248C63334BE7
:103F2000DB681A0E8B6B13438B63304BDB68C3F378
:103F3000074214093C235C5413071C0DCC872B4B00
:103F40009B89C3F30722CB8F1343CB87274B1A7B65
:103F5000540840235C54012441235C5430BD70B5A7
:103F600000252348446B01E02148446B04F04500E0
:103F70000028F9D004F0040028B10325042006F03D
:103F8000C2FA284670BD04F0010028B101250120C5
:103F900006F0B9FA2846F5E740F2FF5006F0B3FA0A
:103FA0002846EFE72DE9F04106460F464FF000089E
:103FB0000F48456B01E00E48456B05F045000028B1
:103FC000F9D005F00400A8B14FF00308042006F072
:103FD0009AFA4046BDE8F08110000020448C002091
:103FE0005C8C002014000020C48B0020D48B0020A7
:103FF0000080014005F0010030B14FF001080120C0
:1040000006F081FA4046E5E706F016FAB04203D022
:104010004FF010084046DDE740F2FF5006F073FA1B
:10402000002006F00DFA044604F4604018B9200C94
:1040300038804046CEE704F4005008B11320C9E7A9
:1040400004F4804008B11020C4E704F4004008B133
:104050000F20BFE74046BDE738B50024012000909F
:1040600006F0BBF910B92524204638BDFE4800688B
:10407000042828D00020FD49086002204860C020A4
:1040800088600020C8604FF480600861084606F030
:10409000B9F9FFF764FF04460CB12046E5E70020BC
:1040A00006F0CEF9F2490860042006F0C9F9F0499B
:1040B0004860082006F0C4F9ED4988600C2006F03D
:1040C000BFF9EB49C860E848006858B1E6480068A5
:1040D000012807D0E4480068062803D0E2480068B9
:1040E000022816D10020E1490860032048604020E2
:1040F00088600020C8604FF480600861084606F0C0
:1041000081F969460320FFF74DFF04460CB12046B4
:10411000ABE7D548006804282ED0BDF80000D5498B
:104120000860BDF800000004D0490860092048601C
:10413000C02088600020C8604FF480600861084695
:1041400006F060F9FFF70BFF04460CB120468CE740
:10415000002006F075F9C8490860042006F070F9DF
:10416000C5494860082006F06BF9C34988600C20F7
:1041700006F066F9C049C8600024204675E770B5AE
:104180000025BE48446B01E0BC48446B04F0450088
:104190000028F9D004F0040028B10325042006F01B
:1041A000B2F9284670BD40F2FF5006F0ACF928463F
:1041B000F8E770B500264FF48035B048446B02E054
:1041C0006D1EAE48446B04F0450008B9002DF7D1D0
:1041D00015B104F0040028B10326042006F093F979
:1041E000304670BD04F0400028B10026402006F0A3
:1041F0008AF93046F5E73046F3E770B500254FF40D
:10420000803400E0641E24B1802006F072F900289A
:10421000F8D014B90325284670BD40F2FF5006F0CF
:1042200072F92846F8E72DE9F04100240026002520
:104230000027A046B2209249087500200860486017
:104240008860C8600861084606F09CF8032006F004
:10425000B9F8012006F0B3F800BF13E0002083494D
:10426000086048608860C8604FF480600861084654
:1042700006F0C8F8FFF7C1FF044614B12046BDE8B8
:10428000F08101E04A2DE9D300BF00254FF4D5703D
:104290007649086008204860402088600020C86097
:1042A0004FF480600861084606F0ACF8FFF781FF24
:1042B00004462CB901206C4908604FF0804812E098
:1042C00000206A490860372048604020886000204C
:1042D000C8604FF480600861084606F093F8372004
:1042E000FFF7FFFA04460020604908603720486065
:1042F000402088600020C8604FF480600861084654
:1043000006F080F83720FFF7ECFA0446002C4BD17A
:1043100036E000205549086037204860402088601A
:104320000020C8604FF480600861084606F06AF813
:104330003720FFF7D6FA04460CB120469FE75148D4
:1043400048EA000049490860292048604020886008
:104350000020C8604FF480600861084606F052F8FB
:10436000FFF70DFF04460CB1204688E7002006F059
:1043700067F80646012080EAD67080F001076D1CC0
:104380001FB94FF6FF708542C3D34FF6FF708542C9
:1043900002D31B24204672E706F08040061E32D06E
:1043A0000220314908602EE003202F4908601EE0FA
:1043B00035482E4908600120486040208860002070
:1043C000C8604FF480600861084606F01BF8FFF7EC
:1043D000D6FE04460CB1204651E7002006F030F826
:1043E0000646012080EAD67080F001076D1C1FB9D7
:1043F0004FF6FF708542DBD34FF6FF70854202D344
:104400001B2420463BE7204639E710B50024FFF780
:104410003CFAFFF756FA05F0A7FFFFF704FF044642
:104420000CB1204610BDFFF717FE04460CB1204624
:10443000F8E701201249087500200860486088608C
:10444000C8600861084605F09DFF1CB90F48FFF7DA
:1044500024FC044634B90D49B1F84C100804FFF7A8
:1044600004FC0446CCB913E0100000205C8C002052
:10447000D48B002014000020C48B00200080014059
:10448000448C0020000010800080FF80F48B00200E
:104490004FF40060FFF7A3FB04462046C2E770B567
:1044A00004460025FE4800880004FE49886040F26A
:1044B0004D40C8600D20FFF714FA05460DB128469F
:1044C00070BDF848406920602846F9E708B500202B
:1044D00000906846FFF7E3FF08B1FF2008BD009891
:1044E000C0F34320FAE710B50424FFF7EFFF0446BA
:1044F000042C01D1002010BDFF2C01D10220FAE7CD
:104500000120F8E710B50024002005F05BFF2046ED
:1045100010BD70B5044600250026002005F090FF70
:1045200000F0007010B10E25284670BD4020DE4915
:10453000086010204860402088600020C8604FF468
:1045400080600861084605F05DFF1020FFF7C9F99B
:1045500005460DB12846E8E7D14800880004D24955
:10456000086037204860402088600020C8604FF411
:1045700080600861084605F045FF3720FFF7B1F974
:1045800005460DB12846D0E74FF0FF30C749086017
:1045900040204860602088600220C86000200861D8
:1045A00001204861084605F056FF0020BE4908601A
:1045B0000D204860402088600020C8604FF4806073
:1045C0000861084605F01EFF0D20FFF78AF9054631
:1045D0000DB12846A9E70EE04FF4004005F089FF31
:1045E00048B1002604E005F058FF44F82600761C88
:1045F000082EF8D32034AB48406B40F22A610840C3
:104600000028E9D0082005F074FF28B1082005F043
:104610007AFF0425284688E7022005F06AFF28B1C2
:10462000022005F070FF022528467EE7202005F0D5
:1046300060FF28B1202005F066FF0625284674E7B4
:104640004FF4007005F055FF30B14FF4007005F0E5
:104650005AFF0725284668E703E005F01EFF2060A3
:10466000241D4FF4001005F044FF0028F5D140F25E
:10467000FF5005F048FF284657E770B5044600266E
:1046800000258B48FFF745FF06460EB1304670BD4A
:10469000874800788509257085480078C0F3401563
:1046A000657083488578280260808148C578608875
:1046B000284360807E480579280660607C484579FB
:1046C000606840EA0540606079488579606840EA42
:1046D000052060607648C57960682843606074484A
:1046E000057A2572457A6572807A0509A572704847
:1046F000C57A2802A0816E48057BA0892843A08145
:104700006B48407B8508A5736948407B00F0030532
:10471000E5733046BBE710B5002400BFFFF75AF839
:1047200030B96448006818B9634800780028F5D0AB
:104730006148007810B16048007810BD2046FCE761
:104740000146002002E04910421CD0B20129FAD1F2
:1047500070472DE9F04107460D4614460026B04645
:1047600000205549087053490860544908604D4974
:10477000C86253480068022801D104026D0A4FF054
:10478000FF304A490860002048608860C8600861BE
:1047900001204861084605F05EFE4248406900F08D
:1047A000007010B10E20BDE8F081002C1FDDB4F5C3
:1047B000006F1CDC601E2040C8B92046FFF7C0FF18
:1047C000804639480460102037494860402088609E
:1047D0000020C8604FF480600861084605F012FEB2
:1047E0001020FFF77EF806461EB13046DBE7262094
:1047F000D9E74FF0FF302D490860084644604FEA82
:10480000081088600220C86000200861012048610B
:10481000084605F020FE2448056011202249486022
:10482000402088600020C8604FF48060086108461E
:1048300005F0E8FD1120FFF754F806460EB13046AA
:10484000B1E701214FF4957005F0CCFD012005F092
:10485000D6FD21463846FEF7C2FFFFF75CFF00BFDA
:10486000FFF741FE0028FBD130469CE72DE9F047D9
:1048700081460E4614461D460027B846BA4600201B
:104880000D4908700B49086001200C4908600020A0
:104890000449C8620A480068022814D1040211E0E1
:1048A00014000020008001405C8C0020708C0020EF
:1048B000E48B002020000020180000201C000020B5
:1048C00010000020760A4FF0FF30FE4908600020FB
:1048D00048608860C860086101204861084605F0AA
:1048E000BAFDF948406900F0007010B10E20BDE833
:1048F000F087002C1FDDB4F5006F1CDC601E20402B
:10490000C8B92046FFF71CFF8246F048046010201B
:10491000EE494860402088600020C8604FF4806005
:104920000861084605F06EFD1020FEF7DAFF074625
:104930001FB13846DBE72620D9E705FB04F0B0F1CC
:10494000007F02D326273846D1E74FF0FF30DD49FC
:10495000086005FB04F048604FEA0A1088600220F6
:10496000C8600020086101204861084605F073FD19
:10497000D64806601220D549486040208860002053
:10498000C8604FF480600861084605F03BFD1220C6
:10499000FEF7A7FF07460FB13846A8E7012140F20E
:1049A0002A3005F01FFD012005F029FD05FB04F16B
:1049B0004846FEF714FFDFF8188301E0A8F101086C
:1049C000C448006800F4005010B9B8F1000FF5D1E8
:1049D000B8F1000F01D1042089E700BFBE4800688C
:1049E00018B9BE4800780028F8D0BC48007808B153
:1049F000BA48077838467AE77CB504460025002097
:104A000001900090B64800880004B04908600D206D
:104A10004860402088600020C8604FF480600861D2
:104A2000084605F0EFFCA848406B009002E0A6485D
:104A3000406B0090009800F045000028F7D00098E7
:104A400000F0040028B10325042005F05CFD284691
:104A50007CBD009800F0010028B10125012005F07F
:104A600052FD2846F4E705F0E7FC009000980D2879
:104A700002D010252846EBE740F2FF5005F043FD39
:104A8000002005F0DDFC01900198C0F34320207068
:104A900094490198084008B92846D9E7019800F0E0
:104AA000004008B11C20D3E7019800F0804008B115
:104AB0000920CDE7019800F0005008B10A20C7E7AF
:104AC000019800F0805008B10B20C1E7019800F078
:104AD000006008B10C20BBE7019800F0806008B1CD
:104AE0000D20B5E7019800F0807008B10E20AFE707
:104AF000019800F4000008B10F20A9E7019800F424
:104B0000800008B11020A3E7019800F4001008B15C
:104B100011209DE7019800F4801008B1122097E75A
:104B2000019800F4002008B1132091E7019800F4E7
:104B3000802008B114208BE7019800F4003008B100
:104B4000152085E7019800F4803008B116207FE732
:104B5000019800F4004008B1172079E7019800F4AB
:104B6000804008B1182073E7019800F4005008B1A4
:104B700019206DE7019800F0080008B11A2067E7D6
:104B8000284665E710B5002400BFFEF723FE30B9C4
:104B90005148006818B9514800780028F5D04F48AE
:104BA000007810B14D48007810BD40F2FF5005F07C
:104BB000AAFC2046F8E72DE9F84F80460E46144639
:104BC00000250027A946002000908246434908702E
:104BD0004149086044490860B8F1000F02D126201D
:104BE000BDE8F88F00203849C862401E354908608A
:104BF000002048608860C86008610120486108465C
:104C000005F029FC3048406900F0007008B10E2022
:104C1000E6E736480068022801D10402760A002C33
:104C20001FDDB4F5006F1CDC601E2040C8B92046B3
:104C3000FFF786FD8246254804601020234948601E
:104C4000402088600020C8604FF4806008610846FA
:104C500005F0D8FB1020FEF744FE05461DB128469E
:104C6000BEE72620BCE71E480088000417490860FC
:104C70000D204860402088600020C8604FF48060AC
:104C80000861084605F0BEFB0D20FEF72AFE05462A
:104C90000DB12846A4E70C48D0F814904FF0FF3728
:104CA00032E07F1E0E4800880004084908600D208D
:104CB0004860402088600020C8604FF48060086130
:104CC000084615E0708C0020008001405C8C0020BC
:104CD000FFFF010000040240200000201800002017
:104CE0001400002008E0FFFD1C0000201000002040
:104CF00005F088FB0D20FEF7F4FD05460DB12846B2
:104D00006EE7FE48D0F8149009F4807008B9002FBF
:104D1000C7D10FB9292063E7F94806601820F84980
:104D20004860402088600020C8604FF480600861BF
:104D3000084605F067FB1820FEF7D3FD05460DB1C8
:104D400028464DE70020EF490860401EEE49086004
:104D5000084644604FEA0A1088600020C860086175
:104D600001204861084605F076FB0020E7490870FD
:104D7000E7490860E3490860012140F21A3005F074
:104D800031FB21464046FEF755FD012005F037FB7B
:104D9000FFF7F8FE00BFFFF7A6FB0028FBD140F2AB
:104DA000FF5005F0B0FB6846FFF726FE054603E01E
:104DB0006846FFF721FE05463DB99DF8000007282B
:104DC000F6D09DF800000628F2D0284608E72DE925
:104DD000FE4380460F4614461E46002500200290E2
:104DE000019000908146C9490870C94908600120B6
:104DF000C44908600020C149C862401EC249086019
:104E0000002048608860C860086101204861084649
:104E100005F021FBB948406900F0007010B10E2088
:104E2000BDE8FE83BB480068022801D104027F0A66
:104E3000002C1FDDB4F5006F1CDC601E2040C8B9DB
:104E40002046FFF77DFC8146AD4804601020AC4948
:104E50004860402088600020C8604FF4806008618E
:104E6000084605F0CFFA1020FEF73BFD05461DB1C0
:104E70002846D5E72620D3E706FB04F0B0F1007FF3
:104E800002D326252846CBE7A348008800049C4986
:104E9000086037204860402088600020C8604FF4D8
:104EA00080600861084605F0ADFA3720FEF719FD6D
:104EB00005460DB12846B3E7914806601720904992
:104EC0004860402088600020C8604FF4806008611E
:104ED000084605F097FA1720FEF703FD05460DB1C9
:104EE00028469DE78648076019208549486040208C
:104EF00088600020C8604FF480600861084605F0B3
:104F000081FA1920FEF7EDFC05460DB1284687E72A
:104F10004FF0FF307C49086006FB04F048604FEA20
:104F2000091088600020C8600861012048610846B7
:104F300005F091FA00207549087075490860012054
:104F400070490860012140F21A3005F04BFA012047
:104F500005F055FA06FB04F14046FEF76BFC6F487E
:104F6000019002E00198401E01906D48006800F435
:104F7000005010B901980028F4D1019818B9FFF732
:104F800044FA04204CE76548019002E00198401E75
:104F900001905F48006828B95C48007810B9019812
:104FA0000028F3D1019808B9042039E75748007860
:104FB00010B15648007833E740F2FF5005F0A3FAED
:104FC0006846FFF719FD054603E06846FFF714FD44
:104FD00005463DB99DF800000728F6D09DF8000071
:104FE0000628F2D028461BE74448406B00F44050A6
:104FF00008B1012070470020FCE710B50024002014
:105000003E49886040F24C40C8600C20FEF769FCC5
:105010000446204610BD2DE9FC4105460E460024FD
:1050200000270020019000903E484068202101EABE
:10503000105018B925242046BDE8FC812F4840684F
:10504000C0B2801C3849B1FBF0F00190002005F09F
:10505000F7F900F0007010B10E242046ECE72D485F
:105060000068022801D16D0A760A2A48006838B122
:1050700028480068012803D02648006802282BD160
:105080001F48056020201E4948604020886000209D
:10509000C8604FF480600861084605F0B3F920202D
:1050A000FEF71FFC04460CB12046C5E71448066015
:1050B000212013494860402088600020C8604FF4D8
:1050C00080600861084605F09DF92120FEF709FC83
:1050D00004460CB12046AFE70020094908602620AD
:1050E0004860402088600020C8604FF480600861FC
:1050F000084605F087F9262018E0000000800140EE
:105100005C8C00201C000020708C00201800002007
:10511000200000201000002014000020FFFF0100EC
:1051200000040240C48B0020C0D40100FEF7D9FB6C
:1051300004460CB120467FE7002700E07F1C019861
:105140008742FBD36846FFF757FC044603E06846F6
:10515000FFF752FC04463CB99DF800000728F6D042
:105160009DF800000628F2D0204665E710B54FF400
:10517000807005F0CBF950B341480068012814D184
:105180000020404908600C204860402088600020D2
:10519000C8604FF480600861084605F033F90C20C0
:1051A000FEF79FFB3849087002E00020364908707E
:1051B0004FF4807005F0B4F900214CF23A3005F05C
:1051C00011F90120314908602F48007810BD0220F4
:1051D00005F09CF958B1022005F0A2F900214CF22B
:1051E0003A3005F0FFF8022027490870EEE7082062
:1051F00005F08CF958B1082005F092F900214CF225
:105200003A3005F0EFF804201F490870DEE720204F
:1052100005F07CF958B1202005F082F900214CF20C
:105220003A3005F0DFF8062017490870CEE7102065
:1052300005F06CF958B1102005F072F900214CF21C
:105240003A3005F0CFF805200F490870BEE74FF45B
:10525000007005F05BF960B14FF4007005F060F983
:1052600000214CF23A3005F0BDF8072006490870DD
:10527000ACE70020AAE710B5FFF778FF10BD0000EB
:105280001C0000205C8C0020180000202000002062
:10529000002817DB00F01F0201219140FC4A43095E
:1052A00042F8231000BF00BF00BFBFF34F8F00BF05
:1052B00000BF00BF00BF00BF00BFBFF36F8F00BFC4
:1052C00000BF00BF704700B595B00121084604F04B
:1052D000DAFF0121952004F0E3FF0121084604F0E4
:1052E000ECFFFF20ADF8500048208DF8530003205C
:1052F0008DF8520014A9E74804F016FD0320ADF81C
:10530000500048208DF8530014A9E34804F00CFD28
:105310000420ADF8500048208DF8530014A9DF4850
:1053200004F002FD0B208DF8440001208DF84500AB
:1053300002208DF8460001208DF8470011A803F0E7
:105340006CFF06208DF8440002208DF845008DF892
:10535000460001208DF8470011A803F05EFF0620EB
:10536000FFF796FF0021022004F0F4FD01201290C7
:1053700000208DF84C000C208DF84D0001208DF898
:105380004E0012A804F0EAF84FF0804005F05CFAF5
:105390004FF40040ADF83C004FF62050ADF8380017
:1053A0004FF40070ADF83E000020ADF83A000EA9B1
:1053B0004FF0804005F01CFB0820ADF82C000020C9
:1053C000ADF82E00ADF834000420ADF83200012015
:1053D000ADF830000BA9800705F09DFD00224FF4C9
:1053E0000061C80405F08BFE00214FF0804005F0FD
:1053F0005BFE4FF420500390002002900A90A848D2
:105400000190002007908020059000200890A1487E
:10541000083000900020069004904FF4005009904E
:105420006946A04804F004F8012202219D4804F0D6
:1054300036F801219B4804F026F815B000BD08B5E8
:105440000121802004F02CFF4FF40070ADF8000023
:1054500010208DF8030003208DF8020069468D4866
:1054600004F062FC4FF48070ADF8000014208DF859
:10547000030003208DF802006946864804F054FCBE
:1054800008BD10B54FF480708249103108604000AB
:1054900008600220FEF74CF94FF480707D4914310A
:1054A00008600220FEF744F94FF400707949143186
:1054B000086010BD10B54FF4807076491431086053
:1054C0000220FEF735F94FF4007072491031086080
:1054D0000220FEF72DF94FF480706E4910310860FC
:1054E0000220FEF725F910BD10B50220FEF720F9C5
:1054F0004FF4807067491031086040000860022056
:10550000FEF716F94FF4007062491431086002206A
:10551000FEF70EF94FF480705E49143108600220E6
:10552000FEF706F910BD70B50446002621E004F030
:10553000800028B14FF4807056491031086004E0B3
:105540004FF480705349143108606006040E022045
:10555000FEF7EEF84FF400704E491031086002205B
:10556000FEF7E6F84FF400704A4914310860701CE9
:10557000C6B2082EDBDB0220FEF7DAF84FF400702B
:105580004449103108600220FEF7D2F84148083043
:10559000006800F4807008B1002500E001254FF498
:1055A00000703C4914310860284670BD70B5002475
:1055B00008251BE00220FEF7BBF84FF400703549C8
:1055C000103108606006040E32480830006800F4AC
:1055D000807008B1601CC4B20220FEF7A9F84FF435
:1055E00000702C4914310860681EC5B2002DE1DC42
:1055F000204670BD70B505460C46FFF742FF4220BD
:10560000FFF791FF18B9FFF755FF002070BD642028
:10561000FEF78EF82846FFF786FF18B9FFF74AFF16
:105620000020F3E76420FEF783F82046FFF77BFFB6
:1056300018B9FFF73FFF0020E8E7FFF73BFF012025
:10564000E4E770B505460C46FFF71BFF4220FFF765
:105650006AFF18B9FFF72EFF002070BD6420FEF727
:1056600067F82846FFF75FFF18B9FFF723FF002010
:10567000F3E7FFF71FFF6420FEF75AF8FFF701FF7B
:105680004320FFF750FF78B9FFF714FF0020E4E74D
:1056900080E100E0001C01400010014000080140D2
:1056A000888C0020080002406420FEF741F8FFF7D4
:1056B0007DFF2070FFF718FFFFF7FCFE0120CCE70D
:1056C00038B5FFF7BCFE80211220FFF793FF08B921
:1056D000012038BD0A20FEF771F869460B20FFF75C
:1056E000B0FF9DF80000212801D00220F1E76946B3
:1056F0000A20FFF7A6FF9DF80000772801D00220BE
:10570000E7E71320009000240DE0584A02EB440222
:105710005178564A12F81400FFF76CFF0120FEF78B
:105720004DF8601CC4B29DF800008442EDDBFFF729
:10573000CAFD0020CDE710B5012003F075FF002859
:1057400040D04B480088A8B300204A4908804A4905
:10575000087001204949087048700122C102800781
:1057600005F0CDFC0121880705F09EFC4FF080403C
:10577000008C20F480704FF0804108840846008C33
:1057800040F48070088400213D4803F07CFE4FF413
:1057900020513B4803F08CFE3748007800EB800036
:1057A000384901EBC02036490839486101213448A5
:1057B00003F069FE2E480088401C2D490880012016
:1057C00003F043FF10BD10B5022003F096FE002841
:1057D0004BD000202949284A12788854254800884F
:1057E0001030244908802448007880F001002249C4
:1057F000087020480088B0F5F07F0EDB00224FF4DF
:105800000061C80405F07BFC00214FF0804005F0EA
:105810004BFC0620FFF73CFD24E0184816490978A8
:10582000405C40B900224FF40061C80405F067FCF9
:105830000620FFF72DFD0021114803F024FE0E483D
:10584000007800EB80000F4901EBC0200C490839BB
:1058500048614FF420510A4803F02AFE012108480C
:1058600003F011FE022003F05CFE10BD28000020B2
:105870004E00002050000020540000205200002064
:1058800008000240888C002000B59FB0012108026A
:1058900004F0F9FC012140F2651004F001FD102034
:1058A0008DF87B0003208DF87A000820ADF8780091
:1058B0001EA9FE4804F038FA8020ADF878001EA931
:1058C000FB4804F031FA03208DF87A0018208DF897
:1058D0007B004CF20370ADF878001EA9F54804F087
:1058E00023FA4FF68070ADF878001EA9F24804F054
:1058F0001BFA1020ADF878001EA9EE4804F014FA47
:105900002020ADF878001EA9EA4804F00DFA4FF403
:105910008050ADF878001EA9E54804F005FA4FF470
:105920000060ADF878001EA9E24804F0FDF91021EE
:10593000E04804F0A6FA2021DE4804F0A2FA4FF471
:105940000061DC4804F09DFA4FF48051D84804F01F
:1059500098FA8021D64804F096FA01A81C9008A86D
:105960001D900FA803F0BCFF062003F077FE012076
:105970000190002002900F200390002004900590D9
:10598000069007900890099003200A9000200B9041
:105990000C900D900E9006200F900020109011900A
:1059A00010201290002013901590169017901990C7
:1059B0001B904FF48050189080001A9001A81C9002
:1059C00008A81D900FA803F095FE0121062003F002
:1059D000F9FF1FB000BDB94908807047B749891C5D
:1059E0000880704708B5B548801C00880090BDF855
:1059F000000008BDB14A1080921C1180704738B574
:105A00000446AE4804800520FDF792FEAB48801C9A
:105A100000880090BDF8000038BD00B54FF4245058
:105A2000FFF7D9FF00BD00B54FF42050FFF7D3FFBB
:105A300000BD00B5A2490889FFF7CDFF00BD00B544
:105A400002460B469E494889FFF7C5FF1012FFF733
:105A5000C5FF9B494989491C88B2FFF7BCFFD0B2FA
:105A6000FFF7BCFF96498889FFF7B5FF1812FFF7CB
:105A7000B5FF93498989491C88B2FFF7ACFFD8B2BA
:105A8000FFF7ACFF00BD30B504460D462946204661
:105A9000FFF7D5FFFFF7CDFF8A4800888749891CAB
:105AA000088030BD10B503460C4685494889FFF78C
:105AB00092FF1812FFF792FF81494989491C88B269
:105AC000FFF789FFD8B2FFF789FF7D498889FFF783
:105AD00082FF2012FFF782FF79498989491C88B229
