:020000040800F2
:10000000101B0020AD0200088F2A0008AF23000853
:100010008D2A0008B50600083532000800000000EF
:10002000000000000000000000000000ED010008DA
:10003000FD0700080000000049020008752D0008B7
:10004000C7020008C7020008C7020008C70200086C
:10005000C7020008C7020008C7020008C70200085C
:10006000C7020008C7020008C7020008C70200084C
:10007000C7020008C7020008C7020008C70200083C
:10008000C702000800000000C7020008C7020008FD
:10009000C7020008C7020008C7020008C70200081C
:1000A000C7020008C7020008C7020008C70200080C
:1000B000C7020008C7020008C7020008C7020008FC
:1000C000C7020008C7020008C7020008C7020008EC
:1000D000C7020008C7020008C7020008C7020008DC
:1000E000C7020008C7020008C7020008C7020008CC
:1000F000C7020008C7020008C7020008000000008D
:1001000000000000C702000800000000C70200084D
:10011000C702000800000000312E0008C7020008D6
:10012000C7020008C7020008C7020008C70200088B
:10013000C70200080000000000000000C70200081D
:10014000C7020008C702000800000000000000000D
:10015000000000000000000000000000000000009F
:10016000000000000000000000000000C7020008BE
:10017000C7020008000000000000000000000000AE
:1001800000000000C702000800000000000000009E
:10019000000000000000000000000000000000005F
:1001A0000000000000000000C7020008C7020008AD
:1001B000C7020008C7020008C702000800000000CC
:1001C00000000000C702000800000000000000005E
:1001D000C7020008C7020008DFF80CD000F014FACC
:1001E00000480047B5340008101B00202C4B19684C
:1001F0000868B0E8F04F80F30988BFF36F8F4FF0C5
:10020000000080F311887047000000000848006873
:10021000006880F308884FF0000080F3148862B60D
:1002200061B6BFF34F8FBFF36F8F00DF00BF00BF1A
:1002300008ED00E0DFF80C00016841F47001016096
:10024000704700BF88ED00E0EFF30980BFF36F8FC8
:10025000134B1A681EF0100F08BF20ED108A20E91A
:10026000F04F106009B44FF0500080F31188BFF3D5
:100270004F8FBFF36F8F03F0C7FF4FF0000080F385
:10028000118809BC19680868B0E8F04F1EF0100F1B
:1002900008BFB0EC108A80F30988BFF36F8F7047F6
:1002A00068000020EFF30580704700000648804793
:1002B00006480047FEE7FEE7FEE7FEE7FEE7FEE74B
:1002C000FEE7FEE7FEE7FEE7152E0008D90100086D
:1002D00040EA01039B0703D009E008C9121F08C0C8
:1002E000042AFAD203E011F8013B00F8013B521E48
:1002F000F9D27047D2B201E000F8012B491EFBD2BF
:1003000070470022F6E710B513460A460446194620
:10031000FFF7F0FF204610BD2DE9FE4F81EA0304F0
:1003200004F0004421F0004100944FF0000B23F052
:10033000004350EA01045ED052EA03045BD0C3F3E9
:100340000A54C1F30A552C44A4F2F3340194A0FBDF
:100350000254C1F3130141F48011C3F3130343F4B6
:10036000801301FB024400FB034E840A970A44EA0F
:10037000815447EA8357A4FB076802958D0A05FB61
:1003800007854FEA932C04FB0C542705029D4FEA86
:10039000065847EA1637B5EB08056EEB070C870ED3
:1003A000920E47EA811742EA8312A7FB0201B6EBDD
:1003B0000B0164EB00042B0D43EA0C335E1844EB95
:1003C0001C50DA465146E7FB0201C5F313044FEA1D
:1003D0000B3343EA14534FEA0432019C43EA060309
:1003E000A4F10C040294009CCDE900B400F0BDF827
:1003F00003B0BDE8F08F00200146F9E70EB540F2EA
:10040000334102910021CDE900110A460B4600F06C
:10041000ACF803B000BD70B5C1F30A5201F000455D
:100420000024C1F3130140F2FF3341F480119A42DA
:1004300001DA002070BD40F233439A42A2F2334207
:1004400003DC524200F03BF800E090402C43F1D036
:10045000404270BDC1F30A5210B5C1F3130140F21E
:10046000FF3341F480119A4201DA002010BD40F2BE
:1004700033439A42A2F2334203DC524200F01FF8A7
:1004800010BD904010BD01F0004330B421F0004198
:1004900050EA010206D00A0DA2F56072C1F3130101
:1004A000002A02DC30BC00207047440F44EAC1043B
:1004B000C100E01830BC00EBC25000F010B8202A98
:1004C00004DB203A21FA02F00021704721FA02F3FE
:1004D000D040C2F1200291400843194670470029DC
:1004E000A8BF7047401C490008BF20F001007047BA
:1004F00010B4B0FA80FC00FA0CF050EA010404BF1A
:1005000010BC704749B1CCF1200421FA04F411FA6F
:100510000CF118BF012121430843A3EB0C01CB1DB3
:100520004FEA00614FEA102042BF002010BC704724
:1005300000EBC35010440029A4BF10BC7047401CFE
:10054000490008BF20F0010010BC704710B5141E10
:1005500073F1000408DA401C41F1000192185B417C
:100560001A4301D120F0010010BD2DE9F04D924653
:100570009B4611B1B1FA81F202E0B0FA80F220326A
:10058000904600F053F804460F4640EA0A0041EA5C
:100590000B0153465A46084313D0114653EA010053
:1005A00019D0C8F140025046FFF789FF05460E46B4
:1005B00050465946424600F039F8084305D001201C
:1005C00004E020463946BDE8F08D0020054346EAA8
:1005D000E0762C4337430A986305E40AA0EB080051
:1005E0000022FD0A44EA47540A3002D500200146A1
:1005F000E9E7010510196941DDE90845001969417C
:10060000BDE8F04DA2E70000064C074D06E0E068AB
:1006100040F0010394E8070098471034AC42F6D349
:10062000FFF7DEFDB44D0008D44D0008202A04DB9E
:10063000203A00FA02F1002070479140C2F12003F5
:1006400020FA03F3194390407047000070B5044648
:100650000068816811F0010F28D18168144A1142A5
:1006600015D18168D5432940491C816000F04AFEBC
:10067000064616E0816811F0010F03D18168294018
:10068000491C816000F03EFE801B022809D9E06D04
:1006900040F01000E065206E40F00100206601206F
:1006A00070BD20680168C943C907E3D1002070BD4F
:1006B0003F000080FEE7704770B54B4C4B4D06463F
:1006C0002DED028BD4ED0D0AC5ED000A85ED010A72
:1006D0009FED478A04F12401284691EC030AF0EECD
:1006E000481A02F010FA284602F0D2F9704200EEE1
:1006F000900A95ED0A0AF8EEE00AB4EEE00AF1EE8F
:1007000010FA02D800EE100A0AE000EE906AF8EE45
:10071000E00AB4EEE00AF1EE10FA05DB00EE106A32
:10072000B8EEC00A85ED0A0A304DB1EE400A3C3DF4
:10073000A5F2B46085ED000A90ED010A04F11801FC
:10074000F0EE481AB8EEC00A284685ED010A91EC91
:10075000030A02F0D8F9284602F09AF9606895ED8C
:100760000A0A414200EE901AF8EEE00AB4EEE00AFE
:10077000F1EE10FA02D800EE101A0AE000EE900A2C
:10078000F8EEE00AB4EEE00AF1EE10FA05DB00EE56
:10079000100AB8EEC00A85ED0A0AD4ED030A30EE5D
:1007A000200A84ED030AB5EEC00AF1EE10FA02D871
:1007B0009FED100A0CE000EE900AF8EEE00AB4EEAD
:1007C000E00AF1EE10FA05DB00EE100AB8EEC00AFE
:1007D00084ED030A0849BCEEC00A096810EE100A4D
:1007E000C863BDEC028B70BD0000002038080020FB
:1007F0000000FA44000000007408002070477047B1
:100800002DE9F047044690F858009CB00D464FF093
:100810000008012814D0012084F8580020684FF007
:10082000A0474FF00009B8420ED1284E009630463E
:1008300001F0DEFF8246206801F0DAFF60B10EE0D1
:1008400002201CB0BDE8F087E16D41F02001E165B8
:1008500084F858900120F4E7BAF1000F0AD0E06D57
:1008600040F02000E0654FF0010800BF84F8589088
:100870004046E6E716482A6840F61F71002A82685B
:1008800022F4604215D094F8383042EA43326B6863
:100890001A438260BA68B36802F0010203F00103F0
:1008A0001A43E3D1AB682A681A4383688B431A431F
:1008B0000AE08260BA68B36802F0010203F0010343
:1008C0001A43D3D182688A438260CFE70001005087
:1008D000000300502DE9F84F00270446009790F8D8
:1008E0005800DFF8DC930D46B846012811D00126E8
:1008F00084F85860206801F077FF60B1E06D40F047
:100900002000E0655FF0010784F858803846BDE8B4
:10091000F88F0220FBE7D5E900210C23206803EAC9
:1009200091131844036B01F01F014FF01F0C0CFAD8
:1009300001FCC2F3846223EA0C038A40134303637D
:10094000206801F051FF8246206801F049FF5AEA11
:1009500000003CD1AA6829682068B2F1004F37D066
:1009600001F052FF2068416921F000414161206897
:100970006969C268C2F3C102520091402A69042A1F
:1009800031D000EB82002B68026EDFF838C303F031
:10099000F84302EA0C020B431A4342F0004101669D
:1009A00022682869A96902EB8000026E22F0807239
:1009B0000A430266297F20682A69012910D0002194
:1009C00000EB8200026E22F000720A4302667DE0B4
:1009D000002201F019FF2068416941F00041C5E79C
:1009E0004FF00071ECE7002101F0F4FE40032068B5
:1009F0004FF0000172D001F0EDFE90FAA0F0B0FAD5
:100A000080F1286842036ED090FAA0F0B0FA80F02E
:100A1000814204D100221146206801F004FF012127
:100A2000206801F0D7FE400320684FF001015DD03F
:100A300001F0D0FE90FAA0F0B0FA80F128684203ED
:100A400059D090FAA0F0B0FA80F0814204D100228F
:100A50000121206801F0E7FE0221206801F0BAFEC2
:100A6000400320684FF0020148D001F0B3FE90FA35
:100A7000A0F0B0FA80F12868420344D090FAA0F0C8
:100A8000B0FA80F0814204D100220221206801F0F6
:100A9000CAFE0321206801F09DFE400320684FF04C
:100AA000030133D001F096FE90FAA0F0B0FA80F185
:100AB000286842032FD090FAA0F0B0FA80F081426B
:100AC00004D100220321206801F0ADFE2068816876
:100AD00011F0010F22D0ACE000E004E001F07AFE5A
:100AE000C0F384618DE7C0F3846091E701F072FE8A
:100AF000C0F38461A2E7C0F38460A6E701F06AFE58
:100B0000C0F38461B7E7C0F38460BBE701F062FE25
:100B1000C0F38461CCE7C0F38460D0E72A7B296806
:100B200050F8B03FC1F3120C23EA0C0302F0180C8A
:100B3000654A22FA0CF20A4013430360E96849450A
:100B400077D1286841031CD090FAA0F1B1FA81F165
:100B5000491C01F01F0109294FEA403132D8002910
:100B600012D000BF90FAA0F1B1FA81F101F10101B8
:100B700001F01F0106FA01F609D100BFC0F384613C
:100B800009E0C0F38461E3E7C0F38461EEE790FA23
:100B9000A0F1B1FA81F101F1010101F01F0146EA72
:100BA000816102D1C0F3846003E090FAA0F0B0FA52
:100BB00080F000F1010000F01F0000EB400041EA6E
:100BC000005132E000290ED090FAA0F1B1FA81F183
:100BD00001F1010101F01F0106FA01F606D100BF83
:100BE000C0F3846106E0C0F38461F1E790FAA0F1FC
:100BF000B1FA81F101F1010101F01F0146EA8161C1
:100C000002D1C0F3846003E090FAA0F0B0FA80F063
:100C100000F1010000F01F002C4A00EB400002EB45
:100C2000005041EA000141F00071AA68206801F01B
:100C3000EBFD27482A6802423FF466AE25488168EA
:100C4000254B01F0E0719A4202D0244B9A421BD10D
:100C50000B0219D42268B2F1A04F7FF455AE82681E
:100C600041F4000122F0E0720A4382601C481D49F1
:100C70000068B0FBF1F000EB4000800000E0401E97
:100C800000900028FBD13FE6174D184BAA4207D130
:100C9000CD0105D422689A42F5D041F0807109E077
:100CA000134DAA42EFD14A02EDD422689A42EAD00B
:100CB00041F48001826822F0E0720A43826023E6F8
:100CC00000007F4000F0FF03FFFF0700000020FE50
:100CD0000000088000030050000021C31000C090F5
:100CE00064000020400D0300000052C700010050C6
:100CF000000084CB0068006C70470000F8B54FF02E
:100D0000000504002E46009502D0E06D10B107E00A
:100D10000120F8BD204600F0EDF8266684F8586002
:100D200020688168C1F3407119B18168694A114036
:100D3000816020688168C1F3007179B98168664A71
:100D4000114041F080518160644865490068B0FB02
:100D5000F1F000E0401E00900028FBD1206881687F
:100D6000C1F3007141B9E16D41F01001E165216EFF
:100D700041F001012166012501F036FDE16DC90652
:100D800000D430B1E06D40F01000E0650125284648
:100D9000F8BDE06D20F4807040F00200E06520684E
:100DA000806810F0010F11D14FF0A04080684D49CC
:100DB00000F00100896801F00101084306D14A48AA
:100DC0006168826822F47C120A438260E168E06B09
:100DD000627F0843A16841EA4231084394F8241035
:100DE00040EA0140012904D1218D404A02EB4141F2
:100DF0000843E16A29B101F47871226B014342EAA8
:100E000001002168CA683A4B1A400243CA60206850
:100E10000169626B21F0406111430161206801F0BA
:100E2000E3FC0646206801F0DBFC30432ED1207F36
:100E300094F83810800340EA41022068C16844F207
:100E4000020399431143C1602069002820680169A9
:100E50000AD041F480310161206850F8C01F226936
:100E60006FF30D01114307E021F480310161206827
:100E700050F8C01F6FF30D01016094F84000012885
:100E80000CD02068016921F001010161606901282D
:100E90002068016B21F00F0111D013E0D4E911019A
:100EA0000843D4E913121143084321680A6940F248
:100EB000FC739A43104340F001000861E6E7226AA0
:100EC000521E11430163E06D20F0020040F001006A
:100ED000E0655CE7C0FFFF5FC0FFFF7F64000020AC
:100EE000400D030000010050000300500000FEFF11
:100EF0000740F0FF10B586B0044614216846FFF79E
:100F000000FA1149206888421BD11048C16C41F495
:100F10000051C164C16C01F400510591C16C41F0F4
:100F20000101C164C06C694600F0010005902020F9
:100F3000009003200190002002904FF0904000F0BC
:100F4000FBF806B010BD0000000100500010024088
:100F50002DE9F041044639480F46816801F01F052C
:100F6000A16908290FD085B1052D0ED0092D0CD00F
:100F7000806800F4604060B1E06D40F02000E06502
:100F80000120BDE8F081082604E02068C068C007A1
:100F9000F1E7042600F0B6F9804608E0781C06D098
:100FA00000F0B0F9A0EB0800B8420FD877B1206884
:100FB00000683042F2D0E06D40F40070E0652068D7
:100FC00001F01AFCD0B1607F48B117E0E06D40F04D
:100FD0000400E065002084F858000320D1E7206871
:100FE000006800070AD5E06D20F48070E065E06DD0
:100FF000C00403D4E06D40F00100E065104A2068B1
:101000004FF0A041904201D10B4600E003468342DD
:1010100010D07DB1052D0DD0092D0BD0904200D000
:101020000146C968082E07D0490401D40C2101608B
:101030000020A6E7C168F5E70821F8E700030050A3
:10104000000100502DE9F04104463848806800F066
:101050001F05206801F0C8FB18B102210846BDE851
:10106000F08194F8580001280CD0012084F8580031
:101070002046FFF7EBFA01004FF0000304D084F89C
:101080005830EBE70220EAE7E06D40F6016290435A
:1010900040F48070E065264A20684FF0A0469042F8
:1010A00001D1374600E00746874200D01DB9E76D01
:1010B00027F48017E765E76DFF0404D5276E27F056
:1010C0000607276600E023661C27076084F858306F
:1010D0002068904201D1334600E00346834215D098
:1010E000A5B1052D12D0092D10D0E36D43F4801366
:1010F000E365904200D13046C0688001AED5E06D16
:1011000020F4005040F48050E065A7E7C2689201E7
:1011100005D5E26D22F4005242F48052E265826805
:10112000044B1A40121D826098E700000003005033
:1011300000010050C0FFFF7F2DE9F84FDFF890B1AC
:10114000002301274FF0030A4FF00F090BF1040EA3
:10115000B6E000BF07FA03F6324070D04C68022CAC
:1011600001D0122C10D1DC0800EB8408D8F8204004
:101170005D074FEAD56C09FA0CF5AC430D6905FA29
:101180000CF52543C8F82050D0F800805D0091F898
:1011900004C00AFA05F40CF0030C28EA04080CFA5F
:1011A00005FC4CEA080CC0F800C0D1F804C0BCF142
:1011B000010F08D0BCF1020F05D0BCF1110F02D015
:1011C000BCF1120F16D1D0F808C0D1F80C802CEA6F
:1011D000040C08FA05F848EA0C08C0F80880D0F8B2
:1011E00004C02CEA060C0E79C6F300169E4046EAAF
:1011F0000C064660C668A6438C68AC403443C460A5
:101200004C68E4005BD5334C256E45F0010525663E
:10121000246E23F0030504F0010400942E4C2E19D3
:10122000B4689D074FEA157C09FA0CF5AC43B0F1A0
:10123000904F05D0294DA84204D1012517E03EE08A
:10124000002514E0264DA84201D102250FE0254DCE
:10125000A84201D103250AE0234DA84201D104256B
:1012600005E0224DA84201D1052500E0062505FA3A
:101270000CF52543B560DBF800405D464E689443AD
:10128000F60300D514432C60DEF8004075464E6826
:101290009443B60300D514432C600D4D08352C68DB
:1012A0004E689443F60200D514432C60084D0C356B
:1012B0002C684E689443B60200D514432C605B1C26
:1012C0000A6832FA03F47FF445AFBDE8F88F0000F6
:1012D00000040140001002400000014000040048EA
:1012E00000080048000C00480010004800140048A6
:1012F0000069084000D0012070470AB18161704741
:1013000081627047014880687047000058000020E3
:10131000024881684268114481607047580000208B
:1013200010B50024032000F095F8002000F008F824
:1013300008B1012401E000F03DF8204610BD000096
:1013400000B5014687B00022362000F063F8362051
:1013500000F052F81348816D41F010018165806DF5
:1013600005A900F010000690684600F015FB00F09B
:1013700033FB0D490D4AB0FBF1F10D48491E0260E7
:10138000416040F2E7320021C0E90321816000F0B2
:10139000ACFD10B1012007B000BD054800F0C2FD52
:1013A000F9E700000010024040420F00001000402A
:1013B000B40800200E4808B5016E41F00101016635
:1013C000016E01F001010091816D41F08051816554
:1013D000806D002200F0805000900F21901E00F0E0
:1013E00019F80448816821F48041816008BD00003B
:1013F0000010024000700040002809DB00F01F02CE
:10140000012191404009800000F1E020C0F8001166
:1014100070470000F0B40E4B1B680C46C3F3022368
:10142000C3F10705042D00D90425191D072901D290
:10143000002300E0DB1E012606FA05F1491E2140CB
:1014400099409E40761E16403143F0BC01F0F3BE39
:101450000CED00E0064900F0070208684FF6FF03B4
:10146000184040EA0220034A104308607047000019
:101470000CED00E00000FA052B492C4B0A683221E4
:101480004A432B4940B1B0F5007F086829D020F4C9
:10149000C06040F480602CE00868C0F3412002285E
:1014A00004D051F8800F20F4807022E0D1F8800041
:1014B00020F48070C1F88000086820F4C06040F417
:1014C00000700860B2FBF3F0401C00E0401E4A6967
:1014D000520501D50028F9D1486940050AD50320F5
:1014E0007047C0F34120022806D051F8800F40F425
:1014F0008070086000207047D1F8800040F4807050
:10150000C1F88000086820F4C06040F400700860F2
:10151000B2FBF3F0401C00E0401E4A695205DBD5E7
:101520000028F9D1D8E700006400002040420F00F5
:10153000007000402DE9F8430446006800269D4DE8
:1015400000035ED5A86D0027C00008D4A86D40F048
:101550008050A865A86D012700F080500090DFF84A
:101560005892D9F8001041F48071C9F80010FFF7C3
:10157000C9FE804606E000BFFFF7C4FEA0EB0800EE
:1015800002282BD8D9F80000C005F5D5D5F8900071
:1015900010F4407014D0216C814211D0D5F8900025
:1015A000D5F8901020F4407041F48031C5F89010C7
:1015B000D5F8901021F48031C5F89010C5F890004E
:1015C000C00711D0FFF79EFE804641F2883907E040
:1015D000FFF798FEA0EB0801494501D903260BE06F
:1015E000D5F890008007F3D5D5F89000216C20F451
:1015F00040700843C5F890001FB1A86D20F08050DE
:10160000A8652078C00707D0D5F88800616820F069
:1016100003000843C5F888002078800707D5D5F86F
:101620008800A16820F00C000843C5F888002078E5
:10163000400707D5D5F88800E16820F0300008435E
:10164000C5F888002078000707D5D5F888002169FB
:1016500020F0C0000843C5F888002078800607D530
:10166000D5F88800616920F440600843C5F8880017
:101670002078400607D5D5F88800A16920F44050AD
:101680000843C5F888002078000607D5D5F88800FB
:10169000E16920F440400843C5F888002088C0056F
:1016A00007D5D5F88800216A20F440300843C5F8F2
:1016B00088002088800507D5D5F88800616A20F465
:1016C00040200843C5F88800208840050FD5D5F88C
:1016D0008800A16A20F440100843C5F88800A06A79
:1016E000B0F5801F03D1E86840F48010E8602088DE
:1016F00000050FD5D5F88800E16A20F440000843C2
:10170000C5F88800E06AB0F5800F03D1E86840F4BE
:101710008010E8602088C0040FD5D5F88800216BC0
:1017200020F040700843C5F88800206BB0F1807F3E
:1017300003D1E86840F48010E86020884FF0006131
:1017400080040ED5D5F88800626B20F0406010430D
:10175000C5F88800606B884203D1E86840F48010C7
:10176000E860208840040ED5D5F88800A26B20F0F0
:1017700040601043C5F88800A06B884203D1E86838
:1017800040F48010E860208800040FD5D5F8880068
:10179000E16B20F040500843C5F88800E06BB0F1E1
:1017A000805F03D1E86840F48030E8603046BDE8EF
:1017B000F883000000100240007000402DE9F0475F
:1017C0000E4605004FF0000725D0DFF8AC81D8F8B1
:1017D000000000F00F00B0420CD2D8F8001021F049
:1017E0000F013143C8F80010D8F8000000F00F00D6
:1017F000B04210D12968614CC80741F2883A5AD0EA
:101800006868DFF87C91032808D0022820682DD072
:10181000400500282CDB0120BDE8F087206880010E
:10182000F9D5E06800F00302E068C0F30310401C43
:10183000032A19D0534A00BFB2FBF0F0E268C2F3AA
:1018400006225043E268C2F34162521C5200B0FBD0
:10185000F2F0484517D9A06810F0F00F0CD08807B7
:1018600011D5A86840B10EE0474AE5E78003D0E70C
:1018700000F0C4F8484506D9A06820F0F00040F018
:101880008000A0608027A068696820F003000843FA
:10189000A060FFF737FD814606E000BFFFF732FD8D
:1018A000A0EB090151453AD8A068696800F00C0026
:1018B000B0EB810FF2D12868810714D5400703D51A
:1018C000A06840F4E060A0602878000705D5A06813
:1018D00020F4605040F4E060A060A068A96820F0A7
:1018E000F000084304E0802F03D1A06820F0F0004E
:1018F000A060D8F80010404601F00F01B14216D99F
:10190000016821F00F0131430160FFF7FBFC07463E
:1019100007E000BFFFF7F6FCC11B514501D90320CA
:101920007AE7D8F8000000F00F00B042F2D1287832
:10193000400705D5A068E96820F4E0600843A0608E
:101940002878000706D5A068296920F4605040EA8D
:10195000C100A06000F052F8A1680C4AC1F3031165
:10196000515C01F01F01C84009490860094800683E
:10197000BDE8F047FFF7E4BC002002400010024041
:1019800000B4C4040024F40000366E01784D000851
:1019900064000020580000200F2202600C4A936867
:1019A00003F003034360936803F0F00383609368DC
:1019B00003F4E063C36092684FF4E06303EAD20289
:1019C00002610448006800F00F00086070470000E2
:1019D000001002400020024005480649006889685E
:1019E000054AC1F30221515C01F01F01C840704754
:1019F0006400002000100240884D0008184910B50E
:101A00008868C0F381021748012A0BD08A68164BF8
:101A1000C2F38102022A06D08A68C2F38102032A35
:101A200003D0002010BD184610BDCA6802F00304A0
:101A3000CA68C2F30312521C032C02D0B0FBF2F0AE
:101A400001E0B3FBF2F0CA68C968C2F30622504352
:101A5000C1F34161491C4900B0FBF1F010BD000029
:101A6000001002400024F40000366E012DE9F84316
:101A700004007AD02078FA4DC00747D0A868E968FA
:101A800000F00C0001F003010C2802D0082817D048
:101A900001E0032914D06068B0F5803F17D0B0F59D
:101AA000A02F286817D020F480302860286820F400
:101AB000802028606068E0B1FFF724FC064614E04F
:101AC0002868800322D560680028D2D01EE02868EC
:101AD00040F48030EDE740F480202860F7E700BF55
:101AE000FFF710FC801B642870D828688003F7D5A6
:101AF0000CE0FFF707FC064605E000BFFFF702FC1D
:101B0000801B6428F0D828688003F7D420788007E9
:101B10004CD5A868E96800F00C0001F003010C281E
:101B200002D004280DD001E002290AD0E068002884
:101B300028682BD040F480702860FFF7E3FB06464E
:101B400019E02868400502D5E068002891D068684F
:101B5000217C20F0FE4040EA01606860C1480068D6
:101B6000FFF7EEFB002800D120E076E1FFF7CAFB8B
:101B7000801B0228B8D828684005F7D56868217C02
:101B800020F0FE4040EA016068600FE020F48070C1
:101B90002860FFF7B7FB064605E000BFFFF7B2FB82
:101BA000801B0228A0D828684005F7D420780007B9
:101BB00029D560690028D5F8940013D040F00100C1
:101BC000C5F89400FFF79EFB064606E090E000BFD4
:101BD000FFF798FB801B022886D8D5F89400800771
:101BE000F6D510E020F00100C5F89400FFF78AFB5D
:101BF000064604E0FFF786FB801B022878D8D5F85C
:101C000094008007F6D42078400761D5A86D00269F
:101C1000C00008D4A86D40F08050A865A86D0126CA
:101C200000F08050009090480168C90511D4016807
:101C3000804641F480710160FFF764FB074604E0D1
:101C4000FFF760FBC01B022852D8D8F80000C0057F
:101C5000F6D5A068012815D00528D5F8900016D033
:101C600020F00100C5F89000D5F8900020F00400A5
:101C7000C5F89000A06841F28838B8B1FFF742FB80
:101C800007460EE0D5F8900040F00100F0E740F084
:101C90000400C5F89000F5E7FFF734FBC11B414590
:101CA00026D8D5F890008007F6D50CE0FFF72AFB80
:101CB000074604E0FFF726FBC11B414518D8D5F8BD
:101CC00090008007F6D41EB1A86D20F08050A86562
:101CD0002078800629D5A0690028D5F8980013D06F
:101CE00040F00100C5F89800FFF70CFB064606E03F
:101CF00077E000BFFFF706FB801B022877D8D5F8F6
:101D000098008007F6D510E020F00100C5F8980093
:101D1000FFF7F8FA064604E0FFF7F4FA801B022802
:101D200065D8D5F898008007F6D4E069F0B3A968C3
:101D3000C1F38101032961D00228286820F0807056
:101D400028600BD0E86820F00300E860E8684749A5
:101D50000840E860FFF7D6FA04464BE0FFF7D2FAF6
:101D6000064604E0FFF7CEFA801B02283FD8286819
:101D70008001F7D4F4E908016FF00F0202EB0111C2
:101D80000843218A5204490802EB4151A26841EA02
:101D900002210843217D4FF07E42490802EB416158
:101DA0000843217B40EAC160E96800E062E0304A14
:101DB00011400843E860286840F080702860E868B7
:101DC00040F08070E860FFF79DFA044605E000BF30
:101DD000FFF798FA001B022809D828688001F7D578
:101DE00048E004E0FFF78EFA001B022802D9032026
:101DF000BDE8F88328688001F4D43BE00128F7D0DF
:101E0000E868226A00F00301914226D1616A00F07D
:101E1000F0020901103991421FD1A26A00F4FE417B
:101E2000B1EB022F19D194F82C2000F07841B1EBDE
:101E3000C26F12D1218E00F4C00249084905A1F5F4
:101E40000011914209D194F8341000F0C0604908A3
:101E50004906A1F1007181420CD00120C8E70000C1
:101E6000001002405800002000700040FFFFEEFE0E
:101E70000C809F010020BBE7704770477047704798
:101E80007047704770B590F83C20012A24D0012596
:101E900080F83C50022280F83D2003685A689E6812
:101EA0000E4CA34202D00E4CA34203D122F4700484
:101EB0004A6822430B4C22400C688968144326F080
:101EC000800211435C600268916080F83D500021FF
:101ED00080F83C10084670BD022070BD002C014007
:101EE000003401408FFFFFFD704710B5040003D0A0
:101EF00094F83D0010B107E0012010BD002084F8E7
:101F00003C00204600F00CF8022084F83D00211D22
:101F1000206800F093FF012084F83D00002010BDF0
:101F2000704700000168CA6842F00102CA60016897
:101F30008868064A1040062806D0B0F5803F03D0D6
:101F4000086840F0010008600020704707000100A9
:101F5000704770B50446006801694FF00005C94339
:101F6000890715D4C168C943890711D4E91E0161E5
:101F700001202077206880698007204602D0FFF783
:101F8000E7FF04E000F00CF9204600F0CDF92577DA
:101F900020680169C943490717D4C168C943490783
:101FA00013D46FF00401016102202077206880695A
:101FB00010F4407F204602D0FFF7CAFF04E000F093
:101FC000EFF8204600F0B0F9257720680169C94391
:101FD000090716D4C168C943090712D46FF0080174
:101FE0000161042020772068C0698007204602D064
:101FF000FFF7AEFF04E000F0D3F8204600F094F9BC
:10200000257720680169C943C90617D4C168C94347
:10201000C90613D46FF010010161082020772068F1
:10202000C06910F4407F204602D0FFF791FF04E022
:1020300000F0B6F8204600F077F9257720680169AE
:10204000C943C90708D1C168C943C90704D1891E5A
:102050000161204600F0A0F920680169C943090622
:1020600009D4C168C943090605D46FF08001016134
:102070002046FFF702FF20680169C943C90509D45A
:10208000C168C943090605D46FF480710161204617
:10209000FFF7F2FE20680169C943490609D4C16807
:1020A000C943490605D46FF040010161204600F0A4
:1020B0007DF920680169C943890609D4C168C9430B
:1020C000890605D46FF0200101612046FFF7D6FE96
:1020D00020680169C943C90209D4C168C943C9025A
:1020E00005D46FF4801101612046FFF7C9FE206816
:1020F0000169C943890209D4C168C943890205D469
:102100006FF4001101612046FFF7B9FE20680169F4
:10211000C943490209D4C168C943490205D46FF4CF
:10212000800101612046FFF7ACFE20680169C943C8
:1021300009020BD4C168C943090207D46FF4000136
:1021400001612046BDE87040FFF7CEBE70BD0000C3
:1021500010B586B0044614216846FEF7D2F80D4942
:102160002068884214D10C48C16C41F00201C1645E
:10217000C06C002100F002000590012000900220B8
:10218000CDE90101CDE9031069460448FEF7D4FF0B
:1021900006B010BD000400400010024000040048DA
:1021A000704770B5044690F83C000D4601280ED0EB
:1021B000012684F83C60022084F83D000C2A45D0BA
:1021C00007DC5AB1042A1BD0082A78D12CE002205F
:1021D00070BD102A4ED0142A71D15DE0206800F045
:1021E00093FE2068816941F008018161206881695E
:1021F00021F004018161206881692A69114311E09D
:10220000206800F0CFFE2068816941F4006181619F
:102210002068816921F480618161206881692A696F
:1022200041EA022181614AE0206800F003FF206852
:10223000C16941F00801C1612068C16921F0040150
:10224000C1612068C1692A69114311E0206800F06A
:1022500039FF2068C16941F40061C1612068C1692A
:1022600021F48061C1612068C1692A6941EA0221C3
:10227000C16124E0206800F06DFF2068016D41F02D
:10228000080101652068016D21F0040101652068E5
:10229000016D2A69114311E0206800F093FF206866
:1022A000016D41F4006101652068016D21F48061D8
:1022B00001652068016D2A6941EA0221016584F8FF
:1022C0003D60002084F83C0070BD10B5040003D0D0
:1022D00094F83D0010B107E0012010BD002084F803
:1022E0003C00204600F00CF8022084F83D00211D3F
:1022F000206800F0A3FD012084F83D00002010BDFF
:1023000008B500680649884208D10648816D41F049
:1023100002018165806D00F00200009008BD0000A0
:1023200000040040001002407047000010B5044651
:102330000068012200F0DAFD1148216881420BD0CB
:102340001048814208D01048814205D00F48814290
:1023500002D00F48814203D1486C40F400404864E9
:10236000206881680B4A1140062906D0B1F5803FEC
:1023700003D0016841F001010160002010BD0000A0
:10238000002C014000340140004001400044014065
:10239000004801400700010000680349884201D15C
:1023A000FEF7B6BF70470000001000407047FEE720
:1023B00070B54FF480744FF09045002221462846B6
:1023C000FEF79BFF00F04AFC002261002846FEF762
:1023D00094FF022001F054F8012221462846FEF71E
:1023E0008CFF022001F04CF821462846BDE87040E1
:1023F0000022FEF782BF0000134810B5C16C86B002
:1024000041F00101C164C06C4FF0904400F0010044
:1024100005904FF440700090012001900020029040
:10242000039069462046FEF787FE00224FF4807134
:102430002046FEF762FF00224FF400712046FEF7AF
:102440005CFF06B010BD00000010024070B54FF4F4
:1024500080744FF09045002221462846FEF74DFF3C
:1024600000F0FCFB012251022846FEF746FF022045
:1024700001F006F8012221462846FEF73EFF022021
:1024800000F0FEFF21462846BDE870400022FEF71E
:1024900034BF2DE9F0478046002400F0C3FB00253F
:1024A0004FF480764FF090474FF400790022314688
:1024B0003846FEF722FF022000F0E2FF01223146FB
:1024C0003846FEF71AFF6006040E49463846FEF706
:1024D0000FFF08B1641CE4B2012000F0D1FF6D1CB5
:1024E000EDB2082DE2D3B8F1000F04D0FFF760FF82
:1024F0002046BDE8F087FFF7A9FFF9E72DE9F04195
:10250000054600F0ABFB4FF480764FF09047002279
:1025100031463846FEF7F1FE00244FF400782806D5
:1025200001D5012200E0002241463846FEF7E5FED3
:102530006806050E022000F0A3FF0122314638464E
:10254000FEF7DBFE022000F09BFF002231463846FA
:10255000FEF7D3FE022000F093FF641CE4B2082CC7
:10256000DDD3BDE8F08170B500F078FB01225402A4
:102570004FF0904521462846FEF7BFFE0122160285
:1025800031462846FEF7B9FE042000F079FF00220C
:1025900021462846FEF7B1FE042000F071FF00221C
:1025A00031462846FEF7A9FE002070BD70B500F048
:1025B00055FB4FF480744FF0904500222146284689
:1025C000FEF79BFE6600002231462846FEF795FE88
:1025D000042000F055FF012221462846FEF78DFE1B
:1025E000012231462846FEF788FEBDE870400420EF
:1025F00000F046BF2DE9F041002400F013FB01225A
:1026000056024FF0904531462846FEF776FE0120EF
:1026100000F036FF0122170239462846FEF76DFE0C
:10262000012000F02DFF08E0641CE4B2FA2C04D96C
:10263000FFF7BCFF0120BDE8F08131462846FEF7D8
:1026400057FE0028F0D1002239462846FEF755FEF5
:102650000020F0E710B500F05BF80A4C208000F095
:1026600017F8606000F044F8FDF7C8FE9FED061B08
:1026700053EC112BFDF750FEFDF7ECFE20810020FE
:1026800010BD0000480100209A9999999999B93F85
:1026900008B56946012000F07BF89DF80000C009EC
:1026A000BDF8000040BA13D0012800D00020FDF78B
:1026B000A5FE41EC100B9FED0A1B00BF53EC112B44
:1026C00051EC100BFDF728FEBDE80840FDF7A3BE56
:1026D000FDF794FE41EC100B9FED031BEEE70000AD
:1026E000000000000000F4BF000000000000F43F04
:1026F00008B56946032000F04BF8BDF800004FF61E
:10270000FF7140BA00EB800001EA400008BD000004
:1027100008B56946022000F03BF8BDF8000040BA59
:10272000FDF76CFE9FED041B53EC112BFDF7F4FD40
:10273000FDF771FE80B208BD000000000000F43F0C
:1027400010B5FFF759FEBDE8104046F227510020B2
:10275000AFF3008070B506460C0ACDB2FFF703FF59
:102760008020FFF7CBFEFFF745FF3046FFF7C6FEA0
:10277000FFF740FF2046FFF7C1FEFFF73BFF28466B
:10278000FFF7BCFEFFF736FFBDE87040FFF70EBF56
:1027900070B50C460546FFF7E6FE8020FFF7AEFE5B
:1027A000FFF728FF2846FFF7A9FEFFF723FFFFF7F3
:1027B000DAFE8120FFF7A2FEFFF71CFF0120FFF7E2
:1027C00068FE20700020FFF764FE6070BDE8704076
:1027D000FFF7ECBE00EB8100006E00F0F8407047A0
:1027E0008068C0F3C00070478068C0F38000704705
:1027F0008068C0F380007047C06810F4406F01D05B
:102800000020704701207047042303EAD15310B51C
:1028100018444369C1F3045107248C40A3438A4000
:102820001343436110BD00EB8100016E21F00041B4
:10283000114301667047000030B58BB00024089446
:102840000994202168460A94FDF75BFD1C481B494A
:102850000425C0E900148460C4600461C0E9054532
:10286000047744770121016280F82440C462046344
:1028700080F83840C46380F84040FEF73FFA08B162
:10288000FDF7BDFF08A90E480894FDF7B9FF08B190
:10289000FDF7B5FF0B4800900620CDE901047F202D
:1028A0000594CDE9030569460548FEF713F80028AD
:1028B00001D0FDF7A4FF0BB030BD000000010050B7
:1028C000DC0000200020903630B52A4DA3B0002255
:1028D000D5E90001CDE92101012121A800F056FE32
:1028E000254C08350DF1540C206595E80F008CE857
:1028F0000F00002115A8083D00F00AFE183560649D
:1029000095E80F000DF1640C183D8CE80F000021D4
:1029100019A800F0FDFD2835A06495E80F001DAD55
:1029200085E80F0000211DA800F0F2FD1149E064C8
:102930001C2238316846FDF7CBFC0021684600F0C8
:10294000FAFD0C49A0631C22543107A8FDF7C0FC16
:10295000002107A800F0EFFD0649E0631C2270315A
:102960000EA8FDF7B5FC00210EA800F0E4FD2064E0
:1029700023B030BDEC4C000800000020F0B587B05B
:1029800014216846FDF7BDFC2148C16C41F00401EB
:10299000C164C16C01F004010591C16C41F02001DA
:1029A000C164C16C01F020010591C16C41F00101CD
:1029B000C164C16C01F001010591C16C41F00201DB
:1029C000C164C06C4FF0904600F0020005900022F8
:1029D000C0213046FEF791FC0E4F012218213846E7
:1029E000FEF78BFCC020009001250024CDE90154A6
:1029F000694630460394FEF79FFB1A200090CDE90C
:102A00000154694638460394FEF796FB07B0F0BDC3
:102A1000001002400004004810B58AB0002407945A
:102A200008941C2168460994FDF76BFC164815496B
:102A3000C0E9001440F25F41C0E902418021046115
:102A40008161FFF742FC08B1FDF7D9FE079407A9A1
:102A50000D480994FFF716FA08B1FDF7D0FE602083
:102A6000CDE9000402940822694607480494FFF760
:102A700098FB08B1FDF7C3FE0348FFF769FB0AB0F6
:102A800010BD00000004004074080020FEE77047FD
:102A9000D0ED050AC0ED060A90ED000A90ED011A8E
:102AA00030EE410A80ED050A30EE601A80ED071A1B
:102AB00090ED081A71EE001AC0ED081A90ED0E1A8A
:102AC000F4EEC11AF1EE10FA01DD80ED081AD0ED36
:102AD000081AB1EE411AF4EEC11AF1EE10FA01D261
:102AE00080ED081A90ED021AD0ED081A21EE000AC6
:102AF00090ED031A01EE210A90ED041A01EE200A6E
:102B000080ED0A0A7047C0ED0E1A083080EC030A07
:102B10007047000070B504464FF09045012901D080
:102B2000002200E0012240212846FEF7E6FB0022B9
:102B300080212846FEF7E1FB9FED290A372C34D08F
:102B400007DCDCB1282C21D02D2C24D0322C06D14E
:102B500026E03C2C2ED0502C31D0642C34D0642C68
:102B600037D200EE104AB3EE081AF8EE400A80EEB3
:102B7000810A00EE904AF8EE600A2CE019481A49E2
:102B800080ED030A09680020C86370BDDFED170AF5
:102B90009FED170A1FE0DFED170A9FED170A1AE0F5
:102BA000DFED160A9FED160A15E0DFED160A9FED20
:102BB000160A10E0DFED150A9FED150A0BE0DFEDB8
:102BC000150A9FED150A06E0DFED140A9FED140AC1
:102BD00001E0F0EE400ABDE8704000F04BBB0000A1
:102BE00000000000000000207408002000002042C7
:102BF0000080CF44000034420060EA4400004842B4
:102C00000000024500005C4200200F4500007042B9
:102C100000401C450000A042002050450000C84272
:102C2000000082450C4800B5C16C87B041F001013D
:102C3000C164C06C694600F0010005904FF400705B
:102C40000090002001900290022003904FF09040ED
:102C5000FEF772FA07B000BD001002400D4800B543
:102C6000C16C87B041F00101C164C06C694600F0DD
:102C7000010005904FF400700090012001900020A9
:102C80000290022003904FF09040FEF755FA07B0F3
:102C900000BD0000001002402DED028B9FED188A50
:102CA000184C1948FEF7CEF9FF211748FEF750F9E6
:102CB00098B91548FEF71EF8FDF7A0FB9FED131B12
:102CC00053EC112BFDF728FB9FED121B53EC112B3E
:102CD000FDF722FBFDF7D7FB206394ED0C0A20EEF5
:102CE000080A84ED0D0A2078401CC0B220703228FA
:102CF00001D933202070012000F0FEFBD1E7000055
:102D00000AD7F34000000020DC00002066666666FB
:102D100066660A40000000000000303F012000F01D
:102D2000EBFBFBE7FFF70CFD0125104E104C0027D5
:102D300094ED0D0AD4ED020AB4EEE00AF1EE10FAB9
:102D400001D8A57007E010EE100AB04201DBA770B1
:102D500009E0A07838B102216420FFF7DBFE0120F2
:102D600000F0CAFBE4E70121F6E700000000B441EF
:102D70000000002010B5502080F31188BFF34F8F62
:102D8000BFF36F8F01F0D4FD18B104494FF08050AC
:102D90000860002080F3118810BD000004ED00E001
:102DA00010B5A4B038216846FDF7ABFA14211FA86E
:102DB000FDF7A7FA44210EA8FDF7A3FA4FF400701F
:102DC000FEF75AFB0120009000040190022003242A
:102DD000CDE907042A21CDE909011C21CDE90B1019
:102DE0000D906846FEF742FE0F20CDE91F0400203B
:102DF00021902290239007211FA8FEF7DFFC4FF4BB
:102E000000400E9040031D900EA8FEF793FB24B0E7
:102E100010BD00000548016841F4700101600349DC
:102E20004FF00060803908607047000088ED00E0D6
:102E30000148FFF78EB80000B40800202DE9F043E8
:102E40000268234B234D244E244C4FF08049984276
:102E500007D0484505D0A84203D0B04201D0A042D7
:102E600003D122F070074A683A431D4FDFF874C05F
:102E7000DFF8748098420DD048450BD0A84209D0A5
:102E8000B04207D0A04205D0B84203D0604501D07F
:102E9000404503D122F44075CA682A434D6922F0A7
:102EA00080022A4302608A68C2620A68826298428B
:102EB00007D0A04205D0B84203D0604501D04045BC
:102EC00001D10969016301214161BDE8F08300007E
:102ED000002C014000040040000800400034014084
:102EE00000400140004401400048014010B501F09D
:102EF0001F030121046A99408C430462016A9A40CD
:102F00001143016210BD00002DE9F043026A22F076
:102F100001020262056A436882691C4C25F00205C1
:102F200022400C6822F0030214438A68194E2A4397
:102F3000174D194FDFF864C0DFF86490A84207D03E
:102F4000B04205D0B84203D0604501D0484506D113
:102F500022F00808CA6842EA080222F00402A842E5
:102F600007D0B04205D0B84203D0604501D04845F3
:102F700005D14D6923F440731D438B692B43436096
:102F80008461496841630262BDE8F0838FFFFEFF00
:102F9000002C014000340140004001400044014049
:102FA00000480140F0B5026A22F010020262056A90
:102FB00042688369194C1B4E23400C6823F440730C
:102FC00043EA042425F020038D6843EA0513144DD9
:102FD000A84201D0B04206D1CF6823F0800343EA73
:102FE000071323F04003A8420AD0B04208D00E4D88
:102FF000A84205D00D4DA84202D00D4DA84207D1E0
:103000004D6922F4406242EA85028D6942EA8502F6
:1030100042608461496881630362F0BDFF8FFFFEF7
:10302000002C0140003401400040014000440140B8
:1030300000480140F0B5026A22F480720262056A1B
:103040004368C269194C1B4E22400C6822F00302EF
:10305000144325F400728D6842EA0522144DA842FB
:1030600001D0B04206D1CF6822F4006242EA0722C2
:1030700022F48062A8420AD0B04208D00E4DA84285
:1030800005D00E4DA84202D00D4DA84207D14D6982
:1030900023F4405343EA05138D6943EA0513436063
:1030A000C4614968C1630262F0BD00008FFFFEFF8A
:1030B000002C014000340140004001400044014028
:1030C00000480140F0B5026A22F480520262056AAB
:1030D0004268C369194C1B4E23400C6823F44073AB
:1030E00043EA042425F400538D6843EA0533144D64
:1030F000A84201D0B04206D1CF6823F4004343EA8E
:10310000073323F48043A8420AD0B04208D00E4DC2
:10311000A84205D00D4DA84202D00D4DA84207D1BE
:103120004D6922F4404242EA85128D6942EA8512D5
:103130004260C461496801640362F0BDFF8FFFFE15
:10314000002C014000340140004001400044014097
:103150000048014030B5026A22F480320262046AFB
:103160004268036D114D2B400D681D4324F400335C
:103170000C8943EA04430E4CA0420BD00D4CA042F4
:1031800008D00D4CA04205D00C4CA04202D00C4CF3
:10319000A04204D14C6922F4803242EA0422426007
:1031A000056549688164036230BD00008FFFFEFF42
:1031B000002C014000340140004001400044014027
:1031C0000048014030B5026A22F480120262046AAB
:1031D0004268036D114D24F400142B400D6843EA3E
:1031E00005230D8944EA05540D4DA8420BD00D4D21
:1031F000A84208D00C4DA84205D00C4DA84202D0E0
:103200000B4DA84204D14D6922F4802242EA852266
:10321000426003654968C164046230BDFF8FFFFEF0
:10322000002C0140003401400040014000440140B6
:1032300000480140FEE70907090E002804DB00F101
:10324000E02080F80014704700F00F0000F1E0204B
:1032500080F8141D704702E008C8121F08C1002A38
:10326000FAD170477047002001E001C1121F002A07
:10327000FBD1704770B5764C2DED028BF0EE608A75
:103280002078B0EE408A322846D9FFF7E3F90220D1
:1032900000F032F994ED030A6E4DBCEEC00A2968C5
:1032A00010EE100AC863022000F026F99FED6A1A9A
:1032B000616B6A48B1F1804F31DA6178491CC9B25B
:1032C0006170C82916D990ED010AD220F8EEC01A13
:1032D000DFED630AF4EEC81AF1EE10FA01D2607065
:1032E0002EE0B8EEC00AB4EEC80AF1EE10FA01DD25
:1032F000607031E0D4ED030AF5EEC00AF1EE10FA89
:1033000061D884ED031A00BF94ED030A2968BCEE6E
:10331000C00A10EE100AC863BDEC028B70BD6FF0DE
:103320008042504B0A449A421BD290ED010AF8EEBB
:10333000C01ADFED4D0AF4EEC81AF1EE10FA04D20D
:1033400094ED030A30EE200A3AE0B8EEC00AB4EE7B
:10335000C80AF1EE10FACDDD94ED030A30EE600AF2
:103360002EE0424A1144424A9FED420A914268EEE1
:10337000800A36D2018801F5167101EE901AB8EE76
:10338000612AC0EE821A61EE800A90ED010AF6EE23
:10339000001AB8EEC02AB4EEE02AF1EE10FA04D218
:1033A00094ED030A30EE210A0AE0B8EEC00AB4EE4A
:1033B000E00AF1EE10FA9DDD94ED030A30EE610AA9
:1033C00084ED030A96E794ED010AB8EEC01AF4EE14
:1033D000C10AF1EE10FA97DBB8EEC00A84ED030AD9
:1033E00092E7008800F5167101EE101AA0F54870FA
:1033F000F8EE411A80EEA11A61EE000A01EE100A01
:10340000F8EEC11A81EE801A84ED041A94ED050AD3
:10341000B4EEC01AF1EE10FA02DCB0EE410A01E09F
:1034200084ED040AFDEEE00A10EE900AFDF744F97F
:10343000114A616B1148914201DA002200E0012239
:10344000BDEC028B1021BDE87040FDF756BF0000B7
:103450000000002074080020000000004801002047
:10346000CDCCCC3DFFFF9F009A99993EFFFF5FBFF7
:10347000FFFF7F0000007A440000A84100040048DC
:1034800070B54FF0E024002265690949A369096815
:103490004843A1699942FCD002D2A3EB010302E0A8
:1034A000A5EB010633441A440B468242F1D370BDAA
:1034B00054000020FDF734FFFFF772FCFFF75EFABF
:1034C000FFF7BAF9FFF7A8FA012202210548FDF734
:1034D00014FF08210448FEF729FFFFF7F5F900F073
:1034E00012F8FEE70004004874080020014600209E
:1034F000842900D0C81C704710B500B9012000F025
:10350000CFFD002010BD10B500F032FE002010BD30
:1035100038B5D0E9011204683AB1C3682BB1002074
:103520000090204600F03CFF38BD2046BDE8384002
:10353000002200F011BF7FB50D4604464169B0F985
:10354000080081B1A16971B1FFF7D0FFD4E905127C
:103550008DE80700D4E900102B46226901F0A9F993
:10356000039004B070BDFFF7C1FF03A9CDE90001CE
:10357000208A2B4682B2D4E9001001F06DF90128AF
:1035800001D00020EDE70398EBE700001CB511C85F
:103590006CB1CDE90004012907D000201346024692
:1035A000012109A001F02AFB1CBD0120F6E70090D3
:1035B000012907D0002013460246012102A001F094
:1035C00003FB1CBD0120F6E7000000002DE9F041DF
:1035D000184C0F46054666692068001D00F030FC57
:1035E00038B9206890F82C1001208840A1698143E7
:1035F000A161681C07D137B12168BDE8F0410E48D0
:10360000091D00F06DBC20683544B5424560216855
:1036100005D2A068BDE8F041091D00F049BC606812
:10362000091D00F045FC206B854200D22563BDE8F2
:10363000F081000068000020100A00202DE9F04110
:10364000054600F059FC2E4C2069401C2061206882
:103650002C4F10B1E06940B32DE0256020690128AE
:1036600029D1002606EB860007EB800000F012FC53
:10367000761C072EF6D323488C3000F00BFC214833
:10368000A03000F007FC1F48B43000F003FC1D48D8
:10369000C83000F0FFFB1B48DC3000F0FBFB194892
:1036A0008C3060601430A06005E02068E96AC06A70
:1036B000884200D82560E06A401CE062E96A012087
:1036C000A26988401043A06101EB810007EB8000F4
:1036D000291D00F005FC00F02FFCE06900280CD04B
:1036E0002068E96AC06A884207D207494FF08050D3
:1036F0000860BFF34F8FBFF36F8FBDE8F08100000C
:10370000680000203409002004ED00E038B500F026
:10371000F3FB104CA068C8B90F4800F0BBFB0E4883
:10372000143000F0B7FB0C482060143060600A4B86
:1037300000202833009003F148020C210A2000F0F9
:103740002FFEA06010B105A100F074FCBDE8384068
:1037500000F0F2BBA4000020240A0020546D725136
:103760000000000030B4026C0B46002A0BD0C16888
:103770001144C1604468A14201D30168C16030BCFA
:103780001846FCF7A5BD30BC70472DE9F041856BAC
:10379000174604460026026C82B1C7B1E068FCF708
:1037A00097FDE168206C091AE1602268914202D21B
:1037B0006168081AE060022F16D017E02068A8B9E7
:1037C000606801F019F90646002060600EE0A0680C
:1037D000FCF77EFD216CA0680844A0606168884207
:1037E00004D32068A06001E005B16D1E6D1CA563C7
:1037F0003046BDE8F08110B5044690F8510058B14C
:1038000001280CD002280FD0502080F31188BFF37C
:103810004F8FBFF36F8FFEE7206B00F0A1FB2046B8
:10382000BDE8104000F09CBB10BD000010484FF4F4
:103830004061420706D0C01D0D4920F00700411A23
:10384000C1F540610B4A00230144C2E90003083975
:10385000103A21F0070111604B600B600B1AC0E9B0
:10386000001393604FF000405360D0607047000039
:103870000C0B0020C8000020144E154CA6F1C80700
:103880004FF08058DFF84C9012E000BF00F034FB9E
:10389000F068C568281D00F0D3FA2069401E206139
:1038A000E068401EE06000F047FB2846FFF7A3FFFA
:1038B000E0680028EAD138680128F9D9C9F8008001
:1038C000BFF34F8FBFF36F8FF2E70000FC090020BA
:1038D0006800002004ED00E00346009829B1026072
:1038E000C0E90F31012100F08FBD0060F8E72DE93C
:1038F000F0479A46DDE9098481466FF00303206BA7
:1039000003EB82021044089D20F00706700707D0E1
:10391000502080F31188BFF34F8FBFF36F8FFEE706
:1039200023180A5C83F834200A5C12B1401C10286A
:10393000F6D3002784F84370072D00D30625E562EF
:10394000C4E91157201D00F0B0FA04F1180000F08E
:10395000ACFA2461C5F107006462A061E76484F8F1
:10396000507052464946304600F054FA2060B8F193
:10397000000F01D0C8F80040BDE8F0872DE9F047FE
:103980001E46DDE9089417460D0080460ED0002C37
:1039900014D0FFF7BBFEC4F80080C4E90657C4E9A1
:1039A0000869201DBDE8F04700F07FBA502080F381
:1039B0001188BFF34F8FBFF36F8FFEE7BDE8F0872D
:1039C00030B5114900E011460A688242FBD34B68CA
:1039D0005C18844203D14068184448600846436834
:1039E0001C18944209D1084C103C2468A24209D00A
:1039F00052681A4442600A6812680260814200D02C
:103A0000086030BD0460F9E7C800002070B50024EC
:103A100041600B4D0061914206D8D11A82699142F2
:103A200006D2011D686807E09A4203D2994201D389
:103A3000012403E0011D286800F03AFA204670BD19
:103A4000A400002010B5044600F056FAA06B28B17F
:103A50005FF0000400F070FA204610BD0124F9E781
:103A600030B587B02C4D4EE0049800284BDB069C07
:103A7000606910B1201D00F0E3F902A800F0B8F869
:103A8000024604980A283ED2DFE800F00505053D0D
:103A9000263705053D260598A169034601442046C1
:103AA000FFF7B4FF00B3616A20468847E069012848
:103AB00029D1002000900598A169002342181946D9
:103AC000204601F0E3F878B9502080F31188BFF365
:103AD0004F8FBFF36F8FFEE70598A06128B1811863
:103AE00013462046FFF792FF0DE0502080F3118827
:103AF000BFF34F8FBFF36F8FFEE794F8280010B924
:103B0000204600F02DFA002204A9A86800F0CEFD9E
:103B10000028A9D107B030BDA40000202DE9FC4148
:103B20000F46054600F068FB01A800F061F8044666
:103B3000019818B100F0E6FFBDE8FC81224EAFB15C
:103B400070680068A8B30027291B3A46B06800F0E7
:103B500085FA00F0D7FF0028EED11C494FF08050C5
:103B60000860BFF34F8FBFF36F8FE5E7A542EBD837
:103B700000F0C8FF30682746C068C468201D00F008
:103B80005FF9E069012810D1A0692B4641193A4636
:103B90002046FFF73BFF40B100200346014600905E
:103BA0002A46204601F072F820B1616A2046884713
:103BB000C2E707E0502080F31188BFF34F8FBFF3B7
:103BC0006F8FFEE70127BFE7A400002004ED00E0AF
:103BD00006484168096829B14168C968C9684968E7
:103BE000016370474FF0FF31FAE7000068000020E2
:103BF00070B5054600F096FE064E044630698442D4
:103C000003D200F009F8012000E0002028602046DF
:103C1000346170BDA4000020F8B5194D1FE0C068E4
:103C2000C4680668201D00F00BF9616A20468847C9
:103C3000E069012813D1A0693044B04206D924615B
:103C40006060211D286800F033F908E00020034679
:103C5000014600903246204601F018F838B1286835
:103C600001680029DBD16968C5E90010F8BD502062
:103C700080F31188BFF34F8FBFF36F8FFEE7000013
:103C8000A400002008484068401C4FF0500080F31A
:103C9000118804D0BFF34F8FBFF36F8FFEE7BFF3E0
:103CA0004F8FBFF36F8FFEE7D0000020074C2068D6
:103CB000016841B1C0680021D0F80000FFF72EFF75
:103CC000FFF7CEFEF3E701210020F7E7A400002074
:103CD0002DE9F041044600F00FF994F9455004F144
:103CE000240609E0606A48B1304600F0D1FE08B110
:103CF00000F004FA6D1E6DB2002DF3DC4FF0FF36BC
:103D000084F8456000F018F900F0F6F894F9445092
:103D100004F1100709E0206948B1384600F0B8FE08
:103D200008B100F0EBF96D1E6DB2002DF3DC84F8E4
:103D30004460BDE8F04100F0FFB800002DE9F0411B
:103D40000546002700F058FA314E306808B9FFF7F1
:103D50006DFDF06805424BD1C5B3083568070ED03C
:103D600005F00700C0F108000544680707D050209F
:103D700080F31188BFF34F8FBFF36F8FFEE72DB332
:103D80007068854234D82248103001460C6801E042
:103D900020460C466168A94202D221680029F7D169
:103DA00031688C4224D00768216801606068083758
:103DB000411B10290FD96019420708D0502080F309
:103DC0001188BFF34F8FBFF36F8FFEE710E04160A4
:103DD0006560FFF7F5FD61687068401A7060B26851
:103DE000904200D2B060F06801430020C4E90001B5
:103DF00000F088FE780707D0502080F31188BFF3C9
:103E00004F8FBFF36F8FFEE73846BDE8F0810000AB
:103E1000B800002010B5031F4FF080741C601B1FFA
:103E200021F001011960191F044B0B6014390A605D
:103E3000091F6FF0020244380A6010BD853C00087B
:103E4000D0E9013201699A60D0E901235A604A68D9
:103E5000824201D182684A60002202610868401EE5
:103E60000860086870470000034B036003F15400CA
:103E7000086080201060704754010020044B0360EC
:103E800003F1540008604FF4807010607047000028
:103E9000A803002000F108014FF0FF32C0E9011231
:103EA000C16001610021016070470021016170471C
:103EB00030B50B685A1C02D000F1080202E002691A
:103EC00004E02246546825689D42FAD953684B6045
:103ED00099608A60516008610168491C016030BDC9
:103EE00042684A6093688B6093685960916008618A
:103EF0000168491C01607047502080F31188BFF3AE
:103F00004F8FBFF36F8F0A494868401C48600128F3
:103F10000CD10848006810F0FF0F07D0502080F344
:103F20001188BFF34F8FBFF36F8FFEE7704700001C
:103F3000D000002004ED00E00849486828B1401E88
:103F4000486001D180F311887047502080F31188B8
:103F5000BFF34F8FBFF36F8FFEE70000D00000204C
:103F600070B5002827D0144DA0F108046168E868F6
:103F7000014207D1502080F31188BFF34F8FBFF368
:103F80006F8FFEE722683AB1502080F31188BFF3AB
:103F90004F8FBFF36F8FFEE78143616000F02CF914
:103FA00060686968084468602046FFF709FDBDE85D
:103FB000704000F0A7BD70BDB80000204FF0E020B9
:103FC00000210161816105494FF47A720968B1FBF2
:103FD000F2F1491E41610721016170476400002030
:103FE00010B5FCF75FF9114910280ED300F1E0205D
:103FF00090F8F0030A78904207D2502080F311889D
:10400000BFF34F8FBFF36F8FFEE7094800688968E1
:1040100000F4E060884207D9502080F31188BFF394
:104020004F8FBFF36F8FFEE710BD0000D000002060
:104030000CED00E010B5084B002200BF53F83240F1
:104040001CB1521C082AF9D310BD43F8321003EBFF
:10405000C201486010BD0000F408002070B515468C
:104060000E460446FFF748FF94F944100020491C0F
:1040700001D184F8440094F94510491C01D184F819
:104080004500FFF759FFA06B28B92A46314604F1D5
:10409000240000F051F82046BDE87040FFF718BE3C
:1040A00010B5020014D00F48806B38B1502080F357
:1040B0001188BFF34F8FBFF36F8FFEE700F09CF8BE
:1040C00000211046FFF782FA00F01CFD002807D1FE
:1040D00005494FF080500860BFF34F8FBFF36F8FDB
:1040E00010BD00006800002004ED00E002498A6A6B
:1040F0000260496941607047680000200149012061
:10410000486270476800002010B50C4650B109495C
:1041100009681831FFF7CCFE2046BDE810400121A8
:10412000FFF754BA502080F31188BFF34F8FBFF3CD
:104130006F8FFEE76800002070B514460D4668B129
:104140000A4909681831FFF7CBFE0CB14FF0FF3573
:1041500021462846BDE87040FFF738BA502080F36A
:104160001188BFF34F8FBFF36F8FFEE76800002009
:1041700030B587B00024039405AA04A903A80494C9
:10418000FFF772FEDDE903010094CDE90110002381
:1041900015A11748059A00F08CFB164D002868639E
:1041A0001FD000F043FD012809D0401C19D1502038
:1041B00080F31188BFF34F8FBFF36F8FFEE750205E
:1041C00080F31188BFF34F8FBFF36F8F4FF0FF3035
:1041D00028630120E8616C6107B0BDE8304000F061
:1041E00041B807B030BD000049444C450000000014
:1041F00079380008680000200248816B491C8163FF
:1042000070470000680000201448816B11B1012143
:1042100041627047002141628169B1FA81F1C1F1C7
:104220001F0101EB81020E4951F822306BB101EB05
:10423000820101F108034A6852684A609A4201D13A
:1042400052684A60D16801607047502080F311883D
:10425000BFF34F8FBFF36F8FFEE7000068000020B1
:10426000340900201CB537480168374A914207D10C
:10427000502080F31188BFF34F8FBFF36F8FFEE79D
:1042800000683149491E884207D1502080F31188C7
:10429000BFF34F8FBFF36F8FFEE72C490878019073
:1042A000FF20087008788DF800009DF800009DF848
:1042B000002000F0F000904207D0502080F31188D9
:1042C000BFF34F8FBFF36F8FFEE79DF80000204BC9
:1042D00000F0500018700720986005E09DF800205D
:1042E00052008DF80020401E9DF800201206F5D4E3
:1042F0009860032807D0502080F31188BFF34F8FB8
:10430000BFF36F8FFEE74FF440709860019808701C
:104310000C482030016841F470010160016841F0EF
:1043200070410160FFF74AFE00205860FBF782FFF2
:104330000848016841F040410160FBF767FF002039
:104340001CBD000000ED00E071C20F4100E400E080
:10435000D000002034EF00E0F8B517460E46050007
:1043600014D0DEB105FB06F04830FFF7E7FC04008F
:104370000AD0002084F8460004F148023B4631464A
:1043800028460094FFF7A8FA2046F8BD502080F395
:104390001188BFF34F8FBFF36F8FFEE70020E3E775
:1043A00038B5049D18B153B1CAB181B120E0502095
:1043B00080F31188BFF34F8FBFF36F8FFEE750205C
:1043C00080F31188BFF34F8FBFF36F8FFEE750204C
:1043D00080F31188BFF34F8FBFF36F8FFEE739B1C2
:1043E000502080F31188BFF34F8FBFF36F8FFEE72C
:1043F00048241C46012384F846302B460094FFF7DE
:104400006BFA204638BD000070B50D46040025D07B
:10441000FFF772FDD4E90F20216802FB00116160F3
:104420000021A1632168A1600A46D4E90F01401E62
:1044300000FB0121E16021464FF0FF3001F8440FFD
:10444000487004F110008DB1FFF724FD04F1240041
:10445000FFF720FDFFF770FD012070BD502080F3B5
:104460001188BFF34F8FBFF36F8FFEE721690029DB
:10447000F0D000F00DFB0028ECD004494FF0805044
:104480000860BFF34F8FBFF36F8FE3E704ED00E0E9
:104490002DE9FF4782B01D468A464FF00008040010
:1044A00003D0BAF1000F08D011E0502080F311883A
:1044B000BFF34F8FBFF36F8FFEE7206C38B15020F2
:1044C00080F31188BFF34F8FBFF36F8FFEE7022D8C
:1044D0000AD1E06B012807D0502080F31188BFF388
:1044E0004F8FBFF36F8FFEE700F00EFA3F4F4FF094
:1044F00000094FF0805648B9049838B1502080F335
:104500001188BFF34F8FBFF36F8FFEE7FFF7F4FC07
:10451000A06BE16B884207D3022D05D00498D0B17F
:10452000B8F1000F1AD01EE02A4651462046FFF788
:104530002CF9616A19B104F1240000F0A9FA20B144
:104540003E60BFF34F8FBFF36F8FFFF7F5FC012085
:1045500006B0BDE8F087FFF7EFFC22E06846FFF702
:10456000C5FD4FF00108FFF7E7FCFFF745FEFFF739
:10457000C3FC94F94400401C01D184F8449094F9A0
:104580004500401C01D184F84590FFF7D5FC04A9F3
:10459000684600F027F930B12046FFF799FB00F09C
:1045A000B1FA0020D4E7FFF7A7FCA06BE16B8842CB
:1045B00013D1FFF7C1FC04F110000499FFF7A4FD2B
:1045C0002046FFF785FB00F09DFA00289ED13E6053
:1045D000BFF34F8FBFF36F8F98E7FFF7ADFC204617
:1045E000FFF776FB00F08EFA90E7000004ED00E0A4
:1045F0002DE9F0471F4690468946040003D0B9F1E3
:10460000000F08D011E0502080F31188BFF34F8FC6
:10461000BFF36F8FFEE7206C38B1502080F3118814
:10462000BFF34F8FBFF36F8FFEE7022F0AD1E06B0E
:10463000012807D0502080F31188BFF34F8FBFF3BC
:104640006F8FFEE7FFF7CCFC5020EFF3118680F36D
:104650001188BFF34F8FBFF36F8FA06BE16B884260
:1046600006D3022F04D0002086F31188BDE8F0871E
:1046700094F945503A4649462046FFF786F8681CAB
:1046800004D06D1C84F845500120EDE7606A0028D5
:10469000FAD004F1240000F0FBF90028F4D0B8F1BE
:1046A000000FF1D00121C8F80010EDE72DE9F74720
:1046B000002683B08A46040003D0BAF1000F08D068
:1046C00011E0502080F31188BFF34F8FBFF36F8F3D
:1046D000FEE7206C38B1502080F31188BFF34F8F74
:1046E000BFF36F8FFEE700F00FF9DFF8F4804FF0B3
:1046F00000094FF0805748B9059838B1502080F331
:104700001188BFF34F8FBFF36F8FFEE7FFF7F4FB06
:10471000A56BC5B151462046FFF724F86D1EA56371
:10472000206950B104F1100000F0B2F928B1C8F8C6
:104730000070BFF34F8FBFF36F8FFFF7FDFB0120BA
:1047400006B0BDE8F087059808B11EB106E0FFF796
:10475000F3FB27E06846FFF7C9FC0126FFF7ECFBF7
:10476000FFF74AFDFFF7C8FB94F94400401C01D154
:1047700084F8449094F94500401C01D184F8459098
:10478000FFF7DAFB05A9684600F02CF80028204660
:104790000AD0FFF79DFA00F0B5F92046FFF752F96D
:1047A0000028B3D00020CBE7FFF74CF990B104F11B
:1047B00024000599FFF7A8FC2046FFF789FA00F0CE
:1047C000A1F90028A2D1C8F80070BFF34F8FBFF342
:1047D0006F8F9BE72046FFF77BFA00F093F995E790
:1047E00004ED00E02DE9F0410C46050011D0C4B104
:1047F000FFF782FB174B5A696E682068911B471CB4
:1048000017D02F689B6A9F4219D0964217D801246F
:1048100010E0502080F31188BFF34F8FBFF36F8FEC
:10482000FEE7502080F31188BFF34F8FBFF36F8FE7
:10483000FEE70024FFF780FB2046BDE8F0818842B8
:1048400005D9401A20602846FFF750FCF1E7002008
:104850002060DCE7680000202DE9FF5F8346DDE98A
:104860000E87994616468A469000FFF767FA0500BC
:104870001CD05420FFF762FA040014D000202563F6
:1048800084F85100CDE90240CDE900874B4632461D
:1048900051465846FFF72BF82046FEF7CFFE012081
:1048A00004B0BDE8F09F2846FFF75AFB4FF0FF30F9
:1048B000F6E7F0B585B0DDE90B640A9DA6B1DCB181
:1048C000542700972663022684F85160002604AF1F
:1048D000CDE90246CDE90057FFF709F82046FEF77B
:1048E000ADFE049805B0F0BD502080F31188BFF3F1
:1048F0004F8FBFF36F8FFEE7502080F31188BFF317
:104900004F8FBFF36F8FFEE70548C16919B1806B08
:1049100018B1002070470120704702207047000046
:1049200068000020014840697047000068000020CE
:104930002DE9F0412E4C0027A06B40B1206A401CAD
:104940002062606A00B101273846BDE8F0816669DF
:10495000761C666113D16068006838B1502080F31E
:104960001188BFF34F8FBFF36F8FFEE76068A168B8
:104970006160A060A06A401CA062FFF729F9206B6B
:10498000DFF87080864209D36068006880B1606893
:10499000C068C568686886420DD220632068C06A16
:1049A00000EB800158F821000128CAD90127C8E787
:1049B0004FF0FF30F1E7281DFFF742FAA86A18B15F
:1049C00005F11800FFF73CFAE86A0121A26981406D
:1049D0001143A16100EB800108EB8100291DFFF765
:1049E0007FFAE86A2168C96A8842CDD30127CBE7FC
:1049F000680000203409002070B504004FF0000169
:104A000040D0214D2868844207D0502080F311887F
:104A1000BFF34F8FBFF36F8FFEE7A06C38B1401E1E
:104A2000A064636CE26A9A422CD040B12AE0502024
:104A300080F31188BFF34F8FBFF36F8FFEE7201D08
:104A4000FFF7FEF9114A012150B9E06A00EB80033B
:104A500052F8233023B9AB6901FA00F08343AB610C
:104A6000606CE062C0F10700A061E06AAB69814060
:104A70001943A96100EB800002EB8000211DFFF7C4
:104A80002FFA0121084670BD68000020340900207B
:104A90002DE9F041C068C468ACB104F118000746C4
:104AA000FFF7CEF9154DA86B0126A0B13946144881
:104AB000FFF716FAE06A2968C96A88421CD9012002
:104AC0006E62BDE8F081502080F31188BFF34F8FF4
:104AD000BFF36F8FFEE7201DFFF7B2F9E16AAA6905
:104AE00006FA01F01043A86101EB81000449B439D2
:104AF00001EB8000211DDBE70020E2E768000020D9
:104B0000E80900202DE9F0472C4D00242746A86B2A
:104B100038B1FFF7F1F9A86B401EA863A86B40B14C
:104B200046E0502080F31188BFF34F8FBFF36F8FA3
:104B3000FEE72969224E0120D1B3A6F1B4098046CF
:104B40003068E8B1F068C46804F11800FFF778F93C
:104B5000201DFFF775F9E06AAA6908FA00F1114310
:104B6000A96100EB800109EB8100211DFFF7B8F975
:104B7000E06A2968C96A8842E2D3C5F82480DFE781
:104B80000CB1FFF725F82C6A44B14646FFF7D0FE7A
:104B900000B16E62641EF9D100202862686A38B1E3
:104BA0000849012738070860BFF34F8FBFF36F8FA5
:104BB000FFF7C2F93846BDE8F08700006800002022
:104BC000E809002004ED00E02DE9FC4781461E467F
:104BD000174688462C200A9DFFF7B0F804000AD03B
:104BE000CDE9005433463A4641464846FEF7C6FEF4
:104BF000002084F828002046BDE8FC877CB52C26E0
:104C0000DDE90654009644B1CDE90054FEF7B6FE46
:104C1000012084F8280020467CBD502080F31188B4
:104C2000BFF34F8FBFF36F8FFEE7000010B586B064
:104C3000FEF76CFD114CA068B8B100200390049001
:104C400005AA04A903A8FFF719F9DDE90321022049
:104C50008DE8070000230AA10B48059AFFF729FEFB
:104C6000E06010B106B0012010BD502080F3118823
:104C7000BFF34F8FBFF36F8FFEE70000A40000204B
:104C8000546D722053766300AD3C0008FEB51E469D
:104C900013460200089D4FF0000014D0124CA76884
:104CA000002F0FD0CDE900130292062915DAFFF785
:104CB0002BFE02284FF000030DD000226946A068A9
:104CC000FFF7E6FBFEBD502080F31188BFF34F8F46
:104CD000BFF36F8FFEE72A46F0E7002332466946AE
:104CE0003846FFF785FCFEBDA4000020B70600088B
:104CF00000000000100000000200000000000000A2
:104D00000000000010000000020000000000000091
:104D10000000000010000000020000000000000081
:104D200000000000A84D0008252D0008000000002C
:104D30000000000000010000000000000000000072
:104D40009C4D0008992C0008FDFF000000000000A9
:104D5000800000000000000000000000904D0008EE
:104D60001D2D0008FDFF0000000000008000000075
:104D70000000000000000000000000000000000033
:104D800001020304060708090000000001020304F1
:104D900043414E5F5461736B000000004164635FE8
:104DA0005461736B00000000506F7765725F54614F
:104DB000736B0000D44D000800000020DC000000F0
:104DC00056320008B04E0008DC000020341A000003
:104DD000663200080000000050040000000040415E
:104DE00000000000000000006666BA416F12033A3E
:104DF0000742B238000000000000FA440000000042
:104E000000000000000000000000000000000000A2
:104E10000000000000000000000000000000000092
:104E20000000000000000000000000001000000072
:104E300001000000000000000024F4000000000059
:104E40000000000000000000000000000000000062
:104E50000000000000000000000000000000000052
:104E60000000000000000000000000000000000042
:104E70000000000000000000000000000000000032
:104E80000000000000000000000000000000000022
:104E90000000000000000000000000000000000012
:104EA0000000000000000000AAAAAAAA000000005A
:04000005080001D915
:00000001FF
