:020000040800F2
:10000000381E0020390300083F320008DB2A0008B0
:100010003D320008A5050008653B0008000000000F
:10002000000000000000000000000000790200084D
:10003000F106000800000000D50200082136000883
:100040005303000853030008530300085303000838
:100050005303000853030008530300085303000828
:100060005303000853030008530300085303000818
:100070005303000853030008530300085303000808
:100080005303000800000000530300085303000856
:1000900053030008550700085303000853030008E2
:1000A00053030008530300085303000853030008D8
:1000B00053030008530300085303000853030008C8
:1000C00053030008530300085303000853030008B8
:1000D00053030008530300085303000853030008A8
:1000E0005303000853030008530300085303000898
:1000F00053030008530300085303000800000000E6
:100100000000000053030008000000005303000833
:100110005303000800000000D13600085303000814
:100120005303000853030008530300085303000857
:100130005303000800000000000000005303000803
:1001400053030008530300080000000000000000F3
:10015000000000000000000000000000000000009F
:100160000000000000000000000000005303000831
:100170005303000800000000000000000000000021
:100180000000000053030008000000000000000011
:10019000000000000000000000000000000000005F
:1001A0000000000000000000530300085303000893
:1001B0005303000853030008530300080000000025
:1001C00000000000530300080000000000000000D1
:1001D000530300085303000800F002F800F03CF855
:1001E0000AA090E8000C82448344AAF10107DA4592
:1001F00001D100F031F8AFF2090EBAE80F0013F0A8
:10020000010F18BFFB1A43F00103184724590000DF
:1002100044590000103A24BF78C878C1FAD8520770
:1002200024BF30C830C144BF04680C607047000070
:100230000023002400250026103A28BF78C1FBD8EF
:10024000520728BF30C148BF0B6070471FB505F08B
:10025000FBFB1FBD10B510BD00F02FF91146FFF7D5
:10026000F5FF03F001FE00F04DF903B4FFF7F2FFD4
:1002700003BC00F055F900002C4B19680868B0E881
:10028000F04F80F30988BFF36F8F4FF0000080F3C9
:10029000118870470000000008480068006880F37B
:1002A00008884FF0000080F3148862B661B6BFF38F
:1002B0004F8FBFF36F8F00DF00BF00BF08ED00E07E
:1002C000DFF80C00016841F470010160704700BF65
:1002D00088ED00E0EFF30980BFF36F8F134B1A68CE
:1002E0001EF0100F08BF20ED108A20E9F04F1060BB
:1002F00009B44FF0500080F31188BFF34F8FBFF364
:100300006F8F04F08FFC4FF0000080F3118809BC60
:1003100019680868B0E8F04F1EF0100F08BFB0EC85
:10032000108A80F30988BFF36F8F70479000002018
:10033000EFF30580704700000948804709480047EF
:10034000FEE7FEE7FEE7FEE7FEE7FEE7FEE7FEE785
:10035000FEE7FEE704480549054A064B70470000E2
:10036000C1360008D901000838180020381E0020C6
:10037000381A0020381A0020032A40F2308010F08A
:10038000030C00F0158011F8013BBCF1020F624430
:1003900098BF11F801CB00F8013B38BF11F8013BC1
:1003A000A2F1040298BF00F801CB38BF00F8013B6E
:1003B00011F0030300F02580083AC0F0088051F8DE
:1003C000043B083A51F804CBA0E80810F5E7121DE9
:1003D0005CBF51F8043B40F8043BAFF30080D20708
:1003E00024BF11F8013B11F801CB48BF11F8012BD4
:1003F00024BF00F8013B00F801CB48BF00F8012BF7
:10040000704710B5203AC0F00B80B1E81850203A80
:10041000A0E81850B1E81850A0E81850BFF4F5AFA4
:100420005FEA027C24BFB1E81850A0E8185044BF2E
:1004300018C918C0BDE810405FEA827C24BF51F89B
:10044000043B40F8043B08BF7047D20728BF31F88F
:10045000023B48BF11F8012B28BF20F8023B48BFE0
:1004600000F8012B70474FF0000200B51346944688
:100470009646203922BFA0E80C50A0E80C50B1F1FC
:100480002001BFF4F7AF090728BFA0E80C5048BF10
:100490000CC05DF804EB890028BF40F8042B08BFAE
:1004A000704748BF20F8022B11F0804F18BF00F8AA
:1004B000012B7047704770477047754600F02CF865
:1004C000AE4605006946534620F00700854618B041
:1004D00020B5FFF73FFFBDE820404FF000064FF08A
:1004E00000074FF000084FF0000B21F00701AC4669
:1004F000ACE8C009ACE8C009ACE8C009ACE8C00988
:100500008D46704710B50446AFF300802046BDE825
:100510001040FFF7AABE000000487047D417002023
:1005200001491820ABBEFEE726000200704700001C
:1005300070B504460068816811F0010F2DD1816803
:10054000174A11421AD18168D5432940491C81605C
:1005500001F0C4F906461BE0816811F0010F03D1D8
:1005600081682940491C816001F0B8F9801B02288C
:100570000ED920680068C043C00709D0E06D40F084
:100580001000E065206E40F001002066012070BD83
:1005900020680168C943C907DED1002070BD000092
:1005A0003F000080FEE7704770B54C4C4C4D06464E
:1005B0002DED028BD4ED0D0AC5ED000A85ED010A83
:1005C0009FED488A04F12401284691EC030AF0EEDD
:1005D000481A02F070FE284602F032FE704200EE29
:1005E000900A95ED0A0AF8EEE00AB4EEE00AF1EEA0
:1005F00010FA02D800EE100A0AE000EE906AF8EE57
:10060000E00AB4EEE00AF1EE10FA05DB00EE106A43
:10061000B8EEC00A85ED0A0A314D30483C3DB1EED6
:10062000400A5C3085ED000A808804F1180100EE74
:10063000100AF0EE481A2846B8EE400A85ED010A85
:1006400091EC030A02F037FE284602F0F9FDA0689B
:1006500095ED0A0A414200EE901AF8EEE00AB4EE77
:10066000E00AF1EE10FA02D800EE101A0AE000EEED
:10067000900AF8EEE00AB4EEE00AF1EE10FA05DBBB
:1006800000EE100AB8EEC00A85ED0A0AD4ED030A9E
:1006900030EE200A84ED030AB5EEC00AF1EE10FA3E
:1006A00002D89FED110A0CE000EE900AF8EEE00A85
:1006B000B4EEE00AF1EE10FA05DB00EE100AB8EE37
:1006C000C00A84ED030A0949BCEEC00A096810EEAD
:1006D000100AC863BDEC028B70BD00000000002052
:1006E000180800200000FA4400000000240900203F
:1006F0007047704710B588B000240120CDE9024052
:10070000049040F2222001940590069001A910481F
:1007100000F029FD08B1FFF7ECFF02220323114688
:100720000B48009400F04DFD08B1FFF7E2FF0848C8
:1007300000F0CAFF08B1FFF7DCFF002201210448E6
:1007400000F07CFC002801D0FFF7D3FF08B010BDFB
:10075000C0080020014800F0CABD0000C008002009
:10076000F0B5D1E901650C692C430D68BEB145F0C7
:1007700080452C43D1E90665354391F820704E69D8
:10078000406D46EA07663543CE6803EBC303354345
:1007900000EBC3000023E0E802450A4C0AE044EA0B
:1007A0008544E7E7D618D55CD6F801601B1D45EAFD
:1007B000062520C0CD6804EB15452D789D42F1D863
:1007C000F0BD0000E85A00082DE9F84F0027044664
:1007D000009790F85800DFF8E0930D46B8460128DE
:1007E00011D0012684F85860206802F0BFFB60B188
:1007F000E06D40F02000E0655FF0010784F858806C
:100800003846BDE8F88F0220FBE7D5E900210C232C
:10081000206803EA91131844036B01F01F014FF0A5
:100820001F0C0CFA01FCC2F3846223EA0C038A4019
:1008300013430363206802F099FB8246206802F0AC
:1008400091FB5AEA00003CD1AA6829682068B2F1FD
:10085000004F37D002F096FB2068416921F000413B
:10086000416120686969C268C2F3C10252009140C7
:100870002A69042A31D000EB82002B68026EDFF86F
:100880003CC303F0F84302EA0C020B431A4342F064
:100890000041016620682A69A96900EB8200026EA6
:1008A00022F080720A430266297F226828690129A2
:1008B00010D0002102EB8000026E22F000720A4389
:1008C00002667DE0002202F05DFB2068416941F094
:1008D0000041C5E74FF00071ECE7002102F03CFB5E
:1008E000400320684FF0000172D002F035FB90FA0F
:1008F000A0F0B0FA80F1286842036ED090FAA0F020
:10090000B0FA80F0814204D100221146206802F042
:1009100048FB0121206802F01FFB400320684FF0D4
:1009200001015DD002F018FB90FAA0F0B0FA80F15E
:100930002868420359D090FAA0F0B0FA80F08142C2
:1009400004D100220121206802F02BFB0221206843
:1009500002F002FB400320684FF0020148D002F091
:10096000FBFA90FAA0F0B0FA80F12868420344D074
:1009700090FAA0F0B0FA80F0814204D10022022166
:10098000206802F00EFB0321206802F0E5FA400324
:1009900020684FF0030133D002F0DEFA90FAA0F0A5
:1009A000B0FA80F1286842032FD090FAA0F0B0FA94
:1009B00080F0814204D100220321206802F0F1FA84
:1009C0002068816811F0010F22D0ACE000E004E063
:1009D00002F0C2FAC0F384618DE7C0F3846091E74E
:1009E00002F0BAFAC0F38461A2E7C0F38460A6E71C
:1009F00002F0B2FAC0F38461B7E7C0F38460BBE7EA
:100A000002F0AAFAC0F38461CCE7C0F38460D0E7B7
:100A10002A7B296850F8B03FC1F3120C23EA0C037B
:100A200002F0180C664A22FA0CF20A4013430360E3
:100A3000E968494577D1286841031CD090FAA0F1B4
:100A4000B1FA81F1491C01F01F0109294FEA403137
:100A500032D8002912D000BF90FAA0F1B1FA81F18A
:100A600001F1010101F01F0106FA01F609D100BFF1
:100A7000C0F3846109E0C0F38461E3E7C0F38461FB
:100A8000EEE790FAA0F1B1FA81F101F1010101F074
:100A90001F0146EA816102D1C0F3846003E090FA4D
:100AA000A0F0B0FA80F000F1010000F01F0000EBB0
:100AB000400041EA005132E000290ED090FAA0F146
:100AC000B1FA81F101F1010101F01F0106FA01F60D
:100AD00006D100BFC0F3846106E0C0F38461F1E792
:100AE00090FAA0F1B1FA81F101F1010101F01F01C9
:100AF00046EA816102D1C0F3846003E090FAA0F07D
:100B0000B0FA80F000F1010000F01F002D4A00EB68
:100B1000400002EB005041EA000141F00071AA6878
:100B2000206802F02FFA28482A6802423FF466AE95
:100B300026488168264B01F0E0719A4202D0254B8D
:100B40009A421CD10B021AD42268B2F1A04F7FF452
:100B500055AE826841F4000122F0E0720A438260DF
:100B60001D481E490068B0FBF1F0401C00EB40003E
:100B7000800000E0401E00900028FBD13EE6184DAA
:100B8000184BAA4207D1CD0105D422689A42F5D06C
:100B900041F0807109E0144DAA42EFD14A02EDD430
:100BA00022689A42EAD041F48001826822F0E07221
:100BB0000A43826022E6000000007F4000F0FF034D
:100BC000FFFF0700000020FE000008800003005027
:100BD000000021C31000C0908C000020400D0300D5
:100BE000000052C700010050000084CB0068006C78
:100BF00070470000F8B54FF0000504002E46009540
:100C000002D0E06D10B107E00120F8BD204600F0F1
:100C1000EFF8266684F8586020688168C1F3407157
:100C200019B181686A4A1140816020688168C1F306
:100C3000007189B98168674A114041F08051816033
:100C4000654866490068B0FBF1F04000801C00E098
:100C5000401E00900028FBD120688168C1F300711C
:100C600041B9E16D41F01001E165216E41F00101F2
:100C70002166012502F07AF9E16DC90600D430B190
:100C8000E06D40F01000E06501252846F8BDE06DFC
:100C900020F4807040F00200E0652068806810F069
:100CA000010F11D14FF0A04080684D4900F00100C4
:100CB000896801F00101084306D14A4861688268E9
:100CC00022F47C120A438260E168E06B627F084391
:100CD000A16841EA4231084394F8241040EA0140F7
:100CE000012904D1218D404A02EB41410843E16AC8
:100CF00029B101F47871226B014342EA01002168B5
:100D0000CA683A4B1A400243CA6020680169626BA4
:100D100021F0406111430161206802F027F9064685
:100D2000206802F01FF930432ED1207F94F838104C
:100D3000800340EA41022068C16844F202039943FB
:100D40001143C16020690028206801690AD041F47C
:100D500080310161206850F8C01F22696FF30D01D6
:100D6000114307E021F480310161206850F8C01F71
:100D70006FF30D01016094F8400001280CD0206849
:100D8000016921F001010161606901282068016B9E
:100D900021F00F0111D013E0D4E911010843D4E987
:100DA00013121143084321680A6940F2FC739A4305
:100DB000104340F001000861E6E7226A521E114329
:100DC0000163E06D20F0020040F00100E0655CE7A7
:100DD000C0FFFF5FC0FFFF7F8C000020400D0300BD
:100DE00000010050000300500000FEFF0740F0FF2C
:100DF00010B586B0044614216846FFF734FB11494C
:100E0000206888421BD11048C16C41F40051C16474
:100E1000C16C01F400510591C16C41F00101C16444
:100E2000C06C694600F0010005902020009003206E
:100E30000190002002904FF0904000F061FC06B05D
:100E400010BD000000010050001002402DE9F041EB
:100E500004463B480F46816801F01F05A169082937
:100E60000FD085B1052D0ED0092D0CD0806800F46F
:100E7000604060B1E06D40F02000E0650120BDE819
:100E8000F081082604E02068C068C007F1E7042666
:100E900000F024FD804615E0781C13D000F01EFD04
:100EA000A0EB0800B84200D867B92068006830425B
:100EB00008D1E06D40F00400E065002084F858009F
:100EC0000320DCE7206800683042E5D0E06D40F4A4
:100ED0000070E065206802F04DF880B1607F70B965
:100EE0002068006800070AD5E06D20F48070E06596
:100EF000E06DC00403D4E06D40F00100E065114AEC
:100F000020684FF0A041904201D10B4600E003461B
:100F1000834210D07DB1052D0DD0092D0BD090420C
:100F200000D00146C968082E07D0490401D40C211D
:100F300001600020A3E7C168F5E70821F8E7000099
:100F400000030050000100502DE9F04104463848EC
:100F5000806800F01F05206802F008F818B102212F
:100F60000846BDE8F08194F8580001280CD0012013
:100F700084F858002046FFF7DBFA01004FF0000329
:100F800004D084F85830EBE70220EAE7E06D40F641
:100F90000162904340F48070E065264A20684FF07B
:100FA000A046904201D1374600E00746874200D074
:100FB0001DB9E76D27F48017E765E76DFF0404D5D9
:100FC000276E27F00607276600E023661C270760C8
:100FD00084F858302068904201D1334600E003463F
:100FE000834215D0A5B1052D12D0092D10D0E36D87
:100FF00043F48013E365904200D13046C06880011D
:10100000AED5E06D20F4005040F48050E065A7E7D5
:10101000C268920105D5E26D22F4005242F480527A
:10102000E2658268044B1A40121D826098E7000056
:101030000003005000010050C0FFFF7F30B590F862
:101040005C30012B07D0022B05D0016E41F002016C
:101050000166012030BD0468A36D4D0701D0DD0796
:101060001DD011F0380F01D09D0718D511F4E07F85
:1010700001D05D0713D511F4F05F01D01D070ED527
:1010800011F4604F01D0DD0609D511F4403F01D0C5
:101090009D0604D511F47C0F05D05D0603D4E56DE3
:1010A00045F00105E5654C0701D0DC071DD111F0C5
:1010B000380F01D09C0718D411F4E07F01D05C07F1
:1010C00013D411F4F05F01D01C070ED411F4604F5B
:1010D00001D0DC0609D411F4403F01D09C0604D4B1
:1010E00011F47C0F06D05B0604D50368DC6D44F078
:1010F0000204DC650B0604D5036853F8DC4F144387
:101100001C60CB0504D5036853F8E04F14431C6002
:101110000068426D0A434265002030BD70B5044648
:1011200090F85C00022803D0206E40F0080007E031
:101130002068D0F8C4309B0205D5206E40F40070C2
:101140002066012070BDD0F8C400C0F301452B46D5
:101150002046FFF705FB21680120A840C1F8CC001C
:10116000A065002070BD10B590F85C20012A07D062
:10117000022A05D0016E41F002010166012010BD76
:101180000A687AB10B7B0A690C7A42EA43734A69AE
:10119000406C496842EA847200EBC100C0E9003249
:1011A000002010BD0B7A4A690C8A42EA83720B7BDD
:1011B000006CDB06496843EA04431A4340F82120E7
:1011C000EEE730B590F85C50039C012D05D0016E20
:1011D00041F004010166012030BD0901006841EAC7
:1011E000820141EA430150F8802F214322F03F025F
:1011F00011430160002030BD70477047F0B590F892
:101200005C40022C03D0016E41F008014DE00468FF
:1012100040293DD0D4F898502D0743D0D4F89840B9
:10122000C4F30126D0F84C4006EBC60504EBC50418
:10123000256815F080455560256839D025F0604552
:1012400015602568284F05F00055956020CC05F005
:101250000045156134F8045BADB2D56154F8045C07
:1012600005F47025D56054F8045C05F480155561CB
:1012700054F8045C05F40015956154F8045CC5F35A
:101280000665156254F8045CED0F5562002518E000
:10129000D4F890502D0705D0D4F89040C4F301261F
:1012A000846CC1E7016E41F4807101660120F0BDDC
:1012B000C5F38A45C4E700BF14F805C003F805C0AC
:1012C0006D1CD2F80CC007EB1C4C9CF800C0AC4560
:1012D000F2D80068402903D0C0F89C600020F0BD1F
:1012E000C0F89460FAE70000E85A000870472DE95A
:1012F000F04704460068016D466D01F4E0510E4070
:10130000016D476D01F007010F40016D426D01F065
:10131000380102EA0108016D456D01F471010D40CB
:10132000016D426D01F4602102EA0109016D490677
:1013300007D5416D490604D5402101652046FFF7D8
:10134000D5FF2068016DC9050DD5416DC9050AD5C8
:10135000D0F8D820D0F8E01011404FF48072026528
:10136000204600F0C9F92EB12068066531462046B6
:1013700000F0C4F92FB1206807653946204600F017
:10138000A1F9B8F1000005D0216808654146204662
:1013900000F099F92068016D890508D5416D89052E
:1013A00005D54FF400710165204600F0A8F92068CA
:1013B000016D09060CD5416D090609D5D0F8D42078
:1013C000D0F8DC10114080220265204600F095F92B
:1013D0002068016D890408D5416D890405D54FF455
:1013E00000510165204600F086F92068016D09046E
:1013F00008D5416D090405D54FF40041016520462B
:1014000000F078F92068016D490409D5416D49045F
:1014100006D54FF480410165206E40F080002066C3
:10142000B9F1000005D02168086549462046FFF75C
:10143000E4FE25B120680565206E28432066206EF5
:10144000002802D02046FFF7D7FEBDE8F087000055
:101450002DE9F041040006D0DFF8E88194F85C0043
:10146000002518B107E00120BDE8F08184F85D5047
:10147000204600F0EFF82068816921F010018161B9
:1014800000F02CFA0646032705E000BF00F026FA1C
:10149000801B0A2811D8206880690007F6D42068CC
:1014A000816941F00101816100F018FA06460BE004
:1014B00000F014FA801B0A2806D9206E40F00100C3
:1014C000206684F85C70CEE720688069C007EFD0A2
:1014D0002068816941F0020181612168414502D1A2
:1014E000594960680860207C01282068816937D0EC
:1014F00041F040018161607C01282068816932D01F
:1015000021F480418161A07C0128206881692DD06F
:1015100041F48051816120688169A26821F44071A1
:10152000114381612068816921F0A40181612068F3
:10153000016921F010010161E068012819D010B3A0
:1015400002281BD02068816941F0800181612068F8
:10155000016941F010010161E06803280ED012E03A
:1015600021F04001C6E741F48041CBE721F48051EE
:10157000D0E72068816941F0040103E020688169B7
:1015800041F020018161207EE26940066FF0FF0199
:1015900001EB0222A0F100701043226AA38A521EBE
:1015A00010430A0202EB034318432368D861A06882
:1015B000B0F5407F10D1D4E90A0301EB0321401EAE
:1015C0000843216B131303EB01110843A18C02EBB9
:1015D000014108432168C860206850F8C01FE26BD1
:1015E0001143016019482064216851F8802FA38EAF
:1015F00022F4F81242EA03420A601449703161642D
:10160000216851F8802F94F8383022F0706242EA55
:1016100003620A600D49B031A1640D49E1640C49CF
:10162000D83121650A49F031616500F5547120C057
:101630008842FCD3A5652566012084F85C00002063
:1016400012E70000006400400065004000A4004074
:1016500088A5004010B586B0044614216846FEF700
:1016600002FF16492068884226D11548816D41F055
:1016700000718165816D01F000710591C16C41F0CF
:101680000101C164C06C694600F0010005904FF48F
:10169000C050009002200190002002900390092089
:1016A0000490C00600F02CF800220521152000F05F
:1016B000A3F9152000F092F906B010BD00640040B7
:1016C000001002407047704790F85C10012905D067
:1016D000016E41F00401016601207047022180F88B
:1016E0005C1001688A6922F001028A6100210166AA
:1016F000084670477047704770477047704770479B
:101700002DE9FC4FDFF8A0A1002301250AF1040B0D
:1017100003244FF00F0C0BF1040EBDE005FA03F6A5
:1017200032406FD04F68012F05D0022F03D0112F08
:1017300001D0122F17D1D0F808905F0004FA07F8F3
:1017400029EA08090097D1F80C8008FA07F848EA56
:101750000908C0F808804768B7430E79C6F3001639
:101760009E403E434660C6684FEA430804FA08F7C5
:10177000BE4301978F6807FA08F73743C7604E6882
:10178000022E01D0122E13D1DE0800EB8606009641
:10179000366A5F07FF0E0CFA07F926EA0906D1F848
:1017A000109009FA07F949EA0609009EC6F8209048
:1017B0000668019FBE430F7907F0030707FA08F791
:1017C000374307604E68F60065D5384E376E47F0F0
:1017D00001073766366E23F0030706F00106009610
:1017E000334E3E44B146B6689F074FEA17780CFA6D
:1017F00008F7BE43B0F1904F05D02E4FB84204D148
:10180000012717E047E0002714E02B4FB84201D131
:1018100002270FE0294FB84201D103270AE0284FE1
:10182000B84201D1042705E0264FB84201D105276F
:1018300000E0062707FA08F73743C9F80870DAF816
:1018400000605746D1F8048096435FEAC83800D557
:1018500016433E60DBF800605F46D1F80480964393
:101860005FEA883800D516433E60DEF800607746B0
:10187000D1F8048096435FEAC82800D516433E603D
:10188000094F0C373E68D1F8048096435FEA8828F8
:1018900000D516433E605B1C0A6832FA03F67FF4FB
:1018A0003DAFBDE8FC8F0000000401400010024085
:1018B000000001400004004800080048000C0048F7
:1018C00000100048001400480069084000D00120C2
:1018D00070470AB181617047816270470148806832
:1018E000704700007C000020024881684268114473
:1018F000816070477C00002010B50024032000F0B8
:101900009BF80F2000F008F808B1012401E000F076
:1019100047F8204610BD000030B505461B4887B08B
:10192000816D41F010018165806D06A900F0100005
:10193000009001A800F020FB00F03EFB1449154A7E
:10194000B0FBF1F11448491E0260416040F2E732F9
:101950000021C0E90321816000F0C7FD040012D11D
:101960000D4800F0F5FD04000DD1362000F036F8EA
:10197000102D07D200222946362000F03DF80748F6
:10198000056000E0012407B0204630BD0010024091
:1019900040420F0000100040700900207C00002031
:1019A0000D4808B5016E41F001010166016E01F0BC
:1019B00001010091816D41F080518165806D0022AF
:1019C00000F0805000900F21901E00F015F8BDE847
:1019D000084000F0A1B8000000100240002809DB18
:1019E00000F01F02012191404009800000F1E02039
:1019F000C0F8001170470000F0B40E4B1B680C4695
:101A0000C3F30223C3F10705042D00D90425191DD2
:101A1000072901D2002300E0DB1E012606FA05F1AA
:101A2000491E214099409E40761E16403143F0BC2D
:101A300002F099B80CED00E0064900F007020868D2
:101A40004FF6FF03184040EA0220034A10430860A3
:101A5000704700000CED00E00000FA052B492C4B0C
:101A60000A6832214A432B4940B1B0F5007F08682B
:101A700029D020F4C06040F480602CE00868C0F3F6
:101A80004120022804D051F8800F20F4807022E019
:101A9000D1F8800020F48070C1F88000086820F43C
:101AA000C06040F400700860B2FBF3F0401C00E03E
:101AB000401E4A69520501D50028F9D14869400500
:101AC0000AD503207047C0F34120022806D051F800
:101AD000800F40F48070086000207047D1F88000CB
:101AE00040F48070C1F88000086820F4C06040F4C1
:101AF00000700860B2FBF3F0401C00E0401E4A6931
:101B00005205DBD50028F9D1D8E700008C00002071
:101B100040420F00007000400248816841F480415B
:101B200081607047007000402DE9F843044600686A
:101B300000269D4D00035ED5A86D0027C00008D487
:101B4000A86D40F08050A865A86D012700F0805076
:101B50000090DFF85892D9F8001041F48071C9F86C
:101B60000010FFF7BBFE804606E000BFFFF7B6FEA1
:101B7000A0EB080002282BD8D9F80000C005F5D545
:101B8000D5F8900010F4407014D0216C814211D02F
:101B9000D5F89000D5F8901020F4407041F48031D1
:101BA000C5F89010D5F8901021F48031C5F8901048
:101BB000C5F89000C00711D0FFF790FE804641F2B3
:101BC000883907E0FFF78AFEA0EB0801494501D9F3
:101BD00003260BE0D5F890008007F3D5D5F89000E8
:101BE000216C20F440700843C5F890001FB1A86D27
:101BF00020F08050A8652078C00707D0D5F888006D
:101C0000616820F003000843C5F888002078800749
:101C100007D5D5F88800A16820F00C000843C5F866
:101C200088002078400707D5D5F88800E16820F0C3
:101C300030000843C5F888002078000707D5D5F89C
:101C40008800216920F0C0000843C5F8880020788A
:101C5000800607D5D5F88800616920F44060084304
:101C6000C5F888002078400607D5D5F88800A16916
:101C700020F440500843C5F888002078000607D5B6
:101C8000D5F88800E16920F440400843C5F8880091
:101C90002088C00507D5D5F88800216A20F4403097
:101CA0000843C5F888002088800507D5D5F8880046
:101CB000616A20F440200843C5F888002088400568
:101CC0000FD5D5F88800A16A20F440100843C5F864
:101CD0008800A06AB0F5801F03D1E86840F4801046
:101CE000E860208800050FD5D5F88800E16A20F467
:101CF00040000843C5F88800E06AB0F5800F03D1C2
:101D0000E86840F48010E8602088C0040FD5D5F85A
:101D10008800216B20F040700843C5F88800206BD4
:101D2000B0F1807F03D1E86840F48010E86020883B
:101D30004FF0006180040ED5D5F88800626B20F06A
:101D400040601043C5F88800606B884203D1E868A2
:101D500040F48010E860208840040ED5D5F8880053
:101D6000A26B20F040601043C5F88800A06B884249
:101D700003D1E86840F48010E860208800040FD5A3
:101D8000D5F88800E16B20F040500843C5F8880082
:101D9000E06BB0F1805F03D1E86840F48030E86028
:101DA0003046BDE8F883000000100240007000409B
:101DB0002DE9F0470E4605004FF0000725D0DFF86B
:101DC0009C81D8F8000000F00F00B0420CD2D8F887
:101DD000001021F00F013143C8F80010D8F80000BE
:101DE00000F00F00B04210D129685D4CC80741F2E5
:101DF000883A52D06868DFF86C91032808D002282E
:101E0000206826D04005002825DB0120BDE8F087AA
:101E100020688001F9D5E068E068534BC0F30310F7
:101E2000401CB3FBF0F0E268C2F306225043E268C4
:101E3000C2F34162521C5200B0FBF2F0484515D982
:101E4000A06810F0F00F0AD088070FD5A86830B14D
:101E50000CE08003D7E700F0C1F8484506D9A06838
:101E600020F0F00040F08000A0608027A068696842
:101E700020F003000843A060FFF730FD814605E035
:101E8000FFF72CFDA0EB090151453AD8A06869681D
:101E900000F00C00B0EB810FF2D12868810714D557
:101EA000400703D5A06840F4E060A06028780007F0
:101EB00005D5A06820F4605040F4E060A060A06800
:101EC000A96820F0F000084304E0802F03D1A06847
:101ED00020F0F000A060D8F80010404601F00F019B
:101EE000B14216D9016821F00F0131430160FFF7BB
:101EF000F5FC074607E000BFFFF7F0FCC11B5145AA
:101F000001D9032082E7D8F8000000F00F00B042AA
:101F1000F2D12878400705D5A068E96820F4E06090
:101F20000843A0602878000706D5A068296920F436
:101F3000605040EAC100A06000F050F8A1680B4A70
:101F4000C1F30311515C01F01F01C840084908604A
:101F500008480068BDE8F047FFF7DEBC00200240FB
:101F60000010024000B4C4040024F400F85A000831
:101F70008C0000207C0000200F2202600C4A936835
:101F800003F003034360936803F0F00383609368F6
:101F900003F4E063C36092684FF4E06303EAD202A3
:101FA00002610448006800F00F00086070470000FC
:101FB0000010024000200240054806490068896878
:101FC000054AC1F30221515C01F01F01C84070476E
:101FD0008C00002000100240085B0008134988684C
:101FE000C0F381021248012A0AD08A68C2F3810232
:101FF000022A05D08A68C2F38102032A01D0002098
:102000007047CA6802F00303CA68C2F30312521C85
:10201000B0FBF2F0CA68C968C2F306225043C1F3AC
:102020004161491C4900B0FBF1F0704700100240CB
:102030000024F4002DE9F84304007AD02078FA4D0A
:10204000C00747D0A868E96800F00C0001F0030160
:102050000C2802D0082817D001E0032914D06068AA
:10206000B0F5803F17D0B0F5A02F286817D020F426
:1020700080302860286820F4802028606068E0B103
:10208000FFF72CFC064614E02868800322D5606820
:102090000028D2D01EE0286840F48030EDE740F4FC
:1020A00080202860F7E700BFFFF718FC801B64283A
:1020B00070D828688003F7D50CE0FFF70FFC0646C0
:1020C00005E000BFFFF70AFC801B6428F0D82868F1
:1020D0008003F7D4207880074CD5A868E96800F021
:1020E0000C0001F003010C2802D004280DD001E0FF
:1020F00002290AD0E068002828682BD040F48070BC
:102100002860FFF7EBFB064619E02868400502D57A
:10211000E068002891D06868217C20F0FE4040EA09
:1021200001606860C1480068FFF7F6FB002800D135
:1021300020E076E1FFF7D2FB801B0228B8D82868A0
:102140004005F7D56868217C20F0FE4040EA016038
:1021500068600FE020F480702860FFF7BFFB064640
:1021600005E000BFFFF7BAFB801B0228A0D8286853
:102170004005F7D42078000729D560690028D5F8F4
:10218000940013D040F00100C5F89400FFF7A6FBBF
:10219000064606E090E000BFFFF7A0FB801B022888
:1021A00086D8D5F894008007F6D510E020F001001D
:1021B000C5F89400FFF792FB064604E0FFF78EFB9C
:1021C000801B022878D8D5F894008007F6D42078B0
:1021D000400761D5A86D0026C00008D4A86D40F066
:1021E0008050A865A86D012600F0805000909048AE
:1021F0000168C90511D40168804641F4807101600D
:10220000FFF76CFB074604E0FFF768FBC01B0228E2
:1022100052D8D8F80000C005F6D5A068012815D01E
:102220000528D5F8900016D020F00100C5F89000E0
:10223000D5F8900020F00400C5F89000A06841F2A5
:102240008838B8B1FFF74AFB07460EE0D5F8900092
:1022500040F00100F0E740F00400C5F89000F5E719
:10226000FFF73CFBC11B414526D8D5F890008007FD
:10227000F6D50CE0FFF732FB074604E0FFF72EFB34
:10228000C11B414518D8D5F890008007F6D41EB17F
:10229000A86D20F08050A8652078800629D5A06917
:1022A0000028D5F8980013D040F00100C5F8980038
:1022B000FFF714FB064606E077E000BFFFF70EFBD2
:1022C000801B022877D8D5F898008007F6D510E053
:1022D00020F00100C5F89800FFF700FB064604E077
:1022E000FFF7FCFA801B022865D8D5F89800800714
:1022F000F6D4E069F0B3A968C1F38101032961D084
:102300000228286820F0807028600BD0E86820F050
:102310000300E860E86847490840E860FFF7DEFA34
:1023200004464BE0FFF7DAFA064604E0FFF7D6FA78
:10233000801B02283FD828688001F7D4F4E90801FF
:102340006FF00F0202EB01110843218A5204490881
:1023500002EB4151A26841EA02210843217D4FF07E
:102360007E42490802EB41610843217B40EAC1609B
:10237000E96800E062E0304A11400843E8602868FC
:1023800040F080702860E86840F08070E860FFF7F7
:10239000A5FA044605E000BFFFF7A0FA001B0228DB
:1023A00009D828688001F7D548E004E0FFF796FADD
:1023B000001B022802D90320BDE8F88328688001A9
:1023C000F4D43BE00128F7D0E868226A00F003016A
:1023D000914226D1616A00F0F00209011039914260
:1023E0001FD1A26A00F4FE41B1EB022F19D194F87B
:1023F0002C2000F07841B1EBC26F12D1218E00F495
:10240000C00249084905A1F50011914209D194F88B
:10241000341000F0C06049084906A1F10071814202
:102420000CD00120C8E70000001002407C00002012
:1024300000700040FFFFEEFE0C809F010020BBE714
:10244000704770477047704770477047F0B590F815
:102450003C20012A3AD0012580F83C50022280F825
:102460003D2003685A689C68194E1A4FB34201D048
:10247000BB4204D122F4700C4A6842EA0C02DFF835
:1024800058C002EA0C02D1F800C04CEA020CC3F8B2
:1024900004C00268B2420DD0B2F1804F0AD00F4B97
:1024A0009A4207D00E4B9A4204D0BA4202D00D4B4A
:1024B0009A4204D1896824F080031943916080F81E
:1024C0003D50002180F83C100846F0BD0220F0BDD0
:1024D000002C0140003401408FFFFFFD000400404C
:1024E0000008004000400140704710B5040003D0D0
:1024F00094F83D0010B107E0012010BD002084F8E1
:102500003C00204600F022F8022084F83D00211D06
:10251000206801F02BF9012084F8480084F83E007F
:1025200084F83F0084F8400084F8410084F84200B9
:1025300084F8430084F8440084F8450084F8460099
:1025400084F8470084F83D00002010BD704700006B
:1025500090F83D10012901D001207047022180F838
:102560003D100168CA6842F00102CA600068104963
:1025700088420ED0B0F1804F0BD00E49884208D06F
:102580000D49884205D00D49884202D00C49884245
:1025900007D181680B4A1140062906D0B1F5803F6A
:1025A00003D0016841F00101016000207047000084
:1025B000002C0140000400400008004000340140AD
:1025C0000040014007000100704770B504460068F4
:1025D00001694FF00005C943890715D4C168C94393
:1025E000890711D4E91E01610120207720688069E4
:1025F0008007204602D0FFF7E7FF04E000F00CF967
:10260000204600F0DFF9257720680169C9434907B2
:1026100017D4C168C943490713D46FF0040101619D
:10262000022020772068806910F4407F204602D085
:10263000FFF7CAFF04E000F0EFF8204600F0C2F90F
:10264000257720680169C943090716D4C168C943C1
:10265000090712D46FF00801016104202077206877
:10266000C0698007204602D0FFF7AEFF04E000F00B
:10267000D3F8204600F0A6F9257720680169C94300
:10268000C90617D4C168C943C90613D46FF0100135
:102690000161082020772068C06910F4407F20463F
:1026A00002D0FFF791FF04E000F0B6F8204600F0FA
:1026B00089F9257720680169C943C90708D1C1682C
:1026C000C943C90704D1891E0161204600F0FAF907
:1026D00020680169C943090609D4C168C9430906CC
:1026E00005D46FF0800101612046FFF7AAFE206843
:1026F0000169C943C90509D4C168C943090605D49C
:102700006FF4807101612046FFF79AFE206801692D
:10271000C943490609D4C168C943490605D46FF0C5
:1027200040010161204600F0D7F920680169C943E2
:10273000890609D4C168C943890605D46FF0200110
:1027400001612046FFF77EFE20680169C943C90286
:1027500009D4C168C943C90205D46FF4801101616D
:102760002046FFF771FE20680169C943890209D438
:10277000C168C943890205D46FF400110161204684
:10278000FFF761FE20680169C943490209D4C168A5
:10279000C943490205D46FF4800101612046FFF767
:1027A00054FE20680169C94309020BD4C168C943BA
:1027B000090207D46FF4000101612046BDE87040B2
:1027C000FFF792BE70BD000010B586B0044614211C
:1027D0006846FDF748FE0D492068884214D10C4830
:1027E000C16C41F00201C164C06C002100F0020024
:1027F0000590012000900220CDE90101CDE90310F0
:1028000069460448FEF77CFF06B010BD0004004096
:102810000010024000040048704770B5044690F86C
:102820003C000D4601280BD0012084F83C000C2A06
:1028300045D007DC5AB1042A1BD0082A78D12CE0F5
:10284000022070BD102A4ED0142A71D15DE020689C
:1028500000F0F2FF2068816941F008018161206881
:10286000816921F004018161206881692A6911432D
:1028700011E0206801F02EF82068816941F40061C0
:1028800081612068816921F48061816120688169AA
:102890002A6941EA022181614AE0206801F062F878
:1028A0002068C16941F00801C1612068C16921F057
:1028B0000401C1612068C1692A69114311E02068DF
:1028C00001F098F82068C16941F40061C161206895
:1028D000C16921F48061C1612068C1692A6941EA46
:1028E0000221C16124E0206801F0CCF82068016D6C
:1028F00041F0080101652068016D21F004010165C6
:102900002068016D2A69114311E0206801F0F2F896
:102910002068016D41F4006101652068016D21F4BA
:10292000806101652068016D2A6941EA0221016523
:10293000002084F83C0070BD10B5040003D094F86A
:102940003D0010B107E0012010BD002084F83C00DC
:10295000204600F023F8022084F83D00211D206865
:1029600000F004FF012084F8480084F83E0084F859
:102970003F0084F8400084F8410084F8420084F865
:10298000430084F8440084F8450084F8460084F845
:10299000470084F83D00002010BD000008B5006825
:1029A0000649884208D10648816D41F002018165DF
:1029B000806D00F00200009008BD0000000400409F
:1029C000001002407047000030B50446022269B191
:1029D000042912D0082917D00C291CD0102921D085
:1029E00094F84300012824D0012030BD94F83E0023
:1029F0000128F9D184F83E201DE094F83F00012819
:102A0000F2D184F83F2016E094F840000128EBD181
:102A100084F840200FE094F841000128E4D184F8C4
:102A2000412008E094F842000128DDD184F84220DA
:102A300001E084F843200122206800F0EFFE194BEA
:102A400020681949194A984209D0884207D0904213
:102A500005D0174DA84202D0164DA84203D1456CAF
:102A600045F400454564206898420CD0B0F1804F91
:102A700009D0114B984206D0104B984203D088429F
:102A800001D0904207D181680D4A1140062906D035
:102A9000B1F5803F03D0016841F0010101600020E1
:102AA00030BD0000002C01400034014000400140D6
:102AB000004401400048014000040040000800407C
:102AC0000700010000680349884201D1FEF70CBFEE
:102AD00070470000001000407047FEE770B54FF4EB
:102AE00080744FF09045002221462846FEF7F1FE03
:102AF00000F094FC002261002846FEF7EAFE022066
:102B000001F098F9012221462846FEF7E2FE022054
:102B100001F090F921462846BDE870400022FEF7FA
:102B2000D8BE0000134810B5C16C86B041F0010159
:102B3000C164C06C4FF0904400F0010005904FF468
:102B4000407000900120019000200290039069469F
:102B50002046FEF7D5FD00224FF480712046FEF797
:102B6000B8FE00224FF400712046FEF7B2FE06B018
:102B700010BD00000010024070B54FF480744FF09B
:102B80009045002221462846FEF7A3FE00F046FCB1
:102B9000012251022846FEF79CFE022001F04AF96C
:102BA000012221462846FEF794FE022001F042F958
:102BB00021462846BDE870400022FEF78ABE2DE976
:102BC000F0478046002400F00DFC00254FF480768D
:102BD0004FF090474FF40079002231463846FEF717
:102BE00078FE022001F026F9012231463846FEF730
:102BF00070FE6006040E49463846FEF765FE08B1D1
:102C0000641CE4B2012001F015F96D1CEDB2082D31
:102C1000E2D3B8F1000F04D0FFF760FF2046BDE813
:102C2000F087FFF7A9FFF9E72DE9F041054600F02D
:102C3000F5FB4FF480764FF090470022314638463E
:102C4000FEF747FE00244FF40078280601D5012244
:102C500000E0002241463846FEF73BFE6806050EBE
:102C6000022001F0E7F8012231463846FEF731FE36
:102C7000022001F0DFF8002231463846FEF729FE37
:102C8000022001F0D7F8641CE4B2082CDDD3BDE8C3
:102C9000F08170B500F0C2FB012254024FF0904564
:102CA00021462846FEF715FE012216023146284627
:102CB000FEF70FFE042001F0BDF800222146284651
:102CC000FEF707FE042001F0B5F800223146284641
:102CD000FEF7FFFD002070BD70B500F09FFB4FF4C4
:102CE00080744FF09045002221462846FEF7F1FD02
:102CF0006600002231462846FEF7EBFD042001F075
:102D000099F8012221462846FEF7E3FD01223146CB
:102D10002846FEF7DEFDBDE87040042001F08AB8C9
:102D20002DE9F041002400F05DFB012256024FF036
:102D3000904531462846FEF7CCFD012001F07AF897
:102D40000122170239462846FEF7C3FD012001F093
:102D500071F808E0641CE4B2FA2C04D9FFF7BCFF58
:102D60000120BDE8F08131462846FEF7ADFD002880
:102D7000F0D1002239462846FEF7ABFD0020F0E7EF
:102D800010B500F05BF80A4C208000F017F8A08026
:102D900000F044F802F047FD9FED061B53EC112BA9
:102DA00002F054FD02F012FD6080002010BD000012
:102DB0005C0000209A9999999999B93F08B569469C
:102DC000012000F07BF89DF80000C009BDF800006C
:102DD00040BA13D0012800D0002002F024FD41ECBD
:102DE000100B9FED0A1B00BF53EC112B51EC100B85
:102DF00002F02CFDBDE8084002F0B8BC02F013FD63
:102E000041EC100B9FED031BEEE7000000000000FB
:102E10000000F4BF000000000000F43F08B5694660
:102E2000032000F04BF8BDF800004FF6FF7140BAE8
:102E300000EB800001EA400008BD000008B56946CB
:102E4000022000F03BF8BDF8000040BA02F0EBFCB5
:102E50009FED041B53EC112B02F0F8FC02F086FCF2
:102E600080B208BD000000000000F43F10B5FFF77D
:102E700059FEBDE8104046F227510020AFF3008014
:102E800070B506460C0ACDB2FFF703FF8020FFF7AE
:102E9000CBFEFFF745FF3046FFF7C6FEFFF740FFCA
:102EA0002046FFF7C1FEFFF73BFF2846FFF7BCFEB9
:102EB000FFF736FFBDE87040FFF70EBF70B50C4658
:102EC0000546FFF7E6FE8020FFF7AEFEFFF728FF7E
:102ED0002846FFF7A9FEFFF723FFFFF7DAFE812060
:102EE000FFF7A2FEFFF71CFF0120FFF768FE20702E
:102EF0000020FFF764FE6070BDE87040FFF7ECBE95
:102F000010B5094C002208212046FEF7E2FC64209F
:102F100000F0D0FF012208212046FEF7DAFCBDE8D0
:102F20001040642000F0C6BF0004004810B5094CF2
:102F3000002210212046FEF7CCFC642000F0BAFFEE
:102F4000012210212046FEF7C4FCBDE81040642099
:102F500000F0B0BF0004004800EB8100006E00F0FC
:102F6000F84070478068C0F3C00070478068C0F3C5
:102F700080007047C06810F4406F01D00020704797
:102F800001207047042303EAD15310B51844436964
:102F9000C1F3045107248C40A3438A401343436187
:102FA00010BD00EB8100016E21F00041114301666C
:102FB0007047000030B589B020216846FDF753FA0C
:102FC000184817490024C0E900148460C46004252F
:102FD0000461C0E90545047744770121016280F866
:102FE0002440C462046380F83840C46380F84040E1
:102FF000FDF700FE08B1FDF77CFB0B4800900620B2
:10300000CDE901047F200594CDE903056946054813
:10301000FDF7DAFB002801D0FDF76BFB09B030BDEE
:10302000000100505408002000209036124810B5CE
:1030300010490022C0E9001282600121C2600174BF
:103040004174827408234161C0E906130723C0E973
:1030500008310423C0E90A1303230363C0E90D12F6
:10306000C263FEF7F5F9002803D0BDE81040FDF774
:1030700040BB10BD00640040C008002030B52A4DA0
:10308000A3B00022D5E90001CDE92101012121A849
:1030900000F05AFF254C08350DF1540C606595E899
:1030A0000F008CE80F00002115A8083D00F00EFF6E
:1030B0001835A06495E80F000DF1640C183D8CE8FC
:1030C0000F00002119A800F001FF2835E06495E801
:1030D0000F001DAD85E80F0000211DA800F0F6FED1
:1030E000114920651C2238316846FDF78AF9002114
:1030F000684600F0FEFE0C49E0631C22543107A82C
:10310000FDF77FF9002107A800F0F3FE06492064CF
:103110001C2270310EA8FDF774F900210EA800F0F2
:10312000E8FE606423B030BD5C5A00080000002057
:10313000F0B587B014216846FDF795F92148C16CB8
:1031400041F00401C164C16C01F004010591C16C3E
:1031500041F02001C164C16C01F020010591C16CF6
:1031600041F00101C164C16C01F001010591C16C24
:1031700041F00201C164C06C4FF0904600F00200C3
:1031800005900022C0213046FEF7A3FB0E4F00221F
:103190001A213846FEF79DFBC0200090012500242F
:1031A000CDE90154694630460394FEF7A9FA1A2086
:1031B0000090CDE90154694638460394FEF7A0FA21
:1031C00007B0F0BD001002400004004810B58AB0FE
:1031D0000024079408941C2168460994FDF743F9DC
:1031E00015481449C0E900144FF48C61C0E902414C
:1031F00004618461FFF7A0FB08B1FDF77AFA079438
:1032000007A90D480994FFF721F908B1FDF771FAF4
:103210006020CDE90004029408226946064804941F
:10322000FFF7FBFA08B1FDF764FA0348FFF7CCFAA1
:103230000AB010BD0004004024090020FEE7FEE7AC
:10324000D0ED050AC0ED060A90ED000A90ED011AD6
:1032500030EE410A80ED050A30EE601A80ED071A63
:1032600090ED081A71EE001AC0ED081A90ED0E1AD2
:10327000F4EEC11AF1EE10FA01DD80ED081AD0ED7E
:10328000081AB1EE411AF4EEC11AF1EE10FA01D2A9
:1032900080ED081A90ED021AD0ED081A21EE000A0E
:1032A00090ED031A01EE210A90ED041A01EE200AB6
:1032B00080ED0A0A7047C0ED0E1A083080EC030A50
:1032C0007047000070B504464FF09045012904D0C6
:1032D00002294FF0000201D106E001228021284698
:1032E000FEF7F7FA002204E080212846FEF7F1FA03
:1032F000012240212846FEF7ECFA9FED290A372CDF
:1033000034D007DCDCB1282C21D02D2C24D0322C59
:1033100006D126E03C2C2ED0502C31D0642C34D059
:10332000642C37D200EE104AB3EE081AF8EE400AC9
:1033300080EE810A00EE904AF8EE600A2CE019480F
:10334000194980ED030A09680020C86370BDDFEDEC
:10335000170A9FED170A1FE0DFED160A9FED160A08
:103360001AE0DFED160A9FED160A15E0DFED150AEB
:103370009FED150A10E0DFED150A9FED150A0BE031
:10338000DFED140A9FED140A06E0DFED140A9FED4D
:10339000140A01E0F0EE400ABDE8704000F0F4BB12
:1033A000000000000000002024090020000020424E
:1033B0000080CF44000034420060EA4400004842EC
:1033C0000000024500005C4200200F4500007042F2
:1033D00000401C450000A042002050450000C842AB
:1033E000000082450C4800B5C16C87B041F0010176
:1033F000C164C06C694600F0010005904FF4007094
:103400000090002001900290022003904FF0904025
:10341000FEF776F907B000BD001002400D4800B578
:10342000C16C87B041F00101C164C06C694600F015
:10343000010005904FF400700090012001900020E1
:103440000290022003904FF09040FEF759F907B028
:1034500000BD00000010024000B589B04FF400220A
:1034600000900020CDE902020190049005900690A2
:1034700007900A46089069460448FDF74FFE002869
:1034800001D0FDF736F909B000BD0000C0080020EA
:103490002DED028B9FED1D8A1D4C1E48FDF754FD3E
:1034A000FF211C48FDF7D2FCC0B10220E070FFF7FD
:1034B00027FDFFF73BFD00BF94ED0C0A20EE080A44
:1034C00084ED0D0A6078401CC0B26070322801D9CA
:1034D00033206070012000F0EDFCDEE70120E07099
:1034E0000C48FDF783FB02F09EF99FED0B1B53EC9C
:1034F000112B02F0ABF99FED0A1B53EC112B02F0DC
:10350000A5F902F001F92063D6E700000AD7F340DD
:1035100000000020540800206666666666660A4061
:10352000000000000000303F2D4D4FF4FA782DEDE3
:10353000028BA5F112069FED298AB71DA5F16E0435
:1035400094ED0D0A20EE080ABCEEC00A10EE100A37
:10355000288070886880B088A8800020A563A16B4F
:1035600011F8012B3A54401CA1630628F7D31C49DB
:103570004FF440700C39FFF76FFF012000F09AFC08
:10358000174B184A9B1F40211748FDF737FE0028AC
:10359000E07802D001280AD01BE0012819D10020D0
:1035A000A080012210211148FEF793F911E00C4B85
:1035B0000C4A9B1F40210C48FDF720FE48B1A08813
:1035C000401C80B2A080404503D3FFF7AFFCA4F8B5
:1035D0000480012000F06EFCB2E7000000007A4495
:1035E0006E0000200C010020C008002000040048EC
:1035F000FFF73CFC094C6088012809D002280AD05A
:1036000000212820FFF75EFE012000F053FCF2E7C6
:1036100020780121F6E720780221F3E768000020F6
:1036200010B5502080F31188BFF34F8FBFF36F8F19
:1036300001F08AFE18B104494FF080500860002064
:1036400080F3118810BD000004ED00E010B5A4B0B7
:1036500038216846FCF707FF14211FA8FCF703FF79
:1036600044210EA8FCF7FFFE0020FEF7F7F9012029
:1036700000900004019002200324CDE907042A21D0
:10368000CDE909011C21CDE90B100D906846FEF72C
:10369000D1FC0F20CDE91F040024219422940421A1
:1036A0001FA82394FEF784FB4FF410400E904FF0B8
:1036B00080501D901A940EA8FEF736FA24B010BD63
:1036C0000248016841F470010160704788ED00E034
:1036D00010B521482149027821480978012A02D0F1
:1036E000022A2DD032E0012930D11E4CA188491C7C
:1036F00089B2A1802288914201D2002200E00122F9
:103700000821FEF7E6F8A188608881421ED30021D7
:10371000A180E188012902D0022908D016E0218881
:10372000491C89B22180814210D3022006E0208802
:10373000401E80B22080052808D80120E08005E0E6
:10374000012903D101220821FEF7C3F8BDE810408A
:103750000548FEF73ABF00000000002003000020EB
:103760000004004874000020700900202DE9F04397
:103770000268234B234D244E244C4FF0804998423D
:1037800007D0484505D0A84203D0B04201D0A0429E
:1037900003D122F070074A683A431D4FDFF874C026
:1037A000DFF8748098420DD048450BD0A84209D06C
:1037B000B04207D0A04205D0B84203D0604501D046
:1037C000404503D122F44075CA682A434D6922F06E
:1037D00080022A4302608A68C2620A688262984252
:1037E00007D0A04205D0B84203D0604501D0404583
:1037F00001D10969016301214161BDE8F083000045
:10380000002C01400004004000080040003401404A
:1038100000400140004401400048014010B501F063
:103820001F030121046A99408C430462016A9A4093
:103830001143016210BD00002DE9F043026A22F03D
:1038400001020262056A436882691C4C25F0020588
:1038500022400C6822F0030214438A68194E2A435E
:10386000174D194FDFF864C0DFF86490A84207D005
:10387000B04205D0B84203D0604501D0484506D1DA
:1038800022F00808CA6842EA080222F00402A842AC
:1038900007D0B04205D0B84203D0604501D04845BA
:1038A00005D14D6923F440731D438B692B4343605D
:1038B0008461496841630262BDE8F0838FFFFEFFC7
:1038C000002C014000340140004001400044014010
:1038D00000480140F0B5026A22F010020262056A57
:1038E00042688369194C1B4E23400C6823F44073D3
:1038F00043EA042425F020038D6843EA0513144DA0
:10390000A84201D0B04206D1CF6823F0800343EA39
:10391000071323F04003A8420AD0B04208D00E4D4E
:10392000A84205D00D4DA84202D00D4DA84207D1A6
:103930004D6922F4406242EA85028D6942EA8502BD
:1039400042608461496881630362F0BDFF8FFFFEBE
:10395000002C01400034014000400140004401407F
:1039600000480140F0B5026A22F480720262056AE2
:103970004368C269194C1B4E22400C6822F00302B6
:10398000144325F400728D6842EA0522144DA842C2
:1039900001D0B04206D1CF6822F4006242EA072289
:1039A00022F48062A8420AD0B04208D00E4DA8424C
:1039B00005D00E4DA84202D00D4DA84207D14D6949
:1039C00023F4405343EA05138D6943EA051343602A
:1039D000C4614968C1630262F0BD00008FFFFEFF51
:1039E000002C0140003401400040014000440140EF
:1039F00000480140F0B5026A22F480520262056A72
:103A00004268C369194C1B4E23400C6823F4407371
:103A100043EA042425F400538D6843EA0533144D2A
:103A2000A84201D0B04206D1CF6823F4004343EA54
:103A3000073323F48043A8420AD0B04208D00E4D89
:103A4000A84205D00D4DA84202D00D4DA84207D185
:103A50004D6922F4404242EA85128D6942EA85129C
:103A60004260C461496801640362F0BDFF8FFFFEDC
:103A7000002C01400034014000400140004401405E
:103A80000048014030B5026A22F480320262046AC2
:103A90004268036D114D2B400D681D4324F4003323
:103AA0000C8943EA04430E4CA0420BD00D4CA042BB
:103AB00008D00D4CA04205D00C4CA04202D00C4CBA
:103AC000A04204D14C6922F4803242EA04224260CE
:103AD000056549688164036230BD00008FFFFEFF09
:103AE000002C0140003401400040014000440140EE
:103AF0000048014030B5026A22F480120262046A72
:103B00004268036D114D24F400142B400D6843EA04
:103B100005230D8944EA05540D4DA8420BD00D4DE7
:103B2000A84208D00C4DA84205D00C4DA84202D0A6
:103B30000B4DA84204D14D6922F4802242EA85222D
:103B4000426003654968C164046230BDFF8FFFFEB7
:103B5000002C01400034014000400140004401407D
:103B600000480140FEE70907090E002804DB00F1C8
:103B7000E02080F80014704700F00F0000F1E02012
:103B800080F8141D7047000070B59E4C2DED028B1F
:103B9000F0EE608A6078B0EE408A32287AD9FFF77A
:103BA000EFF8022000F086F994ED030A964DBCEE82
:103BB000C00A296810EE100AC863022000F07AF9E2
:103BC0009FED921A616B012604F15C00B1F1804F08
:103BD00039DAA178491CC9B2A170C82921D98088D5
:103BE000D22100EE100AF8EE400A9FED890AF4EEA9
:103BF000C80AF1EE10FA05D2A170D4ED030A30EE36
:103C0000800A44E000EE900AF8EE600AF4EEC80A7A
:103C1000F1EE10FA05DDA170D4ED030A30EEC00A12
:103C200035E0D4ED030AF5EEC00AF1EE10FA32D811
:103C300084ED031A94ED030A2968BCEEC00A10EE65
:103C4000100AC863D8E06FF08042724B0A449A426F
:103C50002FD2808800EE100AB8EE400ADFED6E0A1F
:103C6000B4EEC80AF1EE10FA04D294ED030A30EE75
:103C7000200A0CE000EE100AB8EE400AB4EEC80AC2
:103C8000F1EE10FACDDD94ED030A30EE600A84ED1A
:103C9000030AC6E761E094ED020AB8EEC01AF4EE3A
:103CA000C10AF1EE10FAC5DBB8EEC00A84ED030AD2
:103CB000C0E75A4A11445A4A9FED5A0A914268EEA7
:103CC000800A4DD20188808801F5167101EE901AA4
:103CD000B8EE612AC0EE821A00EE900A21EE800A48
:103CE000F8EE601AF6EE000AF4EEC01AF1EE10FAE1
:103CF00004D294ED030A30EE200A0CE001EE900AA3
:103D0000F8EE611AF4EEC01AF1EE10FA05DD94ED4A
:103D1000030A30EE600A84ED030AD4ED030AF5EEDF
:103D2000C00AF1EE10FA02D884ED031A0CE094ED0B
:103D3000020AB8EEC01AF4EEC10AF1EE10FA03DB83
:103D4000B8EEC00A84ED030A267094ED030A2968D0
:103D5000BCEEC00A10EE100AC863BDEC028B70BD49
:103D60002849008868319FED302A898801EE101AB1
:103D7000B8EE411A61EE001A01EE100AB8EE411ACF
:103D800031EE022A81EE821A9FED282A61EE001A96
:103D900001EE101A00F51671A0F54870B8EE411A40
:103DA000C1EE022A21EEA21A84ED161A01EE101AB3
:103DB000F8EE411A80EEA11A61EE000A01EE100A37
:103DC000F8EEC11A81EE801A84ED041A94ED050A0A
:103DD000B4EEC01AF1EE10FA02DCB0EE410A01E0D6
:103DE00084ED040AFDEEE00A10EE900AFCF7DCFB1D
:103DF0000F49606B884201DA2670AEE7022020701E
:103E0000ABE70000000000202409002000000000B3
:103E1000CDCCCC3DFFFF9F009A99993EFFFF5FBF3D
:103E2000FFFF7F0000007A4400001644000070424B
:103E30000000A84170B54FF0E024002265690949EF
:103E4000A36909684843A1699942FCD002D2A3EB57
:103E5000010302E0A5EB010633441A440B468242FB
:103E6000F1D370BD88000020FDF746FDFFF7EEFBA3
:103E7000FFF75EF9FFF79EF8FFF7D8F8FFF7A6F90E
:103E8000012202210648FDF724FD08210548FEF71E
:103E90009BFDFCF72FFCFFF7F1F800F012F8FEE7AE
:103EA000000400482409002001460020842900D095
:103EB000C81C704710B500B9012000F0FFFD0020BC
:103EC00010BD10B500F062FE002010BD38B5D0E97D
:103ED000011204683AB1C3682BB10020009020465B
:103EE00000F069FF38BD2046BDE83840002200F0F0
:103EF00041BF7FB50D4604464169B0F9080081B164
:103F0000A16971B1FFF7D0FFD4E905128DE8070070
:103F1000D4E900102B46226901F0D7F9039004B0D0
:103F200070BDFFF7C1FF03A9CDE90001208A2B4630
:103F300082B2D4E9001001F09BF9012801D00020E1
:103F4000EDE70398EBE700001CB511C86CB1CDE9B3
:103F50000004012907D0002013460246012109A0D0
:103F600001F05AFB1CBD0120F6E70090012907D0A3
:103F7000002013460246012102A001F033FB1CBDC4
:103F80000120F6E7000000002DE9F041184C0F4633
:103F90000546E6682068001D00F05CFC38B9206822
:103FA00090F82C1001208840216981432161681C10
:103FB00007D137B12168BDE8F0410E48091D00F076
:103FC00099BC20683544B5424560216805D2A06B94
:103FD000BDE8F041091D00F075BC606B091D00F0E3
:103FE00071FCA06A854200D2A562BDE8F0810000A4
:103FF00090000020D80A00202DE9F041054600F08D
:1040000085FC2E4CA068401CA06020682C4F10B18D
:10401000606940B32DE02560A068012829D1002601
:1040200006EB860007EB800000F03EFC761C072EB6
:10403000F6D323488C3000F037FC2148A03000F044
:1040400033FC1F48B43000F02FFC1D48C83000F08E
:104050002BFC1B48DC3000F027FC19488C306063D7
:104060001430A06305E02068E96AC06A884200D87D
:104070002560606A401C6062E96A0120226988400C
:104080001043206101EB810007EB8000291D00F047
:1040900031FC00F05BFC606900280CD02068E96A04
:1040A000C06A884207D207494FF080500860BFF3CA
:1040B0004F8FBFF36F8FBDE8F081000090000020AC
:1040C000FC09002004ED00E038B500F01FFC104CA6
:1040D0002068C8B90F4800F0E7FB0E48143000F024
:1040E000E3FB0C48E060143020610A4B0020C03B29
:1040F000009003F148020C210A2000F05CFE2060D1
:1041000010B105A100F0A4FCBDE8384000F01EBCD1
:10411000CC000020AC0B0020546D72510000000058
:1041200030B4026C0B46002A0BD0C1681144C16048
:104130008468A14201D30168C16030BC1846FCF715
:104140001BB930BC70472DE9F041856B174604461A
:104150000026026C82B1C7B1E068FCF70DF9E16896
:10416000206C091AE1602268914202D2A168081A03
:10417000E060022F16D017E02068A8B9A06801F00F
:1041800049F906460020A0600EE06068FCF7F4F8EC
:10419000216C606808446060A168884204D320688C
:1041A000606001E005B16D1E6D1CA5633046BDE881
:1041B000F08110B5044690F8510058B101280CD098
:1041C00002280FD0502080F31188BFF34F8FBFF328
:1041D0006F8FFEE7206B00F0CDFB2046BDE810405E
:1041E00000F0C8BB10BD000010484FF4406142070A
:1041F00006D0C01D0D4920F00700411AC1F54061ED
:104200000B4A00230144C2E900030839183A21F09F
:10421000070111604B600B600B1AC0E9001393603B
:104220004FF000405360506170470000D40B0020F5
:10423000F8000020144E154CA6F1C8074FF0805826
:10424000DFF84C9012E000BF00F060FBF068C5683A
:10425000281D00F0FFFAA068401EA0606068401EA4
:10426000606000F073FB2846FFF7A3FF606800283A
:10427000EAD138680128F9D9C9F80080BFF34F8F17
:10428000BFF36F8FF2E70000C40A00209000002007
:1042900004ED00E00346009829B10260C0E90F3147
:1042A000012100F0BBBD0060F8E72DE9F0479A4618
:1042B000DDE9098481466FF00303206B03EB820282
:1042C0001044089E20F00707780707D0502080F39D
:1042D0001188BFF34F8FBFF36F8FFEE7002561B1E9
:1042E000002023180A5C83F834200A5C12B1401CB9
:1042F0001028F6D384F8435001E084F83450072E98
:1043000000D30626E662C4E91165201D00F0D7FA45
:1043100004F1180000F0D3FA2461C6F107006462CA
:10432000A061E56484F8505052464946384600F092
:104330007BFA2060B8F1000F01D0C8F80040BDE85A
:10434000F0872DE9F0471E46DDE9089417460D0079
:10435000804615D0002C11D0FFF7B6FE04F11801ED
:10436000C4F8008081E86002201D00F0A8FA002F48
:1043700004D014F8240F40F004002070BDE8F0874A
:10438000502080F31188BFF34F8FBFF36F8FFEE78C
:1043900030B5114900E011460A688242FBD34B68F0
:1043A0005C18844203D1406818444860084643685A
:1043B0001C18944209D1084C183C2468A24209D028
:1043C00052681A4442600A6812680260814200D052
:1043D000086030BD0460F9E7F800002070B50024E3
:1043E00041600B4D0061914206D8D11A8269914219
:1043F00006D2011D286907E09A4203D2994201D3EF
:10440000012403E0011DE86800F05CFA204670BD5D
:10441000CC00002010B5044600F078FAA06B28B15B
:104420005FF0000400F092FA204610BD0124F9E785
:1044300030B587B0394D67E00498002864DB069CEE
:10444000606910B1201D00F005FA03A800F0D8F84B
:10445000024604980A2857D2DFE800F00505052D2A
:10446000334A05052D3394F8240040F0010084F808
:1044700024000599A069059B01442046FFF7AEFF83
:1044800068B3216A2046884794F8240040073BD54A
:10449000002000900598A169002342181946204683
:1044A00001F002F9D8B9502080F31188BFF34F8F83
:1044B000BFF36F8FFEE714F8240F20F00100207087
:1044C00022E094F8240040F0010084F824000598CC
:1044D000A06128B1811813462046FFF77FFF13E043
:1044E000502080F31188BFF34F8FBFF36F8FFEE72B
:1044F00094F82400810703D4204600F03BFA03E03F
:1045000020F0010084F82400002204A9286800F0AB
:10451000D9FD002890D107B030BD0000CC000020AC
:104520002DE9FC410F46054600F074FB01A800F0A0
:1045300067F80446019818B100F0F2FFBDE8FC816D
:10454000254EAFB130690068D0B30027291B3A4629
:10455000306800F091FA00F0E3FF0028EED11F4927
:104560004FF080500860BFF34F8FBFF36F8FE5E7C8
:10457000A542EBD800F0D4FFF0682746C068C468B5
:10458000201D00F067F994F82400410719D5A069AF
:104590002B4641193A462046FFF720FFA8B10020DC
:1045A0000346014600902A46204601F07DF860B996
:1045B000502080F31188BFF34F8FBFF36F8FFEE75A
:1045C00007E020F0010084F82400216A2046884793
:1045D000B4E70127BAE70000CC00002004ED00E0BA
:1045E0000648416B096829B1416BC968C9684968C7
:1045F000816270474FF0FF31FAE700009000002021
:1046000070B5054600F09AFE064E0446B068844236
:1046100003D200F009F8012000E0002028602046C5
:10462000B46070BDCC000020F8B5194D20E0C06822
:10463000C4680668201D00F00DF9216A20468847ED
:1046400094F82400400713D5A0693044B04206D93D
:1046500024616060211DE86800F034F908E0002062
:104660000346014600903246204601F01DF838B15D
:10467000E86801680029DAD12969C5E90310F8BDA5
:10468000502080F31188BFF34F8FBFF36F8FFEE789
:10469000CC00002008484068401C4FF0500080F3D8
:1046A000118804D0BFF34F8FBFF36F8FFEE7BFF3C6
:1046B0004F8FBFF36F8FFEE700010020074CE068CB
:1046C000016841B1C0680021D0F80000FFF728FF61
:1046D000FFF7AEFEF3E701210020F7E7CC00002052
:1046E0002DE9F041044600F011F994F9455004F128
:1046F000240609E0606A48B1304600F0D7FE08B1F0
:1047000000F00AFA6D1E6DB2002DF3DC4FF0FF369B
:1047100084F8456000F01AF900F0F8F894F9445074
:1047200004F1100709E0206948B1384600F0BEFEE8
:1047300008B100F0F1F96D1E6DB2002DF3DC84F8C4
:104740004460BDE8F04100F001B900002DE9F041FE
:104750000546002700F05EFA324E306808B9FFF7D0
:1047600043FD706905424ED1C5B3083568070ED0C8
:1047700005F00700C0F108000544680707D0502085
:1047800080F31188BFF34F8FBFF36F8FFEE72DB318
:104790007068854237D82348183001460C6801E01C
:1047A00020460C466168A94202D221680029F7D14F
:1047B00031688C4227D0076821680160606808373B
:1047C000411B10290FD96019420708D0502080F3EF
:1047D0001188BFF34F8FBFF36F8FFEE713E0416087
:1047E0006560FFF7D5FD61687068401A7060B26857
:1047F000904200D2B060706901430020C4E900011A
:10480000F068401CF06000F08BFE780707D0502065
:1048100080F31188BFF34F8FBFF36F8FFEE73846E9
:10482000BDE8F081E000002010B5031F4FF0807458
:104830001C601B1F21F001011960191F044B0B6044
:1048400014390A60091F6FF0020244380A6010BD73
:1048500095460008D0E9013201699A60D0E9012348
:104860005A604A68824201D182684A60002202612D
:104870000868401E0860086870470000034B03602A
:1048800003F154000860802010607047340100205C
:10489000044B036003F1540008604FF48070106013
:1048A000704700008803002000F108014FF0FF323C
:1048B000C0E90112C160016100210160704700215F
:1048C0000161704730B50B685A1C02D000F1080234
:1048D00002E0026904E02246546825689D42FAD944
:1048E00053684B6099608A60516008610168491C97
:1048F000016030BD42684A6093688B60936859607C
:10490000916008610168491C01607047502080F384
:104910001188BFF34F8FBFF36F8F0A494868401C5F
:10492000486001280CD10848006810F0FF0F07D03C
:10493000502080F31188BFF34F8FBFF36F8FFEE7D6
:10494000704700000001002004ED00E008494868BD
:1049500028B1401E486001D180F311887047502073
:1049600080F31188BFF34F8FBFF36F8FFEE7000016
:104970000001002070B500282AD0164DA0F10804CF
:1049800060686969084207D1502080F31188BFF33D
:104990004F8FBFF36F8FFEE722683AB1502080F34C
:1049A0001188BFF34F8FBFF36F8FFEE788436060BE
:1049B00000F030F960686968084468602046FFF7D5
:1049C000E7FC2869401C2861BDE8704000F0A8BDE4
:1049D00070BD0000E00000204FF0E02000210161E8
:1049E000816105494FF47A720968B1FBF2F1491E01
:1049F00041610721016170478C00002010B5FBF771
:104A000097FC114910280ED300F1E02090F8F00334
:104A10000A78904207D2502080F31188BFF34F8F5D
:104A2000BFF36F8FFEE709480068896800F4E06013
:104A3000884207D9502080F31188BFF34F8FBFF30E
:104A40006F8FFEE710BD0000000100200CED00E0BC
:104A500010B5084B002200BF53F832401CB1521C65
:104A6000082AF9D310BD43F8321003EBC2014860A5
:104A700010BD0000BC09002070B515460E46044666
:104A8000FFF744FF94F944100020491C01D184F839
:104A9000440094F94510491C01D184F84500FFF702
:104AA00055FFA06B28B92A46314604F1240000F0D6
:104AB00051F82046BDE87040FFF712BE10B5020065
:104AC00014D00F48006B38B1502080F31188BFF329
:104AD0004F8FBFF36F8FFEE700F09CF80021104668
:104AE000FFF752FA00F01CFD002807D105494FF0EE
:104AF00080500860BFF34F8FBFF36F8F10BD000071
:104B00009000002004ED00E002490A6A0260C968D2
:104B1000416070479000002001490120C861704742
:104B20009000002010B50C4650B1094909681831B1
:104B3000FFF7C8FE2046BDE810400121FFF724BA68
:104B4000502080F31188BFF34F8FBFF36F8FFEE7C4
:104B50009000002070B514460D4668B10A490968F6
:104B60001831FFF7C7FE0CB14FF0FF35214628463C
:104B7000BDE87040FFF708BA502080F31188BFF3FA
:104B80004F8FBFF36F8FFEE79000002030B587B0E6
:104B90000024039405AA04A903A80494FFF76EFE59
:104BA000DDE903010094CDE90110002315A11748A8
:104BB000059A00F08AFB164D0028E8621FD000F02D
:104BC00043FD012809D0401C19D1502080F31188E1
:104BD000BFF34F8FBFF36F8FFEE7502080F3118834
:104BE000BFF34F8FBFF36F8F4FF0FF30A8620120EC
:104BF0006861EC6007B0BDE8304000F041B807B034
:104C000030BD000049444C4500000000354200081A
:104C1000900000200248016B491C016370470000AE
:104C2000900000201448016B11B10121C16170474F
:104C30000021C1610169B1FA81F1C1F11F0101EBEC
:104C400081020E4951F822306BB101EB820101F172
:104C500008034A6852684A609A4201D152684A6021
:104C6000D16801607047502080F31188BFF34F8FE7
:104C7000BFF36F8FFEE7000090000020FC090020CA
:104C80001CB537480168374A914207D1502080F35C
:104C90001188BFF34F8FBFF36F8FFEE70068314974
:104CA000491E884207D1502080F31188BFF34F8FEF
:104CB000BFF36F8FFEE72C4908780190FF20087042
:104CC00008788DF800009DF800009DF8002000F0A5
:104CD000F000904207D0502080F31188BFF34F8F2F
:104CE000BFF36F8FFEE79DF80000204C00F05000EE
:104CF00020700720A06005E09DF8002052008DF88C
:104D00000020401E9DF800201206F5D4A060032864
:104D100007D0502080F31188BFF34F8FBFF36F8F00
:104D2000FEE74FF44070A060019808700C482030F6
:104D3000016841F470010160016841F07041016057
:104D4000FFF74AFE00206060FBF7BAFA08480168E6
:104D500041F040410160FBF79FFA00201CBD0000BC
:104D600000ED00E071C20F4100E400E0000100200E
:104D700034EF00E0F8B517460E46050013D005FBEA
:104D800006F04830FFF7E2FC04000AD0002084F867
:104D9000460004F148023B46314628460094FFF79E
:104DA00079FA2046F8BD502080F31188BFF34F8F69
:104DB000BFF36F8FFEE738B5049D18B153B1CAB188
:104DC00081B120E0502080F31188BFF34F8FBFF3F3
:104DD0006F8FFEE7502080F31188BFF34F8FBFF332
:104DE0006F8FFEE7502080F31188BFF34F8FBFF322
:104DF0006F8FFEE739B1502080F31188BFF34F8FDA
:104E0000BFF36F8FFEE748241C46012384F8463029
:104E10002B460094FFF73EFA204638BD70B50D468C
:104E2000040025D0FFF772FDD4E90F20216802FBB2
:104E30000011A1600021A163216861600A46D4E9E4
:104E40000F01401E00FB0121E16021464FF0FF30C1
:104E500001F8440F487004F110008DB1FFF724FDF4
:104E600004F12400FFF720FDFFF770FD012070BD65
:104E7000502080F31188BFF34F8FBFF36F8FFEE791
:104E800021690029F0D000F011FB0028ECD0044982
:104E90004FF080500860BFF34F8FBFF36F8FE3E791
:104EA00004ED00E02DE9FF4782B01D468A464FF031
:104EB0000008040003D0BAF1000F08D011E0502020
:104EC00080F31188BFF34F8FBFF36F8FFEE7206C25
:104ED00038B1502080F31188BFF34F8FBFF36F8F2D
:104EE000FEE7022D0AD1E06B012807D0502080F3A5
:104EF0001188BFF34F8FBFF36F8FFEE700F010FAFA
:104F00003F4F4FF000094FF0805648B9049838B130
:104F1000502080F31188BFF34F8FBFF36F8FFEE7F0
:104F2000FFF7F4FCA06BE16B884207D3022D05D09C
:104F30000498D0B1B8F1000F1AD01EE02A465146AD
:104F40002046FFF700F9616A19B104F1240000F06E
:104F5000ADFA20B13E60BFF34F8FBFF36F8FFFF705
:104F6000F5FC012006B0BDE8F087FFF7EFFC22E07A
:104F70006846FFF7C9FD4FF00108FFF7E7FCFFF7B0
:104F800049FEFFF7C3FC94F94400401C01D184F8AA
:104F9000449094F94500401C01D184F84590FFF7F6
:104FA000D5FC04A9684600F029F930B12046FFF786
:104FB00097FB00F0B5FA0020D4E7FFF7A7FCA06B41
:104FC000E16B884213D1FFF7C1FC04F11000049992
:104FD000FFF7A8FD2046FFF783FB00F0A1FA0028A9
:104FE0009ED13E60BFF34F8FBFF36F8F98E7FFF7FF
:104FF000ADFC2046FFF774FB00F092FA90E700004A
:1050000004ED00E02DE9F0471F4690468946040074
:1050100003D0B9F1000F08D011E0502080F31188BF
:10502000BFF34F8FBFF36F8FFEE7206C38B1502076
:1050300080F31188BFF34F8FBFF36F8FFEE7022F0E
:105040000AD1E06B012807D0502080F31188BFF30C
:105050004F8FBFF36F8FFEE7FFF7D0FC5020EFF3C9
:10506000118680F31188BFF34F8FBFF36F8FA06B52
:10507000E16B884206D3022F04D0002086F311880A
:10508000BDE8F08794F94550A06B3A464946204662
:10509000FFF759F8681C04D06D1C84F845500120B6
:1050A000ECE7606A0028FAD004F1240000F0FEF971
:1050B0000028F4D0B8F1000FF1D00121C8F8001099
:1050C000EDE700002DE9F747002683B08A4604008B
:1050D00003D0BAF1000F08D011E0502080F31188FE
:1050E000BFF34F8FBFF36F8FFEE7206C38B15020B6
:1050F00080F31188BFF34F8FBFF36F8FFEE700F08F
:105100000FF9DFF8F4804FF000094FF0805748B9ED
:10511000059838B1502080F31188BFF34F8FBFF34B
:105120006F8FFEE7FFF7F2FBA56BC5B15146204636
:10513000FEF7F6FF6D1EA563206950B104F1100063
:1051400000F0B4F928B1C8F80070BFF34F8FBFF377
:105150006F8FFFF7FBFB012006B0BDE8F0870598D5
:1051600008B11EB106E0FFF7F1FB27E06846FFF744
:10517000CBFC0126FFF7EAFBFFF74CFDFFF7C6FB70
:1051800094F94400401C01D184F8449094F94500FE
:10519000401C01D184F84590FFF7D8FB05A968466B
:1051A00000F02CF8002820460AD0FFF799FA00F00A
:1051B000B7F92046FFF72EF90028B3D00020CBE73F
:1051C000FFF728F990B104F124000599FFF7AAFC34
:1051D0002046FFF785FA00F0A3F90028A2D1C8F80D
:1051E0000070BFF34F8FBFF36F8F9BE72046FFF731
:1051F00077FA00F095F995E704ED00E02DE9F0412C
:105200000C46050011D0C4B1FFF780FB174BDA68DC
:105210006E682068911B471C17D02F681B6A9F423D
:1052200019D0964217D8012410E0502080F311883D
:10523000BFF34F8FBFF36F8FFEE7502080F31188CD
:10524000BFF34F8FBFF36F8FFEE70024FFF77EFBA6
:105250002046BDE8F081884205D9401A20602846E2
:10526000FFF752FCF1E700202060DCE7900000200F
:105270002DE9FF5F8346DDE90E87994616468A468B
:105280009000FFF763FA05001CD05420FFF75EFA88
:10529000040014D00020256384F85100CDE90240B9
:1052A000CDE900874B46324651465846FEF7FDFF92
:1052B0002046FEF7A1FE012004B0BDE8F09F28467D
:1052C000FFF758FB4FF0FF30F6E7F0B585B0DDE9AA
:1052D0000B640A9DA6B1DCB1542700972663022611
:1052E00084F85160002604AFCDE90246CDE90057AD
:1052F000FEF7DBFF2046FEF77FFE049805B0F0BD09
:10530000502080F31188BFF34F8FBFF36F8FFEE7FC
:10531000502080F31188BFF34F8FBFF36F8FFEE7EC
:105320000548416919B1006B18B100207047012090
:105330007047022070470000900000200148C068BC
:1053400070470000900000202DE9F0412F4C00260E
:10535000206B28B1A069401CA0613046BDE8F081F7
:10536000E5686D1CE56013D1606B006838B15020B2
:1053700080F31188BFF34F8FBFF36F8FFEE7606B31
:10538000A16B6163A063206A401C2062FFF728F9CB
:10539000A06ADFF87C80854209D3606B0068A0B109
:1053A000606BC068C7687868854211D2A0622068C7
:1053B000C06A00EB800158F82100012800D90126BD
:1053C000E0690028C9D00126C7E74FF0FF30EDE7BC
:1053D000381DFFF73FFAB86A18B107F11800FFF758
:1053E00039FAF96A0120226988401043206101EBF3
:1053F000810108EB8100391DFFF77CFAF86A21680A
:10540000C96A8842C9D30126C7E70000900000207E
:10541000FC09002070B504004FF0000140D0214D80
:105420002868844207D0502080F31188BFF34F8F43
:10543000BFF36F8FFEE7A06C38B1401EA064636CB1
:10544000E26A9A422CD040B12AE0502080F31188C1
:10545000BFF34F8FBFF36F8FFEE7201DFFF7FAF901
:10546000114A012150B9E06A00EB800352F8233061
:1054700023B92B6901FA00F083432B61606CE06271
:10548000C0F10700A061E06A2B69814019432961DE
:1054900000EB800002EB8000211DFFF72BFA0121B9
:1054A000084670BD90000020FC0900202DE9F04165
:1054B000C068C468ACB104F118000746FFF7CAF928
:1054C000154D286B0126A0B139461448FFF712FA92
:1054D000E06A2968C96A88421CD90120EE61BDE8EA
:1054E000F081502080F31188BFF34F8FBFF36F8F8F
:1054F000FEE7201DFFF7AEF9E16A2A6906FA01F01E
:105500001043286101EB81000449B43901EB8000AC
:10551000211DDBE70020E2E790000020B00A002018
:105520002DE9F0472C4D00242746286B38B1FFF7B2
:10553000EDF9286B401E2863286B40B146E05020EF
:1055400080F31188BFF34F8FBFF36F8FFEE7A96819
:10555000224E0120D1B3A6F1B40980463068E8B1EB
:10556000F068C46804F11800FFF774F9201DFFF714
:1055700071F9E06A2A6908FA00F11143296100EB28
:10558000800109EB8100211DFFF7B4F9E06A296869
:10559000C96A8842E2D3C5F81C80DFE70CB1FFF787
:1055A0001FF8AC6944B14646FFF7CEFE00B1EE618C
:1055B000641EF9D10020A861E86938B108490127C3
:1055C00038070860BFF34F8FBFF36F8FFFF7BEF947
:1055D0003846BDE8F087000090000020B00A0020A7
:1055E00004ED00E02DE9FC4781461E46174688463B
:1055F00028200A9DFFF7AAF804000AD0002084F8AA
:105600002400CDE9005433463A4641464846FEF769
:1056100098FE2046BDE8FC877CB52826DDE90654C7
:10562000009644B1022684F82460CDE90054FEF7C8
:1056300088FE20467CBD502080F31188BFF34F8F39
:10564000BFF36F8FFEE7000010B586B0FEF73CFD9C
:10565000114C2068B8B100200390049005AA04A959
:1056600003A8FFF715F9DDE9032102208DE8070003
:1056700000230AA10B48059AFFF727FE606010B1CE
:1056800006B0012010BD502080F31188BFF34F8F6A
:10569000BFF36F8FFEE70000CC000020546D722036
:1056A00053766300BD460008FEB51E461346020051
:1056B000089D4FF0000014D0124C2768002F0FD027
:1056C000CDE900130292062915DAFFF729FE022818
:1056D0004FF000030DD0002269462068FFF7E2FB7F
:1056E000FEBD502080F31188BFF34F8FBFF36F8F43
:1056F000FEE72A46F0E70023324669463846FFF7C0
:1057000081FCFEBDCC00002021F00042A2F16052DD
:10571000B2F5801F01F0004328BFD2F17F6C0BD996
:105720005FEA001C43EAC20242EB507018BF7047A8
:1057300028BF20F001007047B2F5801FBCBF18469B
:1057400070474FEA410C1CF5001F02D2084600F0DA
:1057500080B970B500F024F900000089FFF7F6BFAA
:105760004FF00040A0F58000704700004FEA410371
:105770004FEA5353A3F58063D3F11E03C8BFD3F19F
:10578000210C0CDD4FF0004242EAC12242EA5052A5
:1057900032FA03FC8CEAE17CACEBE1707047102B31
:1057A000C4BF0020704703F5787CBCF1FF3F04D0F4
:1057B0006FF0004282EA2100704770B500F0F0F807
:1057C0004992248000207047F2E700004FEA11530D
:1057D000A3F58063D3F11E03A8BFD3F1200C08DB2F
:1057E0004FF0004242EAC12252EA505232FA03F02C
:1057F000704709420BD4102BC4BF0020704703F53B
:10580000787CBCF1FF3F05D04FF0FF3070474FF080
:105810000000704770B500F0C3F800BF49922480C3
:1058200000207047F0E7B0FA80F310FA03F10AD0D5
:10583000C3F11D0303F580634FEA41504FEA035261
:1058400002EBD12170474FF000007047DFF848C1EC
:1058500070B51CEA111E1EBF1CEA13159EEA0C0F40
:1058600095EA0C0F00F06F8081EA030423EA4C13E1
:105870004EEAD47E21EA4C1141F4801143F48013A6
:10588000AE44A1FB024CA0FB0365AEF17F7E36194E
:1058900055EB0C05A1FB034C4CF10003A0FB021CD3
:1058A00016EB0C06654153F10003094218BF46F0A0
:1058B000010613F4007F0BD14FEA03314FEA0530A4
:1058C000340341EA155140EA16506FF003020AE032
:1058D0004FEAC3214FEAC520F40241EA555140EA9C
:1058E00056506FF0020202EB2E4201EB025585EAA0
:1058F000CE710AD05FEA440C18BF24F0004450F186
:10590000000041F1000120EAD47040F2FE7C6245C3
:1059100000D270BDA84214BF4FF080444FF0404405
:10592000002E08BF0024BEF1806FA8BFA1F1C041C6
:10593000BDE8704080F282804FF0000001F1C0416C
:1059400001F0004170479EEA0C0F0CEA131518BFD6
:1059500095EA0C0F06D04FF0000081EA030E0EF01E
:10596000004170BD00F01CF88900013E00F007B84E
:1059700000F009B84FEA430C5FEA5C5C08D081EAAA
:10598000030100F05BB84FEA410C5FEA5C5CF6D1C2
:105990004FF00000014970470000FF070000F87F4A
:1059A0000EF1020E2EF0030E5EF8046B364205D4A3
:1059B000012A43EB030515F5001F12D8012841EB1E
:1059C000010C1CF5001F0CD80ED14FEAD17C15F547
:1059D000001F0CEB4C0C0CF1020C08BF4CEBD37C01
:1059E00004E04FF0080C01E04FEAD37C0CEB4C05CF
:1059F00026FA05F606F00706B6F1040C06D20EEB01
:105A0000860CBDE870404CF0010C6047DFE80CF0FC
:105A1000090B02024FF000414FF00000A1F50021F8
:105A200070BD19461046012851EB010418BFD4F58A
:105A3000001484BF002001F0004170BD0808A0F5EB
:105A400000114FEA310170474FF04070E1EE100A4B
:105A50007047FF2141EAD050C0057047A7050008F4
:105A60000000000010000000020000000000000024
:105A70000000000010000000020000000000000014
:105A80000000000010000000020000000000000004
:105A900000000000105B00089134000800000000C6
:105AA0000000000080000000000000000000000076
:105AB000245B0008F1350008000000000000000031
:105AC000000100000000000000000000185B00085A
:105AD00029350008000000000000000080000000E0
