:020000040800F2
:1000000080260020FD0700080508000807080008F2
:10001000090800080B0800080D080008000000008F
:100020000000000000000000000000006907000858
:100030001108000800000000D5070008E5070008C7
:100040001708000817080008170800081708000814
:100050001708000817080008170800081708000804
:10006000170800081708000817080008B11C000846
:1000700017080008170800081708000817080008E4
:100080001708000817080008170800086130000862
:10009000893000081708000817080008B51C000878
:1000A00017080008170800081708000817080008B4
:1000B00017080008170800081708000817080008A4
:1000C0001708000817080008170800081708000894
:1000D0001708000817080008952F000817080008DF
:1000E000170800081708000817080008DFF80CD0E8
:1000F00000F04EFF004800478136000880260020AF
:100100000246D2E84F0FC2E8431F03B1F9E7704738
:10011000024652E8000F40EA010042E8000303B142
:10012000F7E7704710B5024652E8000F20EA0104D5
:1001300042E8004303B1F7E710BD10B5024652E8AC
:10014000000F00EA01048C4203D0BFF32F8F002080
:1001500010BD20EA010442E8004303B1EFE710BDFF
:1001600010B5024652E8000F084203D1BFF32F8FAB
:10017000002010BD20EA010442E8004303B1F1E78A
:1001800010BD024652E8000F411C42E8001303B1C3
:10019000F8E7704710B50246D2E85F0F814202D8F7
:1001A000BFF32F8F10BD441CC2E8534F03B1F3E7D8
:1001B00010BD10B50246D2E85F0F441CA14200D822
:1001C0000024C2E8534F03B1F5E710BD024652E8E0
:1001D000000F411E42E8001303B1F8E770470246E2
:1001E00052E8000F10B9BFF32F8F7047411E42E84D
:1001F000001303B1F4E770470246D2E85F0F10B96D
:10020000BFF32F8F7047411EC2E8531F03B1F4E7BD
:100210007047024652E8000F10B9BFF32F8F7047A6
:10022000016842E8001303B1F4E7704702680A600E
:10023000BFF35F8F50E8002F0B689342F6D140E880
:10024000001303B1F2E770470246D2E84F0FC2E84D
:10025000431F03B1F9E77047024652E8000F40EA36
:10026000010042E8000303B1F7E7704710B502460A
:1002700052E8000F20EA010442E8004303B1F7E727
:1002800010BD10B5024652E8000F00EA01048C428E
:1002900003D0BFF32F8F002010BD20EA010442E8F5
:1002A000004303B1EFE710BD10B5024652E8000F5E
:1002B000084203D1BFF32F8F002010BD20EA0104B4
:1002C00042E8004303B1F1E710BD024652E8000FD7
:1002D000411C42E8001303B1F8E7704710B502462D
:1002E000D2E85F0F814202D8BFF32F8F10BD441CAC
:1002F000C2E8534F03B1F3E710BD10B50246D2E890
:100300005F0F441CA14200D80024C2E8534F03B140
:10031000F5E710BD024652E8000F411E42E8001307
:1003200003B1F8E77047024652E8000F10B9BFF377
:100330002F8F7047411E42E8001303B1F4E7704766
:100340000246D2E85F0F10B9BFF32F8F7047411EEE
:10035000C2E8531F03B1F4E77047024652E8000FAA
:1003600010B9BFF32F8F7047016842E8001303B143
:10037000F4E7704702680A60BFF35F8F50E8002F10
:100380000B689342F6D140E8001303B1F2E77047DF
:100390000246D2E84F0FC2E8431F03B1F9E77047A6
:1003A000024652E8000F40EA010042E8000303B1B0
:1003B000F7E7704710B5024652E8000F20EA010443
:1003C00042E8004303B1F7E710BD10B5024652E81A
:1003D000000F00EA01048C4203D0BFF32F8F0020EE
:1003E00010BD20EA010442E8004303B1EFE710BD6D
:1003F00010B5024652E8000F084203D1BFF32F8F19
:10040000002010BD20EA010442E8004303B1F1E7F7
:1004100010BD024652E8000F411C42E8001303B130
:10042000F8E7704710B50246D2E85F0F814202D864
:10043000BFF32F8F10BD441CC2E8534F03B1F3E745
:1004400010BD10B50246D2E85F0F441CA14200D88F
:100450000024C2E8534F03B1F5E710BD024652E84D
:10046000000F411E42E8001303B1F8E7704702464F
:1004700052E8000F10B9BFF32F8F7047411E42E8BA
:10048000001303B1F4E770470246D2E85F0F10B9DA
:10049000BFF32F8F7047411EC2E8531F03B1F4E72B
:1004A0007047024652E8000F10B9BFF32F8F704714
:1004B000016842E8001303B1F4E7704702680A607C
:1004C000BFF35F8F50E8002F0B689342F6D140E8EE
:1004D000001303B1F2E770470246D2E84F0FC2E8BB
:1004E000431F03B1F9E77047024652E8000F40EAA4
:1004F000010042E8000303B1F7E7704710B5024678
:1005000052E8000F20EA010442E8004303B1F7E794
:1005100010BD10B5024652E8000F00EA01048C42FB
:1005200003D0BFF32F8F002010BD20EA010442E862
:10053000004303B1EFE710BD10B5024652E8000FCB
:10054000084203D1BFF32F8F002010BD20EA010421
:1005500042E8004303B1F1E710BD024652E8000F44
:10056000411C42E8001303B1F8E7704710B502469A
:10057000D2E85F0F814202D8BFF32F8F10BD441C19
:10058000C2E8534F03B1F3E710BD10B50246D2E8FD
:100590005F0F441CA14200D80024C2E8534F03B1AE
:1005A000F5E710BD024652E8000F411E42E8001375
:1005B00003B1F8E77047024652E8000F10B9BFF3E5
:1005C0002F8F7047411E42E8001303B1F4E77047D4
:1005D0000246D2E85F0F10B9BFF32F8F7047411E5C
:1005E000C2E8531F03B1F4E77047024652E8000F18
:1005F00010B9BFF32F8F7047016842E8001303B1B1
:10060000F4E7704702680A60BFF35F8F50E8002F7D
:100610000B689342F6D140E8001303B1F2E770474C
:100620000246D2E84F0FC2E8431F03B1F9E7704713
:10063000024652E8000F40EA010042E8000303B11D
:10064000F7E7704710B5024652E8000F20EA0104B0
:1006500042E8004303B1F7E710BD10B5024652E887
:10066000000F00EA01048C4203D0BFF32F8F00205B
:1006700010BD20EA010442E8004303B1EFE710BDDA
:1006800010B5024652E8000F084203D1BFF32F8F86
:10069000002010BD20EA010442E8004303B1F1E765
:1006A00010BD024652E8000F411C42E8001303B19E
:1006B000F8E7704710B50246D2E85F0F814202D8D2
:1006C000BFF32F8F10BD441CC2E8534F03B1F3E7B3
:1006D00010BD10B50246D2E85F0F441CA14200D8FD
:1006E0000024C2E8534F03B1F5E710BD024652E8BB
:1006F000000F411E42E8001303B1F8E770470246BD
:1007000052E8000F10B9BFF32F8F7047411E42E827
:10071000001303B1F4E770470246D2E85F0F10B947
:10072000BFF32F8F7047411EC2E8531F03B1F4E798
:100730007047024652E8000F10B9BFF32F8F704781
:10074000016842E8001303B1F4E7704702680A60E9
:10075000BFF35F8F50E8002F0B689342F6D140E85B
:10076000001303B1F2E770471EF0040F0CBFEFF364
:100770000880EFF30980816911F8021CD9B901B52D
:1007800090E80F10E047BDE800508CE80300194BDB
:1007900093E80600914208BF704719B12CE9F00FA9
:1007A000C1F838C01A60906BB0E8F00F80F3098888
:1007B0006FF0020E7047104A13689942FAD801B5DB
:1007C00052F821C00FC8E047BDE80050CCF8000047
:1007D0007047000001B503F041FABDE80140EFF3B6
:1007E000098CD4E701B503F0F3FCBDE80140EFF359
:1007F000098CCCE7302100207C4F00080648804758
:1008000006480047FEE7FEE7FEE7FEE7FEE7FEE7F5
:10081000FEE7FEE7FEE7FEE79D2C0008ED0000087E
:1008200040EA01039B0703D009E008C9121F08C072
:10083000042AFAD203E011F8013B00F8013B521EF2
:10084000F9D27047D2B201E000F8012B491EFBD269
:1008500070470022F6E710B513460A4604461946CB
:10086000FFF7F0FF204610BDF0B480EA0102D40F7C
:100870004200B2EB410F02D20246084611464A003E
:1008800042D0C30DDDB2C1F3C752AD1A202D35DA07
:10089000C1F3160141F4000204B15242C5F1200631
:1008A00002FA06F12A411044B3EBD05F23D0C4B161
:1008B000012DA0EBC35009DCF0BC4FF0004202EA6E
:1008C000C352DBB200F5000000F0D6BA400000F1E0
:1008D000807000EBC350A0F1807040EAD1704900F5
:1008E00009E0490841EAC071A0EBC35000F50000DF
:1008F000400800EBC350F0BC00F0B5BA61420122E1
:1009000002EB4101001BF6E7F0BC704781F00041AB
:10091000AAE780F00040A7E780EA010210B502F0E4
:100920000043400022D04A001FD0010E01EB1261AB
:10093000C0F35600C2F3560240F4000042F4000235
:10094000A0FB022000047F39140400D0401C50EAB0
:10095000124001D44000491EC2B20C0604EBD01074
:10096000401C4008802A02D003E0002010BD20F087
:100970000100002900DA0020184310BD30B480EADD
:10098000010202F0004530F0004221F0004013D097
:1009900090B1C30DD40DC2F31601C0F31600E41AD2
:1009A00041F4000140F400027D34914201D3641C03
:1009B00000E04900002C02DA30BC002070474FF400
:1009C00000000023914201D3891A034340084FEAF3
:1009D0004101F7D151B1914202D14FF0004105E000
:1009E00002D24FF0010101E06FF0010103EBC450AE
:1009F000284430BC00F037BA2DE9FE4F804681EA2A
:100A00000300C00F0C46009021F0004123F0004588
:100A1000B8EB0200A94105D24046214690461C464B
:100A20000B46024623F00040104347D0270DC7F382
:100A30000A00C3F30A510290401A019040286BDA71
:100A4000C3F3130040F4801B0098924620B10023AA
:100A5000D2EB030A63EB0B0B01985946C0F140023D
:100A6000504600F0CFF906460D4650465946019AC9
:100A700000F0E7F910EB08006141002487EA115209
:100A800084EAE7731A4340D0009A62B3019A012ABC
:100A90004FEA075215DC001B61EB02014FF00042E8
:100AA00002EA0752CDE90042001C41F580113246AE
:100AB0002B4600F01EFA03B0BDE8F08F40462146F9
:100AC000F9E7001B61EB0201001C41F580130018DF
:100AD0005B412018A2F5001747EB030140EAD570EF
:100AE000B6196D4111E06D084FEA360645EAC0754A
:100AF0004FEA0752001B61EB0201001C41F5801117
:100B000049084FEA30000019514132462B4603B0E4
:100B1000BDE8F04F00F0DEB900980122400000234C
:100B2000D0EB020263EBE073009821464FEAE074D9
:100B3000B8EB000061EB0401E9E783F000435BE7F9
:100B400081F0004158E72DE9FE4F81EA030404F0EB
:100B5000004421F0004100944FF0000B23F00043CB
:100B600050EA01045ED052EA03045BD0C3F30A5496
:100B7000C1F30A552C44A4F2F3340194A0FB0254AF
:100B8000C1F3130141F48011C3F3130343F4801341
:100B900001FB024400FB034E840A970A44EA815495
:100BA00047EA8357A4FB076802958D0A05FB078572
:100BB0004FEA932C04FB0C542705029D4FEA06587C
:100BC00047EA1637B5EB08056EEB070C870E920E59
:100BD00047EA811742EA8312A7FB0201B6EB0B0139
:100BE00064EB00042B0D43EA0C335E1844EB1C50FD
:100BF000DA465146E7FB0201C5F313044FEA0B3313
:100C000043EA14534FEA0432019C43EA0603A4F179
:100C10000C040294009CCDE900B400F06AF903B022
:100C2000BDE8F08F00200146F9E7C10F80EAE070CF
:100C30000844CA079623002100F01EB9962300221B
:100C4000114600F019B90EB5C10F80EAE0700844F2
:100C5000CA07002140F233438DE80E000A460B46D6
:100C600000F047F903B000BD0EB540F233410291E8
:100C70000021CDE900110A460B4600F03AF903B015
:100C800000BD00F0004220F00040C10DC0F316008E
:100C900040F400007F2901DA00207047962903DC28
:100CA000C1F19601C84001E096398840002AF4D08D
:100CB0004042704720F00040C10DC0F3160040F4E0
:100CC00000007F2901DA00207047962903DCC1F17A
:100CD0009601C840704796398840704770B5C1F397
:100CE0000A5201F000450024C1F3130140F2FF3322
:100CF00041F480119A4201DA002070BD40F2334382
:100D00009A42A2F2334203DC524200F08AF800E039
:100D100090402C43F1D0404270BDC1F30A5210B54F
:100D2000C1F3130140F2FF3341F480119A4201DA1A
:100D3000002010BD40F233439A42A2F2334203DC5A
:100D4000524200F06EF810BD904010BD00F000421D
:100D500030F000400AD0C10D01F56071C0F31600FB
:100D600042EA0151C2084007114370470020014682
:100D70007047000030B5041E71F1000404DB4FF031
:100D80000044404264EB0101141E73F1000405DBD2
:100D90001C464FF00043524263EB0403994208BFE4
:100DA000904230BD01F0004330B421F0004150EAE0
:100DB000010206D00A0DA2F56072C1F31301002AE8
:100DC00002DC30BC00207047440F44EAC104C1007B
:100DD000E01830BC00EBC25000F045B8002801DB41
:100DE000C0F10040002901DBC1F1004181427047A0
:100DF000002801DBC0F10040002901DBC1F1004106
:100E000088427047202A04DB203A00FA02F10020D1
:100E100070479140C2F1200320FA03F31943904038
:100E20007047202A04DB203A21FA02F000217047A3
:100E300021FA02F3D040C2F1200291400843194642
:100E40007047202A06DBCB17203A41FA02F043EA2A
:100E5000E07306E041FA02F3D040C2F12002914073
:100E60000843194670470029A8BF7047401C490035
:100E700008BF20F00100704710B4B0FA80FC00FAFF
:100E80000CF050EA010404BF10BC704749B1CCF12A
:100E9000200421FA04F411FA0CF118BF01212143B6
:100EA0000843A3EB0C01CB1D4FEA00614FEA102071
:100EB00042BF002010BC704700EBC3501044002913
:100EC000A4BF10BC7047401C490008BF20F00100BF
:100ED00010BC704710B5141E73F1000408DA401CF2
:100EE00041F1000192185B411A4301D120F0010049
:100EF00010BD2DE9F04D92469B4611B1B1FA81F239
:100F000002E0B0FA80F220329046FFF77BFF044601
:100F10000F4640EA0A0041EA0B0153465A4608438D
:100F200013D0114653EA010019D0C8F140025046CF
:100F3000FFF777FF05460E46504659464246FFF7F3
:100F400061FF084305D0012004E020463946BDE892
:100F5000F08D0020054346EAE0762C4337430A989B
:100F60006305E40AA0EB08000022FD0A44EA4754A6
:100F70000A3002D500200146E9E701051019694150
:100F8000DDE9084500196941BDE8F04DA2E7000020
:100F9000064C074D06E0E06840F0010394E80700C6
:100FA00098471034AC42F6D3FFF7A4F8F44F00088A
:100FB0001450000830B58C1810F8012B12F00F03F4
:100FC00001D110F8013B120906D110F8012B03E002
:100FD00010F8015B01F8015B5B1EF9D101E001F83B
:100FE000013B521EFBD1A142E6D3002030BD21B10E
:100FF000826842F00102826003E0826822F001020E
:101000008260704710B504461248844208D101211D
:10101000401501F083FD0021601501F07FFD17E010
:101020000D48844208D10121001501F077FD00210F
:10103000201501F073FD0BE00848844208D101211E
:10104000C80301F06BFD00214FF4004001F066FD84
:1010500010BD00000024014000280140003C014078
:10106000014600208A6802F004020AB1012000E073
:10107000002070470146C86C80B2704702460020CD
:1010800013680B400BB1012000E0002070470146BF
:1010900000208A6802F008020AB1012000E0002066
:1010A0007047000030B502460020002350680F4C06
:1010B00020400D790C6844EA052420435060906874
:1010C0000B4C2040D1E902542C434D7944EA4504AD
:1010D00020439060D06A20F470000C7C641EE4B25F
:1010E000234340EA0350D06230BD0000FFFEF0FF12
:1010F000FDF7F1FFF0B504460D4600200021092D53
:1011000011DDE068A5F10A0606EB4607072606FA98
:1011100007F18843A5F10A0606EB460603FA06F135
:101120000843E0600CE0206905EB4507072606FA56
:1011300007F1884305EB450603FA06F108432061F1
:10114000072A0FDA606B561E06EB86071F2606FA83
:1011500007F18843561E06EB860605FA06F108439A
:10116000606322E00D2A0FDA206BD61F06EB86079C
:101170001F2606FA07F18843D61F06EB860605FAF6
:1011800006F10843206310E0E06AA2F10D0606EBC9
:1011900086071F2606FA07F18843A2F10D0606EB23
:1011A000860605FA06F10843E062F0BD816841F069
:1011B00008018160704721B1826842F4A002826018
:1011C00003E0826822F4A00282607047816841F0E7
:1011D000040181607047000000B587B001214FF421
:1011E000017001F08BFC4FF4004001F05BFC022029
:1011F000ADF8040000208DF8070001A9174800F0A1
:10120000C7FD1748FFF7FEFE002002908DF80C0086
:101210008DF80D004FF4602004900020059001200F
:101220008DF8180002A90E48FFF73CFF01210C4879
:10123000FFF7DDFE0A48FFF7B9FF00BF0848FFF7D8
:1012400026FF0028FAD10648FFF7C0FF00BF044878
:10125000FFF706FF0028FAD107B000BD00080140E3
:101260000024014000B589B00121042001F046FCB2
:101270000121480601F022FC4FF40060ADF8200087
:1012800048208DF8230003208DF8220008A931485A
:1012900000F07EFD4FF48050ADF8200018208DF84E
:1012A000230003208DF8220008A92A4800F070FDD1
:1012B000294800F01BF905A800F062FB00208DF81A
:1012C0001A0001208DF81F008DF81E008DF81C00FB
:1012D00000208DF81B008DF81D008DF816008DF88C
:1012E000170005208DF8180004208DF81900032040
:1012F000ADF8140005A9184800F031FA00208DF867
:101300000E008DF80F0001208DF810000020ADF8C0
:101310000400ADF80600ADF80800ADF80A00ADF81D
:101320000C0001208DF8110001A800F0FBF801224B
:101330000221094800F00AFA01221146064800F08D
:1013400005FA00224FF40041034800F0FFF909B00C
:1013500000BD0000000801400064004008B5012104
:101360000C2001F0CBFB0121084601F0C7FB012155
:10137000144800F099FD1920ADF8000010208DF8F8
:10138000030002208DF8020069460F4800F000FDBE
:10139000F020ADF8000010208DF8030002208DF839
:1013A00002006946094800F0F3FC1021064800F0ED
:1013B000CCFD0821044800F0C8FD0121024800F0DE
:1013C000C6FD08BD00023000000C014000080140CD
:1013D0002DE9F0418AB004460D4616461F46DDF859
:1013E0004080049503960297CDF804800594002070
:1013F0008DF81D008DF81C0008208DF81E009DF84A
:1014000011008DF81F009DF8101005A801739DF8BC
:101410000D1041739DF80C1081739DF80910C17374
:101420009DF8081001749DF8051041749DF8041092
:10143000817405A9024800F0BCFA0AB0BDE8F08149
:1014400000640040B1F5007F3AD00FDC202928D09D
:1014500006DC01291CD004291DD0082940D11DE03B
:10146000402921D0B1F5807F3AD126E0B1F5004F77
:1014700031D006DCB1F5806F25D0B1F5006F2FD1EA
:1014800024E0B1F5803F12D0B1F5003F28D111E042
:10149000154A826025E00822C26022E01022C26064
:1014A0001FE0082202611CE01022026119E00822FC
:1014B000426016E01022426013E00422426010E015
:1014C000042242600DE0042242600AE000228261B0
:1014D0000422426005E0002282610422426000E0B2
:1014E00000BF00BF704700000101010010B50446B5
:1014F0000B48844209D10121480601F0EFFA00218E
:101500004FF0007001F0EAFA08E00121880601F0CE
:10151000E5FA00214FF0806001F0E0FA10BD000014
:101520000064004010B50021837A012202FA03F121
:101530003D4A126842F001023B4B1A603A4A1C32A3
:1015400012688A43384B1C331A60027BCAB9364A88
:101550000C3212688A43344B0C331A604288C388B9
:1015600042EA0343304A4032847A42F834300288F7
:10157000838842EA03432C4A4032847A02EBC40255
:101580005360027B012A19D1274A0C3212680A43A0
:10159000254B0C331A604288038842EA0343224AEF
:1015A0004032847A42F83430C288838842EA034366
:1015B0001D4A4032847A02EBC4025360C27A3AB9BF
:1015C000194A121D12688A43174B1B1D1A6006E048
:1015D000154A121D12680A43134B1B1D1A6002891B
:1015E00032B9114A143212688A430F4B14331A600D
:1015F0000289012A06D10C4A143212680A430A4BA6
:1016000014331A60427B012A06D1074A1C32126841
:101610000A43054B1C331A60034A126822F0010288
:10162000014B1A6010BD00000066004070B5044612
:101630000D46002660692840002871D0B5F5807FEE
:101640005CD010DC082D35D006DC012D20D0022D19
:1016500024D0042D72D127E0102D31D0202D35D08B
:10166000402D6BD138E0B5F5004F60D009DCB5F501
:10167000007F49D0B5F5806F4CD0B5F5006F5DD1D6
:101680004FE0B5F5803F2DD0B5F5003F56D12FE0A6
:10169000A0682D4900F03EFA064651E0E0680321BB
:1016A00000F038FA06464BE0E068082100F032FA14
:1016B000064645E0E068102100F02CFA06463FE0BF
:1016C0002069032100F026FA064639E02069082146
:1016D00000F020FA064633E02069102100F01AFAE3
:1016E00006462DE06068082100F014FA064627E05F
:1016F0006068102100F00EFA064621E0A069012181
:1017000000F008FA06461BE0A069022100F002FA88
:10171000064615E0A069042100F0FCF906460FE03A
:101720000FE0A069702100F0F5F9064608E0606856
:10173000042100F0EFF9064602E0FFE7002600BFB3
:1017400000E00026304670BD010101001AB1436976
:101750000B43436102E043698B434361704730B5FB
:10176000024600200023146824F002041460146868
:1017700044F00104146000E05B1C546804F00104B0
:101780001CB94FF6FF74A342F6D1546804F001046B
:101790000CB900206CE08C79012C04D1146844F061
:1017A0008004146003E0146824F080041460CC7991
:1017B000012C04D1146844F04004146003E0146860
:1017C00024F0400414600C7A012C04D1146844F015
:1017D0002004146003E0146824F0200414604C7AA0
:1017E000012C04D1146844F01004146003E0146860
:1017F00024F0100414608C7A012C04D1146844F095
:101800000804146003E0146824F008041460CC7A1F
:10181000012C04D1146844F00404146003E014683B
:1018200024F0040414608C78A407CD7844EA05649D
:101830000D7944EA05444D7944EA05540D886D1E3E
:101840002C43D461146824F001041460002300E0E8
:101850005B1C546804F001041CB14FF6FF74A342F2
:10186000F6D1546804F001040CB1002000E001201E
:1018700030BD10B500F5D87303EB01131B6803F0FE
:1018800004031372137A53B900F5D87303EB0113F1
:101890001B6840F2FF7404EA5353136009E000F53B
:1018A000D87303EB01131B686FF0604404EAD303A1
:1018B000536000F5D87303EB01131B6803F00203B8
:1018C000537200F5D87303EB01135B6803F00F0349
:1018D000937200F5D87303EB01135B681B0AD37492
:1018E00000F5D87303EB01139B68D37200F5D8732E
:1018F00003EB01139B681C0A147300F5D87303EB08
:1019000001139B681C0C547300F5D87303EB01138F
:101910009B681B0E937300F5D87303EB0113DB6810
:10192000D37300F5D87303EB0113DB681C0A14743E
:1019300000F5D87303EB0113DB681C0C547400F53D
:10194000D87303EB0113DB681B0E937421B9C368D2
:1019500043F02003C36003E0036943F02003036105
:1019600010BD000040F222220168914204D1C17AE8
:10197000024A1170017B517070470000FC2000206A
:1019800000218171C171017241728172C1728170D5
:10199000C170032101710221417101210180704751
:1019A00006E000F099F800F01FFE012001F06CFE47
:1019B000F7E710B502460020936803F08063B3F1A7
:1019C000806F00D110E0936803F00063B3F1006F03
:1019D00001D1012008E0936803F08053B3F1805FE8
:1019E00001D1022000E00420042874D002F5C07365
:1019F00003EB00131B6803F0010402F5C07303EB53
:101A000000131C600B7A7BB94B7A0C8843EA445371
:101A100002F5C07404EB00142468234302F5C0747B
:101A200004EB0014236010E00B7A4C6843EAC40313
:101A30004C7A234302F5C07404EB0014246823435A
:101A400002F5C07404EB001423608B7A03F00F03DB
:101A50008B7202F5C07303EB00135B6823F00F0475
:101A600002F5C07303EB00135C6002F5C07303EB77
:101A700000135B688C7A234302F5C07404EB0014F6
:101A800063608B7B1C064B7B44EA03440B7B44EA7C
:101A90000323CC7A234302F5C07404EB0014A36043
:101AA0008B7C1C064B7C44EA03440B7C44EA0323F6
:101AB000CC7B234302F5C07404EB0014E36002F511
:101AC000C07303EB00131B6843F0010402F5C073FD
:101AD00003EB00131C6010BD38B50B490B480068C0
:101AE000FEF71AFF0546FFF7CCF804B2002000907D
:101AF0000748808802B20648008801B223464FF4A6
:101B00004070FFF765FC38BD00007A44F8200020E3
:101B1000602200200246002002EA01030BB10120EE
:101B200000E0002070470000F8B504460D4652481A
:101B30000068524908600846456051480090514885
:101B4000036851480268514801684C4800F096FE0D
:101B50004A4800F053FE6042FFF767F806464748E0
:101B6000816A3046FFF744F905D86042FFF75DF817
:101B7000424988620EE02046FFF757F806463F4884
:101B8000816A3046FFF72AF904D82046FFF74DF85E
:101B90003A4988623948806A80F000403C490860D0
:101BA0003C494868FFF741F839494860344800909B
:101BB000394803683948026839480168344800F0F8
:101BC0005DFE334800F01AFE36480088C0F101007F
:101BD000FFF72BF806462E48816A3046FFF708F9D2
:101BE00008D830480088C0F10100FFF71EF82849E6
:101BF000886212E02B490988481EFFF716F806464E
:101C00002348816A3046FFF7E9F806D82549098854
:101C1000481EFFF70AF81E4988621D48816A22485B
:101C20000068FEF721FE2049086000211E48006878
:101C3000FFF7D4F803D800201B49086012E01949C7
:101C40000988C81EFEF7F1FF0646174801683046AE
:101C5000FFF7C4F806D813490988C81EFEF7E5FF48
:101C60001149086010480068FFF724F886B2314631
:101C70000E4801F0E2F8F8BDF8200020FC21002019
:101C80000000FA44E8200020E4200020E0200020AA
:101C9000C021002060220020DC200020D82000206D
:101CA000D4200020B8200020AC20002000040040F8
:101CB0007047000010B5402000F022F870B14020BD
:101CC00000F012F8402000F015F80548C088401CCC
:101CD0000349C8800348006802F020FB10BD0000E3
:101CE0006C220020B02000200149086070470000ED
:101CF00014040140014908607047000014040140C9
:101D0000014600200022074B1B6803EA0102054B35
:101D100014331B680B4013B10AB1012000E000200E
:101D200070470000000401407047704770477047DB
:101D300070477047704770477047704770477047EB
:101D400070477047704770477047704770477047DB
:101D500070477047704770477047704770477047CB
:101D600070477047704770477047704770477047BB
:101D700070477047704770477047704770477047AB
:101D8000704770477047704770477047704770479B
:101D90002DE9F04102460025002600200023002402
:101DA000002791F803C00CF00F0591F803C00CF068
:101DB000100CBCF1000F03D091F802C04CEA0505ED
:101DC00091F800C0BCF1000F31D0146800202BE066
:101DD0004FF0010C0CFA00F3B1F800C00CEA030656
:101DE0009E4220D183004FF00F0C0CFA03F7BC4346
:101DF00005FA03FC4CEA040491F803C0BCF1280F77
:101E000006D14FF0010C0CFA00FCC2F814C00AE035
:101E100091F803C0BCF1480F05D14FF0010C0CFA4A
:101E200000FCC2F810C0401C0828D1D31460B1F8DF
:101E300000C0BCF1FF0F34DD546800202EE000F13B
:101E4000080C4FF0010808FA0CF3B1F800C00CEAD6
:101E500003069E4221D183004FF00F0C0CFA03F7CA
:101E6000BC4305FA03FC4CEA040491F803C0BCF13E
:101E7000280F05D100F1080C08FA0CF8C2F81480FC
:101E800091F803C0BCF1480F07D100F1080C4FF0E6
:101E9000010808FA0CF8C2F81080401C0828CED3BC
:101EA0005460BDE8F0810000F0B50A46002300242C
:101EB0000021002500F00046B6F1004F02D11D4E72
:101EC000F16901E01B4E7168C0F3034583B200F471
:101ED0004016B6F5401F08D121F07061154E7668A6
:101EE00026F07066134F7E6012E000F48016B6F59F
:101EF000801F06D1032606FA05F4A14341F0706164
:101F000006E0460D360103FA06F6B14341F0706172
:101F100022B1460D360103FA06F6314300F00046C1
:101F2000B6F1004F02D1034EF16101E0014E716044
:101F3000F0BD0000000001400246002093680B4005
:101F40000BB1012000E00020704741617047016142
:101F50007047000010B504460723012221460948B6
:101F6000FFF7C8F801210748FFF725F900BF022154
:101F70000448FFF783F80028F9D00248FFF77AF801
:101F800010BD0000002401402DE9F04107460C4639
:101F90000025002605E03846FFF7DCFF0544701CED
:101FA000C6B2A642F7DBB5FBF4F080B2BDE8F08123
:101FB00010B54FF480710D48FFF7C7FF00F0D4FD56
:101FC0004FF400710948FFF7C0FF022000F024F928
:101FD0004FF480710548FFF7BAFF022000F01CF9AA
:101FE0004FF480710148FFF7B0FF10BD00080140B9
:101FF00008B50121042000F081FD4FF44070ADF8D8
:10200000000010208DF8030003208DF802006946BF
:102010000648FFF7BDFE4FF480710448FFF797FFB5
:102020004FF400710148FFF792FF08BD000801401E
:1020300010B54FF480710D48FFF787FF00F094FD55
:102040004FF400710948FFF782FF022000F0E4F826
:102050004FF480710548FFF77AFF022000F0DCF8AA
:102060004FF480710148FFF770FF10BD0008014078
:1020700070B50546002400F061FD00261BE04FF41A
:1020800080711248FFF761FF022000F0C5F84FF49D
:1020900080710E48FFF75BFF6006040E4FF400717D
:1020A0000A48FFF749FF08B1601CC4B2012000F0E4
:1020B000B3F8701CC6B2082EE1DB15B9FFF7B8FF04
:1020C00001E0FFF775FF204670BD000000080140E9
:1020D00070B5044600F048FD4FF480711548FFF7D5
:1020E00034FF002523E0E00928B14FF400711148C6
:1020F000FFF72DFF04E04FF400710E48FFF725FFB6
:102100006006040E022000F087F84FF48071094841
:10211000FFF71DFF022000F07FF84FF480710548A3
:10212000FFF713FF022000F077F8681CC5B2082DF6
:10213000D9DB70BD0008014010B500F015FD4FF46B
:1021400000710D48FFF703FF4FF480710A48FFF755
:10215000FEFE042000F060F84FF400710648FFF71F
:10216000F4FE042000F058F84FF480710248FFF7A5
:10217000ECFE012010BD00000008014010B500F089
:10218000F3FC4FF480710C48FFF7DFFE4FF4007151
:102190000948FFF7DAFE042000F03EF84FF48071A2
:1021A0000548FFF7D4FE4FF400710348FFF7CFFE58
:1021B000042000F031F810BD0008014010B50024E3
:1021C00000F0BCFC4FF400711248FFF7C0FE012084
:1021D00000F022F84FF480710E48FFF7B8FE01209E
:1021E00000F01AF807E0601CC4B2FA2C03DDFFF718
:1021F000C5FF012010BD4FF400710648FFF79CFE9B
:102200000028F0D14FF480710248FFF79EFE0020B5
:10221000F0E7000000080140002106E00A2100BFAD
:102220000A1EA1F1010399B2FAD1021EA0F1010325
:1022300098B2F3D1704700002DE9F04100F07EF82C
:102240001349088000F02CF81149486000F064F848
:102250008046FEF709FD06460E4A0F4BFEF773FC5B
:102260000446FEF75AFD0A4908810846008868B10D
:10227000084600884FF6FF71884207D0074800895A
:10228000401C064908810120BDE8F0810020FBE7E1
:10229000602200209A9999999999B93F6C2200205F
:1022A0002DE9F8434FF000086946012000F08FF84F
:1022B0009DF80000C011B8B19DF801109DF80020F4
:1022C00041EA0221491E09B9012100E00021084626
:1022D000FEF7B9FC064600220D4BFEF734FC04461F
:1022E000FEF7FCFC804610E09DF801109DF80020F0
:1022F00041EA0220FEF7A7FC06460022054BFEF746
:1023000022FC0446FEF7EAFC80464046BDE8F8831E
:102310000000F4BF0000F43F08B56946032000F058
:1023200056F89DF801009DF8001040EA012000EBEE
:1023300080004FF6FF7101EA400008BDF8B569461C
:10234000022000F044F89DF801109DF8002041EAB9
:102350000220FEF778FC06460022044BFEF7F3FB52
:102360000446FEF7BBFC80B2F8BD00000000F43F5D
:1023700010B5FFF73DFE46F22751002000F001F8AE
:1023800010BD38B505460C4620128DF80000E0B2AD
:102390008DF80100FFF7D0FE8020FFF799FEFFF7D0
:1023A0000DFF2846FFF794FEFFF708FF9DF8000099
:1023B000FFF78EFEFFF702FF601C84B29DF801005C
:1023C000FFF786FEFFF7FAFEFFF7D8FE38BD70B5BF
:1023D00005460C46FFF7B0FE8020FFF779FEFFF7B9
:1023E000EDFE2846FFF774FEFFF7E8FEFFF7A4FEB8
:1023F0008120FFF76DFEFFF7E1FE0120FFF738FEB9
:102400002070641C0020FFF733FE2070FFF7B6FE3B
:1024100070BD00BFEFF3108018B900BFEFF311805B
:1024200008B1012070470020FCE700BFEFF31080E7
:1024300018B900BFEFF3118008B1012070470020E8
:10244000FCE700BFEFF3108018B900BFEFF3118075
:1024500008B1012070470020FCE700BFEFF31080B7
:1024600018B900BFEFF3118008B1012070470020B8
:10247000FCE700BFEFF3108018B900BFEFF3118045
:1024800008B1012070470020FCE700BFEFF3058092
:1024900008B1012070470020FCE700BFEFF3058082
:1024A00008B1012070470020FCE700BFEFF3058072
:1024B00008B1012070470020FCE700BFEFF3058062
:1024C00008B1012070470020FCE700BFEFF3058052
:1024D00008B1012070470020FCE7000010B54FF460
:1024E000FA6000F0D5FF00F01FF9FEF737FF012179
:1024F0002148FFF72CFDFEF7B5FEFEF76DFEFFF756
:1025000037FF1E490988491E88B2002100F0F6FBFA
:1025100020211B48FFF719FD10211948FFF715FD71
:102520000020184908701849086008460068FEF73E
:10253000C1FB84B22146154800F07FFC01F0C2F8CF
:1025400008B100BFFEE70021114801F003FF114967
:1025500008600021104801F0FDFE104908600021CC
:102560000F4801F0F7FE0F49086001F0C7F808B105
:1025700000BFFEE710BD0000000C0140B8200020A5
:1025800000080140FC200020AC2000200004004096
:10259000C84E0008A8200020784E0008A020002087
:1025A000A04E0008A420002010B504460C48008866
:1025B000401C0B49088008460088A0420FD3102118
:1025C0000848FFF7C4FC06480088B0EB440F06D16A
:1025D00010210448FFF7B9FC00200149088010BD14
:1025E000F0200020000C014010B508210148FFF741
:1025F000AEFC10BD000C014010B502465318184641
:1026000010BD2DE9F041054605F12800FDF78BFED0
:10261000074667B1EC6A07E00121A01CFDF714FE34
:10262000064606B902E0A468002CF5D100E00024BB
:102630002046BDE8F0812DE9F04105460C46286BA7
:10264000A0B12E6B002701E0374676681EB1F07806
:10265000E1788842F8DB6660A7600EB1B46000E004
:10266000EC620FB17C6006E02C6304E00020606047
:10267000A060EC622C6305F12800FDF726FEBDE8A2
:10268000F0814A681AB1D1E901329A6001E08A68A2
:10269000C2628A681AB1D1E901235A6001E04A682E
:1026A0000263704770B5002100230F22C47804B381
:1026B000154C246804F4E064C4F5E064210AC1F117
:1026C0000403CA40447804FA03F184781440214397
:1026D00009010E4C0678A155047804F01F05012469
:1026E000AC4005786D11AD0005F1E025C5F800415D
:1026F00009E0047804F01F050124AC40044D06787D
:10270000761145F8264070BD0CED00E000E400E0D5
:1027100080E100E002490143024A11607047000075
:102720000000FA050CED00E008B54FF4C060FFF7BB
:10273000F1FF14208DF8000001208DF80100002029
:102740008DF8020001208DF803006846FFF7AAFF0C
:1027500013208DF8000001208DF801008DF8020093
:102760008DF803006846FFF79DFF08BD4FF0E0209D
:10277000006970470948007830B1002007490870A7
:102780004FF08060064908604FF0E020006940F09B
:1027900001004FF0E0210861704700000421002093
:1027A00004ED00E04FF0FF307047000010B5024626
:1027B0000B4612B94FF0FF3010BD0D480068B0FB5A
:1027C000F2F0411EB1F1807F02D34FF0FF30F3E70A
:1027D000FF240848C47206204FF0E0242061204600
:1027E00041610020A061044C207000BFE4E70000BC
:1027F0000821002018ED00E0042100202DE9F0411F
:1028000004466069A061D4E90001FEF77FF86061C9
:10281000D4E90501FEF77AF8E0616169206AFEF704
:1028200023F82062A16B206AFEF7E2FA01D2A06BC6
:102830002062A06B80F000452846216AFEF7D8FA96
:1028400003D2A06B80F000402062A1692069FEF7EE
:1028500063F80646216AE068FEF75EF8074661699C
:10286000A068FEF759F880463946FDF7FDFF05469A
:102870003146FDF7F9FFA062BDE8F08110B5029C7A
:102880008160C2600361846310BD000023E01248D0
:10289000016812480068FEF7A1FA03D80120104928
:1028A00008700CE00D480068FEF750FA044600225C
:1028B0000C4BFEF75FFA02D800200949087008485F
:1028C000007820B90121642000F046F803E00221DD
:1028D000642000F041F8DAE7BC200020F820002056
:1028E000C02000200080364029E00A210120FFF7A7
:1028F0004BFB80464046FEF7A1F904461049FEF71F
:102900000BF81049086008460068FEF71FFA0646F3
:102910000D4A0E4BFEF717F90446FEF743FA0C4931
:1029200008600C480078401C0A4908700846007886
:10293000322801DD33200870022000F0A5FED4E724
:102940003333533AF42000207B14AE47E17A1E4023
:10295000F8200020C12000202DE9F04104460D465A
:10296000012D02D0022D12D108E020213B48FFF7B3
:10297000EEFA10213948FFF7E8FA11E02021374834
:10298000FFF7E3FA10213548FFF7DFFA08E02021CE
:102990003248FFF7DAFA10213048FFF7D6FA00BFC5
:1029A00000BF372C2BD007DC6CB1282C18D02D2C75
:1029B0001BD0322C37D11DE03C2C25D0502C28D0F8
:1029C000642C30D12AE000202549086008460068C0
:1029D000FEF770F986B23146224800F02EFA39E04F
:1029E0002149224800F078FB34E02149214800F0D9
:1029F00073FB2FE02049214800F06EFB2AE02049BC
:102A0000204800F069FB25E01F49204800F064FBE6
:102A100020E01F491F4800F05FFB1BE01E491F48D4
:102A200000F05AFB16E0642C0FDA2046FEF706F998
:102A300007462046FEF702F980461949FDF79EFF3A
:102A40000646394600F048FB03E00021084600F046
:102A500043FB00BF00BFBDE8F0810000000801405B
:102A6000AC20002000040040000020420080CF4441
:102A7000000034420060EA44000048420000024581
:102A800000005C4200200F450000704200401C45E1
:102A90000000A042002050450000C84200008245CE
:102AA0000000C04101460020034A506820F4404025
:102AB00008435060704700000010024029B1064AE8
:102AC000D2690243044BDA6104E0034AD2698243CB
:102AD000014BDA61704700000010024029B1064A3C
:102AE00012690243044B1A6104E0034A12698243EB
:102AF000014B1A61704700000010024029B1064ADC
:102B000092690243044B9A6104E0034A926982434A
:102B1000014B9A61704700000010024029B1064A3B
:102B2000D2680243044BDA6004E0034AD26882436D
:102B3000014BDA60704700000010024008B5012127
:102B40000420FFF7DBFF4FF40070ADF800004820D1
:102B50008DF8030002208DF8020069460148FFF756
:102B600017F908BD0008014008B501210420FFF74E
:102B7000C5FF4FF40070ADF8000010208DF8030081
:102B800002208DF8020069460148FFF701F908BDEF
:102B90000008014070B50446E18904F10C00FDF71E
:102BA00041FCE189884201DA012500E00025284640
:102BB00070BD10B500F002F810BD00000CB500208B
:102BC000019000903348006840F48030314908603B
:102BD00000BF3048006800F4003000900198401CAD
:102BE0000190009818B90198B0F5A06FF1D129486B
:102BF000006800F4003010B10120009001E00020D6
:102C000000900098012843D12348006840F010004C
:102C1000214908600846006820F003000860084663
:102C2000006840F0020008601A484068194948608E
:102C30000846406848600846406840F48060486044
:102C40000846406820F47C1048600846406840F41C
:102C5000E81048600846006840F08070086000BFD7
:102C60000C48006800F000700028F9D0094840685E
:102C700020F00300074948600846406840F0020021
:102C8000486000BF0348406800F00C000828F9D1F4
:102C90000CBD0000001002400020024010B5134897
:102CA000006840F00100114908600846406810497A
:102CB00008400E494860084600680E4908400B4924
:102CC00008600846006820F48020086008464068D4
:102CD00020F4FE0048604FF41F008860FFF769FF92
:102CE0004FF000600449086010BD00000010024071
:102CF0000000FFF8FFFFF6FE08ED00E030B589B0F8
:102D000005460C4601210220FFF7D8FE01210920CB
:102D1000FFF7F4FE01211A48FFF7C6F80220ADF8CC
:102D2000200018208DF8230003208DF8220008A928
:102D30001448FFF72DF8ADF81850ADF814400020F6
:102D4000ADF81A00ADF8160005A90F4800F078F8A4
:102D50006020ADF804000120ADF806000020ADF8B9
:102D60000C0001A9084800F01DF80821064800F0F1
:102D700057F80121044800F009F809B030BD0000FF
:102D800000081A00000C01400004004021B1028834
:102D900042F00102028004E002884FF6FE731A40FE
:102DA0000280704770B5002200230024058C4EF687
:102DB000FF7635400584038C8488828B48F6FF7546
:102DC0002A404FF6FF452A400D884FF6FF7606EA67
:102DD00005252A434DF6FF752B400D8906EA05357A
:102DE0002B434D8806EA05352B430B4DA84202D0F4
:102DF0000A4DA84208D14BF6FF752C408D894FF63D
:102E0000FF7606EA85152C4384808283CD88A0F85E
:102E10004050038470BD0000002C0140003401408C
:102E20000A460021818B4FF2FF7319404FF6FF7362
:102E300003EA0223194381837047A0F840107047CA
:102E4000002202881D4B98420ED01D4B98420BD099
:102E5000B0F1804F08D01B4B984205D01A4B9842D6
:102E600002D01A4B984204D14FF68F731A404B8808
:102E70001A43174B984207D0164B984204D04FF68E
:102E8000FF431A40CB881A4302808B8883850B88C6
:102E900003850A4B98420BD0094B984208D00E4B41
:102EA000984205D00D4B984202D00D4B984201D16B
:102EB0000B7A03860123838270470000002C0140B7
:102EC000003401400004004000080040000C0040B5
:102ED0000010004000140040004001400044014048
:102EE000004801402DE9F04107460E46154605F021
:102EF000020080B905F0010030B1314607F1280029
:102F0000FDF7ABFB044615E0314607F12800FDF75D
:102F1000B7FB04460EE0BC6A05F0010018B104EAF4
:102F20000600B04205D105F0010018B904EA060018
:102F300000B900242046BDE8F081000030B502460B
:102F400000230D4C606C03E00469091B0346C06854
:102F500010B104698C42F7D911619360D06020B13F
:102F600004691569641B046182600BB1DA6001E0D9
:102F7000014C626430BD00001C210020C16811B109
:102F8000D0E902129160024AC168516470470000A2
:102F90001C21002008B51148008800F0080020B16D
:102FA0000E49091D0988C8B200BF40F225510B48DF
:102FB00000F027F880B140F22551084800F012F8DF
:102FC000064800F048F8C0B2009000230922694684
:102FD0000348006800F0FCFB08BD0000004400400E
:102FE000B420002010B50022002340F66A14A1424C
:102FF00000D100BF0A1201249440A3B2DC43048034
:1030000010BD70B50246002400230025002040F6C4
:103010006A16B14200D100BFC1F3421501F01F038F
:10302000012606FA03F3012D02D19689334006E00A
:10303000022D02D1168A334001E0968A33400C12E9
:10304000012606FA04F41688344013B10CB10120AD
:1030500000E0002070BD01468888C0F3080070477A
:1030600010B501210648FEF7E1FA40B10548008895
:10307000401C0449088001210148FEF7E3F910BD16
:10308000006400406C22002010B502210848FEF7C1
:10309000CDFA58B102210648FEF7D4F9054A0021BD
:1030A0000348FEF7E6FB0348FEF75CFC10BD00009A
:1030B000006400403822002002E008C8121F08C146
:1030C000002AFAD170477047002001E001C1121FA9
:1030D000002AFBD1704700002DE9F04704468946DD
:1030E000D948007832287DDDFFF7A6F8022000F0ED
:1030F000CBFAD6480068FDF7DDFD85B22946D448F5
:10310000FFF79BFE022000F0BFFA4FF08041D1484C
:103110000068FDF763FE6ED2CF480078401CCE49B0
:10312000087008460078C8281ADDCC494868FDF7C1
:103130007CFD05462146FDF751FE11D2D220C6493D
:103140000870C2480068FDF701FE0746C44AC54B37
:10315000FDF752FC0546FDF725FEBC4908601DE061
:10316000BD480078C82819DDBC494868FDF75DFDF9
:1031700005462146FDF73CFE10D2D220B649087024
:10318000B2480068FDF7E2FD0746B54AB54BFDF7CA
:1031900033FC0546FDF706FEAC4908600021AB484C
:1031A0000068FDF71BFE03D80020A849086012E064
:1031B000AD490988481EFDF738FD0546A34801685A
:1031C0002846FDF70BFE06D8A7490988481EFDF7DB
:1031D0002CFD9E4908609D480068FDF76BFD85B297
:1031E000294601E02EE106E09948FFF726FE0A2075
:1031F000FFF7DAF926E19D4996480068FDF7EEFDF4
:1032000061D24FF0804193480068FDF7F1FD5AD23A
:1032100092494868FDF709FD05462146FDF7DEFDA8
:103220000FD28A480068FDF791FD05464FF0333212
:103230008F4BFDF7E1FB0746FDF7B4FD83490860BE
:1032400017E086494868FDF7F0FC05462146FDF782
:10325000CFFD0ED27D480068FDF778FD05464FF0A2
:103260003332834BFDF769FC0746FDF79BFD774939
:103270000860002175480068FDF7B0FD03D8002004
:103280007249086012E078490988481EFDF7CDFCB4
:1032900005466E4801682846FDF7A0FD06D872492C
:1032A0000988481EFDF7C1FC684908606748006846
:1032B000FDF700FD85B229466548FFF7BEFD1420E5
:1032C000FFF772F9BEE06B4962480068FDF786FDC2
:1032D00073D266495F480068FDF78AFD6DD25F4989
:1032E000098801F51670FDF7A0FC064662494846BC
:1032F000FDF712FB07463146FDF740FB05465E49E8
:10330000FDF70AFB044655494868FDF78EFC054663
:103310002146FDF763FD0ED24C480068FDF716FD0F
:1033200005460022554BFDF767FB0746FDF73AFDC2
:103330004649086016E049494868FDF776FC0546AD
:103340002146FDF755FD0DD240480068FDF7FEFC13
:1033500005460022494BFDF7F0FB0746FDF722FD2D
:103360003A490860002139480068FDF737FD03D865
:1033700000203649086012E03B490988481EFDF7E5
:1033800054FC0546314801682846FDF727FD06D85C
:1033900035490988481EFDF748FC2C49086028205B
:1033A000FFF702F929480068FDF784FC85B2294639
:1033B0002748FFF742FD45E0FFE72849098801F566
:1033C0001670FDF732FC06462B494846FDF7A4FA75
:1033D00007463146FDF7D2FA05462749FDF79CFA24
:1033E00004461E490988A1F54870FDF71EFC2449D2
:1033F0000860214922480068FDF7C0FA20490860AA
:10340000204801681E480068FDF7F2FC03D21D4801
:1034100000681B4908602046FDF733FC0546184844
:1034200001682846FEF780FB17490A480068FDF747
:10343000D5FC03D26420FFF7B7F803E0102113484E
:10344000FEF785FDBDE8F087C1200020AC200020FC
:1034500000040040F8200020C2200020602200204C
:103460009A9999999999B93FB82000200000A040F5
:103470003333D33F0000204100007A440000E03F96
:10348000C4200020C82000200000A841000C0140FA
:10349000002107E042F6E06100BF0A1EA1F101032E
:1034A00099B2FAD1021EA0F1010398B2F2D170478D
:1034B0002DE9F05F05460F4690469A4600BF00BFD3
:1034C0002E4636B13078FA2803D117B1BAF1000F81
:1034D00008D06FF003013046FEF738FC6FF00300B0
:1034E000BDE8F09F3046FFF78CF80446CCB104F1FC
:1034F0000C013846726AFDF793F9B8F1000F02D05B
:10350000E07888F80000E66000BF00BFA346584698
:1035100000F0E8FB39463046FEF724FC4FF0000986
:1035200005E039463046FEF719FC6FF002094846BF
:10353000D6E72DE9F05F06460F4691469A4600BF52
:1035400000BF354635B12878FA2803D117B1BAF152
:10355000000F08D06FF003012846FEF7F7FB6FF06D
:103560000300BDE8F09F05F10C0000F05EFA044690
:10357000D4B1394604F10C006A6AFDF751F9F9201B
:1035800020700020A07084F803906760A56000BFE1
:1035900000BFA346584600F0A5FB39462846FEF773
:1035A000D9FB4FF0000805E039462846FEF7D5FB69
:1035B0006FF002084046D4E72DE9F041054600BF10
:1035C00000BF2C4614B12078F62808D06FF0030114
:1035D0002046FEF7CDFB6FF00300BDE8F0812046EA
:1035E000FFF7D8FA58B100BF00BF2746384600F0B1
:1035F00079FBA1892046FEF7BDFB002606E06FF0AF
:1036000010012046FEF7B4FB6FF002063046E4E7F7
:1036100070B50B48B0F854605630FCF7D9FF58B17C
:10362000314607485A30FCF7B0FF05460448C06DE4
:1036300050F8254000BF00E00024204670BD000087
:103640001C2100202DE9F04106460C48B0F85470CA
:1036500039465630FCF78AFFB8420BDA394607483C
:103660005830FCF792FF04460448C06D40F82460CF
:10367000012500E000252846BDE8F0811C2100203E
:10368000FEF72CFF00BFFEE770B505462846FEF7A3
:103690004BFBFEF7FAFE10B9FEF7BBFE30B16FF040
:1036A0000500FEF743FB6FF0050406E000BF284667
:1036B000DFF80CC000DF044600BF204670BD0000EC
:1036C000D943000810B500F0C5F8FEF733FBFEF74C
:1036D000E4FE10B9FEF7A9FE30B16FF00500FEF769
:1036E00028FB6FF0050405E000BFDFF80CC000DF29
:1036F000044600BF204610BD0544000810B5FEF783
:103700001BFBFEF7CAFE10B9FEF78FFE30B16FF05B
:103710000500FEF70EFB6FF0050405E000BFDFF8C3
:103720000CC000DF044600BF204610BD294600083B
:103730002DE9F04180460D4616461F463B4632466F
:1037400029464046FEF703FBFEF7AFFE10B9FEF731
:1037500078FE38B13B46324629464046FFF7A8FE80
:10376000044609E000BF3B46324629464046DFF8A2
:1037700010C000DF044600BF2046BDE8F081000015
:10378000014700082DE9F04107460D46164632462E
:1037900029463846FEF7E0FAFEF787FE10B9FEF735
:1037A00050FE30B16FF005010020FEF7CFFA002483
:1037B00008E000BF324629463846DFF810C000DF77
:1037C000044600BF2046BDE8F081000039480008EB
:1037D0002DE9F04180460D4616461F463B463246CF
:1037E00029464046FEF7BBFAFEF75FFE10B9FEF72A
:1037F00028FE38B13B46324629464046FFF799FE3F
:10380000044609E000BF3B46324629464046DFF801
:1038100010C000DF044600BF2046BDE8F081000074
:10382000CD490008062809D2DFE800F008030405A6
:10383000060704E003E002E001E000E000BF00BF93
:1038400000BFFEE700BFFEE70148007A70470000B6
:103850001C21002070472DE9F84F04468946904608
:103860002CB1B9F1000F02D028F0030040B10023C1
:10387000424649462046FEF761FA0020BDE8F88F2F
:1038800009F10807F81D20F0070708212046FEF778
:10389000B3FE054600BF2868A0EB050A686820F063
:1038A0000300AAEB000ABA4500D30BE02D68286894
:1038B0000028F0D10023424649462046FEF73EFA52
:1038C0000020DBE700BF00BF00BF201D6168394456
:1038D000616000BF00BF2068A0F1080B5946204678
:1038E000FEF78AFE064600BF00BF6168706881422D
:1038F00003D900BF00BF60687060686840B947EADC
:103900000800686008212846FEF776FE009011E066
:10391000686820F003012846FEF76EFE0646286818
:10392000306047EA080070602E6008213046FEF7DC
:1039300063FE0090424649462046009BFEF7FEF992
:1039400000989BE72DE9F04105460F4605B13FB9C8
:10395000002239462846FEF7F5F90020BDE8F0813F
:1039600000213846FEF748FE8046A8F108080026E8
:1039700008212846FEF740FE044609E02646246852
:1039800034B9002239462846FEF7DCF90020E5E785
:103990004445F3D100BF00BF281D6968626822F06A
:1039A0000302891A696016B90020606001E020688E
:1039B0003060012239462846FEF7C4F90120CDE7E0
:1039C0002DE9F04104460D463CB104F0070020B952
:1039D00005F0070008B9182D07D200222946204615
:1039E000FEF7B1F90020BDE8F08100BF00BF274617
:1039F0003D601020786008212046FEF7FDFD064658
:103A0000A5F108012046FEF7F7FD3060002031687F
:103A1000086010203168486000207060012229464B
:103A20002046FEF790F90120DDE770B504462CB979
:103A300000210846FEF783F9002070BD04F1140050
:103A4000FCF7E7FB054615B1201DFCF79AFB29465C
:103A50002046FEF774F92846EFE770B504460D4698
:103A60002CB1E068A84202D82069A84208D86FF0BB
:103A7000030229462046FEF763F96FF0030070BD8C
:103A8000294604F11400FCF7D1FB201DFCF79EFB36
:103A9000002229462046FEF753F90020EFE72DE9E2
:103AA000F04704460F4690461E4624B11FB1B8F1B8
:103AB000000F00D016B90020BDE8F0872760002075
:103AC0006060C4F80880E660666107FB08602061FA
:103AD0003346424639462046FEF733F9354604E080
:103AE00005EB0809C5F800904D46781E071EF7D172
:103AF00028600120E0E72DE9F05F0546A87800285E
:103B00003CD0EC6829462046FEF7BBFD002028701B
:103B1000294604F10C00FFF7A0FFA06800286CD034
:103B200004F10C00FFF781FF0646002E65D000BFB0
:103B300000BFA346584600F053FA804600221146C3
:103B4000404600F029FB404600F0A8FA0746D7F8A7
:103B50000890494606F10C00626AFCF761FEF92004
:103B600030700020B070387BF07031462046FEF790
:103B700062FD49462046FEF7EEF83EE0AC68D5F817
:103B80000490A06880B3A068407883282DD149466E
:103B90002046FEF7E0F800BF00BFA346584600F0FD
:103BA0001FFA804600221146404600F0F5FA4046D2
:103BB00000F074FA0746D7F808A005F10C0150464A
:103BC000626AFCF72DFEF86810B1E878F9680870B1
:103BD00051462046FEF7C6F800202870294604F119
:103BE0000C00FFF73AFF08E0FFE749462046FEF7E2
:103BF000B2F829462046FEF71EFDBDE8F09F2DE9EC
:103C0000F0410646344625E06769E07800F0080098
:103C1000F8B10020207600212046FEF7A6F8A06823
:103C2000B8B100BF00BFA046404600F0D9F9054634
:103C300000221146284600F0AFFAE560E86A6061AC
:103C400000202061EC620120207601212046FEF751
:103C50008BF83C46002CD7D1BDE8F08170B500BF91
:103C6000FFF7D6FC044604B934E02078F13809287F
:103C70002ED2DFE800F0052D0D2D2D151D2D250070
:103C800000BF00BF25461648016E2846884720E041
:103C900000BF00BF25461248416E2846884718E0FD
:103CA00000BF00BF25460E48816E2846884710E0B9
:103CB00000BF00BF25460A48C16E2846884708E075
:103CC00000BF00BF25460648016F2846884700E030
:103CD00000BFC5E700BF002000F014F970BD000070
:103CE0001C21002010B504462046FFF7ABFC68B14C
:103CF0000948407A30B900BF4FF08050074908604A
:103D000000BF07E001210448817203E02146022040
:103D1000FFF788FD10BD00001C21002004ED00E02D
:103D20002DE9F04104460120607094F920700B48A1
:103D300000BF0646B56801E02E46AD681DB195F995
:103D40002000B842F8DCE660A560B46005B1EC6024
:103D50002046FEF719F8BDE8F08100003821002068
:103D600010B502460B465C1C8CB90021154C206B2B
:103D700001E0014600690028FBD1D36151610024B4
:103D8000146109B10A611BE00E4C226318E00021A6
:103D90000C4CE06A03E0C4691B1B0146006910B1CA
:103DA000C4699C42F7D9D3615161106109B10A61BC
:103DB00001E0044CE26218B1C469E41AC4614261D2
:103DC00010BD00001C210020C169491C81B9016996
:103DD00011B1D0E904215161416929B1D0E904123E
:103DE00011610021416119E00D4902690A6315E082
:103DF000016941B10169C969C26911440269D161AE
:103E0000D0E904215161416929B1D0E9041211615D
:103E10000021416102E002490269CA627047000064
:103E20001C21002070B53648C46A04B970BDE06931
:103E3000401EE061E069002860D100BF607863281F
:103E400026D008DC13280DD033280FD0432811D0FA
:103E5000532839D115E0732821D0832826D0932800
:103E600032D12AE02046FDF760FF2EE02046FDF724
:103E700088FF2AE0204600F0E3F80546FDF758FFEA
:103E800023E0204600F0DCF80546FDF76CFF1CE05F
:103E9000204600F0D5F80546FDF768FF15E02046FE
:103EA00000F0CEF80546FDF74FFF0EE0204600F08B
:103EB000C7F80546FDF74DFF07E0204600F0C0F8C3
:103EC0000546FDF74EFF00E000BF00BF204600F0B2
:103ED000E5F8056829462046FDF758FF204600F022
:103EE000A2F8204600F0CEF8246914B1E069002859
:103EF000A4D00CB1002060610148C46200BF95E706
:103F00001C2100202DE9F0410546FFF79DFC0746E6
:103F100000F060F80646A5B91448446A022F22D181
:103F20000CB394F9200096F9201088421BDD20463E
:103F300000F079F83046FFF7F3FE204600F0F8F87D
:103F400011E0022F0CD195F9200096F9201088423B
:103F500006DD3046FFF7E4FE284600F0E9F802E00F
:103F6000284600F08FF8BDE8F08100001C210020F9
:103F700010B50446002060702070A07800F00200A8
:103F800078B1A07800F0100030B1114A216BD2F85E
:103F90008400FFF762FD04E00D4A216B506FFFF7CC
:103FA000D1FCA07800F0010080B10948D0F8880069
:103FB00030B10749D1F888002146FFF74EFD05E0F2
:103FC0000349D1F880002146FFF7BCFC10BD00007A
:103FD0001C21002001484069704700001C2100207E
:103FE0000146886882688A6082681AB100BF00BF93
:103FF0008268D1600022C260704730B5024691F9F4
:10400000204000BF00BF1346986801E00346806867
:1040100018B190F92050A542F8DACB608860996019
:1040200000B1C16030BDC16849B1D0E902129160F0
:10403000816811B1D0E90221D1600021C1607047CF
:104040000146084600E0C0680278F12AFBD07047BC
:1040500070B504466078332813D194F823202046A5
:10406000616AFEF73FFF05465DB100222946204602
:1040700000F092F894F8231023462A46606AFDF770
:104080007FFE70BD10B504460120607021460248D5
:10409000FFF7B3FF10BD000038210020014691F862
:1040A000222020238A6B981870470000014948613C
:1040B000704700001C21002010B5FFF78BFF04465D
:1040C00064B1216BA06B884204D9206B006804495D
:1040D000884203D021460120FFF7A4FB10BD000059
:1040E000A52E5AE270B501250D480021826D0D48BC
:1040F00000F086FD044600BF0B4884620848406E0D
:1041000060B107480021C26D084800F079FD0446FF
:1041100000BF05488464806C00B90025284670BD46
:104120008C4F0008453800081C210020714200080F
:1041300010B504460220607003488461FFF7BCFF9D
:104140002046FDF722FE10BD1C21002070B504465C
:104150000E46FFF779FB022801D0002070BD0D4804
:10416000406A08B90020F9E7FFF734FF05463146F9
:104170002846FDF700FE6C7031462846FFF7F0FD3B
:1041800004481C30FFF72CFF05462846FFF7D0FFF8
:104190000120E3E71C2100202DE9F04106460C46F2
:1041A000154621463046FDF7F1FD3046FFF776FF14
:1041B00007463C603046FFF707FE1DB13046FFF76B
:1041C000A1FE02E03046FFF75DFFBDE8F081000090
:1041D00010B5FEF7CBFA2548C068401C2349C860DB
:1041E0000846006D08B1086D8047FFF71BFE0020F0
:1041F000FFF788FE1D48006C002835D01B48816BF6
:104200008069814205D0194881698163016CC1636D
:104210002AE01648C06B18B11448C16B491EC1632F
:104220001248C06B00BB00BF1048007A02281BD1A7
:104230000E48446AC4B194F92010806B90F92000B4
:10424000814211D12046FFF7EEFE0849886BFFF747
:1042500019FF0649886BFDF797FD2046FFF768FFB9
:1042600002488463016CC16310BD00001C21002062
:104270001CB510490A6E486E0821FFF783FA0546FF
:1042800000BF0D48C5640D49016500BF0A494FF0E4
:10429000FF330022C86C6946FFF74AFA0446002C37
:1042A000F4D1DDE90001FDF772FDDDE9001088477A
:1042B000ECE700008C4F00081C210020C1420008E0
:1042C00070B51548446C04B970BD2069401E20616A
:1042D0001CE02046FEF752FE0F4900231A46C86C28
:1042E00004F11801FFF774FA05461DB121460320B9
:1042F000FFF798FAE078012804D120466169FEF7BB
:104300001DFE01E0012060700348446C14B1206977
:104310000028DED000BFD7E71C21002070B505467D
:104320002846FDF726FDFEF7C8F810B9FEF795F808
:1043300020B12846FFF740F9044606E000BF2846B2
:10434000DFF80CC000DF044600BF204670BD00004F
:10435000F54A000870B504460D460CB9002070BD42
:10436000221D2946206800F011F8F8E7FDF707FD47
:1043700000BFDFF814C000DF00BF4FF0FF310020A6
:10438000FDF7FCFC00BFFEE7714B00082DE9F04192
:1043900007460D461646324629463846FDF7F3FCD9
:1043A000FEF793F810B9FEF764F830B16FF005012D
:1043B0000020FDF7E3FC002408E000BF3246294658
:1043C0003846DFF810C000DF044600BF2046BDE8D5
:1043D000F0810000014C000870B5044674B121461C
:1043E0001320FFF7B3FE18B12046FDF7A0FC05E04F
:1043F00000BF034840690546FDF797FC002070BDEB
:104400001C21002010B58648007A012803D1FDF751
:1044100092FC002010BD8248007A30B14FF0FF308E
:10442000FDF787FC4FF0FF30F4E79C217C48083013
:10443000FCF70FFA7B48C1687948C1657948008A62
:104440007749A1F854007748816875480164754A36
:10445000116BD06AFFF7B4FA20B17248C16A704894
:10446000C0F880106F4A91695069FFF7A9FA20B12E
:104470006C4840696A49486704E06948D0F88000A0
:1044800067494867674A116AD069FFF799FA20B10E
:104490006448C1696248816703E06148D0F88010D0
:1044A0008167604A916A506AFFF78AFA20B15D48D5
:1044B000416A5B48C16703E05948D0F88010C16782
:1044C0005848406B88B1574C646BE368554C646B3B
:1044D000A268544C646B2168524C606BFFF7DFFAA2
:1044E0002046406B4E49C1F884004E48806B88B12D
:1044F0004C4CA46BE3684B4CA46BA268494CA46B76
:104500002168484CA06BFFF7CAFA2046816B4448EB
:10451000C0F888104348C06B88B1424CE46BE36834
:10452000404CE46BA2683F4CE46B21683D4CE06B6F
:10453000FFF7B5FA2046C16B3948C0F88C103948EE
:10454000006C88B1374C246CE368364C246CA2684C
:10455000344C246C2168334C206CFFF7A0FA2046C1
:10456000016C2F48C0F890102E48406C88B12D4C3B
:10457000646CE3682B4C646CA2682A4C646C216800
:10458000284C606CFFF78BFA2046416C2448C0F839
:1045900094102448806C88B1224CA46CE368214CB0
:1045A000A46CA2681F4CA46C21681E4CA06CFFF781
:1045B00076FA2046816C1A48C0F898101948C06CE9
:1045C00088B1184CE46CE368164CE46CA268154C96
:1045D000E46C2168134CE06CFFF761FA2046C16C73
:1045E0000F48C0F89C100F48006D88B10D4C246D29
:1045F000E3680C4C246DA2680A4C246D2168094CB8
:10460000206DFFF74CFA2046016D0548C0F8A01058
:10461000012003490872FDF78EFB0020FAE6000036
:104620001C2100208C4F000810B53148007A012869
:1046300006D06FF00600FDF77CFB4FF0FF3010BD99
:10464000FFF750FD30B94FF0FF30FDF772FB4FF030
:10465000FF30F4E700BFFF23264A9372927A62F09C
:10466000FF02D243B2FA82F2C2F1200100BF214A16
:104670000C3A1268C2F302221046884200D3411C51
:10468000FE228A40D3B21B4A183AD37700BF1A4998
:1046900048681A49FEF78AF830B14FF0FF30FDF74D
:1046A00048FB4FF0FF30CAE7FEF77CF8104908617D
:1046B000FEF760F80E481C30FFF792FC04462046D7
:1046C000FFF736FD0C48007800F0010020B1022011
:1046D00080F3148800BF04E0032080F3148800BF37
:1046E00000BF022002490872FDF727FB0020A6E761
:1046F0001C21002018ED00E08C4F0008E5070008A1
:104700002DE9FF5F0746884691469A4600BF00BFE5
:104710003C462CB12078FA2802D1B8F1000F09D11B
:104720006FF003012046FDF711FB6FF0030004B0AA
:10473000BDE8F09F2046FDF764FF0546002D4BD0F5
:1047400029462046FDF79DFF05F10C014046626AAF
:10475000FCF766F8B9F1000F02D0E87889F800009C
:1047600041462046FDF7FEFA00202870294604F154
:104770000C00FFF772F9A06858B304F10C00FFF7C2
:1047800054F905462DB300BF00BF20460194FFF742
:1047900027FC0390012200210398FFF7FDFC0398FA
:1047A000FFF77CFC0646B0680290626A05F10C00D7
:1047B0000299FCF735F8F92028700020A870307BAA
:1047C000E87029462046FDF736FF20460299FDF79E
:1047D000C2FA4FF0000B2BE0BAF1000F22D0524684
:1047E00041462046FDF7B4FA51468320FFF7AEFC60
:1047F00090B100BF0F484069019000BF009420466F
:104800000199FFF7FAFB00BFEFF309800646C6F8EF
:104810000880C6F80C9002E02046FDF79AFA6FF087
:10482000010B05E041462046FDF798FA6FF0020BB8
:1048300058467CE71C2100202DE9FC5F074689468D
:10484000154617B1B9F1000F07D16FF00301002031
:10485000FDF77CFA0020BDE8FC9F09F1030020F081
:10486000030000F10C0AB7FA87F0BAFA8AF108449B
:10487000202806D26FF003010020FDF767FA002020
:10488000E9E707FB0AF00090A5B3D5F800B0AC68E3
:104890002E696869019064B104F0030010B9E868FA
:1048A00034280FD26FF008010020FDF74FFA0020E6
:1048B000D1E7E86830B16FF008010020FDF746FA53
:1048C0000020C8E76EB106F0030018B9DDE900105A
:1048D000884214D26FF009010020FDF737FA00205A
:1048E000B9E7019858B16FF009010020FDF72EFAE1
:1048F0000020B0E7FFE74FF0000B00240026ACB922
:104900003048D0F8A00030B12E49D1F8A000FFF710
:104910008CF8044607E02B490122D1F880003421AD
:10492000FEF799FF04464FF0010801E04FF0000840
:1049300024B31EBB23490022C86F0099FEF78BFFEA
:104940000646AEB908F0010080B11E48D0F8A000BC
:1049500030B11C49D1F8A0002146FFF77EF805E0F0
:104960001849D1F880002146FEF7ECFF002403E04F
:1049700030460099FBF76DFF48F00208DCB1FA20E1
:10498000207084F80280C4F804B00020A060C4F84D
:104990002490A062E062206333465246394604F117
:1049A0000C00FFF77CF8084906480167204661685B
:1049B000FDF7CBF904E06FF004010020FDF7C6F924
:1049C000204648E71C210020F73A00082DE9FF5F48
:1049D00007468B4691469A4600BF00BF3C462CB125
:1049E0002078FA2802D1BBF1000F09D16FF0030142
:1049F0002046FDF7ABF96FF0030004B0BDE8F09F6F
:104A0000A06850B3A0684078832826D15946204634
:104A1000FDF7A1F900BF00BF20460194FFF7E0FABF
:104A20000390012200210398FFF7B6FB0398FFF7DC
:104A300035FB0646B06802905946626A0298FBF759
:104A4000EFFEF06810B1F06880F8009020460299FF
:104A5000FDF788F94FF0000848E004F10C00FEF77C
:104A6000E4FF0546B5B1594605F10C00626AFBF753
:104A7000D7FEF92028700020A87085F803902946F9
:104A80002046FDF7D8FD59462046FDF764F94FF062
:104A900000082BE0BAF1000F22D0524659462046BA
:104AA000FDF75EF951469320FFF750FB90B100BF30
:104AB0000F484069019000BF009420460199FFF71C
:104AC0009CFA00BFEFF309800646C6F808B0C6F8A6
:104AD0000C9002E02046FDF744F96FF0010805E074
:104AE00059462046FDF739F96FF00208404684E741
:104AF0001C2100202DE9F041054600BF00BF2C46D7
:104B000014B12078F62808D06FF003012046FDF795
:104B10002FF96FF00300BDE8F081A068A8B1A1896A
:104B20002046FDF727F900BF00BFA0464046FFF72B
:104B300057FA0746012200213846FFF72DFBA189CD
:104B40002046FDF714F9002610E02046FEF722F873
:104B500028B1A1892046FDF70DF9002606E06FF087
:104B600010012046FDF704F96FF002063046D2E747
:104B700070B5FEF769FE022802D12048406A00B9EC
:104B800070BDFFF727FA0446E06AFFF738F8A0691E
:104B900038B100221146A069FFF7FEFAA069FDF7BF
:104BA000F1F800BFEFF30980A06314481C30FFF751
:104BB00017FA0546FFF7BCFA0020FFF777FAE0780E
:104BC00000F0010008B1A06918B12046FFF7D0F944
:104BD0000EE0042060700020E0600848406BA06098
:104BE0000648406B10B10548406BC46003484463FD
:104BF0002046FDF7C2F800BFC2E700001C210020DC
:104C00002DE9F74F82B09046029840B96FF003014A
:104C10000020FDF7B3F8002005B0BDE8F08FB8F133
:104C2000000F45D0D8F800000090D8F8040001909B
:104C3000D8F80840D8F81050D8F81460D8F8189070
:104C40006CB104F0030018B9D8F80C00442810D255
:104C50006FF008010020FDF791F80020DCE7D8F89C
:104C60000C0030B16FF008010020FDF787F800203C
:104C7000D2E755B105F0070000B936B96FF00A0167
:104C80000020FDF77BF80020C6E7B9F1000F02D144
:104C90004FF0180914E0B9F1010F02DBB9F1380F38
:104CA0000EDD6FF00B010020FDF768F80020B3E780
:104CB0000020009001900024002500264FF01809E4
:104CC0005EB106F0070008B9482E06D26FF00A015F
:104CD0000020FDF753F800209EE7ACB96148D0F8FA
:104CE000880030B15F49D1F88800FEF79EFE044687
:104CF00007E05C490122D1F880004421FEF7ABFDBA
:104D000004464FF0010A01E04FF0000A7CB375BB86
:104D1000BEB95548466D5348D0F8840048B1514952
:104D2000D1F88400FEF781FE05468DB14AF0100AE5
:104D30000EE04C490022486F3146FEF78CFD0546D7
:104D400006E048490022486F3146FEF784FD0546DB
:104D5000ADB90AF0010088B14248D0F8880038B1F6
:104D60004049D1F888002146FEF777FE06E008E0CA
:104D70003C49D1F880002146FEF7E4FD00244AF0CA
:104D8000020A002C63D0F12020700120607084F8AA
:104D900002A00198E070009860600020A060E060D0
:104DA00020616061A061E0614FFA89F084F8200021
:104DB0004FFA89F084F82100FD2084F822000020B9
:104DC00084F823006062A062E06225636663A8192C
:104DD0004038A0630298E0632F4624483D4638607F
:104DE0002148007800F0040060B11120C0EB960B60
:104DF00005E03F1D4FF0CC303860ABF1010BBBF14B
:104E0000000FF6D1A76B4FF0000B04E0002047F82D
:104E10002B000BF1010BBBF10D0FF7D11448786398
:104E20000298B863104A127802F00100029A02F068
:104E300001014FF08072FA63039838620D48094906
:104E4000086620466268E16BFCF796FF04E06FF0AD
:104E500004010020FCF792FF14B12046FFF752F83E
:104E60002046D9E61C2100208C4F0008A52E5AE2CE
:104E70006D43000851400008A1190008000000001F
:104E8000000000004817002044000000A018002087
:104E900000020000190000000000000000000000F7
:104EA0008D28000800000000000000008C17002082
:104EB00044000000A01A00200002000019000000B9
:104EC0000000000000000000E928000800000000C9
:104ED00000000000D017002044000000A01C0020AB
:104EE00000020000190000000000000000000000A7
:104EF0000000000000000000381700201000000033
:104F000064000000000000000000000040100020CD
:104F100034000000A810002040060000000000003F
:104F2000000000001418002044000000A01E002013
:104F3000000100000100000000000000000000006F
:104F4000000000000000000058180020440000008D
:104F5000A01F002000010000280000000000000049
:104F6000000000000000000000000000741000209D
:104F700034000000E816002050000000000000008F
:104F80005254582056352E352E30000003000000B4
:104F9000E8030000050000000010002010000000E1
:104FA0000000000000000000000000000000000001
:104FB00000000000000000000000002000100000C1
:104FC00000000000000000000000000000000000E1
:104FD00000000000000000000000000000000000D1
:104FE000000100001C4F0008404F0008644F0008FB
:104FF000040000001450000800000020C021000040
:10500000B40F000888500008C0210020C004000030
:10501000C830000801FF01FF01FF01FF01FF01FF90
:1050200001FF01FF01FF01FF01FF01FF01FF01FF80
:1050300001FF01FF01FF01FF01FF01FF01FF01FF70
:1050400001FF01FF01FF01FF01FF01FF01FF01FF60
:1050500001FF01FF01F953A005934041956666BA2F
:1050600041796F12033A0742B23893FA443201028F
:105070001A0694A24A042B010203040607080980B9
:085080004F069D08D0B3FB02AE
:04000005080000ED02
:00000001FF
