:020000040800F2
:10000000380A002031020008430F0008C70A000820
:10001000410F0008E90700088519000800000000EA
:100020000000000000000000000000004302000883
:100030008509000800000000470200084902000886
:100040004B0200084B0200084B0200084B0200085C
:100050004B0200084B0200084B0200084B0200084C
:100060004B0200084B0200084B0200084B0200083C
:100070004B0200084B0200084B0200084B0200082C
:100080004B0200084B0200084B0200084B0200081C
:100090004B0200084B0200084B0200084B0200080C
:1000A0004B020008391200084B0200084B020008FE
:1000B0004B0200084B0200084B0200084B020008EC
:1000C0004B0200084B0200084B0200084B020008DC
:1000D0004B0200084B0200084B020008D117000831
:1000E0004B0200084B0200084B0200084B020008BC
:1000F0004B0200084B0200084B0200084B020008AC
:100100004B0200084B0200084B0200084B0200089B
:100110004B0200084B0200084B0200084B0200088B
:100120004B0200084B0200084B0200084B0200087B
:100130004B0200084B0200084B0200084B0200086B
:100140004B0200084B0200084B0200084B0200085B
:100150004B0200084B0200084B0200084B0200084B
:100160004B0200084B0200084B0200084B0200083B
:100170004B0200084B0200084B0200084B0200082B
:100180004B0200084B02000800F002F800F041F8B2
:100190000AA090E8000C82448344AAF10107DA45E2
:1001A00001D100F036F8AFF2090EBAE80F0013F0F3
:1001B000010F18BFFB1A43F0010318471C5E000033
:1001C0003C5E0000103A24BF78C878C1FAD85207C4
:1001D00024BF30C830C144BF04680C6070470000C1
:1001E0000023002400250026103A28BF78C1FBD840
:1001F000520728BF30C148BF0B607047642900F028
:100200006980002070471FB505F037F81FBD10B595
:1002100010BD00F0BBFA1146FFF7F5FF03F06AFAD4
:1002200000F0D9FA03B4FFF7F2FF03BC01F0CFFEF0
:100230000948804709480047FEE7FEE7FEE7FEE77A
:10024000FEE7FEE7FEE7FEE7FEE7FEE704480549B6
:10025000054A064B70470000751100088901000827
:1002600038010020380A0020380500203805002019
:10027000704710B54C1084EA530404D54042C1F1D4
:10028000000138BF491E1B4204D55242C3F100038E
:1002900038BF5B1E00F02EF914F0804F04D04042AE
:1002A000C1F1000138BF491E14F0004F04D0524282
:1002B000C3F1000338BF5B1E10BD00000FB404493A
:1002C00010B503AA029800F0E5F910BC5DF814FB24
:1002D000640000202DE9F0410646002410687529CD
:1002E000314616A510D0AFF30080002802DA404254
:1002F00013A507E031688A0701D512A502E0490776
:1003000004D511A5012401E0AFF3008000210A22E9
:1003100006F1240709E0B0FBF2FCB0FBF2F302FBAC
:100320001C00303078541846491C0028F3D123466D
:100330002A463046BDE8F04100F053B90000000005
:100340002D0000002B000000200000002DE9F05FD0
:10035000894604464FF0000ADFF824B1FB44C0F898
:1003600020A02046E168884700287DD0252806D0B7
:10037000D4E901219047206A401C2062F1E7002562
:100380005F462046E16888472028064607DB312E75
:1003900005D2B81910F8200C08B10543F1E7A807F9
:1003A00001D525F00405C4F81CA00027C4F818A046
:1003B0002A2E09D0304601F003FE38B304EB87083B
:1003C000303EC8F8186019E059F8041B204604EBC9
:1003D00087029161E1688847012F064618D1E069DC
:1003E000002820DA25F020051DE0D8F8180000EBE1
:1003F000800006EB40003038C8F818002046E1685D
:100400008847064601F0DCFD0028EED1012F0AD016
:100410002E2E08D12046E16888477F1C0646022F11
:1004200045F02005C4DBA069002803DA404245F00E
:100430000105A061E80701D025F01005A6B1A6F1DD
:100440004100192802D8203645F400654A46314655
:10045000204625604D46FFF7D1FE60B1012807D048
:10046000ED1D25F0070000E007E000F1080978E73E
:1004700005F1040975E730467AE7206ABDE8F09F88
:10048000765B000040EA010310B59B070FD1042AF8
:100490000DD310C808C9121F9C42F8D020BA19BA4F
:1004A000884201D9012010BD4FF0FF3010BD1AB1B4
:1004B000D30703D0521C07E0002010BD10F8013B09
:1004C00011F8014B1B1B07D110F8013B11F8014B30
:1004D0001B1B01D1921EF1D1184610BD02F0FF0383
:1004E00043EA032242EA024200F0E8B8704770474C
:1004F0007047704753EA020C00F069802DE9F04B19
:100500004FF00006002B1FBFB3FA83F503FA05F482
:1005100024FA05F65E4012BF1643B2FA82F502FADB
:1005200005F4C5F120051EBF22FA05FC44EA0C04BF
:10053000203556EA044C4FEA144418BF641C4FF0AF
:1005400000084FF00009904271EB030C39D30029E9
:1005500019BFB1FA81F701FA07F6B0FA80F700FA8D
:1005600007F6C7F120071EBF20FA07FC46EA0C0673
:100570002037B6FBF4FCA7EB0507103F07F01F0B75
:10058000CBF120060CFA0BFB2CFA06F644BFB3465F
:100590000026202FA4BF5E464FF0000B5BEA060C3E
:1005A00008BF4FF0010B19EB0B09ABFB027C48EBCA
:1005B0000608C01B06FB02CC0BFB03CC71EB0C0145
:1005C000C1E70B46024641464846BDE8F08B13B5ED
:1005D0004FF000004FF00001AFF30080BDE81C4079
:1005E00070472DE9F0470D4699469246044600F1C2
:1005F00024080168880604D5E06921F01001216013
:1006000000E00120A84201DD471B00E00027A169AE
:100610007A1902EB0900081AA0612078C00602D4FA
:100620002046AFF30080002608E0D4E901211AF843
:1006300006009047206A401C761C20624E45F4DB81
:100640002078C0060AD52046AFF3008006E0D4E942
:10065000012130209047206A401C2062381EA7F1FB
:100660000107F4DC07E0D4E9012118F80500904700
:10067000206A401C2062281EA5F10105F3DC2046FB
:10068000AFF300802078000602D50220BDE8F08795
:100690000120FBE7074B70B50D467B4400F033F8B3
:1006A0000446284600F042F810B14FF0FF3070BD0C
:1006B000204670BD8B2500004FF000020429C0F0D9
:1006C000128010F0030C00F03780CCF1040CBCF168
:1006D000020F18BF00F8012BA8BF20F8022BA1EBD6
:1006E0000C0100F029B85FEAC17C24BF00F8012B9F
:1006F00000F8012B48BF00F8012B704701694A1C24
:1007000002610878704700B58FB0CDE90131002152
:10071000059105497944CDE9031011466846FFF774
:1007200015FE0FB000BD0000E5FFFFFF007B00F0ED
:10073000800070474FF0000200B51346944696467D
:10074000203922BFA0E80C50A0E80C50B1F12001E4
:10075000BFF4F7AF090728BFA0E80C5048BF0CC092
:100760005DF804EB890028BF40F8042B08BF7047F0
:1007700048BF20F8022B11F0804F18BF00F8012B62
:100780007047000000487047D40000207546FFF70E
:10079000F9FFAE4605006946534620F0070085463E
:1007A00018B020B5FFF752FDBDE820404FF000061D
:1007B0004FF000074FF000084FF0000B21F0070149
:1007C000AC46ACE8C009ACE8C009ACE8C009ACE88C
:1007D000C0098D46704710B50446AFF3008020462F
:1007E000BDE81040FFF71EBDFEE7002904D00168F8
:1007F00041F0010101607047016821F001010160D1
:10080000704700002DE9F043016821F0010101600B
:100810000021016041608160C1600161212141616D
:100820003E493E4A10394FF03D08904203D1C1F88D
:100830000880BDE8F083394A4FF47465183290425D
:1008400001D18D60F5E7354A4FF47416303290428D
:1008500001D18E60EDE7314A4FF074674832904223
:1008600001D18F60E5E72D4B2D4A6033984201D1CD
:10087000CA60DEE7294C2B4B7834A04201D1CB6013
:10088000D7E7DFF898C0284C0CF1900C604501D1F7
:10089000CC60CEE7DFF884904FF03D5C09F1A80909
:1008A000484502D1C1F80CC0C3E72049DFF87C906D
:1008B0000839484502D1C1F80080BAE7DFF86C80FA
:1008C00008F11808404501D10D60B2E7174D3035E9
:1008D000A84201D10E60ACE7144D4835A84201D1C1
:1008E0000F60A6E7114D11496035091FA84201D1DB
:1008F0000A609EE70D4A7832904201D10B6098E77A
:100900000A4A9032904201D10C6092E7074AA8321D
:1009100090428ED1C1F800C08BE700001060024009
:100920003D000020400F002000003D2010640240E8
:1009300030B50368124A1340CC680A682243D1E9F3
:1009400005452C432243CC6922430C6A22434C6A5E
:1009500022438C6A22434C6B22438C6B22431A4302
:100960000260426922F00703D1E90B2422431A43B3
:1009700042610A6942604A6882608968C16030BD2C
:100980003F801CF07047000070B504460D46012CF6
:1009900017D00621084602F099FB00EE905A1B483A
:1009A000F8EEE00A90ED070A1948B4EEE00AF1EE1D
:1009B00010FA10D2012C09D0BDE87040432100F09C
:1009C000C5BE0621084602F0A5FBE6E7BDE870407B
:1009D000492100F0BBBE00EE905AF8EEE00AB4EEFA
:1009E000E00AF1EE10FA0BDD012C04D0BDE87040F6
:1009F000492100F0ABBEBDE87040432100F0A6BE27
:100A0000BDE87040462100F0A1BE000000000020BB
:100A1000000C00402DE9F041002201274FF0030CAB
:100A200007FA02F50B682B40AB422CD10668530045
:100A30000CFA03F4A64306600E79D0F800809E40BD
:100A400046EA080606600E79012E01D0022E12D168
:100A50008668A64386604E79D0F808809E4046EAB4
:100A6000080686604668AE43466045688E799640C3
:100A7000B6B235434560C568A543C560CC799C4096
:100A8000C3681C43C460521C102AC9D3BDE8F0815E
:100A900010B54B07DB0E9A40C90800EB8100016AD4
:100AA0000F249C40A1430162016A1143016210BD01
:100AB0000246002012690A4200D00120704741839B
:100AC000704701837047FEE770B50B4C0025256029
:100AD0000A48016821F440210160016841F4802145
:100AE00001606560022001F013FB012020600220FC
:100AF00001F00EFB256070BDA002414200080240DB
:100B00001CB50121042000F051FA4FF44070009010
:100B100001248DF8044000208DF8060003208DF894
:100B200005008DF8074069460348FFF773FF034847
:100B3000046044601CBD000000080240A002414265
:100B400070B50B4C002525600A48016821F440214E
:100B50000160016841F48021016001266660022085
:100B600001F0D6FA2660022001F0D2FA256070BDAD
:100B7000A0024142000802402DE9F04781460024CE
:100B80001548016821F440210160016801600025D9
:100B9000124E00274FF00108C6F8A072022001F0A3
:100BA000B7FAC6F8A0826006040ED6F8240208B18F
:100BB000641CE4B2012001F0ABFA6D1CEDB2082D0B
:100BC000EAD3B9F1000F04D0FFF77EFF2046BDE85D
:100BD000F087FFF7B5FFF9E7000802400000414247
:100BE0002DE9F04105461448016821F440210160D7
:100BF000016841F480210160104E4FF00008C6F8F2
:100C0000A08200240127E809C6F8A4026806050EA0
:100C1000022001F07DFAC6F8A072022001F078FAF5
:100C2000C6F8A082022001F073FA641CE4B2082C1A
:100C3000E9D3BDE8F0810000000802400000414215
:100C400070B50B48016821F440210160016841F44E
:100C500080210160074C012060602060042001F0C9
:100C600057FA00256560042001F052FA256070BD36
:100C700000080240A002414210B50C48016821F46E
:100C800040210160016841F480210160084C00208E
:100C900020606060042001F03BFA01202060606069
:100CA000BDE81040042001F033BA00000008024003
:100CB000A002414270B500241148016821F440218E
:100CC0000160016801600F4D0126C5F8A462012092
:100CD00001F01EFAC5F8A062012001F019FA07E040
:100CE000641CE4B2FA2C03D9FFF7C6FF012070BDE3
:100CF000D5F824020028F3D1C5F8A00270BD000089
:100D0000000802400000414210B5FFF7F9FE8021C3
:100D10006B2000F0C6F8642001F0E0F900216B20A0
:100D200000F0BFF8032000F089F8002000F081F8FF
:100D3000322000F0A0F80021382000F0B2F80021A5
:100D40006A2000F0AEF80021232000F0AAF88021EC
:100D5000372000F0A6F8752000F016F80949087051
:100D6000682801D0012010BD01216B2000F099F806
:100D700000216C2000F095F8322000F07CF8002073
:100D800010BD00002400002010B50446FFF758FFF6
:100D9000D020FFF725FFFFF78DFF2046FFF720FF4C
:100DA000FFF788FFFFF74CFFD120FFF719FFFFF790
:100DB00081FF0020FFF7E0FE0446FFF75DFF2046BD
:100DC00010BD2DE9F04106460F4615461C46FFF7BB
:100DD00037FF7006000EFFF703FFFFF76BFF20B130
:100DE000FFF74AFF0120BDE8F0813846FFF7F8FE23
:100DF000FFF760FFFFF724FF012000EB4600C0B2C1
:100E0000FFF7EEFEFFF756FF08E0012D0CD00120A2
:100E1000FFF7B2FE20706D1EEDB2641C002DF4D100
:100E2000FFF72AFF0020DEE70020FFF7A5FE207075
:100E3000F1E7C006010E1C2000F033B8C006010E19
:100E40001B2000F02EB8BC2801D3012110E062283D
:100E500001D302210CE02A2801D3032108E0142841
:100E600001D3042104E00A2801D3052100E0062172
:100E70001A2000F016B810B504464FF47A70844278
:100E800000D90446042C00D20424B0FBF4F0401E28
:100E9000C1B2192000F005F86008BDE81040FFF766
:100EA000D2BF70B505460C46FFF7CAFED020FFF74B
:100EB00097FEFFF7FFFE18B1FFF7DEFE012070BDC1
:100EC0002846FFF78DFEFFF7F5FE2046FFF788FE68
:100ED000FFF7F0FE18B1FFF7CFFE012070BDFFF75E
:100EE000CBFE002070BD2DE9F04104460F461646AA
:100EF0001D46FFF7A5FE6006000EFFF771FEFFF727
:100F0000D9FE20B1FFF7B8FE0120BDE8F0813846D8
:100F1000FFF766FEFFF7CEFE00240BE0285DFFF72B
:100F20005FFEFFF7C7FE18B1FFF7A6FE0120ECE752
:100F3000641CE4B2B442F1D3FFF79EFE0020E4E764
:100F4000FEE7704730B50F23C27801250178002AEB
:100F50001FD0154A126802F4E062C2F5E062C2F3E3
:100F60000722C2F10404D3404278A24084781C4096
:100F70001443220101F1E02181F80024007800F0FF
:100F80001F018D404009800000F1E020C0F80051B1
:100F900030BD01F01F0085404809800000F1E020CD
:100FA000C0F8805130BD00000CED00E0054A00297A
:100FB00003D01168014311607047116881431160CB
:100FC0007047000030380240054A002903D01168FC
:100FD0000143116070471168814311607047000040
:100FE00040380240054A002903D0116801431160CE
:100FF0007047116881431160704700004438024017
:1010000070B5244B196801F00C01234C00291ED047
:10101000661004291DD008291DD00460196801F04C
:10102000F00109091D4A545C0168E14041601C68F7
:1010300004F4E054A40A145D21FA04F484601B68EB
:1010400003F460435B0BD25CD140C16070BD0460AF
:10105000E4E70660E2E70F4A121F1168C1F380550A
:10106000116801F03F0135B1B6FBF1F11468C4F32A
:101070008814614305E0B4FBF1F11468C4F38814EB
:1010800061431268C2F30142521C5200B1FBF2F1FB
:101090000160C3E7083802400024F4006900002022
:1010A0000CB50022019200922749086840F4803074
:1010B00008604FF4A043086800F4003000900198E5
:1010C000401C0190009810B901989842F3D108682B
:1010D000800302D50120009000E0009200980128D2
:1010E00031D119484030026842F0805202601748FE
:1010F000026842F44042026013480830026802600D
:10110000026842F400420260026842F4A0520260A7
:10111000021F0F4B13600A6842F080720A600A686F
:101120009201FCD50B4A40F205711160016821F073
:1011300003010160016841F0020101600168C1F32F
:1011400081010229FAD10CBD003802400070004034
:1011500008544007003C02404FF0E021042804D02E
:10116000086920F0040008617047086940F0040035
:101170000861704710B51248016841F470010160C0
:101180001048016841F0010101600E4A0021083257
:10119000116002680C4B1A400260031D0B4A1A6072
:1011A000026822F48022026006480C300160FFF7DA
:1011B00077FF03494FF000608039086010BD0000E0
:1011C00088ED00E000380240FFFFF6FE10300024FA
:1011D0007FB504460D4601210846FFF703FF029440
:1011E000ADF804500024ADF80C40ADF806408DF881
:1011F0000E40104D01A9284600F0ACFA19218DF8D7
:10120000001001218DF803108DF8014002218DF8A6
:1012100002106846FFF796FE0121284600F070F99B
:1012200000220121284600F07AF90121284600F029
:101230006AF97FBD0000014008480949006802289A
:1012400002D10A68521C0A60032802D10868401EB5
:1012500008600121034800F053B900000400002099
:1012600020000020000001402DE9F0478AB08246AE
:101270000F4601210220FFF7A7FE01210846FFF7D4
:1012800095FEDFF8B890022206214846FFF700FCE1
:10129000022207214846FFF7FBFB80200890022529
:1012A0008DF824504FF003088DF8258000248DF828
:1012B000264001268DF8276008A94846FFF7AAFBBB
:1012C000402008908DF824508DF825808DF8264018
:1012D0008DF8276008A94846FFF79CFBADF814700D
:1012E000ADF81640CDF818A0ADF81C40144F05A974
:1012F000384600F02FFA6021ADF80010ADF802601A
:10130000ADF80C5002946946384600F013F969466E
:10131000384600F049F90821384600F03FF9082125
:10132000384600F085F90121384600F0DDF801214A
:10133000384600F0E8F80AB0BDE8F0870000024047
:10134000000400402DE9F0438BB081460D46012199
:101350000420FFF739FE01210220FFF727FEDFF806
:101360009080022206214046FFF792FB4020099020
:1013700002268DF8286003208DF8290000248DF8BE
:101380002A4001278DF82B7009A94046FFF742FB40
:10139000ADF81850ADF81A40CDF81C90ADF82040CB
:1013A000144D06A9284600F0D5F96021ADF80410C7
:1013B000ADF80670ADF81060039401A9284600F05E
:1013C000B9F801A9284600F0EFF80821284600F0F6
:1013D000E5F80821284600F02BF90121284600F005
:1013E00083F80121284600F08EF80BB0BDE8F083A9
:1013F00000040240000800402DE9F0418AB0064692
:101400000D4601210820FFF7DFFD01210846FFF707
:10141000CDFDDFF8CC80022200214046FFF738FBEB
:10142000022201214046FFF733FB022211464046CB
:10143000FFF72EFB022203214046FFF729FB0F2076
:10144000089002208DF8240003208DF82500002448
:101450008DF8264001278DF8277008A94046FFF730
:10146000D9FAADF81450ADF816400696ADF81C4008
:101470001C4D05A9284600F06DF96021ADF800105B
:10148000ADF80270ADF80C4002946946284600F0B1
:1014900051F86946284600F087F86946284600F06A
:1014A000D1F86946284600F015F90821284600F0D1
:1014B00075F80821284600F0BBF80821284600F0FE
:1014C00003F90821284600F037F90121284600F0E9
:1014D0000BF80121284600F016F80AB0BDE8F081AB
:1014E00000000240000C0040002904D0018841F0B7
:1014F000800101807047018821F0800101807047E0
:10150000C94301827047002904D0018841F00101DC
:1015100001807047018821F0010101807047002A95
:1015200003D082890A438281704782898A438281FB
:101530007047000030B5028C22F001020284058C55
:101540008388028B22F0700222F003020C8814437D
:1015500025F002028D8915434A882A430D4DA84281
:1015600002D00D4DA8420FD122F00805CA892A43A6
:1015700022F004058A882A4323F4807323F400733D
:101580000D8A1D434B8A2B43838004838968416302
:10159000028430BD0000014000040140028B22F0B3
:1015A00008020A430283704770B5028C22F01002D1
:1015B0000284028C8388048B24F4E04424F4407673
:1015C0000D884FF6FF7404EA0525354322F020020A
:1015D0008E8904EA061616434A8804EA0212324348
:1015E000114EB04202D0114EB04217D122F080020B
:1015F000CE8904EA0616164326F040068A8804EAD5
:101600000212324323F4806323F400630E8A04EA57
:1016100086061E434B8A04EA830333438380058393
:1016200089688163028470BD0000014000040140AC
:10163000028B22F400624FF6FF7303EA012111438B
:101640000183704770B5028C22F480720284028C90
:101650008388848B24F0700424F003040D882543D0
:1016600022F400728E894FF6FF7404EA06261643B0
:101670004A8804EA02223243114EB04202D0114E8F
:10168000B04217D122F40066CA8904EA022232432A
:1016900022F480668A8804EA0222324323F48053CB
:1016A00023F400530E8A04EA06161E434B8A04EA0A
:1016B00003133343838085838968C163028470BDCB
:1016C0000000014000040140828B22F008020A431E
:1016D0008283704770B5028C22F480520284058C9C
:1016E0008288838B23F4E04323F440760C884FF602
:1016F000FF7303EA0424344325F400558E8903EA7A
:1017000006362E434D8803EA05353543084EB04270
:1017100002D0084EB04205D122F480460A8A03EA7C
:10172000821232438280848389680164058470BD9B
:101730000000014000040140828B22F400624FF659
:10174000FF7303EA012111438183704741637047AE
:101750008163704730B50288164C174DA0420DD0FA
:10176000A8420BD0B0F1804F08D0144B984205D05E
:10177000134B984202D0134B984203D122F07003CE
:101780004A881A43104B984206D0104B984203D017
:1017900022F440730A891A4302804A68C2620A88A6
:1017A0000285A04201D0A84201D1897A0186012197
:1017B000818230BD0000014000040140000400406F
:1017C00000080040000C00400010004000140040E1
:1017D00070B50E4D40F22551284600F035F80C4CFE
:1017E00020B1284600F0CAF8207070BD40F22441B4
:1017F000284600F029F80028F7D029882846034910
:10180000091D098800F0BAF8207070BD004800403A
:10181000680000208A05C94301807047002904D070
:10182000818941F4005181817047818921F40051FF
:1018300081817047002A03D0828A0A4382827047DE
:10184000828A8A438282704770B5002440F66A1209
:10185000C1F3421301F01F05012606FA05F2012B20
:101860000CD0022B0DD0838A1340090A8E400088C9
:1018700030400BB100B10124204670BD8389134074
:10188000F3E7038A1340F0E710B540F66A13C1F39B
:10189000421301F01F040121A140012B07D0022BAC
:1018A00007D014303AB102680A43026010BD0C3010
:1018B000F8E71030F6E702688A43026010BD0000C6
:1018C0007FB504460D46208A20F44051E88808433D
:1018D0002082A08941F20C618843A9882A8911439A
:1018E0006A8902431143A181A08A20F44071A8892A
:1018F0000843A0826846FFF783FB1E48844202D05B
:101900001D48844201D1039800E00298A18909048E
:1019100008D500EBC00101EB001029684900B0FBBD
:10192000F1F007E000EBC00101EB0010296889002D
:10193000B0FBF1F06422B0FBF2F109010B096FF08A
:1019400018056B4300EB8300A3891D044FF032039D
:1019500007D503EBC000B0FBF2F000F0070008432E
:1019600006E003EB0010B0FBF2F000F00F000843BC
:1019700020817FBD00100140001401408088C0F329
:1019800008007047FEE703B401984100009850EA50
:10199000C12018BF04204A0D18BF40F0010040F2DA
:1019A000FF72B2EB515F08BF40F00200012808BF90
:1019B000052002B07047000070B59B482DED020B6A
:1019C0002DED068B079D25F00044A04218DC9748BA
:1019D000844202DC0AD1069840B19DED060BBDECB5
:1019E000068B02B0BDE8704000F0C6BA002DCCBF37
:1019F0009FED8F0B9FED900BBDEC068B02B070BD81
:101A00008F48A04215DD8F48A042D8BF4FF0FF3469
:101A100058DD9DED060B51EC100BFFF7B4FF0428C9
:101A200008BF00F0BDFA9DED060BBDEC068B02B0C1
:101A300070BD9DED060B51EC100B01F0E9F8CDE9FE
:101A4000060181489FED828BA0423CDD8248A04286
:101A50001FDD00249FED82AB9DED060B53EC1A2B8E
:101A600051EC100B02F0A4FF9DED060B41EC190B9D
:101A700053EC1A2B51EC100B03F09AF953EC182B82
:101A800003F0A0FA53EC192B03F03AF8CDE9060164
:101A900049E09DED060B012453EC182B51EC100B83
:101AA00002F086FF9DED060B41EC190B53EC182B51
:101AB00051EC100B03F086FA53EC192B03F020F8CD
:101AC000CDE906012FE06848A0421FDD02249FED0A
:101AD000689B9DED060B53EC192B51EC100B03F09A
:101AE00067F953EC182B02F063FF9DED060B41ECF8
:101AF000180B53EC192B51EC100B03F063FA53EC59
:101B0000182B02F0FDFFCDE906010CE09DED060B60
:101B1000032453EC102B9FED580B51EC100B02F0EB
:101B2000EFFFCDE906019DED060B53EC102B51ECB8
:101B3000100B03F03DF941EC180B53EC182B03F09C
:101B400037F941EC190B4E480621B0EE490AF0EE88
:101B5000690A784400F094F953EC182B51EC100BFF
:101B600003F026F941EC180B4648B0EE490AF0EEB6
:101B7000690A0521784400F083F953EC192B51ECE4
:101B8000100B03F015F941EC100B51EC180B53EC52
:101B9000102B002C0EDA02F00BFF9DED061B53EC10
:101BA000112B03F005F99DED061B53EC112B03F0EF
:101BB000FDF935E002F0FCFE9DED061B53EC112B08
:101BC00003F0F6F841EC100B2F48784400EBC4000A
:101BD00090ED001B51EC100B53EC112B03F0F2F9BC
:101BE0009DED061B53EC112B03F0ECF941EC100BAF
:101BF0002648784400EBC40090ED001B51EC100B1C
:101C000053EC112B03F0D2F941EC100B002DA2BFC5
:101C1000BDEC068B02B070BD51EC100B02F08AFED9
:101C200041EC100B01E70000000010440000F07FC1
:101C3000182D4454FB21F93F182D4454FB21F9BFC2
:101C40000000DC3F0000203E0000F33F00000000E9
:101C5000000000000000F03F0000E63F0000000030
:101C60000000000000000040008003400000000071
:101C7000000000000000F83F000000000000F0BF7E
:101C8000FA430000B04300003A430000F242000073
:101C900070B56B4E2DED040B2DED028B82B0DDF88F
:101CA0001CC0DDE905235C422CF000411C4341EAE5
:101CB000D474049D22F00040B44205D86C422C43F9
:101CC00040EAD474B4420BD99DED061B9DED040B84
:101CD00002B0BDEC028B04B0BDE8704000F056B914
:101CE000ACF14054A4F17F641C430BD0022404EAFD
:101CF000AC7444EAD27405439FED538B9FED542B93
:101D000007D015E09DED040B51EC100B00F0AAF983
:101D100042E0002C11BF012C9DED040B02B0BDEC84
:101D2000028B04BF04B070BD022C38D0032C3BD012
:101D30000B439FED491B9FED4A0B0AD0B14218D1CE
:101D4000B04209D121F0804120F0804007910590F8
:101D50000FE0002A15DA10E0434B7B44002C08BF4B
:101D600093ED000B0DD0012C10D0022C17D0032CBA
:101D70001AD0B0421DD1002A03DAB0EE410AF0EECB
:101D8000610A02B0BDEC028B04B070BD93ED000B94
:101D900051EC100B02F0CEFD41EC100BF1E7B0EE70
:101DA000480AF0EE680AECE7B0EE420AF0EE620A8A
:101DB000E7E7401A00153C28C8BF8DED000B19DC81
:101DC000BCF1000FBEBF10F13C0F9FED290B8DED54
:101DD000000B0FDB9DED060B53EC102B9DED040B60
:101DE00051EC100B02F08CFE00F012FF00F03AF9FB
:101DF000CDE90001002C08BF9DED000BC1D0012CE6
:101E000010D0022C9FED1C0B53EC102B9DED000B02
:101E100051EC100B0DD003F0D5F853EC182B03F058
:101E2000D1F8B9E7019880F0004001909DED000BDA
:101E3000A7E703F0C7F853EC182B03F0B7F8ABE7AC
:101E40000000F07F00000000182D4454FB210940E1
:101E5000182D4454FB2109C0182D4454FB21F9BF0F
:101E6000182D4454FB21F93F2242000000000000DD
:101E70000000000000000000075C143326A6A13C0F
:101E800070B504462DED028B4D1E00EBC500B0EE83
:101E9000408AF0EE608A90ED000B35F0060017D016
:101EA00053EC182B51EC100B02F082FF41EC100B9D
:101EB0006D1E04EBC50090ED001B51EC100B53ECB4
:101EC000112B02F075FD41EC100B35F00600E7D147
:101ED000022D36D0042D1CD0062D1CBFBDEC028B6C
:101EE00070BD53EC182B51EC100B02F061FF94ED18
:101EF0000A1B53EC112B02F05BFD53EC182B02F084
:101F000057FF94ED081B53EC112B02F051FD41ECEF
:101F1000100B53EC182B51EC100B02F049FF94ED11
:101F2000061B53EC112B02F043FD53EC182B02F06F
:101F30003FFF94ED040B53EC102B02F039FD41EC04
:101F4000100B53EC182B51EC100B02F031FF94EDF9
:101F5000021B53EC112B02F02BFD53EC182B02F05B
:101F600027FF94ED001B53EC112B02F021FDBDEC7B
:101F7000028B41EC100B70BD10B553EC102B51ECE3
:101F8000100B02F015FD41EC100B10BD10B553EC19
:101F9000112B51EC100B02F00BFD41EC100B10BD9E
:101FA0009FED050B10B553EC102B51EC100B02F00C
:101FB000FFFE41EC100B10BD0000000000000010FF
:101FC00030380A2801D2012070470020704770473E
:101FD000FEB505460E460024684600F02FFE00229E
:101FE0009FED1C1A6946012355F8220056F822700D
:101FF000C01B00D5404200EE100AB8EEC00A20EE29
:10200000010A01EB8200D0ED000AF5EEC00AF1EE04
:1020100010FA10D0C0EE201AB7EE000A31EEC00A56
:102020000D4FB0EEC00A10EE100AB8420DDD03FAF3
:1020300002F0044309E010EE100A084F3844084F3C
:10204000B84202D303FA02F00443521C032ACBDB4A
:102050002046FEBD00008037295C0F3E666666C1E3
:102060009A99D90010B541EC100BFFF7A5FC51EC83
:10207000100B10BD70B50446E07800F0C00500F00C
:102080003F006178094EC90707D0C30800F0070177
:10209000491C32680AB1184690476078000703D59A
:1020A000716809B1A8098847002070BD7C00002034
:1020B00010B504466FF00400FFF74EF80649E0083B
:1020C000087000EB4002C2EBC0104FF6FF7202EA4C
:1020D000C000488010BD00005E00002070B54FF4C5
:1020E0000775B0FBF5F1CCB2B0FBF5F105FB1106BD
:1020F00004E0284600F026F8641EE4B2002CF8D173
:10210000002E04D03046BDE8704000F01BB870BD12
:102110000B49097848434FF0E021486100238B6167
:10212000086940F0010008610869C20701D0C003D6
:10213000FAD5086920F0010008618B617047000042
:102140005E0000200B49498848434FF0E021486178
:1021500000238B61086940F0010008610869C2072B
:1021600001D0C003FAD5086920F0010008618B6135
:10217000704700005E00002008B500280CD0202029
:102180008DF8000028208DF8010030208DF8020025
:1021900038208DF8030004E0A32204216846FEF7EE
:1021A0009DF96A46042140F69E2002F03DFA01F0B6
:1021B000C1FE08BD3EB5044602208DF80000CA20CD
:1021C0008DF80100E3208DF8020009208DF803004E
:1021D0006A460421682002F027FAA3208DF8000047
:1021E000610609D5C0218DF80110C8218DF80210B3
:1021F000C2218DF8031005E08DF801008DF8020072
:102200008DF8030014F4C07F09D0C4218DF80410A8
:10221000CC218DF80510C6218DF8061005E08DF84B
:1022200004008DF805008DF806008DF807008DF884
:1022300008008DF809006A460A2140F6A72002F03E
:10224000F3F9A0074FF0D80503D020208DF8000047
:1022500001E08DF800506A46012140F6B62002F0F8
:10226000E3F9A00603D5012000F09AF802E000206F
:1022700000F096F814F4C07F20D0E0050CD5B22011
:102280008DF800008B208DF80100B6208DF802003B
:102290009B208DF803000BE0B0208DF8000080201B
:1022A0008DF80100B4208DF8020090208DF8030015
:1022B0006A46042140F6A22002F0B6F9E0074FF486
:1022C0000B6323D0F8208DF800006A4601211846E0
:1022D00002F0AAF9FA21072000F0ACFB072000F079
:1022E0007BFB012000F094FB642000F071FC4FF4B4
:1022F000FA7000F07DFCC821274800F035FB28204B
:1023000000F04AFB0A2000F057FB06E08DF8005071
:102310006A460121184602F087F9A00703D5D920A3
:102320008DF8000001E08DF800506A46012140F26E
:102330003D7002F079F9600703D5012000F05CF8E8
:1023400002E0002000F058F8E00603D50120FFF776
:1023500013FF02E00020FFF70FFF104D44F00800CC
:10236000688101F0E7FD0020A873600601D5062012
:10237000A87314F4C07F02D0A87B801DA87314F04A
:10238000140F02D0A87B1030A873A00702D0A87B3E
:10239000001DA87300203EBD09E3CA027C00002096
:1023A0000EB54FF4976300280CD00DA0D0E90012B1
:1023B0008068CDE9001202906A460921184602F0B1
:1023C00033F90EBD09A0D0E900128068CDE90012F2
:1023D00002906A460921184602F026F90EBD000057
:1023E000B8AAB38DB4980D355D000000B8AAAAAAAA
:1023F000B088C3C5C700000008B500280CD0C020B5
:102400008DF80000C2208DF80100C4208DF8020074
:10241000C6208DF8030004E08B2204216846FEF7F5
:102420005DF86A46042140F6982002F0FDF801F0BC
:1024300081FD08BDC8234FF48062024940F6F630A2
:1024400001F028BCE05200082DE9FF4F8DB0164680
:10245000DDE91A52074688460024A146A5F80090F7
:10246000DFF864B105A99BF80E0001F0D5FC4FF030
:10247000FF3A18B1504611B0BDE8F08FBBF80A30F2
:1024800013F0140F61D09DF817009DF814109DF8FB
:10249000162040EA01609DF81510090441EA022166
:1024A000084330609DF81B109DF818209DF81A40D5
:1024B00041EA02619DF81920120442EA0422114304
:1024C00071609DF81F209DF81C409DF81EC042EAD7
:1024D00004629DF81D40240444EA0C242243B260A7
:1024E0009DF823409DF820C09DF822B044EA0C6C72
:1024F0009DF82140240444EA0B244CEA040CC6F85D
:102500000CC01024001401900814029010140390C1
:102510004FEA2C40049001980299404301FB0101CD
:102520000398049A404302FB02000844A0F1706043
:10253000B0F1007F05D901F0FDFCA5F800905046F0
:1025400099E7288840F480702880590605A818D596
:102550000219065D517841EA0621A8F80010D178E9
:10256000967841EA0621A8F802105179127941EAD9
:102570000221A8F80410A41DE4B2298841F0080142
:10258000298013F4C07F15D00119065D4A7842EA0C
:1025900006223A80CA788E7842EA06227A804A7900
:1025A000097942EA0121B980A41DE4B2298841F0E9
:1025B00070012980990702D02044FFF75BFD109835
:1025C00001F0E0F8002056E77C00002030B587B02D
:1025D0000446684601F0DEF9BDF80000420CC10374
:1025E0003C48038903F0030054F820000490580786
:1025F00002D5049840420490C3F3C10054F820006F
:102600000590980602D5059840420590C3F38110C5
:1026100054F820000690D80502D50698404206904E
:102620000498A0FB0145C31703FB015300FB0230D4
:10263000830043EA947004900598A0FB0145C317FA
:1026400003FB015300FB0230830043EA94700590C2
:102650000698A0FB0145C31703FB015100FB0210C4
:10266000810041EA947006900498000E8DF80400F1
:102670000498000C8DF805000498000A8DF80600F7
:1026800004988DF807000598000E8DF8080005984D
:10269000000C8DF809000598000A8DF80A000598CD
:1026A0008DF80B000698000E8DF80C000698000CB3
:1026B0008DF80D000698000A8DF80E0006988DF82A
:1026C0000F0001AA0C214FF4257001F0ADFF07B0F7
:1026D00030BD00007C00002030B585B0044616A156
:1026E000D1E900028968CDE9032102904FF0FF355E
:1026F000C82C02D9284605B030BDC820B0FBF4F183
:10270000491E080A8DF800008DF801106A46022162
:1027100040F2162001F088FF08B12846EBE702AA34
:102720000C2140F6C12001F07FFF08B12846E2E706
:10273000044884810020DEE7FEF2ABC4AAF1DFDFAB
:10274000BBAFDFDF7C0000201FB53F49098901F0E6
:10275000030250F8222001924A0702D5019A524200
:102760000192C1F3C10250F8222002928A0602D5DA
:10277000029A52420292C1F3811250F82200039051
:10278000C80502D50398404203903048019981FB67
:1027900000218B0043EA92710191029981FB002193
:1027A0008B0043EA92710291039981FB0001800F33
:1027B00040EA810003900198000E8DF80000019816
:1027C000000C8DF801000198000A8DF802000198B4
:1027D0008DF803006A4604214FF4747001F024FF61
:1027E0004FF0FF3410B1204604B010BD0298000E27
:1027F0008DF800000298000C8DF801000298000A84
:102800008DF8020002988DF803006A4604214FF407
:10281000757001F009FF08B12046E5E70398000E46
:102820008DF800000398000C8DF801000398000A51
:102830008DF8020003988DF803006A4604214FF4D6
:10284000767001F0F1FECFE77C00002009E3CA02B8
:1028500030B587B004463FA0006804903EA00068F1
:1028600003903EA0006802903DA00068019004F033
:10287000030004AB195C8DF81810C4F3C102995C15
:102880008DF81910C4F381115B5C8DF81A3003AB1D
:10289000185C8DF81400985C8DF81500585C8DF864
:1028A000160006AA032140F2264001F0BDFE4FF0BB
:1028B000FF3510B1284607B030BD05AA032140F20C
:1028C0002A4001F0B1FE08B12846F4E702980690CC
:1028D0000198059060070BD59DF8180040F00100A5
:1028E0008DF818009DF8140040F001008DF81400D8
:1028F000A0060BD59DF8190040F001008DF81900D5
:102900009DF8150040F001008DF81500E0050BD58D
:102910009DF81A0040F001008DF81A009DF816008D
:1029200040F001008DF8160006AA03214FF48860DC
:1029300001F07AFE08B12846BDE705AA032140F25E
:10294000314001F071FE08B12846B4E70548048122
:102950000020B0E74CCD6C000CC92C003656760038
:10296000264666007C00002008B54FF47A7290FB82
:10297000F2F04843010E8DF80010010C8DF80110A3
:10298000010A8DF802108DF803006A4604214FF405
:10299000AE7001F049FE08BD08B50521B0FBF1F0AD
:1029A000010A8DF800108DF801006A4602214FF4EB
:1029B000AD7001F039FE08BD08B50521B0FBF1F09E
:1029C000010A8DF800108DF801006A4602214FF4CB
:1029D000AC7001F029FE08BD08B500210091C107C7
:1029E00001D030210091810704D59DF8001041F0FD
:1029F0000C010091400704D59DF8000040F0030051
:102A000000906A4601214FF4A47001F00DFE08BD4C
:102A100008B500280BD0042800D90420401E0090DF
:102A20006A46012140F24F1001F0FEFD08BD012071
:102A3000F4E7000070B504462DED028B82B060070C
:102A40004FF0FF3602D0B1F5C86F04D9304602B05E
:102A5000BDEC028B70BD00EE101AB8EE400ADFED3F
:102A6000530A80EE208A684600F072FF9DF800103D
:102A7000022907D0042918D0082929D010293AD0D2
:102A80003046E4E79FED4A0A28EE000ABCEEC00A91
:102A900010EE100A81B29FED470A28EE000ABCEE44
:102AA000C00A10EE100A82B237E09FED430A28EE0A
:102AB000000ABCEEC00A10EE100A81B29FED3F0A78
:102AC00028EE000ABCEEC00A10EE100A82B224E022
:102AD0009FED3B0A28EE000ABCEEC00A10EE100A79
:102AE00081B29FED380A28EE000ABCEEC00A10EE53
:102AF000100A82B211E09FED340A28EE000ABCEE03
:102B0000C00A10EE100A81B29FED300A28EE000ACA
:102B1000BCEEC00A10EE100A82B2080A8DF804005A
:102B20008DF80510100A8DF806008DF80720E007D3
:102B300001AD11D001AA02214FF4EA7001F074FD39
:102B400008B1304683E7AA1C02214FF4927001F0CD
:102B50006BFD08B130467AE7A00711D501AA022122
:102B60004FF4EC7001F060FD08B130466FE7AA1C2D
:102B700002214FF4947001F057FD08B1304666E72A
:102B8000600711D501AA02214FF4EE7001F04CFD4F
:102B900008B130465BE7AA1C02214FF4967001F0A1
:102BA00043FD08B1304652E7002050E7000048439B
:102BB0000000804600004046000000460000C0457E
:102BC0000000804500004045000000450000C04472
:102BD00008B50521B0FBF1F0010A8DF800108DF861
:102BE00001006A4602214FF4EF7001F01DFD08BD9F
:102BF00008B50521B0FBF1F0010A8DF800108DF841
:102C000001006A4602214FF4ED7001F00DFD08BD90
:102C100082B0CDE9000121F0004001909DED000B54
:102C200002B051EC100B704703490A885206FCD5DC
:102C3000C2B28A8070470000001001407CB5054692
:102C4000284801AB042240680D210078FEF7B9F84E
:102C500008B107207CBD9DF807009DF80420C0F353
:102C6000011102F0E00241EAD2018DF800109DF856
:102C70000520C0F3810102F0E00241EAD2018DF8A3
:102C800001109DF8061000F0030001F0E00140EA99
:102C9000D1008DF8020000219FED131ADFED131A09
:102CA0009FED130A6C46605C20B105EB8103C3ED18
:102CB000001A0AE005EB810080ED001A0BE0D3ED6D
:102CC000000A60EE800AC3ED000A625C521E12F038
:102CD000FF026254F3D1491CC9B20329E3D3002097
:102CE0007CBD000028000020000000007B14AE3EE8
:102CF0001D5A843F2DE9F04788B005460C469246A0
:102D000001208DF8140000278DF81570DFF8B883C6
:102D100005AB0222D8F80000817CD8F804000078C6
:102D2000FEF7E1F84FF0FF3918B1484608B0BDE8AA
:102D3000F087C820FFF7D2F98DF81470D8F800009A
:102D400005AB0122C17BD8F804000078FEF7CBF870
:102D500008B14846EAE7D8F8000005AB01224179FE
:102D6000D8F804000078FEF7BEF808B14846DDE761
:102D7000D8F8000005AB0122817CD8F80400007867
:102D8000FEF7B1F808B14846D0E7D8F8000005AB27
:102D90000122C17DD8F804000078FEF7A4F808B13C
:102DA0004846C3E7D8F8000005AB01220179D8F8FE
:102DB00004000078FEF797F808B14846B6E70C26FD
:102DC0008DF81460D8F8000005AB01220179D8F81D
:102DD00004000078FEF787F808B14846A6E70F2000
:102DE000FFF77CF9D8F82800407A8DF81400D8F85D
:102DF000000005AB01228178D8F804000078FEF7C6
:102E000072F808B1484691E7D8F82800007A8DF8A2
:102E10001400D8F8000005AB01224178D8F804006E
:102E20000078FEF760F808B148467FE7BAF1000F76
:102E300007D0D8F82800807A40F0E0008DF8140020
:102E400004E0D8F82800807A8DF81400D8F8000043
:102E500005AB01228179D8F804000078FEF743F829
:102E600008B1484662E7BAF1000F07D0D8F8280049
:102E7000C07A40F0E0008DF8140002E018208DF8D0
:102E80001400D8F8000005AB0122C179D8F804007D
:102E90000078FEF728F808B1484647E7BAF1000F76
:102EA00002D0C820FFF71AF940208DF81400D8F896
:102EB000000005AB01220179D8F804000078FEF784
:102EC00012F808B1484631E778208DF81400D8F898
:102ED000000005AB01224179D8F804000078FEF724
:102EE00002F808B1484621E73220FFF7F7F88DF8DD
:102EF0001470D8F8000005AB01224179D8F804001D
:102F00000078FDF7F0FF08B148460FE7D8F8000059
:102F100005AB0222817AD8F804000078FDF751FF52
:102F200008B1484602E79DF815009DF8141040EAE4
:102F30000120B0FBF6F0C6B2AF606F602F60A760F3
:102F400067602760002756E0D8F8000005AB0C2228
:102F5000C17AD8F804000078FDF733FF08B148467D
:102F6000E4E69DF815009DF8141040EA012002B235
:102F7000ADF80C209DF817009DF8161040EA0120CE
:102F800000B2ADF80E009DF819109DF8183041EA16
:102F9000032109B2ADF8101023681A442260626858
:102FA00010446060A0680844A0609DF81B009DF874
:102FB0001A1040EA012000B2ADF804009DF81D107F
:102FC0009DF81C2041EA022109B2ADF806109DF8D7
:102FD0001F209DF81E3042EA032212B2ADF80820ED
:102FE0002B6818442860686808446860A868104422
:102FF000A8607F1CFFB2B742A6D328688322C117FE
:10300000090441EA104100040023FDF732F9324679
:103010000023FDF72EF9286068688322C117090490
:1030200041EA104100040023FDF723F93246002352
:10303000FDF71FF96860A8688322C117090441EAF7
:10304000104100040023FDF714F932460023FDF778
:1030500010F9A86020684FF40065C117090441EA1F
:10306000104100042A460023FDF703F932460023ED
:10307000FDF7FFF8206060682A46C117090441EA9D
:10308000104100040023FDF7F4F832460023FDF759
:10309000F0F86060A0682A46C117090441EA1041AF
:1030A00000040023FDF7E5F832460023FDF7E1F8C0
:1030B000A060002803DDA0F58030A06002E000F5EC
:1030C0008030A060002031E62800002070B5064660
:1030D0000D460D4C01212046FDF7F1FC0221204652
:1030E000FDF7EFFC04212046FDF7E9FC082120460E
:1030F000FDF7E7FC31460548FEF728FB2946BDE809
:1031000070400348FEF722BB000802400004004064
:103110000008004070B506460D460D4C01212046C2
:10312000FDF7CFFC02212046FDF7C9FC0421204613
:10313000FDF7C7FC08212046FDF7C1FC31460548D4
:10314000FEF704FB2946BDE870400348FEF7FEBACF
:103150000008024000040040000800402DE9F0474C
:10316000DFF82CA1DFF82C814B4CDAF8102041F26B
:103170007C5541F2CC0641F268074FF40049012A20
:1031800003D14648007801281ED0002A7DD1DAF804
:103190000000022879D14FF47A70FEF79FFF49466C
:1031A0004046FDF78CFC0320CAF804002168A1F515
:1031B00018504838B84246D200F0F4F9BDE8F0475C
:1031C0005A210020FDF7E0BB0220CAF80000DAF81F
:1031D0000410012906D1CAF8040001221146304822
:1031E000FEF79DF92268AA4205D2BDE8F04700210A
:1031F0000120FDF7C9BBA2F5A8507C38B04208D227
:10320000502001F0F7FABDE8F04706210A20FFF749
:1032100081BFA2F518504838B84207D200F0C2F971
:10322000BDE8F0475A210120FDF7AEBB43F2B06084
:1032300082422ADB206001F0CDFA49464046BDE8D3
:10324000F047FDF73EBCA1F5A8507C38B04208D24B
:103250003C2001F0D5FABDE8F0470A210620FFF72F
:1032600035BFA94207D200F09DF9BDE8F047002123
:103270000120FDF789BB002907DA20214046FDF730
:1032800020FCBDE8F04701F0A5BABDE8F0870000DA
:103290000000002000000240200000206800002004
:1032A000000001402DE9F05F4A4CDFF82C914B4DB6
:1032B00020694FF0030B41F27C5641F2CC0741F2FA
:1032C00068084FF4004A012803D1454909780229CA
:1032D0001DD000287BD12068032878D14FF47A7064
:1032E000FEF7FCFE51464846FDF7E9FBC4F804B082
:1032F0002968A1F518504838404546D200F052F9E7
:10330000BDE8F05F6FF059010020FDF73DBBC4F848
:1033100000B06068012806D10220606001221146D9
:103320003048FEF7FCF82A68B24205D2BDE8F05FEB
:1033300000210120FDF728BBA2F5A8507C38B84237
:1033400008D23C2001F05CFABDE8F05F0A210620BB
:10335000FFF7E0BEA2F518504838404508D200F00B
:1033600021F9BDE8F05F6FF059010120FDF70CBBBA
:1033700043F2B06082422ADB286001F02BFA51460A
:103380004846BDE8F05FFDF79CBBA1F5A8507C382E
:10339000B84208D2502001F02DFABDE8F05F0621B6
:1033A0000A20FFF793BEB14207D200F0FBF8BDE858
:1033B000F05F00210120FDF7E7BA002907DA20219C
:1033C0004846FDF77EFBBDE8F05F01F003BABDE8BB
:1033D000F09F0000000000200000024020000020BC
:1033E00068000020000001402DE9F041484C2069B0
:1033F000012833D1474D287802282FD001282DD01D
:1034000001F04AF90420206060680226012805D1F5
:103410006660012211464048FEF781F83F48006887
:10342000B0F5FA5F05D2BDE8F04106210846FFF786
:1034300071BEA0F5FA51B1F57A7F1FD201F0CAF939
:10344000E068012701280BD0022807D1412001F0B4
:1034500081F92878616988420DD1A761BDE8F081C2
:103460004B2001F06BF928786169884201D1A7618E
:10347000F4E7E660F2E70020E060EFE7A0F50C5229
:10348000283A40F6B8318A4220D2E068012802D1B9
:10349000A169012911D00228E0D1A0690128DDD15C
:1034A00006210846FFF736FE3C2001F0A9F9BDE8E9
:1034B000F0410A210620FFF72DBE502001F09AF9B5
:1034C000BDE8F04106210A20FFF724BEA0F53850E0
:1034D000E0388842C2D2E068012802D1A1690129FE
:1034E0000DD00228BAD1A0690128B7D100F05AF84E
:1034F000BDE8F0416FF059010120FDF745BA00F039
:1035000051F8BDE8F0415A210120FDF73DBA000015
:103510000000002068000020000001402000002082
:103520007FB501210520FDF741FD01258DF80C50E7
:1035300000248DF80E400F2002908DF80F508DF86A
:103540000D40164E02A93046FDF764FA8DF804408E
:103550008DF807404FF49861009102218DF8051015
:1035600069463046FDF756FA48F2200002908DF881
:103570000C508DF80E4003208DF80D008DF80F5083
:10358000074C02A92046FDF745FAE9032046FDF75E
:1035900096FA20212046FDF792FA7FBD00080240EE
:1035A0000000024046210148FEF7D0B8000C004060
:1035B000F8B505460E4600242E486B4603224068A7
:1035C0000D210078FDF7FDFB08B10720F8BD9DF83F
:1035D000000000F01F008DF800009DF8010000F0D1
:1035E0001F008DF801009DF8020000F01F008DF80B
:1035F00002000022DFED201A6B46012155F822005F
:1036000056F82270C01B00D5404200EE100AB8EEFA
:10361000C00A60EE210A985CE8B1B3EE090A9FED9A
:10362000171A01E020EE010A985C401E10F0FF001E
:103630009854F7D180EE801AB7EE000A31EE400AB6
:103640000F4FB0EEC00A10EE100AB8420DDD01FABD
:1036500002F0044309E010EE900A0A4F3844B0F13A
:10366000D97F02D901FA02F00443521C032AC5DBB8
:103670002046F8BD280000200000803754E3853F35
:10368000295C0F3E0000E0BE00B50246104600F087
:103690000DF80346D01C00F009F843EAC003901D62
:1036A00000F004F843EA801080B200BD90F90010E9
:1036B000002902DD4FF00000704702DA4FF00400ED
:1036C000704790F90110002902DD4FF001007047AA
:1036D00002DA4FF00500704790F90200002802DD81
:1036E0004FF00200704702DA4FF0060070474FF0CB
:1036F00007007047FFF714FFA820FEF7D9FCFDF77D
:1037000003FB00F0DBF80028FBD1A820FEF7D0FC7B
:103710004FF4E13001F07AF840F2E73440F28F6183
:103720002046FDF769FE53210920FDF79DFD532139
:103730000920FDF707FE53212046FDF749FDFFF75D
:1037400031FF01F001F80D4E0D4C4FF480650C482F
:103750001C3000F049F829463046FDF7A9F92061F0
:1037600020B92068012801D101F034F8FFF7F6FCF8
:10377000FFF798FDFFF738FEE9E700000008024078
:1037800000000020704700002DE9F041002620F0E5
:103790000104144D95F82400002802D00020BDE853
:1037A000F081A97A4FF0FF3839B12F7C214029747C
:1037B000A14200D0464624B901E04046EFE7287D0B
:1037C00018B1012000F0CCFF02E0002000F0C8FF9B
:1037D0002CB100F0AFFB10B12F744046DFE730464C
:1037E000DDE700002800002010B504462DED068B13
:1037F0008EB007A808A9CDE900100DAB03AA09A94E
:103800000BA8FEF721FE20B101200EB0BDEC068B07
:1038100010BDBDF82000C00548D59DED030AF8EEA7
:10382000C00A9FED230A60EE809ADDED040AF8EEEF
:10383000E00A20EE808ADDED050AF8EEE00A60EE8F
:10384000808ADDED060AF8EEE00A20EE809A29EE85
:10385000A90A08EE080A08EEE80A09EE490A10EE7D
:10386000100A01F099FC28EE280AF0EE000A41EC5B
:103870001A0B09EE890A20EE200A10EE100A01F058
:103880008BFC41EC100BB0EE4A1AF0EE6A1AFEF710
:10389000FFF99FED081B51EC100B53EC112B01F0BD
:1038A00087FA01F053F820600020AEE70220ACE771
:1038B000000080306666666666A64C4010B5FDF76F
:1038C0001FF900F011F990BB782000F055FEC0B24E
:1038D00008B1012010BD7820FFF756FFC0B208B133
:1038E000022010BD642000F005FEC0B208B1032024
:1038F00010BDFEF79FFDC0B208B1042010BD1348F3
:10390000FFF7C2FEFEF7A4FFC0B208B1052010BD4C
:1039100040F27310FEF74EFCC0B208B1062010BD95
:103920006420FEF7D9FEC0B210B1072010BD0BE035
:1039300000F0C0FE08B10820F8E7012000F0F2FC1A
:10394000C0B208B10920F1E70020EFE754000020E1
:103950000F4A517A002908D0012909D002290AD03A
:1039600003290BD04FF0FF3070470221017007E0B0
:103970000421017004E00821017001E010210170B0
:10398000D17C11B10178490001700020704700001E
:1039900028000020114A517A002908D001290AD0B4
:1039A00002290CD003290ED04FF0FF3070474FF49E
:1039B000804101800AE041F69C71018006E04FF4ED
:1039C0008051018002E04FF400610180D17C11B18F
:1039D000018849080180002070470000280000206D
:1039E0000249097C01700020704700002800002077
:1039F0000E49097A002909D001290AD002290CD0E0
:103A000003290ED00021018000207047FA21018097
:103A1000FAE74FF4FA710180F6E74FF47A7101800A
:103A2000F2E74FF4FA610180EEE700002800002081
:103A30001049097A002908D001290BD002290ED09B
:103A4000032911D04FF0FF3070479FED0B0A80ED36
:103A5000000A0DE09FED090A80ED000A08E09FEDE5
:103A6000080A80ED000A03E09FED060A80ED000AD7
:103A7000002070472800002000000343000083421C
:103A800033330342333383410F49C97A072917D2AD
:103A9000DFE801F01604070A0D101300BC210180B5
:103AA00010E0622101800DE02A2101800AE014214A
:103AB000018007E00A21018004E00521018001E086
:103AC000002101800020704728000020054991F85E
:103AD0002420002A02D04FF0FF307047C9890180AE
:103AE00000207047280000202DE9FC4180208DF83F
:103AF0000000544C6B4601222068817C606800788D
:103B0000FDF7F1F94FF0FF3610B13046BDE8FC810A
:103B10006420FEF7E3FA00258DF8005020686B461C
:103B20000122817C60680078FDF7DDF908B130463C
:103B3000ECE720686B460622817D60680078FDF71F
:103B400040F908B13046E1E79DF805009DF8031003
:103B5000C007400F01F0010140EA41019DF801005A
:103B600000F001000143012761B1012906D00229BB
:103B700006D035A0FCF7A2FB3046C7E7E77414E097
:103B8000E57412E020686B460122C1786068007815
:103B9000FDF717F908B13046B8E79DF8000000F0CE
:103BA0000F0008B3042824D0E574FF2104F80A1F8D
:103BB00004F8021C04F8011C61704FF6FF70A0802D
:103BC000A1712172A77027766576E572A572E5600E
:103BD00025616561A576E576A5834FF4FA6000F06E
:103BE000DFFB58B1304691E72148FCF767FB3046D0
:103BF0008CE720A0FCF762FBE774D6E7022000F018
:103C0000CBFA08B1304681E72A2000F035FC08B134
:103C100030467BE7322000F06DFC08B1304675E796
:103C20000020FFF7B1FD08B130466FE7002000F03B
:103C3000EDFA08B1304669E7002000F09DFC002055
:103C400064E7000028000020556E737570706F7275
:103C500074656420736F6674776172652070726F2B
:103C600064756374207265762025642E0A00000056
:103C7000885F000848616C662073656E73697469BB
:103C800076697479207061727420666F756E642E27
:103C90000A0000002DE9FF4F85B005460E46174685
:103CA000DFF8A0804FF0FF3998F82500002803D0F6
:103CB000484609B0BDE8F08F0EB1002425E0484623
:103CC000F7E7281B102800DD10201FFA80FA3019B2
:103CD000834602465146204600F0A6FC08B14846FD
:103CE000E7E701AA5146204600F0ECF808B1484643
:103CF000DFE75846524601A9FCF7C4FB10B16FF04C
:103D00000100D6E704EB0A0084B2AC42D9D3380AEA
:103D10008DF800008DF80170D8F800006B46022283
:103D2000817ED8F804000078FDF7DDF808B1484638
:103D3000BFE7012088F825000898A8F82600002091
:103D4000B7E70000280000202DE9F84304464FF0B3
:103D5000FF37282C02D93846BDE8F8832D4D4FF0A7
:103D6000070900268CB1012000F056FB20208DF8B9
:103D700000004FF00108012C1CD0052C20D88DF834
:103D80000180052000F078FB29E0002000F044FBD2
:103D90008DF800608DF8019028686B460222817CC6
:103DA00068680078FDF79FF808B13846D4E72E75AB
:103DB0000020D1E78DF80160052000F05DFB0EE0EA
:103DC000142C06D802208DF801000A2000F054FBC4
:103DD00005E003208DF80100142000F04DFB9DF854
:103DE000010009EB80108DF8010028686B46022263
:103DF000817C68680078FDF776F808B13846ABE753
:103E00000820A8722E7385F814800020FFF7BCFCF0
:103E10000020A1E7280000202DE9F8430546894647
:103E20001746274E4FF0FF3896F8240000280DD093
:103E3000B07A68B130686B460222817A7068007887
:103E4000FCF7BFFF30B14046BDE8F8834046FBE7D2
:103E50004046F9E79DF801009DF8001040EA012472
:103E6000AC4203D2002038704046EDE770684188CC
:103E7000B4EB510F12D9316800786B46497C0122AE
:103E8000FCF79FFF08B14046DEE79DF80000C00642
:103E900004D500F04FF86FF00100D5E73068EAB2C2
:103EA0004B46C17A70680078FCF78BFF08B140463A
:103EB000CAE7B4FBF5F0401E38700020C4E70000EC
:103EC000280000202DE9F8430E4690464FF0FF35BC
:103ED000B8F1000F10D0164FB97A79B1010A8DF8F8
:103EE0000010C4B28DF80140A0197C686189884235
:103EF00006D92846BDE8F8832846FBE72846F9E7B7
:103F000038686B460222017E2078FCF7ECFF08B18E
:103F10002846EFE73868F2B24346417D786800787A
:103F2000FCF74FFF08B12846E4E70020E2E7000075
:103F300028000020F8B5594D4FF0FF36A87A002828
:103F40000CD00024009428686B460122C17B68686D
:103F50000078FCF7C8FF18B13046F8BD3046F8BD10
:103F600028686B460122417968680078FCF7BBFF3E
:103F700008B13046F8BD28686B46012201796868AF
:103F80000078FCF7B0FF08B13046F8BD95F8240082
:103F900090B30C20009028686B4601220179686874
:103FA0000078FCF7A0FF08B13046F8BD3220FEF7DC
:103FB00095F8C0200090A87AC00701D0E0200090BA
:103FC00028686B460122017968680078FCF78BFF4E
:103FD00008B13046F8BD687C10B10220009000E0C6
:103FE000009428686B460122C17B68680078FCF762
:103FF0007AFF10B13046F8BD0BE0009428686B469C
:104000000122417968680078FCF76DFFB8B330464B
:10401000F1E70420009028686B4601220179686866
:104020000078FCF760FF08B13046E4E7A87C78B977
:10403000A87AC0070CD06020009028686B46012247
:10404000017968680078FCF74EFF20B13046D2E76E
:1040500040200090F1E73220FEF740F8687C10B174
:104060000120009000E0009428686B460122C17B8B
:1040700068680078FCF737FF10B13046BBE70BE00B
:104080002868064B01224179686810330078FCF7F4
:104090002AFF08B13046AEE70020ACE72800002038
:1040A0002DE9F0438BB0814688463A4D95F82400BF
:1040B000002804D0002000F035F9012600E0002699
:1040C00002A8FFF795FC04A8FFF742FC6846FFF73B
:1040D000DBFC01A8FFF7FAFCAF7A03A8FFF780FC2E
:1040E0000024002241464846FEF704FE10B1641C3D
:1040F000022CF6DB022C19D00024012205A908A805
:10410000FEF7F8FD10B1641C022CF6DB022C0FD078
:1041100005A94046FDF75CFF00F0FF0808A94846E6
:10412000FFF746FAC0B2002420B104E0002407E003
:10413000002405E00124B8F1000F01D144F002048D
:10414000FF2028726872E8724FF6FF71E981A87249
:10415000287401202873BDF8080000F021F99DF8AB
:10416000100000F019F8BDF8000000F085F9BDF866
:10417000040000F0BFF9384600F0FEF99DF80C008D
:10418000FFF702FB16B1012000F0CCF80BB020467F
:10419000BDE8F0832800002038B51B4C4FF0FF35F8
:1041A000A17A002909D0022809D004280AD00828B9
:1041B0000BD010280CD0284638BD284638BD00202A
:1041C000009007E00820009004E01020009001E03B
:1041D00018200090607A9DF80010B0EBD10F01D14B
:1041E000002038BD20686B460122C17960680078E4
:1041F000FCF779FE08B1284638BD9DF80000C008DC
:104200006072002038BD000028000020F8B5044688
:10421000434DA87CA04201D10020F8BD40484FF09A
:10422000FF36D0E90010ACB3097900786B46012263
:10423000FCF7C7FD08B13046F8BD9DF8000020F03E
:104240002000009028686B46012201796868007898
:10425000FCF749FE08B13046F8BD0320FDF73EFFEC
:104260000220009095F8220008B18220009095F875
:10427000230020B19DF8000040F030000090286835
:104280006B460122017D68680078FCF72CFEE8B3DC
:104290003046F8BDFFE7097900786B460122FCF74C
:1042A00090FD08B13046F4E7A87AC00705D09DF824
:1042B000000040F02000009004E09DF8000020F095
:1042C0002000009028686B46012201796868007818
:1042D000FCF709FE08B13046DBE70320FDF7FEFEE0
:1042E00095F8220010B18020009001E0002000909D
:1042F00095F8230020B19DF8000040F030000090B8
:1043000028686B46017D6868007800E005E00122BE
:10431000FCF7E9FD08B13046BBE7AC740020B8E714
:104320002800002038B51D4C94F82410814201D19A
:10433000002038BD0025F0B194F82500C0B1002060
:1043400000F00EFA0020FFF761FFE08C00F0D2F8D9
:10435000009560686B46012200782321FCF7C3FDBD
:10436000012084F8240000F0FBF9FFF7E3FD12E0E0
:104370004FF0FF3038BD002000F0F2F9207C0090B3
:1043800060686B46012200782321FCF7ACFD84F8BD
:104390002450FFF7CFFD002038BD0000280000208A
:1043A00038B51C4C4FF0FF35A17A00290CD0FA2803
:1043B0000CD0B0F5FA7F0CD0B0F57A7F0CD0B0F508
:1043C000FA6F0CD0284638BD284638BD0020009032
:1043D00007E00820009004E01020009001E0182081
:1043E0000090207A9DF80010B0EBD10F01D1002091
:1043F00038BD20686B460122817960680078FCF73F
:1044000072FD08B1284638BD9DF80000C008207232
:10441000002038BD2800002038B50446154D95F819
:104420002300A04201D1002038BD14B130200090FB
:1044300001E000200090A87C20B19DF8000040F031
:104440000200009095F8220020B19DF8000040F095
:104450008000009028686B460122017D6868007822
:10446000FCF741FD10B14FF0FF3038BD85F8234017
:10447000002038BD2800002038B51D4C4FF0FF3516
:10448000A17A002904D0BC2804D30120009017E0B1
:10449000284638BD622802D30220009010E02A2866
:1044A00002D3032000900BE0142802D304200090D4
:1044B00006E00A2802D30520009001E006200090C3
:1044C000E07A9DF80010884201D1002038BD2068B4
:1044D0006B460122817860680078FCF704FD08B122
:1044E000284638BD9DF80000E072002038BD00006D
:1044F00028000020F8B504461E4D4FF0FF37A87A7B
:10450000002804D095F8240018B13846F8BD384684
:10451000F8BD287D50B134B1282C04D8E0B2FFF7A3
:1045200013FC0020F8BD0020FFF70EFC4FF47A7654
:10453000042C01D2042402E0B44200D93446B6FB74
:10454000F4F0401E009028686B46012241786868AC
:104550000078FCF7C8FC08B13846F8BD9DF80000AB
:10456000401CB6FBF0F0E8814008FFF785FF002013
:10457000F8BD000028000020F8B5044614F0700FC4
:104580004FF0000602D00120009004E00CB100962C
:1045900001E040200090234D6B4601222868817C79
:1045A00068680078FCF79FFC4FF0FF3710B1AE72DF
:1045B0003846F8BD9DF8000020F0400028730096B2
:1045C000600601D404200090A00604D49DF80000E9
:1045D00040F002000090E00604D49DF8000040F096
:1045E00001000090200704D49DF8000040F038003E
:1045F000009028686B460122C17C68680078FCF74F
:1046000072FC10B1AE723846F8BD24B1082C02D04D
:104610000020FFF701FFAC722E753220FDF75EFD22
:104620000020F8BD280000202DE9F8430E469046F2
:104630004FF0FF35B8F1000F10D0164FB97A79B1AD
:10464000010A8DF80010C4B28DF80140A0197C68F1
:104650006189884206D92846BDE8F8832846FBE7E9
:104660002846F9E738686B460222017E2078FCF77D
:104670003AFC08B12846EFE73868F2B24346417D7C
:1046800078680078FCF72FFC08B12846E4E70020A2
:10469000E2E700002800002004488168012904D1D5
:1046A00000218160024909784161704700000020C3
:1046B0006800002000B589B003A906A8FFF7F0FC48
:1046C000032802D0012009B000BD02A8FFF7B0F90D
:1046D0009DED060AF8EEC00A9DED020A60EE800A22
:1046E000FDEEE00ACDED060ADDED070AF8EEE00A80
:1046F00060EE800AFDEEE00ACDED070ADDED080A66
:10470000F8EEE00A20EE800ABDEEC00A8DED080A40
:1047100006A8FEF719F801A8FFF73CF9BDF8040058
:1047200003994143039104994143049105994143FD
:10473000059103A8FDF74AFF0020C4E701460148A0
:10474000FDF706B8000C004046210148FDF700B80F
:10475000000C004001460148FCF7FABF000C004085
:10476000F8B51B4C0023224694F8246006CA5D1E4F
:10477000002E11D010B10220009000E000931078BC
:10478000C97B6B460122FCF7AEFB08B12846F8BD99
:104790009DF80000607419E0A67A26B128B1667C05
:1047A0001EB10020F8BD2846F8BD10B101200090D0
:1047B00000E000931078C97B6B460122FCF793FB65
:1047C00008B12846F8BD9DF8000060740020F8BDCF
:1047D0002800002010B50A210448FCF7B7FFBDE807
:1047E00010400A210248FCF7B1BF0000000400405D
:1047F0000008004001460148FCF7A8BF000C00403B
:1048000001460148FCF7A2BF000C0040F0B597B08C
:10481000054601214248FCF7C9FB01218804FCF749
:10482000D3FB404F07220A213846FCF731F9072213
:104830000B213846FCF72CF94FF44060159002200C
:104840008DF858008DF8590000248DF85A40012643
:104850008DF85B6015A93846FCF7DCF81195ADF8CA
:104860004840ADF84A40ADF84C40ADF850400C20FF
:10487000ADF84E002C4D11A92846FDF721F8012274
:1048800040F225512846FCF7FFFF012240F2244167
:104890002846FCF7F9FF27218DF8401003218DF8F9
:1048A00041108DF842108DF8436010A8FCF74AFBC8
:1048B000012240212846FCF7BDFF10212846FCF7C5
:1048C000A9FF01212846FCF7A9FF184D2846FBF750
:1048D00099FFF00601901448001D029014480390BF
:1048E00004942420059006942815079008940994B0
:1048F00080100A904FF440300B900C940D940E945D
:104900000F9401A92846FCF713F800212846FBF76D
:104910006CFF01212846FBF768FF17B0F0BD0000CF
:1049200002002000000402400048004028600240CD
:104930008C00002081F00041704780F000407047FB
:1049400021F00041704720F00040704721F0004204
:10495000A2F16052B2F5801F01F0004328BFD2F1EE
:104960007F6C0BD95FEA001C43EAC20242EB507035
:1049700018BF704728BF20F001007047B2F5801FB4
:10498000BCBF184670474FEA410C1CF5001F02D20D
:10499000084600F077BC70B500F0B4FA000000895A
:1049A000FFF7F6BF4FF00040A0F580007047000011
:1049B00010B591EA030F48BF83F0004300F10A836A
:1049C000841A71EB030C05D2121943EB0C03001B84
:1049D00061EB0C01DFF824E14FEA1154A4EB135C06
:1049E0001EEA430F18BF9EEA445F73D023EA0E030A
:1049F000DCF1200E21EA045143F4801332D322FA71
:104A00000CFE10EB0E0023FA0CFE41EB0E01CCF174
:104A1000200E03FA0EFE10EB0E0051F10001B1F56D
:104A2000801FCCF1200E32D201EB045112FA0EF2AB
:104A3000BDE8104058BF7047401C38BF5FEA4202D3
:104A400018BF7047002814BF20F0010041F1000199
:104A50004FEA410313F5001F38BF7047A1F1C04171
:104A600000F09EBA012A43EB0302ACF1200CDCF10A
:104A70001F0E32BF4FF0000E23FA0CF310EB0300B1
:104A800041EB0451B4EB115FD0D0A1EB045101F51F
:104A9000801149085FEA300001EB04510ED350F158
:104AA000000038BF12FA0EFE08D1BDE81040C9E779
:104AB000401C38BF5FEA4202CAD1C3E7BDE81040DC
:104AC0004FEA410313F5001F38BF7047A1F1C04101
:104AD00000F066BA9EEA445F08D011EA5E0FBDE8B6
:104AE000104004BF01F0004100207047BDE81040B5
:104AF00070B500F007FA00BF64FBBE3E0000E0FFA7
:104B00002DE9C04130B4DFF8A0C23CEA111418BF4F
:104B10003CEA131400F0EC8081EA03051CEA11144E
:104B200044EAD57418BF1CEA131500F0C780A4EB43
:104B300005044FF0004545EAC12145EAC32341EA97
:104B4000505143EA525304F17F74994204F5003402
:104B50004FEAC0204FEAC22208BF904200F09C807A
:104B60004FEA13650FF24016765D4FEA134506FBD8
:104B700005F7C7F1807706FB07F74FEAD737A7FBA2
:104B800003687642C8F58038A7FB06CE38BFA8F187
:104B9000010807FB08E64FF0000EA6FB028CE6FBBF
:104BA00003CEDCF1000CCEF1004E38BFAEF1010EA9
:104BB000A6FB0C584FF000074FF00005E6FB0E87F0
:104BC000A1FB08C6A0FB07CE16EB0E0645F10005BB
:104BD000E1FB076515F1E04E7EBFA4F580345FEA86
:104BE00046066D4116F1800745F100054FEA17278B
:104BF0004FEA066647EA0567A6F1DE46B6F1805F32
:104C00004FEA15251FD9384624F0010C05EBC47175
:104C1000BCF1FE6F01EB0C1102D8F0BCBDE80081C5
:104C200024425CBF01F5801E9EEAC47F02D4F0BC22
:104C3000BDE80081244238D4F0BCA1F1C041BDE8F8
:104C4000004100F0ADB94FEAD22242EA43524FEAA6
:104C5000D323A7FB02864FEAD02040EA415007FB4E
:104C600003661EEA0E0F4FEAD12105FB026658BF0C
:104C7000A6EB0056B6EB00564FEA520E4EEAC37E44
:104C800018EB0E0E56EB530EBDD518EB02085E4125
:104C90007F1C55F10005B6E74FF480154FF0000773
:104CA0004FF000064FF00008ADE7F0BC4FF00000F9
:104CB00001F1C04101F00041BDE8008111EA0C1F83
:104CC0000CEA131500D00CE013EA0C1F00F025804D
:104CD0004FF00000F0BC81EA030101F00041BDE8A3
:104CE0000081F0BCBDE8004181EA030100F058B941
:104CF000F0BCBDE8004170B500F004F9097EFC3E4F
:104D000000F007B881EA03014FF0000001F0004114
:104D1000704781EA030100F043B9F0BCBDE80041EF
:104D20004FF0000021497047FFFDFBF9F7F5F4F261
:104D3000F0EEEDEBE9E8E6E4E3E1E0DEDDDBDAD836
:104D4000D7D5D4D3D1D0CFCDCCCBCAC8C7C6C5C494
:104D5000C2C1C0BFBEBDBCBBBAB9B8B7B6B5B4B3AB
:104D6000B2B1B0AFAEADACABAAA9A8A8A7A6A5A496
:104D7000A3A3A2A1A09F9F9E9D9C9C9B9A9999985A
:104D80009797969595949393929191908F8F8E8EFD
:104D90008D8C8C8B8B8A898988888787868585848A
:104DA00084838382828181800000FF070000F87F76
:104DB000DFF848C170B51CEA111E1EBF1CEA1315AE
:104DC0009EEA0C0F95EA0C0F00F06F8081EA030455
:104DD00023EA4C134EEAD47E21EA4C1141F48011AF
:104DE00043F48013AE44A1FB024CA0FB0365AEF17B
:104DF0007F7E361955EB0C05A1FB034C4CF10003EB
:104E0000A0FB021C16EB0C06654153F1000309429E
:104E100018BF46F0010613F4007F0BD14FEA0331AF
:104E20004FEA0530340341EA155140EA16506FF05D
:104E300003020AE04FEAC3214FEAC520F40241EA27
:104E4000555140EA56506FF0020202EB2E4201EB40
:104E5000025585EACE710AD05FEA440C18BF24F0EF
:104E6000004450F1000041F1000120EAD47040F20A
:104E7000FE7C624500D270BDA84214BF4FF0804452
:104E80004FF04044002E08BF0024BEF1806FA8BF41
:104E9000A1F1C041BDE8704080F282804FF0000077
:104EA00001F1C04101F0004170479EEA0C0F0CEA8D
:104EB000131518BF95EA0C0F06D04FF0000081EAD9
:104EC000030E0EF0004170BD00F01CF88900013E99
:104ED00000F007B800F009B84FEA430C5FEA5C5CE9
:104EE00008D081EA030100F05BB84FEA410C5FEAA9
:104EF0005C5CF6D14FF00000014970470000FF07ED
:104F00000000F87F0EF1020E2EF0030E5EF8046B27
:104F1000364205D4012A43EB030515F5001F12D8CC
:104F2000012841EB010C1CF5001F0CD80ED14FEAF3
:104F3000D17C15F5001F0CEB4C0C0CF1020C08BFDA
:104F40004CEBD37C04E04FF0080C01E04FEAD37C3B
:104F50000CEB4C0526FA05F606F00706B6F1040C34
:104F600006D20EEB860CBDE870404CF0010C604799
:104F7000DFE80CF0090B02024FF000414FF0000097
:104F8000A1F5002170BD19461046012851EB01041E
:104F900018BFD4F5001484BF002001F0004170BD9B
:104FA0000808A0F500114FEA3101704791EA030F9C
:104FB00010B581F000413FF503AD83F0004300F0F0
:104FC00009B8000010B591EA030F48BF83F0004311
:104FD0003FF5F6AC841A71EB030C07D212198CF072
:104FE000004C43EB0C03001B61EB0C01DFF8A4E168
:104FF0004FEA1154A4EB135C1EEA430F18BF9EEA5C
:10500000445F00F0B08023EA6E03524221EA04516B
:10501000C3EB6E0338BF5B1EDCF1200E25D322FAF2
:105020000CFE10EB0E0043FA0CFE41EB0E01CCF12E
:10503000200E03FA0EFE10EB0E0051F10001CCF130
:10504000200E29D412FA0EF201EB0451BDE81040F3
:1050500058BF7047401C1CBFB2F1004F704700287A
:105060000CBF491C20F00100704712EB020E43EB0D
:10507000030218BF4FF0010E4EEA4202ACF1200CC1
:10508000DCF11E0E54D943FA0CFE10EB0E0051F168
:10509000FF31CCF11E0ED5D50EF1010E12FA0EFE27
:1050A000404141EB010101EB445C5FEA5C5C10D9DB
:1050B00010EBDE7001EB045138BFBEF1004FBDE8CC
:1050C000104018BF704700280CBF491C20F0010099
:1050D000704730D24FEAD42C11F5001124F400644B
:1050E0001BD0B1FA81F20B3AA41AA41ED2F120030C
:1050F000914030FA03F31943904001EBCC71002C3E
:1051000001EB0451BDE81040A8BF704701F1C04158
:105110004FF0000001F000417047B0FA80F310FA40
:1051200003F100D110BDE41A173C4805C90AE4E7B1
:1051300001EB045110BD491001EB0451BDE81040D2
:105140004FEA300002E04FF0000170474A0008BF0C
:105150000042F8D0B2F5001F28BF704701F00041AF
:105160004FF0000070479EEA445F07D011EA5E0FDF
:10517000BDE8104004BF002100207047BDE810408A
:1051800070B5FFF7BFFE00BF40DFF63E83F0004181
:10519000104670470000E0FF43004FEAD30C4FEA8F
:1051A0003C0C43401FBF40070CF1605113F0FE4F11
:1051B00070471CF0006F03D100200CF000417047D5
:1051C0000CF0004343EA507010B540EACC0000F008
:1051D0000EF800BF000000924FEA0001FFF7E0BEAA
:1051E0004FF000414FF00000A1F5002170470EF193
:1051F000020E2EF0030E5EF8044B244204D44FEA54
:105200004102B2F17F4F11D84FEA4003B3F17F4F13
:105210000CD80ED14FEAD07CB2F17F4F0CEB4C0C86
:105220000CF1020C08BF4CEBD17C04E04FF0080CF1
:1052300001E04FEAD17C0CEB4C0324FA03F404F0B8
:105240000704B4F1040C06D20EEB840CBDE8104048
:105250004CF0010C6047DFE80CF0070802024FF049
:105260000040A0F5800010BD0846420018BFD2F1F2
:10527000807288BF00F0004010BD4FF04070E1EE3A
:10528000100A7047FF2141EAD050C00570477519D8
:105290001A0C6A231B1C1F207274433B4138393A95
:1052A0006B6C376F06246D6E70006800000476002A
:1052B0005401F7FD00010000830000000008000019
:1052C0000001001832000500000020410000D24219
:1052D000295C0F3E9A99993E3333733F295C0F3E08
:1052E0000000700000000024000000020003000025
:1052F00000650054FFEF0000FA80000B12820001ED
:10530000030C30C30E8C8CE914D5400213710F8E40
:105310003883F8833000F883258EF8833000F883D3
:10532000FFFFFFFF0FFEA9D6240004001A8279A117
:105330000000003CFFFF00000010000038836FA257
:10534000003E03304000000002CAE3093E80000036
:10535000200000000000000040000000600000008D
:10536000000C0000000C186E000006920A16C0DF48
:10537000FFFF0256FD8CD377FFE1C496E0C5BEAABD
:1053800000000000FFFF0B2B000016570000035920
:105390004000000000001DFA00026C1D000000002B
:1053A0003FFFDFEB003EB3B6000D227800002F3C3C
:1053B00000000000001942B5000039A20000B365EA
:1053C000D90E9FC91DCF4C343000000050000000A2
:1053D0003BB67AE80064000000C80000000000004E
:1053E000100000001000FA921000225E000D229FB3
:1053F0000001000000320000FF46000063D40000FE
:105400001000000004D6000004CC000004CC000012
:1054100000001072000000400000000000000000CA
:105420000006000200050007000000000064000004
:1054300000000000000000050005006400200000DE
:105440000000000000000000000040000000030019
:1054500000000032F8980000FF650000830F000094
:10546000FF9BFC00000000000000000000000000A6
:10547000000000000000000000000000000000002C
:10548000000000000000000000000000000010000C
:1054900040000000000000060000B26A00020000A8
:1054A0000001FB830068000000D9FC007CF1FF8351
:1054B0000000000000650000006403E800640028AC
:1054C000000000250000000016A0000000001000F1
:1054D00000001000002F0000000001F40000100088
:1054E00000280000FFFF4581FFFFFA720000000066
:1054F00000000000004400050005BAC6004778A27D
:105500000000000100000000000006000000001480
:105510000000254D002F706D000005AE000C02D07C
:10552000000000000000000000000000000000007B
:10553000001B000000000000000000000000000050
:1055400000640000000800000000000000000000EF
:10555000000000000000000000000000000000004B
:10556000000000000000000000000000000000003B
:10557000000000000000000000000000000000002B
:10558000000000000000000000000000000000001B
:10559000000000000000000000000000000000000B
:1055A000001B00000000000000000000000E000EC4
:1055B00000000AC70004000000000032FFFFFF9C4B
:1055C00000000B2B0000000200000001000000643E
:1055D000FFE50000000000000000000000000000E7
:1055E00000000001000000000001000000000000B9
:1055F000000180000001800000018000002426D30B
:105600000000000000000000000600100096003CB2
:10561000000000000000000000000000000000008A
:105620000C0A4E68CDCF770950166759C619CE823D
:10563000000000000000000000000000000000006A
:10564000000000000000000017D7840003000000E5
:105650000000000000000000C7938F9D1E1B1C1956
:10566000000000000000000000000000000000003A
:105670000000000000000000020318850000400048
:105680000000000300000003000000000000000014
:1056900040000000000000000000000000000000CA
:1056A00000000000000000000000000000000000FA
:1056B00000000000000000000000000000000000EA
:1056C00000000000677DDF7E72902E554CF6E68864
:1056D00000000000000000000000000000000000CA
:1056E000D8DCB4B8B0D8B9ABF3F8FAB3B7BB8E9E78
:1056F000AEF132F51BF1B4B8B08097F1A9DFDFDF6E
:10570000AADFDFDFF2AAC5CDC7A90CC92C97F1A982
:1057100089264666B28999A92D557DB0B08AA8968A
:10572000365676F1BAA3B4B280C0B8A89711B28346
:1057300098BAA3F0240844106418B2B9B49883F15D
:10574000A329557DBAB5B1A38393F0002850F5B2D3
:10575000B6AA839328547CF1B9A3829361BAA2DAE2
:10576000DEDFDB819AB9AEF5606870F1DABAA2DFEC
:10577000D9BAA2FAB9A38292DB31BAA2D9BAA2F8F5
:10578000DF85A4D0C1BBAD83C2C5C7B8A2DFDFDF50
:10579000BAA0DFDFDFD8D8F1B8AAB38DB4980D3541
:1057A0005DB2B6BAAF8C96198F9FA70E161EB49A2B
:1057B000B8AA872C547CBAA4B08AB691325676B275
:1057C0008494A4C808CDD8B8B4B0F19982A82D5556
:1057D0007D98A80E161EA22C547C92A4F02C507812
:1057E000F184A898C4CDFCD80DDBA8FC2DF3D9BA60
:1057F000A6F8DABAA6DED8BAB2B68696A6D0F3C8AC
:1058000041DAA6C8F8D8B0B4B882A892F52C54886A
:1058100098F135D9F418D8F1A2D0F8F9A884D9C7ED
:10582000DFF8F883C5DADF69DF83C1D8F40114F14A
:10583000A8824EA884F311D182F5D992289788F1D5
:1058400009F41C1CD884A8F3C0F9D1D99782F12996
:10585000F40DD8F3F9F9D1D982F4C203D8DEDF1AF6
:10586000D8F1A2FAF9A88498D9C7DFF8F8F883C765
:10587000DADF69DFF883C3D8F40114F198A8822E27
:10588000A884F311D182F5D992509788F109F41CBC
:10589000D884A8F3C0F8F9D1D99782F149F40DD88A
:1058A000F3F9F9D1D982F4C403D8DEDFD8F1AD8899
:1058B00098CCA809F9D98292A8F57CF1883ACF94BE
:1058C0004A6E98DB6931DAADF2DEF9D88795A8F235
:1058D00021D1DAA5F9F417D9F1AE8ED0C0C3AE82CA
:1058E000C684C3A88595C8A588F2C0F1F4010EF15D
:1058F0008E9EA8C63E56F554F18872F40115F198B3
:1059000045856EF58E9E0488F142985A8E9E0688D3
:1059100069F4011CF1981E1108D0F504F11E9702DC
:1059200002983625DBF9D985A5F3C1DA85A5F3DF21
:10593000D88595A8F309DAA5FAD88292A8F578F166
:10594000881A849F26889821DAF41DF3D8879F3916
:10595000D1AFD9DFDFFBF9F40CF3D8FAD0F8DAF9DC
:10596000F9D0DFD9F9D8F40BD8F3879F39D1AFD963
:10597000DFDFF41DF3D8FAFCA869F9F9AFD0DADE5D
:10598000FAD9F88F9FA8F1CCF398DB45D9AFDFD0D7
:10599000F8D8F18F9FA8CAF38809DAAF8FCBF8D86F
:1059A000F2AD978D0CD9A5DFF9BAA6F3FAF412F28D
:1059B000D8950DD1D9BAA6F3FADAA5F2C1BAA6F3F1
:1059C000DFD8F1BAB2B68696A6D0CAF349DAA6CB2A
:1059D000F8D8B0B4B8D8AD84F2C0DFF18FCBC3A88B
:1059E000B2B68696C8C1CBC3F3B0B48898A821DB01
:1059F000718D9D71859521D9ADF2FAD88597A8282A
:105A0000D9F408D8F28D29DAF405D9F285A4C2F2C6
:105A1000D8A88D9401D1D9F411F2D88721D8F40AED
:105A2000D8F28498A8C801D1D9F411D8F3A4C8BB7E
:105A3000AFD0F2DEF8F8F8F8F8F8F8F8D8F1B8F6E0
:105A4000B5B9B08A95A3DE3CA3D9F8D85CA3D9F840
:105A5000D87CA3D9F8D8F8F9D1A5D9DFDAFAD8B12A
:105A60008530F7D9DED8F830ADDADED8F2B48C99CB
:105A7000A32D557DA083DFDFDFB591A0F629D9FBEB
:105A8000D8A0FC29D9FAD8A0D051D9F8D8FC51D93E
:105A9000F9D879D9FBD8A0D0FC79D9FAD8A1F9F9ED
:105AA000F9F9F9A0DADFDFDFD8A1F8F8F8F8F8ACF7
:105AB000DEF8ADDE8393AC2C547CF1A8DFDFDFF69B
:105AC0009D2CDAA0DFD9FADB2DF8D8A850DAA0D0C7
:105AD000DED9D0F8F8F8DB55F8D8A878DAA0D0DF0E
