:020000040800F2
:10000000F0C30120550200082F7200083557000880
:100010002B720008DF2B00080B890008000000008D
:100020000000000000000000000000009D0100082A
:100030008F42000800000000F1010008A17E0008C6
:100040006F0200086F0200086F0200086F020008CC
:100050006F0200086F0200086F0200086F020008BC
:100060006F0200086F0200086F0200086F020008AC
:100070006F0200086F0200086F0200086F0200089C
:100080006F0200086F0200086F0200086F0200088C
:10009000E52B00086F0200086F0200086F020008DD
:1000A0006F0200086F0200086F0200086F0200086C
:1000B0006F0200086F0200086F0200086F0200085C
:1000C0006F0200086F0200086F0200086F0200084C
:1000D0006F020008358300086F0200087D83000866
:1000E0006F0200086F0200086F0200086F0200082C
:1000F0006F0200086F0200086F0200086F0200081C
:100100006F0200086F0200086F0200086F0200080B
:100110006F0200086F0200086F0200086F020008FB
:100120006F0200086F0200086F0200086F020008EB
:100130006F0200086F0200086F0200086F020008DB
:100140006F020008B12F00086F0200086F0200085C
:100150006F0200086F0200086F0200088D8400081B
:100160006F0200086F0200086F0200086F020008AB
:100170006F0200086F0200086F0200086F0200089B
:100180006F0200086F020008DFF80CD001F046F99A
:1001900000480047FDCB0008F0C301202A4B196836
:1001A0000868B0E8F04F80F30988BFF36F8F4FF015
:1001B000000080F3118870470000000006480068C6
:1001C000006880F3088862B661B6BFF34F8FBFF353
:1001D0006F8F00DF00BF00BF08ED00E0DFF80C000C
:1001E000016841F470010160704700BF88ED00E0D4
:1001F000EFF30980BFF36F8F134B1A681EF0100FD7
:1002000008BF20ED108A20E9F04F106008B44FF0CD
:10021000500080F31188BFF34F8FBFF36F8F0FF043
:10022000CDFE4FF0000080F3118808BC1968086803
:10023000B0E8F04F1EF0100F08BFB0EC108A80F34A
:100240000988BFF36F8F704794040020EFF3058097
:10025000704700000648804706480047FEE7FEE773
:10026000FEE7FEE7FEE7FEE7FEE7FEE7FEE7FEE766
:10027000B17E0008890100089FED1A1AF5EE000A08
:1002800040EE010ABDEEE00AF5EEC00A10EE100ADB
:10029000F1EE10FA38BF401E00EE100A1349F7EED7
:1002A000001AB8EEC00A30EEC00ADFED0F0A20EEE9
:1002B000200AFCEEC00A10EE900AC0F3080000EE1F
:1002C000900A01EB8000F8EE600A90ED011A70EEE2
:1002D000600A90ED000A71EEE01A21EE800A00EE4D
:1002E000810A704783F9223E0000004490160108FD
:1002F000DFED190AB5EEC00A60EE200ABDEEE01A85
:1003000011EE100AF1EE10FA38BF401E00EE100A8E
:100310001349F7EE001AB8EEC00A30EEC00ADFED5E
:100320000F0A60EE200ABCEEE00A10EE100AC0F3DD
:10033000080000EE100A01EB8000B8EE400A90EDD4
:10034000011A70EEC00A90ED000A71EEE01A21EE7B
:10035000800A00EE810A704783F9223E00000044C3
:100360009016010870B405880E884468D1F804C05E
:100370005368B54208D140884988884201BF118836
:100380008D425188884203D070BC6FF002007047E4
:1003900005FB00F1880827D094ED001ADCED000A77
:1003A00094ED010ADCED011A31EE201AD4ED020AB7
:1003B00070EE211A9CED020A83ED001AC3ED011ABA
:1003C00094ED031ADCED031A30EE800A401E71EE44
:1003D000210A83ED020A04F11004C3ED030A03F1BC
:1003E00010030CF1100CD7D111F0030030D0B0F194
:1003F000004F30D200282BDD211F1B1FACF104025F
:1004000010F0010F0AD091ED010AD2ED010A091D89
:10041000121D30EE200A83ED010A1B1D400817D083
:1004200091ED010AD2ED010A401E30EE200A83ED63
:10043000010A91ED020AD2ED020A01F1080102F16E
:10044000080230EE200A83ED020A03F10803E7D127
:1004500070BC00207047B4EC010A401EFCEC010A9D
:1004600030EE200AA3EC010AF5D1F1E701804280C9
:10047000436070472DE9F34F84B0049840680090C2
:10048000486801900498B0F800E04588DFEDFE0A66
:1004900000200290B0EE600AAE4506D10888498877
:1004A000884204BF7146864504D06FF0020006B052
:1004B000BDE8F08F01985FEA010C18BFB7EE001A93
:1004C0003DD000BFBEEB0C0117D0B1F1004F80F062
:1004D0001F82002911DD021F11F0010F1CBFC2EDA8
:1004E000010A121D4B1006D0C2ED010AC2ED020A2C
:1004F00008325B1EF8D100EB8100BCF10102A0ECD8
:10050000011A19D0B2F1004F80F00882002A13DDE1
:10051000031F12F0010F1CBFC3ED010A1B1D511078
:1005200008D000BFC3ED010AC3ED020A491E03F162
:100530000803F7D100EB8200BCF1010CC2D14FF0EF
:1005400000080395002D14BFB0EE602A002000F0D3
:10055000BF8100BF009908FB05F001EB800B0199FA
:10056000DBED002A01EB80000346F0EE421AC6459F
:1005700052D9AEEB0802ABEB850112F0010F17D098
:1005800001EB850191ED000AB5EEC00AF1EE10FA1B
:1005900007DDB4EEE10AF1EE10FA09DDF0EE401AE3
:1005A00006E0B1EE400AF4EEC01AF1EE10FAF5D30F
:1005B000521031D001EB850C9CED000AB5EEC00A5B
:1005C000F1EE10FA05DDB4EEE10AF1EE10FA09DD04
:1005D00006E0B1EE400AF4EEC01AF1EE10FA01D2D4
:1005E000F0EE401A01EBC50191ED000AB5EEC00A2C
:1005F000F1EE10FA05DDB4EEE10AF1EE10FA09DDD4
:1006000006E0B1EE400AF4EEC01AF1EE10FA01D2A3
:10061000F0EE401A521ECDD1F5EEC01AF1EE10FAEE
:1006200000F07381F5EEC02A0126F1EE10FA009970
:10063000D4BFB1EE620AB0EE620AB4EE610AF1EE26
:1006400010FA1CBFAEEB0802B2F1010C47D005FB5B
:1006500008F201EB820292ED001A00BFB0EE410AEF
:1006600005FB06F4B5EEC00A00EB8404F1EE10FAC7
:10067000CCBFF0EE400AF1EE400AF4EE610AF1EE72
:1006800010FA28D1B5EB080C11D0BCF1004F7DD287
:10069000BCF1000F0BDD00BF92ED000AD1ED000AA6
:1006A000BCF1010CE2EC010AA1EC010AF4D1290031
:1006B0000ED0B1F1004F6AD2002909DD94ED000A95
:1006C000D0ED000A491EE4EC010AA0EC010AF5D1C4
:1006D000012002900BE0761CBCF1010CBED1029807
:1006E000012804D0F5EEC02AF1EE10FA7ED09BED81
:1006F000000AB5EB08009A465946064622D0B0F1EA
:10070000004F74D200281DDD091F10F0010F06D024
:10071000F0EE400A80EEA01A81ED011A091D40108A
:1007200010D000BFD1ED010A401E80EE801A81ED8D
:10073000011A91ED021AC1EE000AC1ED020A01F19F
:100740000801EFD1280026D0B0F1004F7ED200285A
:1007500021DDAAF1040110F0010F06D0D1ED010A4C
:1007600080EE801A81ED011A091D401013D000BFE0
:10077000D1ED010A401E80EE801A81ED011AD1ED03
:10078000020A80EE801A81ED021A01E0CBE0D6E089
:1007900001F10801ECD1DDE900124FF000095FEA38
:1007A0000E0773D0C14504BF01EB860102EB850241
:1007B00074D091ED000ADC465046330035D01C461B
:1007C000B6F1004F7ED2002C2FDD0B1FABF1040CD5
:1007D00016F0010F0FD0F0EE400ADCED011AB0EE7A
:1007E000601A00EEE11A83ED011A01E08DE0B1E03C
:1007F0001B1D0CF1040C741015D000BFD3ED010AC1
:100800009CED011A40EE410AC3ED010AD3ED020A44
:100810009CED021A0CF1080C40EE410AC3ED020AED
:100820000833641EEAD101EB86012B0036D0B3F108
:10083000004F72D2002B31DDA2F1040CAAF10400AA
:1008400013F0010F0CD0DCED010A00E08BE090ED1D
:10085000011A001D40EE410ACCED010A0CF1040C16
:100860005C1019D0DCED010A90ED011A40EE410A4E
:10087000CCED010ADCED020A90ED021A083040EEE0
:10088000410ACCED020A03E0000000000DE005E0A3
:10089000641E0CF1080CE5D102EB830201EB880128
:1008A0007F1E09F101097FF47DAF009808F101086E
:1008B000001D00900398401E03907FF44BAE0299F8
:1008C000012900E058E004BF06B0BDE8F08F00BF8A
:1008D000B5EEC00AF1EE10FA7FF4E9AD04990EFB13
:1008E00005F3002B4A684FF000010BD902EB810C95
:1008F0009CED000AB5EEC00AF1EE10FA02D1491CD7
:100900008B42F3D88B427FF4D2AD6FF00400CEE57A
:10091000E0EC010A491EFBD1EFE538E0E0EC010A0A
:10092000521EFBD108E692ED000AD1ED000ABCF19F
:10093000010CE2EC010AA1EC010AF4D1B7E694ED56
:10094000000AD0ED000A491EE4EC010AA0EC010AFD
:10095000F5D1BDE6D1ED000A401E80EE801AA1EC73
:10096000011AF7D1EEE6D3ED000A401E80EE801AA0
:10097000A3EC011AF7D10EE7BCEC011AD1ED000A85
:100980005B1E40EE410AE1EC010AF5D14DE7B0EC07
:10099000011AD2ED000A5B1E40EE410AE2EC010AA8
:1009A000F5D17BE72DE9F04F82B04668536801939B
:1009B000058847884B88002000900888874201BF3F
:1009C000B2F800C06545528893421EBF6FF0020026
:1009D00002B0BDE8F08F9FED412A4FEA970EC7F3B2
:1009E000400B00BFDDE9000202EB800A4A6898462E
:1009F0004FF00009B0EE420AB4465FEA0E0025D07F
:100A000092ED001ADCED001A02EB8302DCED010A24
:100A100001EE810A92ED001A02EB8302401ED2ED34
:100A2000001A02EB830200EE810A9CED021ADCED53
:100A3000030A00040CF1100C000C01EE210A92EDE7
:100A4000001A02EB830200EE810AD9D117F00300ED
:100A500026D0ACF10404A2EB830210F0010F08D001
:100A600002EB8302D4ED010A92ED001A241D00EE80
:100A7000810A5FEA0B0013D002EB830CD4ED010A6C
:100A80009CED001A02EBC302401E00EE810AD4ED79
:100A9000020A92ED001A04F1080400EE810AEBD17B
:100AA00009F10100AAEC010A1FFA80F9486800EB7D
:100AB0008902A8F101001FFA80F8B8F1000F99D15E
:100AC000009806EB8706184480B20090681E050463
:100AD0002D0C87D102B00020BDE8F08F000000008F
:100AE00070B405880E884468D1F804C05368B542D4
:100AF00008D140884988884201BF11888D425188B9
:100B0000884203D070BC6FF00200704705FB00F113
:100B1000880827D094ED001ADCED000A94ED010A54
:100B2000DCED011A31EE601AD4ED020A70EE611AA2
:100B30009CED020A83ED001AC3ED011A94ED031A2D
:100B4000DCED031A30EEC00A401E71EE610A83ED3F
:100B5000020A04F11004C3ED030A03F110030CF1BF
:100B6000100CD7D111F0030030D0B0F1004F30D2CB
:100B700000282BDD211F1B1FACF1040210F0010F18
:100B80000AD091ED010AD2ED010A091D121D30EEC5
:100B9000600A83ED010A1B1D400817D091ED010A80
:100BA000D2ED010A401E30EE600A83ED010A91ED9C
:100BB000020AD2ED020A01F1080102F1080230EE48
:100BC000600A83ED020A03F10803E7D170BC00203C
:100BD0007047B4EC010A401EFCEC010A30EE600ADA
:100BE000A3EC010AF5D1F1E72DE9F04F028847683F
:100BF000B0F802804888D1F8049082B04FF0000A23
:100C00001646824207BF098888456FF0020002B08D
:100C100018BFBDE8F08F4FEA980B02EB420001903D
:100C2000C8F34000CDF8000009EB8A01BBF1000FCA
:100C300033D0019801EB820C01EB80043B46E64681
:100C400001EBC2054FEA0B0093ED000A401E81ED57
:100C5000000A93ED010A01EB02118CED000A93EDFD
:100C6000020A0CEB021C85ED000A93ED030A05EB6A
:100C7000021584ED000A04EB021403F11003E3D122
:100C80000EEB820000EB820000EB8201ABF1010071
:100C9000504307EB0B1701EB001118F0030C21D0A8
:100CA0003B1FA1EB82011CF0010F06D093ED010A5E
:100CB00001EB82011B1D81ED000A009880B100BF8D
:100CC00093ED010A01EB820401EBC20184ED000AFD
:100CD00093ED020A401E81ED000A03F10803EFD1F3
:100CE00007EB8C070AF101001FFA80FA701E060458
:100CF000360C99D102B00020BDE8F08F40EA010324
:100D00009B0703D009E008C9121F08C0042AFAD2C1
:100D100003E011F8013B00F8013B521EF9D2704785
:100D2000D2B201E000F8012B491EFBD2704700222D
:100D3000F6E710B513460A4604461946FFF7F0FFDA
:100D4000204610BD2DE9FE4F804681EA0300C00F0A
:100D50000C46009021F0004123F00045B8EB020062
:100D6000A94105D24046214690461C460B46024604
:100D700023F00040104347D0270DC7F30A00C3F308
:100D80000A510290401A019040286BDAC3F3130015
:100D900040F4801B0098924620B10023D2EB030A56
:100DA00063EB0B0B01985946C0F14002504600F02E
:100DB00016FA06460D4650465946019A00F01EFAAC
:100DC00010EB08006141002487EA115284EAE773BE
:100DD0001A4340D0009A62B3019A012A4FEA07529F
:100DE00015DC001B61EB02014FF0004202EA0752E2
:100DF000CDE90042001C41F5801132462B4600F03F
:100E000055FA03B0BDE8F08F40462146F9E7001BD4
:100E100061EB0201001C41F5801300185B412018B2
:100E2000A2F5001747EB030140EAD570B6196D41F2
:100E300011E06D084FEA360645EAC0754FEA0752E1
:100E4000001B61EB0201001C41F5801149084FEACB
:100E500030000019514132462B4603B0BDE8F04F37
:100E600000F015BA0098012240000023D0EB0202E6
:100E700063EBE073009821464FEAE074B8EB0000A2
:100E800061EB0401E9E783F000435BE781F0004197
:100E900058E72DE9FE4F81EA030404F0004421F0F5
:100EA000004100944FF0000B23F0004350EA01048E
:100EB0005ED052EA03045BD0C3F30A54C1F30A556F
:100EC0002C44A4F2F3340194A0FB0254C1F31301A7
:100ED00041F48011C3F3130343F4801301FB024474
:100EE00000FB034E840A970A44EA815447EA835779
:100EF000A4FB076802958D0A05FB07854FEA932C32
:100F000004FB0C542705029D4FEA065847EA1637A2
:100F1000B5EB08056EEB070C870E920E47EA8117BA
:100F200042EA8312A7FB0201B6EB0B0164EB00045B
:100F30002B0D43EA0C335E1844EB1C50DA46514645
:100F4000E7FB0201C5F313044FEA0B3343EA1453E2
:100F50004FEA0432019C43EA0603A4F10C04029414
:100F6000009CCDE900B400F0A1F903B0BDE8F08F1A
:100F700000200146F9E72DE9F04D81EA030404F071
:100F8000004B21F0004514464FF0000A23F00041C9
:100F900050EA050220D054EA01021DD0C5F30A57D9
:100FA0000246C5F31303C1F31300C1F30A5640F41C
:100FB000801543F48013A7EB0608101BD64608F2F1
:100FC000FD3873EB050002D308F1010801E0921827
:100FD0005B41B8F1000F03DA00200146BDE8F08D57
:100FE00000204FF48011064684460EE0171B73EB79
:100FF000050705D3121B63EB050306434CEA010CFE
:1010000049084FEA300092185B4150EA0107EDD1E0
:1010100052EA030012D082EA040083EA0501084381
:1010200005D0101BAB4106D20122002306E00022AE
:101030004FF0004302E06FF0010253101AEB06007C
:101040004CEB085110EB0A0041EB0B01BDE8F04DF1
:1010500000F01DB90EB5C10F80EAE0700844CA0760
:10106000002140F233438DE80E000A460B4600F0A3
:101070001DF903B000BD0EB540F2334102910021CD
:10108000CDE900110A460B4600F010F903B000BD8F
:1010900000F0004230F000400AD0C10D01F560714F
:1010A000C0F3160042EA0151C208400711437047DD
:1010B000002001467047000030B5041E71F10004A5
:1010C00004DB4FF00044404264EB0101141E73F155
:1010D000000405DB1C464FF00043524263EB04035F
:1010E0008B4208BF824230BD30B5041E71F100044E
:1010F00004DB4FF00044404264EB0101141E73F125
:10110000000405DB1C464FF00043524263EB04032E
:10111000994208BF904230BD01F0004330B421F045
:10112000004150EA010206D00A0DA2F56072C1F337
:101130001301002A02DC30BC00207047440F44EA4F
:10114000C104C100E01830BC00EBC25000F068B828
:1011500030B50B46014600202022012409E021FA87
:1011600002F59D4205D303FA02F5491B04FA02F584
:101170002844151EA2F10102F1DC30BD2DE9F05F1B
:101180000546002092469B468846064681464024F6
:101190001BE0284641464746224600F051F9534697
:1011A0005A46C01A914110D311461846224600F003
:1011B00016F82D1A67EB01084F4622460120002140
:1011C00000F00DF817EB00094E41201EA4F10104B8
:1011D000DFDC484631462A464346BDE8F09F202AD8
:1011E00004DB203A00FA02F1002070479140C2F17E
:1011F000200320FA03F3194390407047202A06DBAE
:10120000CB17203A41FA02F043EAE07306E041FAD4
:1012100002F3D040C2F120029140084319467047C2
:101220000029A8BF7047401C490008BF20F00100FA
:10123000704710B4B0FA80FC00FA0CF050EA0104D8
:1012400004BF10BC704749B1CCF1200421FA04F46A
:1012500011FA0CF118BF012121430843A3EB0C0143
:10126000CB1D4FEA00614FEA102042BF002010BCA6
:10127000704700EBC35010440029A4BF10BC704756
:10128000401C490008BF20F0010010BC704710B599
:10129000141E73F1000408DA401C41F10001921899
:1012A0005B411A4301D120F0010010BD2DE9F04D42
:1012B00092469B4611B1B1FA81F202E0B0FA80F297
:1012C00020329046FFF78BFF04460F4640EA0A00A3
:1012D00041EA0B0153465A46084313D0114653EADC
:1012E000010019D0C8F14002504600F0A9F80546A7
:1012F0000E46504659464246FFF771FF084305D057
:10130000012004E020463946BDE8F08D0020054369
:1013100046EAE0762C4337430A986305E40AA0EBDB
:1013200008000022FD0A44EA47540A3002D5002092
:101330000146E9E7010510196941DDE90845001991
:101340006941BDE8F04DA2E72DE9F04D00231A46B2
:101350001B1A8A4103DB00200146BDE8F08DC1F372
:101360000A52C1F3130141F480154FF0000BD1076D
:1013700002D100186D41521E0027044640F2FF11B1
:10138000384601EB620A3E468046024600204FF492
:10139000801100F055F8C2197141BB1846EB0100ED
:1013A000B4EB030C75EB000C04D3E41A65EB0005F9
:1013B00017460E46241908F101006D418046342875
:1013C000E3DDF91946EB0600091BA84103D24FF0F3
:1013D000FF32134601E0002213461BEB070046EBE9
:1013E0000A51BDE8F04DFFF752BFC1F30A52C1F3F5
:1013F000130140F2FF3341F480119A4202DA0020D7
:101400000146704740F233439A42A2F2334202DC73
:10141000524200F015B8FFF7E2BE0000064C074D3F
:1014200006E0E06840F0010394E8070098471034B4
:10143000AC42F6D3FEF7ACFEA8200108C820010894
:10144000202A04DB203A21FA02F00021704721FA19
:1014500002F3D040C2F12002914008431946704780
:1014600070B5C1F30A5201F000450024C1F3130125
:1014700040F2FF3341F480119A4201DA002070BD3E
:1014800040F233439A42A2F2334203DC5242FFF766
:10149000D7FF00E090402C43F1D0404270BD70B5C2
:1014A0008C1810F8015B15F0070301D110F8013B0F
:1014B0002A1106D110F8012B03E010F8016B01F896
:1014C000016B5B1EF9D12B0705D40023521E0DD4EE
:1014D00001F8013BFAE710F8013BCB1A921C03E03C
:1014E00013F8015B01F8015B521EF9D5A142D8D374
:1014F000002070BD30B52DED0C8BD9B09FEDA90A41
:10150000F0EE408A9FEDA70AB0EE409A9FEDA50A43
:10151000F0EE409A002462E0A34A911E881E04F077
:101520003EFDA148001FB0F9000000EE100AB8EE21
:10153000C00ADFED9E0A80EE201AB0EE000A21EE0E
:10154000000ADFED9B0A20EE200A8DED250A964861
:10155000001FB0F9020000EE100AF8EEC00A9FED7D
:10156000931A80EE810AF0EE000A20EE200ADFEDE9
:10157000900A20EE200A8DED240A8B48001FB0F956
:10158000040000EE100AF8EEC00A9FED881A80EE03
:10159000810AF0EE000A20EE200ADFED850A20EE37
:1015A000200A8DED230A23AA24A925A809F0D6F83C
:1015B0009DED250A38EE800AF0EE408A9DED240A62
:1015C00039EE000AB0EE409A9DED230A39EE800A0A
:1015D000F0EE409A03200BF0E1FC601CC4B2642CD6
:1015E0009ADB9FED740AC8EE800ACDED250A9FEDC7
:1015F000710AC9EE000ACDED240A9FED6E0AC9EE0C
:10160000800ACDED230ADDED250A60EEA00A9DEDEE
:10161000241ADDED241A41EE210A9DED231ADDED99
:10162000231A41EE210AB0EE600A0BF0C5FCB0EEC1
:10163000408A9DED250AC0EE080A10EE905A284611
:10164000FFF726FD41EC1B0BB0EE4B0AF0EE6B0AE8
:1016500007F09AF9B0EE40AAF0EE60AA9FED560BA3
:1016600053EC102B51EC1A0BFFF713FC55915490CF
:101670009DED230AB1EE400A10EE100AFFF708FDB7
:1016800041EC1C0B9DED240AB1EE400A10EE100A4D
:10169000FFF7FEFC41EC1D0BB0EE4C1AF0EE6C1A9D
:1016A000B0EE4D0AF0EE6D0A07F08AFCB0EE40BADB
:1016B000F0EE60BA9FED400B53EC102B51EC1B0B7E
:1016C000FFF7E7FB41EC1A0B9FED3D0B53EC102BA2
:1016D000FFF7D9FB539152909FED3B0B8DED560BCD
:1016E0009DED562B9DED541B9DED520B10A801F066
:1016F00053F8482210A940A8FFF700FB402242A956
:101700006846FFF7FBFA10A8419B409A05F05CFD84
:10171000482210A92EA8FFF7F1FA382232A968460C
:10172000FFF7ECFA2EA80FC804F034FE8DED260B5F
:101730008DED281B8DED2A2B8DED2C3B9DED261B71
:10174000B0EE410AF0EE610A51EC100BFFF7E4FC39
:101750001F4908609DED281BB0EE410AF0EE610ABA
:1017600051EC100BFFF7D8FC1A4908609DED2A1BBD
:10177000B0EE410AF0EE610A51EC100BFFF7CCFC21
:10178000154908609DED2C1BB0EE410AF0EE610A90
:1017900051EC100BFFF7C0FC1049086059B0BDECCC
:1017A0000C8B30BD00000000942700200000004793
:1017B0000AE81C410000C84200000000DCA54C40C3
:1017C00000000000008066400000000000000000F3
:1017D00024040020280400202C04002030040020D1
:1017E0000EB52A4A911E881E04F0D9FB2748001F17
:1017F000B0F9000000EE100AB8EEC00ADFED240ACE
:1018000080EE201AB0EE000A21EE000ADFED210A78
:1018100020EE200A8DED020A1C48001FB0F90200DC
:1018200000EE100AB8EEC00A9FED191AC0EE010AC8
:10183000B0EE000A20EE800ADFED160A20EE200A44
:101840008DED010A1148001FB0F9040000EE100AE6
:10185000B8EEC00A9FED0E1AC0EE010AB0EE000A03
:1018600020EE800ADFED0B0A20EE200A8DED000A43
:101870006A4601A902A808F071FF9DED001ADDED8E
:10188000010A9DED020A00F0F5FE0EBD942700202E
:10189000000000470AE81C4100B5B5B0FE4890EDD5
:1018A000000A20EE000A8DED1F0A90ED000AFB48A9
:1018B000D0ED000A20EE200A8DED1E0AF64890EDCC
:1018C000000AF748D0ED000A20EE200A8DED1D0A2F
:1018D000F14890ED000AF348D0ED000A20EE200A0E
:1018E0008DED1C0AED4890ED000A20EE000A8DED0A
:1018F0001B0A90ED000AEA48D0ED000A20EE200A0B
:101900008DED1A0AE54890ED000AE648D0ED000A90
:1019100020EE200A8DED190AE14890ED000A20EE34
:10192000000A8DED180A90ED000ADE48D0ED000A9D
:1019300020EE200A8DED170A90ED000A20EE000A35
:101940008DED160AD84890ED040A8DED150A90ED3C
:10195000050A8DED140A90ED060A8DED130A90ED3F
:10196000000A8DED120A90ED010A8DED110A90ED3D
:10197000020A8DED100A90ED070A8DED0F0A90ED29
:10198000080A8DED0E0A90ED090A8DED0D0A03F09F
:1019900061FEC64880ED000BC54890ED000B53EC8E
:1019A000102BC24890ED000B51EC100BFFF76BFAB7
:1019B000CDE90A019DED0A0B51EC100BFFF7ACFBD2
:1019C00000EE100A9FEDBB1AC0EE010ACDED0C0A25
:1019D0000C98FFF75DFBCDE92401B44890ED000BB6
:1019E000B34880ED000B9DED120A20EE000ADDEDFC
:1019F000110A00EEA00ADDED100A00EEA00A8DED3E
:101A00000C0A9DED0C0A0AF00FFF8DED340A9DEDD6
:101A1000120ADDED340A20EE200A8DED120A9DED4A
:101A2000110ADDED340A20EE200A8DED110A9DED3C
:101A3000100ADDED340A20EE200A8DED100A9DED2E
:101A40000F0A20EE000ADDED0E0A00EEA00ADDED21
:101A50000D0A00EEA00A8DED0C0A9DED0C0A0AF0AD
:101A6000E3FE8DED340A9DED0F0ADDED340A20EE24
:101A7000200A8DED0F0A9DED0E0ADDED340A20EEF1
:101A8000200A8DED0E0A9DED0D0ADDED340A20EEE3
:101A9000200A8DED0D0A9DED150ADFED870A20EE77
:101AA000200A8DED150A9DED140ADFED830A20EE64
:101AB000200A8DED140A9DED130ADFED7F0A20EE5A
:101AC000200A8DED130A9DED150ADFED7C0A20EE4C
:101AD000200A8DED150A9DED140ADFED780A20EE3F
:101AE000200A8DED140A9DED130ADFED740A20EE35
:101AF000200A8DED130A1598FFF7CAFACDE90801FF
:101B00009DED080B07F0B8FB8DED0A0B9FED6C0BFC
:101B100053EC102B9DED0A0B51EC100BFFF7CCFA98
:101B200003D29FED690A8DED150A1498FFF7B0FAFC
:101B3000CDE908019DED080B07F09EFB8DED0A0B2A
:101B40009FED5F0B53EC102B9DED0A0B51EC100B2E
:101B5000FFF7B2FA03D29FED5C0A8DED140A1398D9
:101B6000FFF796FACDE908019DED080B07F084FB1D
:101B70008DED0A0B9FED520B53EC102B9DED0A0BD4
:101B800051EC100BFFF798FA03D29FED4F0A8DED41
:101B9000130A9DED0F0AF0EE000A60EE200A9DED9B
:101BA000180AB6EE001A31EE401A9DED160A31EE13
:101BB000400A60EE800A9DED0E0AB0EE001A60EE5B
:101BC000011A9DED1A0A9DED1C1A30EE411AB0EE75
:101BD000600A01EE810ADDED0D0AB0EE001A60EE3A
:101BE000811ADDED190A9DED1D1A70EE810A01EED4
:101BF000A00A8DED330A9DED0F0AF0EE000A20EEEB
:101C0000201A9DED1A0ADDED1C0A30EE200A21EEA5
:101C1000000ADDED0E0AB0EE001A20EE811ADDEDAD
:101C20001B0AF6EE001A71EEE01ADDED160A71EEEF
:101C3000E00A01EE200ADDED0D0AB0EE001A60EEBA
:101C4000811ADDED170A9DED1E1A70EEC10A01EE34
:101C5000A00A8DED320A9DED0F0AF0EE000A20EE8B
:101C6000201A9DED190ADDED1D0A30EE600A21EE05
:101C7000000ADDED0E0AB0EE001A60EE811ADDED0D
:101C8000170A9DED1E1A70EE810A01EEA00ADDED25
:101C90000D0AB0EE001A19E02404002028040020E8
:101CA0002C0400203004002068270020700400204D
:101CB000680400200000FA44F8C1F93C35FA8E3C73
:101CC000FA7E6ABC7493683F0000000020EE811A1F
:101CD000DDED1B0AF6EE001A71EEE01ADDED180AD2
:101CE00071EEE00A01EE200A8DED310A9DED330A16
:101CF00060EE000A9DED320A40EE000ACDED070AC3
:101D00000798FFF7C5F9CDE908019DED080B07F02D
:101D100023FB8DED0A0B9DED0A0B51EC100BFFF729
:101D2000FBF930909DED310A8DED2F0A9DED190ADA
:101D3000DDED1D0A30EE600AF0EE000A20EE200A0A
:101D40008DED2E0A9DED1E0ADDED170A30EE200AFC
:101D5000F0EE000A20EE200A8DED2D0A9DED1F0AFF
:101D6000DDED1B0A70EE600A9DED180A70EEC00AE8
:101D70009DED160A30EE800A8DED2C0A9DED300A9D
:101D8000F0EE000A60EE200A9DED180AB6EE001A89
:101D900031EE401A9DED160A31EE400A60EE800ADF
:101DA0009DED2F0AB0EE001A60EE011A9DED190AA2
:101DB0009DED1D1A30EE411AB0EE600A01EE810A67
:101DC0008DED2B0A9DED300AF0EE000A20EE201A70
:101DD0009DED1A0ADDED1C0A30EE600A61EE000A84
:101DE0009DED2F0AB0EE001A60EE011A9DED1E0A5D
:101DF0009DED171A30EE011AB0EE600A01EE810A6D
:101E00008DED2A0A9DED300AF0EE000A20EE201A30
:101E10009DED1D0ADDED190A30EE200A61EE000A83
:101E20009DED2F0AB0EE001A20EE011A9DED1B0A5F
:101E3000F6EE001A71EEC01A9DED180A71EEC01A86
:101E4000B0EE600A01EE210A8DED290ADDED110ADE
:101E50009DED2C0A60EE800A9DED101A9DED2D0A75
:101E600041EE400A9DED0E1A9DED290A21EE001A61
:101E7000DDED0D1A9DED2A0A01EEC01A30EE810A41
:101E80008DED280ADDED100A9DED2E0A60EE800A28
:101E90009DED121A9DED2C0A41EE400A9DED0D1AA2
:101EA0009DED2B0A21EE001ADDED0F1A9DED290A9A
:101EB00001EEC01A30EE810A8DED270ADDED120A1F
:101EC0009DED2D0A60EE800A9DED111A9DED2E0A02
:101ED00041EE400A9DED0F1A9DED2A0A61EE001AAF
:101EE0009DED0E1A9DED2B0A41EE401A30EEA10A2F
:101EF0008DED260A9DED150A20EE000ADDED140A8F
:101F000000EEA00ADDED130A00EEA00A8DED070A2F
:101F10000798FFF7BDF8CDE908019DED080B07F024
:101F20001BFA8DED0A0B9DED0A0B51EC100BFFF720
:101F3000F3F834909DED340ADFEDFE0AB4EEE00ACA
:101F4000F1EE10FA7DD29DED280A5FEDA10A20EE98
:101F5000200A8DED030A0398FFF79AF8CDE90401F2
:101F60009DED240B53EC102B9DED040B51EC100B4D
:101F7000FEF78FFFCDE90801EF480068FFF788F80A
:101F8000CDE906019DED080B53EC102B9DED060BE2
:101F900051EC100BFEF7D6FECDE90A019DED0A0BC0
:101FA00051EC100BFFF7B8F8E34908609DED270AE4
:101FB0005FEDBB0A20EE200A8DED030A0398FFF7C0
:101FC00067F8CDE904019DED240B53EC102B9DED3A
:101FD000040B51EC100BFEF75CFFCDE90801D7486C
:101FE0000068FFF755F8CDE906019DED080B53ECAD
:101FF000102B9DED060B51EC100BFEF7A3FECDE967
:102000000A019DED0A0B51EC100BFFF785F8CB4947
:1020100008609DED260A5FEDD40A20EE200A8DEDC2
:10202000030A0398FFF734F8CDE904019DED240B72
:1020300053EC102B9DED040B51EC100BFEF729FF18
:1020400000E049E0CDE90801BD480068FFF720F84D
:10205000CDE906019DED080B53EC102B9DED060B11
:1020600051EC100BFEF76EFECDE90A019DED0A0B57
:1020700051EC100BFFF750F8B14908609DED150ABF
:10208000DDED280AB0EE001A01EE200AAA48D0EDD4
:10209000000A30EE200A8DED150A9DED140ADDEDE3
:1020A000270AB0EE001A01EE200AA448D0ED000A7B
:1020B00030EE200A8DED140A9DED130ADDED260A9F
:1020C000B0EE001A01EE200A0846D0ED000A30EE0C
:1020D000200A8DED130A1DE09DED150ADDED280A9D
:1020E000B7EE001A01EE200A8DED150A9DED140AD7
:1020F000DDED270AB7EE001A01EE200A8DED140A75
:102100009DED130ADDED260AB7EE001A01EE200A56
:102110008DED130A8B4890ED000AF1EE400A9DED1B
:10212000150A20EE800A884890ED001ADDED140AA9
:1021300001EE600A854890ED001ADDED130A01EE0C
:10214000600A8DED030A0398FEF7A2FFCDE90401B2
:102150009DED240B53EC102B9DED040B51EC100B5B
:10216000FEF797FECDE9080179480068FEF790FF79
:10217000CDE906019DED080B53EC102B9DED060BF0
:1021800051EC100BFEF7DEFDCDE90A019DED0A0BC7
:1021900051EC100BFEF7C0FF23906D48D0ED000A04
:1021A0009DED150A20EE800A674890ED001ADDEDDE
:1021B000130A01EE200A654890ED001ADDED140ABD
:1021C00001EE600A8DED030A0398FEF761FFCDE989
:1021D00004019DED240B53EC102B9DED040B51ECF1
:1021E000100BFEF756FECDE9080156480068FEF7D1
:1021F0004FFFCDE906019DED080B53EC102B9DED33
:10220000060B51EC100BFEF79DFDCDE90A019DED8B
:102210000A0B51EC100BFEF77FFF22904C48D0EDDB
:10222000000A9DED140A20EE800A464890ED001A3F
:10223000DDED130A01EE600A444890ED001ADDED71
:10224000150A01EE200A8DED030A0398FEF720FF20
:10225000CDE904019DED240B53EC102B9DED040BF7
:1022600051EC100BFEF715FECDE908013648006869
:10227000FEF70EFFCDE906019DED080B53EC102B88
:102280009DED060B51EC100BFEF75CFDCDE90A014C
:102290009DED0A0B51EC100BFEF73EFF21902C48F0
:1022A000D0ED000A9DED130A20EE800A254890ED3E
:1022B000001ADDED140A01EE200A234890ED001A01
:1022C000DDED150A01EE600A8DED030A0398FEF7B5
:1022D000DFFECDE904019DED240B53EC102B9DEDA9
:1022E000040B51EC100BFEF7D4FDCDE908011748A3
:1022F0000068FEF7CDFECDE906019DED080B53EC1D
:10230000102B9DED060B51EC100BFEF71BFDCDE9DC
:102310000A019DED0A0B51EC100BFEF7FDFE20901B
:102320009DED230A60EE000A9DED220A40EE000AB0
:1023300010E000009CC4A03E180400201C040020F3
:1023400020040020280400202C0400203004002059
:10235000240400209DED210A40EE000A9DED200A94
:1023600040EE000ACDED0C0A9DED0C0A0AF05CFA75
:102370008DED340A9DED230ADDED340A20EE200AAE
:10238000B04880ED000A9DED220ADDED340A20EE12
:10239000200AAD4880ED000A9DED210ADDED340AEA
:1023A00020EE200AA94880ED000A9DED200ADDED0F
:1023B000340A20EE200AA64880ED000AA54890EDD8
:1023C000000AA54880ED000AA04890ED000AF8EE4A
:1023D000000A20EE200AD0ED000A20EE200A9C48D8
:1023E000D0ED000AB0EE001A60EE810A90ED001AFE
:1023F00000EEC10AF7EE000A30EE200A8DED010A68
:102400000198FEF745FECDE904018F4890ED000AE2
:10241000F0EE000A20EE200A8C48D0ED000A20EEF3
:10242000200A8848D0ED000AB0EE001A60EE810A5A
:10243000874890ED001A00EE810A8DED010A01989F
:10244000FEF726FECDE902019DED041B9DED020B7A
:1024500006F0B6FD8DED060B9DED060B51EC100B55
:1024600081F000419FED7D0B53EC102BCDE908016D
:102470009DED080B51EC100BFEF70BFDCDE90A01A9
:102480009DED0A0B51EC100BFEF746FE71490860FA
:102490006D4890ED000AF8EE000A20EE200A6C4824
:1024A000D0ED000A20EE200A6648D0ED000AB0EE1A
:1024B000001A60EE810A654890ED001A00EE810A6C
:1024C0008DED030A0398FEF7E3FDCDE904019DEDD0
:1024D000040B06F059FA8DED060B9DED060B51EC41
:1024E000100B81F000419FED5D0B53EC102BCDE9FB
:1024F00008019DED080B51EC100BFEF7CAFCCDE96D
:102500000A019DED0A0B51EC100BFEF705FE554933
:1025100088604D4890ED000AF8EE000A20EE200A8F
:10252000D0ED000A20EE200A4848D0ED000AB0EEB7
:10253000001A60EE810A90ED001A00EEC10AF7EE73
:10254000000A30EE200A8DED030A0398FEF7A0FD85
:10255000CDE906013D4890ED000AF0EE000A20EEBC
:10256000200A3B48D0ED000A20EE200A3548D0ED85
:10257000000AB0EE001A60EE810A334890ED001AAE
:1025800000EE810A8DED030A0398FEF781FDCDE987
:1025900004019DED061B9DED040B06F011FD8DED74
:1025A000080B9FED2E0B53EC102B9DED080B51ECFF
:1025B000100BFEF76EFCCDE90A019DED0A0B51EC04
:1025C000100BFEF7A9FD2749C860224890ED000ACC
:1025D0002148D0ED000A30EE600ADFED230AB4EEA8
:1025E000E00AF1EE10FA05DB20480068401E1F49A2
:1025F000086013E0174890ED000A1748D0ED000A74
:1026000030EE600ADFED1A0AB4EEE00AF1EE10FADD
:1026100004D816480068401C144908601348006834
:102620004FF4B471484300EE100AB8EEC00A0948EE
:10263000D0ED000A30EE200A0A4880ED040A35B0D9
:1026400000BD000024040020280400202C040020E9
:102650003004002038040020340400200000000072
:10266000DCA54C40F02700200000A5433C040020DE
:102670000000A5C3034880ED000AC0ED010A80ED0B
:10268000021A70476827002010B52DED048B9FEDCE
:102690003C0AB0EE408A9FED3A0AF0EE408A9FED88
:1026A000380AB0EE409A002451E0364A911E881E46
:1026B00003F075FC3348001FB0F9000000EE100A6B
:1026C000B8EEC00ADFED300A80EE201AB0EE000A44
:1026D00061EE000A9FED2D1AB0EE480A00EE810A65
:1026E000B0EE408A2748001FB0F9020000EE100A41
:1026F000B8EEC00A9FED241AC0EE010AB0EE000A3F
:1027000060EE800A9FED211AB0EE680A00EE810AA1
:10271000F0EE408A1B48001FB0F9040000EE100ADA
:10272000B8EEC00A9FED181AC0EE010AB0EE000A1A
:1027300060EE800A9FED151AB0EE490A00EE810A9C
:10274000B0EE409A03200AF029FC601CC4B2C82CE9
:10275000ABDB9FED0F0AC8EE000A0E48C0ED000A81
:102760009FED0B0AC8EE800AC0ED010A9FED080A32
:10277000C9EE000AC0ED020ABDEC048B10BD0000DA
:102780000000000094270020000000470AE81C41D8
:102790000000C842B827002031B52DED060B2DED05
:1027A000108B94B004469DED281BB0EE410AF0EE6C
:1027B000610A9FEDED1B53EC112B51EC100BFEF752
:1027C00068FB41EC180B9DED261BB0EE410AF0EEC4
:1027D000610A9FEDE51B53EC112B51EC100BFEF73A
:1027E00058FBCDE900019DED241BB0EE410AF0EE4F
:1027F000610A9FEDDD1B53EC112B51EC100BFEF722
:1028000048FB41EC190BB0EE480AF0EE680A06F0FE
:10281000CFFCB0EE40AAF0EE60AA9DED000B06F0F2
:10282000C7FCB0EE40BAF0EE60BA53EC1A2B51EC94
:102830001B0BFEF72EFBCDE90201B0EE480AF0EECD
:10284000680A06F025FDB0EE40CAF0EE60CAB0EEB0
:10285000490AF0EE690A06F0ABFCB0EE40DAF0EEA1
:1028600060DA53EC1C2B51EC1D0BFEF712FB41EC14
:102870001A0BB0EE480AF0EE680A06F099FCB0EECA
:1028800040CAF0EE60CA9DED000B06F001FDB0EE0F
:1028900040EAF0EE60EAB0EE490AF0EE690A06F0AE
:1028A000F7FCB0EE40FAF0EE60FA53EC1E2B51EC60
:1028B0001F0BFEF7EEFA41EC1D0B53EC1C2BFEF741
:1028C000E8FA41EC1B0B53EC1A2BFEF7DCFACDE9CE
:1028D0000401B0EE480AF0EE680A06F0D9FCB0EE4A
:1028E00040CAF0EE60CAB0EE490AF0EE690A06F09E
:1028F000CFFCB0EE40DAF0EE60DA53EC1C2B51EC7A
:102900001D0BFEF7C6FA41EC1A0BB0EE480AF0EECA
:10291000680A06F04DFCB0EE40CAF0EE60CA9DEDCC
:10292000000B06F0B5FCB0EE40EAF0EE60EAB0EE67
:10293000490AF0EE690A06F03BFCB0EE40FAF0EE10
:1029400060FA53EC1E2B51EC1F0BFEF7A2FA41EC80
:102950001D0B53EC1C2BFEF79CFA41EC1B0B53ECAC
:102960001A2BFEF7EFF9CDE90601B0EE480AF0EEBA
:10297000680A06F08DFCB0EE40AAF0EE60AA9DED6C
:10298000000B06F015FCB0EE40BAF0EE60BA53EC66
:102990001A2B51EC1B0BFEF77CFACDE90801B0EEC7
:1029A000480AF0EE680A06F003FCB0EE40CAF0EE0A
:1029B00060CAB0EE490AF0EE690A06F0F9FBB0EE23
:1029C00040DAF0EE60DA53EC1C2B51EC1D0BFEF7F5
:1029D00060FA41EC1A0BB0EE480AF0EE680A06F015
:1029E00057FCB0EE40CAF0EE60CA9DED000B06F059
:1029F0004FFCB0EE40EAF0EE60EAB0EE490AF0EECD
:102A0000690A06F045FCB0EE40FAF0EE60FA53ECCD
:102A10001E2B51EC1F0BFEF73CFA41EC1D0B53EC47
:102A20001C2BFEF736FA41EC1B0B53EC1A2BFEF76E
:102A300089F9CDE90A01B0EE480AF0EE680A06F01D
:102A4000B7FBB0EE40CAF0EE60CAB0EE490AF0EE55
:102A5000690A06F01DFCB0EE40DAF0EE60DA53ECE5
:102A60001C2B51EC1D0BFEF714FA41EC1A0BB0EEC7
:102A7000480AF0EE680A06F00BFCB0EE40CAF0EE31
:102A800060CA9DED000B06F003FCB0EE40EAF0EEEC
:102A900060EAB0EE490AF0EE690A06F089FBB0EE92
:102AA00040FAF0EE60FA53EC1E2B51EC1F0BFEF7D0
:102AB000F0F941EC1D0B53EC1C2BFEF7EAF941EC4D
:102AC0001B0B53EC1A2BFEF7DEF9CDE90C019DED43
:102AD000000B06F0DDFBB0EE40AAF0EE60AA51EC70
:102AE0001A0B81F00041CDE90E019DED000B06F0BF
:102AF0005FFBB0EE40AAF0EE60AAB0EE490AF0EE3D
:102B0000690A06F0C5FBB0EE40BAF0EE60BA53ECCD
:102B10001A2B51EC1B0BFEF7BCF9CDE910019DED12
:102B2000000B06F045FBB0EE40AAF0EE60AAB0EE56
:102B3000490AF0EE690A06F03BFBB0EE40BAF0EE4F
:102B400060BA53EC1A2B51EC1B0BFEF7A2F9CDE93E
:102B50001201482202A92046FEF7D0F814B0BDECBD
:102B6000108B07B030BD0000000000A046DF913F91
:102B700008B54FF4407004F097FBA82008F0DCFB88
:102B8000532144F61F6005F0C7F94FF4E13001F01E
:102B900051FD4FF4612001F0C3FD03F039F803F05B
:102BA00019F80BF0B3F8002003230822194600900F
:102BB00000F06CF90020032308221946009000F071
:102BC00021FB00BF03F0DEF90028FBD102F014FE68
:102BD00007F0EEFCFEF78EFC03F06EFB08BD00BFB5
:102BE000FEE7000010B50221064800F0D1FC38B124
:102BF000054A0021034800F0EEFD034800F006F806
:102C000010BD0000006400409C07002010B5044681
:102C10002068B0F5017F14D007DCA0F2012068B174
:102C200001280CD002287DD10AE0A0F2052000285E
:102C300079D0012878D0FB28F5D100E100BF00BF92
:102C400000BF2078401E894908700846007800EBD4
:102C50008000874931F820008449097801EB81011F
:102C6000834A02EB8101B1F90810401AB0F5805F88
:102C700010DD7E48007800EB8000114601EB8000FB
:102C8000C068401E7949097801EB810102EB81019E
:102C9000C86023E07548007800EB8000744931F883
:102CA00020007249097801EB8101714A02EB810130
:102CB000B1F90810401A10F5805F0FDA6B48007800
:102CC00000EB8000114601EB8000C068401C6749A2
:102CD000097801EB810102EB8101C860634800784B
:102CE00000EB8000624931F8200000B25F490978AA
:102CF00001EB81015E4A02EB81010881207BE17AD0
:102D000040EA01205949097801EB810122F82100AC
:102D1000A17B607B41EA002000B25449097801EBB5
:102D2000810102E09EE067E044E002EB810148801F
:102D3000217CE07B41EA002000B24C49097801EB9C
:102D4000810102EB81018880607C4849097801EBB0
:102D5000810102EB810188714448007800EB80001A
:102D6000114631F820104148007800EB800002EB5A
:102D70008000C06801EB40303C49097801EB8101DB
:102D800002EB81010861394A127802EB8202384B6A
:102D900003EB8201354A127802EB8202354B03EBDA
:102DA000C20001F0BBFD31490978891DC8B201F0AC
:102DB000EFFA58E03048008800B22F490881207BA4
:102DC000E17A40EA01202C490880A17B607B41EA3E
:102DD000002000B228494880217CE07B41EA0020A5
:102DE00000B225498880607C8871244801F0DCFDB0
:102DF000032001F0CDFA36E02148008800B22049D6
:102E00000881207BE17A40EA01201D490880A17BEE
:102E1000607B41EA002000B219494880217CE07BB8
:102E200041EA002000B216498880607C887112490E
:102E3000144801F0B9FD042001F0AAFA13E0E17A88
:102E4000207B41EA002010490880617BA07B41EA99
:102E500000200D494880E17B207C41EA00200A499E
:102E6000888000BF00BF00BF10BD00005B000020D5
:102E7000D0050020700600206C05002038070020D7
:102E800080050020100700204E0000202DE9F041B1
:102E90008AB004460D4616461F46DDF840800121E3
:102EA000084604F06FFB0121480604F07BFB01217A
:102EB000480604F087FB00214FF0007004F082FB0D
:102EC0004FF4C050089002208DF8240000208DF8A7
:102ED000260003208DF8250001208DF8270008A981
:102EE000314802F0CBFA09220B212F4802F00EFBE9
:102EF00009220C212C4802F009FB00208DF81A0051
:102F000001208DF81B0000208DF81C0001208DF899
:102F10001D0000208DF81E008DF81F008DF8168012
:102F20008DF817408DF818608DF81950ADF81470B1
:102F300005A91E4800F0C5FB00208DF80E008DF895
:102F40000F0001208DF810000020ADF80400ADF84E
:102F50000600ADF80800ADF80A00ADF80C0001203D
:102F60008DF8110001A800F08FFA012202210F480C
:102F700000F09EFB00224FF400410C4800F098FB4B
:102F800014208DF8000004208DF8010000208DF839
:102F9000020001208DF80300684604F049F9002082
:102FA0000AB0BDE8F081000000000240006400406B
:102FB00010B51021064800F0EBFA38B1054A01219E
:102FC000034800F008FC034800F006F810BD0000BC
:102FD00000680040B007002010B504462068A0F249
:102FE000012020B1012848D0022870D146E0804855
:102FF00000887F49B1F90810401AB0F5805F05DDFF
:103000007B48C068401E7A49C8600DE07848008857
:103010007749B1F90810401A10F5805F04DA744856
:10302000C068401C7249C8607148008800B270498D
:103030000881207BE17A40EA01206D490880A17B6C
:10304000607B41EA002000B269494880217CE07B36
:1030500041EA002000B266498880607C8871084699
:103060000188C06801EB403061490861614801F0A6
:1030700055FC052001F08CF9B7E000BF2078801ED8
:103080005D4908700846007800EB80005B4931F824
:1030900020005949097801EB8101584A02EB81016E
:1030A000B1F90810401AB0F5805F11DD5248007880
:1030B00000EB8000114601EB8000C068401E4E49C5
:1030C000097801EB810102EB8101C86024E08BE00B
:1030D0004948007800EB8000484931F82000464913
:1030E000097801EB8101454A02EB8101B1F9081031
:1030F000401A10F5805F0FDA3F48007800EB80003F
:10310000114601EB8000C068401C3B49097801EB87
:10311000810102EB8101C8603748007800EB800034
:10312000364931F8200000B23349097801EB8101BA
:10313000324A02EB81010881207BE17A40EA0120DA
:103140002D49097801EB810122F82100A17B607BE8
:1031500041EA002000B22849097801EB810102EB25
:1031600081014880217CE07B41EA002000B22249B5
:10317000097801EB810102EB81018880607C1E49A6
:10318000097801EB810102EB810188711A4800780E
:1031900000EB8000114631F820101748007800EB52
:1031A000800002EB8000C06801EB403012490978D2
:1031B00001EB810102EB810108610F4A127802EBF9
:1031C00082020E4B03EB82010B4A127802EB820261
:1031D0000B4B03EBC20001F0A1FB074909780A3150
:1031E000C8B201F0D5F800E000BF00BF10BD00007C
:1031F00094050020600700205A000020A805002048
:10320000200600202DE9F0418AB004460D461646FE
:103210001F46DDF840800121022004F0B3F90121AE
:10322000880604F0BFF90121880604F0CBF90021DB
:103230004FF0806004F0C6F94FF44050089002202F
:103240008DF8240000208DF8260003208DF825003D
:1032500001208DF8270008A9314802F00FF9092252
:103260000C212F4802F052F909220D212C4802F0BE
:103270004DF900208DF81A0001208DF81B00002068
:103280008DF81C0001208DF81D0000208DF81E0017
:103290008DF81F008DF816808DF817408DF8186096
:1032A0008DF81950ADF8147005A91E4800F009FA00
:1032B0000E208DF80E0000208DF80F0001208DF8F3
:1032C00010000020ADF80400ADF80600ADF80800CD
:1032D000ADF80A000120ADF80C008DF8110001A82E
:1032E00000F0D2F8012210210E4800F0E1F900228E
:1032F0004FF400410C4800F0DBF941208DF800004C
:1033000004208DF8010000208DF8020001208DF8C6
:103310000300684603F08CFF00200AB0BDE8F0818E
:10332000000402400068004000640040F0B585B031
:1033300004460D4616461F464FF4007000900020CC
:103340008DF808008DF8090008208DF80A00200A81
:103350008DF80B00E1B28DF80C10290A8DF80D10D4
:10336000E9B28DF80E10310A8DF80F10F1B28DF818
:103370001010390A8DF81110F9B28DF81210694643
:10338000024800F0A0FA05B0F0BD00000064004063
:103390002DE9F04104460D4616461F4640F2FF1047
:1033A0000C49086000200872487208208872200AC0
:1033B000C87208460473290A41738573310AC173C0
:1033C0000674390A417487740146034800F07BFA99
:1033D000BDE8F081880700200064004070B586B029
:1033E00004460D46164610490C804D8008468680DE
:1033F00040F22220019000208DF80C008DF80D0085
:1034000008208DF80E00002005E007490A5C0DF148
:103410000F010A54401C0628F7D301A9034800F005
:1034200052FA06B070BD0000540000200064004055
:1034300070B586B004460D4616464FF400700190F4
:1034400000208DF80C008DF80D0008208DF80E007E
:10345000200A8DF80F008DF81040290A8DF8111000
:103460008DF81250310A8DF813108DF81460002178
:103470008DF815108DF8161001A9024800F023FAF6
:1034800006B070BD0068004010B50021837A0122AB
:1034900002FA03F13D4A126842F001023B4B1A6006
:1034A0003A4A1C3212688A43384B1C331A60027B3A
:1034B000CAB9364A0C3212688A43344B0C331A604C
:1034C0004288C38842EA0343304A4032847A42F851
:1034D00034300288838842EA03432C4A4032847A9B
:1034E00002EBC4025360027B012A19D1274A0C3235
:1034F00012680A43254B0C331A604288038842EA5B
:103500000343224A4032847A42F83430C2888388A6
:1035100042EA03431D4A4032847A02EBC4025360FC
:10352000C27A3AB9194A121D12688A43174B1B1DF9
:103530001A6006E0154A121D12680A43134B1B1D40
:103540001A60028932B9114A143212688A430F4B49
:1035500014331A600289012A06D10C4A1432126807
:103560000A430A4B14331A60427B012A06D1074AE8
:103570001C3212680A43054B1C331A60034A126856
:1035800022F00102014B1A6010BD000000660040ED
:1035900070B504460D46002660692840002871D0A9
:1035A000B5F5807F5CD010DC082D35D006DC012D10
:1035B00020D0022D24D0042D72D127E0102D31D03F
:1035C000202D35D0402D6BD138E0B5F5004F60D0BF
:1035D00009DCB5F5007F49D0B5F5806F4CD0B5F565
:1035E000006F5DD14FE0B5F5803F2DD0B5F5003FC0
:1035F00056D12FE0A0682D4900F0EEFC064651E0C0
:10360000E068032100F0E8FC06464BE0E068082192
:1036100000F0E2FC064645E0E068102100F0DCFC2A
:1036200006463FE02069032100F0D6FC064639E05B
:103630002069082100F0D0FC064633E02069102103
:1036400000F0CAFC06462DE06068082100F0C4FCCA
:10365000064627E06068102100F0BEFC064621E027
:10366000A069012100F0B8FC06461BE0A069022118
:1036700000F0B2FC064615E0A069042100F0ACFCA5
:1036800006460FE00FE0A069702100F0A5FC064699
:1036900008E06068042100F09FFC064602E0FFE7B6
:1036A000002600BF00E00026304670BD0101010089
:1036B0001AB143690B43436102E043698B434361A1
:1036C000704730B5024600200023146824F002043D
:1036D0001460146844F00104146000E05B1C54683A
:1036E00004F001041CB94FF6FF74A342F6D15468EC
:1036F00004F001040CB900206CE08C79012C04D199
:10370000146844F08004146003E0146824F080041A
:103710001460CC79012C04D1146844F04004146086
:1037200003E0146824F0400414600C7A012C04D1E6
:10373000146844F02004146003E0146824F02004AA
:1037400014604C7A012C04D1146844F01004146005
:1037500003E0146824F0100414608C7A012C04D166
:10376000146844F00804146003E0146824F00804AA
:103770001460CC7A012C04D1146844F00404146061
:1037800003E0146824F0040414608C78A407CD7856
:1037900044EA05640D7944EA05444D7944EA055448
:1037A0000D886D1E2C43D461146824F0010414604C
:1037B000002300E05B1C546804F001041CB14FF6C8
:1037C000FF74A342F6D1546804F001040CB1002048
:1037D00000E0012030BD10B500F5D87303EB0113F4
:1037E0001B6803F004031372137A53B900F5D873FE
:1037F00003EB01131B6840F2FF7404EA5353136098
:1038000009E000F5D87303EB01131B686FF0604407
:1038100004EAD303536000F5D87303EB01131B686C
:1038200003F00203537200F5D87303EB01135B68D6
:1038300003F00F03937200F5D87303EB01135B6879
:103840001B0AD37400F5D87303EB01139B68D37282
:1038500000F5D87303EB01139B681C0A147300F581
:10386000D87303EB01139B681C0C547300F5D873D9
:1038700003EB01139B681B0E937300F5D87303EBE6
:103880000113DB68D37300F5D87303EB0113DB6816
:103890001C0A147400F5D87303EB0113DB681C0CCD
:1038A000547400F5D87303EB0113DB681B0E93749B
:1038B00021B9C36843F02003C36003E0036943F008
:1038C0002003036110BD10B502460020936803F089
:1038D0008063B3F1806F00D110E0936803F0006360
:1038E000B3F1006F01D1012008E0936803F0805329
:1038F000B3F1805F01D1022000E00420042874D0DD
:1039000002F5C07303EB00131B6803F0010402F51A
:10391000C07303EB00131C600B7A7BB94B7A0C88E5
:1039200043EA445302F5C07404EB001424682343B3
:1039300002F5C07404EB0014236010E00B7A4C68AD
:1039400043EAC4034C7A234302F5C07404EB001429
:103950002468234302F5C07404EB001423608B7ABF
:1039600003F00F038B7202F5C07303EB00135B6867
:1039700023F00F0402F5C07303EB00135C6002F543
:10398000C07303EB00135B688C7A234302F5C074A9
:1039900004EB001463608B7B1C064B7B44EA0344FE
:1039A0000B7B44EA0323CC7A234302F5C07404EB77
:1039B0000014A3608B7C1C064B7C44EA03440B7C04
:1039C00044EA0323CC7B234302F5C07404EB0014C8
:1039D000E36002F5C07303EB00131B6843F00104BE
:1039E00002F5C07303EB00131C6010BD2DE9F04F0E
:1039F000DDE90DC8DDF83C90DDE90B47DDE909564E
:103A00004FF0000A07E011F80AB0CAF1020E00F800
:103A10000EB00AF1010ABAF1030F04DA11F80AB084
:103A2000BBF1000FEFD190F803B02BF0380B0BF186
:103A3000380B80F803B090F803B062F3020B80F803
:103A400003B0B0F803B063F3891BA0F803B090F89B
:103A500004B065F3850B80F804B0B0F807B067F3E5
:103A6000090BA0F807B0B0F808B06CF38C0BA0F805
:103A700008B0B0F809B068F34F1BA0F809B0B0F86F
:103A800004B066F38E1BA0F804B0B0F805B064F380
:103A9000CF1BA0F805B04FF0000A09E099F800B07C
:103AA00000F10F0E0EF80AB009F101090AF1010A3E
:103AB000A245F3D3BDE8F08F0FB430B591B04FF607
:103AC000FF700490302214A905A8FDF717F902AC85
:103AD000A5208DF808003320ADF8090033480078A0
:103AE0008DF80B00FF220421204601F0A1FD8DF886
:103AF0000C0040F20130ADF80D004FF48870ADF8C5
:103B000000002B48008880B2ADF8020029480088E8
:103B100080B2ADF8040000BFBDF810200721204698
:103B200001F06CFD04906C46BDF810200621204683
:103B300001F064FD049005ACBDF810202D21204655
:103B400001F05CFD049002AC002504E0207804F054
:103B5000E1FB641C6D1C072DF8D36C46002504E0C6
:103B6000207804F0D7FB641C6D1C062DF8D305AC3F
:103B7000002504E0207804F0CDFB641C6D1C2D2D85
:103B8000F8D304AC002504E0207804F0C3FB641CE7
:103B90006D1C022DF8D305480078401C03490870BD
:103BA000002011B030BC5DF814FB0000BC02002006
:103BB000C0020020C402002070B59FEDAD2AB0EE17
:103BC000421A9FEDAB2AF0EE421A9FEDA92AF0EEC1
:103BD000420A8169098902EE101AB8EE422AF0EE13
:103BE000420A002113E000F50C7202EB810292ED13
:103BF000002A00F5107202EB8102D2ED002A32EEAB
:103C0000622A9C4A02EB810282ED002A491C0429A7
:103C1000E9DB984D95ED002ABDEEC22A12EE105A4E
:103C20002CB2002C01DB254600E06542914E96ED5A
:103C3000012ABDEEC22A12EE106A33B2002B01DB5C
:103C40001E4600E05E422E448A4D95ED022ABDEEEE
:103C5000C22A12EE105A2AB2002A01DB154600E0F1
:103C600055422E44834D95ED032ABDEEC22A12EE35
:103C7000105A29B2002901DB0D4600E04D423544BF
:103C800002EE105AB8EEC22A7B4D85ED002A90ED67
:103C90002D2ABDEEC22A12EE105A2CB2002C01DBE6
:103CA000264600E0664290ED3F2ABDEEC22A12EEA3
:103CB000105A2BB2002B01DB1D4600E05D422E4462
:103CC00090ED512ABDEEC22A12EE105A2AB2002AF5
:103CD00001DB154600E055422E4490ED632ABDEE0F
:103CE000C22A12EE105A29B2002901DB0D4600E06B
:103CF0004D42354402EE105AB8EEC22AF0EE421A96
:103D0000416AC97CC1F34011F1B35C490988491C7F
:103D100009B25A4A11801146B1F9001064293ADDFE
:103D2000002136E001EBC10300F1940202EBC30273
:103D300092ED082ADFED522AB4EEE22AF1EE10FAF3
:103D40000AD89FED4F2A01EBC10300F1940202EB68
:103D5000C30282ED082A1AE001EBC10300F19402CC
:103D600002EBC30292ED082ADFED462AB4EEE22A06
:103D7000F1EE10FA0BDB9FED432A01EBC10300F1DA
:103D8000940202EBC30200E005E082ED082A4A1C1F
:103D9000D1B20429C6DB416AC97CC1F34011E9BB39
:103DA0000021364A11809FED382AF4EEC20AF1EE66
:103DB00010FA10D29FED342AC0EE822A22EEA22AF7
:103DC000B0EE421A9FED312A21EE022AF1EE002ACE
:103DD00022EE220A01E09FED2E0AF4EEC01AF1EE67
:103DE00010FA31DD2349D1ED002A234991ED003A43
:103DF00082EE832A22EE002A80ED2D2A1D49D1ED84
:103E0000012A1D4991ED003A82EE832A22EE002A12
:103E100080ED3F2A1749D1ED022A00E026E016493D
:103E200091ED003A82EE832A22EE002A80ED512A9B
:103E30001049D1ED032A104991ED003A82EE832A10
:103E400022EE002A80ED632A00210DE001EBC10380
:103E500000F1940202EBC30292ED082A0D4A02EB34
:103E6000810282ED002A491C0429EFDB70BD0000AD
:103E700000000000400E002098010020AC0100204E
:103E800000803BC500803B450000704200401C465E
:103E900000401C47500E002070B52DED068B0446E7
:103EA000122518E0681E04F5947101EBC00090ED36
:103EB000000B084600EBC50080ED000B681E04F106
:103EC000080101EBC00090ED000B084600EBC500B7
:103ED00080ED000B6D1E002DE4DC94ED000B84EDF5
:103EE000020B94ED022BB0EE420AF0EE620A384863
:103EF00090ED002BB0EE421AF0EE621A53EC102B4C
:103F000051EC110BFCF7C5FF04F5947203C20125B7
:103F100049E004F5947000EBC50090ED002BB0EE85
:103F2000420AF0EE620A2B4800EBC50090ED002B30
:103F3000B0EE421AF0EE621A53EC102B51EC110B5A
:103F4000FCF7A7FF41EC180B04F1080000EBC500DB
:103F500090ED002BB0EE420AF0EE620A1C4800EB36
:103F6000C50090ED002BB0EE421AF0EE621A53EC51
:103F7000102B51EC110BFCF78CFF41EC1A0B94ED5C
:103F80004A1BB0EE410AF0EE610A53EC102BFCF72D
:103F9000D9FE41EC190B53EC182BFCF774FF04F518
:103FA000947203C26D1C132DB3DB94ED4A0B84EDA8
:103FB000920B94ED921BB0EE410AF0EE610A51ECC7
:103FC000100BFDF7A9F800EE100ABDEC068B70BDD2
:103FD00058150108F81501080246002002EA0103FD
:103FE0000BB1012000E00020704700000246094BA1
:103FF0009A4201D2084801E00648103801F0005307
:104000001BB1064B0B40C36002E0044B0B408360C6
:104010007047000010640240006002407D0F7D0F79
:104020000246094B9A4201D2084801E0064810387E
:1040300001F000531BB1064B0B40C36002E0044B80
:104040000B40836070470000106402400060024033
:104050007D0F7D0F21B1026842F00102026003E092
:10406000026822F00102026070470000016821F03E
:10407000010101600021016041608160C160016156
:10408000212141614A49884204D13D21484A103AE0
:1040900091608CE046491831884205D14FF4746133
:1040A000434A103A916082E041493031884205D15B
:1040B0004FF474113E4A103A916078E03C4948311F
:1040C000884205D14FF07461394A103A91606EE030
:1040D00037496031884204D13649354A103AD160B7
:1040E00065E033497831884204D13349304A103A87
:1040F000D1605CE02E499031884204D12F492C4A8E
:10410000103AD16053E02A49A831884205D14FF0D6
:104110003D51274A103AD16049E02949884204D1EB
:104120003D21274A083A116041E02549183188426B
:1041300005D14FF47461224A083A116037E02049F2
:104140003031884205D14FF474111D4A083A11608C
:104150002DE01B494831884205D14FF07461184A5F
:10416000083A116023E016496031884204D11149B0
:10417000134A121F11601AE011497831884204D1A4
:104180000D490F4A121F116011E00D49903188420C
:1041900004D10A490A4A121F116008E00849A831EF
:1041A000884204D14FF03D51054A121F11607047FB
:1041B000106002403D000020400F002000003D2024
:1041C0001064024021B1026842F48022026003E0E0
:1041D000026822F480220260704722B1036843F42F
:1041E0000023036003E0036823F4002303600161FC
:1041F00070470146486880B27047014600200A684F
:1042000002F400220AB1012000E000207047000003
:1042100010B500220268134B1A40CC680B68234388
:104220004C6923438C692343CC6923430C6A2343A1
:104230004C6A23438C6A23434C6B23438C6B23438C
:104240001A430260426922F00702D1E90B3423438A
:104250001A4342610B6943604B6883608B68C3609B
:1042600010BD00003F801CF04160704700210160DC
:1042700041608160C160016141618161C161016230
:1042800041628162C162016341638163704770472B
:1042900010B500203849087069E03848007800EB14
:1042A000C000374901EB8000C07CC0F3401028B14A
:1042B0004FF48051334801F04CF904E04FF4805141
:1042C000304801F048F92D480078401C00EBC00050
:1042D0002B4901EB8000C07CC0F3401028B14FF4A3
:1042E0000061284801F035F904E04FF400612548E9
:1042F00001F031F921480078801C00EBC000204912
:1043000001EB8000C07CC0F3401028B14FF4806105
:104310001C4801F01EF904E04FF48061194801F0D7
:104320001AF919480068401C1749086008460068D7
:10433000B0F5807F0BDD0421144801F00AF90F4825
:104340000078C01C0D49087000200F4908600B4818
:1043500000780C2806D104210C4801F0FCF800205C
:104360000649087004480078401C03490870024858
:104370000078032891DB10BD250200202C020020CC
:10438000741000200008024028020020000C0240A7
:1043900010B5044604EBC400454901EB80000068F9
:1043A00004EBC401424A02EB810148600CF0CAFAF6
:1043B00004EBC4013E4A02EB8101086004EBC40037
:1043C000114601EB8000C07CC0F38010B0B104EB5B
:1043D000C40001EB8000C07C20F0400004EBC4016D
:1043E00002EB8101C87404EBC400114601EB8000AC
:1043F000006804EBC40102EB8101C86004EBC40057
:104400002B4901EB8000806990B304EBC401284A7A
:1044100002EB81018869804758B304EBC40024494A
:1044200001EB8000C07C20F02000203004EBC401B0
:104430001F4A02EB8101C87404EBC400114601EB72
:104440008000C07C20F08000803004EBC40102EBCF
:104450008101C87404EBC400114601EB8000006ABE
:1044600028B304EBC40102EB8101086A80471EE017
:104470000FE0FFE704EBC4000D4901EB8000C07CB6
:1044800020F0800004EBC401094A02EB8101C874EA
:104490000DE004EBC400064901EB8000C07C20F075
:1044A000800004EBC401024A02EB8101C87410BD14
:1044B0007410002010B592B004464822584968464E
:1044C000FCF71CFC00209EE000EB40013DF81120B1
:1044D00000EBC001534B03EB8101098A62F30B012E
:1044E00000EBC00203EB8202118200EB40016A463E
:1044F00002EB41014A8800EBC00103EB8101B1F8F6
:10450000111062F30F1100EBC00203EB8202A2F85C
:10451000111000EB40016A4602EB4101097900EB02
:10452000C00203EB8202D27C61F3440200EBC001C3
:1045300003EB8101CA74002100EBC00203EB82028D
:10454000916100EBC00203EB8202D16100EBC0027B
:1045500003EB8202116200EBC0011A4602EB8101FB
:10456000C97C21F00101491C00EBC00203EB82026F
:10457000D17400EBC0011A4602EB8101C97C21F025
:104580002001203100EBC00203EB8202D17400EB6A
:10459000C0011A4602EB8101C97C21F04001403183
:1045A00000EBC00203EB8202D17400EBC0011A469B
:1045B00002EB8101C97C21F08001803100EBC00257
:1045C00003EB8202D1749FED180A10EE101A00EB73
:1045D000C00203EB8202516100EBC0011A4602EBFC
:1045E00081010C6000EBC00102EB81014C6000EB2B
:1045F000C00102EB81018C6000EBC00102EB810184
:10460000CC60411CC8B20C28FFF65EAF07490548D4
:104610000166002141660649816612B010BD0000A6
:10462000000F010874100020000000002579000828
:1046300001E7000810B588B004460121084602F0E1
:10464000A1FF0121102002F0CDFF072209213048EF
:1046500000F05CFF07220A212D4800F057FF4FF4BD
:104660000070029002208DF80C0000208DF80E00E2
:1046700003208DF80D0001208DF80F0002A92448B9
:1046800000F0FCFE4FF48060029002A9204800F088
:10469000F5FE04940020ADF81400ADF81600ADF856
:1046A00018000C20ADF81A000020ADF81C0004A979
:1046B000184804F0ABF80121164803F0BDFF0122B1
:1046C00040F22551134804F07CF8002201212D20EE
:1046D0000BF0C8FD10490860002201212D200BF0CD
:1046E000C1FD0E49086001210A4803F0A5FF2520FD
:1046F0008DF8040009208DF8050000208DF80600D3
:1047000001208DF8070001A802F092FD08B010BD4D
:104710000000024000100140D0020020D40200201E
:1047200010B598B0044612A804F0E3F810A803F0FE
:104730007DFF0121202002F055FF0121042002F01D
:1047400021FF0121202002F04DFF0121042002F071
:1047500019FF0121880502F015FF0822062168488B
:1047600000F0D4FE08220721654800F0CFFEC020EB
:10477000169002208DF85C0000208DF85D008DF809
:104780005E0001208DF85F0016A95D4800F076FEFE
:1047900012940020ADF84C00ADF84E00ADF850007A
:1047A000ADF854000C20ADF8520012A9554804F0A1
:1047B0002DF80121880502F0E5FE01224021514833
:1047C00003F046FF012280214E4803F041FF4E488E
:1047D000FFF74CFC01A8FFF749FD4FF02060019066
:1047E0004848001D029049480390002004901E2074
:1047F0000590002006904FF48060079000200890FC
:1048000009900A904FF480300B9000200C900D908E
:104810000E900F9001A93C48FFF7FAFC3A489030FF
:10482000FFF724FC01A8FFF721FD4FF02060019065
:104830003448001D02903648039040200490012027
:104840000590002006904FF48060079000200890AB
:1048500009904FF480700A9040020B9000200C9059
:104860000D900E900F9001A927489030FFF7D0FCD3
:10487000002226491E312448FFF7AFFC01212248BF
:10488000FFF7A0FC012240F224411E4803F099FFEB
:104890000020ADF84000ADF842004FF40070ADF8D4
:1048A00044000020ADF8460010A9164803F0AEFE03
:1048B00047208DF8000008208DF8010000208DF8B9
:1048C000020001208DF80300684602F0B1FC0022CE
:1048D000342132200BF0C6FC0E490860002234213E
:1048E00032200BF0BFFC0C4908600121054803F0A1
:1048F000A3FE01210448FFF7ADFB18B010BD000076
:104900000008024000140140286402400B170020F8
:1049100001170020DC020020E002002030B5002357
:104920000A88B1F90840121B02601E4C0268A242BC
:1049300007DA4268521C4260026802F50052826047
:104940000EE041F664140268A24207DD4268521E7E
:1049500042600268A2F50052826001E00268826053
:1049600050F8084F057E6A1C0276083800F10C02E8
:1049700042F8254090F82020052A02D1002280F834
:104980002020002206E000F10C0454F822402344C9
:10499000541CE2B2052AF6DB052293FBF2F24262D6
:1049A00030BD00009CE6FFFF30B500230A88B1F956
:1049B0000840121B0260026812F5805F07DA426845
:1049C000521C4260026802F5005282600DE00268EB
:1049D000B2F5805F07DD4268521E42600268A2F5B0
:1049E0000052826001E00268826050F8084F057E44
:1049F0006A1C0276083800F10C0242F8254090F853
:104A00002020052A02D1002280F82020002206E082
:104A100000F10C0454F822402344541CE2B2052A4D
:104A2000F6DB052293FBF2F2426230BD01490860D9
:104A3000704700000C3C024070B504460A46002650
:104A4000092502B909E0012A01D1160205E0022A6E
:104A500001D1160201E04FF4407600F09DF80546C2
:104A6000092D28D11548006820F4407013490860CA
:104A700008460068304308600846006820F0F800E7
:104A800008600846006844F0020108430B490860CA
:104A90000846006840F48030086000F07DF8054664
:104AA0000648006820F002000449086008460068D3
:104AB00020F0F8000860284670BD0000103C02405D
:104AC00009201349096801F48031B1F5803F01D113
:104AD00001201CE00E49096801F0100109B106200F
:104AE00015E00B49096801F4807109B102200EE05C
:104AF0000749096801F0EF0109B1072007E00449FF
:104B0000096801F0020109B1082000E0092070479E
:104B10000C3C02400348006840F000400149086036
:104B200070470000103C024030B502460C46092593
:104B300000F032F80546092D17D10D48006820F421
:104B400040700B4908600846006808600846006825
:104B500040F001000860147000F01EF8054604489B
:104B6000006820F0010002490860284630BD0000BE
:104B7000103C02400548006800F0004028B104489D
:104B800002490C390860034808607047103C024035
:104B900023016745AB89EFCD08B509200090FFF7E9
:104BA0008FFF009002E0FFF78BFF00909DF8000060
:104BB0000128F8D09DF8000008BD10B5FFF7DAFF16
:104BC000F120FFF733FF01215820FFF735FFFFF7F2
:104BD000A1FF10BD0246054B002103E0585C505474
:104BE000481CC1B23029F9DB0020704700000E08D4
:104BF00070B505460A4EFFF7E0FFFFF7BBFF002444
:104C000008E0E120FFF712FF295D3019FFF78CFF64
:104C1000601CC4B2302CF4DBFFF77CFF002070BDB9
:104C200000000E0810B5044694F8C40118B92046D7
:104C300007F0E4FD32E094F8C401012803D12046D6
:104C400006F07AFE2AE094F8C401022803D1204637
:104C500007F0F6F822E094F8C401042803D12046B6
:104C600007F03EFB1AE094F8C401052803D1204662
:104C700007F0E0F912E094F8C4010A2803D12046B5
:104C800007F08CF80AE094F8C4010B2803D1204601
:104C900007F01EFD02E0204606F04EFE10BD0000AB
:104CA00010B5044604B910BDA248007890B194ED47
:104CB000270AF2EE0E0A30EE600A9F4880ED000AE5
:104CC00094ED270AF2EE0E0A30EE200A9B4880EDA2
:104CD000000A11E094ED260AF2EE0E0A30EE600AA8
:104CE000954880ED000A94ED260AF2EE0E0A30EEA9
:104CF000200A924880ED000A2168B1F90C002D22AB
:104D0000514207F089FD2168B1F90E002D22514270
:104D100007F082FD606890ED030AFFEE000A20EEC6
:104D2000200A84ED5D0A6068B0F90000404200EEA0
:104D3000100AB8EEC00A84ED5E0AB4F86C2111B214
:104D4000D4F8EC20128810B206F08CFD00EE100AA8
:104D5000B8EEC00A7A48D0ED000A20EE200A84EDB1
:104D60005C0A94ED5C0A774880ED000A606890ED7B
:104D7000040AB1EE400A84ED270A6068B0F9040025
:104D800000EE100AB8EEC00A84ED280AB4F89420A8
:104D900011B26269128810B206F064FD00EE100ACA
:104DA000B8EEC00A6848D0ED000A20EE200A84ED73
:104DB000260A94ED270AD4ED270AB3EE0E1A70EEF8
:104DC000C10AB4EEE00AF1EE10FA08D894ED270A11
:104DD000F3EE0E0A30EE600A84ED270A14E094ED3B
:104DE000270AD4ED270AB3EE0E1A70EE810AB4EE4C
:104DF000E00AF1EE10FA07DB94ED270AF3EE0E0A53
:104E000030EE200A84ED270A94ED270A4F4880ED02
:104E1000000AA068D0F80100C4F8D001A068D0F85A
:104E20000500C4F8D4012068B0F90E0000EE900A25
:104E3000F8EEE00AB0EE600A9FED451ADFED450A94
:104E400006F022FCF0EE400A2068B0F9060000EE01
:104E5000100AB8EEC00A9FED401A20EE010A9FED3D
:104E60003F1A00EEC10AD4ED720ABFEE001A41EEFD
:104E7000000AC4ED720A2068B0F90C0000EE900A36
:104E8000F8EEE00AB0EE600A9FED311ADFED310A6C
:104E900006F0FAFBDFED320A20EE200A2068B0F9B6
:104EA000040000EE900AF8EEE00A9FED2E1A00EEE4
:104EB000810AD4ED730A30EEC00A84ED730A94EDD2
:104EC000720AFBEE0C0AB4EEE00AF1EE10FA04D816
:104ED000BBEE0C0A84ED720A0CE094ED720AF3EE5C
:104EE000040AB4EEE00AF1EE10FA03DBB3EE040AB2
:104EF00084ED720A94ED730A0F48D0ED000AB4EE07
:104F0000E00AF1EE10FA04D890ED000A84ED730A7D
:104F10000DE094ED730A0948D0ED000AB4EEE00A02
:104F2000F1EE10FA03DB90ED000A84ED730A00BF86
:104F3000B9E600006C000020700100207401002020
:104F40007C01002060000020780100205C0000202F
:104F500000003442000034C252499D39A69B443BB4
:104F6000BC74933B3480B73910B5044606F022FC7C
:104F7000606006F03BFC606106F028FCC4F8EC00C1
:104F800006F020FCA06106F02DFCF0210851F3EEA4
:104F9000040A9FED3C0A04F5CA7000F0B7FDF2EE7A
:104FA0000E0A9FED380A04F1BC0000F0AFFD364B4D
:104FB000022211463548FBF759FA334B10330222CF
:104FC000114632480830FBF751FA2F4994392F48DF
:104FD0004C3807F0A3FDDFED2B0AB7EE000A2C4892
:104FE00000F094FDDFED270AB7EE000A294800F033
:104FF0008DFD06F055FC206006F0E0FBA06006F099
:10500000A5FBE06006F022FC2061002084F8C401CA
:1050100040F677212048A0F86C1140F62301A0F853
:1050200094109FED1E2ADFED1D1AB3EE001ADFED7E
:105030001C0A9FED1B0A04F11C0000F0B3F9DFED20
:10504000190A9FED190A194A002104F14C0002F0D7
:105050002DFA9FED122ADFED111AB2EE0E1ADFEDD6
:10506000100A9FED0F0A04F1F40000F09BF9DFED48
:105070000D0A9FED0D0A0E4A002104F5927002F010
:1050800015FA10BD0000484210010020180B002046
:105090003C0A00206C0A0020540800200000000098
:1050A00000007A4400A08C46005EEA46940E010897
:1050B000880E010810B5044604B910BD94F8C50166
:1050C00040B194F8C40128B90021A4F8B810A4F89C
:1050D0009011F0E094F8C501012810D094F8C401B3
:1050E00001280CD194ED5C0A84ED720A94ED270A34
:1050F00084ED730A9FED730A84ED2B0ADBE094F8CC
:10510000C501022838D094F8C401022834D19FED9B
:105110006D1ADFED6C0AB3EE040A04F11C0006F010
:1051200027FF9FED681ADFED670A9FED670A04F11C
:105130004C0007F079FF9FED631ADFED620AB3EED2
:10514000040A04F1F40006F013FF9FED5E1ADFED90
:105150005D0A9FED5E0A04F5927007F065FF94ED1D
:105160005C0A84ED720A94ED270A84ED730A9FEDC0
:10517000550A84ED2B0A9EE094F8C501042834D02A
:1051800094F8C401042830D19FED4E1ADFED500A87
:105190009FED500A04F11C0006F0EAFE9FED491A4B
:1051A000DFED480A9FED4C0A04F14C0007F03CFF8C
:1051B0009FED441ADFED490AB3EE040A04F1F4004E
:1051C00006F0D6FE9FED3F1ADFED3E0A9FED3F0A47
:1051D00004F5927007F028FF94ED5C0A84ED720AE2
:1051E00094ED270A84ED730A65E094F8C50105285B
:1051F00038D094F8C401052834D19FED320A84EDEB
:105200002B0A9FED301ADFED2F0AB3EE0E0A04F1E0
:105210001C0006F0ADFE9FED2B1ADFED2A0A9FED74
:105220002B0A04F14C0007F0FFFE9FED261ADFED7C
:10523000250AB3EE0E0A04F1F40006F099FE9FED84
:10524000211ADFED200A9FED260A04F5927007F07F
:10525000EBFE94ED5C0A84ED720A94ED270A84ED6E
:10526000730A28E094F8C5010A2810D094F8C40104
:105270000A280CD19FED130A84ED2B0A94ED5C0AE9
:1052800084ED720A94ED270A84ED730A13E094F812
:10529000C5010B280FD094F8C4010B280BD19FED4A
:1052A000090A84ED2B0A94ED5C0A84ED720A94EDF0
:1052B000270A84ED730A94F8C40184F8C50100BF7D
:1052C000FBE6000000000000000020430000164341
:1052D000CDCC4C3D00000C420000DC42CDCCCC3D9E
:1052E000000002430FB42DED040B10B52DED048B1F
:1052F0000446B0EE408AF0EE608AB0EE419A34B9CE
:105300009FED270ABDEC048B10BC5DF824FB84EDF7
:10531000048AC4ED038A38EEC80AF0EE409AB0EE73
:10532000690A0BA800F012FCF0EE409AC4ED059A51
:1053300094ED000AD4ED050A20EE200A84ED080A57
:1053400094ED090AD4ED010A94ED051A00EE810AE4
:1053500084ED090A94ED020A20EE090A84ED0A0A96
:10536000D4ED070AB0EE600A04F1240005F0C4F899
:1053700094ED080AD4ED090A30EE200AD4ED0A0AA9
:1053800030EE200A84ED0B0AD4ED060AB0EE600A76
:1053900004F12C0005F0B0F894ED0B0AB2E7000020
:1053A0000000000000B9704780ED001AC0ED011A3E
:1053B00080ED022ADFED062AC0ED052ADFED042A82
:1053C000C0ED042AC0ED070A80ED060A00BFEAE737
:1053D0000000000032200AF0F7FB2348FFF7C4FD6D
:1053E00001200AF0F1FB2048FFF75AFC3BE01F497F
:1053F0001D4806F0F3FA1C48FFF752FC1A48FFF765
:1054000011FC1948FFF756FE1748B0F8B8001849C4
:1054100008801548B0F8900116490880032009F06B
:105420008FFA18B1042009F08BFAA0B90E4890F851
:10543000C40130B900231A4619461846FDF7A8FFE3
:1054400009E000231A460A48B0F900100948B0F9EB
:105450000000FDF79DFF01200AF0B6FB00200AF0D6
:10546000F5F905490860C2E7540800203C00002017
:10547000680000206A00002070000020F0B50A4695
:1054800000210023002400BF3DE0012505FA01F3BF
:10549000156805EA03049C4234D105684F000326D1
:1054A000BE40B543056015794E00B54006683543EA
:1054B00005601579012D02D01579022D16D1856868
:1054C0004F000326BE40B543856055794E00B54078
:1054D000866835438560456801268E40B543456042
:1054E000456896798E40B6B235434560C5684F0031
:1054F0000326BE40B543C560D5794E00B540C668A9
:105500003543C560491C1029BFD3F0BDF0B5002359
:1055100000244D07ED0E02FA05F3CE1000F1200530
:1055200055F826504E07F70E0F26BE40B543CF1054
:1055300000F1200646F82750CE1000F1200555F85E
:10554000265045EA0304CE1000F1200545F8264018
:10555000F0BD4183704701837047000010B52DED09
:10556000048B244A911E881E00F072FD21480C38DD
:10557000B0F9080000EE100AF8EEC00A1E48B0F9B3
:10558000080000EE100AB8EEC00A30EEC00AB0EE15
:10559000408A18480C38B0F90A0000EE100AF8EEFC
:1055A000C00A1548B0F90A0000EE100AB8EEC00AA9
:1055B00030EEC00AF0EE408A0E480C38B0F90C000C
:1055C00000EE100AF8EEC00A0B48B0F90C0000EE2D
:1055D000100AB8EEC00A30EEC00AB0EE409AB0EE43
:1055E000491AF0EE680AB0EE480A00F067F8BDEC20
:1055F000048B10BD9C270020A427002030B5034653
:1056000013B94FF6FF7030BD09E013F8014B82EA81
:105610000400C0B2054D35F8100080EA2222081EB1
:10562000A1F10101F1D11046EDE700004C13010892
:1056300030B5034605E013F8010B80EA0204044884
:10564000025D081EA1F10101F5D1104630BD000038
:105650004B12010810B52DED088B07F0DBFC04465A
:10566000FBF709FD41EC180B4FF0E02040694FF0CB
:10567000E0218969401A4FF47A7148434FF0E021E4
:105680004969B0FBF1F42046FBF7F5FC9FED090BEF
:1056900053EC102BFBF7FDFB53EC182BFBF752FBE5
:1056A00041EC190BB0EE490AF0EE690ABDEC088B2B
:1056B00010BD0000FCA9F1D24D62503F10B52DED98
:1056C000048BB0EE408AF0EE608AB0EE419A18EE9C
:1056D000100AFBF7DDFC134A03C218EE900AFBF731
:1056E000D7FC104A02F5147203C219EE100AFBF738
:1056F000CFFC0C4A02F5946203C20A48FEF7CCFBC9
:10570000094880ED040A0948FEF7C6FB064880ED0B
:10571000050A0748FEF7C0FB034880ED060ABDEC0A
:10572000048B10BD3020002068270020802200203C
:10573000D024002014E0012080F3138800BF00BFB4
:10574000BFF34F8F0748006800F4E0600649084344
:10575000001D04490860BFF34F8F00BF00BFFEE784
:10576000E9E700000CED00E00000FA0510B5044682
:1057700006F06CF8606060680078032805D11C4969
:10578000086040F203101B49086060680078042834
:1057900005D1174908604FF48270164908606068A7
:1057A0000078052805D11249086040F2051011491A
:1057B000086060680078672805D10D49086040F2EC
:1057C00067100C49086060680078682805D10849AE
:1057D00008604FF4B4700749086060680078692871
:1057E00005D10349086040F269100249086010BD04
:1057F000C0020020C402002010B5002424E0204A8A
:10580000911E881E00F024FC1D480C38B0F90800D9
:105810001C49096808441B49086019480C38B0F94C
:105820000A001949096808441749086014480C38E7
:10583000B0F90C00154909680844144908600320B0
:1058400007F0ACFB601CC4B2C82CD8DB0D48006864
:10585000C82190FBF1F000B20D4908810A480068A8
:10586000C82190FBF1F000B209494881074800685F
:10587000C82190FBF1F000B20549888110BD0000FD
:105880009C270020580400205C04002060040020B5
:10589000A42700203BE0FBF7A3FFFFF75FFE05F026
:1058A00039F81B4800F042FCFBF7F6FF194890ED71
:1058B000040ADFED190A20EE200ABDEEC00A10EE40
:1058C000100A00B2124914390880124890ED050AF6
:1058D000DFED110A20EE200ABDEEC00A10EE100A1C
:1058E00000B248800B4890ED060ADFED0B0A20EE6F
:1058F000200ABDEEC00A10EE100A00B28880012016
:105900000AF062F9002009F0A1FF04490860C2E72B
:105910000428002068270020F8C1F93C500400202A
:1059200010B5044605F092FF206005F0C1FF6060ED
:10593000206800780A2803DD00200349487202E04D
:1059400001200149487210BD401000201FE010489E
:1059500090ED000A0F4880ED000A0F4890ED000A14
:105960000C4880ED010A0D480068807A0949887268
:105970000A48FFF7D5FF0749094802F093F90020CC
:1059800009F064FF0749086005200AF01DF9DEE709
:105990005C00002040100020600000204C1000201F
:1059A000001401401002002070B504465CB1254689
:1059B000B5F8010000F1090128460AF053FB10B1C7
:1059C000204606F04FFF70BD08B596E000235A1E32
:1059D00069464A4800680AF07FFC4948007858B98F
:1059E0009DF80000A52807D10120454908709DF8C1
:1059F0000000444908706FE041480078012807D151
:105A000002203F4908709DF800003E49487063E05D
:105A10003B480078022816D10320394908709DF8C8
:105A200000003849887008464078001D9DF8001035
:105A300040EA0120324948800846408864284BDD0E
:105A40000020087048E02E480078032807D1042081
:105A50002B4908709DF800002A49C8703CE028488E
:105A60000078042814D10520254908709DF800000D
:105A700024490871052123480AF014FB18B10020BD
:105A80001F49888028E000201D498880087023E095
:105A90001B48007805281AD119484088002816DDCF
:105AA00017484088401E164948809DF80020084647
:105AB00080888988491C124B9980401D11490A54DD
:105AC0001846408840B906201946087004E00020B6
:105AD0000B4908704880888009480078062807D15B
