:020000040800F2
:10000000100A0020290200084D080008E105000838
:100010004B080008D90200088129000800000000F0
:100020000000000000000000000000003B0200088B
:1000300069040008000000003F02000841020008B7
:10004000430200084302000843020008430200087C
:10005000430200084302000843020008430200086C
:10006000430200084302000843020008430200085C
:10007000430200084302000843020008430200084C
:10008000430200084302000843020008430200083C
:10009000430200084302000843020008430200082C
:1000A00043020008A122000843020008430200089E
:1000B000430200084302000843020008430200080C
:1000C00043020008430200084302000843020008FC
:1000D000430200084302000843020008F527000815
:1000E00043020008430200084302000843020008DC
:1000F00043020008430200084302000843020008CC
:1001000043020008430200084302000843020008BB
:1001100043020008430200084302000843020008AB
:10012000430200084302000843020008430200089B
:10013000430200084302000843020008430200088B
:10014000430200084302000843020008430200087B
:10015000430200084302000843020008430200086B
:10016000430200084302000843020008430200085B
:10017000430200084302000843020008430200084B
:10018000430200084302000800F002F800F03CF8C7
:100190000AA090E8000C82448344AAF10107DA45E2
:1001A00001D100F031F8AFF2090EBAE80F0013F0F8
:1001B000010F18BFFB1A43F001031847602B000022
:1001C000802B0000103A24BF78C878C1FAD85207B3
:1001D00024BF30C830C144BF04680C6070470000C1
:1001E0000023002400250026103A28BF78C1FBD840
:1001F000520728BF30C148BF0B6070471FB502F0DF
:1002000087FD1FBD10B510BD00F033F81146FFF794
:10021000F5FF02F089FC00F051F803B4FFF7F2FF9C
:1002200003BC02F0AEFB00000948804709480047C4
:10023000FEE7FEE7FEE7FEE7FEE7FEE7FEE7FEE796
:10024000FEE7FEE704480549054A064B70470000F3
:100250007D0B00088901000810010020100A002011
:100260001005002010050020704770477047704748
:100270007047754600F02CF8AE46050069465346B7
:1002800020F00700854618B020B5FFF7DBFFBDE87A
:1002900020404FF000064FF000074FF000084FF0ED
:1002A000000B21F00701AC46ACE8C009ACE8C0097E
:1002B000ACE8C009ACE8C0098D46704710B50446EB
:1002C000AFF300802046BDE81040FFF7A6BF000056
:1002D00000487047AC000020FEE70029016802D00A
:1002E00041F0010101E021F00101016070470000CF
:1002F0002DE9F043016821F0010101600021016056
:1003000041608160C1600161212141613C493C4AF9
:100310003D251039904202D18D60BDE8F083384A06
:100320004FF474661832904201D18E60F5E7344A7A
:100330004FF474173032904201D18F60EDE7304AAC
:100340004FF0746C4832904202D1C1F808C0E4E723
:100350002B4B2C4A6033984201D1CA60DDE7284C10
:10036000294B7834A04201D1CB60D6E7DFF89080EA
:10037000264C08F19008404501D1CC60CDE7DFF86C
:1003800080804FF03D5908F1A808404502D1C1F8DE
:100390000C90C2E71E49DFF878800839404501D14A
:1003A0000D60BAE71A4D1835A84201D10E60B4E7C6
:1003B000174D3035A84201D10F60AEE7144D4835D6
:1003C000A84202D1C1F800C0A7E7114D104960351D
:1003D000091FA84201D10A609FE70D4A7832904276
:1003E00001D10B6099E70A4A9032904201D10C602A
:1003F00093E7074AA83290428FD1C1F800908CE76A
:10040000106002403D000020400F002000003D2011
:100410001064024030B50368124ACC6813400A6881
:100420002243D1E905452C432243CC6922430C6A7F
:1004300022434C6A22438C6A22434C6B22438C6BCE
:1004400022431A430260426922F00703D1E90B24D8
:1004500022431A4342610A6942604A68826089689D
:10046000C16030BD3F801CF07047000010B502F045
:10047000F1FA21480168642916D3002101601F4860
:1004800000F022FC1E491D4800F080FA1D4800F0D3
:100490003BFC1D491B4800F079FA1C4800F054FC55
:1004A0001B491A4800F072FA1548174A184B018880
:1004B0001848642907D21488642C04D91C88642C39
:1004C00009D94B2110E01488642C04D2642902D984
:1004D0001C88642C0CD81B88642B09D2642907D98A
:1004E0001188642904D94121BDE8104002F042B9C5
:1004F000BDE8104002F012BB48000020240000209C
:100500002C00002030000020380000203C0000209B
:1005100044000020000C0040F0B5002201274FF0FD
:10052000030C0B6807FA02F52B40AB422CD106688E
:1005300053000CFA03F4A64306600E79D0F800E0ED
:100540009E4046EA0E0606600E79012E01D0022E6C
:1005500012D18668A64386604E79D0F808E09E40A6
:1005600046EA0E0686604668AE43466045688E7968
:100570009640B6B235434560C568A543C560CC79A1
:100580009C40C3681C43C460521C102AC9D3F0BDF0
:100590004B07DB0E9A40C90810B500EB8100016AD9
:1005A0000F249C40A1430162016A1143016210BD06
:1005B0000246002012690A4200D0012070474183A0
:1005C00070470183704770B5044600F0A1FA0546F4
:1005D000641CE0B200F09CFA00EB052080B270BD14
:1005E000FEE7000070B50D4C0025C4F8B0520C4871
:1005F000016821F440210160016841F4802101601B
:10060000C4F8AC52022004F52B7402F0EFF901207B
:100610006060022002F0EAF9656070BD00004142AE
:10062000000402401CB50121042000F043F94FF4FE
:10063000C050012400908DF8044000208DF8060081
:100640008DF8070002208DF8050069460448FFF781
:1006500063FF0448C0F8B042C0F8AC421CBD0000C3
:10066000000802400000414270B50D4C0026C4F85D
:10067000B0620C48016821F440210160016841F436
:10068000802101600125C4F8AC52022004F52B74CE
:1006900002F0ACF96560022002F0A8F9666070BD56
:1006A00000004142000402402DE9F047814616480F
:1006B0000024016821F44021016001680160134EAB
:1006C000254627464FF00108C6F8B072022002F016
:1006D0008DF9C6F8B0826006040ED6F82C0208B177
:1006E000641CE4B2012002F081F96D1CEDB2082D0A
:1006F000EAD3B9F1000F04D0FFF774FF2046BDE83C
:10070000F087FFF7B1FFF9E7000402400000414223
:100710002DE9F04105461448016821F440210160AB
:10072000016841F480210160104E0027C6F8B072C4
:100730003C464FF00108E809C6F8AC026806050E11
:10074000022002F053F9C6F8B082022002F04EF9FE
:10075000C6F8B072022002F049F9641CE4B2082C19
:10076000E9D3BDE8F08100000004024000004142EE
:1007700070B50D48016821F440210160016841F421
:1007800080210160094C0120C4F8AC02C4F8B00219
:10079000042004F52B7402F029F9002525600420BB
:1007A00002F024F9656070BD00040240000041427F
:1007B0000E4810B5016821F440210160016841F440
:1007C000802101600A4C0020C4F8B002C4F8AC02D9
:1007D000042004F52B7402F009F901206060206008
:1007E000BDE81040042002F001B9000000040240FE
:1007F0000000414210B5FFF715FF0A2002F0D8F8BB
:1008000080216B2000F09BF9322002F0D1F8092101
:100810006B2000F094F945216A2000F090F9002146
:10082000192000F08CF903211A2000F088F9082122
:100830001B2000F084F908211C2000F080F97821A9
:10084000BDE81040232000F07AB9FEE770470000B1
:1008500030B50F23C27801780125FAB1144A126825
:1008600001F1E02102F4E062C2F5E062C2F3072286
:10087000C2F10404D3404278A24084781C4014435F
:10088000220181F80024007800F01F018D4040090A
:10089000800000F1E020C0F8005130BD01F01F00E1
:1008A00085404809800000F1E020C0F8805130BD4B
:1008B0000CED00E0044A0029116801D0014300E07A
:1008C000814311607047000030380240044A00291B
:1008D000116801D0014300E08143116070470000BE
:1008E00040380240044A0029116801D0014300E069
:1008F00081431160704700004438024070B5204BBE
:100900001968204C11F00C0104D06610042903D0A2
:10091000082903D004601BE0066019E0184A121F82
:100920001168C1F38055116801F03F0115B1B6FBA4
:10093000F1F101E0B4FBF1F114681268C4F388141A
:100940006143C2F30142521C5200B1FBF2F101605B
:1009500019680F2202EA11110B4A545C0168E14048
:1009600041601C68072505EA9424145D21FA04F40B
:1009700084601B6805EA5333D25CD140C16070BD0E
:10098000083802400024F40051000020F0B54288ED
:10099000642304885A43B2FBF4F2D3B282886425FC
:1009A000C0886A436843B2FBF4F2B0FBF4F0D2B201
:1009B000C0B2934203D2824203D3144604E083427E
:1009C00001D2044600E01C46934203D9824203D878
:1009D000164604E0834201D9064600E01E46A719E8
:1009E000A51B4FEA570CEDB281F803C0B44202D107
:1009F0000020088030E09C420CD18242A2EB000033
:100A0000C0EB00104FEA800090FBF5F015D200F526
:100A1000B47012E0944207D1C01AC0EB00108000FD
:100A200090FBF5F0783008E0844207D1981AC0EBCB
:100A30000010800090FBF5F0F0300880BCF1320F20
:100A40004FF0640015FB00F002D8B0FBF7F003E0B4
:100A5000C7F1C80290FBF2F08870F0BD0CB500221F
:100A6000274900920192086840F4803008604FF4F2
:100A7000A043086800F4003001900098401C0090EA
:100A8000019810B900989842F3D10868800334D5D2
:100A9000012001901A484030026842F08052026002
:100AA0001848026842F44042026015480830026863
:100AB0000260026842F400420260026842F4A052FE
:100AC0000260031F104A1A600A6842F080720A60CE
:100AD0000A689201FCD50D4940F205720A6001686E
:100AE00021F003010160016841F002010160016829
:100AF000C1F381010229FAD10CBD01920CBD0000A5
:100B0000003802400070004008544007003C02409A
:100B100010B50446FFF72CFED020FFF7F9FD204664
:100B2000FFF7F6FDFFF724FED120FFF7F1FD0020CF
:100B3000FFF7BAFD0446FFF73BFE204610BD70B537
:100B40000D460446FFF714FED020FFF7E1FD2046D6
:100B5000FFF7DEFD2846FFF7DBFDBDE87040FFF73D
:100B600027BE4FF0E0210428086903D020F00400DC
:100B70000861704740F00400FAE70000124810B521
:100B8000016841F4700101601048016841F0010101
:100B900001600E4A00210832116002680C4B1A40B5
:100BA0000260031D0B4A1A60026822F48022026070
:100BB00006480C300160FFF751FF03494FF0006019
:100BC0008039086010BD000088ED00E00038024068
:100BD000FFFFF6FE1030002408B501208DF800005C
:100BE00002466946002001F096FA03208DF80000C5
:100BF00001226946002001F08EFA08BD08B50120E7
:100C00008DF8000002466946002001F0A0FA03209A
:100C10008DF8000001226946002001F098FA08BD15
:100C200008B501208DF8000002466946002001F059
:100C3000AAFA03208DF8000001226946002001F085
:100C4000A2FA08BD08B501208DF8000002466946E9
:100C5000002001F0B4FA03208DF80000012269465B
:100C6000002001F0ACFA08BD08B501208DF80000A5
:100C700002466946002001F0BEFA03208DF800000C
:100C800001226946002001F0B6FA08BD08B500212E
:100C900000910222694601F08AF9BDF8000008BD02
:100CA00008B5002100910222694601F096F9BDF8CD
:100CB000000008BD08B5002100910222694601F03C
:100CC000A2F9BDF8000008BD38B5044601208DF832
:100CD000000002466946132001F069F99DF8000002
:100CE000C00710D01420FFF7D1FF20801620FFF797
:100CF000CDFF60801820FFF7C9FFA0801A20FFF702
:100D0000C5FFE080012038BD38B5044601208DF8CC
:100D1000000002466946132001F05FF99DF80000CB
:100D2000C00710D01420FFF7BBFF20801620FFF76C
:100D3000B7FF60801820FFF7B3FFA0801A20FFF7ED
:100D4000AFFFE080012038BD38B5044601208DF8A2
:100D5000000002466946132001F055F99DF8000095
:100D6000C00710D01420FFF7A5FF20801620FFF742
:100D7000A1FF60801820FFF79DFFA0801A20FFF7D9
:100D800099FFE080012038BD10B5104C202120468D
:100D9000FFF715FC206820F440702060206840F4C4
:100DA0008070206010212046FFF709FC142001F01C
:100DB00019FE20212046FFF704FC142001F012FE4A
:100DC0002046BDE810402021FFF7F9BB0004024097
:100DD00010B5104C08212046FFF7F1FB0E480168C2
:100DE00021F030010160016841F01001016004212F
:100DF000FFF7E5FB142001F0F5FD08212046FFF781
:100E0000E0FB142001F0EEFD2046BDE81040082173
:100E1000FFF7D5BB00040240000C024070B5114C36
:100E20004FF4805529462046FFF7C9FB206820F47F
:100E300040002060206840F480002060E1142046DB
:100E4000FFF7BDFB142001F0CDFD29462046FFF73A
:100E5000B8FB142001F0C6FD29462046BDE87040CD
:100E6000FFF7ADBB0008024070B5114D4FF4806430
:100E700021462846FFF7A3FB0E48016821F04041B8
:100E80000160016841F0804101606101FFF797FB5B
:100E9000142001F0A7FD21462846FFF792FB1420FD
:100EA00001F0A0FD21462846BDE87040FFF787BB52
:100EB000000802400000024070B5114C4FF400756C
:100EC00029462046FFF77BFB206820F44030206055
:100ED000206840F480302060A1152046FFF76FFBAA
:100EE000142001F07FFD29462046FFF76AFB1420FD
:100EF00001F078FD29462046BDE87040FFF75FBB52
:100F0000000802401CB501210220FFF7D3FC30206D
:100F1000009001208DF8040000208DF806000220CA
:100F2000054C8DF8050069462046FFF7F5FA30219B
:100F30002046FFF746FB1CBD000402402DE9FC41A2
:100F400001210A20FFF7B6FC012408208DF8044097
:100F50000025114F00908DF8065002268DF805608F
:100F600069463846FFF7D8FA8DF8044004200B4C48
:100F700000908DF806508DF8056069462046FFF711
:100F8000CBFA08213846FFF71CFB04212046FFF767
:100F900018FBBDE8FC81000000040240000C024088
:100FA0007CB501210420FFF785FC01208DF80400A9
:100FB00000208DF806000220074D4FF4C0548DF834
:100FC0000500009469462846FFF7A6FA2146284600
:100FD000FFF7F7FA7CBD0000000802402DE9FC474E
:100FE00001210520FFF766FC01258DF8045000263D
:100FF000DFF84C904FF400448DF80660022700940F
:101000008DF8057069464846FFF786FA8DF804505A
:101010000C4D4FF480688DF80660CDF800808DF897
:10102000057069462846FFF777FA21464846FFF7DC
:10103000C8FA41462846FFF7C4FABDE8FC8700001D
:1010400000000240000802407CB501210420FFF7A7
:1010500031FC01208DF8040000208DF806000220EC
:10106000074D4FF440748DF80500009469462846FA
:10107000FFF752FA21462846FFF7A3FA7CBD00008D
:101080000008024010B5104C20212046FFF797FAC7
:10109000206820F440702060206840F48070206058
:1010A00010212046FFF78DFA142001F09BFC20212F
:1010B0002046FFF786FA142001F094FC2046BDE894
:1010C00010402021FFF77BBA0004024010B5104CFD
:1010D00008212046FFF773FA0E48016821F030011D
:1010E0000160016841F0100101600421FFF769FA15
:1010F000142001F077FC08212046FFF762FA142043
:1011000001F070FC2046BDE810400821FFF757BAF7
:1011100000040240000C024070B5114C4FF48055A1
:1011200029462046FFF74BFA206820F44000206053
:10113000206840F480002060E1142046FFF741FA67
:10114000142001F04FFC29462046FFF73AFA1420FC
:1011500001F048FC29462046BDE87040FFF72FBA51
:101160000008024070B5114D4FF4806421462846B6
:10117000FFF725FA0E48016821F04041016001683F
:1011800041F0804101606101FFF71BFA142001F07A
:1011900029FC21462846FFF714FA142001F022FC0E
:1011A00021462846BDE87040FFF709BA0008024012
:1011B0000000024070B5114C4FF4007529462046DE
:1011C000FFF7FDF9206820F440302060206840F4EB
:1011D00080302060A1152046FFF7F3F9142001F0BC
:1011E00001FC29462046FFF7ECF9142001F0FAFB38
:1011F00029462046BDE87040FFF7E1B900080240EB
:101200002DE9F041984616460D460746002400F0A9
:10121000F3FA012000EB4700C0B200F0D1F900F072
:1012200071FC771E09E0BC4201D1002000E00120E2
:1012300000F0AEF82855641CE4B2B442F3D3B8F120
:10124000010F03D1BDE8F04100F09ABBBDE8F08189
:101250002DE9F041984616460D460746002400F059
:10126000EFFA012000EB4700C0B200F0DDF900F01A
:1012700077FC771E09E0BC4201D1002000E001208C
:1012800000F0BCF82855641CE4B2B442F3D3B8F1C2
:10129000010F03D1BDE8F04100F096BBBDE8F0813D
:1012A0002DE9F041984616460D460746002400F009
:1012B000EFFA012000EB4700C0B200F0EFF900F0B8
:1012C0007FFC771E09E0BC4201D1002000E0012034
:1012D00000F0CCF82855641CE4B2B442F3D3B8F162
:1012E000010F03D1BDE8F04100F096BBBDE8F081ED
:1012F0002DE9F041984616460D460746002400F0B9
:10130000EDFA012000EB4700C0B200F0FFF900F059
:1013100087FC771E09E0BC4201D1002000E00120DB
:1013200000F0DCF82855641CE4B2B442F3D3B8F101
:10133000010F03D1BDE8F04100F094BBBDE8F0819E
:101340002DE9F041984616460D460746002400F068
:10135000F1FA012000EB4700C0B200F015FA00F0EE
:1013600093FC771E09E0BC4201D1002000E001207F
:1013700000F0EEF82855641CE4B2B442F3D3B8F19F
:10138000010F03D1BDE8F04100F096BBBDE8F0814C
:101390002DE9F041174E80460024306820F440705B
:1013A000306030683060144F254620213046FFF70A
:1013B00006F9142001F016FB20213046FFF701F951
:1013C0006006040ED7F8100208B1641CE4B20A20CB
:1013D00001F008FB6D1CEDB2082DE6D3B8F1000F4B
:1013E00004D0FFF7D1FC2046BDE8F081FFF74AFEAC
:1013F000F9E7000000040240008040422DE9F0417E
:10140000804617480024016821F03001016001681E
:101410000160144E144F254608213046FFF7CFF8DF
:10142000142001F0DFFA08213046FFF7CAF8600601
:10143000040ED7F8080208B1641CE4B20A2001F0D7
:10144000D1FA6D1CEDB2082DE6D3B8F1000F04D02F
:10145000FFF7BEFC2046BDE8F081FFF737FEF9E755
:10146000000C024000040240008041422DE9F04798
:10147000184E81460024306820F440003060306807
:101480003060DFF854802546B71439463046FFF700
:1014900096F8142001F0A6FA39463046FFF791F885
:1014A0006006040ED8F82C0208B1641CE4B20A20CD
:1014B00001F098FA6D1CEDB2082DE6D3B9F1000FDA
:1014C00004D0FFF7ABFC2046BDE8F087FFF724FE11
:1014D000F9E7000000080240000041422DE9F04712
:1014E000814618480024016821F0404101600168EC
:1014F0000160154FDFF85480254606153146384601
:10150000FFF75DF8142001F06DFA31463846FFF719
:1015100058F86006040ED8F83C0208B1641CE4B226
:101520000A2001F05FFA6D1CEDB2082DE6D3B9F187
:10153000000F04D0FFF798FC2046BDE8F087FFF7C6
:1015400011FEF9E70000024000080240000040429E
:101550002DE9F047184E81460024306820F44030D1
:10156000306030683060DFF85480254677153946A2
:101570003046FFF724F8142001F034FA394630469B
:10158000FFF71FF86006040ED8F8200208B1641CAB
:10159000E4B20A2001F026FA6D1CEDB2082DE6D364
:1015A000B9F1000F04D0FFF787FC2046BDE8F087B3
:1015B000FFF700FEF9E7000000080240000041428A
:1015C00070B5184E05463046316821F440713160DF
:1015D000316841F4807131602021FEF7F0FF002472
:1015E00028064FF01001304602D5FEF7EAFF01E071
:1015F000FEF7E5FF6806050E142001F0F3F920213F
:101600003046FEF7DEFF142001F0ECF920213046D1
:10161000FEF7D5FF142001F0E5F9641CE4B2082CB4
:10162000DED370BD000402402DE9F041194F05469C
:10163000386820F030003860386840F010003860BA
:10164000154E08213046FEF7BAFF002428064FF059
:101650000401384602D5FEF7B4FF01E0FEF7AFFF04
:101660006806050E142001F0BDF908213046FEF78A
:10167000A8FF142001F0B6F908213046FEF79FFFBD
:10168000142001F0AFF9641CE4B2082CDED3BDE8ED
:10169000F0810000000C0240000402402DE9F041FE
:1016A000194E05463046316821F4400131603168F9
:1016B00041F480013160B7143946FEF780FF002401
:1016C0004FF4006828064146304602D5FEF779FF00
:1016D00001E0FEF774FF6806050E142001F082F9A0
:1016E00039463046FEF76DFF142001F07BF939468C
:1016F0003046FEF764FF142001F074F9641CE4B274
:10170000082CDFD3BDE8F081000802402DE9F04746
:101710001B4F0546386820F040403860386840F07C
:1017200080403860DFF85C803E1531464046FEF769
:1017300046FFB94600244FF4004A47462806514662
:10174000484602D5FEF73DFF01E0FEF738FF680688
:10175000050E142001F046F931463846FEF731FFF8
:10176000142001F03FF931463846FEF728FF1420D7
:1017700001F038F9641CE4B2082CDFD3BDE8F0872F
:1017800000000240000802402DE9F041194E0546D4
:101790003046316821F440313160316841F48031A4
:1017A000316077153946FEF70AFF00244FF4807840
:1017B00028064146304602D5FEF703FF01E0FEF75A
:1017C000FEFE6806050E142001F00CF9394630467D
:1017D000FEF7F7FE142001F005F939463046FEF712
:1017E000EEFE142001F0FEF8641CE4B2082CDFD3F6
:1017F000BDE8F0810008024010B5104C206820F4CC
:1018000040702060206840F48070206010212046E5
:10181000FEF7D7FE20212046FEF7D3FE282001F058
:10182000E1F810212046FEF7CAFE282001F0DAF880
:101830002046BDE810402021FEF7C1BE0004024052
:1018400070B5114C206820F030002060206840F016
:101850001000206004212046FEF7B3FE0B4D082146
:101860002846FEF7AEFE282001F0BCF804212046F1
:10187000FEF7A5FE282001F0B5F82846BDE8704027
:101880000821FEF79CBE0000000C0240000402404C
:1018900070B5114C206820F440002060206840F4AE
:1018A00080002060E51429462046FEF78AFEA61433
:1018B00031462046FEF785FE282001F093F82946A0
:1018C0002046FEF77CFE282001F08CF831462046A9
:1018D000BDE87040FEF773BE000802402DE9F041FC
:1018E000124C206820F040402060206840F080408A
:1018F00020604FF4004529462046FEF762FE0C4F5B
:10190000261531463846FEF75CFE282001F06AF8BD
:1019100029462046FEF753FE282001F063F83146A1
:101920003846BDE8F041FEF74ABE00000000024024
:101930000008024070B5114C206820F4403020604F
:10194000206840F480302060A51529462046FEF727
:1019500038FE661531462046FEF733FE282001F09A
:1019600041F829462046FEF72AFE282001F03AF8E1
:1019700031462046BDE87040FEF721BE0008024017
:1019800010B5104C206820F440702060206840F4AE
:101990008070206020212046FEF711FE1021204695
:1019A000FEF70DFE282001F01DF820212046FEF74D
:1019B00008FE10212046FEF704FEBDE81040282056
:1019C00001F010B80004024070B5114C206820F0FE
:1019D00030002060206840F0100020600D4D08218C
:1019E0002846FEF7ECFD04212046FEF7E8FD2820FE
:1019F00000F0F8FF08212846FEF7E3FD0421204609
:101A0000FEF7DFFDBDE87040282000F0EBBF0000CE
:101A1000000C02400004024070B5114C206820F414
:101A200040002060206840F480002060A514294612
:101A30002046FEF7C4FDE61431462046FEF7BFFD02
:101A4000282000F0CFFF29462046FEF7BAFD314698
:101A50002046FEF7B6FDBDE87040282000F0C2BF6A
:101A6000000802402DE9F041114C206820F0404070
:101A70002060206840F0804020600E4E25152946E9
:101A80003046FEF79CFD6F0139462046FEF797FD74
:101A9000282000F0A7FF29463046FEF792FD394680
:101AA0002046FEF78EFDBDE8F041282000F09ABFE9
:101AB000000002400008024070B5114C206820F47C
:101AC00040302060206840F4803020606515294651
:101AD0002046FEF774FDA61531462046FEF76FFD41
:101AE000282000F07FFF29462046FEF76AFD314698
:101AF0002046FEF766FDBDE87040282000F072BF6A
:101B00000008024070B5144D0024286820F440708D
:101B100028602868286010212846FEF752FD0A2018
:101B200000F060FF20212846FEF74BFD0A2000F060
:101B300059FF0A4806E0641CFA2C03D9FFF720FF7E
:101B4000012070BDD0F810120029F4D120212846C0
:101B5000FEF735FD002070BD0004024000804042C9
:101B600070B514480024016821F03001016001685B
:101B700001600421FEF725FD0A2000F033FF0E4D21
:101B800008212846FEF71DFD0A2000F02BFF0B4818
:101B900006E0641CFA2C03D9FFF716FF012070BD84
:101BA000D0F808120029F4D108212846FEF707FDD5
:101BB000002070BD000C0240000402400080414241
:101BC00070B5154D0024286820F44000286028686E
:101BD0002860E9142846FEF7F4FC0A2000F002FF12
:101BE000AE1431462846FEF7ECFC0A2000F0FAFE5F
:101BF0000A4806E0641CFA2C03D9FFF70DFF012008
:101C000070BDD0F82C120029F4D131462846FEF7D9
:101C1000D6FC002070BD00000008024000004142D8
:101C200070B516480024016821F040410160016848
:101C300001604FF40041FEF7C4FC0A2000F0D2FE20
:101C40000F4E4FF4806529463046FEF7BAFC0A2055
:101C500000F0C8FE0B4806E0641CFA2C03D9FFF71D
:101C600001FF012070BDD0F83C120029F4D12946B3
:101C70003046FEF7A4FC002070BD000000000240CA
:101C8000000802400000404270B5154D002428684D
:101C900020F44030286028682860A9152846FEF7FF
:101CA00090FC0A2000F09EFE6E1531462846FEF795
:101CB00088FC0A2000F096FE0A4806E0641CFA2C14
:101CC00003D9FFF7F9FE012070BDD0F820120029DA
:101CD000F4D131462846FEF772FC002070BD0000AA
:101CE00000080240000041422DE9F04198461546A7
:101CF0000E4607460024FFF77FFD7806000EFFF72B
:101D00005FFCFFF7FFFE06E0305DFFF759FCFFF7D1
:101D1000F9FE641CE4B2AC42F6D3B8F1010F03D172
:101D2000BDE8F041FFF72CBEBDE8F0812DE9F041A0
:101D3000984615460E4607460024FFF781FD7806B3
:101D4000000EFFF771FCFFF70BFF06E0305DFFF7B9
:101D50006BFCFFF705FF641CE4B2AC42F6D3B8F1AC
:101D6000010F03D1BDE8F041FFF72EBEBDE8F081C1
:101D70002DE9F041984615460E4607460024FFF728
:101D800087FD7806000EFFF789FCFFF719FF06E0D4
:101D9000305DFFF783FCFFF713FF641CE4B2AC4235
:101DA000F6D3B8F1010F03D1BDE8F041FFF734BE1F
:101DB000BDE8F0812DE9F041984615460E460746EC
:101DC0000024FFF78BFD7806000EFFF79FFCFFF75E
:101DD00027FF06E0305DFFF799FCFFF721FF641C49
:101DE000E4B2AC42F6D3B8F1010F03D1BDE8F04143
:101DF000FFF738BEBDE8F0812DE9F0419846154661
:101E00000E4607460024FFF795FD7806000EFFF703
:101E1000BBFCFFF739FF06E0305DFFF7B5FCFFF7CD
:101E200033FF641CE4B2AC42F6D3B8F1010F03D126
:101E3000BDE8F041FFF740BEBDE8F08108B50020E5
:101E40008DF80000FFF75EF801226946122000F0CD
:101E5000AEF89DF800004D2803D0002144280ED094
:101E600000E00121002001430BD0EB2000F030F90D
:101E7000002000F00AF9FEF7AFFE012008BD0120A6
:101E8000F1E7002008BD08B500208DF80000FFF73D
:101E900055F801226946122000F09FF89DF80000D5
:101EA0004D2803D0002144280ED000E0012100205D
:101EB00001430BD0EB2000F012F9002000F0ECF809
:101EC000FEF79CFE012008BD0120F1E7002008BDBF
:101ED00008B500208DF80000FFF762F8012269467E
:101EE000122000F090F89DF800004D2803D000214A
:101EF00044280ED000E00121002001430BD0EB204C
:101F000000F0F4F8002000F0CEF8FEF789FE012082
:101F100008BD0120F1E7002008BD08B500208DF8BC
:101F20000000FFF75BF801226946122000F081F8FB
:101F30009DF800004D2803D0002144280ED000E079
:101F40000121002001430BD0EB2000F0D6F8002047
:101F500000F0B0F8FEF776FE012008BD0120F1E7A1
:101F6000002008BD08B500208DF80000FFF76CF8D0
:101F700001226946122000F072F89DF800004D28F9
:101F800003D0002144280ED000E0012100200143AD
:101F90000BD0EB2000F0B8F8002000F092F8FEF72C
:101FA00063FE012008BD0120F1E7002008BD37B520
:101FB00014469DF800000D4640F080008DF80000AA
:101FC0000023012269462920FFF78EFE01232246C5
:101FD00029462920FFF714F93EBD37B514469DF870
:101FE00000000D4640F080008DF800000023012223
:101FF00069462920FFF79AFE012322462946292017
:10200000FFF726F93EBD37B514469DF800000D4692
:1020100040F080008DF8000000230122694629204D
:10202000FFF7A6FE0123224629462920FFF738F9AB
:102030003EBD37B514469DF800000D4640F08000C7
:102040008DF800000023012269462920FFF7B2FE27
:102050000123224629462920FFF74AF93EBD37B51C
:1020600014469DF800000D4640F080008DF80000F9
:102070000023012269462920FFF7BEFE01232246E4
:1020800029462920FFF75CF93EBD01B501226946CA
:102090000F2000F040F808BD01B5012269460F206D
:1020A00000F055F808BD01B5012269460F2000F087
:1020B0004EF808BD01B5012269460F2000F07FF8F7
:1020C00008BD01B5012269460F2000F094F808BD53
:1020D00001B501226946104600F01DF808BD01B5A2
:1020E00001226946104600F032F808BD01B5012210
:1020F0006946104600F047F808BD01B5012269465F
:10210000104600F05CF808BD01B501226946104692
:1021100000F071F808BD3EB50023009340F0800048
:10212000019302938DF8000001206B4605E00C1826
:1021300014F8014C1C54401CC0B29042F7D9521CF8
:10214000D2B2012369462920FFF7CEFD3EBD3EB540
:102150000023009340F08000019302938DF800006B
:1021600001206B4605E00C1814F8014C1C54401C6F
:10217000C0B29042F7D9521CD2B20123694629203D
:10218000FFF7D4FD3EBD3EB50023009340F0800034
:10219000019302938DF8000001206B4605E00C18B6
:1021A00014F8014C1C54401CC0B29042F7D9521C88
:1021B000D2B2012369462920FFF7DAFD3EBD3EB5C4
:1021C0000023009340F08000019302938DF80000FB
:1021D00001206B4605E00C1814F8014C1C54401CFF
:1021E000C0B29042F7D9521CD2B2012369462920CD
:1021F000FFF7E0FD3EBD3EB50023009340F08000B8
:10220000019302938DF8000001206B4605E00C1845
:1022100014F8014C1C54401CC0B29042F7D9521C17
:10222000D2B2012369462920FFF7E6FD3EBD00003A
:102230007FB50D46044601210846FEF753FB019485
:10224000ADF800500024154DADF80840ADF802403F
:102250006946284600F090FA01221146284600F00F
:1022600082F919218DF80C1001208DF80F008DF8DE
:102270000D4003208DF80E0003A8FEF7E9FA0121B6
:10228000284600F063F901221146284600F06BF958
:102290000121284600F05DF97FBD000000000140EB
:1022A00003480168491C01600121024800F04EB951
:1022B00048000020000001402DE9F0478946824691
:1022C0008AB001210220FEF701FB01210846FEF73A
:1022D000F1FADFF8B880022206214046FEF758F9ED
:1022E000022207214046FEF753F902258DF80450DB
:1022F000032780208DF80570002400908DF806409B
:1023000001268DF8076069464046FEF705F98DF80D
:10231000045040208DF8057000908DF806408DF82F
:10232000076069464046FEF7F7F8194FADF81C9074
:10233000ADF81E40CDF820A0ADF8244007A93846DE
:1023400000F01AFA6020ADF80800ADF80A60ADF8A8
:10235000145002A93846049400F00EF902A9384638
:1023600000F040F90821384600F036F908213846D7
:1023700000F078F90121384600F0DEF801213846F6
:1023800000F0E7F80AB0BDE8F08700000000024066
:10239000000400402DE9F043884681468BB00121BE
:1023A0000420FEF793FA01210220FEF783FA244F5E
:1023B000022206213846FEF7EBF840200225059060
:1023C0008DF8185003208DF8190000248DF81A405C
:1023D00001268DF81B6005A93846FEF79DF8194FB8
:1023E000ADF81C80ADF81E40CDF82090ADF824402B
:1023F00007A9384600F0C0F96020ADF80000ADF83C
:102400000260ADF80C5069463846029400F0B4F80A
:102410006946384600F0E6F80821384600F0DCF856
:102420000821384600F01EF90121384600F084F8F2
:102430000121384600F08DF80BB0BDE8F0830000B4
:1024400000040240000800402DE9F0410D4680469E
:102450008AB001210820FEF739FA01210846FEF76B
:1024600029FA334F022200213846FEF791F8022262
:1024700001213846FEF78CF8022211463846FEF755
:1024800087F8022203213846FEF782F80F200590D4
:1024900002208DF8180003208DF8190000248DF813
:1024A0001A4001268DF81B6005A93846FEF734F85E
:1024B000ADF81C501F4DADF81E40CDF82080ADF892
:1024C000244007A9284600F057F96020ADF8000025
:1024D000ADF80260ADF80C4069462846029400F061
:1024E0004BF86946284600F07DF86946284600F01A
:1024F000C3F86946284600F003F90821284600F091
:102500006BF80821284600F0ADF80821284600F0B5
:10251000F1F80821284600F023F90121284600F0AF
:102520000BF80121284600F014F80AB0BDE8F0814C
:1025300000000240000C00400029018802D041F058
:10254000800101E021F0800101807047C9430182D0
:1025500070470029018802D041F0010101E021F01B
:10256000010101807047002A828901D00A4300E0FE
:102570008A4382817047000030B5028C22F001024C
:102580000284028C8388048B22F0020224F07305FB
:102590000C882C438D8915434A882A430C4DA84248
:1025A00002D00C4DA8420DD122F00805CA8923F4AF
:1025B00040732A4322F004058A882A430D8A1D436A
:1025C0004B8A2B438380048389684163028430BD36
:1025D0000000014000040140028B22F008020A437F
:1025E0000283704770B5028C22F010020284028CC4
:1025F0008388048B0D8824F4E6464FF6FF7404EAC2
:10260000052535438E8922F0200204EA061616437A
:102610004A8804EA02123243104EB04202D0104EF1
:10262000B04215D122F08006CA8923F4406304EA3F
:102630000212324322F040068A8804EA0212324330
:102640000E8A04EA86061E434B8A04EA8303334358
:102650008380058389688163028470BD0000014026
:1026600000040140028B4FF6FF7322F4006203EA7C
:10267000012111430183704770B5028C22F48072EE
:102680000284028C8388848B0D8824F07304254394
:102690008E894FF6FF7422F4007204EA0626164370
:1026A0004A8804EA02223243104EB04202D0104E51
:1026B000B04215D122F40066CA8923F4405304EADB
:1026C0000222324322F480668A8804EA02223243DC
:1026D0000E8A04EA06161E434B8A04EA03133343A8
:1026E000838085838968C163028470BD00000140D6
:1026F00000040140828B22F008020A438283704763
:1027000070B5028C22F480520284058C8288838BFF
:102710000C8823F4E6464FF6FF7303EA042434439F
:1027200025F400568D8903EA053535434E8803EAC2
:1027300006362E43084DA84202D0084DA84205D1C6
:1027400022F480450A8A03EA82122A438280848323
:1027500089680164068470BD0000014000040140E6
:10276000828B4FF6FF7322F4006203EA01211143CA
:10277000818370474163704730B50288164C174D0E
:10278000A0420DD0A8420BD0B0F1804F08D0144B1E
:10279000984205D0134B984202D0134B984203D174
:1027A00022F070034A881A43104B984206D0104B0F
:1027B000984203D022F440730A891A4302804A687F
:1027C000C2620A880285A04201D0A84201D1897A5A
:1027D00001860121818230BD0000014000040140DA
:1027E0000004004000080040000C004000100040C1
:1027F0000014004070B50D4D40F22551284600F000
:102800002EF80B4C08B128460BE040F22441284634
:1028100000F025F8002807D0298828460349091D1B
:10282000098800F0A9F8207070BD00000048004041
:1028300050000020C943018070470029818902D0DF
:1028400041F4005101E021F4005181817047002AD8
:10285000828A01D00A4300E08A438282704770B5C1
:1028600001F01F0501260024C1F3421306FA05F208
:10287000012B0FD0022B0FD0838A4FEA1121008841
:10288000134206FA01F600EA060001D000B1012465
:10289000204670BD8389F0E7038AEEE710B5C1F3E7
:1028A000421301F01F040121A140012B07D0022B8C
:1028B00007D01430002A026805D00A4304E00C3027
:1028C000F8E71030F6E78A43026010BD7FB5044692
:1028D000008A0D46C98820F4405001432182A08916
:1028E00041F20C618843A9882A8911436A8902430D
:1028F0001143A181A08A20F44071A8890843A082D5
:102900006846FDF7FBFF1A48844202D0194884420A
:1029100001D1039800E00298A189090400EBC001ED
:1029200001EB0010296801D5490000E08900B0FBE7
:10293000F1F06422B0FBF2F109010B096FF0180508
:102940006B4300EB8300A3891D044FF0320306D5CF
:1029500003EBC000B0FBF2F000F0070005E003EB72
:102960000010B0FBF2F000F00F00084320817FBDA3
:1029700000100140001401408088C0F30800704737
:10298000FEE7704710B504466FF00400FEF7E9F863
:102990000649E00800EB40020870C2EBC0104FF699
:1029A000FF7202EAC000488010BD00004C00002009
:1029B00070B54FF40776B0FBF6F1CCB2B0FBF6F190
:1029C00006FB110504E0304600F02AF8641EE4B26C
:1029D000002CF8D1002D04D02846BDE8704000F04E
:1029E0001FB870BD401EFDD2704700000B4909782A
:1029F00048434FF0E021486100238B61086940F0B3
:102A0000010008610869C20701D0C003FAD508694E
:102A100020F0010008618B61704700004C0000202D
:102A20000B49498848434FF0E021486100238B61FE
:102A3000086940F0010008610869C20701D0C003BD
:102A4000FAD5086920F0010008618B617047000029
:102A50004C00002010B50E4C01212046FDF7B1FDC1
:102A600002212046FDF7ABFD04212046FDF7A9FD1C
:102A700008212046FDF7A3FD064C07486169FFF7D2
:102A800079FE6169BDE810400448FFF773BE00009D
:102A90000008024000000020000400400008004040
:102AA0007FB501210420FDF705FF01258DF80450B5
:102AB00000248DF806400F20164E00908DF8075028
:102AC0008DF8054069463046FDF726FD4FF49860C5
:102AD0008DF80C4002908DF80F4002208DF80D000B
:102AE00002A93046FDF718FD8DF804508DF8064018
:102AF00003208DF80500084CEE0300968DF8075072
:102B000069462046FDF708FD31462046FDF759FD90
:102B10007FBD00000008024000000240462101483D
:102B2000FFF728BE000C0040FFF788F9FFF7ABF96C
:102B3000FFF7CEF9FFF7F1F9FFF714FAA820FFF736
:102B400021FF4FF4E13000F04FF8FFF7A9FF40F20A
:102B50008F6140F2E730FFF777FC53210920FFF740
:102B6000ABFB53210920FFF715FC42F2CF010920EE
:102B7000FFF75EFBFFF7D2FFFDF73CFE164C174E4A
:102B80004FF480653B20FDF71EFD60803D20FDF782
:102B90001AFDA0803F20FDF716FDE0804320FDF7E1
:102BA00012FD20814520FDF70EFD60814720FDF7D5
:102BB0000AFDA08129463046FDF7FAFC206210B1DB
:102BC000FDF754FCDEE78C210548FFF7D3FD8C218F
:102BD0000448FFF7CFFDD5E70000002000080240C1
:102BE0000004004000080040F0B5074697B00121FE
:102BF0004248FDF75FFE01218804FDF767FE404E65
:102C000007220A213046FDF7C3FC07220B2130467C
:102C1000FDF7BEFC4FF44060139002208DF8500089
:102C20008DF8510000248DF8524001258DF8535045
:102C300013A93046FDF770FCADF844400C20314E2E
:102C4000ADF84040ADF846000F97ADF84240ADF802
:102C500048400FA93046FFF739FE012240F22551C6
:102C60003046FFF71BFE012240F224413046FFF7B9
:102C700015FE27208DF8540003218DF855108DF88E
:102C800056108DF8575015A8FDF7E2FD012240219E
:102C90003046FFF7DCFD10213046FFF7CBFD012168
:102CA0003046FFF7CAFD184D2846FDF721FB4FF0CF
:102CB00000600090301D01901448CDE902042420EA
:102CC000CDE904042815CDE906048010CDE90840BB
:102CD0004FF44030CDE90A040C940D94694628461F
:102CE0000E94FDF797FB00212846FDF7F6FA012127
:102CF0002846FDF7F2FA17B0F0BD000002002000F0
:102D000000040240004800402860024064000020A7
:102D10004FF04070E1EE100A704700003C2D0008B3
:102D20000000002064000000C4010008A02D00087D
:102D300064000020AC090000E00100080000000071
:102D40000000000000000000000000000000000083
:102D5000080000000000000000000000000000006B
:102D60000000000000000000000000000000000063
:102D70000000000000000000000000000000000053
:102D80000000000000000000000000000000000043
:102D90000001020304010203040607080900000001
:040000050800018965
:00000001FF
