:020000040800F2
:10000000281E00203903000833320008EF2A0008B8
:1000100031320008A5050008F53A0008000000008C
:10002000000000000000000000000000790200084D
:10003000F106000800000000D50200084136000863
:100040005303000853030008530300085303000838
:100050005303000853030008530300085303000828
:100060005303000853030008530300085303000818
:100070005303000853030008530300085303000808
:100080005303000800000000530300085303000856
:1000900053030008550700085303000853030008E2
:1000A00053030008530300085303000853030008D8
:1000B00053030008530300085303000853030008C8
:1000C00053030008530300085303000853030008B8
:1000D00053030008530300085303000853030008A8
:1000E0005303000853030008530300085303000898
:1000F00053030008530300085303000800000000E6
:100100000000000053030008000000005303000833
:100110005303000800000000F136000853030008F4
:100120005303000853030008530300085303000857
:100130005303000800000000000000005303000803
:1001400053030008530300080000000000000000F3
:10015000000000000000000000000000000000009F
:100160000000000000000000000000005303000831
:100170005303000800000000000000000000000021
:100180000000000053030008000000000000000011
:10019000000000000000000000000000000000005F
:1001A0000000000000000000530300085303000893
:1001B0005303000853030008530300080000000025
:1001C00000000000530300080000000000000000D1
:1001D000530300085303000800F002F800F03CF855
:1001E0000AA090E8000C82448344AAF10107DA4592
:1001F00001D100F031F8AFF2090EBAE80F0013F0A8
:10020000010F18BFFB1A43F001031847D85700002D
:10021000F8570000103A24BF78C878C1FAD85207BE
:1002200024BF30C830C144BF04680C607047000070
:100230000023002400250026103A28BF78C1FBD8EF
:10024000520728BF30C148BF0B6070471FB505F08B
:1002500059FB1FBD10B510BD00F02FF91146FFF777
:10026000F5FF03F0C1FD00F04DF903B4FFF7F2FF15
:1002700003BC00F055F900002C4B19680868B0E881
:10028000F04F80F30988BFF36F8F4FF0000080F3C9
:10029000118870470000000008480068006880F37B
:1002A00008884FF0000080F3148862B661B6BFF38F
:1002B0004F8FBFF36F8F00DF00BF00BF08ED00E07E
:1002C000DFF80C00016841F470010160704700BF65
:1002D00088ED00E0EFF30980BFF36F8F134B1A68CE
:1002E0001EF0100F08BF20ED108A20E9F04F1060BB
:1002F00009B44FF0500080F31188BFF34F8FBFF364
:100300006F8F04F03BFC4FF0000080F3118809BCB4
:1003100019680868B0E8F04F1EF0100F08BFB0EC85
:10032000108A80F30988BFF36F8F70478400002024
:10033000EFF30580704700000948804709480047EF
:10034000FEE7FEE7FEE7FEE7FEE7FEE7FEE7FEE785
:10035000FEE7FEE704480549054A064B70470000E2
:10036000E1360008D901000828180020281E0020C6
:10037000281A0020281A0020032A40F2308010F0AA
:10038000030C00F0158011F8013BBCF1020F624430
:1003900098BF11F801CB00F8013B38BF11F8013BC1
:1003A000A2F1040298BF00F801CB38BF00F8013B6E
:1003B00011F0030300F02580083AC0F0088051F8DE
:1003C000043B083A51F804CBA0E80810F5E7121DE9
:1003D0005CBF51F8043B40F8043BAFF30080D20708
:1003E00024BF11F8013B11F801CB48BF11F8012BD4
:1003F00024BF00F8013B00F801CB48BF00F8012BF7
:10040000704710B5203AC0F00B80B1E81850203A80
:10041000A0E81850B1E81850A0E81850BFF4F5AFA4
:100420005FEA027C24BFB1E81850A0E8185044BF2E
:1004300018C918C0BDE810405FEA827C24BF51F89B
:10044000043B40F8043B08BF7047D20728BF31F88F
:10045000023B48BF11F8012B28BF20F8023B48BFE0
:1004600000F8012B70474FF0000200B51346944688
:100470009646203922BFA0E80C50A0E80C50B1F1FC
:100480002001BFF4F7AF090728BFA0E80C5048BF10
:100490000CC05DF804EB890028BF40F8042B08BFAE
:1004A000704748BF20F8022B11F0804F18BF00F8AA
:1004B000012B7047704770477047754600F02CF865
:1004C000AE4605006946534620F00700854618B041
:1004D00020B5FFF73FFFBDE820404FF000064FF08A
:1004E00000074FF000084FF0000B21F00701AC4669
:1004F000ACE8C009ACE8C009ACE8C009ACE8C00988
:100500008D46704710B50446AFF300802046BDE825
:100510001040FFF7AABE000000487047C81700202F
:1005200001491820ABBEFEE726000200704700001C
:1005300070B504460068816811F0010F2DD1816803
:10054000174A11421AD18168D5432940491C81605C
:1005500001F0D0F906461BE0816811F0010F03D1CC
:1005600081682940491C816001F0C4F9801B022880
:100570000ED920680068C043C00709D0E06D40F084
:100580001000E065206E40F001002066012070BD83
:1005900020680168C943C907DED1002070BD000092
:1005A0003F000080FEE7704770B54C4C4C4D06464E
:1005B0002DED028BD4ED0E0AC5ED000A85ED010A82
:1005C0009FED488A04F12801284691EC030AF0EED9
:1005D000481A02F06AFE284602F02CFE704200EE35
:1005E000900A95ED0A0AF8EEE00AB4EEE00AF1EEA0
:1005F00010FA02D800EE100A0AE000EE906AF8EE57
:10060000E00AB4EEE00AF1EE10FA05DB00EE106A43
:10061000B8EEC00A85ED0A0A314D30483C3DB1EED6
:10062000400A583085ED000A808804F11C0100EE74
:10063000100AF0EE481A2846B8EE400A85ED010A85
:1006400091EC030A02F031FE284602F0F3FDA068A7
:1006500095ED0A0A414200EE901AF8EEE00AB4EE77
:10066000E00AF1EE10FA02D800EE101A0AE000EEED
:10067000900AF8EEE00AB4EEE00AF1EE10FA05DBBB
:1006800000EE100AB8EEC00A85ED0A0AD4ED040A9D
:1006900030EE200A84ED040AB5EEC00AF1EE10FA3D
:1006A00002D89FED110A0CE000EE900AF8EEE00A85
:1006B000B4EEE00AF1EE10FA05DB00EE100AB8EE37
:1006C000C00A84ED040A0949BCEEC00A096810EEAC
:1006D000100A0864BDEC028B70BD00000000002011
:1006E0000C0800200000FA44000000001809002057
:1006F0007047704710B588B000240120CDE9024052
:10070000049040F2222001940590069001A910481F
:1007100000F035FD08B1FFF7ECFF0222032311467C
:100720000B48009400F059FD08B1FFF7E2FF0848BC
:1007300000F0D6FF08B1FFF7DCFF002201210448DA
:1007400000F088FC002801D0FFF7D3FF08B010BDEF
:10075000B408002010B5054B054A4021054800F0BB
:1007600059FDBDE81040034800F0CDBD64000020F5
:1007700000010020B4080020F0B5D1E901650C6942
:100780002C430D68BEB145F080452C43D1E9066588
:10079000354391F820704E69406D46EA076635434F
:1007A000CE6803EBC303354300EBC3000023E0E84E
:1007B00002450A4C0AE044EA8544E7E7D618D55CCE
:1007C000D6F801601B1D45EA062520C0CD6804EB64
:1007D00015452D789D42F1D8F0BD000090590008D4
:1007E0002DE9F84F00270446009790F85800DFF8ED
:1007F000E0930D46B846012811D0012684F85860D0
:10080000206802F0BAFB60B1E06D40F02000E065C6
:100810005FF0010784F858803846BDE8F88F022061
:10082000FBE7D5E900210C23206803EA9113184463
:10083000036B01F01F014FF01F0C0CFA01FCC2F317
:10084000846223EA0C038A4013430363206802F0A6
:1008500094FB8246206802F08CFB5AEA00003CD1EF
:10086000AA6829682068B2F1004F37D002F091FBE6
:100870002068416921F00041416120686969C268CE
:10088000C2F3C102520091402A69042A31D000EB20
:1008900082002B68026EDFF83CC303F0F84302EAE3
:1008A0000C020B431A4342F00041016620682A699A
:1008B000A96900EB8200026E22F080720A43026690
:1008C000297F22682869012910D0002102EB8000CD
:1008D000026E22F000720A4302667DE0002202F0FE
:1008E00058FB2068416941F00041C5E74FF00071B5
:1008F000ECE7002102F037FB400320684FF00001D5
:1009000072D002F030FB90FAA0F0B0FA80F12868C3
:1009100042036ED090FAA0F0B0FA80F0814204D188
:1009200000221146206802F043FB0121206802F0FA
:100930001AFB400320684FF001015DD002F013FB69
:1009400090FAA0F0B0FA80F12868420359D090FAEA
:10095000A0F0B0FA80F0814204D100220121206889
:1009600002F026FB0221206802F0FDFA4003206815
:100970004FF0020148D002F0F6FA90FAA0F0B0FA77
:1009800080F12868420344D090FAA0F0B0FA80F0D9
:10099000814204D100220221206802F009FB0321D8
:1009A000206802F0E0FA400320684FF0030133D0E2
:1009B00002F0D9FA90FAA0F0B0FA80F12868420368
:1009C0002FD090FAA0F0B0FA80F0814204D100223A
:1009D0000321206802F0ECFA2068816811F0010F11
:1009E00022D0ACE000E004E002F0BDFAC0F3846184
:1009F0008DE7C0F3846091E702F0B5FAC0F384613B
:100A0000A2E7C0F38460A6E702F0ADFAC0F3846108
:100A1000B7E7C0F38460BBE702F0A5FAC0F38461D6
:100A2000CCE7C0F38460D0E72A7B296850F8B03F58
:100A3000C1F3120C23EA0C0302F0180C664A22FAE6
:100A40000CF20A4013430360E968494577D12868EE
:100A500041031CD090FAA0F1B1FA81F1491C01F0D8
:100A60001F0109294FEA403132D8002912D000BFB6
:100A700090FAA0F1B1FA81F101F1010101F01F0139
:100A800006FA01F609D100BFC0F3846109E0C0F3A2
:100A90008461E3E7C0F38461EEE790FAA0F1B1FA74
:100AA00081F101F1010101F01F0146EA816102D1EA
:100AB000C0F3846003E090FAA0F0B0FA80F000F197
:100AC000010000F01F0000EB400041EA005132E05D
:100AD00000290ED090FAA0F1B1FA81F101F10101E3
:100AE00001F01F0106FA01F606D100BFC0F38461D0
:100AF00006E0C0F38461F1E790FAA0F1B1FA81F168
:100B000001F1010101F01F0146EA816102D1C0F348
:100B1000846003E090FAA0F0B0FA80F000F10100E8
:100B200000F01F002D4A00EB400002EB005041EAAC
:100B3000000141F00071AA68206802F02AFA2848F2
:100B40002A6802423FF466AE26488168264B01F0CF
:100B5000E0719A4202D0254B9A421CD10B021AD462
:100B60002268B2F1A04F7FF455AE826841F40001D3
:100B700022F0E0720A4382601D481E490068B0FB03
:100B8000F1F0401C00EB4000800000E0401E0090AF
:100B90000028FBD13EE6184D184BAA4207D1CD01E3
:100BA00005D422689A42F5D041F0807109E0144DD5
:100BB000AA42EFD14A02EDD422689A42EAD041F427
:100BC0008001826822F0E0720A43826022E600001F
:100BD00000007F4000F0FF03FFFF0700000020FE41
:100BE0000000088000030050000021C31000C090E6
:100BF00080000020400D0300000052C7000100509B
:100C0000000084CB0068006C70470000F8B54FF01E
:100C1000000504002E46009502D0E06D10B107E0FB
:100C20000120F8BD204600F0EFF8266684F85860F1
:100C300020688168C1F3407119B181686A4A114026
:100C4000816020688168C1F3007189B98168674A51
:100C5000114041F080518160654866490068B0FBF1
:100C6000F1F04000801C00E0401E00900028FBD105
:100C700020688168C1F3007141B9E16D41F0100154
:100C8000E165216E41F001012166012502F075F94F
:100C9000E16DC90600D430B1E06D40F01000E065B0
:100CA00001252846F8BDE06D20F4807040F0020078
:100CB000E0652068806810F0010F11D14FF0A0406E
:100CC00080684D4900F00100896801F00101084386
:100CD00006D14A486168826822F47C120A43826025
:100CE000E168E06B627F0843A16841EA4231084352
:100CF00094F8241040EA0140012904D1218D404A92
:100D000002EB41410843E16A29B101F47871226B99
:100D1000014342EA01002168CA683A4B1A40024383
:100D2000CA6020680169626B21F040611143016172
:100D3000206802F022F90646206802F01AF93043D2
:100D40002ED1207F94F83810800340EA41022068B9
:100D5000C16844F2020399431143C160206900282D
:100D6000206801690AD041F480310161206850F89F
:100D7000C01F22696FF30D01114307E021F4803198
:100D80000161206850F8C01F6FF30D01016094F8F5
:100D9000400001280CD02068016921F001010161A7
:100DA000606901282068016B21F00F0111D013E068
:100DB000D4E911010843D4E913121143084321680F
:100DC0000A6940F2FC739A43104340F00100086145
:100DD000E6E7226A521E11430163E06D20F0020033
:100DE00040F00100E0655CE7C0FFFF5FC0FFFF7FF0
:100DF00080000020400D030000010050000300505F
:100E00000000FEFF0740F0FF10B586B00446142135
:100E10006846FFF728FB1149206888421BD110481B
:100E2000C16C41F40051C164C16C01F400510591E1
:100E3000C16C41F00101C164C06C694600F0010061
:100E400005902020009003200190002002904FF098
:100E5000904000F061FC06B010BD000000010050A1
:100E6000001002402DE9F04104463B480F468168DE
:100E700001F01F05A16908290FD085B1052D0ED0FD
:100E8000092D0CD0806800F4604060B1E06D40F046
:100E90002000E0650120BDE8F081082604E020681C
:100EA000C068C007F1E7042600F024FD804615E085
:100EB000781C13D000F01EFDA0EB0800B84200D84B
:100EC00067B920680068304208D1E06D40F0040046
:100ED000E065002084F858000320DCE72068006803
:100EE0003042E5D0E06D40F40070E065206802F02B
:100EF00048F880B1607F70B92068006800070AD5A3
:100F0000E06D20F48070E065E06DC00403D4E06D16
:100F100040F00100E065114A20684FF0A041904286
:100F200001D10B4600E00346834210D07DB1052D70
:100F30000DD0092D0BD0904200D00146C968082E73
:100F400007D0490401D40C2101600020A3E7C16847
:100F5000F5E70821F8E70000000300500001005009
:100F60002DE9F04104463848806800F01F052068EC
:100F700002F003F818B102210846BDE8F08194F8A8
:100F8000580001280CD0012084F858002046FFF7B3
:100F9000CFFA01004FF0000304D084F85830EBE79B
:100FA0000220EAE7E06D40F60162904340F4807071
:100FB000E065264A20684FF0A046904201D13746AE
:100FC00000E00746874200D01DB9E76D27F480177F
:100FD000E765E76DFF0404D5276E27F0060727664F
:100FE00000E023661C27076084F858302068904290
:100FF00001D1334600E00346834215D0A5B1052D4B
:1010000012D0092D10D0E36D43F48013E3659042B4
:1010100000D13046C0688001AED5E06D20F40050AC
:1010200040F48050E065A7E7C268920105D5E26D03
:1010300022F4005242F48052E2658268044B1A4066
:10104000121D826098E7000000030050000100506C
:10105000C0FFFF7F30B590F85C30012B07D0022B2A
:1010600005D0016E41F002010166012030BD046827
:10107000A36D4D0701D0DD071DD011F0380F01D051
:101080009D0718D511F4E07F01D05D0713D511F449
:10109000F05F01D01D070ED511F4604F01D0DD06C1
:1010A00009D511F4403F01D09D0604D511F47C0F01
:1010B00005D05D0603D4E56D45F00105E5654C07F7
:1010C00001D0DC071DD111F0380F01D09C0718D4D6
:1010D00011F4E07F01D05C0713D411F4F05F01D06C
:1010E0001C070ED411F4604F01D0DC0609D411F4B2
:1010F000403F01D09C0604D411F47C0F06D05B065F
:1011000004D50368DC6D44F00204DC650B0604D5ED
:10111000036853F8DC4F14431C60CB0504D5036807
:1011200053F8E04F14431C600068426D0A43426567
:10113000002030BD70B5044690F85C00022803D052
:10114000206E40F0080007E02068D0F8C4309B0211
:1011500005D5206E40F400702066012070BDD0F8E7
:10116000C400C0F301452B462046FFF705FB21686C
:101170000120A840C1F8CC00A065002070BD10B5CA
:1011800090F85C20012A07D0022A05D0016E41F0B8
:1011900002010166012010BD0A687AB10B7B0A6961
:1011A0000C7A42EA43734A69406C496842EA8472A5
:1011B00000EBC100C0E90032002010BD0B7A4A6983
:1011C0000C8A42EA83720B7B006CDB06496843EAB7
:1011D00004431A4340F82120EEE730B590F85C5004
:1011E000039C012D05D0016E41F004010166012030
:1011F00030BD0901006841EA820141EA430150F82B
:10120000802F214322F03F0211430160002030BDB6
:1012100070477047F0B590F85C40022C03D0016E27
:1012200041F008014DE0046840293DD0D4F89850C1
:101230002D0743D0D4F89840C4F30126D0F84C4091
:1012400006EBC60504EBC504256815F0804555601E
:10125000256839D025F0604515602568284F05F0D0
:101260000055956020CC05F00045156134F8045B0D
:10127000ADB2D56154F8045C05F47025D56054F81E
:10128000045C05F48015556154F8045C05F4001500
:10129000956154F8045CC5F30665156254F8045C66
:1012A000ED0F5562002518E0D4F890502D0705D0B9
:1012B000D4F89040C4F30126846CC1E7016E41F478
:1012C000807101660120F0BDC5F38A45C4E700BF07
:1012D00014F805C003F805C06D1CD2F80CC007EB6C
:1012E0001C4C9CF800C0AC45F2D80068402903D0E3
:1012F000C0F89C600020F0BDC0F89460FAE70000E0
:101300009059000870472DE9F04704460068016DC8
:10131000466D01F4E0510E40016D476D01F007018B
:101320000F40016D426D01F0380102EA0108016DC4
:10133000456D01F471010D40016D426D01F46021B4
:1013400002EA0109016D490607D5416D490604D538
:10135000402101652046FFF7D5FF2068016DC905D2
:101360000DD5416DC9050AD5D0F8D820D0F8E010C8
:1013700011404FF480720265204600F0C9F92EB189
:10138000206806653146204600F0C4F92FB1206878
:1013900007653946204600F0A1F9B8F1000005D0F4
:1013A000216808654146204600F099F92068016DE2
:1013B000890508D5416D890505D54FF40071016592
:1013C000204600F0A8F92068016D09060CD5416D92
:1013D000090609D5D0F8D420D0F8DC1011408022BD
:1013E0000265204600F095F92068016D890408D552
:1013F000416D890405D54FF400510165204600F088
:1014000086F92068016D090408D5416D090405D5E8
:101410004FF400410165204600F078F92068016D25
:10142000490409D5416D490406D54FF48041016551
:10143000206E40F080002066B9F1000005D02168E0
:10144000086549462046FFF7E4FE25B1206805659A
:10145000206E28432066206E002802D02046FFF729
:10146000D7FEBDE8F08700002DE9F041040006D06A
:10147000DFF8E88194F85C00002518B107E001204E
:10148000BDE8F08184F85D50204600F0EFF8206858
:10149000816921F01001816100F02CFA06460327D2
:1014A00005E000BF00F026FA801B0A2811D820684A
:1014B00080690007F6D42068816941F001018161EB
:1014C00000F018FA06460BE000F014FA801B0A2818
:1014D00006D9206E40F00100206684F85C70CEE7EB
:1014E00020688069C007EFD02068816941F002015F
:1014F00081612168414502D1594960680860207CBA
:1015000001282068816937D041F040018161607C09
:1015100001282068816932D021F480418161A07C5A
:101520000128206881692DD041F4805181612068B3
:101530008169A26821F44071114381612068816949
:1015400021F0A40181612068016921F0100101618D
:10155000E068012819D010B302281BD020688169E7
:1015600041F0800181612068016941F01001016151
:10157000E06803280ED012E021F04001C6E741F4F4
:101580008041CBE721F48051D0E72068816941F0A8
:10159000040103E02068816941F020018161207E1F
:1015A000E26940066FF0FF0101EB0222A0F100703A
:1015B0001043226AA38A521E10430A0202EB03431D
:1015C00018432368D861A068B0F5407F10D1D4E9F2
:1015D0000A0301EB0321401E0843216B131303EBA5
:1015E00001110843A18C02EB014108432168C86046
:1015F000206850F8C01FE26B114301601948206455
:10160000216851F8802FA38E22F4F81242EA034297
:101610000A60144970316164216851F8802F94F890
:10162000383022F0706242EA03620A600D49B0313C
:10163000A1640D49E1640C49D83121650A49F031B2
:10164000616500F5547120C08842FCD3A56525660C
:10165000012084F85C00002012E7000000640040D4
:101660000065004000A4004088A5004010B586B089
:10167000044614216846FEF7F6FE164920688842A3
:1016800026D11548816D41F000718165816D01F0B1
:1016900000710591C16C41F00101C164C06C6946E3
:1016A00000F0010005904FF4C0500090022001901E
:1016B00000200290039009200490C00600F02CF84E
:1016C00000220521152000F0A3F9152000F092F961
:1016D00006B010BD00640040001002407047704723
:1016E00090F85C10012905D0016E41F004010166FB
:1016F00001207047022180F85C1001688A6922F09D
:1017000001028A61002101660846704770477047F0
:1017100070477047704770472DE9FC4FDFF8A0A174
:10172000002301250AF1040B03244FF00F0C0BF1E9
:10173000040EBDE005FA03F632406FD04F68012F6A
:1017400005D0022F03D0112F01D0122F17D1D0F8BE
:1017500008905F0004FA07F829EA08090097D1F811
:101760000C8008FA07F848EA0908C0F808804768BA
:10177000B7430E79C6F300169E403E434660C668E6
:101780004FEA430804FA08F7BE4301978F6807FA47
:1017900008F73743C7604E68022E01D0122E13D1CE
:1017A000DE0800EB86060096366A5F07FF0E0CFA2D
:1017B00007F926EA0906D1F8109009FA07F949EA6B
:1017C0000609009EC6F820900668019FBE430F7967
:1017D00007F0030707FA08F7374307604E68F6007B
:1017E00065D5384E376E47F001073766366E23F001
:1017F000030706F001060096334E3E44B146B66834
:101800009F074FEA17780CFA08F7BE43B0F1904FE4
:1018100005D02E4FB84204D1012717E047E000273A
:1018200014E02B4FB84201D102270FE0294FB842F4
:1018300001D103270AE0284FB84201D1042705E06F
:10184000264FB84201D1052700E0062707FA08F71E
:101850003743C9F80870DAF800605746D1F80480B9
:1018600096435FEAC83800D516433E60DBF8006057
:101870005F46D1F8048096435FEA883800D5164366
:101880003E60DEF800607746D1F8048096435FEA58
:10189000C82800D516433E60094F0C373E68D1F882
:1018A000048096435FEA882800D516433E605B1C9F
:1018B0000A6832FA03F67FF43DAFBDE8FC8F000002
:1018C00000040140001002400000014000040048F4
:1018D00000080048000C00480010004800140048B0
:1018E0000069084000D0012070470AB1816170474B
:1018F00081627047014880687047000070000020D6
:10190000024881684268114481607047700000207D
:1019100010B50024032000F09BF80F2000F008F819
:1019200008B1012401E000F047F8204610BD000096
:1019300030B505461B4887B0816D41F010018165C7
:10194000806D06A900F01000009001A800F020FBB7
:1019500000F03EFB1449154AB0FBF1F11448491E52
:101960000260416040F2E7320021C0E9032181605A
:1019700000F0C7FD040012D10D4800F0F5FD040091
:101980000DD1362000F036F8102D07D2002229465E
:10199000362000F03DF80748056000E0012407B05C
:1019A000204630BD0010024040420F0000100040B1
:1019B00064090020700000200D4808B5016E41F058
:1019C00001010166016E01F001010091816D41F09C
:1019D00080518165806D002200F0805000900F21C1
:1019E000901E00F015F8BDE8084000F0A1B8000016
:1019F00000100240002809DB00F01F020121914085
:101A00004009800000F1E020C0F80011704700009C
:101A1000F0B40E4B1B680C46C3F30223C3F1070559
:101A2000042D00D90425191D072901D2002300E047
:101A3000DB1E012606FA05F1491E214099409E4011
:101A4000761E16403143F0BC02F055B80CED00E0B4
:101A5000064900F0070208684FF6FF03184040EA05
:101A60000220034A10430860704700000CED00E0BC
:101A70000000FA052B492C4B0A6832214A432B49B6
:101A800040B1B0F5007F086829D020F4C06040F470
:101A900080602CE00868C0F34120022804D051F88F
:101AA000800F20F4807022E0D1F8800020F4807054
:101AB000C1F88000086820F4C06040F4007008603D
:101AC000B2FBF3F0401C00E0401E4A69520501D50C
:101AD0000028F9D1486940050AD503207047C0F3B2
:101AE0004120022806D051F8800F40F48070086031
:101AF00000207047D1F8800040F48070C1F8800069
:101B0000086820F4C06040F400700860B2FBF3F095
:101B1000401C00E0401E4A695205DBD50028F9D17F
:101B2000D8E700008000002040420F000070004015
:101B30000248816841F48041816070470070004034
:101B40002DE9F8430446006800269D4D00035ED54C
:101B5000A86D0027C00008D4A86D40F08050A8658B
:101B6000A86D012700F080500090DFF85892D9F856
:101B7000001041F48071C9F80010FFF7BBFE8046E9
:101B800006E000BFFFF7B6FEA0EB080002282BD846
:101B9000D9F80000C005F5D5D5F8900010F44070D4
:101BA00014D0216C814211D0D5F89000D5F8901056
:101BB00020F4407041F48031C5F89010D5F89010B1
:101BC00021F48031C5F89010C5F89000C00711D0FD
:101BD000FFF790FE804641F2883907E0FFF78AFE62
:101BE000A0EB0801494501D903260BE0D5F8900088
:101BF0008007F3D5D5F89000216C20F4407008439D
:101C0000C5F890001FB1A86D20F08050A86520781D
:101C1000C00707D0D5F88800616820F003000843AA
:101C2000C5F888002078800707D5D5F88800A16816
:101C300020F00C000843C5F888002078400707D53D
:101C4000D5F88800E16820F030000843C5F8880026
:101C50002078000707D5D5F88800216920F0C0005A
:101C60000843C5F888002078800607D5D5F8880095
:101C7000616920F440600843C5F888002078400678
:101C800007D5D5F88800A16920F440500843C5F86D
:101C900088002078000607D5D5F88800E16920F48F
:101CA00040400843C5F888002088C00507D5D5F80E
:101CB0008800216A20F440300843C5F88800208855
:101CC000800507D5D5F88800616A20F440200843D4
:101CD000C5F88800208840050FD5D5F88800A16A8E
:101CE00020F440100843C5F88800A06AB0F5801FB2
:101CF00003D1E86840F48010E860208800050FD523
:101D0000D5F88800E16A20F440000843C5F888004F
:101D1000E06AB0F5800F03D1E86840F48010E86015
:101D20002088C0040FD5D5F88800216B20F04070C2
:101D30000843C5F88800206BB0F1807F03D1E868C4
:101D400040F48010E86020884FF0006180040ED5D8
:101D5000D5F88800626B20F040601043C5F8880019
:101D6000606B884203D1E86840F48010E860208806
:101D700040040ED5D5F88800A26B20F040601043D7
:101D8000C5F88800A06B884203D1E86840F4801051
:101D9000E860208800040FD5D5F88800E16B20F0BA
:101DA00040500843C5F88800E06BB0F1805F03D174
:101DB000E86840F48030E8603046BDE8F883000011
:101DC00000100240007000402DE9F0470E4605006B
:101DD0004FF0000725D0DFF89C81D8F8000000F014
:101DE0000F00B0420CD2D8F8001021F00F0131439F
:101DF000C8F80010D8F8000000F00F00B04210D171
:101E000029685D4CC80741F2883A52D06868DFF80B
:101E10006C91032808D00228206826D040050028AD
:101E200025DB0120BDE8F08720688001F9D5E06856
:101E3000E068534BC0F30310401CB3FBF0F0E268C2
:101E4000C2F306225043E268C2F34162521C5200C0
:101E5000B0FBF2F0484515D9A06810F0F00F0AD099
:101E600088070FD5A86830B10CE08003D7E700F0F1
:101E7000C1F8484506D9A06820F0F00040F0800085
:101E8000A0608027A068696820F003000843A06074
:101E9000FFF730FD814605E0FFF72CFDA0EB0901BF
:101EA00051453AD8A068696800F00C00B0EB810F8A
:101EB000F2D12868810714D5400703D5A06840F403
:101EC000E060A0602878000705D5A06820F4605085
:101ED00040F4E060A060A068A96820F0F00008432A
:101EE00004E0802F03D1A06820F0F000A060D8F8B3
:101EF0000010404601F00F01B14216D9016821F0EF
:101F00000F0131430160FFF7F5FC074607E000BF12
:101F1000FFF7F0FCC11B514501D9032082E7D8F837
:101F2000000000F00F00B042F2D12878400705D53C
:101F3000A068E96820F4E0600843A0602878000702
:101F400006D5A068296920F4605040EAC100A0606D
:101F500000F050F8A1680B4AC1F30311515C01F085
:101F60001F01C8400849086008480068BDE8F047FC
:101F7000FFF7DEBC002002400010024000B4C404A1
:101F80000024F400A0590008800000207000002008
:101F90000F2202600C4A936803F0030343609368C6
:101FA00003F0F0038360936803F4E063C360926816
:101FB0004FF4E06303EAD20202610448006800F0D3
:101FC0000F0008607047000000100240002002402F
:101FD0000548064900688968054AC1F30221515C39
:101FE00001F01F01C840704780000020001002402F
:101FF000B059000813498868C0F381021248012AC9
:102000000AD08A68C2F38102022A05D08A68C2F324
:102010008102032A01D000207047CA6802F003033E
:10202000CA68C2F30312521CB0FBF2F0CA68C96856
:10203000C2F306225043C1F34161491C4900B0FB81
:10204000F1F07047001002400024F4002DE9F8433D
:1020500004007AD02078FA4DC00747D0A868E96814
:1020600000F00C0001F003010C2802D0082817D062
:1020700001E0032914D06068B0F5803F17D0B0F5B7
:10208000A02F286817D020F480302860286820F41A
:10209000802028606068E0B1FFF72CFC064614E061
:1020A0002868800322D560680028D2D01EE0286806
:1020B00040F48030EDE740F480202860F7E700BF6F
:1020C000FFF718FC801B642870D828688003F7D5B8
:1020D0000CE0FFF70FFC064605E000BFFFF70AFC27
:1020E000801B6428F0D828688003F7D42078800704
:1020F0004CD5A868E96800F00C0001F003010C2839
:1021000002D004280DD001E002290AD0E06800289E
:1021100028682BD040F480702860FFF7EBFB064660
:1021200019E02868400502D5E068002891D0686869
:10213000217C20F0FE4040EA01606860C1480068F0
:10214000FFF7F6FB002800D120E076E1FFF7D2FB95
:10215000801B0228B8D828684005F7D56868217C1C
:1021600020F0FE4040EA016068600FE020F48070DB
:102170002860FFF7BFFB064605E000BFFFF7BAFB8C
:10218000801B0228A0D828684005F7D420780007D3
:1021900029D560690028D5F8940013D040F00100DB
:1021A000C5F89400FFF7A6FB064606E090E000BFE6
:1021B000FFF7A0FB801B022886D8D5F89400800783
:1021C000F6D510E020F00100C5F89400FFF792FB6F
:1021D000064604E0FFF78EFB801B022878D8D5F86E
:1021E00094008007F6D42078400761D5A86D0026BA
:1021F000C00008D4A86D40F08050A865A86D0126E5
:1022000000F08050009090480168C90511D4016821
:10221000804641F480710160FFF76CFB074604E0E3
:10222000FFF768FBC01B022852D8D8F80000C00591
:10223000F6D5A068012815D00528D5F8900016D04D
:1022400020F00100C5F89000D5F8900020F00400BF
:10225000C5F89000A06841F28838B8B1FFF74AFB92
:1022600007460EE0D5F8900040F00100F0E740F09E
:102270000400C5F89000F5E7FFF73CFBC11B4145A2
:1022800026D8D5F890008007F6D50CE0FFF732FB92
:10229000074604E0FFF72EFBC11B414518D8D5F8CF
:1022A00090008007F6D41EB1A86D20F08050A8657C
:1022B0002078800629D5A0690028D5F8980013D089
:1022C00040F00100C5F89800FFF714FB064606E051
:1022D00077E000BFFFF70EFB801B022877D8D5F808
:1022E00098008007F6D510E020F00100C5F89800AE
:1022F000FFF700FB064604E0FFF7FCFA801B02280C
:1023000065D8D5F898008007F6D4E069F0B3A968DD
:10231000C1F38101032961D00228286820F0807070
:1023200028600BD0E86820F00300E860E8684749BF
:102330000840E860FFF7DEFA04464BE0FFF7DAFA00
:10234000064604E0FFF7D6FA801B02283FD828682B
:102350008001F7D4F4E908016FF00F0202EB0111DC
:102360000843218A5204490802EB4151A26841EA1C
:1023700002210843217D4FF07E42490802EB416172
:102380000843217B40EAC160E96800E062E0304A2E
:1023900011400843E860286840F080702860E868D1
:1023A00040F08070E860FFF7A5FA044605E000BF42
:1023B000FFF7A0FA001B022809D828688001F7D58A
:1023C00048E004E0FFF796FA001B022802D9032038
:1023D000BDE8F88328688001F4D43BE00128F7D0F9
:1023E000E868226A00F00301914226D1616A00F098
:1023F000F0020901103991421FD1A26A00F4FE4196
:10240000B1EB022F19D194F82C2000F07841B1EBF8
:10241000C26F12D1218E00F4C00249084905A1F50E
:102420000011914209D194F8341000F0C0604908BD
:102430004906A1F1007181420CD00120C8E70000DB
:10244000001002407000002000700040FFFFEEFE10
:102450000C809F010020BBE77047704770477047B2
:1024600070477047F0B590F83C20012A3AD001251A
:1024700080F83C50022280F83D2003685A689C682E
:10248000194E1A4FB34201D0BB4204D122F4700C52
:102490004A6842EA0C02DFF858C002EA0C02D1F89E
:1024A00000C04CEA020CC3F804C00268B2420DD06E
:1024B000B2F1804F0AD00F4B9A4207D00E4B9A428E
:1024C00004D0BA4202D00D4B9A4204D1896824F05C
:1024D00080031943916080F83D50002180F83C1042
:1024E0000846F0BD0220F0BD002C01400034014040
:1024F0008FFFFFFD00040040000800400040014045
:10250000704710B5040003D094F83D0010B107E007
:10251000012010BD002084F83C00204600F022F885
:10252000022084F83D00211D206801F0E7F8012019
:1025300084F8480084F83E0084F83F0084F84000A6
:1025400084F8410084F8420084F8430084F8440091
:1025500084F8450084F8460084F8470084F83D007C
:10256000002010BD7047000090F83D10012901D0F7
:1025700001207047022180F83D100168CA6842F0CE
:102580000102CA600068104988420ED0B0F1804F45
:102590000BD00E49884208D00D49884205D00D491C
:1025A000884202D00C49884207D181680B4A114009
:1025B000062906D0B1F5803F03D0016841F0010142
:1025C0000160002070470000002C01400004004022
:1025D00000080040003401400040014007000100B5
:1025E000704770B50446006801694FF00005C943A3
:1025F000890715D4C168C943890711D4E91E01614F
:1026000001202077206880698007204602D0FFF7EC
:10261000E7FF04E000F00CF9204600F0DDF9257733
:1026200020680169C943490717D4C168C9434907EC
:1026300013D46FF0040101610220207720688069C3
:1026400010F4407F204602D0FFF7CAFF04E000F0FC
:10265000EFF8204600F0C0F9257720680169C943EA
:10266000090716D4C168C943090712D46FF00801DD
:102670000161042020772068C0698007204602D0CD
:10268000FFF7AEFF04E000F0D3F8204600F0A4F915
:10269000257720680169C943C90617D4C168C943B1
:1026A000C90613D46FF0100101610820207720685B
:1026B000C06910F4407F204602D0FFF791FF04E08C
:1026C00000F0B6F8204600F087F925772068016908
:1026D000C943C90708D1C168C943C90704D1891EC4
:1026E0000161204600F0F8F920680169C943090634
:1026F00009D4C168C943090605D46FF0800101619E
:102700002046FFF7AAFE20680169C943C90509D41C
:10271000C168C943090605D46FF480710161204680
:10272000FFF79AFE20680169C943490609D4C168C8
:10273000C943490605D46FF040010161204600F00D
:10274000D5F920680169C943890609D4C168C9431C
:10275000890605D46FF0200101612046FFF77EFE57
:1027600020680169C943C90209D4C168C943C902C3
:1027700005D46FF4801101612046FFF771FE2068D7
:102780000169C943890209D4C168C943890205D4D2
:102790006FF4001101612046FFF761FE20680169B6
:1027A000C943490209D4C168C943490205D46FF439
:1027B000800101612046FFF754FE20680169C9438A
:1027C00009020BD4C168C943090207D46FF40001A0
:1027D00001612046BDE87040FFF792BE70BD000069
:1027E00010B586B0044614216846FDF73CFE20680B
:1027F000B0F1804F16D10C48C16C41F00201C164A8
:10280000C06C694600F0020005904FF40060009033
:1028100002200190002002900390012004900348C0
:10282000FEF77AFF06B010BD001002400004004819
:10283000704770B5044690F83C000D4601280BD057
:10284000012084F83C000C2A45D007DC5AB1042A48
:102850001BD0082A78D12CE0022070BD102A4ED05F
:10286000142A71D15DE0206800F0AEFF2068816914
:1028700041F0080181612068816921F004018161D2
:10288000206881692A69114311E0206800F0EAFF9D
:102890002068816941F4006181612068816921F4C7
:1028A00080618161206881692A6941EA0221816130
:1028B0004AE0206801F01EF82068C16941F0080173
:1028C000C1612068C16921F00401C1612068C1694A
:1028D0002A69114311E0206801F054F82068C169A9
:1028E00041F40061C1612068C16921F48061C16166
:1028F0002068C1692A6941EA0221C16124E0206897
:1029000001F088F82068016D41F008010165206838
:10291000016D21F0040101652068016D2A691143F0
:1029200011E0206801F0AEF82068016D41F400610B
:1029300001652068016D21F4806101652068016DE9
:102940002A6941EA02210165002084F83C0070BD3B
:1029500010B5040003D094F83D0010B107E0012049
:1029600010BD002084F83C00204600F023F802202F
:1029700084F83D00211D206800F0C0FE012084F88D
:10298000480084F83E0084F83F0084F8400084F852
:10299000410084F8420084F8430084F8440084F83D
:1029A000450084F8460084F8470084F83D00002084
:1029B00010BD000008B50068B0F1804F08D105488F
:1029C000816D41F001018165806D00F00100009092
:1029D00008BD0000001002407047000030B50446FA
:1029E000022269B1042912D0082917D00C291CD061
:1029F000102921D094F84300012824D0012030BDB3
:102A000094F83E000128F9D184F83E201DE094F8A6
:102A10003F000128F2D184F83F2016E094F84000EE
:102A20000128EBD184F840200FE094F84100012800
:102A3000E4D184F8412008E094F842000128DDD177
:102A400084F8422001E084F843200122206800F04D
:102A5000ADFE194B20681949194A984209D088429D
:102A600007D0904205D0174DA84202D0164DA8427B
:102A700003D1456C45F400454564206898420CD06C
:102A8000B0F1804F09D0114B984206D0104B9842BC
:102A900003D0884201D0904207D181680D4A11408D
:102AA000062906D0B1F5803F03D0016841F001014D
:102AB0000160002030BD0000002C014000340140C6
:102AC0000040014000440140004801400004004033
:102AD000000800400700010000680349884201D156
:102AE000FEF70EBF70470000001000407047FEE781
:102AF00070B54FF400744FF09045002221462846EF
:102B0000FEF7F3FE00F084FC002261102846FEF779
:102B1000ECFE022001F04EF9012221462846FEF784
:102B2000E4FE022001F046F921462846BDE8704047
:102B30000022FEF7DABE0000134810B5C16C86B063
:102B400041F00101C164C06C4FF0904400F00100FD
:102B500005904FF4407000900120019000200290F9
:102B6000039069462046FEF7D7FD00224FF400711E
:102B70002046FEF7BAFE00224FF480712046FEF791
:102B8000B4FE06B010BD00000010024070B54FF456
:102B900000744FF09045002221462846FEF7A5FE1E
:102BA00000F036FC012211022846FEF79EFE0220AC
:102BB00001F000F9012221462846FEF796FE022088
:102BC00001F0F8F821462846BDE870400022FEF7E3
:102BD0008CBE2DE9F0478046002400F0FDFB002567
:102BE0004FF400764FF090474FF480790022314641
:102BF0003846FEF77AFE022001F0DCF80122314669
:102C00003846FEF772FE6006040E49463846FEF767
:102C100067FE08B1641CE4B2012001F0CBF86D1C22
:102C2000EDB2082DE2D3B8F1000F04D0FFF760FF3A
:102C30002046BDE8F087FFF7A9FFF9E72DE9F0414D
:102C4000054600F0E5FB4FF400764FF09047002278
:102C500031463846FEF749FE00244FF480782806B6
:102C600001D5012200E0002241463846FEF73DFE34
:102C70006806050E022001F09DF801223146384613
:102C8000FEF733FE022001F095F800223146384667
:102C9000FEF72BFE022001F08DF8641CE4B2082C34
:102CA000DDD3BDE8F08170B500F0B2FB0122140263
:102CB0004FF0904521462846FEF717FE01225602A6
:102CC00031462846FEF711FE042001F073F8002279
:102CD00021462846FEF709FE042001F06BF8002289
:102CE00031462846FEF701FE002070BD70B500F0A9
:102CF0008FFB4FF400744FF0904500222146284688
:102D0000FEF7F3FD6610002231462846FEF7EDFD82
:102D1000042001F04FF8012221462846FEF7E5FD88
:102D2000012231462846FEF7E0FDBDE87040042050
:102D300001F040B82DE9F041002400F04DFB0122E4
:102D400016024FF0904531462846FEF7CEFD012091
:102D500001F030F80122570239462846FEF7C5FD3A
:102D6000012001F027F808E0641CE4B2FA2C04D931
:102D7000FFF7BCFF0120BDE8F08131462846FEF791
:102D8000AFFD0028F0D1002239462846FEF7ADFD00
:102D90000020F0E710B500F047F8054C208000F067
:102DA00009F8A08000F036F86080002010BD000017
:102DB0005800002008B56946012000F075F89DF81C
:102DC0000000C009BDF8000040BA13D0012800D0AF
:102DD000002002F086FC41EC100B9FED0A1B00BFA7
:102DE00053EC112B51EC100B02F08EFCBDE80840A7
:102DF00002F048BC02F075FC41EC100B9FED031B88
:102E0000EEE70000000000000000F4BF000000003A
:102E10000000F43F08B56946032000F045F8BDF80E
:102E2000000040BA08BD000008B56946022000F065
:102E30003BF8BDF8000040BA02F053FC9FED041BC4
:102E400053EC112B02F060FC02F01CFC80B208BDB8
:102E5000000000000000F43F10B5FFF76DFEBDE874
:102E6000104046F227510020AFF3008070B50646AF
:102E70000C0ACDB2FFF717FF8020FFF7DFFEFFF748
:102E800059FF3046FFF7DAFEFFF754FF2046FFF701
:102E9000D5FEFFF74FFF2846FFF7D0FEFFF74AFFAA
:102EA000BDE87040FFF722BF70B50C460546FFF73E
:102EB000FAFE8020FFF7C2FEFFF73CFF2846FFF72F
:102EC000BDFEFFF737FFFFF7EEFE8120FFF7B6FEEE
:102ED000FFF730FF0120FFF77CFE20700020FFF796
:102EE00078FE6070BDE87040FFF700BF70B5050068
:102EF0004FF0904002D00024064616E0BDE8704036
:102F000001220821FEF7F1BC012208213046FEF71C
:102F1000ECFC642000F08EFF002208213046FEF712
:102F2000E4FC642000F086FF641CAC42ECDBBDE8EE
:102F300070404FF47A7000F07DBF70B505464FF0D9
:102F40009044002210212046FEF7CFFC284600F0D6
:102F500071FF012210212046FEF7C7FC2846BDE87C
:102F6000704000F067BF00EB8100006E00F0F84099
:102F700070478068C0F3C00070478068C0F380006D
:102F80007047C06810F4406F01D0002070470120E6
:102F90007047042303EAD15310B518444369C1F3C1
:102FA000045107248C40A3438A401343436110BD5E
:102FB00000EB8100016E21F0004111430166704772
:102FC00030B589B020216846FDF74DFA18481749F9
:102FD0000024C0E900148460C46004250461C0E9D1
:102FE0000545047744770121016280F82440C462DA
:102FF000046380F83840C46380F84040FDF706FE63
:1030000008B1FDF776FB0B4800900620CDE90104DE
:103010007F200594CDE9030569460548FDF7E0FBEF
:10302000002801D0FDF765FB09B030BD000100505C
:103030004808002000209036124810B510490022A0
:10304000C0E9001282600121C2600174417482747F
:1030500008234161C0E906130723C0E908310423AE
:10306000C0E90A1303230363C0E90D12C263FEF72C
:10307000FBF9002803D0BDE81040FDF73ABB10BDB6
:1030800000640040B408002010B51D499EB0002225
:10309000D1E90001CDE91C0101211CA800F000FFCD
:1030A000184C17491C22206508316846FDF7A9F91C
:1030B0000021684600F0CAFE114920641C22243118
:1030C00007A8FDF79EF9002107A800F0BFFE0C49F4
:1030D00060641C2240310EA8FDF793F900210EA870
:1030E00000F0B4FE0649A0641C225C3115A8FDF76F
:1030F00088F9002115A800F0A9FEE0641EB010BDFB
:1031000018590008000000202DE9F04186B0142174
:103110006846FDF7A8F92848C16C41F00401C16474
:10312000C16C01F004010591C16C41F02001C16442
:10313000C16C01F020010591C16C41F00101C16435
:10314000C16C01F001010591C16C41F00201C16443
:10315000C06C4FF0904800F0020005900022C021A2
:103160004046FEF7C2FB154F4FF480560022314611
:103170003846FEF7BAFBD820009001250024CDE99F
:103180000154694640460394FEF7C6FA0096CDE91D
:103190000154694638460394FEF7BEFA0420CDE98F
:1031A00000040220CDE9024069464046FEF7B4FA29
:1031B00006B0BDE8F08100000010024000040048A5
:1031C00010B58AB00024079408941C21684609941D
:1031D000FDF749F915484FF08041C0E900144FF45C
:1031E0008C61C0E9024104618461FFF7B1FB08B161
:1031F000FDF77FFA079407A90C480994FFF732F905
:1032000008B1FDF776FA6020CDE9000402940C22A3
:10321000694606480494FFF70CFB08B1FDF769FA0C
:103220000248FFF7DDFA0AB010BD000018090020BF
:10323000FEE7FEE7D0ED050AC0ED060A90ED000AB4
:1032400090ED011A30EE410A80ED050A30EE601A69
:1032500080ED071A90ED081A71EE001AC0ED081AF9
:1032600090ED0E1AF4EEC11AF1EE10FA01DD80EDC8
:10327000081AD0ED081AB1EE411AF4EEC11AF1EEB7
:1032800010FA01D280ED081A90ED021AD0ED081A5A
:1032900021EE000A90ED031A01EE210A90ED041AC6
:1032A00001EE200A80ED0A0A7047C0ED0E1A0830C0
:1032B00080EC030A7047000070B504464FF090455B
:1032C000012904D002294FF0000201D106E00122B9
:1032D00080212846FEF709FB002204E080212846D1
:1032E000FEF703FB012240212846FEF7FEFA9FED80
:1032F000290A372C34D007DCDCB1282C21D02D2C26
:1033000024D0322C06D126E03C2C2ED0502C31D0AB
:10331000642C34D0642C37D200EE104AB3EE081A75
:10332000F8EE400A80EE810A00EE904AF8EE600A5C
:103330002CE01948194980ED040A09680020086446
:1033400070BDDFED170A9FED170A1FE0DFED160ACB
:103350009FED160A1AE0DFED160A9FED160A15E03A
:10336000DFED150A9FED150A10E0DFED150A9FED60
:10337000150A0BE0DFED140A9FED140A06E0DFEDFD
:10338000140A9FED140A01E0F0EE400ABDE8704017
:1033900000F0C2BB0000000000000020180900205F
:1033A000000020420080CF44000034420060EA4424
:1033B000000048420000024500005C4200200F452A
:1033C0000000704200401C450000A0420020504513
:1033D0000000C842000082450C4800B5C16C87B0AF
:1033E00041F00101C164C06C694600F00100059024
:1033F0004FF4807000900020019002900220039012
:103400004FF09040FEF788F907B000BD0010024071
:103410000D4800B5C16C87B041F00101C164C06CBA
:10342000694600F0010005904FF480700090012083
:10343000019000200290022003904FF09040FEF790
:103440006BF907B000BD00000010024000B589B064
:103450004FF4002200900020CDE902020190049078
:103460000590069007900A46089069460448FDF7C3
:1034700061FE002801D0FDF73CF909B000BD000055
:10348000B40800202DED028B01259FED1E8A1E4CF5
:103490001E48FDF765FDFF211C48FDF7E3FCC8B1A0
:1034A000607868B3002060706078FFF71FFD00BF90
:1034B00094ED0D0A20EE080A84ED0E0AE078401C17
:1034C000C0B2E070322801D93320E070012000F052
:1034D000B1FCDDE7A5710D48FDF794FB02F001F9A1
:1034E0009FED0B1B53EC112B02F00EF99FED0A1B05
:1034F00053EC112B02F008F902F092F86063D7E761
:103500006570D1E70AD7F34000000020480800208A
:103510006666666666660A40000000000000303F8E
:10352000164D4FF440782DED028BA5F112069FED5C
:10353000128AA5F16A04B71D94ED0E0A20EE080A5E
:10354000BCEEC00A10EE100A288070886880B0882F
:10355000A8800020E563E16B11F8012B3A54401C70
:10356000E1630628F7D3054940460C39FFF76EFFA3
:10357000012000F05FFCDFE700007A446A000020D1
:103580000D4C4FF09045A17801290CD002290CD0A8
:1035900003290ED0002210212846FEF7A6F90120AB
:1035A00000F048FCEFE7642000E0C820FFF7C5FC0E
:1035B000F5E70122EFE7000000000020FFF74CFCD8
:1035C0001D4D4FF09046A5F1640404213046FEF7EE
:1035D00087F92070012801D070B127E068880128A0
:1035E00004D0022805D0002128201DE028780121E0
:1035F0001AE02878022117E094ED0E0AD4ED030AB0
:10360000B4EEE00AF1EE10FA02D80120607109E090
:1036100010EE100A0949884202DB0020607109E0BF
:10362000607938B102216420FFF746FE012000F0E6
:1036300001FCCAE70121F6E7640000200000B44164
:1036400010B5502080F31188BFF34F8FBFF36F8FF9
:1036500001F006FE18B104494FF0805008600020C8
:1036600080F3118810BD000004ED00E010B5A4B097
:1036700038216846FCF7F7FE14211FA8FCF7F3FE7B
:1036800044210EA8FCF7EFFE0020FEF7F3F901201D
:1036900000900004019002200324CDE907042A21B0
:1036A000CDE909011C21CDE90B100D906846FEF70C
:1036B000CDFC0F20CDE91F04002421942294042185
:1036C0001FA82394FEF780FB4FF410400E904FF09C
:1036D00080501D901A940EA8FEF732FA24B010BD47
:1036E0000248016841F470010160704788ED00E014
:1036F0000148FEF776BF0000640900202DE9F04381
:103700000268234B234D244E244C4FF080499842AD
:1037100007D0484505D0A84203D0B04201D0A0420E
:1037200003D122F070074A683A431D4FDFF874C096
:10373000DFF8748098420DD048450BD0A84209D0DC
:10374000B04207D0A04205D0B84203D0604501D0B6
:10375000404503D122F44075CA682A434D6922F0DE
:1037600080022A4302608A68C2620A6882629842C2
:1037700007D0A04205D0B84203D0604501D04045F3
:1037800001D10969016301214161BDE8F0830000B5
:10379000002C0140000400400008004000340140BB
:1037A00000400140004401400048014010B501F0D4
:1037B0001F030121046A99408C430462016A9A4004
:1037C0001143016210BD00002DE9F043026A22F0AE
:1037D00001020262056A436882691C4C25F00205F9
:1037E00022400C6822F0030214438A68194E2A43CF
:1037F000174D194FDFF864C0DFF86490A84207D076
:10380000B04205D0B84203D0604501D0484506D14A
:1038100022F00808CA6842EA080222F00402A8421C
:1038200007D0B04205D0B84203D0604501D048452A
:1038300005D14D6923F440731D438B692B434360CD
:103840008461496841630262BDE8F0838FFFFEFF37
:10385000002C014000340140004001400044014080
:1038600000480140F0B5026A22F010020262056AC7
:1038700042688369194C1B4E23400C6823F4407343
:1038800043EA042425F020038D6843EA0513144D10
:10389000A84201D0B04206D1CF6823F0800343EAAA
:1038A000071323F04003A8420AD0B04208D00E4DBF
:1038B000A84205D00D4DA84202D00D4DA84207D117
:1038C0004D6922F4406242EA85028D6942EA85022E
:1038D00042608461496881630362F0BDFF8FFFFE2F
:1038E000002C0140003401400040014000440140F0
:1038F00000480140F0B5026A22F480720262056A53
:103900004368C269194C1B4E22400C6822F0030226
:10391000144325F400728D6842EA0522144DA84232
:1039200001D0B04206D1CF6822F4006242EA0722F9
:1039300022F48062A8420AD0B04208D00E4DA842BC
:1039400005D00E4DA84202D00D4DA84207D14D69B9
:1039500023F4405343EA05138D6943EA051343609A
:10396000C4614968C1630262F0BD00008FFFFEFFC1
:10397000002C01400034014000400140004401405F
:1039800000480140F0B5026A22F480520262056AE2
:103990004268C369194C1B4E23400C6823F44073E2
:1039A00043EA042425F400538D6843EA0533144D9B
:1039B000A84201D0B04206D1CF6823F4004343EAC5
:1039C000073323F48043A8420AD0B04208D00E4DFA
:1039D000A84205D00D4DA84202D00D4DA84207D1F6
:1039E0004D6922F4404242EA85128D6942EA85120D
:1039F0004260C461496801640362F0BDFF8FFFFE4D
:103A0000002C0140003401400040014000440140CE
:103A10000048014030B5026A22F480320262046A32
:103A20004268036D114D2B400D681D4324F4003393
:103A30000C8943EA04430E4CA0420BD00D4CA0422B
:103A400008D00D4CA04205D00C4CA04202D00C4C2A
:103A5000A04204D14C6922F4803242EA042242603E
:103A6000056549688164036230BD00008FFFFEFF79
:103A7000002C01400034014000400140004401405E
:103A80000048014030B5026A22F480120262046AE2
:103A90004268036D114D24F400142B400D6843EA75
:103AA00005230D8944EA05540D4DA8420BD00D4D58
:103AB000A84208D00C4DA84205D00C4DA84202D017
:103AC0000B4DA84204D14D6922F4802242EA85229E
:103AD000426003654968C164046230BDFF8FFFFE28
:103AE000002C0140003401400040014000440140EE
:103AF00000480140FEE70907090E002804DB00F139
:103B0000E02080F80014704700F00F0000F1E02082
:103B100080F8141D7047000070B59A4C2DED028B93
:103B2000F0EE608AE078B0EE408A32284BD9FFF799
:103B300031F9022000F07EF994ED040A924DBCEEBA
:103B4000C00A296810EE100A0864022000F072F919
:103B50009FED8E1AA26B012104F15800B2F1804F43
:103B600034DA2279521CD2B22271C82A19D980883B
:103B7000D22200EE100AB8EE400ADFED850AB4EE5C
:103B8000C80AF1EE10FA01D2227131E000EE100AFB
:103B9000B8EE400AB4EEC80AF1EE10FA01DD227167
:103BA00034E0D4ED040AF5EEC00AF1EE10FA34D890
:103BB00084ED041A94ED040A2A68BCEEC00A10EEE3
:103BC000100A1064A170BDEC028B70BD6FF08043D1
:103BD000704E1344B3422ED2808800EE100AB8EE25
:103BE000400ADFED6D0AB4EEC80AF1EE10FA04D215
:103BF00094ED040A30EE200A0CE000EE100AB8EE54
:103C0000400AB4EEC80AF1EE10FACADD94ED040AD7
:103C100030EE600A84ED040AC3E794ED020AB8EEC0
:103C2000C01AF4EEC10AF1EE10FAC3DBB8EEC00A16
:103C300084ED040ABEE7594B1A44594B9FED590ACB
:103C40009A4268EE800A4BD20288808802F516728A
:103C500001EE902AB8EE612AC0EE821A00EE900AB8
:103C600021EE800AF8EE601AF6EE000AF4EEC01AB1
:103C7000F1EE10FA04D294ED040A30EE200A0CE0C2
:103C800001EE900AF8EE611AF4EEC01AF1EE10FAA5
:103C900005DD94ED040A30EE600A84ED040AD4EDEB
:103CA000040AF5EEC00AF1EE10FA02D884ED041A07
:103CB0000CE094ED020AB8EEC01AF4EEC10AF1EE7F
:103CC00010FA03DBB8EEC00A84ED040AA17094ED8B
:103CD000040A2968BCEEC00A10EE100A086472E7F4
:103CE0002849008864319FED302A898801EE101A36
:103CF000B8EE411A61EE001A01EE100AB8EE411A50
:103D000031EE022A81EE821A9FED282A61EE001A16
:103D100001EE101A00F51671A0F54870B8EE411AC0
:103D2000C1EE022A21EEA21A84ED151A01EE101A34
:103D3000F8EE411A80EEA11A61EE000A01EE100AB7
:103D4000B8EEC11AC1EE001AC4ED051A94ED060AC8
:103D5000F4EEC01AF1EE10FA02DCB0EE610A01E0F6
:103D600084ED050AFDEEE00A10EE900AFCF71CFC5B
:103D70000F49A06B884201DA022000E00320A07006
:103D800021E70000000000201809002000000000CA
:103D9000CDCCCC3DFFFF9F009A99993EFFFF5FBFBE
:103DA000FFFF7F0000007A440000164400007042CC
:103DB0000000A84170B54FF0E02400226569094970
:103DC000A36909684843A1699942FCD002D2A3EBD8
:103DD000010302E0A5EB010633441A440B4682427C
:103DE000F1D370BD7C000020FDF792FDFFF73EFC93
:103DF000FFF78AF9FFF7E4F8FFF71EF9FFF7E0F99C
:103E0000012211030648FDF770FD0C210548FEF75D
:103E1000E5FDFCF76FFCFFF737F900F012F8FEE75D
:103E2000000400481809002001460020842900D021
:103E3000C81C704710B500B9012000F0EBFD002050
:103E400010BD10B500F04EFE002010BD7FB50D4630
:103E500004464169B0F9080081B1A16971B1FFF769
:103E6000E3FFD4E905128DE80700D4E900102B46E2
:103E7000226901F0B6F9039004B070BDFFF7D4FFDA
:103E800003A9CDE90001208A2B4682B2D4E90010B3
:103E900001F07AF9012801D00020EDE70398EBE763
:103EA0001CB511C86CB1CDE90004012907D0002070
:103EB00013460246012109A001F03AFB1CBD012076
:103EC000F6E70090012907D00020134602460121A1
:103ED00002A001F013FB1CBD0120F6E7000000006A
:103EE0002DE9F041184C0F460546E6682068001D94
:103EF00000F05CFC38B9206890F82C100120884054
:103F0000216981432161681C07D137B12168BDE86F
:103F1000F0410E48091D00F099BC20683544B542B7
:103F20004560216805D2A06BBDE8F041091D00F095
:103F300075BC606B091D00F071FCA06A854200D25F
:103F4000A562BDE8F081000084000020CC0A0020BA
:103F50002DE9F041054600F085FC2E4CA068401C80
:103F6000A06020682C4F10B1606940B32DE025603F
:103F7000A068012829D1002606EB860007EB800007
:103F800000F03EFC761C072EF6D323488C3000F060
:103F900037FC2148A03000F033FC1F48B43000F05B
:103FA0002FFC1D48C83000F02BFC1B48DC3000F013
:103FB00027FC19488C3060631430A06305E020684A
:103FC000E96AC06A884200D82560606A401C606265
:103FD000E96A0120226988401043206101EB8100D9
:103FE00007EB8000291D00F031FC00F05BFC6069EC
:103FF00000280CD02068E96AC06A884207D20749C5
:104000004FF080500860BFF34F8FBFF36F8FBDE854
:10401000F081000084000020F009002004ED00E0A1
:1040200038B500F01FFC104C2068C8B90F4800F0EC
:10403000E7FB0E48143000F0E3FB0C48E06014305E
:1040400020610A4B0020C03B009003F148020C2184
:104050000A2000F03BFE206010B105A100F0A4FC96
:10406000BDE8384000F01EBCC0000020A00B0020BE
:10407000546D72510000000030B4026C0B46002AEF
:104080000BD0C1681144C1608468A14201D30168AA
:10409000C16030BC1846FCF76FB930BC70472DE9E1
:1040A000F041856B174604460026026C82B1C7B109
:1040B000E068FCF761F9E168206C091AE1602268A8
:1040C000914202D2A168081AE060022F16D017E0D0
:1040D0002068A8B9A06801F029F906460020A06070
:1040E0000EE06068FCF748F9216C60680844606085
:1040F000A168884204D32068606001E005B16D1EAC
:104100006D1CA5633046BDE8F08110B5044690F8FB
:10411000510058B101280CD002280FD0502080F354
:104120001188BFF34F8FBFF36F8FFEE7206B00F056
:10413000CDFB2046BDE8104000F0C8BB10BD00001C
:1041400010484FF44061420706D0C01D0D4920F0D1
:104150000700411AC1F540610B4A00230144C2E93E
:1041600000030839183A21F0070111604B600B6019
:104170000B1AC0E9001393604FF000405360506188
:1041800070470000C80B0020EC000020144E154CB6
:10419000A6F1C8074FF08058DFF84C9012E000BF3E
:1041A00000F060FBF068C568281D00F0FFFAA06809
:1041B000401EA0606068401E606000F073FB2846EF
:1041C000FFF7A3FF60680028EAD138680128F9D911
:1041D000C9F80080BFF34F8FBFF36F8FF2E7000085
:1041E000B80A00208400002004ED00E00346009897
:1041F00029B10260C0E90F31012100F09BBD0060D0
:10420000F8E72DE9F0479A46DDE9098481466FF029
:104210000303206B03EB82021044089E20F0070783
:10422000780707D0502080F31188BFF34F8FBFF37A
:104230006F8FFEE7002561B1002023180A5C83F828
:1042400034200A5C12B1401C1028F6D384F8435085
:1042500001E084F83450072E00D30626E662C4E954
:104260001165201D00F0D7FA04F1180000F0D3FA10
:104270002461C6F107006462A061E56484F85050CF
:1042800052464946384600F07BFA2060B8F1000FEC
:1042900001D0C8F80040BDE8F0872DE9F0471E4680
:1042A000DDE9089417460D00804615D0002C11D08A
:1042B000FFF7B6FE04F11801C4F8008081E860023F
:1042C000201D00F0A8FA002F04D014F8240F40F0AD
:1042D00004002070BDE8F087502080F31188BFF300
:1042E0004F8FBFF36F8FFEE730B5114900E01146E5
:1042F0000A688242FBD34B685C18844203D1406851
:1043000018444860084643681C18944209D1084C78
:10431000183C2468A24209D052681A4442600A68D4
:1043200012680260814200D0086030BD0460F9E785
:10433000EC00002070B5002441600B4D00619142FB
:1043400006D8D11A8269914206D2011D286907E078
:104350009A4203D2994201D3012403E0011DE86887
:1043600000F05CFA204670BDC000002010B5044685
:1043700000F078FAA06B28B15FF0000400F092FA28
:10438000204610BD0124F9E730B587B0394D67E00C
:104390000498002864DB069C606910B1201D00F0C1
:1043A00005FA03A800F0D8F8024604980A2857D264
:1043B000DFE800F00505052D334A05052D3394F897
:1043C000240040F0010084F824000599A069059BB1
:1043D00001442046FFF7AEFF68B3216A20468847B4
:1043E00094F8240040073BD5002000900598A1696F
:1043F000002342181946204601F0E2F8D8B95020AF
:1044000080F31188BFF34F8FBFF36F8FFEE714F86F
:10441000240F20F00100207022E094F8240040F0E6
:10442000010084F824000598A06128B18118134682
:104430002046FFF77FFF13E0502080F31188BFF381
:104440004F8FBFF36F8FFEE794F82400810703D4EA
:10445000204600F03BFA03E020F0010084F824003D
:10446000002204A9286800F0B9FD002890D107B007
:1044700030BD0000C00000202DE9FC410F4605467C
:1044800000F074FB01A800F067F80446019818B129
:1044900000F0D2FFBDE8FC81254EAFB13069006865
:1044A000D0B30027291B3A46306800F091FA00F09B
:1044B000C3FF0028EED11F494FF080500860BFF3C2
:1044C0004F8FBFF36F8FE5E7A542EBD800F0B4FF45
:1044D000F0682746C068C468201D00F067F994F8AA
:1044E0002400410719D5A0692B4641193A462046B8
:1044F000FFF720FFA8B100200346014600902A469E
:10450000204601F05DF860B9502080F31188BFF3B8
:104510004F8FBFF36F8FFEE707E020F0010084F8B4
:104520002400216A20468847B4E70127BAE7000043
:10453000C000002004ED00E00648416B096829B185
:10454000416BC968C9684968816270474FF0FF31A3
:10455000FAE700008400002070B5054600F07AFEFE
:10456000064E0446B068844203D200F009F80120E8
:1045700000E0002028602046B46070BDC00000202C
:10458000F8B5194D20E0C068C4680668201D00F029
:104590000DF9216A2046884794F82400400713D576
:1045A000A0693044B04206D924616060211DE868EA
:1045B00000F034F908E0002003460146009032463E
:1045C000204600F0FDFF38B1E86801680029DAD123
:1045D0002969C5E90310F8BD502080F31188BFF3A5
:1045E0004F8FBFF36F8FFEE7C00000200848406880
:1045F000401C4FF0500080F3118804D0BFF34F8F60
:10460000BFF36F8FFEE7BFF34F8FBFF36F8FFEE7F0
:10461000F4000020074CE068016841B1C068002147
:10462000D0F80000FFF728FFFFF7AEFEF3E7012107
:104630000020F7E7C00000202DE9F041044600F01B
:1046400011F994F9455004F1240609E0606A48B173
:10465000304600F0B7FE08B100F00AFA6D1E6DB2E8
:10466000002DF3DC4FF0FF3684F8456000F01AF9B6
:1046700000F0F8F894F9445004F1100709E02069BB
:1046800048B1384600F09EFE08B100F0F1F96D1E09
:104690006DB2002DF3DC84F84460BDE8F04100F019
:1046A00001B900002DE9F0410546002700F05EFA4F
:1046B000324E306808B9FFF743FD706905424ED1AC
:1046C000C5B3083568070ED005F00700C0F1080033
:1046D0000544680707D0502080F31188BFF34F8F3F
:1046E000BFF36F8FFEE72DB37068854237D823483C
:1046F000183001460C6801E020460C466168A9426A
:1047000002D221680029F7D131688C4227D007688E
:104710002168016060680837411B10290FD96019B2
:10472000420708D0502080F31188BFF34F8FBFF3AA
:104730006F8FFEE713E041606560FFF7D5FD6168AC
:104740007068401A7060B268904200D2B0607069C0
:1047500001430020C4E90001F068401CF06000F053
:104760006BFE780707D0502080F31188BFF34F8F7E
:10477000BFF36F8FFEE73846BDE8F081D40000201C
:1047800010B5031F4FF080741C601B1F21F0010146
:104790001960191F044B0B6014390A60091F6FF070
:1047A000020244380A6010BDED450008D0E901322C
:1047B00001699A60D0E901235A604A68824201D1B6
:1047C00082684A60002202610868401E086008682A
:1047D00070470000034B036003F154000860802021
:1047E0001060704728010020044B036003F154005F
:1047F00008604FF480701060704700007C03002058
:1048000000F108014FF0FF32C0E90112C1600161FF
:1048100000210160704700210161704730B50B68CD
:104820005A1C02D000F1080202E0026904E02246AC
:10483000546825689D42FAD953684B6099608A6034
:10484000516008610168491C016030BD42684A60DE
:1048500093688B6093685960916008610168491C96
:1048600001607047502080F31188BFF34F8FBFF372
:104870006F8F0A494868401C486001280CD10848DD
:10488000006810F0FF0F07D0502080F31188BFF3AD
:104890004F8FBFF36F8FFEE770470000F4000020DA
:1048A00004ED00E00849486828B1401E486001D185
:1048B00080F311887047502080F31188BFF34F8F29
:1048C000BFF36F8FFEE70000F400002070B50028F2
:1048D0002AD0164DA0F1080460686969084207D122
:1048E000502080F31188BFF34F8FBFF36F8FFEE727
:1048F00022683AB1502080F31188BFF34F8FBFF385
:104900006F8FFEE78843606000F030F96068696887
:10491000084468602046FFF7E7FC2869401C2861CE
:10492000BDE8704000F088BD70BD0000D4000020DC
:104930004FF0E02000210161816105494FF47A7256
:104940000968B1FBF2F1491E41610721016170471D
:104950008000002010B5FBF7EBFC114910280ED3A6
:1049600000F1E02090F8F0030A78904207D250203E
:1049700080F31188BFF34F8FBFF36F8FFEE70948B5
:104980000068896800F4E060884207D9502080F30D
:104990001188BFF34F8FBFF36F8FFEE710BD00008C
:1049A000F40000200CED00E010B5084B002200BF21
:1049B00053F832401CB1521C082AF9D310BD43F8F9
:1049C000321003EBC201486010BD0000B0090020A6
:1049D00070B515460E460446FFF744FF94F944109F
:1049E0000020491C01D184F8440094F94510491C69
:1049F00001D184F84500FFF755FFA06B28B92A467E
:104A0000314604F1240000F051F82046BDE8704022
:104A1000FFF712BE10B5020014D00F48006B38B17A
:104A2000502080F31188BFF34F8FBFF36F8FFEE7E5
:104A300000F09CF800211046FFF752FA00F0FCFC51
:104A4000002807D105494FF080500860BFF34F8F11
:104A5000BFF36F8F10BD00008400002004ED00E064
:104A600002490A6A0260C9684160704784000020F8
:104A700001490120C86170478400002010B50C4630
:104A800050B1094909681831FFF7C8FE2046BDE852
:104A900010400121FFF724BA502080F31188BFF3A2
:104AA0004F8FBFF36F8FFEE78400002070B5144670
:104AB0000D4668B10A4909681831FFF7C7FE0CB105
:104AC0004FF0FF3521462846BDE87040FFF708BA91
:104AD000502080F31188BFF34F8FBFF36F8FFEE735
:104AE0008400002030B587B00024039405AA04A9EF
:104AF00003A80494FFF76EFEDDE903010094CDE9FD
:104B00000110002315A11748059A00F06AFB164D05
:104B10000028E8621FD000F023FD012809D0401CC6
:104B200019D1502080F31188BFF34F8FBFF36F8FDF
:104B3000FEE7502080F31188BFF34F8FBFF36F8FD4
:104B40004FF0FF30A86201206861EC6007B0BDE85B
:104B5000304000F041B807B030BD000049444C453A
:104B6000000000008D410008840000200248016B15
:104B7000491C016370470000840000201448016B49
:104B800011B10121C16170470021C1610169B1FA10
:104B900081F1C1F11F0101EB81020E4951F8223070
:104BA0006BB101EB820101F108034A6852684A6067
:104BB0009A4201D152684A60D16801607047502022
:104BC00080F31188BFF34F8FBFF36F8FFEE70000B4
:104BD00084000020F00900201CB537480168374ADE
:104BE000914207D1502080F31188BFF34F8FBFF35C
:104BF0006F8FFEE700683149491E884207D1502077
:104C000080F31188BFF34F8FBFF36F8FFEE72C49FE
:104C100008780190FF20087008788DF800009DF852
:104C200000009DF8002000F0F000904207D05020D6
:104C300080F31188BFF34F8FBFF36F8FFEE79DF8AE
:104C40000000204C00F0500020700720A06005E01C
:104C50009DF8002052008DF80020401E9DF8002095
:104C60001206F5D4A060032807D0502080F31188E5
:104C7000BFF34F8FBFF36F8FFEE74FF44070A0601C
:104C8000019808700C482030016841F470010160FF
:104C9000016841F070410160FFF74AFE002060604A
:104CA000FBF70EFB0848016841F040410160FBF74B
:104CB000F3FA00201CBD000000ED00E071C20F41BE
:104CC00000E400E0F400002034EF00E038B5049D7B
:104CD00018B153B1CAB181B120E0502080F31188DE
:104CE000BFF34F8FBFF36F8FFEE7502080F3118823
:104CF000BFF34F8FBFF36F8FFEE7502080F3118813
:104D0000BFF34F8FBFF36F8FFEE739B1502080F3B1
:104D10001188BFF34F8FBFF36F8FFEE748241C4607
:104D2000012384F846302B460094FFF75FFA2046B3
:104D300038BD000070B50D46040025D0FFF792FD88
:104D4000D4E90F20216802FB0011A1600021A163BA
:104D5000216861600A46D4E90F01401E00FB012171
:104D6000E16021464FF0FF3001F8440F487004F134
:104D700010008DB1FFF744FD04F12400FFF740FD62
:104D8000FFF790FD012070BD502080F31188BFF324
:104D90004F8FBFF36F8FFEE721690029F0D000F03D
:104DA00011FB0028ECD004494FF080500860BFF39D
:104DB0004F8FBFF36F8FE3E704ED00E02DE9FF476E
:104DC00082B01D468A464FF00008040003D0BAF1B5
:104DD000000F08D011E0502080F31188BFF34F8FEF
:104DE000BFF36F8FFEE7206C38B1502080F311883D
:104DF000BFF34F8FBFF36F8FFEE7022D0AD1E06B39
:104E0000012807D0502080F31188BFF34F8FBFF3E4
:104E10006F8FFEE700F010FA3F4F4FF000094FF0A0
:104E2000805648B9049838B1502080F31188BFF3F8
:104E30004F8FBFF36F8FFEE7FFF714FDA06BE16BA1
:104E4000884207D3022D05D00498D0B1B8F1000FE5
:104E50001AD01EE02A4651462046FFF720F9616A23
:104E600019B104F1240000F0ADFA20B13E60BFF3A7
:104E70004F8FBFF36F8FFFF715FD012006B0BDE820
:104E8000F087FFF70FFD22E06846FFF7E9FD4FF0DE
:104E90000108FFF707FDFFF769FEFFF7E3FC94F950
:104EA0004400401C01D184F8449094F94500401C12
:104EB00001D184F84590FFF7F5FC04A9684600F09D
:104EC00029F930B12046FFF7B7FB00F0B5FA002012
:104ED000D4E7FFF7C7FCA06BE16B884213D1FFF763
:104EE000E1FC04F110000499FFF7C8FD2046FFF72C
:104EF000A3FB00F0A1FA00289ED13E60BFF34F8FC4
:104F0000BFF36F8F98E7FFF7CDFC2046FFF794FBC8
:104F100000F092FA90E7000004ED00E02DE9F04780
:104F20001F4690468946040003D0B9F1000F08D00F
:104F300011E0502080F31188BFF34F8FBFF36F8FC4
:104F4000FEE7206C38B1502080F31188BFF34F8FFB
:104F5000BFF36F8FFEE7022F0AD1E06B012807D065
:104F6000502080F31188BFF34F8FBFF36F8FFEE7A0
:104F7000FFF7F0FC5020EFF3118680F31188BFF3A8
:104F80004F8FBFF36F8FA06BE16B884206D3022F68
:104F900004D0002086F31188BDE8F08794F94550CD
:104FA000A06B3A4649462046FFF779F8681C04D0C2
:104FB0006D1C84F845500120ECE7606A0028FAD0A7
:104FC00004F1240000F0FEF90028F4D0B8F1000F3D
:104FD000F1D00121C8F80010EDE700002DE9F747F6
:104FE000002683B08A46040003D0BAF1000F08D02F
:104FF00011E0502080F31188BFF34F8FBFF36F8F04
:10500000FEE7206C38B1502080F31188BFF34F8F3A
:10501000BFF36F8FFEE700F00FF9DFF8F4804FF079
:1050200000094FF0805748B9059838B1502080F3F7
:105030001188BFF34F8FBFF36F8FFEE7FFF712FCAE
:10504000A56BC5B151462046FFF716F86D1EA56346
:10505000206950B104F1100000F0B4F928B1C8F88B
:105060000070BFF34F8FBFF36F8FFFF71BFC012062
:1050700006B0BDE8F087059808B11EB106E0FFF75D
:1050800011FC27E06846FFF7EBFC0126FFF70AFC5E
:10509000FFF76CFDFFF7E6FB94F94400401C01D1DB
:1050A00084F8449094F94500401C01D184F845905F
:1050B000FFF7F8FB05A9684600F02CF80028204609
:1050C0000AD0FFF7B9FA00F0B7F92046FFF74EF91A
:1050D0000028B3D00020CBE7FFF748F990B104F1E6
:1050E00024000599FFF7CAFC2046FFF7A5FA00F057
:1050F000A3F90028A2D1C8F80070BFF34F8FBFF307
:105100006F8F9BE72046FFF797FA00F095F995E738
:1051100004ED00E02DE9F0410C46050011D0C4B1CA
:10512000FFF7A0FB174BDA686E682068911B471CDD
:1051300017D02F681B6A9F4219D0964217D80124B6
:1051400010E0502080F31188BFF34F8FBFF36F8FB3
:10515000FEE7502080F31188BFF34F8FBFF36F8FAE
:10516000FEE70024FFF79EFB2046BDE8F081884261
:1051700005D9401A20602846FFF772FCF1E70020AD
:105180002060DCE7840000202DE9FF5F8346DDE935
:105190000E87994616468A469000FFF783FA050067
:1051A0001CD05420FFF77EFA040014D000202563A1
:1051B00084F85100CDE90240CDE900874B463246E4
:1051C00051465846FFF71DF82046FEF7C1FE012064
:1051D00004B0BDE8F09F2846FFF778FB4FF0FF30A2
:1051E000F6E7F0B585B0DDE90B640A9DA6B1DCB148
:1051F000542700972663022684F85160002604AFE6
:10520000CDE90246CDE90057FEF7FBFF2046FEF749
:105210009FFE049805B0F0BD502080F31188BFF3C5
:105220004F8FBFF36F8FFEE7502080F31188BFF3DD
:105230004F8FBFF36F8FFEE70548416919B1006BCF
:1052400018B100207047012070470220704700000D
:10525000840000200148C0687047000084000020DE
:105260002DE9F0412F4C0026206B28B1A069401C8D
:10527000A0613046BDE8F081E5686D1CE56013D1A2
:10528000606B006838B1502080F31188BFF34F8FF6
:10529000BFF36F8FFEE7606BA16B6163A063206A51
:1052A000401C2062FFF748F9A06ADFF87C80854245
:1052B00009D3606B0068A0B1606BC068C76878688C
:1052C000854211D2A0622068C06A00EB800158F8C4
:1052D0002100012800D90126E0690028C9D0012653
:1052E000C7E74FF0FF30EDE7381DFFF75FFAB86A08
:1052F00018B107F11800FFF759FAF96A012022697D
:1053000088401043206101EB810108EB8100391DC9
:10531000FFF79CFAF86A2168C96A8842C9D3012656
:10532000C7E7000084000020F009002070B50400E9
:105330004FF0000140D0214D2868844207D0502012
:1053400080F31188BFF34F8FBFF36F8FFEE7A06C20
:1053500038B1401EA064636CE26A9A422CD040B11E
:105360002AE0502080F31188BFF34F8FBFF36F8F77
:10537000FEE7201DFFF71AFA114A012150B9E06A31
:1053800000EB800352F8233023B92B6901FA00F0B7
:1053900083432B61606CE062C0F10700A061E06AAA
:1053A0002B6981401943296100EB800002EB8000EA
:1053B000211DFFF74BFA0121084670BD8400002033
:1053C000F00900202DE9F041C068C468ACB104F1D7
:1053D00018000746FFF7EAF9154D286B0126A0B122
:1053E00039461448FFF732FAE06A2968C96A8842E8
:1053F0001CD90120EE61BDE8F081502080F31188B6
:10540000BFF34F8FBFF36F8FFEE7201DFFF7CEF97D
:10541000E16A2A6906FA01F01043286101EB810074
:105420000449B43901EB8000211DDBE70020E2E7ED
:1054300084000020A40A00202DE9F0472C4D002410
:105440002746286B38B1FFF70DFA286B401E2863FA
:10545000286B40B146E0502080F31188BFF34F8F96
:10546000BFF36F8FFEE7A968224E0120D1B3A6F1EA
:10547000B40980463068E8B1F068C46804F11800E7
:10548000FFF794F9201DFFF791F9E06A2A6908FAFD
:1054900000F11143296100EB800109EB8100211D1E
:1054A000FFF7D4F9E06A2968C96A8842E2D3C5F8EF
:1054B0001C80DFE70CB1FFF73FF8AC6944B146460A
:1054C000FFF7CEFE00B1EE61641EF9D10020A861A5
:1054D000E86938B10849012738070860BFF34F8FE2
:1054E000BFF36F8FFFF7DEF93846BDE8F0870000A5
:1054F00084000020A40A002004ED00E02DE9FC4710
:1055000081461E461746884628200A9DFFF7CAF89E
:1055100004000AD0002084F82400CDE9005433466A
:105520003A4641464846FEF7B8FE2046BDE8FC87AD
:105530007CB52826DDE90654009644B1022684F89D
:105540002460CDE90054FEF7A8FE20467CBD502023
:1055500080F31188BFF34F8FBFF36F8FFEE700001A
:1055600010B586B0FEF75CFD114C2068B8B1002084
:105570000390049005AA04A903A8FFF735F9DDE913
:10558000032102208DE8070000230AA10B48059A99
:10559000FFF727FE606010B106B0012010BD50205B
:1055A00080F31188BFF34F8FBFF36F8FFEE70000CA
:1055B000C0000020546D7220537663001546000829
:1055C000FEB51E4613460200089D4FF0000014D0A1
:1055D000124C2768002F0FD0CDE900130292062944
:1055E00015DAFFF729FE02284FF000030DD0002244
:1055F00069462068FFF7E2FBFEBD502080F311886A
:10560000BFF34F8FBFF36F8FFEE72A46F0E700230B
:10561000324669463846FFF781FCFEBDC0000020D7
:1056200021F00042A2F16052B2F5801F01F0004368
:1056300028BFD2F17F6C0BD95FEA001C43EAC2029B
:1056400042EB507018BF704728BF20F00100704730
:10565000B2F5801FBCBF184670474FEA410C1CF5DD
:10566000001F02D2084600F052B970B500F0F6F8FB
:1056700000000089FFF7F6BF4FF00040A0F5800062
:10568000704700004FEA41034FEA5353A3F580638C
:10569000D3F11E03C8BFD3F1210C0CDD4FF0004243
:1056A00042EAC12242EA505232FA03FC8CEAE17C1F
:1056B000ACEBE1707047102BC4BF0020704703F5BE
:1056C000787CBCF1FF3F04D06FF0004282EA2100F9
:1056D000704770B500F0C2F84992248000207047EE
:1056E000F2E7B0FA80F310FA03F10AD0C3F11D0318
:1056F00003F580634FEA41504FEA035202EBD12198
:1057000070474FF000007047DFF848C170B51CEAE1
:10571000111E1EBF1CEA13159EEA0C0F95EA0C0F12
:1057200000F06F8081EA030423EA4C134EEAD47E32
:1057300021EA4C1141F4801143F48013AE44A1FBE3
:10574000024CA0FB0365AEF17F7E361955EB0C05CC
:10575000A1FB034C4CF10003A0FB021C16EB0C0652
:10576000654153F10003094218BF46F0010613F4E6
:10577000007F0BD14FEA03314FEA0530340341EA91
:10578000155140EA16506FF003020AE04FEAC321B8
:105790004FEAC520F40241EA555140EA56506FF0F5
:1057A000020202EB2E4201EB025585EACE710AD0CD
:1057B0005FEA440C18BF24F0004450F1000041F1AE
:1057C000000120EAD47040F2FE7C624500D270BD38
:1057D000A84214BF4FF080444FF04044002E08BF51
:1057E0000024BEF1806FA8BFA1F1C041BDE87040A8
:1057F00080F282804FF0000001F1C04101F00041D1
:1058000070479EEA0C0F0CEA131518BF95EA0C0FAF
:1058100006D04FF0000081EA030E0EF0004170BD8B
:1058200000F01CF88900013E00F007B800F009B84C
:105830004FEA430C5FEA5C5C08D081EA030100F0A8
:105840005BB84FEA410C5FEA5C5CF6D14FF00000B8
:10585000014970470000FF070000F87F0EF1020EBB
:105860002EF0030E5EF8046B364205D4012A43EB9A
:10587000030515F5001F12D8012841EB010C1CF59A
:10588000001F0CD80ED14FEAD17C15F5001F0CEB90
:105890004C0C0CF1020C08BF4CEBD37C04E04FF035
:1058A000080C01E04FEAD37C0CEB4C0526FA05F618
:1058B00006F00706B6F1040C06D20EEB860CBDE826
:1058C00070404CF0010C6047DFE80CF0090B02025D
:1058D0004FF000414FF00000A1F5002170BD1946C6
:1058E0001046012851EB010418BFD4F5001484BF01
:1058F000002001F0004170BD0808A0F500114FEA3A
:10590000310170474FF04070E1EE100A7047FF21FF
:1059100041EAD050C0057047A7050008000000000C
:10592000B85900088534000800000000000000009D
:10593000800000000000000000000000D8590008AE
:10594000BD3500080000000000000000000100005C
:105950000000000000000000CC59000821350008BC
:1059600000000000000000008000000000000000B7
:1059700000000000C0590008813500080000000048
:105980000000000080000000000000000000000097
:105990000001020304050607080C1014182030400B
:1059A00000000000000000000102030406070809CF
:1059B00000000000010203044144435461736B0082
:1059C0004C45445F5461736B0000000043414E5FDF
:1059D0005461736B00000000506F7765725F546113
:1059E000736B0000045A0008000000200001000052
:1059F00014020008045B000800010020281D0000BC
:105A00003002000800000000000000004F04000009
:105A10000000404100000000000000006666BA413E
:105A20006F12033A0742B238000000000000FA4447
:105A30000000000000000000000000000000000066
:105A40000000000000000000000000000000000056
:105A50000000000000000000000000000000000046
:105A60000000000000000000000000000000000036
:105A70000000000010000000010000000000000015
:105A8000000000000024F4000000000000000000FE
:105A90000000000000000000000000000000000006
:105AA00000000000000000000000000000000000F6
:105AB00000000000000000000000000000000000E6
:105AC00000000000000000000000000000000000D6
:105AD00000000000000000000000000000000000C6
